{
  "contractName": "BondPriceAuction",
  "abi": [
    {
      "inputs": [
        {
          "internalType": "string",
          "name": "project",
          "type": "string"
        },
        {
          "internalType": "address",
          "name": "company",
          "type": "address"
        },
        {
          "internalType": "uint256",
          "name": "minCoupon",
          "type": "uint256"
        },
        {
          "internalType": "uint256",
          "name": "maxCoupon",
          "type": "uint256"
        },
        {
          "internalType": "uint256",
          "name": "seekedNumberOfBonds",
          "type": "uint256"
        },
        {
          "internalType": "uint256",
          "name": "bidClosingTime",
          "type": "uint256"
        }
      ],
      "stateMutability": "nonpayable",
      "type": "constructor"
    },
    {
      "anonymous": false,
      "inputs": [
        {
          "indexed": false,
          "internalType": "address",
          "name": "bidder",
          "type": "address"
        },
        {
          "indexed": false,
          "internalType": "uint256",
          "name": "coupon",
          "type": "uint256"
        },
        {
          "indexed": false,
          "internalType": "uint256",
          "name": "amount",
          "type": "uint256"
        }
      ],
      "name": "Bid",
      "type": "event"
    },
    {
      "anonymous": false,
      "inputs": [
        {
          "indexed": false,
          "internalType": "uint256",
          "name": "coupon",
          "type": "uint256"
        }
      ],
      "name": "CouponSet",
      "type": "event"
    },
    {
      "anonymous": false,
      "inputs": [
        {
          "indexed": false,
          "internalType": "uint256",
          "name": "totalDemand",
          "type": "uint256"
        },
        {
          "indexed": false,
          "internalType": "uint256",
          "name": "expectedDemand",
          "type": "uint256"
        }
      ],
      "name": "DemandNotMet",
      "type": "event"
    },
    {
      "inputs": [],
      "name": "getProject",
      "outputs": [
        {
          "internalType": "string",
          "name": "",
          "type": "string"
        }
      ],
      "stateMutability": "view",
      "type": "function",
      "constant": true
    },
    {
      "inputs": [],
      "name": "getCompany",
      "outputs": [
        {
          "internalType": "address",
          "name": "",
          "type": "address"
        }
      ],
      "stateMutability": "view",
      "type": "function",
      "constant": true
    },
    {
      "inputs": [],
      "name": "getCoupon",
      "outputs": [
        {
          "internalType": "uint256",
          "name": "",
          "type": "uint256"
        }
      ],
      "stateMutability": "view",
      "type": "function",
      "constant": true
    },
    {
      "inputs": [],
      "name": "getMinCoupon",
      "outputs": [
        {
          "internalType": "uint256",
          "name": "",
          "type": "uint256"
        }
      ],
      "stateMutability": "view",
      "type": "function",
      "constant": true
    },
    {
      "inputs": [],
      "name": "getMaxCoupon",
      "outputs": [
        {
          "internalType": "uint256",
          "name": "",
          "type": "uint256"
        }
      ],
      "stateMutability": "view",
      "type": "function",
      "constant": true
    },
    {
      "inputs": [],
      "name": "getSeekedNumberOfBonds",
      "outputs": [
        {
          "internalType": "uint256",
          "name": "",
          "type": "uint256"
        }
      ],
      "stateMutability": "view",
      "type": "function",
      "constant": true
    },
    {
      "inputs": [],
      "name": "getBidClosingTime",
      "outputs": [
        {
          "internalType": "uint256",
          "name": "",
          "type": "uint256"
        }
      ],
      "stateMutability": "view",
      "type": "function",
      "constant": true
    },
    {
      "inputs": [
        {
          "internalType": "uint256",
          "name": "coupon",
          "type": "uint256"
        }
      ],
      "name": "getDemandAtCouponLevel",
      "outputs": [
        {
          "internalType": "uint256",
          "name": "",
          "type": "uint256"
        }
      ],
      "stateMutability": "view",
      "type": "function",
      "constant": true
    },
    {
      "inputs": [],
      "name": "isOpen",
      "outputs": [
        {
          "internalType": "bool",
          "name": "",
          "type": "bool"
        }
      ],
      "stateMutability": "view",
      "type": "function",
      "constant": true
    },
    {
      "inputs": [
        {
          "internalType": "uint256",
          "name": "coupon",
          "type": "uint256"
        },
        {
          "internalType": "uint256",
          "name": "numberOfTokens",
          "type": "uint256"
        }
      ],
      "name": "registerBid",
      "outputs": [],
      "stateMutability": "nonpayable",
      "type": "function"
    },
    {
      "inputs": [],
      "name": "defineCoupon",
      "outputs": [],
      "stateMutability": "nonpayable",
      "type": "function"
    }
  ],
  "bytecode": "0x60806040523480156200001157600080fd5b506040516200136b3803806200136b8339818101604052810190620000379190620002e3565b4281116200007c576040517f08c379a00000000000000000000000000000000000000000000000000000000081526004016200007390620003fa565b60405180910390fd5b85600190805190602001906200009492919062000193565b5084600260006101000a81548173ffffffffffffffffffffffffffffffffffffffff021916908373ffffffffffffffffffffffffffffffffffffffff16021790555083600381905550826004819055508160068190555080600781905550336000806101000a81548173ffffffffffffffffffffffffffffffffffffffff021916908373ffffffffffffffffffffffffffffffffffffffff160217905550600060058190555060005b83811015620001865760086000908060018154018082558091505060019003906000526020600020016000909190919091505580806200017d906200053e565b9150506200013d565b505050505050506200064d565b828054620001a19062000508565b90600052602060002090601f016020900481019282620001c5576000855562000211565b82601f10620001e057805160ff191683800117855562000211565b8280016001018555821562000211579182015b8281111562000210578251825591602001919060010190620001f3565b5b50905062000220919062000224565b5090565b5b808211156200023f57600081600090555060010162000225565b5090565b60006200025a620002548462000450565b6200041c565b9050828152602081018484840111156200027357600080fd5b62000280848285620004d2565b509392505050565b600081519050620002998162000619565b92915050565b600082601f830112620002b157600080fd5b8151620002c384826020860162000243565b91505092915050565b600081519050620002dd8162000633565b92915050565b60008060008060008060c08789031215620002fd57600080fd5b600087015167ffffffffffffffff8111156200031857600080fd5b6200032689828a016200029f565b96505060206200033989828a0162000288565b95505060406200034c89828a01620002cc565b94505060606200035f89828a01620002cc565b93505060806200037289828a01620002cc565b92505060a06200038589828a01620002cc565b9150509295509295509295565b6000620003a160218362000483565b91507f436c6f73696e672074696d652063616e277420626520696e207468652070617360008301527f74000000000000000000000000000000000000000000000000000000000000006020830152604082019050919050565b60006020820190508181036000830152620004158162000392565b9050919050565b6000604051905081810181811067ffffffffffffffff82111715620004465762000445620005ea565b5b8060405250919050565b600067ffffffffffffffff8211156200046e576200046d620005ea565b5b601f19601f8301169050602081019050919050565b600082825260208201905092915050565b6000620004a182620004a8565b9050919050565b600073ffffffffffffffffffffffffffffffffffffffff82169050919050565b6000819050919050565b60005b83811015620004f2578082015181840152602081019050620004d5565b8381111562000502576000848401525b50505050565b600060028204905060018216806200052157607f821691505b60208210811415620005385762000537620005bb565b5b50919050565b60006200054b82620004c8565b91507fffffffffffffffffffffffffffffffffffffffffffffffffffffffffffffffff8214156200058157620005806200058c565b5b600182019050919050565b7f4e487b7100000000000000000000000000000000000000000000000000000000600052601160045260246000fd5b7f4e487b7100000000000000000000000000000000000000000000000000000000600052602260045260246000fd5b7f4e487b7100000000000000000000000000000000000000000000000000000000600052604160045260246000fd5b620006248162000494565b81146200063057600080fd5b50565b6200063e81620004c8565b81146200064a57600080fd5b50565b610d0e806200065d6000396000f3fe608060405234801561001057600080fd5b50600436106100a95760003560e01c806347535d7b1161007157806347535d7b146101545780636e57b700146101725780637edd13c514610190578063915dd036146101ae578063924091dc146101cc578063c6b10134146101d6576100a9565b806307634cbe146100ae5780630c364957146100cc578063127810bc146100e85780631b1963d21461010657806346c1ba0d14610136575b600080fd5b6100b66101f4565b6040516100c39190610a91565b60405180910390f35b6100e660048036038101906100e1919061075a565b6101fe565b005b6100f0610387565b6040516100fd9190610962565b60405180910390f35b610120600480360381019061011b9190610731565b6103b1565b60405161012d9190610a91565b60405180910390f35b61013e61045e565b60405161014b9190610a91565b60405180910390f35b61015c610468565b60405161016991906109b4565b60405180910390f35b61017a610475565b60405161018791906109cf565b60405180910390f35b610198610507565b6040516101a59190610a91565b60405180910390f35b6101b6610511565b6040516101c39190610a91565b60405180910390f35b6101d461051b565b005b6101de610712565b6040516101eb9190610a91565b60405180910390f35b6000600554905090565b610206610468565b610245576040517f08c379a000000000000000000000000000000000000000000000000000000000815260040161023c90610a11565b60405180910390fd5b600354821015801561025957506004548211155b610298576040517f08c379a000000000000000000000000000000000000000000000000000000000815260040161028f906109f1565b60405180910390fd5b60006001836102a79190610b47565b90506000600882815481106102e5577f4e487b7100000000000000000000000000000000000000000000000000000000600052603260045260246000fd5b9060005260206000200154905082816102fe9190610af1565b60088381548110610338577f4e487b7100000000000000000000000000000000000000000000000000000000600052603260045260246000fd5b90600052602060002001819055507f19421268847f42dd61705778018ddfc43bcdce8517e7a630acb12f122c7094813385856040516103799392919061097d565b60405180910390a150505050565b6000600260009054906101000a900473ffffffffffffffffffffffffffffffffffffffff16905090565b600060035482101580156103c757506004548211155b610406576040517f08c379a00000000000000000000000000000000000000000000000000000000081526004016103fd90610a31565b60405180910390fd5b60086001836104159190610b47565b8154811061044c577f4e487b7100000000000000000000000000000000000000000000000000000000600052603260045260246000fd5b90600052602060002001549050919050565b6000600654905090565b6000600754421115905090565b60606001805461048490610c20565b80601f01602080910402602001604051908101604052809291908181526020018280546104b090610c20565b80156104fd5780601f106104d2576101008083540402835291602001916104fd565b820191906000526020600020905b8154815290600101906020018083116104e057829003601f168201915b5050505050905090565b6000600454905090565b6000600354905090565b610523610468565b15610563576040517f08c379a000000000000000000000000000000000000000000000000000000000815260040161055a90610a71565b60405180910390fd5b60008054906101000a900473ffffffffffffffffffffffffffffffffffffffff1673ffffffffffffffffffffffffffffffffffffffff163373ffffffffffffffffffffffffffffffffffffffff16146105f1576040517f08c379a00000000000000000000000000000000000000000000000000000000081526004016105e890610a51565b60405180910390fd5b60008060045490505b60008111156106895760086001826106129190610b47565b81548110610649577f4e487b7100000000000000000000000000000000000000000000000000000000600052603260045260246000fd5b90600052602060002001548261065f9190610af1565b915060065482106106765780600581905550610689565b808061068190610bf6565b9150506105fa565b50600060055411156106d3577f34ccc1cc859f0b1e974530f1eb22e713649d5f3937abf904589392796241d6116005546040516106c69190610a91565b60405180910390a161070f565b7ffd2e684f12ffe034123999d0aa8f43d7eb76eef75c5f89ca7f851add7f0b0a9081600654604051610706929190610aac565b60405180910390a15b50565b6000600754905090565b60008135905061072b81610cc1565b92915050565b60006020828403121561074357600080fd5b60006107518482850161071c565b91505092915050565b6000806040838503121561076d57600080fd5b600061077b8582860161071c565b925050602061078c8582860161071c565b9150509250929050565b61079f81610b7b565b82525050565b6107ae81610b8d565b82525050565b60006107bf82610ad5565b6107c98185610ae0565b93506107d9818560208601610bc3565b6107e281610cb0565b840191505092915050565b60006107fa602883610ae0565b91507f436f75706f6e206e6565647320746f206265206265747765656e20746865207360008301527f65742072616e67650000000000000000000000000000000000000000000000006020830152604082019050919050565b6000610860601683610ae0565b91507f42696464696e672074696d6520697320636c6f736564000000000000000000006000830152602082019050919050565b60006108a0601383610ae0565b91507f436f75706f6e206f7574206f662072616e6765000000000000000000000000006000830152602082019050919050565b60006108e0602083610ae0565b91507f4f6e6c79206f776e65722063616e20646566696e652074686520636f75706f6e6000830152602082019050919050565b6000610920601a83610ae0565b91507f42696464696e672074696d65206973207374696c6c206f70656e0000000000006000830152602082019050919050565b61095c81610bb9565b82525050565b60006020820190506109776000830184610796565b92915050565b60006060820190506109926000830186610796565b61099f6020830185610953565b6109ac6040830184610953565b949350505050565b60006020820190506109c960008301846107a5565b92915050565b600060208201905081810360008301526109e981846107b4565b905092915050565b60006020820190508181036000830152610a0a816107ed565b9050919050565b60006020820190508181036000830152610a2a81610853565b9050919050565b60006020820190508181036000830152610a4a81610893565b9050919050565b60006020820190508181036000830152610a6a816108d3565b9050919050565b60006020820190508181036000830152610a8a81610913565b9050919050565b6000602082019050610aa66000830184610953565b92915050565b6000604082019050610ac16000830185610953565b610ace6020830184610953565b9392505050565b600081519050919050565b600082825260208201905092915050565b6000610afc82610bb9565b9150610b0783610bb9565b9250827fffffffffffffffffffffffffffffffffffffffffffffffffffffffffffffffff03821115610b3c57610b3b610c52565b5b828201905092915050565b6000610b5282610bb9565b9150610b5d83610bb9565b925082821015610b7057610b6f610c52565b5b828203905092915050565b6000610b8682610b99565b9050919050565b60008115159050919050565b600073ffffffffffffffffffffffffffffffffffffffff82169050919050565b6000819050919050565b60005b83811015610be1578082015181840152602081019050610bc6565b83811115610bf0576000848401525b50505050565b6000610c0182610bb9565b91506000821415610c1557610c14610c52565b5b600182039050919050565b60006002820490506001821680610c3857607f821691505b60208210811415610c4c57610c4b610c81565b5b50919050565b7f4e487b7100000000000000000000000000000000000000000000000000000000600052601160045260246000fd5b7f4e487b7100000000000000000000000000000000000000000000000000000000600052602260045260246000fd5b6000601f19601f8301169050919050565b610cca81610bb9565b8114610cd557600080fd5b5056fea2646970667358221220d56a600ef3c04ab76aafaafe78cdc944b8a9333879ec51248a1a22dcc52afea564736f6c63430008000033",
  "immutableReferences": {},
  "source": "// SPDX-License-Identifier: MIT\npragma solidity >=0.6.0;\n\ncontract BondPriceAuction {\n\n    /**\n     * @dev Reverts if bidding time is not open\n     */\n    modifier onlyWhileBiddingOpen {\n        require(isOpen(), \"Bidding time is closed\");\n        _;\n    }\n\n    /**\n     * @dev Reverts if bidding time is still open\n     */\n    modifier onlyWhenBiddingClosed {\n        require(!isOpen(), \"Bidding time is still open\");\n        _;\n    }\n\n    event Bid(address bidder, uint256 coupon, uint256 amount);\n    event CouponSet(uint256 coupon);\n    event DemandNotMet(uint256 totalDemand, uint256 expectedDemand);\n\n    address private _owner;\n    string private _project;\n    address private _company;\n    uint256 private _minCoupon;\n    uint256 private _maxCoupon;\n    uint256 private _coupon;\n    uint256 private _seekedNumberOfBonds;\n    uint256 private _bidClosingTime;\n\n    uint256[] private _couponMatrix;\n\n    constructor(\n        string memory project,\n        address company,\n        uint256 minCoupon,\n        uint256 maxCoupon,\n        uint256 seekedNumberOfBonds,\n        uint256 bidClosingTime\n    ) {\n        require(bidClosingTime > block.timestamp, \"Closing time can't be in the past\");\n        _project = project;\n        _company = company;\n        _minCoupon = minCoupon;\n        _maxCoupon = maxCoupon;\n        _seekedNumberOfBonds = seekedNumberOfBonds;\n        _bidClosingTime = bidClosingTime;\n        _owner = msg.sender;\n        // Initialise coupon to 0\n        _coupon = 0;\n\n        // Initialize array to 0s\n        for (uint i = 0; i < maxCoupon; i++) {\n            _couponMatrix.push(0);\n        }\n    }\n\n    function getProject() public view returns(string memory) {\n        return _project;\n    }\n\n    function getCompany() public view returns(address) {\n        return _company;\n    }\n\n    function getCoupon() public view returns(uint256) {\n        return _coupon;\n    }\n\n    function getMinCoupon() public view returns(uint256){\n        return _minCoupon;\n    }\n\n    function getMaxCoupon() public view returns(uint256){\n        return _maxCoupon;\n    }\n\n    function getSeekedNumberOfBonds() public view returns(uint256) {\n        return _seekedNumberOfBonds;\n    }\n\n    function getBidClosingTime() public view returns(uint256) {\n        return _bidClosingTime;\n    }\n\n    function getDemandAtCouponLevel(uint256 coupon) public view returns(uint256) {\n        require(coupon >= _minCoupon && coupon <= _maxCoupon, \"Coupon out of range\");\n        return _couponMatrix[coupon - 1];\n    }\n\n    /**\n     * @return true if the registering investments is open, false otherwise.\n     */\n    function isOpen() public view returns (bool) {\n        return block.timestamp <= _bidClosingTime;\n   }\n\n\n    function registerBid(uint256 coupon, uint256 numberOfTokens) public onlyWhileBiddingOpen {\n        require(coupon >= _minCoupon && coupon <= _maxCoupon, \"Coupon needs to be between the set range\");\n\n        // Update the coupon record\n        uint256 index = coupon - 1;\n        uint256 currentDemand = _couponMatrix[index];\n        _couponMatrix[index] = currentDemand + numberOfTokens;\n        emit Bid(msg.sender, coupon, numberOfTokens);\n    }\n\n    function defineCoupon() public onlyWhenBiddingClosed {\n        require(msg.sender == _owner, \"Only owner can define the coupon\");\n        // Variable for the total demand for tokens\n        uint256 tokenDemand = 0;\n\n        // Iterate each coupon level, and count the token demand to\n        // determine the coupon level which will fulfill the seeked number of tokens\n        for(uint i = _maxCoupon; i > 0 ; i--) {\n            // Increase the token \n            tokenDemand += _couponMatrix[i-1];\n            // If enough interest at this copupn level, set coupon and break the loop\n            if (tokenDemand >= _seekedNumberOfBonds) {\n                _coupon = i;\n                break;\n            }\n        }\n        if (_coupon > 0) {\n            emit CouponSet(_coupon);\n        } else {\n            emit DemandNotMet(tokenDemand, _seekedNumberOfBonds);\n        }\n        \n    }\n}\n",
  "sourcePath": "/Users/leena/Documents/Coding/Blockchain_Green_Bonds/testProjects/OZ_test/contracts/BondPriceAuction.sol",
  "compiler": {
    "name": "solc",
    "version": "0.8.0+commit.c7dfd78e.Emscripten.clang"
  },
  "schemaVersion": "3.3.4",
  "updatedAt": "2021-07-06T10:50:59.822Z",
  "networkType": "ethereum",
  "devdoc": {
    "kind": "dev",
    "methods": {
      "isOpen()": {
        "returns": {
          "_0": "true if the registering investments is open, false otherwise."
        }
      }
    },
    "version": 1
  },
  "userdoc": {
    "kind": "user",
    "methods": {},
    "version": 1
  }
}