{
  "contractName": "BondPriceAuction",
  "abi": [
    {
      "inputs": [
        {
          "internalType": "string",
          "name": "project",
          "type": "string"
        },
        {
          "internalType": "address",
          "name": "company",
          "type": "address"
        },
        {
          "internalType": "uint256",
          "name": "minCoupon",
          "type": "uint256"
        },
        {
          "internalType": "uint256",
          "name": "maxCoupon",
          "type": "uint256"
        },
        {
          "internalType": "uint256",
          "name": "seekedNumberOfBonds",
          "type": "uint256"
        },
        {
          "internalType": "uint256",
          "name": "bidClosingTime",
          "type": "uint256"
        }
      ],
      "stateMutability": "nonpayable",
      "type": "constructor"
    },
    {
      "anonymous": false,
      "inputs": [
        {
          "indexed": false,
          "internalType": "address",
          "name": "bidder",
          "type": "address"
        },
        {
          "indexed": false,
          "internalType": "uint256",
          "name": "coupon",
          "type": "uint256"
        },
        {
          "indexed": false,
          "internalType": "uint256",
          "name": "amount",
          "type": "uint256"
        }
      ],
      "name": "Bid",
      "type": "event"
    },
    {
      "anonymous": false,
      "inputs": [
        {
          "indexed": false,
          "internalType": "address",
          "name": "investor",
          "type": "address"
        },
        {
          "indexed": false,
          "internalType": "uint256",
          "name": "amount",
          "type": "uint256"
        }
      ],
      "name": "BondIssue",
      "type": "event"
    },
    {
      "anonymous": false,
      "inputs": [
        {
          "indexed": false,
          "internalType": "uint256",
          "name": "coupon",
          "type": "uint256"
        }
      ],
      "name": "CouponSet",
      "type": "event"
    },
    {
      "anonymous": false,
      "inputs": [
        {
          "indexed": false,
          "internalType": "uint256",
          "name": "totalDemand",
          "type": "uint256"
        },
        {
          "indexed": false,
          "internalType": "uint256",
          "name": "expectedDemand",
          "type": "uint256"
        }
      ],
      "name": "DemandNotMet",
      "type": "event"
    },
    {
      "anonymous": false,
      "inputs": [
        {
          "indexed": false,
          "internalType": "address",
          "name": "investor",
          "type": "address"
        },
        {
          "indexed": false,
          "internalType": "uint256",
          "name": "amount",
          "type": "uint256"
        }
      ],
      "name": "Refund",
      "type": "event"
    },
    {
      "inputs": [
        {
          "internalType": "uint256",
          "name": "coupon",
          "type": "uint256"
        }
      ],
      "name": "getInvestorsAtCoupon",
      "outputs": [
        {
          "internalType": "address[]",
          "name": "",
          "type": "address[]"
        }
      ],
      "stateMutability": "view",
      "type": "function"
    },
    {
      "inputs": [
        {
          "internalType": "uint256",
          "name": "coupon",
          "type": "uint256"
        }
      ],
      "name": "numberOfInvestorsAtCoupon",
      "outputs": [
        {
          "internalType": "uint256",
          "name": "",
          "type": "uint256"
        }
      ],
      "stateMutability": "view",
      "type": "function"
    },
    {
      "inputs": [
        {
          "internalType": "address",
          "name": "investor",
          "type": "address"
        },
        {
          "internalType": "uint256",
          "name": "coupon",
          "type": "uint256"
        }
      ],
      "name": "getInvestorsInterestAtCouponLevel",
      "outputs": [
        {
          "internalType": "uint256",
          "name": "",
          "type": "uint256"
        }
      ],
      "stateMutability": "view",
      "type": "function"
    },
    {
      "inputs": [
        {
          "internalType": "address",
          "name": "investor",
          "type": "address"
        }
      ],
      "name": "getAmountInvesterPerInvestor",
      "outputs": [
        {
          "internalType": "uint256",
          "name": "",
          "type": "uint256"
        }
      ],
      "stateMutability": "view",
      "type": "function"
    },
    {
      "inputs": [],
      "name": "getProject",
      "outputs": [
        {
          "internalType": "string",
          "name": "",
          "type": "string"
        }
      ],
      "stateMutability": "view",
      "type": "function"
    },
    {
      "inputs": [],
      "name": "getCompany",
      "outputs": [
        {
          "internalType": "address",
          "name": "",
          "type": "address"
        }
      ],
      "stateMutability": "view",
      "type": "function"
    },
    {
      "inputs": [],
      "name": "getCoupon",
      "outputs": [
        {
          "internalType": "uint256",
          "name": "",
          "type": "uint256"
        }
      ],
      "stateMutability": "view",
      "type": "function"
    },
    {
      "inputs": [],
      "name": "getMinCoupon",
      "outputs": [
        {
          "internalType": "uint256",
          "name": "",
          "type": "uint256"
        }
      ],
      "stateMutability": "view",
      "type": "function"
    },
    {
      "inputs": [],
      "name": "getMaxCoupon",
      "outputs": [
        {
          "internalType": "uint256",
          "name": "",
          "type": "uint256"
        }
      ],
      "stateMutability": "view",
      "type": "function"
    },
    {
      "inputs": [],
      "name": "getSeekedNumberOfBonds",
      "outputs": [
        {
          "internalType": "uint256",
          "name": "",
          "type": "uint256"
        }
      ],
      "stateMutability": "view",
      "type": "function"
    },
    {
      "inputs": [],
      "name": "getBidClosingTime",
      "outputs": [
        {
          "internalType": "uint256",
          "name": "",
          "type": "uint256"
        }
      ],
      "stateMutability": "view",
      "type": "function"
    },
    {
      "inputs": [
        {
          "internalType": "uint256",
          "name": "coupon",
          "type": "uint256"
        }
      ],
      "name": "getDemandAtCouponLevel",
      "outputs": [
        {
          "internalType": "uint256",
          "name": "",
          "type": "uint256"
        }
      ],
      "stateMutability": "view",
      "type": "function"
    },
    {
      "inputs": [],
      "name": "isOpen",
      "outputs": [
        {
          "internalType": "bool",
          "name": "",
          "type": "bool"
        }
      ],
      "stateMutability": "view",
      "type": "function"
    },
    {
      "inputs": [
        {
          "internalType": "uint256",
          "name": "coupon",
          "type": "uint256"
        },
        {
          "internalType": "uint256",
          "name": "numberOfBonds",
          "type": "uint256"
        }
      ],
      "name": "registerBid2",
      "outputs": [],
      "stateMutability": "payable",
      "type": "function"
    },
    {
      "inputs": [],
      "name": "issueTokens",
      "outputs": [],
      "stateMutability": "nonpayable",
      "type": "function"
    },
    {
      "inputs": [],
      "name": "defineCoupon2",
      "outputs": [
        {
          "internalType": "uint256",
          "name": "",
          "type": "uint256"
        }
      ],
      "stateMutability": "nonpayable",
      "type": "function"
    },
    {
      "inputs": [
        {
          "internalType": "uint256",
          "name": "coupon",
          "type": "uint256"
        },
        {
          "internalType": "uint256",
          "name": "numberOfTokens",
          "type": "uint256"
        }
      ],
      "name": "registerBid",
      "outputs": [],
      "stateMutability": "nonpayable",
      "type": "function"
    },
    {
      "inputs": [],
      "name": "defineCoupon",
      "outputs": [
        {
          "internalType": "uint256",
          "name": "",
          "type": "uint256"
        }
      ],
      "stateMutability": "nonpayable",
      "type": "function"
    }
  ],
  "bytecode": "0x608060405260646008553480156200001657600080fd5b50604051620023073803806200230783398181016040528101906200003c9190620002e8565b42811162000081576040517f08c379a00000000000000000000000000000000000000000000000000000000081526004016200007890620003ff565b60405180910390fd5b85600190805190602001906200009992919062000198565b5084600260006101000a81548173ffffffffffffffffffffffffffffffffffffffff021916908373ffffffffffffffffffffffffffffffffffffffff16021790555083600381905550826004819055508160068190555080600781905550336000806101000a81548173ffffffffffffffffffffffffffffffffffffffff021916908373ffffffffffffffffffffffffffffffffffffffff160217905550600060058190555060005b838110156200018b576009600090806001815401808255809150506001900390600052602060002001600090919091909150558080620001829062000543565b91505062000142565b5050505050505062000652565b828054620001a6906200050d565b90600052602060002090601f016020900481019282620001ca576000855562000216565b82601f10620001e557805160ff191683800117855562000216565b8280016001018555821562000216579182015b8281111562000215578251825591602001919060010190620001f8565b5b50905062000225919062000229565b5090565b5b80821115620002445760008160009055506001016200022a565b5090565b60006200025f620002598462000455565b62000421565b9050828152602081018484840111156200027857600080fd5b62000285848285620004d7565b509392505050565b6000815190506200029e816200061e565b92915050565b600082601f830112620002b657600080fd5b8151620002c884826020860162000248565b91505092915050565b600081519050620002e28162000638565b92915050565b60008060008060008060c087890312156200030257600080fd5b600087015167ffffffffffffffff8111156200031d57600080fd5b6200032b89828a01620002a4565b96505060206200033e89828a016200028d565b95505060406200035189828a01620002d1565b94505060606200036489828a01620002d1565b93505060806200037789828a01620002d1565b92505060a06200038a89828a01620002d1565b9150509295509295509295565b6000620003a660218362000488565b91507f436c6f73696e672074696d652063616e277420626520696e207468652070617360008301527f74000000000000000000000000000000000000000000000000000000000000006020830152604082019050919050565b600060208201905081810360008301526200041a8162000397565b9050919050565b6000604051905081810181811067ffffffffffffffff821117156200044b576200044a620005ef565b5b8060405250919050565b600067ffffffffffffffff821115620004735762000472620005ef565b5b601f19601f8301169050602081019050919050565b600082825260208201905092915050565b6000620004a682620004ad565b9050919050565b600073ffffffffffffffffffffffffffffffffffffffff82169050919050565b6000819050919050565b60005b83811015620004f7578082015181840152602081019050620004da565b8381111562000507576000848401525b50505050565b600060028204905060018216806200052657607f821691505b602082108114156200053d576200053c620005c0565b5b50919050565b60006200055082620004cd565b91507fffffffffffffffffffffffffffffffffffffffffffffffffffffffffffffffff82141562000586576200058562000591565b5b600182019050919050565b7f4e487b7100000000000000000000000000000000000000000000000000000000600052601160045260246000fd5b7f4e487b7100000000000000000000000000000000000000000000000000000000600052602260045260246000fd5b7f4e487b7100000000000000000000000000000000000000000000000000000000600052604160045260246000fd5b620006298162000499565b81146200063557600080fd5b50565b6200064381620004cd565b81146200064f57600080fd5b50565b611ca580620006626000396000f3fe6080604052600436106101095760003560e01c80636e57b70011610095578063924091dc11610064578063924091dc1461035d578063bdbd1d6914610388578063c6b10134146103c5578063d9fde125146103f0578063e9a719791461040c57610109565b80636e57b700146102b15780637edd13c5146102dc5780638153089414610307578063915dd0361461033257610109565b806346c1ba0d116100dc57806346c1ba0d146101ca57806347535d7b146101f557806360ab585214610220578063615c58951461023757806366428bb31461027457610109565b806307634cbe1461010e5780630c36495714610139578063127810bc146101625780631b1963d21461018d575b600080fd5b34801561011a57600080fd5b50610123610449565b6040516101309190611935565b60405180910390f35b34801561014557600080fd5b50610160600480360381019061015b9190611448565b610453565b005b34801561016e57600080fd5b506101776105dc565b604051610184919061177b565b60405180910390f35b34801561019957600080fd5b506101b460048036038101906101af919061141f565b610606565b6040516101c19190611935565b60405180910390f35b3480156101d657600080fd5b506101df6106b3565b6040516101ec9190611935565b60405180910390f35b34801561020157600080fd5b5061020a6106bd565b6040516102179190611818565b60405180910390f35b34801561022c57600080fd5b506102356106ca565b005b34801561024357600080fd5b5061025e600480360381019061025991906113e3565b6108d8565b60405161026b9190611935565b60405180910390f35b34801561028057600080fd5b5061029b6004803603810190610296919061141f565b610933565b6040516102a89190611935565b60405180910390f35b3480156102bd57600080fd5b506102c6610946565b6040516102d39190611833565b60405180910390f35b3480156102e857600080fd5b506102f16109d8565b6040516102fe9190611935565b60405180910390f35b34801561031357600080fd5b5061031c6109e2565b6040516103299190611935565b60405180910390f35b34801561033e57600080fd5b50610347610b97565b6040516103549190611935565b60405180910390f35b34801561036957600080fd5b50610372610ba1565b60405161037f9190611935565b60405180910390f35b34801561039457600080fd5b506103af60048036038101906103aa919061141f565b610d9e565b6040516103bc91906117f6565b60405180910390f35b3480156103d157600080fd5b506103da610e92565b6040516103e79190611935565b60405180910390f35b61040a60048036038101906104059190611448565b610e9c565b005b34801561041857600080fd5b50610433600480360381019061042e91906113ba565b6111b1565b6040516104409190611935565b60405180910390f35b6000600554905090565b61045b6106bd565b61049a576040517f08c379a000000000000000000000000000000000000000000000000000000000815260040161049190611875565b60405180910390fd5b60035482101580156104ae57506004548211155b6104ed576040517f08c379a00000000000000000000000000000000000000000000000000000000081526004016104e490611855565b60405180910390fd5b60006001836104fc9190611a7e565b905060006009828154811061053a577f4e487b7100000000000000000000000000000000000000000000000000000000600052603260045260246000fd5b90600052602060002001549050828161055391906119ce565b6009838154811061058d577f4e487b7100000000000000000000000000000000000000000000000000000000600052603260045260246000fd5b90600052602060002001819055507f19421268847f42dd61705778018ddfc43bcdce8517e7a630acb12f122c7094813385856040516105ce939291906117bf565b60405180910390a150505050565b6000600260009054906101000a900473ffffffffffffffffffffffffffffffffffffffff16905090565b6000600354821015801561061c57506004548211155b61065b576040517f08c379a0000000000000000000000000000000000000000000000000000000008152600401610652906118b5565b60405180910390fd5b600960018361066a9190611a7e565b815481106106a1577f4e487b7100000000000000000000000000000000000000000000000000000000600052603260045260246000fd5b90600052602060002001549050919050565b6000600654905090565b6000600754421115905090565b600060035490505b60055481116108ca5760006106e682610d9e565b905060005b81518110156108b557600082828151811061072f577f4e487b7100000000000000000000000000000000000000000000000000000000600052603260045260246000fd5b602002602001015190506000600b60008373ffffffffffffffffffffffffffffffffffffffff1673ffffffffffffffffffffffffffffffffffffffff1681526020019081526020016000206000868152602001908152602001600020549050600260009054906101000a900473ffffffffffffffffffffffffffffffffffffffff1673ffffffffffffffffffffffffffffffffffffffff166108fc826008546107d89190611a24565b9081150290604051600060405180830381858888f19350505050158015610803573d6000803e3d6000fd5b50806008546108129190611a24565b600c60008473ffffffffffffffffffffffffffffffffffffffff1673ffffffffffffffffffffffffffffffffffffffff16815260200190815260200160002060008282546108609190611a7e565b925050819055507fb33b79b7884cfe1a7a0652b4589ce9cf18620627853d8e7eb47a0585d0297c378282604051610898929190611796565b60405180910390a1505080806108ad90611b89565b9150506106eb565b505080806108c290611b89565b9150506106d2565b506108d66005546111fa565b565b6000600b60008473ffffffffffffffffffffffffffffffffffffffff1673ffffffffffffffffffffffffffffffffffffffff168152602001908152602001600020600083815260200190815260200160002054905092915050565b600061093e82610d9e565b519050919050565b60606001805461095590611b57565b80601f016020809104026020016040519081016040528092919081815260200182805461098190611b57565b80156109ce5780601f106109a3576101008083540402835291602001916109ce565b820191906000526020600020905b8154815290600101906020018083116109b157829003601f168201915b5050505050905090565b6000600454905090565b60008060009054906101000a900473ffffffffffffffffffffffffffffffffffffffff1673ffffffffffffffffffffffffffffffffffffffff163373ffffffffffffffffffffffffffffffffffffffff1614610a73576040517f08c379a0000000000000000000000000000000000000000000000000000000008152600401610a6a906118d5565b60405180910390fd5b600080600190505b6004548111610b0a576009600182610a939190611a7e565b81548110610aca577f4e487b7100000000000000000000000000000000000000000000000000000000600052603260045260246000fd5b906000526020600020015482610ae091906119ce565b91506006548210610af75780600581905550610b0a565b8080610b0290611b89565b915050610a7b565b5060006005541115610b54577f34ccc1cc859f0b1e974530f1eb22e713649d5f3937abf904589392796241d611600554604051610b479190611935565b60405180910390a1610b90565b7ffd2e684f12ffe034123999d0aa8f43d7eb76eef75c5f89ca7f851add7f0b0a9081600654604051610b87929190611950565b60405180910390a15b8091505090565b6000600354905090565b6000610bab6106bd565b15610beb576040517f08c379a0000000000000000000000000000000000000000000000000000000008152600401610be2906118f5565b60405180910390fd5b60008054906101000a900473ffffffffffffffffffffffffffffffffffffffff1673ffffffffffffffffffffffffffffffffffffffff163373ffffffffffffffffffffffffffffffffffffffff1614610c79576040517f08c379a0000000000000000000000000000000000000000000000000000000008152600401610c70906118d5565b60405180910390fd5b60008060045490505b6000811115610d11576009600182610c9a9190611a7e565b81548110610cd1577f4e487b7100000000000000000000000000000000000000000000000000000000600052603260045260246000fd5b906000526020600020015482610ce791906119ce565b91506006548210610cfe5780600581905550610d11565b8080610d0990611b2d565b915050610c82565b5060006005541115610d5b577f34ccc1cc859f0b1e974530f1eb22e713649d5f3937abf904589392796241d611600554604051610d4e9190611935565b60405180910390a1610d97565b7ffd2e684f12ffe034123999d0aa8f43d7eb76eef75c5f89ca7f851add7f0b0a9081600654604051610d8e929190611950565b60405180910390a15b8091505090565b60606003548210158015610db457506004548211155b610df3576040517f08c379a0000000000000000000000000000000000000000000000000000000008152600401610dea90611915565b60405180910390fd5b600a6000838152602001908152602001600020805480602002602001604051908101604052809291908181526020018280548015610e8657602002820191906000526020600020905b8160009054906101000a900473ffffffffffffffffffffffffffffffffffffffff1673ffffffffffffffffffffffffffffffffffffffff1681526020019060010190808311610e3c575b50505050509050919050565b6000600754905090565b6003548210158015610eb057506004548211155b610eef576040517f08c379a0000000000000000000000000000000000000000000000000000000008152600401610ee690611855565b60405180910390fd5b80600854610efd9190611a24565b341015610f3f576040517f08c379a0000000000000000000000000000000000000000000000000000000008152600401610f3690611895565b60405180910390fd5b6000600183610f4e9190611a7e565b9050600060098281548110610f8c577f4e487b7100000000000000000000000000000000000000000000000000000000600052603260045260246000fd5b906000526020600020015490508281610fa591906119ce565b60098381548110610fdf577f4e487b7100000000000000000000000000000000000000000000000000000000600052603260045260246000fd5b9060005260206000200181905550600a6000858152602001908152602001600020339080600181540180825580915050600190039060005260206000200160009091909190916101000a81548173ffffffffffffffffffffffffffffffffffffffff021916908373ffffffffffffffffffffffffffffffffffffffff1602179055506000600b60003373ffffffffffffffffffffffffffffffffffffffff1673ffffffffffffffffffffffffffffffffffffffff168152602001908152602001600020600086815260200190815260200160002054905080846110c291906119ce565b600b60003373ffffffffffffffffffffffffffffffffffffffff1673ffffffffffffffffffffffffffffffffffffffff1681526020019081526020016000206000878152602001908152602001600020819055506000600c60003373ffffffffffffffffffffffffffffffffffffffff1673ffffffffffffffffffffffffffffffffffffffff168152602001908152602001600020549050348161116691906119ce565b600c60003373ffffffffffffffffffffffffffffffffffffffff1673ffffffffffffffffffffffffffffffffffffffff16815260200190815260200160002081905550505050505050565b6000600c60008373ffffffffffffffffffffffffffffffffffffffff1673ffffffffffffffffffffffffffffffffffffffff168152602001908152602001600020549050919050565b600060018261120991906119ce565b90505b600454811161138c57600061122082610d9e565b905060005b8151811015611377576000828281518110611269577f4e487b7100000000000000000000000000000000000000000000000000000000600052603260045260246000fd5b602002602001015190506000600b60008373ffffffffffffffffffffffffffffffffffffffff1673ffffffffffffffffffffffffffffffffffffffff16815260200190815260200160002060008681526020019081526020016000205490508173ffffffffffffffffffffffffffffffffffffffff166108fc826008546112f09190611a24565b9081150290604051600060405180830381858888f1935050505015801561131b573d6000803e3d6000fd5b507fbb28353e4598c3b9199101a66e0989549b659a59a54d2c27fbb183f1932c8e6d826008548361134c9190611a24565b60405161135a929190611796565b60405180910390a15050808061136f90611b89565b915050611225565b5050808061138490611b89565b91505061120c565b5050565b60008135905061139f81611c41565b92915050565b6000813590506113b481611c58565b92915050565b6000602082840312156113cc57600080fd5b60006113da84828501611390565b91505092915050565b600080604083850312156113f657600080fd5b600061140485828601611390565b9250506020611415858286016113a5565b9150509250929050565b60006020828403121561143157600080fd5b600061143f848285016113a5565b91505092915050565b6000806040838503121561145b57600080fd5b6000611469858286016113a5565b925050602061147a858286016113a5565b9150509250929050565b6000611490838361149c565b60208301905092915050565b6114a581611ab2565b82525050565b6114b481611ab2565b82525050565b60006114c582611989565b6114cf81856119ac565b93506114da83611979565b8060005b8381101561150b5781516114f28882611484565b97506114fd8361199f565b9250506001810190506114de565b5085935050505092915050565b61152181611ac4565b82525050565b600061153282611994565b61153c81856119bd565b935061154c818560208601611afa565b61155581611c30565b840191505092915050565b600061156d6028836119bd565b91507f436f75706f6e206e6565647320746f206265206265747765656e20746865207360008301527f65742072616e67650000000000000000000000000000000000000000000000006020830152604082019050919050565b60006115d36016836119bd565b91507f42696464696e672074696d6520697320636c6f736564000000000000000000006000830152602082019050919050565b60006116136024836119bd565b91507f4e6f7420656e6f75676820657468206465706f736974656420666f722074686560008301527f20626964000000000000000000000000000000000000000000000000000000006020830152604082019050919050565b60006116796013836119bd565b91507f436f75706f6e206f7574206f662072616e6765000000000000000000000000006000830152602082019050919050565b60006116b96020836119bd565b91507f4f6e6c79206f776e65722063616e20646566696e652074686520636f75706f6e6000830152602082019050919050565b60006116f9601a836119bd565b91507f42696464696e672074696d65206973207374696c6c206f70656e0000000000006000830152602082019050919050565b60006117396013836119bd565b91507f436f75706f6e206e6f7420696e2072616e6765000000000000000000000000006000830152602082019050919050565b61177581611af0565b82525050565b600060208201905061179060008301846114ab565b92915050565b60006040820190506117ab60008301856114ab565b6117b8602083018461176c565b9392505050565b60006060820190506117d460008301866114ab565b6117e1602083018561176c565b6117ee604083018461176c565b949350505050565b6000602082019050818103600083015261181081846114ba565b905092915050565b600060208201905061182d6000830184611518565b92915050565b6000602082019050818103600083015261184d8184611527565b905092915050565b6000602082019050818103600083015261186e81611560565b9050919050565b6000602082019050818103600083015261188e816115c6565b9050919050565b600060208201905081810360008301526118ae81611606565b9050919050565b600060208201905081810360008301526118ce8161166c565b9050919050565b600060208201905081810360008301526118ee816116ac565b9050919050565b6000602082019050818103600083015261190e816116ec565b9050919050565b6000602082019050818103600083015261192e8161172c565b9050919050565b600060208201905061194a600083018461176c565b92915050565b6000604082019050611965600083018561176c565b611972602083018461176c565b9392505050565b6000819050602082019050919050565b600081519050919050565b600081519050919050565b6000602082019050919050565b600082825260208201905092915050565b600082825260208201905092915050565b60006119d982611af0565b91506119e483611af0565b9250827fffffffffffffffffffffffffffffffffffffffffffffffffffffffffffffffff03821115611a1957611a18611bd2565b5b828201905092915050565b6000611a2f82611af0565b9150611a3a83611af0565b9250817fffffffffffffffffffffffffffffffffffffffffffffffffffffffffffffffff0483118215151615611a7357611a72611bd2565b5b828202905092915050565b6000611a8982611af0565b9150611a9483611af0565b925082821015611aa757611aa6611bd2565b5b828203905092915050565b6000611abd82611ad0565b9050919050565b60008115159050919050565b600073ffffffffffffffffffffffffffffffffffffffff82169050919050565b6000819050919050565b60005b83811015611b18578082015181840152602081019050611afd565b83811115611b27576000848401525b50505050565b6000611b3882611af0565b91506000821415611b4c57611b4b611bd2565b5b600182039050919050565b60006002820490506001821680611b6f57607f821691505b60208210811415611b8357611b82611c01565b5b50919050565b6000611b9482611af0565b91507fffffffffffffffffffffffffffffffffffffffffffffffffffffffffffffffff821415611bc757611bc6611bd2565b5b600182019050919050565b7f4e487b7100000000000000000000000000000000000000000000000000000000600052601160045260246000fd5b7f4e487b7100000000000000000000000000000000000000000000000000000000600052602260045260246000fd5b6000601f19601f8301169050919050565b611c4a81611ab2565b8114611c5557600080fd5b50565b611c6181611af0565b8114611c6c57600080fd5b5056fea2646970667358221220cebb7a56ce52609e6dd20141c4c5bc6c25c6b769b896a4a74f3e988d272d7a8e64736f6c63430008000033",
  "immutableReferences": {},
  "source": "// SPDX-License-Identifier: MIT\npragma solidity >=0.6.0;\n\ncontract BondPriceAuction {\n\n    /**\n     * @dev Reverts if bidding time is not open\n     */\n    modifier onlyWhileBiddingOpen {\n        require(isOpen(), \"Bidding time is closed\");\n        _;\n    }\n\n    /**\n     * @dev Reverts if bidding time is still open\n     */\n    modifier onlyWhenBiddingClosed {\n        require(!isOpen(), \"Bidding time is still open\");\n        _;\n    }\n\n    event Bid(address bidder, uint256 coupon, uint256 amount);\n    event CouponSet(uint256 coupon);\n    event DemandNotMet(uint256 totalDemand, uint256 expectedDemand);\n\n    address private _owner;\n    string private _project;\n    address private _company;\n    uint256 private _minCoupon;\n    uint256 private _maxCoupon;\n    uint256 private _coupon;\n    uint256 private _seekedNumberOfBonds;\n    uint256 private _bidClosingTime;\n    uint256 private _faceValue = 100;\n\n    uint256[] private _couponMatrix;\n\n    mapping (uint256 => address[]) _investorListAtCouponLevel;\n    mapping (address => mapping(uint256 => uint256)) _couponAndAmountPerInvestor;\n    mapping (address => uint256) _amountBidPerInvestor;\n\n    constructor(\n        string memory project,\n        address company,\n        uint256 minCoupon,\n        uint256 maxCoupon,\n        uint256 seekedNumberOfBonds,\n        uint256 bidClosingTime\n    ) {\n        require(bidClosingTime > block.timestamp, \"Closing time can't be in the past\");\n        _project = project;\n        _company = company;\n        _minCoupon = minCoupon;\n        _maxCoupon = maxCoupon;\n        _seekedNumberOfBonds = seekedNumberOfBonds;\n        _bidClosingTime = bidClosingTime;\n        _owner = msg.sender;\n        // Initialise coupon to 0\n        _coupon = 0;\n\n        // Initialize array to 0s\n        for (uint i = 0; i < maxCoupon; i++) {\n            _couponMatrix.push(0);\n        }\n    }\n\n    function getInvestorsAtCoupon(uint256 coupon) public view returns (address[] memory) {\n        require(coupon >= _minCoupon && coupon <= _maxCoupon, \"Coupon not in range\");\n        return _investorListAtCouponLevel[coupon];\n    }\n\n    function numberOfInvestorsAtCoupon(uint256 coupon) public view returns (uint256) {\n        return getInvestorsAtCoupon(coupon).length;\n    }\n\n    function getInvestorsInterestAtCouponLevel(address investor, uint256 coupon) public view returns (uint256) {\n        return _couponAndAmountPerInvestor[investor][coupon];\n    }\n\n    function getAmountInvesterPerInvestor(address investor) public view returns (uint256) {\n        return _amountBidPerInvestor[investor];\n    }\n\n    function getProject() public view returns(string memory) {\n        return _project;\n    }\n\n    function getCompany() public view returns(address) {\n        return _company;\n    }\n\n    function getCoupon() public view returns(uint256) {\n        return _coupon;\n    }\n\n    function getMinCoupon() public view returns(uint256){\n        return _minCoupon;\n    }\n\n    function getMaxCoupon() public view returns(uint256){\n        return _maxCoupon;\n    }\n\n    function getSeekedNumberOfBonds() public view returns(uint256) {\n        return _seekedNumberOfBonds;\n    }\n\n    function getBidClosingTime() public view returns(uint256) {\n        return _bidClosingTime;\n    }\n\n    function getDemandAtCouponLevel(uint256 coupon) public view returns(uint256) {\n        require(coupon >= _minCoupon && coupon <= _maxCoupon, \"Coupon out of range\");\n        return _couponMatrix[coupon - 1];\n    }\n\n    /**\n     * @return true if the registering investments is open, false otherwise.\n     */\n    function isOpen() public view returns (bool) {\n        return block.timestamp <= _bidClosingTime;\n    }\n\n    // NEW\n\n    \n\n    function registerBid2(uint256 coupon, uint256 numberOfBonds) public payable {\n        require(coupon >= _minCoupon && coupon <= _maxCoupon, \"Coupon needs to be between the set range\");\n        require(msg.value >= _faceValue * numberOfBonds,\"Not enough eth deposited for the bid\");\n        \n        uint256 index = coupon - 1;\n        uint256 currentDemand = _couponMatrix[index];\n        _couponMatrix[index] = currentDemand + numberOfBonds;\n\n        // Add the investor to the list\n        _investorListAtCouponLevel[coupon].push(msg.sender);\n\n        // Update the mapping\n        uint256 currentAmount = _couponAndAmountPerInvestor[msg.sender][coupon];\n        _couponAndAmountPerInvestor[msg.sender][coupon] = numberOfBonds + currentAmount;\n\n        uint256 balance = _amountBidPerInvestor[msg.sender];\n        _amountBidPerInvestor[msg.sender] = balance + msg.value;\n    }\n\n\n    // NEW\n    event BondIssue(address investor, uint256 amount);\n    event Refund(address investor, uint256 amount);\n\n    function issueTokens() public {\n        for(uint i = _minCoupon; i <= _coupon; i++) {\n            address[] memory investors = getInvestorsAtCoupon(i);\n            for(uint j = 0; j < investors.length; j++) {\n                address investor = investors[j];\n                uint256 amount = _couponAndAmountPerInvestor[investor][i];\n                // Mint tokens * amount\n\n                // Transfer money to the company\n                payable(_company).transfer(_faceValue * amount);\n                // Reduce the balance\n                _amountBidPerInvestor[investor] -= _faceValue * amount;\n                // Register investment\n                emit BondIssue(investor, amount);\n            }\n        }\n        // Refund other investors\n        refundInvestorsAboveCouponLevel(_coupon);\n    }\n\n    function refundInvestorsAboveCouponLevel(uint256 coupon) internal {\n        for (uint i = coupon + 1; i <= _maxCoupon; i++) {\n            address[] memory investors = getInvestorsAtCoupon(i);\n            for(uint j = 0; j < investors.length; j++) {\n                address investor = investors[j];\n                uint256 amount = _couponAndAmountPerInvestor[investor][i];\n                payable(investor).transfer(_faceValue * amount);\n                emit Refund(investor, amount * _faceValue);\n            }\n        }\n    }\n\n    // Find the lowest possible coupon that fulfills the demand\n    function defineCoupon2() public returns (uint256) {\n        require(msg.sender == _owner, \"Only owner can define the coupon\");\n        // Variable for the total demand for tokens\n        uint256 tokenDemand = 0;\n\n        // Iterate each coupon level, and count the token demand to\n        // determine the coupon level which will fulfill the seeked number of tokens\n        for(uint i = 1; i <= _maxCoupon ; i++) {\n            // Increase the tokendemand\n            tokenDemand += _couponMatrix[i-1];\n            // If enough interest at this copupn level, set coupon and break the loop\n            if (tokenDemand >= _seekedNumberOfBonds) {\n                _coupon = i;\n                break;\n            }\n        }\n\n        if (_coupon > 0) {\n            emit CouponSet(_coupon);\n        } else {\n            emit DemandNotMet(tokenDemand, _seekedNumberOfBonds);\n        }\n        return tokenDemand;\n    }\n\n    function registerBid(uint256 coupon, uint256 numberOfTokens) public onlyWhileBiddingOpen {\n        require(coupon >= _minCoupon && coupon <= _maxCoupon, \"Coupon needs to be between the set range\");\n\n        // Update the coupon record\n        uint256 index = coupon - 1;\n        uint256 currentDemand = _couponMatrix[index];\n        _couponMatrix[index] = currentDemand + numberOfTokens;\n        emit Bid(msg.sender, coupon, numberOfTokens);\n    }\n\n    // Function to define the coupon, returns also the total demand at that coupon level\n    function defineCoupon() public onlyWhenBiddingClosed returns (uint256) {\n        require(msg.sender == _owner, \"Only owner can define the coupon\");\n        // Variable for the total demand for tokens\n        uint256 tokenDemand = 0;\n\n        // Iterate each coupon level, and count the token demand to\n        // determine the coupon level which will fulfill the seeked number of tokens\n        for(uint i = _maxCoupon; i > 0 ; i--) {\n            // Increase the token \n            tokenDemand += _couponMatrix[i-1];\n            // If enough interest at this copupn level, set coupon and break the loop\n            if (tokenDemand >= _seekedNumberOfBonds) {\n                _coupon = i;\n                break;\n            }\n        }\n        if (_coupon > 0) {\n            emit CouponSet(_coupon);\n        } else {\n            emit DemandNotMet(tokenDemand, _seekedNumberOfBonds);\n        }\n        return tokenDemand;\n    }\n}\n",
  "sourcePath": "/Users/leena/Documents/Coding/Blockchain_Green_Bonds/testProjects/OZ_test/contracts/BondPriceAuction.sol",
  "compiler": {
    "name": "solc",
    "version": "0.8.0+commit.c7dfd78e.Emscripten.clang"
  },
  "schemaVersion": "3.3.4",
  "updatedAt": "2021-07-15T10:59:39.464Z",
  "networkType": "ethereum",
  "devdoc": {
    "kind": "dev",
    "methods": {
      "isOpen()": {
        "returns": {
          "_0": "true if the registering investments is open, false otherwise."
        }
      }
    },
    "version": 1
  },
  "userdoc": {
    "kind": "user",
    "methods": {},
    "version": 1
  }
}