{
  "contractName": "BondBlue",
  "abi": [
    {
      "inputs": [
        {
          "internalType": "address",
          "name": "company",
          "type": "address"
        },
        {
          "internalType": "string",
          "name": "name",
          "type": "string"
        },
        {
          "internalType": "string",
          "name": "symbol",
          "type": "string"
        },
        {
          "internalType": "uint256",
          "name": "numberOfBondsSought",
          "type": "uint256"
        },
        {
          "internalType": "uint256",
          "name": "minCoupon",
          "type": "uint256"
        },
        {
          "internalType": "uint256",
          "name": "maxCoupon",
          "type": "uint256"
        },
        {
          "internalType": "uint256",
          "name": "bidClosingTime",
          "type": "uint256"
        },
        {
          "internalType": "uint256",
          "name": "term",
          "type": "uint256"
        },
        {
          "internalType": "uint256",
          "name": "couponsPerTerm",
          "type": "uint256"
        },
        {
          "internalType": "string",
          "name": "baseBondURI",
          "type": "string"
        }
      ],
      "stateMutability": "nonpayable",
      "type": "constructor"
    },
    {
      "anonymous": false,
      "inputs": [
        {
          "indexed": true,
          "internalType": "address",
          "name": "owner",
          "type": "address"
        },
        {
          "indexed": true,
          "internalType": "address",
          "name": "approved",
          "type": "address"
        },
        {
          "indexed": true,
          "internalType": "uint256",
          "name": "tokenId",
          "type": "uint256"
        }
      ],
      "name": "Approval",
      "type": "event"
    },
    {
      "anonymous": false,
      "inputs": [
        {
          "indexed": true,
          "internalType": "address",
          "name": "owner",
          "type": "address"
        },
        {
          "indexed": true,
          "internalType": "address",
          "name": "operator",
          "type": "address"
        },
        {
          "indexed": false,
          "internalType": "bool",
          "name": "approved",
          "type": "bool"
        }
      ],
      "name": "ApprovalForAll",
      "type": "event"
    },
    {
      "anonymous": false,
      "inputs": [
        {
          "indexed": false,
          "internalType": "address",
          "name": "bidder",
          "type": "address"
        },
        {
          "indexed": false,
          "internalType": "uint256",
          "name": "coupon",
          "type": "uint256"
        },
        {
          "indexed": false,
          "internalType": "uint256",
          "name": "numberOfBonds",
          "type": "uint256"
        }
      ],
      "name": "Bid",
      "type": "event"
    },
    {
      "anonymous": false,
      "inputs": [
        {
          "indexed": false,
          "internalType": "uint256",
          "name": "actualDemand",
          "type": "uint256"
        },
        {
          "indexed": false,
          "internalType": "uint256",
          "name": "requestedDemand",
          "type": "uint256"
        }
      ],
      "name": "CancelBondIssue",
      "type": "event"
    },
    {
      "anonymous": false,
      "inputs": [
        {
          "indexed": false,
          "internalType": "address",
          "name": "account",
          "type": "address"
        },
        {
          "indexed": false,
          "internalType": "uint256",
          "name": "value",
          "type": "uint256"
        }
      ],
      "name": "CoinRefund",
      "type": "event"
    },
    {
      "anonymous": false,
      "inputs": [
        {
          "indexed": false,
          "internalType": "uint256",
          "name": "from",
          "type": "uint256"
        },
        {
          "indexed": false,
          "internalType": "uint256",
          "name": "to",
          "type": "uint256"
        }
      ],
      "name": "CouponAdjustment",
      "type": "event"
    },
    {
      "anonymous": false,
      "inputs": [
        {
          "indexed": false,
          "internalType": "address",
          "name": "investor",
          "type": "address"
        },
        {
          "indexed": false,
          "internalType": "uint256",
          "name": "bondId",
          "type": "uint256"
        }
      ],
      "name": "CouponPayment",
      "type": "event"
    },
    {
      "anonymous": false,
      "inputs": [
        {
          "indexed": false,
          "internalType": "uint256",
          "name": "coupon",
          "type": "uint256"
        }
      ],
      "name": "CouponSet",
      "type": "event"
    },
    {
      "anonymous": false,
      "inputs": [
        {
          "indexed": true,
          "internalType": "address",
          "name": "previousOwner",
          "type": "address"
        },
        {
          "indexed": true,
          "internalType": "address",
          "name": "newOwner",
          "type": "address"
        }
      ],
      "name": "OwnershipTransferred",
      "type": "event"
    },
    {
      "anonymous": false,
      "inputs": [
        {
          "indexed": true,
          "internalType": "address",
          "name": "from",
          "type": "address"
        },
        {
          "indexed": true,
          "internalType": "address",
          "name": "to",
          "type": "address"
        },
        {
          "indexed": true,
          "internalType": "uint256",
          "name": "tokenId",
          "type": "uint256"
        }
      ],
      "name": "Transfer",
      "type": "event"
    },
    {
      "inputs": [
        {
          "internalType": "bool",
          "name": "increase",
          "type": "bool"
        },
        {
          "internalType": "uint256",
          "name": "amount",
          "type": "uint256"
        }
      ],
      "name": "adjustCoupon",
      "outputs": [],
      "stateMutability": "nonpayable",
      "type": "function"
    },
    {
      "inputs": [
        {
          "internalType": "address",
          "name": "to",
          "type": "address"
        },
        {
          "internalType": "uint256",
          "name": "tokenId",
          "type": "uint256"
        }
      ],
      "name": "approve",
      "outputs": [],
      "stateMutability": "nonpayable",
      "type": "function"
    },
    {
      "inputs": [
        {
          "internalType": "address",
          "name": "owner",
          "type": "address"
        }
      ],
      "name": "balanceOf",
      "outputs": [
        {
          "internalType": "uint256",
          "name": "",
          "type": "uint256"
        }
      ],
      "stateMutability": "view",
      "type": "function"
    },
    {
      "inputs": [],
      "name": "biddingWindowisOpen",
      "outputs": [
        {
          "internalType": "bool",
          "name": "",
          "type": "bool"
        }
      ],
      "stateMutability": "view",
      "type": "function"
    },
    {
      "inputs": [],
      "name": "bondCount",
      "outputs": [
        {
          "internalType": "uint256",
          "name": "",
          "type": "uint256"
        }
      ],
      "stateMutability": "view",
      "type": "function"
    },
    {
      "inputs": [],
      "name": "cancelled",
      "outputs": [
        {
          "internalType": "bool",
          "name": "",
          "type": "bool"
        }
      ],
      "stateMutability": "view",
      "type": "function"
    },
    {
      "inputs": [],
      "name": "couponDefined",
      "outputs": [
        {
          "internalType": "bool",
          "name": "",
          "type": "bool"
        }
      ],
      "stateMutability": "view",
      "type": "function"
    },
    {
      "inputs": [
        {
          "internalType": "uint256",
          "name": "coupon",
          "type": "uint256"
        }
      ],
      "name": "couponPaymentOnTime",
      "outputs": [
        {
          "internalType": "string",
          "name": "",
          "type": "string"
        }
      ],
      "stateMutability": "view",
      "type": "function"
    },
    {
      "inputs": [],
      "name": "defineCoupon",
      "outputs": [],
      "stateMutability": "nonpayable",
      "type": "function"
    },
    {
      "inputs": [
        {
          "internalType": "uint256",
          "name": "number",
          "type": "uint256"
        }
      ],
      "name": "getActualCouponDate",
      "outputs": [
        {
          "internalType": "uint256",
          "name": "",
          "type": "uint256"
        }
      ],
      "stateMutability": "view",
      "type": "function"
    },
    {
      "inputs": [],
      "name": "getActualPricipalPaymentDate",
      "outputs": [
        {
          "internalType": "uint256",
          "name": "",
          "type": "uint256"
        }
      ],
      "stateMutability": "view",
      "type": "function"
    },
    {
      "inputs": [
        {
          "internalType": "uint256",
          "name": "tokenId",
          "type": "uint256"
        }
      ],
      "name": "getApproved",
      "outputs": [
        {
          "internalType": "address",
          "name": "",
          "type": "address"
        }
      ],
      "stateMutability": "view",
      "type": "function"
    },
    {
      "inputs": [],
      "name": "getBaseURI",
      "outputs": [
        {
          "internalType": "string",
          "name": "",
          "type": "string"
        }
      ],
      "stateMutability": "view",
      "type": "function"
    },
    {
      "inputs": [],
      "name": "getBidClosingTime",
      "outputs": [
        {
          "internalType": "uint256",
          "name": "",
          "type": "uint256"
        }
      ],
      "stateMutability": "view",
      "type": "function"
    },
    {
      "inputs": [],
      "name": "getCompany",
      "outputs": [
        {
          "internalType": "address",
          "name": "",
          "type": "address"
        }
      ],
      "stateMutability": "view",
      "type": "function"
    },
    {
      "inputs": [],
      "name": "getCoupon",
      "outputs": [
        {
          "internalType": "uint256",
          "name": "",
          "type": "uint256"
        }
      ],
      "stateMutability": "view",
      "type": "function"
    },
    {
      "inputs": [
        {
          "internalType": "uint256",
          "name": "number",
          "type": "uint256"
        }
      ],
      "name": "getCouponDate",
      "outputs": [
        {
          "internalType": "uint256",
          "name": "",
          "type": "uint256"
        }
      ],
      "stateMutability": "view",
      "type": "function"
    },
    {
      "inputs": [],
      "name": "getCouponDates",
      "outputs": [
        {
          "internalType": "uint256[]",
          "name": "",
          "type": "uint256[]"
        }
      ],
      "stateMutability": "view",
      "type": "function"
    },
    {
      "inputs": [
        {
          "internalType": "address",
          "name": "investor",
          "type": "address"
        }
      ],
      "name": "getCouponPerInvestor",
      "outputs": [
        {
          "internalType": "uint256",
          "name": "",
          "type": "uint256"
        }
      ],
      "stateMutability": "view",
      "type": "function"
    },
    {
      "inputs": [],
      "name": "getFaceValue",
      "outputs": [
        {
          "internalType": "uint256",
          "name": "",
          "type": "uint256"
        }
      ],
      "stateMutability": "view",
      "type": "function"
    },
    {
      "inputs": [],
      "name": "getIssueDate",
      "outputs": [
        {
          "internalType": "uint256",
          "name": "",
          "type": "uint256"
        }
      ],
      "stateMutability": "view",
      "type": "function"
    },
    {
      "inputs": [],
      "name": "getMaturityDate",
      "outputs": [
        {
          "internalType": "uint256",
          "name": "",
          "type": "uint256"
        }
      ],
      "stateMutability": "view",
      "type": "function"
    },
    {
      "inputs": [],
      "name": "getMaxCoupon",
      "outputs": [
        {
          "internalType": "uint256",
          "name": "",
          "type": "uint256"
        }
      ],
      "stateMutability": "view",
      "type": "function"
    },
    {
      "inputs": [],
      "name": "getMinCoupon",
      "outputs": [
        {
          "internalType": "uint256",
          "name": "",
          "type": "uint256"
        }
      ],
      "stateMutability": "view",
      "type": "function"
    },
    {
      "inputs": [],
      "name": "getNumberOfBondsSought",
      "outputs": [
        {
          "internalType": "uint256",
          "name": "",
          "type": "uint256"
        }
      ],
      "stateMutability": "view",
      "type": "function"
    },
    {
      "inputs": [],
      "name": "getNumberOfCoupons",
      "outputs": [
        {
          "internalType": "uint256",
          "name": "",
          "type": "uint256"
        }
      ],
      "stateMutability": "view",
      "type": "function"
    },
    {
      "inputs": [],
      "name": "getNumberOfCouponsPaid",
      "outputs": [
        {
          "internalType": "uint256",
          "name": "",
          "type": "uint256"
        }
      ],
      "stateMutability": "view",
      "type": "function"
    },
    {
      "inputs": [
        {
          "internalType": "address",
          "name": "investor",
          "type": "address"
        }
      ],
      "name": "getRequestedBondsPerInvestor",
      "outputs": [
        {
          "internalType": "uint256",
          "name": "",
          "type": "uint256"
        }
      ],
      "stateMutability": "view",
      "type": "function"
    },
    {
      "inputs": [
        {
          "internalType": "address",
          "name": "investor",
          "type": "address"
        }
      ],
      "name": "getStakedAmountPerInvestor",
      "outputs": [
        {
          "internalType": "uint256",
          "name": "",
          "type": "uint256"
        }
      ],
      "stateMutability": "view",
      "type": "function"
    },
    {
      "inputs": [],
      "name": "getTerm",
      "outputs": [
        {
          "internalType": "uint256",
          "name": "",
          "type": "uint256"
        }
      ],
      "stateMutability": "view",
      "type": "function"
    },
    {
      "inputs": [],
      "name": "getTotalDebt",
      "outputs": [
        {
          "internalType": "uint256",
          "name": "",
          "type": "uint256"
        }
      ],
      "stateMutability": "view",
      "type": "function"
    },
    {
      "inputs": [
        {
          "internalType": "address",
          "name": "owner",
          "type": "address"
        },
        {
          "internalType": "address",
          "name": "operator",
          "type": "address"
        }
      ],
      "name": "isApprovedForAll",
      "outputs": [
        {
          "internalType": "bool",
          "name": "",
          "type": "bool"
        }
      ],
      "stateMutability": "view",
      "type": "function"
    },
    {
      "inputs": [],
      "name": "issueBonds",
      "outputs": [],
      "stateMutability": "nonpayable",
      "type": "function"
    },
    {
      "inputs": [],
      "name": "issued",
      "outputs": [
        {
          "internalType": "bool",
          "name": "",
          "type": "bool"
        }
      ],
      "stateMutability": "view",
      "type": "function"
    },
    {
      "inputs": [],
      "name": "makeCouponPayment",
      "outputs": [],
      "stateMutability": "payable",
      "type": "function"
    },
    {
      "inputs": [],
      "name": "name",
      "outputs": [
        {
          "internalType": "string",
          "name": "",
          "type": "string"
        }
      ],
      "stateMutability": "view",
      "type": "function"
    },
    {
      "inputs": [],
      "name": "owner",
      "outputs": [
        {
          "internalType": "address",
          "name": "",
          "type": "address"
        }
      ],
      "stateMutability": "view",
      "type": "function"
    },
    {
      "inputs": [
        {
          "internalType": "uint256",
          "name": "tokenId",
          "type": "uint256"
        }
      ],
      "name": "ownerOf",
      "outputs": [
        {
          "internalType": "address",
          "name": "",
          "type": "address"
        }
      ],
      "stateMutability": "view",
      "type": "function"
    },
    {
      "inputs": [],
      "name": "payBackBond",
      "outputs": [],
      "stateMutability": "payable",
      "type": "function"
    },
    {
      "inputs": [],
      "name": "principalPaidOnTime",
      "outputs": [
        {
          "internalType": "string",
          "name": "",
          "type": "string"
        }
      ],
      "stateMutability": "view",
      "type": "function"
    },
    {
      "inputs": [
        {
          "internalType": "uint256",
          "name": "coupon",
          "type": "uint256"
        },
        {
          "internalType": "uint256",
          "name": "numberOfBonds",
          "type": "uint256"
        }
      ],
      "name": "registerBid",
      "outputs": [],
      "stateMutability": "payable",
      "type": "function"
    },
    {
      "inputs": [],
      "name": "renounceOwnership",
      "outputs": [],
      "stateMutability": "nonpayable",
      "type": "function"
    },
    {
      "inputs": [
        {
          "internalType": "address",
          "name": "from",
          "type": "address"
        },
        {
          "internalType": "address",
          "name": "to",
          "type": "address"
        },
        {
          "internalType": "uint256",
          "name": "tokenId",
          "type": "uint256"
        }
      ],
      "name": "safeTransferFrom",
      "outputs": [],
      "stateMutability": "nonpayable",
      "type": "function"
    },
    {
      "inputs": [
        {
          "internalType": "address",
          "name": "from",
          "type": "address"
        },
        {
          "internalType": "address",
          "name": "to",
          "type": "address"
        },
        {
          "internalType": "uint256",
          "name": "tokenId",
          "type": "uint256"
        },
        {
          "internalType": "bytes",
          "name": "_data",
          "type": "bytes"
        }
      ],
      "name": "safeTransferFrom",
      "outputs": [],
      "stateMutability": "nonpayable",
      "type": "function"
    },
    {
      "inputs": [
        {
          "internalType": "address",
          "name": "operator",
          "type": "address"
        },
        {
          "internalType": "bool",
          "name": "approved",
          "type": "bool"
        }
      ],
      "name": "setApprovalForAll",
      "outputs": [],
      "stateMutability": "nonpayable",
      "type": "function"
    },
    {
      "inputs": [
        {
          "internalType": "bytes4",
          "name": "interfaceId",
          "type": "bytes4"
        }
      ],
      "name": "supportsInterface",
      "outputs": [
        {
          "internalType": "bool",
          "name": "",
          "type": "bool"
        }
      ],
      "stateMutability": "view",
      "type": "function"
    },
    {
      "inputs": [],
      "name": "symbol",
      "outputs": [
        {
          "internalType": "string",
          "name": "",
          "type": "string"
        }
      ],
      "stateMutability": "view",
      "type": "function"
    },
    {
      "inputs": [
        {
          "internalType": "uint256",
          "name": "tokenId",
          "type": "uint256"
        }
      ],
      "name": "tokenURI",
      "outputs": [
        {
          "internalType": "string",
          "name": "",
          "type": "string"
        }
      ],
      "stateMutability": "view",
      "type": "function"
    },
    {
      "inputs": [
        {
          "internalType": "address",
          "name": "from",
          "type": "address"
        },
        {
          "internalType": "address",
          "name": "to",
          "type": "address"
        },
        {
          "internalType": "uint256",
          "name": "tokenId",
          "type": "uint256"
        }
      ],
      "name": "transferFrom",
      "outputs": [],
      "stateMutability": "nonpayable",
      "type": "function"
    },
    {
      "inputs": [
        {
          "internalType": "address",
          "name": "newOwner",
          "type": "address"
        }
      ],
      "name": "transferOwnership",
      "outputs": [],
      "stateMutability": "nonpayable",
      "type": "function"
    }
  ],
  "bytecode": "0x60806040526000600960006101000a81548160ff0219169083151502179055506000600960016101000a81548160ff0219169083151502179055506000600960026101000a81548160ff0219169083151502179055503480156200006257600080fd5b50604051620068b6380380620068b68339818101604052810190620000889190620005cf565b8989898989898989898988888160009080519060200190620000ac9291906200047f565b508060019080519060200190620000c59291906200047f565b5050506000620000da6200047760201b60201c565b905080600660006101000a81548173ffffffffffffffffffffffffffffffffffffffff021916908373ffffffffffffffffffffffffffffffffffffffff1602179055508073ffffffffffffffffffffffffffffffffffffffff16600073ffffffffffffffffffffffffffffffffffffffff167f8be0079c531659141344cd1fd0a4f28419497f9722a3daafe3b4186f6b6457e060405160405180910390a350600073ffffffffffffffffffffffffffffffffffffffff168a73ffffffffffffffffffffffffffffffffffffffff161415620001ec576040517f08c379a0000000000000000000000000000000000000000000000000000000008152600401620001e39062000860565b60405180910390fd5b85851162000231576040517f08c379a000000000000000000000000000000000000000000000000000000000815260040162000228906200083e565b60405180910390fd5b42841162000276576040517f08c379a00000000000000000000000000000000000000000000000000000000081526004016200026d906200081c565b60405180910390fd5b33600b60006101000a81548173ffffffffffffffffffffffffffffffffffffffff021916908373ffffffffffffffffffffffffffffffffffffffff16021790555089600c60006101000a81548173ffffffffffffffffffffffffffffffffffffffff021916908373ffffffffffffffffffffffffffffffffffffffff16021790555086600e81905550856010819055508460118190555060006012819055506064600d819055506000601681905550836017819055508060089080519060200190620003449291906200047f565b5062015180601754620003589190620008fa565b6018819055508260138190555081601481905550601454836200037c91906200098f565b60158190555062015180836200039391906200098f565b601854620003a29190620008fa565b6019819055506000601a8190555060008262015180620003c3919062000957565b90506000600190505b60155481116200045b57601b8183620003e691906200098f565b601854620003f59190620008fa565b9080600181540180825580915050600190039060005260206000200160009091909190915055601c600090806001815401808255809150506001900390600052602060002001600090919091909150558080620004529062000a9a565b915050620003cc565b5050505050505050505050505050505050505050505062000bd8565b600033905090565b8280546200048d9062000a64565b90600052602060002090601f016020900481019282620004b15760008555620004fd565b82601f10620004cc57805160ff1916838001178555620004fd565b82800160010185558215620004fd579182015b82811115620004fc578251825591602001919060010190620004df565b5b5090506200050c919062000510565b5090565b5b808211156200052b57600081600090555060010162000511565b5090565b6000620005466200054084620008b6565b62000882565b9050828152602081018484840111156200055f57600080fd5b6200056c84828562000a2e565b509392505050565b600081519050620005858162000ba4565b92915050565b600082601f8301126200059d57600080fd5b8151620005af8482602086016200052f565b91505092915050565b600081519050620005c98162000bbe565b92915050565b6000806000806000806000806000806101408b8d031215620005f057600080fd5b6000620006008d828e0162000574565b9a505060208b015167ffffffffffffffff8111156200061e57600080fd5b6200062c8d828e016200058b565b99505060408b015167ffffffffffffffff8111156200064a57600080fd5b620006588d828e016200058b565b98505060606200066b8d828e01620005b8565b97505060806200067e8d828e01620005b8565b96505060a0620006918d828e01620005b8565b95505060c0620006a48d828e01620005b8565b94505060e0620006b78d828e01620005b8565b935050610100620006cb8d828e01620005b8565b9250506101208b015167ffffffffffffffff811115620006ea57600080fd5b620006f88d828e016200058b565b9150509295989b9194979a5092959850565b600062000719602183620008e9565b91507f436c6f73696e672074696d652063616e277420626520696e207468652070617360008301527f74000000000000000000000000000000000000000000000000000000000000006020830152604082019050919050565b600062000781602e83620008e9565b91507f6d617820636f75706f6e206e6565647320746f2062652067726561746572207460008301527f68616e206d696e20636f75706f6e0000000000000000000000000000000000006020830152604082019050919050565b6000620007e9601e83620008e9565b91507f436f6d70616e7920616464726573732063616e206e6f742062652030783000006000830152602082019050919050565b6000602082019050818103600083015262000837816200070a565b9050919050565b60006020820190508181036000830152620008598162000772565b9050919050565b600060208201905081810360008301526200087b81620007da565b9050919050565b6000604051905081810181811067ffffffffffffffff82111715620008ac57620008ab62000b75565b5b8060405250919050565b600067ffffffffffffffff821115620008d457620008d362000b75565b5b601f19601f8301169050602081019050919050565b600082825260208201905092915050565b6000620009078262000a24565b9150620009148362000a24565b9250827fffffffffffffffffffffffffffffffffffffffffffffffffffffffffffffffff038211156200094c576200094b62000ae8565b5b828201905092915050565b6000620009648262000a24565b9150620009718362000a24565b92508262000984576200098362000b17565b5b828204905092915050565b60006200099c8262000a24565b9150620009a98362000a24565b9250817fffffffffffffffffffffffffffffffffffffffffffffffffffffffffffffffff0483118215151615620009e557620009e462000ae8565b5b828202905092915050565b6000620009fd8262000a04565b9050919050565b600073ffffffffffffffffffffffffffffffffffffffff82169050919050565b6000819050919050565b60005b8381101562000a4e57808201518184015260208101905062000a31565b8381111562000a5e576000848401525b50505050565b6000600282049050600182168062000a7d57607f821691505b6020821081141562000a945762000a9362000b46565b5b50919050565b600062000aa78262000a24565b91507fffffffffffffffffffffffffffffffffffffffffffffffffffffffffffffffff82141562000add5762000adc62000ae8565b5b600182019050919050565b7f4e487b7100000000000000000000000000000000000000000000000000000000600052601160045260246000fd5b7f4e487b7100000000000000000000000000000000000000000000000000000000600052601260045260246000fd5b7f4e487b7100000000000000000000000000000000000000000000000000000000600052602260045260246000fd5b7f4e487b7100000000000000000000000000000000000000000000000000000000600052604160045260246000fd5b62000baf81620009f0565b811462000bbb57600080fd5b50565b62000bc98162000a24565b811462000bd557600080fd5b50565b615cce8062000be86000396000f3fe6080604052600436106102c85760003560e01c80637edd13c511610175578063ab20df01116100dc578063ccc716ab11610095578063e985e9c51161006f578063e985e9c514610aa4578063ec18efc414610ae1578063efd8672914610b1e578063f2fde38b14610b47576102c8565b8063ccc716ab14610a23578063d24f84b114610a4e578063d4fc7cd914610a79576102c8565b8063ab20df01146108ed578063b0603ec21461092a578063b88d4fde14610967578063bfa2a5a414610990578063c6b10134146109bb578063c87b56dd146109e6576102c8565b806395d89b411161012e57806395d89b41146107fc5780639737fcff146108275780639a82a09a146108525780639afbb5a01461087d578063a22cb465146108ba578063a3e2ed9e146108e3576102c8565b80637edd13c5146106fc578063870f1cc9146107275780638da5cb5b146107645780638edd4d241461078f578063915dd036146107ba578063924091dc146107e5576102c8565b806323b872dd116102345780635f1ff549116101ed5780636f3ed9d7116101c75780636f3ed9d71461065257806370a082311461067d578063714c5398146106ba578063715018a6146106e5576102c8565b80635f1ff549146105d357806361c49ebf146105fe5780636352211e14610615576102c8565b806323b872dd146104f657806334ce998a1461051f57806334f56f8c1461054a57806342842e0e146105755780634cff6c0e1461059e5780635de9f20a146105a8576102c8565b80630c364957116102865780630c364957146103f1578063124b65b41461040d578063127810bc1461043857806317171e14146104635780631e1a01241461048e5780631f3885a7146104cb576102c8565b8062c3d77b146102cd57806301ffc9a7146102f857806306fdde031461033557806307634cbe14610360578063081812fc1461038b578063095ea7b3146103c8575b600080fd5b3480156102d957600080fd5b506102e2610b70565b6040516102ef9190615753565b60405180910390f35b34801561030457600080fd5b5061031f600480360381019061031a9190614481565b610b7a565b60405161032c9190615316565b60405180910390f35b34801561034157600080fd5b5061034a610b8c565b6040516103579190615331565b60405180910390f35b34801561036c57600080fd5b50610375610c1e565b6040516103829190615753565b60405180910390f35b34801561039757600080fd5b506103b260048036038101906103ad91906144d3565b610c28565b6040516103bf9190615204565b60405180910390f35b3480156103d457600080fd5b506103ef60048036038101906103ea9190614409565b610cad565b005b61040b600480360381019061040691906144fc565b610dc5565b005b34801561041957600080fd5b50610422611216565b60405161042f9190615753565b60405180910390f35b34801561044457600080fd5b5061044d611220565b60405161045a9190615204565b60405180910390f35b34801561046f57600080fd5b5061047861124a565b6040516104859190615753565b60405180910390f35b34801561049a57600080fd5b506104b560048036038101906104b091906144d3565b611254565b6040516104c29190615331565b60405180910390f35b3480156104d757600080fd5b506104e061156d565b6040516104ed9190615753565b60405180910390f35b34801561050257600080fd5b5061051d60048036038101906105189190614303565b611577565b005b34801561052b57600080fd5b506105346115d7565b6040516105419190615753565b60405180910390f35b34801561055657600080fd5b5061055f6115e1565b60405161056c9190615316565b60405180910390f35b34801561058157600080fd5b5061059c60048036038101906105979190614303565b6115f8565b005b6105a6611618565b005b3480156105b457600080fd5b506105bd611906565b6040516105ca9190615316565b60405180910390f35b3480156105df57600080fd5b506105e8611913565b6040516105f59190615316565b60405180910390f35b34801561060a57600080fd5b5061061361192a565b005b34801561062157600080fd5b5061063c600480360381019061063791906144d3565b611efb565b6040516106499190615204565b60405180910390f35b34801561065e57600080fd5b50610667611fad565b6040516106749190615753565b60405180910390f35b34801561068957600080fd5b506106a4600480360381019061069f919061429e565b611fb7565b6040516106b19190615753565b60405180910390f35b3480156106c657600080fd5b506106cf61206f565b6040516106dc9190615331565b60405180910390f35b3480156106f157600080fd5b506106fa612101565b005b34801561070857600080fd5b5061071161223e565b60405161071e9190615753565b60405180910390f35b34801561073357600080fd5b5061074e6004803603810190610749919061429e565b612248565b60405161075b9190615753565b60405180910390f35b34801561077057600080fd5b50610779612291565b6040516107869190615204565b60405180910390f35b34801561079b57600080fd5b506107a46122bb565b6040516107b19190615753565b60405180910390f35b3480156107c657600080fd5b506107cf6122cc565b6040516107dc9190615753565b60405180910390f35b3480156107f157600080fd5b506107fa6122d6565b005b34801561080857600080fd5b50610811612533565b60405161081e9190615331565b60405180910390f35b34801561083357600080fd5b5061083c6125c5565b6040516108499190615753565b60405180910390f35b34801561085e57600080fd5b506108676125cf565b6040516108749190615316565b60405180910390f35b34801561088957600080fd5b506108a4600480360381019061089f919061429e565b6125e6565b6040516108b19190615753565b60405180910390f35b3480156108c657600080fd5b506108e160048036038101906108dc91906143cd565b61262f565b005b6108eb6127b0565b005b3480156108f957600080fd5b50610914600480360381019061090f919061429e565b612a7c565b6040516109219190615753565b60405180910390f35b34801561093657600080fd5b50610951600480360381019061094c91906144d3565b612ac5565b60405161095e9190615753565b60405180910390f35b34801561097357600080fd5b5061098e60048036038101906109899190614352565b612b6f565b005b34801561099c57600080fd5b506109a5612bd1565b6040516109b29190615331565b60405180910390f35b3480156109c757600080fd5b506109d0612d11565b6040516109dd9190615753565b60405180910390f35b3480156109f257600080fd5b50610a0d6004803603810190610a0891906144d3565b612d1b565b604051610a1a9190615331565b60405180910390f35b348015610a2f57600080fd5b50610a38612dc2565b604051610a459190615753565b60405180910390f35b348015610a5a57600080fd5b50610a63612dcc565b604051610a7091906152f4565b60405180910390f35b348015610a8557600080fd5b50610a8e612e24565b604051610a9b9190615753565b60405180910390f35b348015610ab057600080fd5b50610acb6004803603810190610ac691906142c7565b612e2e565b604051610ad89190615316565b60405180910390f35b348015610aed57600080fd5b50610b086004803603810190610b0391906144d3565b612ec2565b604051610b159190615753565b60405180910390f35b348015610b2a57600080fd5b50610b456004803603810190610b409190614445565b612f6c565b005b348015610b5357600080fd5b50610b6e6004803603810190610b69919061429e565b6130d1565b005b6000600e54905090565b6000610b858261327d565b9050919050565b606060008054610b9b90615a75565b80601f0160208091040260200160405190810160405280929190818152602001828054610bc790615a75565b8015610c145780601f10610be957610100808354040283529160200191610c14565b820191906000526020600020905b815481529060010190602001808311610bf757829003601f168201915b5050505050905090565b6000601254905090565b6000610c338261335f565b610c72576040517f08c379a0000000000000000000000000000000000000000000000000000000008152600401610c69906155b3565b60405180910390fd5b6004600083815260200190815260200160002060009054906101000a900473ffffffffffffffffffffffffffffffffffffffff169050919050565b6000610cb882611efb565b90508073ffffffffffffffffffffffffffffffffffffffff168373ffffffffffffffffffffffffffffffffffffffff161415610d29576040517f08c379a0000000000000000000000000000000000000000000000000000000008152600401610d2090615673565b60405180910390fd5b8073ffffffffffffffffffffffffffffffffffffffff16610d486133cb565b73ffffffffffffffffffffffffffffffffffffffff161480610d775750610d7681610d716133cb565b612e2e565b5b610db6576040517f08c379a0000000000000000000000000000000000000000000000000000000008152600401610dad906154d3565b60405180910390fd5b610dc083836133d3565b505050565b610dcd611906565b610e0c576040517f08c379a0000000000000000000000000000000000000000000000000000000008152600401610e03906156d3565b60405180910390fd5b6010548210158015610e2057506011548211155b610e5f576040517f08c379a0000000000000000000000000000000000000000000000000000000008152600401610e5690615373565b60405180910390fd5b80600d54610e6d91906158fb565b341015610eaf576040517f08c379a0000000000000000000000000000000000000000000000000000000008152600401610ea690615433565b60405180910390fd5b60001515602060003373ffffffffffffffffffffffffffffffffffffffff1673ffffffffffffffffffffffffffffffffffffffff16815260200190815260200160002060009054906101000a900460ff16151514610f42576040517f08c379a0000000000000000000000000000000000000000000000000000000008152600401610f3990615713565b60405180910390fd5b6001602060003373ffffffffffffffffffffffffffffffffffffffff1673ffffffffffffffffffffffffffffffffffffffff16815260200190815260200160002060006101000a81548160ff02191690831515021790555080601e60003373ffffffffffffffffffffffffffffffffffffffff1673ffffffffffffffffffffffffffffffffffffffff1681526020019081526020016000208190555081601f60003373ffffffffffffffffffffffffffffffffffffffff1673ffffffffffffffffffffffffffffffffffffffff1681526020019081526020016000208190555060006021600084815260200190815260200160002054905081816110469190615874565b602160008581526020019081526020016000208190555060226000848152602001908152602001600020339080600181540180825580915050600190039060005260206000200160009091909190916101000a81548173ffffffffffffffffffffffffffffffffffffffff021916908373ffffffffffffffffffffffffffffffffffffffff16021790555081600d546110df91906158fb565b601d60003373ffffffffffffffffffffffffffffffffffffffff1673ffffffffffffffffffffffffffffffffffffffff168152602001908152602001600020819055507f19421268847f42dd61705778018ddfc43bcdce8517e7a630acb12f122c709481338484604051611155939291906152bd565b60405180910390a181600d5461116b91906158fb565b34111561121157600082600d5461118291906158fb565b3461118d9190615955565b90503373ffffffffffffffffffffffffffffffffffffffff166108fc829081150290604051600060405180830381858888f193505050501580156111d5573d6000803e3d6000fd5b507f2ee76d0c8417fef3c9f68663d321eb1c1ed0e089b5298177f0582aeadb6fd91f3382604051611207929190615294565b60405180910390a1505b505050565b6000601354905090565b6000600c60009054906101000a900473ffffffffffffffffffffffffffffffffffffffff16905090565b6000601654905090565b60606001821080611266575060155482115b156112a8576040518060400160405280601c81526020017f5468617420636f75706f6e20646f6573206e6f74206578697374732e000000008152509050611568565b601b6001836112b79190615955565b815481106112ee577f4e487b7100000000000000000000000000000000000000000000000000000000600052603260045260246000fd5b90600052602060002001544210156113b5576000601c6001846113119190615955565b81548110611348577f4e487b7100000000000000000000000000000000000000000000000000000000600052603260045260246000fd5b906000526020600020015414611378576040518060600160405280602d8152602001615c4b602d91399050611568565b6040518060400160405280601381526020017f436f75706f6e206e6f7420647565207965742e000000000000000000000000008152509050611568565b6000601c6001846113c69190615955565b815481106113fd577f4e487b7100000000000000000000000000000000000000000000000000000000600052603260045260246000fd5b9060005260206000200154141561144b576040518060400160405280601781526020017f436f75706f6e207061796d656e74206973206c6174652e0000000000000000008152509050611568565b601b60018361145a9190615955565b81548110611491577f4e487b7100000000000000000000000000000000000000000000000000000000600052603260045260246000fd5b9060005260206000200154601c6001846114ab9190615955565b815481106114e2577f4e487b7100000000000000000000000000000000000000000000000000000000600052603260045260246000fd5b90600052602060002001541161152f576040518060400160405280601481526020017f436f75706f6e2070616964206f6e2074696d652e0000000000000000000000008152509050611568565b6040518060400160405280601181526020017f436f75706f6e2070616964206c6174652e00000000000000000000000000000081525090505b919050565b6000601a54905090565b6115886115826133cb565b8261348c565b6115c7576040517f08c379a00000000000000000000000000000000000000000000000000000000081526004016115be90615693565b60405180910390fd5b6115d283838361356a565b505050565b6000600f54905090565b6000600960009054906101000a900460ff16905090565b61161383838360405180602001604052806000815250612b6f565b505050565b600c60009054906101000a900473ffffffffffffffffffffffffffffffffffffffff1673ffffffffffffffffffffffffffffffffffffffff163373ffffffffffffffffffffffffffffffffffffffff16146116a8576040517f08c379a000000000000000000000000000000000000000000000000000000000815260040161169f90615493565b60405180910390fd5b600f543410156116ed576040517f08c379a00000000000000000000000000000000000000000000000000000000081526004016116e490615553565b60405180910390fd5b60006116f960076137c6565b905060005b818110156117bd57600061171182611efb565b905061174081600b60009054906101000a900473ffffffffffffffffffffffffffffffffffffffff168461356a565b8073ffffffffffffffffffffffffffffffffffffffff166108fc600d549081150290604051600060405180830381858888f19350505050158015611788573d6000803e3d6000fd5b50600d54600f546117999190615955565b600f819055506117a960076137d4565b5080806117b590615aa7565b9150506116fe565b5042601a819055506000471180156117d65750600f5434115b15611903576000600f54346117eb9190615955565b9050804710156118805760004790503373ffffffffffffffffffffffffffffffffffffffff166108fc829081150290604051600060405180830381858888f19350505050158015611840573d6000803e3d6000fd5b507f2ee76d0c8417fef3c9f68663d321eb1c1ed0e089b5298177f0582aeadb6fd91f3382604051611872929190615294565b60405180910390a150611901565b3373ffffffffffffffffffffffffffffffffffffffff166108fc829081150290604051600060405180830381858888f193505050501580156118c6573d6000803e3d6000fd5b507f2ee76d0c8417fef3c9f68663d321eb1c1ed0e089b5298177f0582aeadb6fd91f33826040516118f8929190615294565b60405180910390a15b505b50565b6000601754421115905090565b6000600960029054906101000a900460ff16905090565b6119326133cb565b73ffffffffffffffffffffffffffffffffffffffff16611950612291565b73ffffffffffffffffffffffffffffffffffffffff16146119a6576040517f08c379a000000000000000000000000000000000000000000000000000000000815260040161199d906155d3565b60405180910390fd5b60011515600960009054906101000a900460ff161515146119fc576040517f08c379a00000000000000000000000000000000000000000000000000000000081526004016119f390615633565b60405180910390fd5b60001515600960029054906101000a900460ff16151514611a52576040517f08c379a0000000000000000000000000000000000000000000000000000000008152600401611a49906154f3565b60405180910390fd5b6000600e54905060005b600a80549050811015611edc576000600a8281548110611aa5577f4e487b7100000000000000000000000000000000000000000000000000000000600052603260045260246000fd5b9060005260206000200160009054906101000a900473ffffffffffffffffffffffffffffffffffffffff1690506000601e60008373ffffffffffffffffffffffffffffffffffffffff1673ffffffffffffffffffffffffffffffffffffffff16815260200190815260200160002054905083811115611d7d57600c60009054906101000a900473ffffffffffffffffffffffffffffffffffffffff1673ffffffffffffffffffffffffffffffffffffffff166108fc85600d54611b6891906158fb565b9081150290604051600060405180830381858888f19350505050158015611b93573d6000803e3d6000fd5b5083600d54611ba291906158fb565b600f6000828254611bb39190615874565b9250508190555083600d54611bc891906158fb565b601d60008473ffffffffffffffffffffffffffffffffffffffff1673ffffffffffffffffffffffffffffffffffffffff1681526020019081526020016000206000828254611c169190615955565b9250508190555060005b84811015611c5857611c3b83611c3660076137c6565b613830565b611c4560076139fe565b8080611c5090615aa7565b915050611c20565b506000601d60008473ffffffffffffffffffffffffffffffffffffffff1673ffffffffffffffffffffffffffffffffffffffff1681526020019081526020016000205490508273ffffffffffffffffffffffffffffffffffffffff166108fc829081150290604051600060405180830381858888f19350505050158015611ce3573d6000803e3d6000fd5b507f2ee76d0c8417fef3c9f68663d321eb1c1ed0e089b5298177f0582aeadb6fd91f8382604051611d15929190615294565b60405180910390a180601d60008573ffffffffffffffffffffffffffffffffffffffff1673ffffffffffffffffffffffffffffffffffffffff1681526020019081526020016000206000828254611d6c9190615955565b925050819055506000945050611ec7565b600c60009054906101000a900473ffffffffffffffffffffffffffffffffffffffff1673ffffffffffffffffffffffffffffffffffffffff166108fc82600d54611dc791906158fb565b9081150290604051600060405180830381858888f19350505050158015611df2573d6000803e3d6000fd5b5080600d54611e0191906158fb565b600f6000828254611e129190615874565b9250508190555080600d54611e2791906158fb565b601d60008473ffffffffffffffffffffffffffffffffffffffff1673ffffffffffffffffffffffffffffffffffffffff1681526020019081526020016000206000828254611e759190615955565b9250508190555060005b81811015611eb757611e9a83611e9560076137c6565b613830565b611ea460076139fe565b8080611eaf90615aa7565b915050611e7f565b508084611ec49190615955565b93505b50508080611ed490615aa7565b915050611a5c565b506001600960026101000a81548160ff02191690831515021790555050565b6000806002600084815260200190815260200160002060009054906101000a900473ffffffffffffffffffffffffffffffffffffffff169050600073ffffffffffffffffffffffffffffffffffffffff168173ffffffffffffffffffffffffffffffffffffffff161415611fa4576040517f08c379a0000000000000000000000000000000000000000000000000000000008152600401611f9b90615533565b60405180910390fd5b80915050919050565b6000600d54905090565b60008073ffffffffffffffffffffffffffffffffffffffff168273ffffffffffffffffffffffffffffffffffffffff161415612028576040517f08c379a000000000000000000000000000000000000000000000000000000000815260040161201f90615513565b60405180910390fd5b600360008373ffffffffffffffffffffffffffffffffffffffff1673ffffffffffffffffffffffffffffffffffffffff168152602001908152602001600020549050919050565b60606008805461207e90615a75565b80601f01602080910402602001604051908101604052809291908181526020018280546120aa90615a75565b80156120f75780601f106120cc576101008083540402835291602001916120f7565b820191906000526020600020905b8154815290600101906020018083116120da57829003601f168201915b5050505050905090565b6121096133cb565b73ffffffffffffffffffffffffffffffffffffffff16612127612291565b73ffffffffffffffffffffffffffffffffffffffff161461217d576040517f08c379a0000000000000000000000000000000000000000000000000000000008152600401612174906155d3565b60405180910390fd5b600073ffffffffffffffffffffffffffffffffffffffff16600660009054906101000a900473ffffffffffffffffffffffffffffffffffffffff1673ffffffffffffffffffffffffffffffffffffffff167f8be0079c531659141344cd1fd0a4f28419497f9722a3daafe3b4186f6b6457e060405160405180910390a36000600660006101000a81548173ffffffffffffffffffffffffffffffffffffffff021916908373ffffffffffffffffffffffffffffffffffffffff160217905550565b6000601154905090565b6000601d60008373ffffffffffffffffffffffffffffffffffffffff1673ffffffffffffffffffffffffffffffffffffffff168152602001908152602001600020549050919050565b6000600660009054906101000a900473ffffffffffffffffffffffffffffffffffffffff16905090565b60006122c760076137c6565b905090565b6000601054905090565b6122de611906565b1561231e576040517f08c379a0000000000000000000000000000000000000000000000000000000008152600401612315906156b3565b60405180910390fd5b6123266133cb565b73ffffffffffffffffffffffffffffffffffffffff16612344612291565b73ffffffffffffffffffffffffffffffffffffffff161461239a576040517f08c379a0000000000000000000000000000000000000000000000000000000008152600401612391906155d3565b60405180910390fd5b60001515600960009054906101000a900460ff161515146123f0576040517f08c379a00000000000000000000000000000000000000000000000000000000081526004016123e790615393565b60405180910390fd5b60008060105490505b6011548111612466576021600082815260200190815260200160002054826124219190615874565b9150600e54821061245357806012819055506001600960006101000a81548160ff021916908315150217905550612466565b808061245e90615aa7565b9150506123f9565b50600960009054906101000a900460ff16156124c2577f34ccc1cc859f0b1e974530f1eb22e713649d5f3937abf904589392796241d6116012546040516124ad9190615753565b60405180910390a16124bd613a14565b612519565b7fe7f2eb6d54f3b1a2443045ba960f25d2ce0a36bcdee0965882edf6051179a59b81600e546040516124f592919061576e565b60405180910390a16001600960016101000a81548160ff0219169083151502179055505b612530600160125461252b9190615874565b613b0c565b50565b60606001805461254290615a75565b80601f016020809104026020016040519081016040528092919081815260200182805461256e90615a75565b80156125bb5780601f10612590576101008083540402835291602001916125bb565b820191906000526020600020905b81548152906001019060200180831161259e57829003601f168201915b5050505050905090565b6000601954905090565b6000600960019054906101000a900460ff16905090565b6000601e60008373ffffffffffffffffffffffffffffffffffffffff1673ffffffffffffffffffffffffffffffffffffffff168152602001908152602001600020549050919050565b6126376133cb565b73ffffffffffffffffffffffffffffffffffffffff168273ffffffffffffffffffffffffffffffffffffffff1614156126a5576040517f08c379a000000000000000000000000000000000000000000000000000000000815260040161269c90615473565b60405180910390fd5b80600560006126b26133cb565b73ffffffffffffffffffffffffffffffffffffffff1673ffffffffffffffffffffffffffffffffffffffff16815260200190815260200160002060008473ffffffffffffffffffffffffffffffffffffffff1673ffffffffffffffffffffffffffffffffffffffff16815260200190815260200160002060006101000a81548160ff0219169083151502179055508173ffffffffffffffffffffffffffffffffffffffff1661275f6133cb565b73ffffffffffffffffffffffffffffffffffffffff167f17307eab39ab6107e8899845ad3d59bd9653f200f220920489ca2b5937696c31836040516127a49190615316565b60405180910390a35050565b600c60009054906101000a900473ffffffffffffffffffffffffffffffffffffffff1673ffffffffffffffffffffffffffffffffffffffff163373ffffffffffffffffffffffffffffffffffffffff1614612840576040517f08c379a000000000000000000000000000000000000000000000000000000000815260040161283790615573565b60405180910390fd5b61284a60076137c6565b60125461285791906158fb565b341015612899576040517f08c379a0000000000000000000000000000000000000000000000000000000008152600401612890906156f3565b60405180910390fd5b60005b6128a660076137c6565b8110156129505760006128b882611efb565b90508073ffffffffffffffffffffffffffffffffffffffff166108fc6012549081150290604051600060405180830381858888f19350505050158015612902573d6000803e3d6000fd5b507fb3224bc7c2e6157092b5f650cc8b06e5f0c34d8218b6e9a1a5a39c2e43706e40818360405161293492919061521f565b60405180910390a150808061294890615aa7565b91505061289c565b5042601c6016548154811061298e577f4e487b7100000000000000000000000000000000000000000000000000000000600052603260045260246000fd5b9060005260206000200181905550601660008154809291906129af90615aa7565b91905055506129be60076137c6565b6012546129cb91906158fb565b341115612a7a5760006129de60076137c6565b6012546129eb91906158fb565b346129f69190615955565b90503373ffffffffffffffffffffffffffffffffffffffff166108fc829081150290604051600060405180830381858888f19350505050158015612a3e573d6000803e3d6000fd5b507f2ee76d0c8417fef3c9f68663d321eb1c1ed0e089b5298177f0582aeadb6fd91f3382604051612a70929190615294565b60405180910390a1505b565b6000601f60008373ffffffffffffffffffffffffffffffffffffffff1673ffffffffffffffffffffffffffffffffffffffff168152602001908152602001600020549050919050565b60008082118015612ad857506015548211155b612b17576040517f08c379a0000000000000000000000000000000000000000000000000000000008152600401612b0e90615653565b60405180910390fd5b601c600183612b269190615955565b81548110612b5d577f4e487b7100000000000000000000000000000000000000000000000000000000600052603260045260246000fd5b90600052602060002001549050919050565b612b80612b7a6133cb565b8361348c565b612bbf576040517f08c379a0000000000000000000000000000000000000000000000000000000008152600401612bb690615693565b60405180910390fd5b612bcb84848484613ca0565b50505050565b6060601954421015612c45576000601a541415612c0857604051806060016040528060218152602001615c78602191399050612d0e565b6040518060400160405280601e81526020017f5072696e636970616c207761732070616964206261636b206561726c792e00008152509050612d0e565b6000601a541415612c8d576040518060400160405280601a81526020017f5072696e636970616c207061796d656e74206973206c6174652e0000000000008152509050612d0e565b601954601a5411612cd5576040518060400160405280602081526020017f5072696e636970616c207761732070616964206261636b206f6e2074696d652e8152509050612d0e565b6040518060400160405280601d81526020017f5072696e636970616c207761732070616964206261636b206c6174652e00000081525090505b90565b6000601754905090565b6060612d268261335f565b612d65576040517f08c379a0000000000000000000000000000000000000000000000000000000008152600401612d5c90615613565b60405180910390fd5b6000612d6f613cfc565b90506000815111612d8f5760405180602001604052806000815250612dba565b80612d9984613d13565b604051602001612daa9291906151e0565b6040516020818303038152906040525b915050919050565b6000601554905090565b6060601b805480602002602001604051908101604052809291908181526020018280548015612e1a57602002820191906000526020600020905b815481526020019060010190808311612e06575b5050505050905090565b6000601854905090565b6000600560008473ffffffffffffffffffffffffffffffffffffffff1673ffffffffffffffffffffffffffffffffffffffff16815260200190815260200160002060008373ffffffffffffffffffffffffffffffffffffffff1673ffffffffffffffffffffffffffffffffffffffff16815260200190815260200160002060009054906101000a900460ff16905092915050565b60008082118015612ed557506015548211155b612f14576040517f08c379a0000000000000000000000000000000000000000000000000000000008152600401612f0b90615653565b60405180910390fd5b601b600183612f239190615955565b81548110612f5a577f4e487b7100000000000000000000000000000000000000000000000000000000600052603260045260246000fd5b90600052602060002001549050919050565b612f746133cb565b73ffffffffffffffffffffffffffffffffffffffff16612f92612291565b73ffffffffffffffffffffffffffffffffffffffff1614612fe8576040517f08c379a0000000000000000000000000000000000000000000000000000000008152600401612fdf906155d3565b60405180910390fd5b60011515600960029054906101000a900460ff1615151461303e576040517f08c379a000000000000000000000000000000000000000000000000000000000815260040161303590615353565b60405180910390fd5b60006012549050821561306457816012546130599190615874565b601281905550613091565b60125482111561307b576000601281905550613090565b816012546130899190615955565b6012819055505b5b7f19c6461ea018cd13c242700a8b6afa6a2a3a4de691e6f2cd9416b3bef1a95150816012546040516130c492919061576e565b60405180910390a1505050565b6130d96133cb565b73ffffffffffffffffffffffffffffffffffffffff166130f7612291565b73ffffffffffffffffffffffffffffffffffffffff161461314d576040517f08c379a0000000000000000000000000000000000000000000000000000000008152600401613144906155d3565b60405180910390fd5b600073ffffffffffffffffffffffffffffffffffffffff168173ffffffffffffffffffffffffffffffffffffffff1614156131bd576040517f08c379a00000000000000000000000000000000000000000000000000000000081526004016131b4906153f3565b60405180910390fd5b8073ffffffffffffffffffffffffffffffffffffffff16600660009054906101000a900473ffffffffffffffffffffffffffffffffffffffff1673ffffffffffffffffffffffffffffffffffffffff167f8be0079c531659141344cd1fd0a4f28419497f9722a3daafe3b4186f6b6457e060405160405180910390a380600660006101000a81548173ffffffffffffffffffffffffffffffffffffffff021916908373ffffffffffffffffffffffffffffffffffffffff16021790555050565b60007f80ac58cd000000000000000000000000000000000000000000000000000000007bffffffffffffffffffffffffffffffffffffffffffffffffffffffff1916827bffffffffffffffffffffffffffffffffffffffffffffffffffffffff1916148061334857507f5b5e139f000000000000000000000000000000000000000000000000000000007bffffffffffffffffffffffffffffffffffffffffffffffffffffffff1916827bffffffffffffffffffffffffffffffffffffffffffffffffffffffff1916145b80613358575061335782613ec0565b5b9050919050565b60008073ffffffffffffffffffffffffffffffffffffffff166002600084815260200190815260200160002060009054906101000a900473ffffffffffffffffffffffffffffffffffffffff1673ffffffffffffffffffffffffffffffffffffffff1614159050919050565b600033905090565b816004600083815260200190815260200160002060006101000a81548173ffffffffffffffffffffffffffffffffffffffff021916908373ffffffffffffffffffffffffffffffffffffffff160217905550808273ffffffffffffffffffffffffffffffffffffffff1661344683611efb565b73ffffffffffffffffffffffffffffffffffffffff167f8c5be1e5ebec7d5bd14f71427d1e84f3dd0314c0f7b2291e5b200ac8c7c3b92560405160405180910390a45050565b60006134978261335f565b6134d6576040517f08c379a00000000000000000000000000000000000000000000000000000000081526004016134cd906154b3565b60405180910390fd5b60006134e183611efb565b90508073ffffffffffffffffffffffffffffffffffffffff168473ffffffffffffffffffffffffffffffffffffffff16148061355057508373ffffffffffffffffffffffffffffffffffffffff1661353884610c28565b73ffffffffffffffffffffffffffffffffffffffff16145b8061356157506135608185612e2e565b5b91505092915050565b8273ffffffffffffffffffffffffffffffffffffffff1661358a82611efb565b73ffffffffffffffffffffffffffffffffffffffff16146135e0576040517f08c379a00000000000000000000000000000000000000000000000000000000081526004016135d7906155f3565b60405180910390fd5b600073ffffffffffffffffffffffffffffffffffffffff168273ffffffffffffffffffffffffffffffffffffffff161415613650576040517f08c379a000000000000000000000000000000000000000000000000000000000815260040161364790615453565b60405180910390fd5b61365b838383613f2a565b6136666000826133d3565b6001600360008573ffffffffffffffffffffffffffffffffffffffff1673ffffffffffffffffffffffffffffffffffffffff16815260200190815260200160002060008282546136b69190615955565b925050819055506001600360008473ffffffffffffffffffffffffffffffffffffffff1673ffffffffffffffffffffffffffffffffffffffff168152602001908152602001600020600082825461370d9190615874565b92505081905550816002600083815260200190815260200160002060006101000a81548173ffffffffffffffffffffffffffffffffffffffff021916908373ffffffffffffffffffffffffffffffffffffffff160217905550808273ffffffffffffffffffffffffffffffffffffffff168473ffffffffffffffffffffffffffffffffffffffff167fddf252ad1be2c89b69c2b068fc378daa952ba7f163c4a11628f55a4df523b3ef60405160405180910390a4505050565b600081600001549050919050565b60008160000154905060008111613820576040517f08c379a0000000000000000000000000000000000000000000000000000000008152600401613817906153b3565b60405180910390fd5b6001810382600001819055505050565b600073ffffffffffffffffffffffffffffffffffffffff168273ffffffffffffffffffffffffffffffffffffffff1614156138a0576040517f08c379a000000000000000000000000000000000000000000000000000000000815260040161389790615593565b60405180910390fd5b6138a98161335f565b156138e9576040517f08c379a00000000000000000000000000000000000000000000000000000000081526004016138e090615413565b60405180910390fd5b6138f560008383613f2a565b6001600360008473ffffffffffffffffffffffffffffffffffffffff1673ffffffffffffffffffffffffffffffffffffffff16815260200190815260200160002060008282546139459190615874565b92505081905550816002600083815260200190815260200160002060006101000a81548173ffffffffffffffffffffffffffffffffffffffff021916908373ffffffffffffffffffffffffffffffffffffffff160217905550808273ffffffffffffffffffffffffffffffffffffffff16600073ffffffffffffffffffffffffffffffffffffffff167fddf252ad1be2c89b69c2b068fc378daa952ba7f163c4a11628f55a4df523b3ef60405160405180910390a45050565b6001816000016000828254019250508190555050565b600060105490505b6012548111613b09576000613a3082613f2f565b905060005b8151811015613af457600a828281518110613a79577f4e487b7100000000000000000000000000000000000000000000000000000000600052603260045260246000fd5b60200260200101519080600181540180825580915050600190039060005260206000200160009091909190916101000a81548173ffffffffffffffffffffffffffffffffffffffff021916908373ffffffffffffffffffffffffffffffffffffffff1602179055508080613aec90615aa7565b915050613a35565b50508080613b0190615aa7565b915050613a1c565b50565b6000601054821015613b22576010549050613b26565b8190505b60008190505b6011548111613c9b576000613b4082613f2f565b905060005b8151811015613c86576000828281518110613b89577f4e487b7100000000000000000000000000000000000000000000000000000000600052603260045260246000fd5b602002602001015190506000601e60008373ffffffffffffffffffffffffffffffffffffffff1673ffffffffffffffffffffffffffffffffffffffff1681526020019081526020016000205490508173ffffffffffffffffffffffffffffffffffffffff166108fc82600d54613bff91906158fb565b9081150290604051600060405180830381858888f19350505050158015613c2a573d6000803e3d6000fd5b507f2ee76d0c8417fef3c9f68663d321eb1c1ed0e089b5298177f0582aeadb6fd91f82600d5483613c5b91906158fb565b604051613c69929190615294565b60405180910390a150508080613c7e90615aa7565b915050613b45565b50508080613c9390615aa7565b915050613b2c565b505050565b613cab84848461356a565b613cb784848484614023565b613cf6576040517f08c379a0000000000000000000000000000000000000000000000000000000008152600401613ced906153d3565b60405180910390fd5b50505050565b606060405180602001604052806000815250905090565b60606000821415613d5b576040518060400160405280600181526020017f30000000000000000000000000000000000000000000000000000000000000008152509050613ebb565b600082905060005b60008214613d8d578080613d7690615aa7565b915050600a82613d8691906158ca565b9150613d63565b60008167ffffffffffffffff811115613dcf577f4e487b7100000000000000000000000000000000000000000000000000000000600052604160045260246000fd5b6040519080825280601f01601f191660200182016040528015613e015781602001600182028036833780820191505090505b5090505b60008514613eb457600182613e1a9190615955565b9150600a85613e299190615af0565b6030613e359190615874565b60f81b818381518110613e71577f4e487b7100000000000000000000000000000000000000000000000000000000600052603260045260246000fd5b60200101907effffffffffffffffffffffffffffffffffffffffffffffffffffffffffffff1916908160001a905350600a85613ead91906158ca565b9450613e05565b8093505050505b919050565b60007f01ffc9a7000000000000000000000000000000000000000000000000000000007bffffffffffffffffffffffffffffffffffffffffffffffffffffffff1916827bffffffffffffffffffffffffffffffffffffffffffffffffffffffff1916149050919050565b505050565b60606010548210158015613f4557506011548211155b613f84576040517f08c379a0000000000000000000000000000000000000000000000000000000008152600401613f7b90615733565b60405180910390fd5b6022600083815260200190815260200160002080548060200260200160405190810160405280929190818152602001828054801561401757602002820191906000526020600020905b8160009054906101000a900473ffffffffffffffffffffffffffffffffffffffff1673ffffffffffffffffffffffffffffffffffffffff1681526020019060010190808311613fcd575b50505050509050919050565b60006140448473ffffffffffffffffffffffffffffffffffffffff166141ba565b156141ad578373ffffffffffffffffffffffffffffffffffffffff1663150b7a0261406d6133cb565b8786866040518563ffffffff1660e01b815260040161408f9493929190615248565b602060405180830381600087803b1580156140a957600080fd5b505af19250505080156140da57506040513d601f19601f820116820180604052508101906140d791906144aa565b60015b61415d573d806000811461410a576040519150601f19603f3d011682016040523d82523d6000602084013e61410f565b606091505b50600081511415614155576040517f08c379a000000000000000000000000000000000000000000000000000000000815260040161414c906153d3565b60405180910390fd5b805181602001fd5b63150b7a0260e01b7bffffffffffffffffffffffffffffffffffffffffffffffffffffffff1916817bffffffffffffffffffffffffffffffffffffffffffffffffffffffff1916149150506141b2565b600190505b949350505050565b600080823b905060008111915050919050565b60006141e06141db846157c8565b615797565b9050828152602081018484840111156141f857600080fd5b614203848285615a33565b509392505050565b60008135905061421a81615bee565b92915050565b60008135905061422f81615c05565b92915050565b60008135905061424481615c1c565b92915050565b60008151905061425981615c1c565b92915050565b600082601f83011261427057600080fd5b81356142808482602086016141cd565b91505092915050565b60008135905061429881615c33565b92915050565b6000602082840312156142b057600080fd5b60006142be8482850161420b565b91505092915050565b600080604083850312156142da57600080fd5b60006142e88582860161420b565b92505060206142f98582860161420b565b9150509250929050565b60008060006060848603121561431857600080fd5b60006143268682870161420b565b93505060206143378682870161420b565b925050604061434886828701614289565b9150509250925092565b6000806000806080858703121561436857600080fd5b60006143768782880161420b565b94505060206143878782880161420b565b935050604061439887828801614289565b925050606085013567ffffffffffffffff8111156143b557600080fd5b6143c18782880161425f565b91505092959194509250565b600080604083850312156143e057600080fd5b60006143ee8582860161420b565b92505060206143ff85828601614220565b9150509250929050565b6000806040838503121561441c57600080fd5b600061442a8582860161420b565b925050602061443b85828601614289565b9150509250929050565b6000806040838503121561445857600080fd5b600061446685828601614220565b925050602061447785828601614289565b9150509250929050565b60006020828403121561449357600080fd5b60006144a184828501614235565b91505092915050565b6000602082840312156144bc57600080fd5b60006144ca8482850161424a565b91505092915050565b6000602082840312156144e557600080fd5b60006144f384828501614289565b91505092915050565b6000806040838503121561450f57600080fd5b600061451d85828601614289565b925050602061452e85828601614289565b9150509250929050565b600061454483836151c2565b60208301905092915050565b614559816159fd565b82525050565b61456881615989565b82525050565b600061457982615808565b6145838185615836565b935061458e836157f8565b8060005b838110156145bf5781516145a68882614538565b97506145b183615829565b925050600181019050614592565b5085935050505092915050565b6145d58161599b565b82525050565b60006145e682615813565b6145f08185615847565b9350614600818560208601615a42565b61460981615bdd565b840191505092915050565b600061461f8261581e565b6146298185615858565b9350614639818560208601615a42565b61464281615bdd565b840191505092915050565b60006146588261581e565b6146628185615869565b9350614672818560208601615a42565b80840191505092915050565b600061468b603c83615858565b91507f436f75706f6e2063616e206e6f742062652061646a7573746564206265666f7260008301527f652074686520636f75706f6e20686173206265656e20697373756564000000006020830152604082019050919050565b60006146f1602883615858565b91507f436f75706f6e206e6565647320746f206265206265747765656e20746865207360008301527f65742072616e67650000000000000000000000000000000000000000000000006020830152604082019050919050565b6000614757602283615858565b91507f43616e277420646566696e6520636f75706f6e206d6f7265207468616e206f6e60008301527f63650000000000000000000000000000000000000000000000000000000000006020830152604082019050919050565b60006147bd601b83615858565b91507f436f756e7465723a2064656372656d656e74206f766572666c6f7700000000006000830152602082019050919050565b60006147fd603283615858565b91507f4552433732313a207472616e7366657220746f206e6f6e20455243373231526560008301527f63656976657220696d706c656d656e74657200000000000000000000000000006020830152604082019050919050565b6000614863602683615858565b91507f4f776e61626c653a206e6577206f776e657220697320746865207a65726f206160008301527f64647265737300000000000000000000000000000000000000000000000000006020830152604082019050919050565b60006148c9601c83615858565b91507f4552433732313a20746f6b656e20616c7265616479206d696e746564000000006000830152602082019050919050565b6000614909602183615858565b91507f4e6f7420656e6f75676820657468657220746f20636f7665722074686520626960008301527f64000000000000000000000000000000000000000000000000000000000000006020830152604082019050919050565b600061496f602483615858565b91507f4552433732313a207472616e7366657220746f20746865207a65726f2061646460008301527f72657373000000000000000000000000000000000000000000000000000000006020830152604082019050919050565b60006149d5601983615858565b91507f4552433732313a20617070726f766520746f2063616c6c6572000000000000006000830152602082019050919050565b6000614a15602e83615858565b91507f506179696e6720636f6d70616e792073686f756c642062652074686520626f7260008301527f726f77696e6720636f6d70616e790000000000000000000000000000000000006020830152604082019050919050565b6000614a7b602c83615858565b91507f4552433732313a206f70657261746f7220717565727920666f72206e6f6e657860008301527f697374656e7420746f6b656e00000000000000000000000000000000000000006020830152604082019050919050565b6000614ae1603883615858565b91507f4552433732313a20617070726f76652063616c6c6572206973206e6f74206f7760008301527f6e6572206e6f7220617070726f76656420666f7220616c6c00000000000000006020830152604082019050919050565b6000614b47601983615858565b91507f43616e206f6e6c7920697373756520626f6e6473206f6e6365000000000000006000830152602082019050919050565b6000614b87602a83615858565b91507f4552433732313a2062616c616e636520717565727920666f7220746865207a6560008301527f726f2061646472657373000000000000000000000000000000000000000000006020830152604082019050919050565b6000614bed602983615858565b91507f4552433732313a206f776e657220717565727920666f72206e6f6e657869737460008301527f656e7420746f6b656e00000000000000000000000000000000000000000000006020830152604082019050919050565b6000614c53602f83615858565b91507f4e6f7420656e6f75676820657468657220746f20736574746c6520746865206260008301527f6f6e64206174206d6174757269747900000000000000000000000000000000006020830152604082019050919050565b6000614cb9603583615858565b91507f436f75706f6e207061796d656e742073686f756c6420636f6d652066726f6d2060008301527f74686520626f72726f77696e6720636f6d70616e7900000000000000000000006020830152604082019050919050565b6000614d1f602083615858565b91507f4552433732313a206d696e7420746f20746865207a65726f20616464726573736000830152602082019050919050565b6000614d5f602c83615858565b91507f4552433732313a20617070726f76656420717565727920666f72206e6f6e657860008301527f697374656e7420746f6b656e00000000000000000000000000000000000000006020830152604082019050919050565b6000614dc5602083615858565b91507f4f776e61626c653a2063616c6c6572206973206e6f7420746865206f776e65726000830152602082019050919050565b6000614e05602983615858565b91507f4552433732313a207472616e73666572206f6620746f6b656e2074686174206960008301527f73206e6f74206f776e00000000000000000000000000000000000000000000006020830152604082019050919050565b6000614e6b602f83615858565b91507f4552433732314d657461646174613a2055524920717565727920666f72206e6f60008301527f6e6578697374656e7420746f6b656e00000000000000000000000000000000006020830152604082019050919050565b6000614ed1603683615858565b91507f63616e206e6f7420697373756520626f6e64732069662074686520636f75706f60008301527f6e20686173206e6f74206265656e20646566696e6564000000000000000000006020830152604082019050919050565b6000614f37603b83615858565b91507f4e6f207375636820636f75706f6e207061796d656e742c20636865636b20746860008301527f65206e756d626572206f6620636f75706f6e207061796d656e747300000000006020830152604082019050919050565b6000614f9d602183615858565b91507f4552433732313a20617070726f76616c20746f2063757272656e74206f776e6560008301527f72000000000000000000000000000000000000000000000000000000000000006020830152604082019050919050565b6000615003603183615858565b91507f4552433732313a207472616e736665722063616c6c6572206973206e6f74206f60008301527f776e6572206e6f7220617070726f7665640000000000000000000000000000006020830152604082019050919050565b6000615069601f83615858565b91507f496e766573746d656e742077696e646f77206973207374696c6c206f70656e006000830152602082019050919050565b60006150a9601d83615858565b91507f496e766573746d656e742077696e646f77206973206e6f74206f70656e0000006000830152602082019050919050565b60006150e9602c83615858565b91507f4e6f7420656e6f75676820657468657220746f20636f7665722074686520636f60008301527f75706f6e207061796d656e7400000000000000000000000000000000000000006020830152604082019050919050565b600061514f601983615858565b91507f4f6e6c79206f6e65206269642070657220696e766573746f72000000000000006000830152602082019050919050565b600061518f601383615858565b91507f436f75706f6e206e6f7420696e2072616e6765000000000000000000000000006000830152602082019050919050565b6151cb816159f3565b82525050565b6151da816159f3565b82525050565b60006151ec828561464d565b91506151f8828461464d565b91508190509392505050565b6000602082019050615219600083018461455f565b92915050565b60006040820190506152346000830185614550565b61524160208301846151d1565b9392505050565b600060808201905061525d600083018761455f565b61526a602083018661455f565b61527760408301856151d1565b818103606083015261528981846145db565b905095945050505050565b60006040820190506152a9600083018561455f565b6152b660208301846151d1565b9392505050565b60006060820190506152d2600083018661455f565b6152df60208301856151d1565b6152ec60408301846151d1565b949350505050565b6000602082019050818103600083015261530e818461456e565b905092915050565b600060208201905061532b60008301846145cc565b92915050565b6000602082019050818103600083015261534b8184614614565b905092915050565b6000602082019050818103600083015261536c8161467e565b9050919050565b6000602082019050818103600083015261538c816146e4565b9050919050565b600060208201905081810360008301526153ac8161474a565b9050919050565b600060208201905081810360008301526153cc816147b0565b9050919050565b600060208201905081810360008301526153ec816147f0565b9050919050565b6000602082019050818103600083015261540c81614856565b9050919050565b6000602082019050818103600083015261542c816148bc565b9050919050565b6000602082019050818103600083015261544c816148fc565b9050919050565b6000602082019050818103600083015261546c81614962565b9050919050565b6000602082019050818103600083015261548c816149c8565b9050919050565b600060208201905081810360008301526154ac81614a08565b9050919050565b600060208201905081810360008301526154cc81614a6e565b9050919050565b600060208201905081810360008301526154ec81614ad4565b9050919050565b6000602082019050818103600083015261550c81614b3a565b9050919050565b6000602082019050818103600083015261552c81614b7a565b9050919050565b6000602082019050818103600083015261554c81614be0565b9050919050565b6000602082019050818103600083015261556c81614c46565b9050919050565b6000602082019050818103600083015261558c81614cac565b9050919050565b600060208201905081810360008301526155ac81614d12565b9050919050565b600060208201905081810360008301526155cc81614d52565b9050919050565b600060208201905081810360008301526155ec81614db8565b9050919050565b6000602082019050818103600083015261560c81614df8565b9050919050565b6000602082019050818103600083015261562c81614e5e565b9050919050565b6000602082019050818103600083015261564c81614ec4565b9050919050565b6000602082019050818103600083015261566c81614f2a565b9050919050565b6000602082019050818103600083015261568c81614f90565b9050919050565b600060208201905081810360008301526156ac81614ff6565b9050919050565b600060208201905081810360008301526156cc8161505c565b9050919050565b600060208201905081810360008301526156ec8161509c565b9050919050565b6000602082019050818103600083015261570c816150dc565b9050919050565b6000602082019050818103600083015261572c81615142565b9050919050565b6000602082019050818103600083015261574c81615182565b9050919050565b600060208201905061576860008301846151d1565b92915050565b600060408201905061578360008301856151d1565b61579060208301846151d1565b9392505050565b6000604051905081810181811067ffffffffffffffff821117156157be576157bd615bae565b5b8060405250919050565b600067ffffffffffffffff8211156157e3576157e2615bae565b5b601f19601f8301169050602081019050919050565b6000819050602082019050919050565b600081519050919050565b600081519050919050565b600081519050919050565b6000602082019050919050565b600082825260208201905092915050565b600082825260208201905092915050565b600082825260208201905092915050565b600081905092915050565b600061587f826159f3565b915061588a836159f3565b9250827fffffffffffffffffffffffffffffffffffffffffffffffffffffffffffffffff038211156158bf576158be615b21565b5b828201905092915050565b60006158d5826159f3565b91506158e0836159f3565b9250826158f0576158ef615b50565b5b828204905092915050565b6000615906826159f3565b9150615911836159f3565b9250817fffffffffffffffffffffffffffffffffffffffffffffffffffffffffffffffff048311821515161561594a57615949615b21565b5b828202905092915050565b6000615960826159f3565b915061596b836159f3565b92508282101561597e5761597d615b21565b5b828203905092915050565b6000615994826159d3565b9050919050565b60008115159050919050565b60007fffffffff0000000000000000000000000000000000000000000000000000000082169050919050565b600073ffffffffffffffffffffffffffffffffffffffff82169050919050565b6000819050919050565b6000615a0882615a0f565b9050919050565b6000615a1a82615a21565b9050919050565b6000615a2c826159d3565b9050919050565b82818337600083830152505050565b60005b83811015615a60578082015181840152602081019050615a45565b83811115615a6f576000848401525b50505050565b60006002820490506001821680615a8d57607f821691505b60208210811415615aa157615aa0615b7f565b5b50919050565b6000615ab2826159f3565b91507fffffffffffffffffffffffffffffffffffffffffffffffffffffffffffffffff821415615ae557615ae4615b21565b5b600182019050919050565b6000615afb826159f3565b9150615b06836159f3565b925082615b1657615b15615b50565b5b828206905092915050565b7f4e487b7100000000000000000000000000000000000000000000000000000000600052601160045260246000fd5b7f4e487b7100000000000000000000000000000000000000000000000000000000600052601260045260246000fd5b7f4e487b7100000000000000000000000000000000000000000000000000000000600052602260045260246000fd5b7f4e487b7100000000000000000000000000000000000000000000000000000000600052604160045260246000fd5b6000601f19601f8301169050919050565b615bf781615989565b8114615c0257600080fd5b50565b615c0e8161599b565b8114615c1957600080fd5b50565b615c25816159a7565b8114615c3057600080fd5b50565b615c3c816159f3565b8114615c4757600080fd5b5056fe436f75706f6e20686173206265656e2070616964206561726c79207072696f7220746f2064756520646174652e5072696e636970616c205061796d656e74206973206e6f7420647565207965742ea2646970667358221220b0ccd7c51689faf0fbba7170618d1378983b20ef0bd331bfef472751a701592f64736f6c63430008000033",
  "immutableReferences": {},
  "source": "// SPDX-License-Identifier: MIT\npragma solidity >=0.6.0;\n\nimport \"./GreenBond3.sol\"; // Daily Bond\n\ncontract BondBlue is GreenBond3 {\n    constructor(\n        address company,\n        string memory name,\n        string memory symbol,\n        uint256 numberOfBondsSought,\n        uint256 minCoupon,\n        uint256 maxCoupon,\n        uint256 bidClosingTime,\n        uint256 term,\n        uint256 couponsPerTerm,\n        string memory baseBondURI\n    ) GreenBond3(company, name, symbol, numberOfBondsSought, minCoupon, maxCoupon,\n        bidClosingTime, term, couponsPerTerm, baseBondURI) {\n\n    }\n}",
  "sourcePath": "/Users/leena/Documents/Coding/Blockchain_Green_Bonds/testProjects/OZ_test/contracts/BondBlue.sol",
  "compiler": {
    "name": "solc",
    "version": "0.8.0+commit.c7dfd78e.Emscripten.clang"
  },
  "schemaVersion": "3.4.1",
  "updatedAt": "2021-08-19T12:06:16.724Z",
  "networkType": "ethereum",
  "devdoc": {
    "kind": "dev",
    "methods": {
      "adjustCoupon(bool,uint256)": {
        "details": "Function to adjust the coupon Can be only called by the owner (issuing institution) Need to specify the direction of the adjustment and the amount   "
      },
      "approve(address,uint256)": {
        "details": "See {IERC721-approve}."
      },
      "balanceOf(address)": {
        "details": "See {IERC721-balanceOf}."
      },
      "biddingWindowisOpen()": {
        "details": "Returns true if bidding window is open"
      },
      "bondCount()": {
        "details": "Get the number of bonds issued"
      },
      "couponDefined()": {
        "details": "Query bond status (cancelled/coupon defined/issued)"
      },
      "couponPaymentOnTime(uint256)": {
        "details": "Function to check if a coupon payment was made on time"
      },
      "defineCoupon()": {
        "details": "Function for the issuing institution to define the coupon. Finds the lowest coupon that covers the number of sought bonds and sets the coupon to that level. Refunds unsuccessful bidders. If not enough demand, coupon will not be defined and _cancelled will be set to false.    "
      },
      "getActualCouponDate(uint256)": {
        "details": "Get the actual coupon payment date for a specific coupon"
      },
      "getActualPricipalPaymentDate()": {
        "details": "Get actual principal payment date"
      },
      "getApproved(uint256)": {
        "details": "See {IERC721-getApproved}."
      },
      "getBaseURI()": {
        "details": "Get the base URI for bond metadata"
      },
      "getBidClosingTime()": {
        "details": "Get bid closing time"
      },
      "getCompany()": {
        "details": "Get borrowing company."
      },
      "getCoupon()": {
        "details": "Get coupon"
      },
      "getCouponDate(uint256)": {
        "details": "Get the agreed date for a specific coupon"
      },
      "getCouponDates()": {
        "details": "Get an array containin all agreed coupon dates"
      },
      "getCouponPerInvestor(address)": {
        "details": "Get the coupon bid per investor"
      },
      "getFaceValue()": {
        "details": "Get bond face value"
      },
      "getIssueDate()": {
        "details": "Get issue date"
      },
      "getMaturityDate()": {
        "details": "Get maturity date"
      },
      "getMinCoupon()": {
        "details": "Get coupon bidding range"
      },
      "getNumberOfBondsSought()": {
        "details": "Get number of bonds sought"
      },
      "getNumberOfCoupons()": {
        "details": "Get the number of coupon payments for the bond"
      },
      "getNumberOfCouponsPaid()": {
        "details": "Get the number of coupons paid"
      },
      "getRequestedBondsPerInvestor(address)": {
        "details": "Get requested bonds per investor"
      },
      "getStakedAmountPerInvestor(address)": {
        "details": "Get staked amount per investor"
      },
      "getTerm()": {
        "details": "Get bond term in years"
      },
      "getTotalDebt()": {
        "details": "Get the total debt"
      },
      "isApprovedForAll(address,address)": {
        "details": "See {IERC721-isApprovedForAll}."
      },
      "issueBonds()": {
        "details": "Function to issue bonds for investors who bid successfully. Can be called only if coupon has been defined (i.e., issue has not been cancelled). Only owner, the issuing institution, can call the function"
      },
      "makeCouponPayment()": {
        "details": "Function to make a coupon payment. Can be called only by the borrowing company. Requires sending enough ether to cover a coupon payment (total number of bonds * coupon rate)"
      },
      "name()": {
        "details": "See {IERC721Metadata-name}."
      },
      "owner()": {
        "details": "Returns the address of the current owner."
      },
      "ownerOf(uint256)": {
        "details": "See {IERC721-ownerOf}."
      },
      "payBackBond()": {
        "details": "Function to make a principal payment at the maturity Can be called only by the borrowing company. Requires sending enough ether to cover the full principal (facevalue * numer of bonds) Transfers the bond tokens back to the issuing company"
      },
      "principalPaidOnTime()": {
        "details": "Function to check if the principal payment was made on time"
      },
      "registerBid(uint256,uint256)": {
        "details": "Function for an investor to register a bid. Needs to specify the coupon within the given range (min and max coupon) and send enough ether to cover the bid (number of bonds bid * face value of bond). Only one bid allowed per investor.    "
      },
      "renounceOwnership()": {
        "details": "Leaves the contract without owner. It will not be possible to call `onlyOwner` functions anymore. Can only be called by the current owner. NOTE: Renouncing ownership will leave the contract without an owner, thereby removing any functionality that is only available to the owner."
      },
      "safeTransferFrom(address,address,uint256)": {
        "details": "See {IERC721-safeTransferFrom}."
      },
      "safeTransferFrom(address,address,uint256,bytes)": {
        "details": "See {IERC721-safeTransferFrom}."
      },
      "setApprovalForAll(address,bool)": {
        "details": "See {IERC721-setApprovalForAll}."
      },
      "supportsInterface(bytes4)": {
        "details": "See {IERC165-supportsInterface}."
      },
      "symbol()": {
        "details": "See {IERC721Metadata-symbol}."
      },
      "tokenURI(uint256)": {
        "details": "See {IERC721Metadata-tokenURI}."
      },
      "transferFrom(address,address,uint256)": {
        "details": "See {IERC721-transferFrom}."
      },
      "transferOwnership(address)": {
        "details": "Transfers ownership of the contract to a new account (`newOwner`). Can only be called by the current owner."
      }
    },
    "version": 1
  },
  "userdoc": {
    "kind": "user",
    "methods": {},
    "version": 1
  }
}