{
  "contractName": "GreenVerification",
  "abi": [
    {
      "inputs": [
        {
          "internalType": "address",
          "name": "company",
          "type": "address"
        },
        {
          "internalType": "string",
          "name": "project",
          "type": "string"
        },
        {
          "internalType": "uint256",
          "name": "votingClosingTime",
          "type": "uint256"
        }
      ],
      "stateMutability": "nonpayable",
      "type": "constructor"
    },
    {
      "anonymous": false,
      "inputs": [
        {
          "indexed": false,
          "internalType": "string",
          "name": "reason",
          "type": "string"
        }
      ],
      "name": "Reset",
      "type": "event"
    },
    {
      "anonymous": false,
      "inputs": [
        {
          "indexed": false,
          "internalType": "address",
          "name": "voter",
          "type": "address"
        },
        {
          "indexed": false,
          "internalType": "enum GreenVerification.Vote",
          "name": "vote",
          "type": "uint8"
        }
      ],
      "name": "Voted",
      "type": "event"
    },
    {
      "inputs": [
        {
          "internalType": "string",
          "name": "reason",
          "type": "string"
        }
      ],
      "name": "reset",
      "outputs": [],
      "stateMutability": "nonpayable",
      "type": "function"
    },
    {
      "inputs": [],
      "name": "openVoting",
      "outputs": [],
      "stateMutability": "nonpayable",
      "type": "function"
    },
    {
      "inputs": [],
      "name": "closeVoting",
      "outputs": [],
      "stateMutability": "nonpayable",
      "type": "function"
    },
    {
      "inputs": [],
      "name": "getVoterCount",
      "outputs": [
        {
          "internalType": "uint256",
          "name": "",
          "type": "uint256"
        }
      ],
      "stateMutability": "view",
      "type": "function"
    },
    {
      "inputs": [],
      "name": "getGreenVerifier",
      "outputs": [
        {
          "internalType": "address",
          "name": "",
          "type": "address"
        }
      ],
      "stateMutability": "view",
      "type": "function"
    },
    {
      "inputs": [],
      "name": "getCompany",
      "outputs": [
        {
          "internalType": "address",
          "name": "",
          "type": "address"
        }
      ],
      "stateMutability": "view",
      "type": "function"
    },
    {
      "inputs": [],
      "name": "getProject",
      "outputs": [
        {
          "internalType": "string",
          "name": "",
          "type": "string"
        }
      ],
      "stateMutability": "view",
      "type": "function"
    },
    {
      "inputs": [],
      "name": "isVerified",
      "outputs": [
        {
          "internalType": "bool",
          "name": "",
          "type": "bool"
        }
      ],
      "stateMutability": "view",
      "type": "function"
    },
    {
      "inputs": [],
      "name": "getVotingClosingTime",
      "outputs": [
        {
          "internalType": "uint256",
          "name": "",
          "type": "uint256"
        }
      ],
      "stateMutability": "view",
      "type": "function"
    },
    {
      "inputs": [],
      "name": "getVerifierVote",
      "outputs": [
        {
          "internalType": "uint256",
          "name": "",
          "type": "uint256"
        }
      ],
      "stateMutability": "view",
      "type": "function"
    },
    {
      "inputs": [
        {
          "internalType": "uint256",
          "name": "vote",
          "type": "uint256"
        }
      ],
      "name": "getInvestorVotesPerVote",
      "outputs": [
        {
          "internalType": "uint256",
          "name": "",
          "type": "uint256"
        }
      ],
      "stateMutability": "view",
      "type": "function"
    },
    {
      "inputs": [
        {
          "internalType": "address",
          "name": "investor",
          "type": "address"
        }
      ],
      "name": "investorHasVoted",
      "outputs": [
        {
          "internalType": "bool",
          "name": "",
          "type": "bool"
        }
      ],
      "stateMutability": "view",
      "type": "function"
    },
    {
      "inputs": [
        {
          "internalType": "uint256",
          "name": "verifierVote",
          "type": "uint256"
        }
      ],
      "name": "greenVerifierVote",
      "outputs": [],
      "stateMutability": "nonpayable",
      "type": "function"
    },
    {
      "inputs": [
        {
          "internalType": "uint256",
          "name": "investorVote",
          "type": "uint256"
        }
      ],
      "name": "vote",
      "outputs": [],
      "stateMutability": "nonpayable",
      "type": "function"
    },
    {
      "inputs": [],
      "name": "verify",
      "outputs": [],
      "stateMutability": "nonpayable",
      "type": "function"
    },
    {
      "inputs": [],
      "name": "getHighestVotedOption",
      "outputs": [
        {
          "internalType": "uint256",
          "name": "",
          "type": "uint256"
        }
      ],
      "stateMutability": "view",
      "type": "function"
    },
    {
      "inputs": [],
      "name": "verify2",
      "outputs": [],
      "stateMutability": "nonpayable",
      "type": "function"
    },
    {
      "inputs": [],
      "name": "getFinalVote",
      "outputs": [
        {
          "internalType": "uint256",
          "name": "",
          "type": "uint256"
        }
      ],
      "stateMutability": "view",
      "type": "function"
    }
  ],
  "bytecode": "0x60806040523480156200001157600080fd5b50604051620022b3380380620022b383398181016040528101906200003791906200034e565b8042106200007c576040517f08c379a0000000000000000000000000000000000000000000000000000000008152600401620000739062000425565b60405180910390fd5b336000806101000a81548173ffffffffffffffffffffffffffffffffffffffff021916908373ffffffffffffffffffffffffffffffffffffffff16021790555082600160006101000a81548173ffffffffffffffffffffffffffffffffffffffff021916908373ffffffffffffffffffffffffffffffffffffffff160217905550816002908051906020019062000115929190620001fe565b50806004819055506000600860006101000a81548160ff02191690831515021790555060038060006101000a81548160ff0219169083600381111562000184577f4e487b7100000000000000000000000000000000000000000000000000000000600052602160045260246000fd5b021790555060038060016101000a81548160ff02191690836003811115620001d5577f4e487b7100000000000000000000000000000000000000000000000000000000600052602160045260246000fd5b02179055506000600c60006101000a81548160ff021916908315150217905550505050620005fb565b8280546200020c9062000533565b90600052602060002090601f0160209004810192826200023057600085556200027c565b82601f106200024b57805160ff19168380011785556200027c565b828001600101855582156200027c579182015b828111156200027b5782518255916020019190600101906200025e565b5b5090506200028b91906200028f565b5090565b5b80821115620002aa57600081600090555060010162000290565b5090565b6000620002c5620002bf846200047b565b62000447565b905082815260208101848484011115620002de57600080fd5b620002eb848285620004fd565b509392505050565b6000815190506200030481620005c7565b92915050565b600082601f8301126200031c57600080fd5b81516200032e848260208601620002ae565b91505092915050565b6000815190506200034881620005e1565b92915050565b6000806000606084860312156200036457600080fd5b60006200037486828701620002f3565b935050602084015167ffffffffffffffff8111156200039257600080fd5b620003a0868287016200030a565b9250506040620003b38682870162000337565b9150509250925092565b6000620003cc602a83620004ae565b91507f566f74696e6720636c6f73696e672074696d652063616e206e6f74206265206960008301527f6e207468652070617374000000000000000000000000000000000000000000006020830152604082019050919050565b600060208201905081810360008301526200044081620003bd565b9050919050565b6000604051905081810181811067ffffffffffffffff8211171562000471576200047062000598565b5b8060405250919050565b600067ffffffffffffffff82111562000499576200049862000598565b5b601f19601f8301169050602081019050919050565b600082825260208201905092915050565b6000620004cc82620004d3565b9050919050565b600073ffffffffffffffffffffffffffffffffffffffff82169050919050565b6000819050919050565b60005b838110156200051d57808201518184015260208101905062000500565b838111156200052d576000848401525b50505050565b600060028204905060018216806200054c57607f821691505b6020821081141562000563576200056262000569565b5b50919050565b7f4e487b7100000000000000000000000000000000000000000000000000000000600052602260045260246000fd5b7f4e487b7100000000000000000000000000000000000000000000000000000000600052604160045260246000fd5b620005d281620004bf565b8114620005de57600080fd5b50565b620005ec81620004f3565b8114620005f857600080fd5b50565b611ca8806200060b6000396000f3fe608060405234801561001057600080fd5b50600436106101165760003560e01c806380007e83116100a2578063c631b29211610071578063c631b29214610299578063d6d90498146102a3578063e7940d23146102bf578063f485b64b146102dd578063fc735e99146102fb57610116565b806380007e83146102115780639093c6361461022f578063affc06701461025f578063c1ffc0b61461026957610116565b8063265e7993116100e9578063265e79931461017d578063337e0aff146101995780635eeb2c3c146101b7578063675d6962146101d55780636e57b700146101f357610116565b80630121b93f1461011b57806311174a2914610137578063127810bc146101555780631dabb45214610173575b600080fd5b61013560048036038101906101309190611641565b610305565b005b61013f610656565b60405161014c91906118f7565b60405180910390f35b61015d610660565b60405161016a91906117f2565b60405180910390f35b61017b61068a565b005b61019760048036038101906101929190611641565b61093f565b005b6101a1610b1a565b6040516101ae91906118f7565b60405180910390f35b6101bf610b69565b6040516101cc91906118f7565b60405180910390f35b6101dd610d16565b6040516101ea91906118f7565b60405180910390f35b6101fb610d20565b6040516102089190611875565b60405180910390f35b610219610db2565b6040516102269190611836565b60405180910390f35b61024960048036038101906102449190611641565b610dc9565b60405161025691906118f7565b60405180910390f35b610267610e5e565b005b610283600480360381019061027e91906115d3565b610f09565b6040516102909190611836565b60405180910390f35b6102a1610f5f565b005b6102bd60048036038101906102b891906115fc565b61100a565b005b6102c76112a4565b6040516102d491906117f2565b60405180910390f35b6102e56112cd565b6040516102f291906118f7565b60405180910390f35b61030361131c565b005b60001515600960003373ffffffffffffffffffffffffffffffffffffffff1673ffffffffffffffffffffffffffffffffffffffff16815260200190815260200160002060009054906101000a900460ff16151514610398576040517f08c379a000000000000000000000000000000000000000000000000000000000815260040161038f906118b7565b60405180910390fd5b600081101580156103aa575060028111155b6103e9576040517f08c379a00000000000000000000000000000000000000000000000000000000081526004016103e090611897565b60405180910390fd5b600060058260038110610425577f4e487b7100000000000000000000000000000000000000000000000000000000600052603260045260246000fd5b01549050600181610436919061192e565b60058360038110610470577f4e487b7100000000000000000000000000000000000000000000000000000000600052603260045260246000fd5b01819055506001600960003373ffffffffffffffffffffffffffffffffffffffff1673ffffffffffffffffffffffffffffffffffffffff16815260200190815260200160002060006101000a81548160ff0219169083151502179055507f14075e33dffdc00c1fcaf75d0f86d667170be57fb566b12b41b499e5fa53b12533836003811115610528577f4e487b7100000000000000000000000000000000000000000000000000000000600052602160045260246000fd5b60405161053692919061180d565b60405180910390a1600b54600a80549050106105b457600a339080600181540180825580915050600190039060005260206000200160009091909190916101000a81548173ffffffffffffffffffffffffffffffffffffffff021916908373ffffffffffffffffffffffffffffffffffffffff16021790555061063a565b33600a600b54815481106105f1577f4e487b7100000000000000000000000000000000000000000000000000000000600052603260045260246000fd5b9060005260206000200160006101000a81548173ffffffffffffffffffffffffffffffffffffffff021916908373ffffffffffffffffffffffffffffffffffffffff1602179055505b600b600081548092919061064d90611b1a565b91905055505050565b6000600b54905090565b6000600160009054906101000a900473ffffffffffffffffffffffffffffffffffffffff16905090565b60008054906101000a900473ffffffffffffffffffffffffffffffffffffffff1673ffffffffffffffffffffffffffffffffffffffff163373ffffffffffffffffffffffffffffffffffffffff1614610718576040517f08c379a000000000000000000000000000000000000000000000000000000000815260040161070f906118d7565b60405180910390fd5b60006005600260038110610755577f4e487b7100000000000000000000000000000000000000000000000000000000600052603260045260246000fd5b01546005600160038110610792577f4e487b7100000000000000000000000000000000000000000000000000000000600052603260045260246000fd5b015460056000600381106107cf577f4e487b7100000000000000000000000000000000000000000000000000000000600052603260045260246000fd5b01546107db919061192e565b6107e5919061192e565b905060006107f1610b69565b9050603282606460058460038110610832577f4e487b7100000000000000000000000000000000000000000000000000000000600052603260045260246000fd5b015461083e91906119b5565b6108489190611984565b11156108db57806003811115610887577f4e487b7100000000000000000000000000000000000000000000000000000000600052602160045260246000fd5b600360016101000a81548160ff021916908360038111156108d1577f4e487b7100000000000000000000000000000000000000000000000000000000600052602160045260246000fd5b021790555061093b565b600360009054906101000a900460ff16600360016101000a81548160ff02191690836003811115610935577f4e487b7100000000000000000000000000000000000000000000000000000000600052602160045260246000fd5b02179055505b5050565b60008054906101000a900473ffffffffffffffffffffffffffffffffffffffff1673ffffffffffffffffffffffffffffffffffffffff163373ffffffffffffffffffffffffffffffffffffffff16146109cd576040517f08c379a00000000000000000000000000000000000000000000000000000000081526004016109c4906118d7565b60405180910390fd5b600081101580156109df575060028111155b610a1e576040517f08c379a0000000000000000000000000000000000000000000000000000000008152600401610a1590611897565b60405180910390fd5b806003811115610a57577f4e487b7100000000000000000000000000000000000000000000000000000000600052602160045260246000fd5b600360006101000a81548160ff02191690836003811115610aa1577f4e487b7100000000000000000000000000000000000000000000000000000000600052602160045260246000fd5b02179055507f14075e33dffdc00c1fcaf75d0f86d667170be57fb566b12b41b499e5fa53b12533826003811115610b01577f4e487b7100000000000000000000000000000000000000000000000000000000600052602160045260246000fd5b604051610b0f92919061180d565b60405180910390a150565b6000600360009054906101000a900460ff166003811115610b64577f4e487b7100000000000000000000000000000000000000000000000000000000600052602160045260246000fd5b905090565b60008060009050600060039050816005600060038110610bb2577f4e487b7100000000000000000000000000000000000000000000000000000000600052603260045260246000fd5b01541115610bfe576005600060038110610bf5577f4e487b7100000000000000000000000000000000000000000000000000000000600052603260045260246000fd5b01549150600090505b816005600160038110610c3a577f4e487b7100000000000000000000000000000000000000000000000000000000600052603260045260246000fd5b01541115610c86576005600160038110610c7d577f4e487b7100000000000000000000000000000000000000000000000000000000600052603260045260246000fd5b01549150600190505b816005600260038110610cc2577f4e487b7100000000000000000000000000000000000000000000000000000000600052603260045260246000fd5b01541115610d0e576005600260038110610d05577f4e487b7100000000000000000000000000000000000000000000000000000000600052603260045260246000fd5b01549150600290505b809250505090565b6000600454905090565b606060028054610d2f90611ae8565b80601f0160208091040260200160405190810160405280929190818152602001828054610d5b90611ae8565b8015610da85780601f10610d7d57610100808354040283529160200191610da8565b820191906000526020600020905b815481529060010190602001808311610d8b57829003601f168201915b5050505050905090565b6000600860009054906101000a900460ff16905090565b6000808210158015610ddc575060028211155b610e1b576040517f08c379a0000000000000000000000000000000000000000000000000000000008152600401610e1290611897565b60405180910390fd5b60058260038110610e55577f4e487b7100000000000000000000000000000000000000000000000000000000600052603260045260246000fd5b01549050919050565b60008054906101000a900473ffffffffffffffffffffffffffffffffffffffff1673ffffffffffffffffffffffffffffffffffffffff163373ffffffffffffffffffffffffffffffffffffffff1614610eec576040517f08c379a0000000000000000000000000000000000000000000000000000000008152600401610ee3906118d7565b60405180910390fd5b6001600c60006101000a81548160ff021916908315150217905550565b6000600960008373ffffffffffffffffffffffffffffffffffffffff1673ffffffffffffffffffffffffffffffffffffffff16815260200190815260200160002060009054906101000a900460ff169050919050565b60008054906101000a900473ffffffffffffffffffffffffffffffffffffffff1673ffffffffffffffffffffffffffffffffffffffff163373ffffffffffffffffffffffffffffffffffffffff1614610fed576040517f08c379a0000000000000000000000000000000000000000000000000000000008152600401610fe4906118d7565b60405180910390fd5b6000600c60006101000a81548160ff021916908315150217905550565b60008054906101000a900473ffffffffffffffffffffffffffffffffffffffff1673ffffffffffffffffffffffffffffffffffffffff163373ffffffffffffffffffffffffffffffffffffffff1614611098576040517f08c379a000000000000000000000000000000000000000000000000000000000815260040161108f906118d7565b60405180910390fd5b6000600b54905060005b8181101561121557600060096000600a84815481106110ea577f4e487b7100000000000000000000000000000000000000000000000000000000600052603260045260246000fd5b9060005260206000200160009054906101000a900473ffffffffffffffffffffffffffffffffffffffff1673ffffffffffffffffffffffffffffffffffffffff1673ffffffffffffffffffffffffffffffffffffffff16815260200190815260200160002060006101000a81548160ff0219169083151502179055506000600a82815481106111a2577f4e487b7100000000000000000000000000000000000000000000000000000000600052603260045260246000fd5b9060005260206000200160006101000a81548173ffffffffffffffffffffffffffffffffffffffff021916908373ffffffffffffffffffffffffffffffffffffffff160217905550600b60008154809291906111fd90611abe565b9190505550808061120d90611b1a565b9150506110a2565b5060038060006101000a81548160ff02191690836003811115611261577f4e487b7100000000000000000000000000000000000000000000000000000000600052602160045260246000fd5b02179055507fa204ec6a4c301f826e1580f4ca8da0c3f3ad2d807d9f613ad7df4f1d286c7bcc8383604051611297929190611851565b60405180910390a1505050565b60008060009054906101000a900473ffffffffffffffffffffffffffffffffffffffff16905090565b6000600360019054906101000a900460ff166003811115611317577f4e487b7100000000000000000000000000000000000000000000000000000000600052602160045260246000fd5b905090565b60008054906101000a900473ffffffffffffffffffffffffffffffffffffffff1673ffffffffffffffffffffffffffffffffffffffff163373ffffffffffffffffffffffffffffffffffffffff16146113aa576040517f08c379a00000000000000000000000000000000000000000000000000000000081526004016113a1906118d7565b60405180910390fd5b600060056002600381106113e7577f4e487b7100000000000000000000000000000000000000000000000000000000600052603260045260246000fd5b01546005600160038110611424577f4e487b7100000000000000000000000000000000000000000000000000000000600052603260045260246000fd5b01546005600060038110611461577f4e487b7100000000000000000000000000000000000000000000000000000000600052603260045260246000fd5b015461146d919061192e565b611477919061192e565b90506000600360009054906101000a900460ff1660038111156114c3577f4e487b7100000000000000000000000000000000000000000000000000000000600052602160045260246000fd5b9050603282606460058460038110611504577f4e487b7100000000000000000000000000000000000000000000000000000000600052603260045260246000fd5b015461151091906119b5565b61151a9190611984565b1061153f576001600860006101000a81548160ff02191690831515021790555061155b565b6000600860006101000a81548160ff0219169083151502179055505b5050565b60008135905061156e81611c44565b92915050565b60008083601f84011261158657600080fd5b8235905067ffffffffffffffff81111561159f57600080fd5b6020830191508360018202830111156115b757600080fd5b9250929050565b6000813590506115cd81611c5b565b92915050565b6000602082840312156115e557600080fd5b60006115f38482850161155f565b91505092915050565b6000806020838503121561160f57600080fd5b600083013567ffffffffffffffff81111561162957600080fd5b61163585828601611574565b92509250509250929050565b60006020828403121561165357600080fd5b6000611661848285016115be565b91505092915050565b61167381611a0f565b82525050565b61168281611a21565b82525050565b61169181611a6a565b82525050565b60006116a3838561191d565b93506116b0838584611a7c565b6116b983611c1f565b840190509392505050565b60006116cf82611912565b6116d9818561191d565b93506116e9818560208601611a8b565b6116f281611c1f565b840191505092915050565b600061170a60188361191d565b91507f566f7465206d757374206265206265747765656e20302d3200000000000000006000830152602082019050919050565b600061174a601b8361191d565b91507f496e766573746f722063616e206f6e6c7920766f7465206f6e636500000000006000830152602082019050919050565b600061178a60298361191d565b91507f4f6e6c7920677265656e2076657269666965722063616e2063616c6c2074686560008301527f2066756e6374696f6e00000000000000000000000000000000000000000000006020830152604082019050919050565b6117ec81611a60565b82525050565b6000602082019050611807600083018461166a565b92915050565b6000604082019050611822600083018561166a565b61182f6020830184611688565b9392505050565b600060208201905061184b6000830184611679565b92915050565b6000602082019050818103600083015261186c818486611697565b90509392505050565b6000602082019050818103600083015261188f81846116c4565b905092915050565b600060208201905081810360008301526118b0816116fd565b9050919050565b600060208201905081810360008301526118d08161173d565b9050919050565b600060208201905081810360008301526118f08161177d565b9050919050565b600060208201905061190c60008301846117e3565b92915050565b600081519050919050565b600082825260208201905092915050565b600061193982611a60565b915061194483611a60565b9250827fffffffffffffffffffffffffffffffffffffffffffffffffffffffffffffffff0382111561197957611978611b63565b5b828201905092915050565b600061198f82611a60565b915061199a83611a60565b9250826119aa576119a9611b92565b5b828204905092915050565b60006119c082611a60565b91506119cb83611a60565b9250817fffffffffffffffffffffffffffffffffffffffffffffffffffffffffffffffff0483118215151615611a0457611a03611b63565b5b828202905092915050565b6000611a1a82611a40565b9050919050565b60008115159050919050565b6000819050611a3b82611c30565b919050565b600073ffffffffffffffffffffffffffffffffffffffff82169050919050565b6000819050919050565b6000611a7582611a2d565b9050919050565b82818337600083830152505050565b60005b83811015611aa9578082015181840152602081019050611a8e565b83811115611ab8576000848401525b50505050565b6000611ac982611a60565b91506000821415611add57611adc611b63565b5b600182039050919050565b60006002820490506001821680611b0057607f821691505b60208210811415611b1457611b13611bf0565b5b50919050565b6000611b2582611a60565b91507fffffffffffffffffffffffffffffffffffffffffffffffffffffffffffffffff821415611b5857611b57611b63565b5b600182019050919050565b7f4e487b7100000000000000000000000000000000000000000000000000000000600052601160045260246000fd5b7f4e487b7100000000000000000000000000000000000000000000000000000000600052601260045260246000fd5b7f4e487b7100000000000000000000000000000000000000000000000000000000600052602160045260246000fd5b7f4e487b7100000000000000000000000000000000000000000000000000000000600052602260045260246000fd5b6000601f19601f8301169050919050565b60048110611c4157611c40611bc1565b5b50565b611c4d81611a0f565b8114611c5857600080fd5b50565b611c6481611a60565b8114611c6f57600080fd5b5056fea2646970667358221220d4f61f07d13949c443a3484092afc06d0d26c16f45b08245541a3e6549b143c764736f6c63430008000033",
  "immutableReferences": {},
  "source": "// SPDX-License-Identifier: MIT\npragma solidity >=0.6.0;\n\ncontract GreenVerification {\n    // Voting options\n    enum Vote {\n        BELOW,\n        PAR,\n        ABOVE,\n        UNDEFINED\n    }\n\n    /**\n     * @dev Modified for functions that can only be called by the green verifier\n     */\n    modifier onlyGreenVerifier {\n        require(\n            msg.sender == _greenVerifier,\n            \"Only green verifier can call the function\"\n        );\n        _;\n    }\n\n    /**\n     * @dev Event to emit when investor of verifier votes\n     */\n    event Voted(address voter, Vote vote);\n\n    // Members\n    address private _greenVerifier;\n    address private _company;\n    string private _project;\n    Vote private _verifierVote;\n    Vote private _finalVote;\n    uint256 private _votingClosingTime;\n    uint256[3] private _investorVotes;\n    bool private _verified;\n    mapping(address => bool) private _votedInvestors;\n\n    // Test members for resetting\n    address[] _voterList;\n    uint256 _voterCount;\n    bool _openForVoting;\n\n    /**\n     * Constructor, takes company address, project name and voting close time as parameters\n     */\n    constructor(\n        address company,\n        string memory project,\n        uint256 votingClosingTime\n    ) {\n        require(block.timestamp < votingClosingTime, \"Voting closing time can not be in the past\");\n        _greenVerifier = msg.sender;\n        _company = company;\n        _project = project;\n        _votingClosingTime = votingClosingTime;\n        _verified = false;\n        _verifierVote = Vote.UNDEFINED;\n        _finalVote = Vote.UNDEFINED;\n        \n        // WHAT SHOULD BE THE DEFAULT\n        _openForVoting = false;\n    }\n\n    // TESTING\n    event Reset(string reason);\n\n    function reset(string calldata reason) external onlyGreenVerifier {\n        // Reset votes\n        uint256 length = _voterCount;\n        for(uint i = 0; i < length; i++) {\n            _votedInvestors[_voterList[i]] = false;\n            _voterList[i] = address(0);\n            _voterCount--;\n        }\n        // Reset verifier's vote\n        _verifierVote = Vote.UNDEFINED;\n        emit Reset(reason);\n    }\n\n    function openVoting() external onlyGreenVerifier {\n        _openForVoting = true;\n    }\n    function closeVoting() external onlyGreenVerifier {\n        _openForVoting = false;\n    }\n\n    function getVoterCount() external view returns (uint256) {\n        return _voterCount;\n    }\n\n    // Getter functions\n    function getGreenVerifier() external view returns (address) {\n        return _greenVerifier;\n    }\n\n    function getCompany() external view returns (address) {\n        return _company;\n    }\n\n    function getProject() external view returns (string memory) {\n        return _project;\n    }\n\n    function isVerified() external view returns (bool) {\n        return _verified;\n    }\n\n    function getVotingClosingTime() external view returns (uint256) {\n        return _votingClosingTime;\n    }\n\n    function getVerifierVote() external view returns (uint256) {\n        return uint256(_verifierVote);\n    }\n\n    function getInvestorVotesPerVote(uint256 vote)\n        external\n        view\n        returns (uint256)\n    {\n        require(vote >= 0 && vote <= 2, \"Vote must be between 0-2\");\n        return _investorVotes[vote];\n    }\n\n    // Only for testing purposes\n    function investorHasVoted(address investor) external view returns (bool) {\n        return _votedInvestors[investor];\n    }\n\n    function greenVerifierVote(uint256 verifierVote)\n        external\n        onlyGreenVerifier\n    {\n        require(\n            verifierVote >= 0 && verifierVote <= 2,\n            \"Vote must be between 0-2\"\n        );\n        _verifierVote = Vote(verifierVote);\n        emit Voted(msg.sender, Vote(verifierVote));\n    }\n\n    function vote(uint256 investorVote) external {\n        require(\n            _votedInvestors[msg.sender] == false,\n            \"Investor can only vote once\"\n        );\n        require(\n            investorVote >= 0 && investorVote <= 2,\n            \"Vote must be between 0-2\"\n        );\n\n        uint256 currenNumberOfVotes = _investorVotes[investorVote];\n        _investorVotes[investorVote] = currenNumberOfVotes + 1;\n\n        _votedInvestors[msg.sender] = true;\n        emit Voted(msg.sender, Vote(investorVote));\n        // ADDED\n        if(_voterList.length >= _voterCount) {\n            _voterList.push(msg.sender);\n        } else {\n            _voterList[_voterCount] = msg.sender;\n        }\n        _voterCount++;\n    }\n\n    \n    function verify() external onlyGreenVerifier {\n        uint256 totalVotes = \n            _investorVotes[0] +\n            _investorVotes[1] +\n            _investorVotes[2];\n        uint256 verifierVote = uint256(_verifierVote);\n        if ((_investorVotes[verifierVote] * 100) / totalVotes >= 50) {\n            _verified = true;\n        } else {\n            _verified = false;\n        }\n    }\n\n    // NEW \n    function getHighestVotedOption() public view returns (uint256) {\n        uint256 highestNumberOfVotes = 0;\n        // Default result is UNDEFINED\n        uint256 result = 3; \n        if (_investorVotes[0] > highestNumberOfVotes) {\n            highestNumberOfVotes = _investorVotes[0];\n            result = 0;\n        } \n        if (_investorVotes[1] > highestNumberOfVotes) {\n            highestNumberOfVotes = _investorVotes[1];\n            result = 1;\n        }\n        if (_investorVotes[2] > highestNumberOfVotes) {\n            highestNumberOfVotes = _investorVotes[2];\n            result = 2;\n        }\n        return result;\n    }\n\n    function verify2() external onlyGreenVerifier {\n        // Need to add a limit check\n\n        uint256 totalVotes = \n            _investorVotes[0] +\n            _investorVotes[1] +\n            _investorVotes[2];\n        \n        uint256 votersOption = getHighestVotedOption();\n        // If voters option has over 50% of the given votes\n        if ((_investorVotes[votersOption] * 100) / totalVotes > 50) {\n            _finalVote = Vote(votersOption);\n        } else {\n            _finalVote = _verifierVote;\n        }\n    }\n\n    function getFinalVote() external view returns (uint256) {\n        return uint256(_finalVote);\n    }\n}\n",
  "sourcePath": "/Users/leena/Documents/Coding/Blockchain_Green_Bonds/testProjects/OZ_test/contracts/GreenVerification.sol",
  "compiler": {
    "name": "solc",
    "version": "0.8.0+commit.c7dfd78e.Emscripten.clang"
  },
  "schemaVersion": "3.4.1",
  "updatedAt": "2021-07-20T08:37:38.888Z",
  "devdoc": {
    "events": {
      "Voted(address,uint8)": {
        "details": "Event to emit when investor of verifier votes"
      }
    },
    "kind": "dev",
    "methods": {},
    "version": 1
  },
  "userdoc": {
    "kind": "user",
    "methods": {
      "constructor": {
        "notice": "Constructor, takes company address, project name and voting close time as parameters"
      }
    },
    "version": 1
  }
}