{
  "contractName": "GreenBond",
  "abi": [
    {
      "inputs": [
        {
          "internalType": "string",
          "name": "name",
          "type": "string"
        },
        {
          "internalType": "string",
          "name": "symbol",
          "type": "string"
        },
        {
          "internalType": "string",
          "name": "baseTokenURI",
          "type": "string"
        },
        {
          "internalType": "address",
          "name": "company",
          "type": "address"
        },
        {
          "internalType": "uint256",
          "name": "value",
          "type": "uint256"
        },
        {
          "internalType": "uint256",
          "name": "coupon",
          "type": "uint256"
        }
      ],
      "stateMutability": "nonpayable",
      "type": "constructor"
    },
    {
      "anonymous": false,
      "inputs": [
        {
          "indexed": true,
          "internalType": "address",
          "name": "owner",
          "type": "address"
        },
        {
          "indexed": true,
          "internalType": "address",
          "name": "approved",
          "type": "address"
        },
        {
          "indexed": true,
          "internalType": "uint256",
          "name": "tokenId",
          "type": "uint256"
        }
      ],
      "name": "Approval",
      "type": "event"
    },
    {
      "anonymous": false,
      "inputs": [
        {
          "indexed": true,
          "internalType": "address",
          "name": "owner",
          "type": "address"
        },
        {
          "indexed": true,
          "internalType": "address",
          "name": "operator",
          "type": "address"
        },
        {
          "indexed": false,
          "internalType": "bool",
          "name": "approved",
          "type": "bool"
        }
      ],
      "name": "ApprovalForAll",
      "type": "event"
    },
    {
      "anonymous": false,
      "inputs": [
        {
          "indexed": false,
          "internalType": "address",
          "name": "investor",
          "type": "address"
        },
        {
          "indexed": false,
          "internalType": "uint256",
          "name": "value",
          "type": "uint256"
        }
      ],
      "name": "CoinRefund",
      "type": "event"
    },
    {
      "anonymous": false,
      "inputs": [
        {
          "indexed": false,
          "internalType": "address",
          "name": "adjuster",
          "type": "address"
        },
        {
          "indexed": false,
          "internalType": "uint256",
          "name": "couponRate",
          "type": "uint256"
        }
      ],
      "name": "CouponAdjustment",
      "type": "event"
    },
    {
      "anonymous": false,
      "inputs": [
        {
          "indexed": false,
          "internalType": "address",
          "name": "investor",
          "type": "address"
        },
        {
          "indexed": false,
          "internalType": "uint256",
          "name": "tokenId",
          "type": "uint256"
        }
      ],
      "name": "CouponPayment",
      "type": "event"
    },
    {
      "anonymous": false,
      "inputs": [
        {
          "indexed": false,
          "internalType": "address",
          "name": "investor",
          "type": "address"
        },
        {
          "indexed": false,
          "internalType": "uint256",
          "name": "value",
          "type": "uint256"
        }
      ],
      "name": "Investment",
      "type": "event"
    },
    {
      "anonymous": false,
      "inputs": [
        {
          "indexed": true,
          "internalType": "address",
          "name": "previousOwner",
          "type": "address"
        },
        {
          "indexed": true,
          "internalType": "address",
          "name": "newOwner",
          "type": "address"
        }
      ],
      "name": "OwnershipTransferred",
      "type": "event"
    },
    {
      "anonymous": false,
      "inputs": [
        {
          "indexed": false,
          "internalType": "address",
          "name": "account",
          "type": "address"
        }
      ],
      "name": "Paused",
      "type": "event"
    },
    {
      "anonymous": false,
      "inputs": [
        {
          "indexed": true,
          "internalType": "address",
          "name": "from",
          "type": "address"
        },
        {
          "indexed": true,
          "internalType": "address",
          "name": "to",
          "type": "address"
        },
        {
          "indexed": true,
          "internalType": "uint256",
          "name": "tokenId",
          "type": "uint256"
        }
      ],
      "name": "Transfer",
      "type": "event"
    },
    {
      "anonymous": false,
      "inputs": [
        {
          "indexed": false,
          "internalType": "address",
          "name": "account",
          "type": "address"
        }
      ],
      "name": "Unpaused",
      "type": "event"
    },
    {
      "inputs": [
        {
          "internalType": "uint256",
          "name": "",
          "type": "uint256"
        }
      ],
      "name": "_investors",
      "outputs": [
        {
          "internalType": "address",
          "name": "",
          "type": "address"
        }
      ],
      "stateMutability": "view",
      "type": "function",
      "constant": true
    },
    {
      "inputs": [
        {
          "internalType": "address",
          "name": "to",
          "type": "address"
        },
        {
          "internalType": "uint256",
          "name": "tokenId",
          "type": "uint256"
        }
      ],
      "name": "approve",
      "outputs": [],
      "stateMutability": "nonpayable",
      "type": "function"
    },
    {
      "inputs": [
        {
          "internalType": "address",
          "name": "owner",
          "type": "address"
        }
      ],
      "name": "balanceOf",
      "outputs": [
        {
          "internalType": "uint256",
          "name": "",
          "type": "uint256"
        }
      ],
      "stateMutability": "view",
      "type": "function",
      "constant": true
    },
    {
      "inputs": [
        {
          "internalType": "uint256",
          "name": "tokenId",
          "type": "uint256"
        }
      ],
      "name": "getApproved",
      "outputs": [
        {
          "internalType": "address",
          "name": "",
          "type": "address"
        }
      ],
      "stateMutability": "view",
      "type": "function",
      "constant": true
    },
    {
      "inputs": [
        {
          "internalType": "address",
          "name": "owner",
          "type": "address"
        },
        {
          "internalType": "address",
          "name": "operator",
          "type": "address"
        }
      ],
      "name": "isApprovedForAll",
      "outputs": [
        {
          "internalType": "bool",
          "name": "",
          "type": "bool"
        }
      ],
      "stateMutability": "view",
      "type": "function",
      "constant": true
    },
    {
      "inputs": [],
      "name": "name",
      "outputs": [
        {
          "internalType": "string",
          "name": "",
          "type": "string"
        }
      ],
      "stateMutability": "view",
      "type": "function",
      "constant": true
    },
    {
      "inputs": [],
      "name": "owner",
      "outputs": [
        {
          "internalType": "address",
          "name": "",
          "type": "address"
        }
      ],
      "stateMutability": "view",
      "type": "function",
      "constant": true
    },
    {
      "inputs": [
        {
          "internalType": "uint256",
          "name": "tokenId",
          "type": "uint256"
        }
      ],
      "name": "ownerOf",
      "outputs": [
        {
          "internalType": "address",
          "name": "",
          "type": "address"
        }
      ],
      "stateMutability": "view",
      "type": "function",
      "constant": true
    },
    {
      "inputs": [],
      "name": "renounceOwnership",
      "outputs": [],
      "stateMutability": "nonpayable",
      "type": "function"
    },
    {
      "inputs": [
        {
          "internalType": "address",
          "name": "from",
          "type": "address"
        },
        {
          "internalType": "address",
          "name": "to",
          "type": "address"
        },
        {
          "internalType": "uint256",
          "name": "tokenId",
          "type": "uint256"
        }
      ],
      "name": "safeTransferFrom",
      "outputs": [],
      "stateMutability": "nonpayable",
      "type": "function"
    },
    {
      "inputs": [
        {
          "internalType": "address",
          "name": "from",
          "type": "address"
        },
        {
          "internalType": "address",
          "name": "to",
          "type": "address"
        },
        {
          "internalType": "uint256",
          "name": "tokenId",
          "type": "uint256"
        },
        {
          "internalType": "bytes",
          "name": "_data",
          "type": "bytes"
        }
      ],
      "name": "safeTransferFrom",
      "outputs": [],
      "stateMutability": "nonpayable",
      "type": "function"
    },
    {
      "inputs": [
        {
          "internalType": "address",
          "name": "operator",
          "type": "address"
        },
        {
          "internalType": "bool",
          "name": "approved",
          "type": "bool"
        }
      ],
      "name": "setApprovalForAll",
      "outputs": [],
      "stateMutability": "nonpayable",
      "type": "function"
    },
    {
      "inputs": [],
      "name": "symbol",
      "outputs": [
        {
          "internalType": "string",
          "name": "",
          "type": "string"
        }
      ],
      "stateMutability": "view",
      "type": "function",
      "constant": true
    },
    {
      "inputs": [
        {
          "internalType": "uint256",
          "name": "tokenId",
          "type": "uint256"
        }
      ],
      "name": "tokenURI",
      "outputs": [
        {
          "internalType": "string",
          "name": "",
          "type": "string"
        }
      ],
      "stateMutability": "view",
      "type": "function",
      "constant": true
    },
    {
      "inputs": [
        {
          "internalType": "address",
          "name": "from",
          "type": "address"
        },
        {
          "internalType": "address",
          "name": "to",
          "type": "address"
        },
        {
          "internalType": "uint256",
          "name": "tokenId",
          "type": "uint256"
        }
      ],
      "name": "transferFrom",
      "outputs": [],
      "stateMutability": "nonpayable",
      "type": "function"
    },
    {
      "inputs": [
        {
          "internalType": "address",
          "name": "newOwner",
          "type": "address"
        }
      ],
      "name": "transferOwnership",
      "outputs": [],
      "stateMutability": "nonpayable",
      "type": "function"
    },
    {
      "inputs": [
        {
          "internalType": "address",
          "name": "regulator",
          "type": "address"
        }
      ],
      "name": "setRegulator",
      "outputs": [],
      "stateMutability": "nonpayable",
      "type": "function"
    },
    {
      "inputs": [
        {
          "internalType": "address",
          "name": "greenVerifier",
          "type": "address"
        }
      ],
      "name": "setGreenVerifier",
      "outputs": [],
      "stateMutability": "nonpayable",
      "type": "function"
    },
    {
      "inputs": [],
      "name": "regulator",
      "outputs": [
        {
          "internalType": "address",
          "name": "",
          "type": "address"
        }
      ],
      "stateMutability": "view",
      "type": "function",
      "constant": true
    },
    {
      "inputs": [],
      "name": "greenVerifier",
      "outputs": [
        {
          "internalType": "address",
          "name": "",
          "type": "address"
        }
      ],
      "stateMutability": "view",
      "type": "function",
      "constant": true
    },
    {
      "inputs": [],
      "name": "getValue",
      "outputs": [
        {
          "internalType": "uint256",
          "name": "",
          "type": "uint256"
        }
      ],
      "stateMutability": "view",
      "type": "function",
      "constant": true
    },
    {
      "inputs": [],
      "name": "getCoupon",
      "outputs": [
        {
          "internalType": "uint256",
          "name": "",
          "type": "uint256"
        }
      ],
      "stateMutability": "view",
      "type": "function",
      "constant": true
    },
    {
      "inputs": [],
      "name": "getTotalLoan",
      "outputs": [
        {
          "internalType": "uint256",
          "name": "",
          "type": "uint256"
        }
      ],
      "stateMutability": "view",
      "type": "function",
      "constant": true
    },
    {
      "inputs": [],
      "name": "numberOfInvestors",
      "outputs": [
        {
          "internalType": "uint256",
          "name": "",
          "type": "uint256"
        }
      ],
      "stateMutability": "view",
      "type": "function",
      "constant": true
    },
    {
      "inputs": [],
      "name": "tokenCount",
      "outputs": [
        {
          "internalType": "uint256",
          "name": "",
          "type": "uint256"
        }
      ],
      "stateMutability": "view",
      "type": "function",
      "constant": true
    },
    {
      "inputs": [],
      "name": "getName",
      "outputs": [
        {
          "internalType": "string",
          "name": "",
          "type": "string"
        }
      ],
      "stateMutability": "view",
      "type": "function",
      "constant": true
    },
    {
      "inputs": [
        {
          "internalType": "address",
          "name": "investor",
          "type": "address"
        }
      ],
      "name": "getInvestorBalance",
      "outputs": [
        {
          "internalType": "uint256",
          "name": "",
          "type": "uint256"
        }
      ],
      "stateMutability": "view",
      "type": "function",
      "constant": true
    },
    {
      "inputs": [
        {
          "internalType": "bytes4",
          "name": "interfaceId",
          "type": "bytes4"
        }
      ],
      "name": "supportsInterface",
      "outputs": [
        {
          "internalType": "bool",
          "name": "",
          "type": "bool"
        }
      ],
      "stateMutability": "view",
      "type": "function",
      "constant": true
    },
    {
      "inputs": [
        {
          "internalType": "uint256",
          "name": "number",
          "type": "uint256"
        }
      ],
      "name": "registerInvestment",
      "outputs": [],
      "stateMutability": "payable",
      "type": "function",
      "payable": true
    },
    {
      "inputs": [],
      "name": "issueTokens",
      "outputs": [],
      "stateMutability": "nonpayable",
      "type": "function"
    },
    {
      "inputs": [
        {
          "internalType": "uint256",
          "name": "numberOfTokens",
          "type": "uint256"
        },
        {
          "internalType": "address",
          "name": "to",
          "type": "address"
        }
      ],
      "name": "issueTokens",
      "outputs": [],
      "stateMutability": "nonpayable",
      "type": "function"
    },
    {
      "inputs": [],
      "name": "payCoupons",
      "outputs": [],
      "stateMutability": "payable",
      "type": "function",
      "payable": true
    },
    {
      "inputs": [],
      "name": "payBackBond",
      "outputs": [],
      "stateMutability": "payable",
      "type": "function",
      "payable": true
    },
    {
      "inputs": [],
      "name": "paused",
      "outputs": [
        {
          "internalType": "bool",
          "name": "",
          "type": "bool"
        }
      ],
      "stateMutability": "view",
      "type": "function",
      "constant": true
    },
    {
      "inputs": [],
      "name": "pause",
      "outputs": [],
      "stateMutability": "nonpayable",
      "type": "function"
    },
    {
      "inputs": [],
      "name": "unpause",
      "outputs": [],
      "stateMutability": "nonpayable",
      "type": "function"
    },
    {
      "inputs": [
        {
          "internalType": "bool",
          "name": "increase",
          "type": "bool"
        },
        {
          "internalType": "uint256",
          "name": "amount",
          "type": "uint256"
        }
      ],
      "name": "adjustCoupon",
      "outputs": [],
      "stateMutability": "nonpayable",
      "type": "function"
    }
  ],
  "bytecode": "0x60806040523480156200001157600080fd5b506040516200507b3803806200507b83398181016040528101906200003791906200038d565b85858160009080519060200190620000519291906200023d565b5080600190805190602001906200006a9291906200023d565b50505060006200007f6200023560201b60201c565b905080600660006101000a81548173ffffffffffffffffffffffffffffffffffffffff021916908373ffffffffffffffffffffffffffffffffffffffff1602179055508073ffffffffffffffffffffffffffffffffffffffff16600073ffffffffffffffffffffffffffffffffffffffff167f8be0079c531659141344cd1fd0a4f28419497f9722a3daafe3b4186f6b6457e060405160405180910390a350600081101562000165576040517f08c379a00000000000000000000000000000000000000000000000000000000081526004016200015c90620004b0565b60405180910390fd5b33600b60006101000a81548173ffffffffffffffffffffffffffffffffffffffff021916908373ffffffffffffffffffffffffffffffffffffffff1602179055508360079080519060200190620001be9291906200023d565b5082600c60006101000a81548173ffffffffffffffffffffffffffffffffffffffff021916908373ffffffffffffffffffffffffffffffffffffffff16021790555081600f81905550806010819055506000600960006101000a81548160ff02191690831515021790555050505050505062000686565b600033905090565b8280546200024b90620005be565b90600052602060002090601f0160209004810192826200026f5760008555620002bb565b82601f106200028a57805160ff1916838001178555620002bb565b82800160010185558215620002bb579182015b82811115620002ba5782518255916020019190600101906200029d565b5b509050620002ca9190620002ce565b5090565b5b80821115620002e9576000816000905550600101620002cf565b5090565b600062000304620002fe8462000506565b620004d2565b9050828152602081018484840111156200031d57600080fd5b6200032a84828562000588565b509392505050565b600081519050620003438162000652565b92915050565b600082601f8301126200035b57600080fd5b81516200036d848260208601620002ed565b91505092915050565b60008151905062000387816200066c565b92915050565b60008060008060008060c08789031215620003a757600080fd5b600087015167ffffffffffffffff811115620003c257600080fd5b620003d089828a0162000349565b965050602087015167ffffffffffffffff811115620003ee57600080fd5b620003fc89828a0162000349565b955050604087015167ffffffffffffffff8111156200041a57600080fd5b6200042889828a0162000349565b94505060606200043b89828a0162000332565b93505060806200044e89828a0162000376565b92505060a06200046189828a0162000376565b9150509295509295509295565b60006200047d60208362000539565b91507f436f75706f6e207061796d656e742063616e2774206265206e656761746976656000830152602082019050919050565b60006020820190508181036000830152620004cb816200046e565b9050919050565b6000604051905081810181811067ffffffffffffffff82111715620004fc57620004fb62000623565b5b8060405250919050565b600067ffffffffffffffff82111562000524576200052362000623565b5b601f19601f8301169050602081019050919050565b600082825260208201905092915050565b600062000557826200055e565b9050919050565b600073ffffffffffffffffffffffffffffffffffffffff82169050919050565b6000819050919050565b60005b83811015620005a85780820151818401526020810190506200058b565b83811115620005b8576000848401525b50505050565b60006002820490506001821680620005d757607f821691505b60208210811415620005ee57620005ed620005f4565b5b50919050565b7f4e487b7100000000000000000000000000000000000000000000000000000000600052602260045260246000fd5b7f4e487b7100000000000000000000000000000000000000000000000000000000600052604160045260246000fd5b6200065d816200054a565b81146200066957600080fd5b50565b62000677816200057e565b81146200068357600080fd5b50565b6149e580620006966000396000f3fe6080604052600436106102195760003560e01c80636352211e116101235780639f181b5e116100ab578063d367acfe1161006f578063d367acfe1461074b578063dd8fee1414610776578063e985e9c5146107a1578063efd86729146107de578063f2fde38b1461080757610219565b80639f181b5e14610668578063a22cb46514610693578063b88d4fde146106bc578063c87b56dd146106e5578063cde0a4f81461072257610219565b80637d2026af116100f25780637d2026af146105955780638456cb59146105d25780638a06a364146105e95780638da5cb5b1461061257806395d89b411461063d57610219565b80636352211e146104db57806370a0823114610518578063715018a6146105555780637ad5be881461056c57610219565b806323b872dd116101a65780634a513801116101755780634a513801146104485780634cff6c0e146104525780635c975abb1461045c5780635ea639131461048757806360ab5852146104c457610219565b806323b872dd146103b45780632929c6e6146103dd5780633f4ba83a1461040857806342842e0e1461041f57610219565b8063081812fc116101ed578063081812fc146102cd578063095ea7b31461030a57806317d7de7c146103335780631af2c9fd1461035e578063209652551461038957610219565b806283db4b1461021e57806301ffc9a71461023a57806306fdde031461027757806307634cbe146102a2575b600080fd5b61023860048036038101906102339190613556565b610830565b005b34801561024657600080fd5b50610261600480360381019061025c9190613504565b610a40565b60405161026e919061413d565b60405180910390f35b34801561028357600080fd5b5061028c610a52565b6040516102999190614158565b60405180910390f35b3480156102ae57600080fd5b506102b7610ae4565b6040516102c4919061451a565b60405180910390f35b3480156102d957600080fd5b506102f460048036038101906102ef9190613556565b610aee565b6040516103019190614084565b60405180910390f35b34801561031657600080fd5b50610331600480360381019061032c919061348c565b610b73565b005b34801561033f57600080fd5b50610348610c8b565b6040516103559190614158565b60405180910390f35b34801561036a57600080fd5b50610373610c9a565b604051610380919061451a565b60405180910390f35b34801561039557600080fd5b5061039e610ca7565b6040516103ab919061451a565b60405180910390f35b3480156103c057600080fd5b506103db60048036038101906103d69190613386565b610cb1565b005b3480156103e957600080fd5b506103f2610d11565b6040516103ff919061451a565b60405180910390f35b34801561041457600080fd5b5061041d610d1b565b005b34801561042b57600080fd5b5061044660048036038101906104419190613386565b610e55565b005b610450610e75565b005b61045a61100f565b005b34801561046857600080fd5b506104716111b2565b60405161047e919061413d565b60405180910390f35b34801561049357600080fd5b506104ae60048036038101906104a99190613321565b6111c9565b6040516104bb919061451a565b60405180910390f35b3480156104d057600080fd5b506104d9611281565b005b3480156104e757600080fd5b5061050260048036038101906104fd9190613556565b6116c6565b60405161050f9190614084565b60405180910390f35b34801561052457600080fd5b5061053f600480360381019061053a9190613321565b611778565b60405161054c919061451a565b60405180910390f35b34801561056157600080fd5b5061056a611830565b005b34801561057857600080fd5b50610593600480360381019061058e919061357f565b61196d565b005b3480156105a157600080fd5b506105bc60048036038101906105b79190613556565b611bfe565b6040516105c99190614084565b60405180910390f35b3480156105de57600080fd5b506105e7611c3d565b005b3480156105f557600080fd5b50610610600480360381019061060b9190613321565b611d78565b005b34801561061e57600080fd5b50610627611e38565b6040516106349190614084565b60405180910390f35b34801561064957600080fd5b50610652611e62565b60405161065f9190614158565b60405180910390f35b34801561067457600080fd5b5061067d611ef4565b60405161068a919061451a565b60405180910390f35b34801561069f57600080fd5b506106ba60048036038101906106b59190613450565b611f05565b005b3480156106c857600080fd5b506106e360048036038101906106de91906133d5565b612086565b005b3480156106f157600080fd5b5061070c60048036038101906107079190613556565b6120e8565b6040516107199190614158565b60405180910390f35b34801561072e57600080fd5b5061074960048036038101906107449190613321565b61218f565b005b34801561075757600080fd5b5061076061224f565b60405161076d9190614084565b60405180910390f35b34801561078257600080fd5b5061078b612279565b6040516107989190614084565b60405180910390f35b3480156107ad57600080fd5b506107c860048036038101906107c3919061334a565b6122a3565b6040516107d5919061413d565b60405180910390f35b3480156107ea57600080fd5b50610805600480360381019061080091906134c8565b612337565b005b34801561081357600080fd5b5061082e60048036038101906108299190613321565b612449565b005b600f548161083e9190614660565b341015610880576040517f08c379a0000000000000000000000000000000000000000000000000000000008152600401610877906144fa565b60405180910390fd5b6000601260003373ffffffffffffffffffffffffffffffffffffffff1673ffffffffffffffffffffffffffffffffffffffff16815260200190815260200160002054141561092c57600a339080600181540180825580915050600190039060005260206000200160009091909190916101000a81548173ffffffffffffffffffffffffffffffffffffffff021916908373ffffffffffffffffffffffffffffffffffffffff1602179055505b6000601260003373ffffffffffffffffffffffffffffffffffffffff1673ffffffffffffffffffffffffffffffffffffffff168152602001908152602001600020549050348161097c91906145d9565b601260003373ffffffffffffffffffffffffffffffffffffffff1673ffffffffffffffffffffffffffffffffffffffff1681526020019081526020016000208190555081601360003373ffffffffffffffffffffffffffffffffffffffff1673ffffffffffffffffffffffffffffffffffffffff168152602001908152602001600020819055507ffe123a1efb6782dccd20e9790951adcfab3cd0e11b85a6f06d8b9222d299a0a33334604051610a34929190614114565b60405180910390a15050565b6000610a4b826125f5565b9050919050565b606060008054610a61906147da565b80601f0160208091040260200160405190810160405280929190818152602001828054610a8d906147da565b8015610ada5780601f10610aaf57610100808354040283529160200191610ada565b820191906000526020600020905b815481529060010190602001808311610abd57829003601f168201915b5050505050905090565b6000601054905090565b6000610af9826126d7565b610b38576040517f08c379a0000000000000000000000000000000000000000000000000000000008152600401610b2f906143ba565b60405180910390fd5b6004600083815260200190815260200160002060009054906101000a900473ffffffffffffffffffffffffffffffffffffffff169050919050565b6000610b7e826116c6565b90508073ffffffffffffffffffffffffffffffffffffffff168373ffffffffffffffffffffffffffffffffffffffff161415610bef576040517f08c379a0000000000000000000000000000000000000000000000000000000008152600401610be69061445a565b60405180910390fd5b8073ffffffffffffffffffffffffffffffffffffffff16610c0e612743565b73ffffffffffffffffffffffffffffffffffffffff161480610c3d5750610c3c81610c37612743565b6122a3565b5b610c7c576040517f08c379a0000000000000000000000000000000000000000000000000000000008152600401610c739061433a565b60405180910390fd5b610c86838361274b565b505050565b6060610c95610a52565b905090565b6000600a80549050905090565b6000600f54905090565b610cc2610cbc612743565b82612804565b610d01576040517f08c379a0000000000000000000000000000000000000000000000000000000008152600401610cf89061449a565b60405180910390fd5b610d0c8383836128e2565b505050565b6000601154905090565b600960009054906101000a900460ff16610d6a576040517f08c379a0000000000000000000000000000000000000000000000000000000008152600401610d619061417a565b60405180910390fd5b600d60009054906101000a900473ffffffffffffffffffffffffffffffffffffffff1673ffffffffffffffffffffffffffffffffffffffff163373ffffffffffffffffffffffffffffffffffffffff1614610dfa576040517f08c379a0000000000000000000000000000000000000000000000000000000008152600401610df1906141da565b60405180910390fd5b6000600960006101000a81548160ff0219169083151502179055507f5db9ee0a495bf2e6ff9c91a7834c1ba4fdd244a5e8aa4e537bd38aeae4b073aa610e3e612743565b604051610e4b9190614084565b60405180910390a1565b610e7083838360405180602001604052806000815250612086565b505050565b610e7f6008612b3e565b601054610e8c9190614660565b341015610ece576040517f08c379a0000000000000000000000000000000000000000000000000000000008152600401610ec59061447a565b60405180910390fd5b60005b610edb6008612b3e565b811015610f85576000610eed826116c6565b90508073ffffffffffffffffffffffffffffffffffffffff166108fc6010549081150290604051600060405180830381858888f19350505050158015610f37573d6000803e3d6000fd5b507fb3224bc7c2e6157092b5f650cc8b06e5f0c34d8218b6e9a1a5a39c2e43706e408183604051610f6992919061409f565b60405180910390a1508080610f7d9061480c565b915050610ed1565b50610f906008612b3e565b601054610f9d9190614660565b34111561100d573373ffffffffffffffffffffffffffffffffffffffff166108fc610fc86008612b3e565b601054610fd59190614660565b34610fe091906146ba565b9081150290604051600060405180830381858888f1935050505015801561100b573d6000803e3d6000fd5b505b565b600c60009054906101000a900473ffffffffffffffffffffffffffffffffffffffff1673ffffffffffffffffffffffffffffffffffffffff163373ffffffffffffffffffffffffffffffffffffffff161461109f576040517f08c379a00000000000000000000000000000000000000000000000000000000081526004016110969061427a565b60405180910390fd5b6011543410156110e4576040517f08c379a00000000000000000000000000000000000000000000000000000000081526004016110db906144ba565b60405180910390fd5b60005b6110f16008612b3e565b8110156111af576000611103826116c6565b905061113281600b60009054906101000a900473ffffffffffffffffffffffffffffffffffffffff1684612b4c565b8073ffffffffffffffffffffffffffffffffffffffff166108fc600f549081150290604051600060405180830381858888f1935050505015801561117a573d6000803e3d6000fd5b50600f5460115461118b91906146ba565b60118190555061119b6008612b5c565b5080806111a79061480c565b9150506110e7565b50565b6000600960009054906101000a900460ff16905090565b60008073ffffffffffffffffffffffffffffffffffffffff168273ffffffffffffffffffffffffffffffffffffffff16141561123a576040517f08c379a0000000000000000000000000000000000000000000000000000000008152600401611231906143fa565b60405180910390fd5b601260008373ffffffffffffffffffffffffffffffffffffffff1673ffffffffffffffffffffffffffffffffffffffff168152602001908152602001600020549050919050565b600b60009054906101000a900473ffffffffffffffffffffffffffffffffffffffff1673ffffffffffffffffffffffffffffffffffffffff163373ffffffffffffffffffffffffffffffffffffffff1614611311576040517f08c379a0000000000000000000000000000000000000000000000000000000008152600401611308906144da565b60405180910390fd5b60005b600a805490508110156116c3576000600a828154811061135d577f4e487b7100000000000000000000000000000000000000000000000000000000600052603260045260246000fd5b9060005260206000200160009054906101000a900473ffffffffffffffffffffffffffffffffffffffff1690506000601360008373ffffffffffffffffffffffffffffffffffffffff1673ffffffffffffffffffffffffffffffffffffffff168152602001908152602001600020549050600c60009054906101000a900473ffffffffffffffffffffffffffffffffffffffff1673ffffffffffffffffffffffffffffffffffffffff166108fc82600f546114189190614660565b9081150290604051600060405180830381858888f19350505050158015611443573d6000803e3d6000fd5b50600f54816114529190614660565b601260008473ffffffffffffffffffffffffffffffffffffffff1673ffffffffffffffffffffffffffffffffffffffff1681526020019081526020016000205411156115c7578173ffffffffffffffffffffffffffffffffffffffff166108fc600f54836114c09190614660565b601260008673ffffffffffffffffffffffffffffffffffffffff1673ffffffffffffffffffffffffffffffffffffffff1681526020019081526020016000205461150a91906146ba565b9081150290604051600060405180830381858888f19350505050158015611535573d6000803e3d6000fd5b507f2ee76d0c8417fef3c9f68663d321eb1c1ed0e089b5298177f0582aeadb6fd91f82600f54836115669190614660565b601260008673ffffffffffffffffffffffffffffffffffffffff1673ffffffffffffffffffffffffffffffffffffffff168152602001908152602001600020546115b091906146ba565b6040516115be929190614114565b60405180910390a15b6000601260008473ffffffffffffffffffffffffffffffffffffffff1673ffffffffffffffffffffffffffffffffffffffff168152602001908152602001600020819055506000601360008473ffffffffffffffffffffffffffffffffffffffff1673ffffffffffffffffffffffffffffffffffffffff1681526020019081526020016000208190555080600f5461165f9190614660565b60115461166c91906145d9565b60118190555060005b818110156116ad576116908361168b6008612b3e565b612bb8565b61169a6008612d86565b80806116a59061480c565b915050611675565b50505080806116bb9061480c565b915050611314565b50565b6000806002600084815260200190815260200160002060009054906101000a900473ffffffffffffffffffffffffffffffffffffffff169050600073ffffffffffffffffffffffffffffffffffffffff168173ffffffffffffffffffffffffffffffffffffffff16141561176f576040517f08c379a00000000000000000000000000000000000000000000000000000000081526004016117669061437a565b60405180910390fd5b80915050919050565b60008073ffffffffffffffffffffffffffffffffffffffff168273ffffffffffffffffffffffffffffffffffffffff1614156117e9576040517f08c379a00000000000000000000000000000000000000000000000000000000081526004016117e09061435a565b60405180910390fd5b600360008373ffffffffffffffffffffffffffffffffffffffff1673ffffffffffffffffffffffffffffffffffffffff168152602001908152602001600020549050919050565b611838612743565b73ffffffffffffffffffffffffffffffffffffffff16611856611e38565b73ffffffffffffffffffffffffffffffffffffffff16146118ac576040517f08c379a00000000000000000000000000000000000000000000000000000000081526004016118a3906143da565b60405180910390fd5b600073ffffffffffffffffffffffffffffffffffffffff16600660009054906101000a900473ffffffffffffffffffffffffffffffffffffffff1673ffffffffffffffffffffffffffffffffffffffff167f8be0079c531659141344cd1fd0a4f28419497f9722a3daafe3b4186f6b6457e060405160405180910390a36000600660006101000a81548173ffffffffffffffffffffffffffffffffffffffff021916908373ffffffffffffffffffffffffffffffffffffffff160217905550565b600b60009054906101000a900473ffffffffffffffffffffffffffffffffffffffff1673ffffffffffffffffffffffffffffffffffffffff163373ffffffffffffffffffffffffffffffffffffffff16146119fd576040517f08c379a00000000000000000000000000000000000000000000000000000000081526004016119f4906144da565b60405180910390fd5b600f5482611a0b9190614660565b601260008373ffffffffffffffffffffffffffffffffffffffff1673ffffffffffffffffffffffffffffffffffffffff168152602001908152602001600020541015611a8c576040517f08c379a0000000000000000000000000000000000000000000000000000000008152600401611a83906142da565b60405180910390fd5b600c60009054906101000a900473ffffffffffffffffffffffffffffffffffffffff1673ffffffffffffffffffffffffffffffffffffffff166108fc83600f54611ad69190614660565b9081150290604051600060405180830381858888f19350505050158015611b01573d6000803e3d6000fd5b50600f5482611b109190614660565b601260008373ffffffffffffffffffffffffffffffffffffffff1673ffffffffffffffffffffffffffffffffffffffff16815260200190815260200160002054611b5a91906146ba565b601260008373ffffffffffffffffffffffffffffffffffffffff1673ffffffffffffffffffffffffffffffffffffffff16815260200190815260200160002081905550600f5482611bab9190614660565b601154611bb891906145d9565b60118190555060005b82811015611bf957611bdc82611bd76008612b3e565b612bb8565b611be66008612d86565b8080611bf19061480c565b915050611bc1565b505050565b600a8181548110611c0e57600080fd5b906000526020600020016000915054906101000a900473ffffffffffffffffffffffffffffffffffffffff1681565b600960009054906101000a900460ff1615611c8d576040517f08c379a0000000000000000000000000000000000000000000000000000000008152600401611c84906142fa565b60405180910390fd5b600d60009054906101000a900473ffffffffffffffffffffffffffffffffffffffff1673ffffffffffffffffffffffffffffffffffffffff163373ffffffffffffffffffffffffffffffffffffffff1614611d1d576040517f08c379a0000000000000000000000000000000000000000000000000000000008152600401611d149061431a565b60405180910390fd5b6001600960006101000a81548160ff0219169083151502179055507f62e78cea01bee320cd4e420270b5ea74000d11b0c9f74754ebdbfc544b05a258611d61612743565b604051611d6e9190614084565b60405180910390a1565b611d80612743565b73ffffffffffffffffffffffffffffffffffffffff16611d9e611e38565b73ffffffffffffffffffffffffffffffffffffffff1614611df4576040517f08c379a0000000000000000000000000000000000000000000000000000000008152600401611deb906143da565b60405180910390fd5b80600e60006101000a81548173ffffffffffffffffffffffffffffffffffffffff021916908373ffffffffffffffffffffffffffffffffffffffff16021790555050565b6000600660009054906101000a900473ffffffffffffffffffffffffffffffffffffffff16905090565b606060018054611e71906147da565b80601f0160208091040260200160405190810160405280929190818152602001828054611e9d906147da565b8015611eea5780601f10611ebf57610100808354040283529160200191611eea565b820191906000526020600020905b815481529060010190602001808311611ecd57829003601f168201915b5050505050905090565b6000611f006008612b3e565b905090565b611f0d612743565b73ffffffffffffffffffffffffffffffffffffffff168273ffffffffffffffffffffffffffffffffffffffff161415611f7b576040517f08c379a0000000000000000000000000000000000000000000000000000000008152600401611f729061425a565b60405180910390fd5b8060056000611f88612743565b73ffffffffffffffffffffffffffffffffffffffff1673ffffffffffffffffffffffffffffffffffffffff16815260200190815260200160002060008473ffffffffffffffffffffffffffffffffffffffff1673ffffffffffffffffffffffffffffffffffffffff16815260200190815260200160002060006101000a81548160ff0219169083151502179055508173ffffffffffffffffffffffffffffffffffffffff16612035612743565b73ffffffffffffffffffffffffffffffffffffffff167f17307eab39ab6107e8899845ad3d59bd9653f200f220920489ca2b5937696c318360405161207a919061413d565b60405180910390a35050565b612097612091612743565b83612804565b6120d6576040517f08c379a00000000000000000000000000000000000000000000000000000000081526004016120cd9061449a565b60405180910390fd5b6120e284848484612d9c565b50505050565b60606120f3826126d7565b612132576040517f08c379a00000000000000000000000000000000000000000000000000000000081526004016121299061443a565b60405180910390fd5b600061213c612df8565b9050600081511161215c5760405180602001604052806000815250612187565b8061216684612e8a565b604051602001612177929190614060565b6040516020818303038152906040525b915050919050565b612197612743565b73ffffffffffffffffffffffffffffffffffffffff166121b5611e38565b73ffffffffffffffffffffffffffffffffffffffff161461220b576040517f08c379a0000000000000000000000000000000000000000000000000000000008152600401612202906143da565b60405180910390fd5b80600d60006101000a81548173ffffffffffffffffffffffffffffffffffffffff021916908373ffffffffffffffffffffffffffffffffffffffff16021790555050565b6000600e60009054906101000a900473ffffffffffffffffffffffffffffffffffffffff16905090565b6000600d60009054906101000a900473ffffffffffffffffffffffffffffffffffffffff16905090565b6000600560008473ffffffffffffffffffffffffffffffffffffffff1673ffffffffffffffffffffffffffffffffffffffff16815260200190815260200160002060008373ffffffffffffffffffffffffffffffffffffffff1673ffffffffffffffffffffffffffffffffffffffff16815260200190815260200160002060009054906101000a900460ff16905092915050565b600e60009054906101000a900473ffffffffffffffffffffffffffffffffffffffff1673ffffffffffffffffffffffffffffffffffffffff163373ffffffffffffffffffffffffffffffffffffffff161461239157600080fd5b81156123b057806010546123a591906145d9565b60108190555061240a565b6010548111156123f5576040517f08c379a00000000000000000000000000000000000000000000000000000000081526004016123ec9061429a565b60405180910390fd5b8060105461240391906146ba565b6010819055505b7fca1d6283d1b481c7291c2fc81205d98456d1c2948caa5f9460dd3e35ca34e4163360105460405161243d929190614114565b60405180910390a15050565b612451612743565b73ffffffffffffffffffffffffffffffffffffffff1661246f611e38565b73ffffffffffffffffffffffffffffffffffffffff16146124c5576040517f08c379a00000000000000000000000000000000000000000000000000000000081526004016124bc906143da565b60405180910390fd5b600073ffffffffffffffffffffffffffffffffffffffff168173ffffffffffffffffffffffffffffffffffffffff161415612535576040517f08c379a000000000000000000000000000000000000000000000000000000000815260040161252c906141fa565b60405180910390fd5b8073ffffffffffffffffffffffffffffffffffffffff16600660009054906101000a900473ffffffffffffffffffffffffffffffffffffffff1673ffffffffffffffffffffffffffffffffffffffff167f8be0079c531659141344cd1fd0a4f28419497f9722a3daafe3b4186f6b6457e060405160405180910390a380600660006101000a81548173ffffffffffffffffffffffffffffffffffffffff021916908373ffffffffffffffffffffffffffffffffffffffff16021790555050565b60007f80ac58cd000000000000000000000000000000000000000000000000000000007bffffffffffffffffffffffffffffffffffffffffffffffffffffffff1916827bffffffffffffffffffffffffffffffffffffffffffffffffffffffff191614806126c057507f5b5e139f000000000000000000000000000000000000000000000000000000007bffffffffffffffffffffffffffffffffffffffffffffffffffffffff1916827bffffffffffffffffffffffffffffffffffffffffffffffffffffffff1916145b806126d057506126cf82613037565b5b9050919050565b60008073ffffffffffffffffffffffffffffffffffffffff166002600084815260200190815260200160002060009054906101000a900473ffffffffffffffffffffffffffffffffffffffff1673ffffffffffffffffffffffffffffffffffffffff1614159050919050565b600033905090565b816004600083815260200190815260200160002060006101000a81548173ffffffffffffffffffffffffffffffffffffffff021916908373ffffffffffffffffffffffffffffffffffffffff160217905550808273ffffffffffffffffffffffffffffffffffffffff166127be836116c6565b73ffffffffffffffffffffffffffffffffffffffff167f8c5be1e5ebec7d5bd14f71427d1e84f3dd0314c0f7b2291e5b200ac8c7c3b92560405160405180910390a45050565b600061280f826126d7565b61284e576040517f08c379a0000000000000000000000000000000000000000000000000000000008152600401612845906142ba565b60405180910390fd5b6000612859836116c6565b90508073ffffffffffffffffffffffffffffffffffffffff168473ffffffffffffffffffffffffffffffffffffffff1614806128c857508373ffffffffffffffffffffffffffffffffffffffff166128b084610aee565b73ffffffffffffffffffffffffffffffffffffffff16145b806128d957506128d881856122a3565b5b91505092915050565b8273ffffffffffffffffffffffffffffffffffffffff16612902826116c6565b73ffffffffffffffffffffffffffffffffffffffff1614612958576040517f08c379a000000000000000000000000000000000000000000000000000000000815260040161294f9061441a565b60405180910390fd5b600073ffffffffffffffffffffffffffffffffffffffff168273ffffffffffffffffffffffffffffffffffffffff1614156129c8576040517f08c379a00000000000000000000000000000000000000000000000000000000081526004016129bf9061423a565b60405180910390fd5b6129d38383836130a1565b6129de60008261274b565b6001600360008573ffffffffffffffffffffffffffffffffffffffff1673ffffffffffffffffffffffffffffffffffffffff1681526020019081526020016000206000828254612a2e91906146ba565b925050819055506001600360008473ffffffffffffffffffffffffffffffffffffffff1673ffffffffffffffffffffffffffffffffffffffff1681526020019081526020016000206000828254612a8591906145d9565b92505081905550816002600083815260200190815260200160002060006101000a81548173ffffffffffffffffffffffffffffffffffffffff021916908373ffffffffffffffffffffffffffffffffffffffff160217905550808273ffffffffffffffffffffffffffffffffffffffff168473ffffffffffffffffffffffffffffffffffffffff167fddf252ad1be2c89b69c2b068fc378daa952ba7f163c4a11628f55a4df523b3ef60405160405180910390a4505050565b600081600001549050919050565b612b578383836128e2565b505050565b60008160000154905060008111612ba8576040517f08c379a0000000000000000000000000000000000000000000000000000000008152600401612b9f9061419a565b60405180910390fd5b6001810382600001819055505050565b600073ffffffffffffffffffffffffffffffffffffffff168273ffffffffffffffffffffffffffffffffffffffff161415612c28576040517f08c379a0000000000000000000000000000000000000000000000000000000008152600401612c1f9061439a565b60405180910390fd5b612c31816126d7565b15612c71576040517f08c379a0000000000000000000000000000000000000000000000000000000008152600401612c689061421a565b60405180910390fd5b612c7d600083836130a1565b6001600360008473ffffffffffffffffffffffffffffffffffffffff1673ffffffffffffffffffffffffffffffffffffffff1681526020019081526020016000206000828254612ccd91906145d9565b92505081905550816002600083815260200190815260200160002060006101000a81548173ffffffffffffffffffffffffffffffffffffffff021916908373ffffffffffffffffffffffffffffffffffffffff160217905550808273ffffffffffffffffffffffffffffffffffffffff16600073ffffffffffffffffffffffffffffffffffffffff167fddf252ad1be2c89b69c2b068fc378daa952ba7f163c4a11628f55a4df523b3ef60405160405180910390a45050565b6001816000016000828254019250508190555050565b612da78484846128e2565b612db3848484846130a6565b612df2576040517f08c379a0000000000000000000000000000000000000000000000000000000008152600401612de9906141ba565b60405180910390fd5b50505050565b606060078054612e07906147da565b80601f0160208091040260200160405190810160405280929190818152602001828054612e33906147da565b8015612e805780601f10612e5557610100808354040283529160200191612e80565b820191906000526020600020905b815481529060010190602001808311612e6357829003601f168201915b5050505050905090565b60606000821415612ed2576040518060400160405280600181526020017f30000000000000000000000000000000000000000000000000000000000000008152509050613032565b600082905060005b60008214612f04578080612eed9061480c565b915050600a82612efd919061462f565b9150612eda565b60008167ffffffffffffffff811115612f46577f4e487b7100000000000000000000000000000000000000000000000000000000600052604160045260246000fd5b6040519080825280601f01601f191660200182016040528015612f785781602001600182028036833780820191505090505b5090505b6000851461302b57600182612f9191906146ba565b9150600a85612fa09190614855565b6030612fac91906145d9565b60f81b818381518110612fe8577f4e487b7100000000000000000000000000000000000000000000000000000000600052603260045260246000fd5b60200101907effffffffffffffffffffffffffffffffffffffffffffffffffffffffffffff1916908160001a905350600a85613024919061462f565b9450612f7c565b8093505050505b919050565b60007f01ffc9a7000000000000000000000000000000000000000000000000000000007bffffffffffffffffffffffffffffffffffffffffffffffffffffffff1916827bffffffffffffffffffffffffffffffffffffffffffffffffffffffff1916149050919050565b505050565b60006130c78473ffffffffffffffffffffffffffffffffffffffff1661323d565b15613230578373ffffffffffffffffffffffffffffffffffffffff1663150b7a026130f0612743565b8786866040518563ffffffff1660e01b815260040161311294939291906140c8565b602060405180830381600087803b15801561312c57600080fd5b505af192505050801561315d57506040513d601f19601f8201168201806040525081019061315a919061352d565b60015b6131e0573d806000811461318d576040519150601f19603f3d011682016040523d82523d6000602084013e613192565b606091505b506000815114156131d8576040517f08c379a00000000000000000000000000000000000000000000000000000000081526004016131cf906141ba565b60405180910390fd5b805181602001fd5b63150b7a0260e01b7bffffffffffffffffffffffffffffffffffffffffffffffffffffffff1916817bffffffffffffffffffffffffffffffffffffffffffffffffffffffff191614915050613235565b600190505b949350505050565b600080823b905060008111915050919050565b600061326361325e84614566565b614535565b90508281526020810184848401111561327b57600080fd5b613286848285614798565b509392505050565b60008135905061329d81614953565b92915050565b6000813590506132b28161496a565b92915050565b6000813590506132c781614981565b92915050565b6000815190506132dc81614981565b92915050565b600082601f8301126132f357600080fd5b8135613303848260208601613250565b91505092915050565b60008135905061331b81614998565b92915050565b60006020828403121561333357600080fd5b60006133418482850161328e565b91505092915050565b6000806040838503121561335d57600080fd5b600061336b8582860161328e565b925050602061337c8582860161328e565b9150509250929050565b60008060006060848603121561339b57600080fd5b60006133a98682870161328e565b93505060206133ba8682870161328e565b92505060406133cb8682870161330c565b9150509250925092565b600080600080608085870312156133eb57600080fd5b60006133f98782880161328e565b945050602061340a8782880161328e565b935050604061341b8782880161330c565b925050606085013567ffffffffffffffff81111561343857600080fd5b613444878288016132e2565b91505092959194509250565b6000806040838503121561346357600080fd5b60006134718582860161328e565b9250506020613482858286016132a3565b9150509250929050565b6000806040838503121561349f57600080fd5b60006134ad8582860161328e565b92505060206134be8582860161330c565b9150509250929050565b600080604083850312156134db57600080fd5b60006134e9858286016132a3565b92505060206134fa8582860161330c565b9150509250929050565b60006020828403121561351657600080fd5b6000613524848285016132b8565b91505092915050565b60006020828403121561353f57600080fd5b600061354d848285016132cd565b91505092915050565b60006020828403121561356857600080fd5b60006135768482850161330c565b91505092915050565b6000806040838503121561359257600080fd5b60006135a08582860161330c565b92505060206135b18582860161328e565b9150509250929050565b6135c481614762565b82525050565b6135d3816146ee565b82525050565b6135e281614700565b82525050565b60006135f382614596565b6135fd81856145ac565b935061360d8185602086016147a7565b61361681614942565b840191505092915050565b600061362c826145a1565b61363681856145bd565b93506136468185602086016147a7565b61364f81614942565b840191505092915050565b6000613665826145a1565b61366f81856145ce565b935061367f8185602086016147a7565b80840191505092915050565b60006136986014836145bd565b91507f5061757361626c653a206e6f74207061757365640000000000000000000000006000830152602082019050919050565b60006136d8601b836145bd565b91507f436f756e7465723a2064656372656d656e74206f766572666c6f7700000000006000830152602082019050919050565b60006137186032836145bd565b91507f4552433732313a207472616e7366657220746f206e6f6e20455243373231526560008301527f63656976657220696d706c656d656e74657200000000000000000000000000006020830152604082019050919050565b600061377e6022836145bd565b91507f556e7061757365722063616e206f6e6c792062652074686520726567756c617460008301527f6f720000000000000000000000000000000000000000000000000000000000006020830152604082019050919050565b60006137e46026836145bd565b91507f4f776e61626c653a206e6577206f776e657220697320746865207a65726f206160008301527f64647265737300000000000000000000000000000000000000000000000000006020830152604082019050919050565b600061384a601c836145bd565b91507f4552433732313a20746f6b656e20616c7265616479206d696e746564000000006000830152602082019050919050565b600061388a6024836145bd565b91507f4552433732313a207472616e7366657220746f20746865207a65726f2061646460008301527f72657373000000000000000000000000000000000000000000000000000000006020830152604082019050919050565b60006138f06019836145bd565b91507f4552433732313a20617070726f766520746f2063616c6c6572000000000000006000830152602082019050919050565b6000613930602e836145bd565b91507f506179696e6720636f6d70616e792073686f756c642062652074686520626f7260008301527f726f77696e6720636f6d70616e790000000000000000000000000000000000006020830152604082019050919050565b60006139966020836145bd565b91507f436f75706f6e207061796d656e742063616e2774206265206e656761746976656000830152602082019050919050565b60006139d6602c836145bd565b91507f4552433732313a206f70657261746f7220717565727920666f72206e6f6e657860008301527f697374656e7420746f6b656e00000000000000000000000000000000000000006020830152604082019050919050565b6000613a3c602c836145bd565b91507f496e766573746f7220686173206e6f7420656e6f7567682066756e647320666f60008301527f722074686520746f6b656e7300000000000000000000000000000000000000006020830152604082019050919050565b6000613aa26010836145bd565b91507f5061757361626c653a20706175736564000000000000000000000000000000006000830152602082019050919050565b6000613ae26020836145bd565b91507f5061757365722063616e206f6e6c792062652074686520726567756c61746f726000830152602082019050919050565b6000613b226038836145bd565b91507f4552433732313a20617070726f76652063616c6c6572206973206e6f74206f7760008301527f6e6572206e6f7220617070726f76656420666f7220616c6c00000000000000006020830152604082019050919050565b6000613b88602a836145bd565b91507f4552433732313a2062616c616e636520717565727920666f7220746865207a6560008301527f726f2061646472657373000000000000000000000000000000000000000000006020830152604082019050919050565b6000613bee6029836145bd565b91507f4552433732313a206f776e657220717565727920666f72206e6f6e657869737460008301527f656e7420746f6b656e00000000000000000000000000000000000000000000006020830152604082019050919050565b6000613c546020836145bd565b91507f4552433732313a206d696e7420746f20746865207a65726f20616464726573736000830152602082019050919050565b6000613c94602c836145bd565b91507f4552433732313a20617070726f76656420717565727920666f72206e6f6e657860008301527f697374656e7420746f6b656e00000000000000000000000000000000000000006020830152604082019050919050565b6000613cfa6020836145bd565b91507f4f776e61626c653a2063616c6c6572206973206e6f7420746865206f776e65726000830152602082019050919050565b6000613d3a6022836145bd565b91507f42616c616e636520717565727920666f7220746865207a65726f20616464726560008301527f73730000000000000000000000000000000000000000000000000000000000006020830152604082019050919050565b6000613da06029836145bd565b91507f4552433732313a207472616e73666572206f6620746f6b656e2074686174206960008301527f73206e6f74206f776e00000000000000000000000000000000000000000000006020830152604082019050919050565b6000613e06602f836145bd565b91507f4552433732314d657461646174613a2055524920717565727920666f72206e6f60008301527f6e6578697374656e7420746f6b656e00000000000000000000000000000000006020830152604082019050919050565b6000613e6c6021836145bd565b91507f4552433732313a20617070726f76616c20746f2063757272656e74206f776e6560008301527f72000000000000000000000000000000000000000000000000000000000000006020830152604082019050919050565b6000613ed2601c836145bd565b91507f4e6f7420656e6f75676820636f696e7320666f7220636f75706f6e73000000006000830152602082019050919050565b6000613f126031836145bd565b91507f4552433732313a207472616e736665722063616c6c6572206973206e6f74206f60008301527f776e6572206e6f7220617070726f7665640000000000000000000000000000006020830152604082019050919050565b6000613f78602f836145bd565b91507f4e6f7420656e6f75676820636f696e7320746f20736574746c6520746865206260008301527f6f6e64206174206d6174757269747900000000000000000000000000000000006020830152604082019050919050565b6000613fde601a836145bd565b91507f4f6e6c79206f776e65722063616e206d696e7420746f6b656e730000000000006000830152602082019050919050565b600061401e601f836145bd565b91507f6e6f7420656e6f75676820636f696e7320666f722074686520616d6f756e74006000830152602082019050919050565b61405a81614758565b82525050565b600061406c828561365a565b9150614078828461365a565b91508190509392505050565b600060208201905061409960008301846135ca565b92915050565b60006040820190506140b460008301856135bb565b6140c16020830184614051565b9392505050565b60006080820190506140dd60008301876135ca565b6140ea60208301866135ca565b6140f76040830185614051565b818103606083015261410981846135e8565b905095945050505050565b600060408201905061412960008301856135ca565b6141366020830184614051565b9392505050565b600060208201905061415260008301846135d9565b92915050565b600060208201905081810360008301526141728184613621565b905092915050565b600060208201905081810360008301526141938161368b565b9050919050565b600060208201905081810360008301526141b3816136cb565b9050919050565b600060208201905081810360008301526141d38161370b565b9050919050565b600060208201905081810360008301526141f381613771565b9050919050565b60006020820190508181036000830152614213816137d7565b9050919050565b600060208201905081810360008301526142338161383d565b9050919050565b600060208201905081810360008301526142538161387d565b9050919050565b60006020820190508181036000830152614273816138e3565b9050919050565b6000602082019050818103600083015261429381613923565b9050919050565b600060208201905081810360008301526142b381613989565b9050919050565b600060208201905081810360008301526142d3816139c9565b9050919050565b600060208201905081810360008301526142f381613a2f565b9050919050565b6000602082019050818103600083015261431381613a95565b9050919050565b6000602082019050818103600083015261433381613ad5565b9050919050565b6000602082019050818103600083015261435381613b15565b9050919050565b6000602082019050818103600083015261437381613b7b565b9050919050565b6000602082019050818103600083015261439381613be1565b9050919050565b600060208201905081810360008301526143b381613c47565b9050919050565b600060208201905081810360008301526143d381613c87565b9050919050565b600060208201905081810360008301526143f381613ced565b9050919050565b6000602082019050818103600083015261441381613d2d565b9050919050565b6000602082019050818103600083015261443381613d93565b9050919050565b6000602082019050818103600083015261445381613df9565b9050919050565b6000602082019050818103600083015261447381613e5f565b9050919050565b6000602082019050818103600083015261449381613ec5565b9050919050565b600060208201905081810360008301526144b381613f05565b9050919050565b600060208201905081810360008301526144d381613f6b565b9050919050565b600060208201905081810360008301526144f381613fd1565b9050919050565b6000602082019050818103600083015261451381614011565b9050919050565b600060208201905061452f6000830184614051565b92915050565b6000604051905081810181811067ffffffffffffffff8211171561455c5761455b614913565b5b8060405250919050565b600067ffffffffffffffff82111561458157614580614913565b5b601f19601f8301169050602081019050919050565b600081519050919050565b600081519050919050565b600082825260208201905092915050565b600082825260208201905092915050565b600081905092915050565b60006145e482614758565b91506145ef83614758565b9250827fffffffffffffffffffffffffffffffffffffffffffffffffffffffffffffffff0382111561462457614623614886565b5b828201905092915050565b600061463a82614758565b915061464583614758565b925082614655576146546148b5565b5b828204905092915050565b600061466b82614758565b915061467683614758565b9250817fffffffffffffffffffffffffffffffffffffffffffffffffffffffffffffffff04831182151516156146af576146ae614886565b5b828202905092915050565b60006146c582614758565b91506146d083614758565b9250828210156146e3576146e2614886565b5b828203905092915050565b60006146f982614738565b9050919050565b60008115159050919050565b60007fffffffff0000000000000000000000000000000000000000000000000000000082169050919050565b600073ffffffffffffffffffffffffffffffffffffffff82169050919050565b6000819050919050565b600061476d82614774565b9050919050565b600061477f82614786565b9050919050565b600061479182614738565b9050919050565b82818337600083830152505050565b60005b838110156147c55780820151818401526020810190506147aa565b838111156147d4576000848401525b50505050565b600060028204905060018216806147f257607f821691505b60208210811415614806576148056148e4565b5b50919050565b600061481782614758565b91507fffffffffffffffffffffffffffffffffffffffffffffffffffffffffffffffff82141561484a57614849614886565b5b600182019050919050565b600061486082614758565b915061486b83614758565b92508261487b5761487a6148b5565b5b828206905092915050565b7f4e487b7100000000000000000000000000000000000000000000000000000000600052601160045260246000fd5b7f4e487b7100000000000000000000000000000000000000000000000000000000600052601260045260246000fd5b7f4e487b7100000000000000000000000000000000000000000000000000000000600052602260045260246000fd5b7f4e487b7100000000000000000000000000000000000000000000000000000000600052604160045260246000fd5b6000601f19601f8301169050919050565b61495c816146ee565b811461496757600080fd5b50565b61497381614700565b811461497e57600080fd5b50565b61498a8161470c565b811461499557600080fd5b50565b6149a181614758565b81146149ac57600080fd5b5056fea26469706673582212206cda991ba8c1fb29a3849ef160ac1b19b461e567f0901c752014571a1813cc2564736f6c63430008000033",
  "immutableReferences": {},
  "source": "// SPDX-License-Identifier: MIT\npragma solidity >=0.6.0;\n\nimport \"@openzeppelin/contracts/token/ERC721/ERC721.sol\";\n//import \"@openzeppelin/contracts/access/AccessControlEnumerable.sol\";\nimport \"@openzeppelin/contracts/access/Ownable.sol\";\nimport \"@openzeppelin/contracts/utils/Counters.sol\";\n\ncontract GreenBond is ERC721, Ownable{\n    using Counters for Counters.Counter;\n\n    string private _baseTokenURI;\n    Counters.Counter private _tokenIdTracker;\n    bool private _paused;\n\n    address [] public _investors;\n\n    address _owner;\n    address payable _company;\n    address _regulator; \n    address _greenVerifier;\n    uint256 _value;\n    uint256 _coupon;\n    uint256 _totalValueRaisedRaised;\n\n    /**\n     * @dev Emitted when an investor registers initial investment request\n     */\n    event Investment(address investor, uint256 value);\n    \n    /**\n     * @dev Emitted when coins are refunded to the investor in case there are\n            too many coins for the investment or to the company if they pay too much \n            with coupons / principal repayment\n     */\n    event CoinRefund(address investor, uint256 value);\n    \n    /**\n     * @dev Emitted when a coupon payment has been made\n     */\n    event CouponPayment(address investor, uint256 tokenId);\n\n    /**\n     * @dev Emitted when the pause is triggered by a pauser (regulator).\n     */\n    event Paused(address account);\n\n    /**\n     * @dev Emitted when the pause is lifted by a pauser (regulator).\n     */\n    event Unpaused(address account);\n\n    /**\n     * @dev Emmitted when coupon payment is adjusted\n     */\n    event CouponAdjustment(address adjuster, uint256 couponRate);\n\n    mapping (address => uint256) _investedAmountPerInvestor;\n    mapping (address => uint256) _requestedTokensPerInvestor;\n\n    //bytes32 public constant MINTER_ROLE = keccak256(\"MINTER_ROLE\");\n    \n    // Will need to add pauser address as constructor parameter (financial regulator)\n    constructor(string memory name, string memory symbol, string memory baseTokenURI, \n    address company, uint256 value, uint256 coupon) ERC721 (name, symbol) {\n        require(coupon >= 0, \"Coupon payment can't be negative\");\n        _owner = msg.sender;\n        _baseTokenURI = baseTokenURI;\n        _company = payable(company);\n        _value = value;\n        _coupon = coupon;\n        _paused = false;\n\n        //_setupRole(MINTER_ROLE, _msgSender());    \n    }\n\n    function setRegulator(address regulator) public onlyOwner {\n        _regulator = regulator;\n    }\n    \n    function setGreenVerifier(address greenVerifier) public onlyOwner {\n        _greenVerifier = greenVerifier;\n    }\n\n    function regulator() public view returns(address) {\n        return _regulator;\n    }\n\n    function greenVerifier() public view returns(address) {\n        return _greenVerifier;\n    }\n\n    function getValue() public view returns(uint256) {\n        return _value;\n    }\n\n    function getCoupon() public view returns(uint256) {\n        return _coupon;\n    }\n\n    function getTotalLoan() public view returns(uint256) {\n        return _totalValueRaisedRaised;\n    }\n\n    function numberOfInvestors() public view returns(uint256) {\n        return _investors.length;\n    }\n    \n    function tokenCount() public view returns(uint256) {\n        return _tokenIdTracker.current();\n    }\n    \n    function getName() public view returns(string memory) {\n        return name();\n    } \n\n    function getInvestorBalance(address investor) public view returns (uint){\n        require(investor != address(0), \"Balance query for the zero address\");\n        return _investedAmountPerInvestor[investor];\n    }\n\n    function _baseURI() internal view override returns (string memory) {\n        return _baseTokenURI;\n    }\n\n    // Needed to override this function as two parent classes defined the same function\n    function supportsInterface(bytes4 interfaceId) public view virtual override(ERC721) returns (bool) {\n        return super.supportsInterface(interfaceId);\n    }\n\n    // Function to register investment interest (requires staking money on the contract)\n    function registerInvestment(uint256 number) public payable {\n        // Require that the investor has enough coins\n        require(msg.value >= number * _value, \"not enough coins for the amount\");\n\n        // Check if investor already on the list\n        if (_investedAmountPerInvestor[msg.sender] == 0) {\n            _investors.push(msg.sender);\n        }\n        \n        // Register the investment\n        uint256 currentAmount = _investedAmountPerInvestor[msg.sender];\n        _investedAmountPerInvestor[msg.sender] = currentAmount + msg.value;\n        _requestedTokensPerInvestor[msg.sender] = number;\n\n        // Emit event\n        emit Investment(msg.sender, msg.value);\n    }\n\n\n    // Function to issue tokens for registered investors\n    // Assumes all investors will get tokens\n    function issueTokens() public {\n        require(msg.sender == _owner, \"Only owner can mint tokens\");\n        //require(hasRole(MINTER_ROLE, _msgSender()), \"Minter must have minter role to mint\");\n\n        // Iterate through each investor\n        for (uint i = 0; i < _investors.length; i++) {\n            address investor = _investors[i];\n            uint256 numberOfTokens = _requestedTokensPerInvestor[investor];\n            _company.transfer(_value * numberOfTokens); \n            \n            // If the invested amount would be greated than the amount needed for investment\n            // Return the remainder back to the investor\n            if (_investedAmountPerInvestor[investor] > numberOfTokens * _value) {\n                payable(investor).transfer(_investedAmountPerInvestor[investor] - numberOfTokens * _value);\n                emit CoinRefund(investor, _investedAmountPerInvestor[investor] - numberOfTokens * _value);\n            }\n\n            // Update the records\n            _investedAmountPerInvestor[investor] = 0;\n            _requestedTokensPerInvestor[investor] = 0;\n            _totalValueRaisedRaised = _totalValueRaisedRaised + _value * numberOfTokens;\n\n            // Issue tokens\n            for (uint j = 0; j < numberOfTokens; j++) {  \n                _mint(investor, _tokenIdTracker.current());\n                _tokenIdTracker.increment();\n            }\n        }\n    }\n    // Requires that the minter has minter role\n    // Automatically creates tokenURI with baseURI concatenated with TokenId\n    function issueTokens(uint256 numberOfTokens, address to) public {\n        require(msg.sender == _owner, \"Only owner can mint tokens\");\n        //require(hasRole(MINTER_ROLE, _msgSender()), \"Minter must have minter role to mint\");\n\n        // Transfer the money to the issuer\n        //require(msg.value >= _value * numberOfTokens, \"Not enough money send for the tokens\");\n        require(_investedAmountPerInvestor[to] >= numberOfTokens * _value, \"Investor has not enough funds for the tokens\");\n        //_company.transfer(msg.value);\n        //_totalValueRaisedRaised = _totalValueRaisedRaised + msg.value;\n\n        // Transfer coins and reduce the investors investment balance\n        _company.transfer(_value * numberOfTokens); \n        _investedAmountPerInvestor[to] = _investedAmountPerInvestor[to] - numberOfTokens * _value;\n        _totalValueRaisedRaised = _totalValueRaisedRaised + numberOfTokens * _value;\n\n        for (uint i = 0; i < numberOfTokens; i++) {  \n            _mint(to, _tokenIdTracker.current());\n            _tokenIdTracker.increment();\n        }\n    }\n\n    // Function for the borrowing company to pay coupons\n    function payCoupons() public payable {\n        // Message needs to have enough value for the copupon payments\n        require(msg.value >= _coupon * _tokenIdTracker.current(), \"Not enough coins for coupons\");\n        for (uint i = 0; i < _tokenIdTracker.current(); i++) {\n            address payable investor = payable(ownerOf(i));\n            investor.transfer(_coupon);\n            emit CouponPayment(investor, i);\n        }\n\n        // Refund extra coins if paid too much\n        if (msg.value > _coupon * _tokenIdTracker.current()) {\n            payable(msg.sender).transfer(msg.value - _coupon * _tokenIdTracker.current());\n        }\n    }\n\n    // This function should be called by the borrowing company\n    function payBackBond() public payable {\n        require(msg.sender == _company, \"Paying company should be the borrowing company\");\n        require(msg.value >= _totalValueRaisedRaised, \"Not enough coins to settle the bond at maturity\");\n        \n        // Interate through the tokens\n        for(uint i = 0; i < _tokenIdTracker.current(); i++) {\n            address payable investor = payable(ownerOf(i));\n            // Transfer token from investor to owner\n            tokenTransfer(investor, _owner, i);\n            // Return funds\n            investor.transfer(_value);\n            // Decrement the values\n            _totalValueRaisedRaised = _totalValueRaisedRaised - _value;\n            _tokenIdTracker.decrement();\n        }\n    }\n\n    /*\n    // Not needed anymore\n    function returnTokensAtMaturity() external onlyOwner {\n        // Check that the contract has the right amount of money to send back to the investors\n        require(address(this).balance >= _totalValueRaisedRaised, \"There's not enough stable coin for settlement\");\n        for(uint i = 0; i < _tokenIdTracker.current(); i++) {\n            address payable investor = payable(ownerOf(i));\n            // Get the tokens back\n            tokenTransfer(investor, owner(), i);\n            // Return the stable coin value\n            investor.transfer(_value);    \n        }\n    }\n\n    */\n    // Internal function to transer the tokens\n    function tokenTransfer(address from, address to, uint256 tokenId) internal {\n        _transfer(from, to, tokenId);\n    }\n\n    // Pauser functions\n    /**\n     * @dev Returns true if the contract is paused, and false otherwise.\n     */\n    function paused() public view returns (bool) {\n        return _paused;\n    }\n\n    /**\n     * @dev Modifier to make a function callable only when the contract is not paused.\n     */\n    modifier whenNotPaused() {\n        require(!_paused, \"Pausable: paused\");\n        _;\n    }\n\n    /**\n     * @dev Modifier to make a function callable only when the contract is paused.\n     */\n    modifier whenPaused() {\n        require(_paused, \"Pausable: not paused\");\n        _;\n    }\n\n    /**\n     * @dev Called by a pauser to pause, triggers stopped state.\n     */\n    function pause() public whenNotPaused {\n        require(msg.sender == _regulator, \"Pauser can only be the regulator\");\n        _paused = true;\n        emit Paused(_msgSender());\n    }\n\n    /**\n     * @dev Called by a pauser to unpause, returns to normal state.\n     */\n    function unpause() public whenPaused {\n        require(msg.sender == _regulator, \"Unpauser can only be the regulator\");\n        _paused = false;\n        emit Unpaused(_msgSender());\n    }\n\n    function adjustCoupon(bool increase, uint256 amount) public {\n        require(msg.sender == _greenVerifier);\n        if (increase){\n            _coupon = _coupon + amount;\n        } else {\n            require(amount <= _coupon, \"Coupon payment can't be negative\");\n            _coupon = _coupon - amount;\n        }\n        emit CouponAdjustment(msg.sender, _coupon);\n    }\n\n}",
  "sourcePath": "/Users/leena/Documents/Coding/Blockchain_Green_Bonds/testProjects/OZ_test/contracts/GreenBond.sol",
  "compiler": {
    "name": "solc",
    "version": "0.8.0+commit.c7dfd78e.Emscripten.clang"
  },
  "schemaVersion": "3.3.4",
  "updatedAt": "2021-07-01T14:21:25.555Z",
  "networkType": "ethereum",
  "devdoc": {
    "events": {
      "CoinRefund(address,uint256)": {
        "details": "Emitted when coins are refunded to the investor in case there are too many coins for the investment or to the company if they pay too much  with coupons / principal repayment"
      },
      "CouponAdjustment(address,uint256)": {
        "details": "Emmitted when coupon payment is adjusted"
      },
      "CouponPayment(address,uint256)": {
        "details": "Emitted when a coupon payment has been made"
      },
      "Investment(address,uint256)": {
        "details": "Emitted when an investor registers initial investment request"
      },
      "Paused(address)": {
        "details": "Emitted when the pause is triggered by a pauser (regulator)."
      },
      "Unpaused(address)": {
        "details": "Emitted when the pause is lifted by a pauser (regulator)."
      }
    },
    "kind": "dev",
    "methods": {
      "approve(address,uint256)": {
        "details": "See {IERC721-approve}."
      },
      "balanceOf(address)": {
        "details": "See {IERC721-balanceOf}."
      },
      "getApproved(uint256)": {
        "details": "See {IERC721-getApproved}."
      },
      "isApprovedForAll(address,address)": {
        "details": "See {IERC721-isApprovedForAll}."
      },
      "name()": {
        "details": "See {IERC721Metadata-name}."
      },
      "owner()": {
        "details": "Returns the address of the current owner."
      },
      "ownerOf(uint256)": {
        "details": "See {IERC721-ownerOf}."
      },
      "pause()": {
        "details": "Called by a pauser to pause, triggers stopped state."
      },
      "paused()": {
        "details": "Returns true if the contract is paused, and false otherwise."
      },
      "renounceOwnership()": {
        "details": "Leaves the contract without owner. It will not be possible to call `onlyOwner` functions anymore. Can only be called by the current owner. NOTE: Renouncing ownership will leave the contract without an owner, thereby removing any functionality that is only available to the owner."
      },
      "safeTransferFrom(address,address,uint256)": {
        "details": "See {IERC721-safeTransferFrom}."
      },
      "safeTransferFrom(address,address,uint256,bytes)": {
        "details": "See {IERC721-safeTransferFrom}."
      },
      "setApprovalForAll(address,bool)": {
        "details": "See {IERC721-setApprovalForAll}."
      },
      "supportsInterface(bytes4)": {
        "details": "See {IERC165-supportsInterface}."
      },
      "symbol()": {
        "details": "See {IERC721Metadata-symbol}."
      },
      "tokenURI(uint256)": {
        "details": "See {IERC721Metadata-tokenURI}."
      },
      "transferFrom(address,address,uint256)": {
        "details": "See {IERC721-transferFrom}."
      },
      "transferOwnership(address)": {
        "details": "Transfers ownership of the contract to a new account (`newOwner`). Can only be called by the current owner."
      },
      "unpause()": {
        "details": "Called by a pauser to unpause, returns to normal state."
      }
    },
    "version": 1
  },
  "userdoc": {
    "kind": "user",
    "methods": {},
    "version": 1
  }
}