{
  "contractName": "GreenCertifier",
  "abi": [
    {
      "inputs": [],
      "stateMutability": "nonpayable",
      "type": "constructor"
    },
    {
      "anonymous": false,
      "inputs": [
        {
          "indexed": false,
          "internalType": "contract GreenCertificate",
          "name": "certificate",
          "type": "address"
        }
      ],
      "name": "CompanyCertification",
      "type": "event"
    },
    {
      "anonymous": false,
      "inputs": [
        {
          "indexed": false,
          "internalType": "address",
          "name": "company",
          "type": "address"
        },
        {
          "indexed": false,
          "internalType": "string",
          "name": "project",
          "type": "string"
        }
      ],
      "name": "ProjectCertification",
      "type": "event"
    },
    {
      "inputs": [
        {
          "internalType": "address",
          "name": "",
          "type": "address"
        }
      ],
      "name": "_certifiedCompanies",
      "outputs": [
        {
          "internalType": "bool",
          "name": "",
          "type": "bool"
        }
      ],
      "stateMutability": "view",
      "type": "function"
    },
    {
      "inputs": [
        {
          "internalType": "address",
          "name": "",
          "type": "address"
        }
      ],
      "name": "_greenCertificates",
      "outputs": [
        {
          "internalType": "contract GreenCertificate",
          "name": "",
          "type": "address"
        }
      ],
      "stateMutability": "view",
      "type": "function"
    },
    {
      "inputs": [],
      "name": "_owner",
      "outputs": [
        {
          "internalType": "address",
          "name": "",
          "type": "address"
        }
      ],
      "stateMutability": "view",
      "type": "function"
    },
    {
      "inputs": [
        {
          "internalType": "address",
          "name": "company",
          "type": "address"
        },
        {
          "internalType": "string",
          "name": "project",
          "type": "string"
        }
      ],
      "name": "createCertificate",
      "outputs": [],
      "stateMutability": "nonpayable",
      "type": "function"
    },
    {
      "inputs": [
        {
          "internalType": "address",
          "name": "company",
          "type": "address"
        },
        {
          "internalType": "string",
          "name": "project",
          "type": "string"
        }
      ],
      "name": "isCertified",
      "outputs": [
        {
          "internalType": "bool",
          "name": "",
          "type": "bool"
        }
      ],
      "stateMutability": "view",
      "type": "function"
    }
  ],
  "bytecode": "0x608060405234801561001057600080fd5b50336000806101000a81548173ffffffffffffffffffffffffffffffffffffffff021916908373ffffffffffffffffffffffffffffffffffffffff1602179055506114b9806100606000396000f3fe608060405234801561001057600080fd5b50600436106100565760003560e01c8062896eee1461005b5780635a3987fe146100775780636b3b848a146100a7578063b2bdfa7b146100d7578063f755de72146100f5575b600080fd5b610075600480360381019061007091906106ed565b610125565b005b610091600480360381019061008c91906106c4565b61042a565b60405161009e9190610876565b60405180910390f35b6100c160048036038101906100bc91906106ed565b61045d565b6040516100ce919061085b565b60405180910390f35b6100df6105e1565b6040516100ec9190610810565b60405180910390f35b61010f600480360381019061010a91906106c4565b610605565b60405161011c919061085b565b60405180910390f35b60008054906101000a900473ffffffffffffffffffffffffffffffffffffffff1673ffffffffffffffffffffffffffffffffffffffff163373ffffffffffffffffffffffffffffffffffffffff161461017d57600080fd5b60001515600260008473ffffffffffffffffffffffffffffffffffffffff1673ffffffffffffffffffffffffffffffffffffffff16815260200190815260200160002060009054906101000a900460ff161515141561031d576000826040516101e590610625565b6101ef9190610810565b604051809103906000f08015801561020b573d6000803e3d6000fd5b5090506001600260008573ffffffffffffffffffffffffffffffffffffffff1673ffffffffffffffffffffffffffffffffffffffff16815260200190815260200160002060006101000a81548160ff02191690831515021790555080600160008573ffffffffffffffffffffffffffffffffffffffff1673ffffffffffffffffffffffffffffffffffffffff16815260200190815260200160002060006101000a81548173ffffffffffffffffffffffffffffffffffffffff021916908373ffffffffffffffffffffffffffffffffffffffff1602179055507fd74aba97929f9c483acd3c361751a46ee8ef31b85336dec91f503d695dab6df1816040516103139190610876565b60405180910390a1505b6000600160008473ffffffffffffffffffffffffffffffffffffffff1673ffffffffffffffffffffffffffffffffffffffff16815260200190815260200160002060009054906101000a900473ffffffffffffffffffffffffffffffffffffffff1690508073ffffffffffffffffffffffffffffffffffffffff16630ed047d4836040518263ffffffff1660e01b81526004016103ba9190610891565b600060405180830381600087803b1580156103d457600080fd5b505af11580156103e8573d6000803e3d6000fd5b505050507f7290139a1d883a1284fc3550b1ca8c453f0520aa22089656d30587b014cb69fb838360405161041d92919061082b565b60405180910390a1505050565b60016020528060005260406000206000915054906101000a900473ffffffffffffffffffffffffffffffffffffffff1681565b6000600260008473ffffffffffffffffffffffffffffffffffffffff1673ffffffffffffffffffffffffffffffffffffffff16815260200190815260200160002060009054906101000a900460ff166104eb576040517f08c379a00000000000000000000000000000000000000000000000000000000081526004016104e2906108b3565b60405180910390fd5b6000600160008573ffffffffffffffffffffffffffffffffffffffff1673ffffffffffffffffffffffffffffffffffffffff16815260200190815260200160002060009054906101000a900473ffffffffffffffffffffffffffffffffffffffff1690508073ffffffffffffffffffffffffffffffffffffffff1663ffa67370846040518263ffffffff1660e01b81526004016105889190610891565b60206040518083038186803b1580156105a057600080fd5b505afa1580156105b4573d6000803e3d6000fd5b505050506040513d601f19601f820116820180604052508101906105d89190610741565b91505092915050565b60008054906101000a900473ffffffffffffffffffffffffffffffffffffffff1681565b60026020528060005260406000206000915054906101000a900460ff1681565b610a2180610a6383390190565b600061064561064084610904565b6108d3565b90508281526020810184848401111561065d57600080fd5b6106688482856109b2565b509392505050565b60008135905061067f81610a34565b92915050565b60008151905061069481610a4b565b92915050565b600082601f8301126106ab57600080fd5b81356106bb848260208601610632565b91505092915050565b6000602082840312156106d657600080fd5b60006106e484828501610670565b91505092915050565b6000806040838503121561070057600080fd5b600061070e85828601610670565b925050602083013567ffffffffffffffff81111561072b57600080fd5b6107378582860161069a565b9150509250929050565b60006020828403121561075357600080fd5b600061076184828501610685565b91505092915050565b61077381610950565b82525050565b61078281610962565b82525050565b6107918161098e565b82525050565b60006107a282610934565b6107ac818561093f565b93506107bc8185602086016109c1565b6107c581610a23565b840191505092915050565b60006107dd60188361093f565b91507f436f6d70616e79206973206e6f742063657274696669656400000000000000006000830152602082019050919050565b6000602082019050610825600083018461076a565b92915050565b6000604082019050610840600083018561076a565b81810360208301526108528184610797565b90509392505050565b60006020820190506108706000830184610779565b92915050565b600060208201905061088b6000830184610788565b92915050565b600060208201905081810360008301526108ab8184610797565b905092915050565b600060208201905081810360008301526108cc816107d0565b9050919050565b6000604051905081810181811067ffffffffffffffff821117156108fa576108f96109f4565b5b8060405250919050565b600067ffffffffffffffff82111561091f5761091e6109f4565b5b601f19601f8301169050602081019050919050565b600081519050919050565b600082825260208201905092915050565b600061095b8261096e565b9050919050565b60008115159050919050565b600073ffffffffffffffffffffffffffffffffffffffff82169050919050565b6000610999826109a0565b9050919050565b60006109ab8261096e565b9050919050565b82818337600083830152505050565b60005b838110156109df5780820151818401526020810190506109c4565b838111156109ee576000848401525b50505050565b7f4e487b7100000000000000000000000000000000000000000000000000000000600052604160045260246000fd5b6000601f19601f8301169050919050565b610a3d81610950565b8114610a4857600080fd5b50565b610a5481610962565b8114610a5f57600080fd5b5056fe608060405234801561001057600080fd5b50604051610a21380380610a21833981810160405281019061003291906100ce565b80600160006101000a81548173ffffffffffffffffffffffffffffffffffffffff021916908373ffffffffffffffffffffffffffffffffffffffff160217905550336000806101000a81548173ffffffffffffffffffffffffffffffffffffffff021916908373ffffffffffffffffffffffffffffffffffffffff16021790555050610140565b6000815190506100c881610129565b92915050565b6000602082840312156100e057600080fd5b60006100ee848285016100b9565b91505092915050565b600061010282610109565b9050919050565b600073ffffffffffffffffffffffffffffffffffffffff82169050919050565b610132816100f7565b811461013d57600080fd5b50565b6108d28061014f6000396000f3fe608060405234801561001057600080fd5b50600436106100885760003560e01c8063abb2c89e1161005b578063abb2c89e14610101578063b13564881461011d578063b2bdfa7b1461013b578063ffa673701461015957610088565b80630ed047d41461008d578063127810bc146100a9578063195199f6146100c7578063a4e2a16e146100e3575b600080fd5b6100a760048036038101906100a291906104f2565b610189565b005b6100b1610254565b6040516100be9190610670565b60405180910390f35b6100e160048036038101906100dc9190610533565b61027e565b005b6100eb610323565b6040516100f89190610670565b60405180910390f35b61011b600480360381019061011691906104f2565b610349565b005b610125610412565b6040516101329190610718565b60405180910390f35b61014361041c565b6040516101509190610670565b60405180910390f35b610173600480360381019061016e91906104f2565b610440565b604051610180919061068b565b60405180910390f35b60008054906101000a900473ffffffffffffffffffffffffffffffffffffffff1673ffffffffffffffffffffffffffffffffffffffff163373ffffffffffffffffffffffffffffffffffffffff16146101e157600080fd5b60016003826040516101f39190610659565b908152602001604051809103902060006101000a81548160ff0219169083151502179055507fc3a59c359d661d36347756321a82bedb654fea0beb523f9ae032f5c31190aefa81426040516102499291906106c8565b60405180910390a150565b6000600160009054906101000a900473ffffffffffffffffffffffffffffffffffffffff16905090565b60008054906101000a900473ffffffffffffffffffffffffffffffffffffffff1673ffffffffffffffffffffffffffffffffffffffff163373ffffffffffffffffffffffffffffffffffffffff16146102d657600080fd5b42811015610319576040517f08c379a0000000000000000000000000000000000000000000000000000000008152600401610310906106f8565b60405180910390fd5b8060028190555050565b600160009054906101000a900473ffffffffffffffffffffffffffffffffffffffff1681565b60008054906101000a900473ffffffffffffffffffffffffffffffffffffffff1673ffffffffffffffffffffffffffffffffffffffff163373ffffffffffffffffffffffffffffffffffffffff16146103a157600080fd5b60006003826040516103b39190610659565b908152602001604051809103902060006101000a81548160ff0219169083151502179055507fe38cb434cb7b037ee92b51fc4e5c80fd2986d179adfd3c2537d5a886e537b62f8160405161040791906106a6565b60405180910390a150565b6000600254905090565b60008054906101000a900473ffffffffffffffffffffffffffffffffffffffff1681565b60006003826040516104529190610659565b908152602001604051809103902060009054906101000a900460ff169050919050565b600061048861048384610764565b610733565b9050828152602081018484840111156104a057600080fd5b6104ab848285610803565b509392505050565b600082601f8301126104c457600080fd5b81356104d4848260208601610475565b91505092915050565b6000813590506104ec81610885565b92915050565b60006020828403121561050457600080fd5b600082013567ffffffffffffffff81111561051e57600080fd5b61052a848285016104b3565b91505092915050565b60006020828403121561054557600080fd5b6000610553848285016104dd565b91505092915050565b610565816107bb565b82525050565b610574816107cd565b82525050565b600061058582610794565b61058f818561079f565b935061059f818560208601610812565b6105a881610874565b840191505092915050565b60006105be82610794565b6105c881856107b0565b93506105d8818560208601610812565b80840191505092915050565b60006105f160248361079f565b91507f446561646c696e652074696d65206973206265666f72652063757272656e742060008301527f74696d65000000000000000000000000000000000000000000000000000000006020830152604082019050919050565b610653816107f9565b82525050565b600061066582846105b3565b915081905092915050565b6000602082019050610685600083018461055c565b92915050565b60006020820190506106a0600083018461056b565b92915050565b600060208201905081810360008301526106c0818461057a565b905092915050565b600060408201905081810360008301526106e2818561057a565b90506106f1602083018461064a565b9392505050565b60006020820190508181036000830152610711816105e4565b9050919050565b600060208201905061072d600083018461064a565b92915050565b6000604051905081810181811067ffffffffffffffff8211171561075a57610759610845565b5b8060405250919050565b600067ffffffffffffffff82111561077f5761077e610845565b5b601f19601f8301169050602081019050919050565b600081519050919050565b600082825260208201905092915050565b600081905092915050565b60006107c6826107d9565b9050919050565b60008115159050919050565b600073ffffffffffffffffffffffffffffffffffffffff82169050919050565b6000819050919050565b82818337600083830152505050565b60005b83811015610830578082015181840152602081019050610815565b8381111561083f576000848401525b50505050565b7f4e487b7100000000000000000000000000000000000000000000000000000000600052604160045260246000fd5b6000601f19601f8301169050919050565b61088e816107f9565b811461089957600080fd5b5056fea26469706673582212203f1c47e4da53492a6abc8ad1a6b91d10f40e0739c984b5d1a64566b64b21f67364736f6c63430008000033a2646970667358221220b8ab771c7c24bb62f5161375afb3bf3139fe7a71bdb437598ed046859878d51264736f6c63430008000033",
  "immutableReferences": {},
  "source": "// SPDX-License-Identifier: MIT\npragma solidity >=0.6.0;\n\nimport \"./GreenCertificate.sol\";\nimport \"@openzeppelin/contracts/utils/Address.sol\";\n\ncontract GreenCertifier {\n    using Address for address;\n\n    // Event to be emmitted when a company certificate is created\n    event CompanyCertification(GreenCertificate certificate);\n\n    // Event to be emmitted when a project is added\n    event ProjectCertification(address company, string project);\n\n\n    // Owner of this contract\n    address public _owner;\n\n\n    // function modifier\n    modifier onlyOwner() {\n        require(msg.sender == _owner);\n        _;\n    }\n\n    // Maps company address to a green certificate\n    mapping(address => GreenCertificate) public _greenCertificates;\n    mapping(address => bool) public _certifiedCompanies;\n    // Two options for mapping\n    //mapping (uint256 => GreenCertificate) private _greenCertificates;\n    //mapping (uint256 => address) private _greenCertificates;\n\n    constructor() {\n        _owner = msg.sender;\n    }\n\n    function createCertificate(address company, string memory project) external onlyOwner {\n        // Create certificate for the company if it already does not exist\n        if(_certifiedCompanies[company] == false) {\n            // Create certificate\n            GreenCertificate newCertificate = new GreenCertificate(company);\n            _certifiedCompanies[company] = true;\n            _greenCertificates[company] = newCertificate;\n\n            // Create an event\n            emit CompanyCertification(newCertificate);\n        } \n\n        // Add project to the list\n        GreenCertificate certificate = _greenCertificates[company];\n        certificate.addProject(project);   \n        emit ProjectCertification(company, project);      \n    }\n\n    function isCertified(address company, string memory project) public view returns(bool) {\n        require(_certifiedCompanies[company], \"Company is not certified\");\n        GreenCertificate certificate = _greenCertificates[company];\n        return certificate.isCertifiedProject(project);\n    }\n}\n\n",
  "sourcePath": "/Users/leena/Documents/Coding/Blockchain_Green_Bonds/testProjects/OZ_test/contracts/GreenCertifier.sol",
  "compiler": {
    "name": "solc",
    "version": "0.8.0+commit.c7dfd78e.Emscripten.clang"
  },
  "schemaVersion": "3.3.4",
  "updatedAt": "2021-07-08T10:57:27.961Z",
  "networkType": "ethereum",
  "devdoc": {
    "kind": "dev",
    "methods": {},
    "version": 1
  },
  "userdoc": {
    "kind": "user",
    "methods": {},
    "version": 1
  }
}