{
  "contractName": "GreenBond",
  "abi": [
    {
      "inputs": [
        {
          "internalType": "string",
          "name": "name",
          "type": "string"
        },
        {
          "internalType": "string",
          "name": "symbol",
          "type": "string"
        },
        {
          "internalType": "string",
          "name": "baseTokenURI",
          "type": "string"
        },
        {
          "internalType": "address",
          "name": "company",
          "type": "address"
        },
        {
          "internalType": "uint256",
          "name": "value",
          "type": "uint256"
        },
        {
          "internalType": "uint256",
          "name": "coupon",
          "type": "uint256"
        }
      ],
      "stateMutability": "nonpayable",
      "type": "constructor"
    },
    {
      "anonymous": false,
      "inputs": [
        {
          "indexed": true,
          "internalType": "address",
          "name": "owner",
          "type": "address"
        },
        {
          "indexed": true,
          "internalType": "address",
          "name": "approved",
          "type": "address"
        },
        {
          "indexed": true,
          "internalType": "uint256",
          "name": "tokenId",
          "type": "uint256"
        }
      ],
      "name": "Approval",
      "type": "event"
    },
    {
      "anonymous": false,
      "inputs": [
        {
          "indexed": true,
          "internalType": "address",
          "name": "owner",
          "type": "address"
        },
        {
          "indexed": true,
          "internalType": "address",
          "name": "operator",
          "type": "address"
        },
        {
          "indexed": false,
          "internalType": "bool",
          "name": "approved",
          "type": "bool"
        }
      ],
      "name": "ApprovalForAll",
      "type": "event"
    },
    {
      "anonymous": false,
      "inputs": [
        {
          "indexed": false,
          "internalType": "address",
          "name": "investor",
          "type": "address"
        },
        {
          "indexed": false,
          "internalType": "uint256",
          "name": "value",
          "type": "uint256"
        }
      ],
      "name": "CoinRefund",
      "type": "event"
    },
    {
      "anonymous": false,
      "inputs": [
        {
          "indexed": false,
          "internalType": "address",
          "name": "adjuster",
          "type": "address"
        },
        {
          "indexed": false,
          "internalType": "uint256",
          "name": "couponRate",
          "type": "uint256"
        }
      ],
      "name": "CouponAdjustment",
      "type": "event"
    },
    {
      "anonymous": false,
      "inputs": [
        {
          "indexed": false,
          "internalType": "address",
          "name": "investor",
          "type": "address"
        },
        {
          "indexed": false,
          "internalType": "uint256",
          "name": "tokenId",
          "type": "uint256"
        }
      ],
      "name": "CouponPayment",
      "type": "event"
    },
    {
      "anonymous": false,
      "inputs": [
        {
          "indexed": false,
          "internalType": "address",
          "name": "investor",
          "type": "address"
        },
        {
          "indexed": false,
          "internalType": "uint256",
          "name": "value",
          "type": "uint256"
        }
      ],
      "name": "Investment",
      "type": "event"
    },
    {
      "anonymous": false,
      "inputs": [
        {
          "indexed": true,
          "internalType": "address",
          "name": "previousOwner",
          "type": "address"
        },
        {
          "indexed": true,
          "internalType": "address",
          "name": "newOwner",
          "type": "address"
        }
      ],
      "name": "OwnershipTransferred",
      "type": "event"
    },
    {
      "anonymous": false,
      "inputs": [
        {
          "indexed": false,
          "internalType": "address",
          "name": "account",
          "type": "address"
        }
      ],
      "name": "Paused",
      "type": "event"
    },
    {
      "anonymous": false,
      "inputs": [
        {
          "indexed": true,
          "internalType": "bytes32",
          "name": "role",
          "type": "bytes32"
        },
        {
          "indexed": true,
          "internalType": "bytes32",
          "name": "previousAdminRole",
          "type": "bytes32"
        },
        {
          "indexed": true,
          "internalType": "bytes32",
          "name": "newAdminRole",
          "type": "bytes32"
        }
      ],
      "name": "RoleAdminChanged",
      "type": "event"
    },
    {
      "anonymous": false,
      "inputs": [
        {
          "indexed": true,
          "internalType": "bytes32",
          "name": "role",
          "type": "bytes32"
        },
        {
          "indexed": true,
          "internalType": "address",
          "name": "account",
          "type": "address"
        },
        {
          "indexed": true,
          "internalType": "address",
          "name": "sender",
          "type": "address"
        }
      ],
      "name": "RoleGranted",
      "type": "event"
    },
    {
      "anonymous": false,
      "inputs": [
        {
          "indexed": true,
          "internalType": "bytes32",
          "name": "role",
          "type": "bytes32"
        },
        {
          "indexed": true,
          "internalType": "address",
          "name": "account",
          "type": "address"
        },
        {
          "indexed": true,
          "internalType": "address",
          "name": "sender",
          "type": "address"
        }
      ],
      "name": "RoleRevoked",
      "type": "event"
    },
    {
      "anonymous": false,
      "inputs": [
        {
          "indexed": true,
          "internalType": "address",
          "name": "from",
          "type": "address"
        },
        {
          "indexed": true,
          "internalType": "address",
          "name": "to",
          "type": "address"
        },
        {
          "indexed": true,
          "internalType": "uint256",
          "name": "tokenId",
          "type": "uint256"
        }
      ],
      "name": "Transfer",
      "type": "event"
    },
    {
      "anonymous": false,
      "inputs": [
        {
          "indexed": false,
          "internalType": "address",
          "name": "account",
          "type": "address"
        }
      ],
      "name": "Unpaused",
      "type": "event"
    },
    {
      "inputs": [],
      "name": "DEFAULT_ADMIN_ROLE",
      "outputs": [
        {
          "internalType": "bytes32",
          "name": "",
          "type": "bytes32"
        }
      ],
      "stateMutability": "view",
      "type": "function",
      "constant": true
    },
    {
      "inputs": [],
      "name": "MINTER_ROLE",
      "outputs": [
        {
          "internalType": "bytes32",
          "name": "",
          "type": "bytes32"
        }
      ],
      "stateMutability": "view",
      "type": "function",
      "constant": true
    },
    {
      "inputs": [
        {
          "internalType": "uint256",
          "name": "",
          "type": "uint256"
        }
      ],
      "name": "_investors",
      "outputs": [
        {
          "internalType": "address",
          "name": "",
          "type": "address"
        }
      ],
      "stateMutability": "view",
      "type": "function",
      "constant": true
    },
    {
      "inputs": [
        {
          "internalType": "address",
          "name": "to",
          "type": "address"
        },
        {
          "internalType": "uint256",
          "name": "tokenId",
          "type": "uint256"
        }
      ],
      "name": "approve",
      "outputs": [],
      "stateMutability": "nonpayable",
      "type": "function"
    },
    {
      "inputs": [
        {
          "internalType": "address",
          "name": "owner",
          "type": "address"
        }
      ],
      "name": "balanceOf",
      "outputs": [
        {
          "internalType": "uint256",
          "name": "",
          "type": "uint256"
        }
      ],
      "stateMutability": "view",
      "type": "function",
      "constant": true
    },
    {
      "inputs": [
        {
          "internalType": "uint256",
          "name": "tokenId",
          "type": "uint256"
        }
      ],
      "name": "getApproved",
      "outputs": [
        {
          "internalType": "address",
          "name": "",
          "type": "address"
        }
      ],
      "stateMutability": "view",
      "type": "function",
      "constant": true
    },
    {
      "inputs": [
        {
          "internalType": "bytes32",
          "name": "role",
          "type": "bytes32"
        }
      ],
      "name": "getRoleAdmin",
      "outputs": [
        {
          "internalType": "bytes32",
          "name": "",
          "type": "bytes32"
        }
      ],
      "stateMutability": "view",
      "type": "function",
      "constant": true
    },
    {
      "inputs": [
        {
          "internalType": "bytes32",
          "name": "role",
          "type": "bytes32"
        },
        {
          "internalType": "uint256",
          "name": "index",
          "type": "uint256"
        }
      ],
      "name": "getRoleMember",
      "outputs": [
        {
          "internalType": "address",
          "name": "",
          "type": "address"
        }
      ],
      "stateMutability": "view",
      "type": "function",
      "constant": true
    },
    {
      "inputs": [
        {
          "internalType": "bytes32",
          "name": "role",
          "type": "bytes32"
        }
      ],
      "name": "getRoleMemberCount",
      "outputs": [
        {
          "internalType": "uint256",
          "name": "",
          "type": "uint256"
        }
      ],
      "stateMutability": "view",
      "type": "function",
      "constant": true
    },
    {
      "inputs": [
        {
          "internalType": "bytes32",
          "name": "role",
          "type": "bytes32"
        },
        {
          "internalType": "address",
          "name": "account",
          "type": "address"
        }
      ],
      "name": "grantRole",
      "outputs": [],
      "stateMutability": "nonpayable",
      "type": "function"
    },
    {
      "inputs": [
        {
          "internalType": "bytes32",
          "name": "role",
          "type": "bytes32"
        },
        {
          "internalType": "address",
          "name": "account",
          "type": "address"
        }
      ],
      "name": "hasRole",
      "outputs": [
        {
          "internalType": "bool",
          "name": "",
          "type": "bool"
        }
      ],
      "stateMutability": "view",
      "type": "function",
      "constant": true
    },
    {
      "inputs": [
        {
          "internalType": "address",
          "name": "owner",
          "type": "address"
        },
        {
          "internalType": "address",
          "name": "operator",
          "type": "address"
        }
      ],
      "name": "isApprovedForAll",
      "outputs": [
        {
          "internalType": "bool",
          "name": "",
          "type": "bool"
        }
      ],
      "stateMutability": "view",
      "type": "function",
      "constant": true
    },
    {
      "inputs": [],
      "name": "name",
      "outputs": [
        {
          "internalType": "string",
          "name": "",
          "type": "string"
        }
      ],
      "stateMutability": "view",
      "type": "function",
      "constant": true
    },
    {
      "inputs": [],
      "name": "owner",
      "outputs": [
        {
          "internalType": "address",
          "name": "",
          "type": "address"
        }
      ],
      "stateMutability": "view",
      "type": "function",
      "constant": true
    },
    {
      "inputs": [
        {
          "internalType": "uint256",
          "name": "tokenId",
          "type": "uint256"
        }
      ],
      "name": "ownerOf",
      "outputs": [
        {
          "internalType": "address",
          "name": "",
          "type": "address"
        }
      ],
      "stateMutability": "view",
      "type": "function",
      "constant": true
    },
    {
      "inputs": [],
      "name": "renounceOwnership",
      "outputs": [],
      "stateMutability": "nonpayable",
      "type": "function"
    },
    {
      "inputs": [
        {
          "internalType": "bytes32",
          "name": "role",
          "type": "bytes32"
        },
        {
          "internalType": "address",
          "name": "account",
          "type": "address"
        }
      ],
      "name": "renounceRole",
      "outputs": [],
      "stateMutability": "nonpayable",
      "type": "function"
    },
    {
      "inputs": [
        {
          "internalType": "bytes32",
          "name": "role",
          "type": "bytes32"
        },
        {
          "internalType": "address",
          "name": "account",
          "type": "address"
        }
      ],
      "name": "revokeRole",
      "outputs": [],
      "stateMutability": "nonpayable",
      "type": "function"
    },
    {
      "inputs": [
        {
          "internalType": "address",
          "name": "from",
          "type": "address"
        },
        {
          "internalType": "address",
          "name": "to",
          "type": "address"
        },
        {
          "internalType": "uint256",
          "name": "tokenId",
          "type": "uint256"
        }
      ],
      "name": "safeTransferFrom",
      "outputs": [],
      "stateMutability": "nonpayable",
      "type": "function"
    },
    {
      "inputs": [
        {
          "internalType": "address",
          "name": "from",
          "type": "address"
        },
        {
          "internalType": "address",
          "name": "to",
          "type": "address"
        },
        {
          "internalType": "uint256",
          "name": "tokenId",
          "type": "uint256"
        },
        {
          "internalType": "bytes",
          "name": "_data",
          "type": "bytes"
        }
      ],
      "name": "safeTransferFrom",
      "outputs": [],
      "stateMutability": "nonpayable",
      "type": "function"
    },
    {
      "inputs": [
        {
          "internalType": "address",
          "name": "operator",
          "type": "address"
        },
        {
          "internalType": "bool",
          "name": "approved",
          "type": "bool"
        }
      ],
      "name": "setApprovalForAll",
      "outputs": [],
      "stateMutability": "nonpayable",
      "type": "function"
    },
    {
      "inputs": [],
      "name": "symbol",
      "outputs": [
        {
          "internalType": "string",
          "name": "",
          "type": "string"
        }
      ],
      "stateMutability": "view",
      "type": "function",
      "constant": true
    },
    {
      "inputs": [
        {
          "internalType": "uint256",
          "name": "tokenId",
          "type": "uint256"
        }
      ],
      "name": "tokenURI",
      "outputs": [
        {
          "internalType": "string",
          "name": "",
          "type": "string"
        }
      ],
      "stateMutability": "view",
      "type": "function",
      "constant": true
    },
    {
      "inputs": [
        {
          "internalType": "address",
          "name": "from",
          "type": "address"
        },
        {
          "internalType": "address",
          "name": "to",
          "type": "address"
        },
        {
          "internalType": "uint256",
          "name": "tokenId",
          "type": "uint256"
        }
      ],
      "name": "transferFrom",
      "outputs": [],
      "stateMutability": "nonpayable",
      "type": "function"
    },
    {
      "inputs": [
        {
          "internalType": "address",
          "name": "newOwner",
          "type": "address"
        }
      ],
      "name": "transferOwnership",
      "outputs": [],
      "stateMutability": "nonpayable",
      "type": "function"
    },
    {
      "inputs": [],
      "name": "getValue",
      "outputs": [
        {
          "internalType": "uint256",
          "name": "",
          "type": "uint256"
        }
      ],
      "stateMutability": "view",
      "type": "function",
      "constant": true
    },
    {
      "inputs": [],
      "name": "getCoupon",
      "outputs": [
        {
          "internalType": "uint256",
          "name": "",
          "type": "uint256"
        }
      ],
      "stateMutability": "view",
      "type": "function",
      "constant": true
    },
    {
      "inputs": [],
      "name": "numberOfInvestors",
      "outputs": [
        {
          "internalType": "uint256",
          "name": "",
          "type": "uint256"
        }
      ],
      "stateMutability": "view",
      "type": "function",
      "constant": true
    },
    {
      "inputs": [],
      "name": "tokenCount",
      "outputs": [
        {
          "internalType": "uint256",
          "name": "",
          "type": "uint256"
        }
      ],
      "stateMutability": "view",
      "type": "function",
      "constant": true
    },
    {
      "inputs": [],
      "name": "getName",
      "outputs": [
        {
          "internalType": "string",
          "name": "",
          "type": "string"
        }
      ],
      "stateMutability": "view",
      "type": "function",
      "constant": true
    },
    {
      "inputs": [
        {
          "internalType": "address",
          "name": "regulator",
          "type": "address"
        }
      ],
      "name": "setRegulator",
      "outputs": [],
      "stateMutability": "nonpayable",
      "type": "function"
    },
    {
      "inputs": [
        {
          "internalType": "address",
          "name": "greenVerifier",
          "type": "address"
        }
      ],
      "name": "setGreenVerifier",
      "outputs": [],
      "stateMutability": "nonpayable",
      "type": "function"
    },
    {
      "inputs": [
        {
          "internalType": "address",
          "name": "investor",
          "type": "address"
        }
      ],
      "name": "getInvestorBalance",
      "outputs": [
        {
          "internalType": "uint256",
          "name": "",
          "type": "uint256"
        }
      ],
      "stateMutability": "view",
      "type": "function",
      "constant": true
    },
    {
      "inputs": [
        {
          "internalType": "bytes4",
          "name": "interfaceId",
          "type": "bytes4"
        }
      ],
      "name": "supportsInterface",
      "outputs": [
        {
          "internalType": "bool",
          "name": "",
          "type": "bool"
        }
      ],
      "stateMutability": "view",
      "type": "function",
      "constant": true
    },
    {
      "inputs": [
        {
          "internalType": "uint256",
          "name": "number",
          "type": "uint256"
        }
      ],
      "name": "registerInvestment",
      "outputs": [],
      "stateMutability": "payable",
      "type": "function",
      "payable": true
    },
    {
      "inputs": [],
      "name": "issueTokens",
      "outputs": [],
      "stateMutability": "nonpayable",
      "type": "function"
    },
    {
      "inputs": [
        {
          "internalType": "uint256",
          "name": "numberOfTokens",
          "type": "uint256"
        },
        {
          "internalType": "address",
          "name": "to",
          "type": "address"
        }
      ],
      "name": "issueTokens",
      "outputs": [],
      "stateMutability": "payable",
      "type": "function",
      "payable": true
    },
    {
      "inputs": [],
      "name": "payCoupons",
      "outputs": [],
      "stateMutability": "payable",
      "type": "function",
      "payable": true
    },
    {
      "inputs": [],
      "name": "payBackBond",
      "outputs": [],
      "stateMutability": "payable",
      "type": "function",
      "payable": true
    },
    {
      "inputs": [],
      "name": "returnTokensAtMaturity",
      "outputs": [],
      "stateMutability": "nonpayable",
      "type": "function"
    },
    {
      "inputs": [],
      "name": "paused",
      "outputs": [
        {
          "internalType": "bool",
          "name": "",
          "type": "bool"
        }
      ],
      "stateMutability": "view",
      "type": "function",
      "constant": true
    },
    {
      "inputs": [],
      "name": "pause",
      "outputs": [],
      "stateMutability": "nonpayable",
      "type": "function"
    },
    {
      "inputs": [],
      "name": "unpause",
      "outputs": [],
      "stateMutability": "nonpayable",
      "type": "function"
    },
    {
      "inputs": [
        {
          "internalType": "bool",
          "name": "increase",
          "type": "bool"
        },
        {
          "internalType": "uint256",
          "name": "amount",
          "type": "uint256"
        }
      ],
      "name": "adjustCoupon",
      "outputs": [],
      "stateMutability": "nonpayable",
      "type": "function"
    }
  ],
  "bytecode": "0x60806040523480156200001157600080fd5b50604051620064b8380380620064b883398181016040528101906200003791906200065e565b85858160009080519060200190620000519291906200050e565b5080600190805190602001906200006a9291906200050e565b50505060006200007f6200027660201b60201c565b905080600860006101000a81548173ffffffffffffffffffffffffffffffffffffffff021916908373ffffffffffffffffffffffffffffffffffffffff1602179055508073ffffffffffffffffffffffffffffffffffffffff16600073ffffffffffffffffffffffffffffffffffffffff167f8be0079c531659141344cd1fd0a4f28419497f9722a3daafe3b4186f6b6457e060405160405180910390a350600081101562000165576040517f08c379a00000000000000000000000000000000000000000000000000000000081526004016200015c9062000781565b60405180910390fd5b33600d60006101000a81548173ffffffffffffffffffffffffffffffffffffffff021916908373ffffffffffffffffffffffffffffffffffffffff1602179055508360099080519060200190620001be9291906200050e565b5082600e60006101000a81548173ffffffffffffffffffffffffffffffffffffffff021916908373ffffffffffffffffffffffffffffffffffffffff16021790555081601181905550806012819055506000600b60006101000a81548160ff0219169083151502179055506200026a7f9f2df0fed2c77648de5860a4cc508cd0818c85b8b8a1ab4ceeef8d981c8956a66200025e6200027660201b60201c565b6200027e60201b60201c565b50505050505062000957565b600033905090565b620002958282620002c660201b620028e81760201c565b620002c18160076000858152602001908152602001600020620002dc60201b620028f61790919060201c565b505050565b620002d882826200031460201b60201c565b5050565b60006200030c836000018373ffffffffffffffffffffffffffffffffffffffff1660001b6200040660201b60201c565b905092915050565b6200032682826200048060201b60201c565b620004025760016006600084815260200190815260200160002060000160008373ffffffffffffffffffffffffffffffffffffffff1673ffffffffffffffffffffffffffffffffffffffff16815260200190815260200160002060006101000a81548160ff021916908315150217905550620003a76200027660201b60201c565b73ffffffffffffffffffffffffffffffffffffffff168173ffffffffffffffffffffffffffffffffffffffff16837f2f8788117e7eff1d82e926ec794901d17c78024a50270940304540a733656f0d60405160405180910390a45b5050565b60006200041a8383620004eb60201b60201c565b620004755782600001829080600181540180825580915050600190039060005260206000200160009091909190915055826000018054905083600101600084815260200190815260200160002081905550600190506200047a565b600090505b92915050565b60006006600084815260200190815260200160002060000160008373ffffffffffffffffffffffffffffffffffffffff1673ffffffffffffffffffffffffffffffffffffffff16815260200190815260200160002060009054906101000a900460ff16905092915050565b600080836001016000848152602001908152602001600020541415905092915050565b8280546200051c906200088f565b90600052602060002090601f0160209004810192826200054057600085556200058c565b82601f106200055b57805160ff19168380011785556200058c565b828001600101855582156200058c579182015b828111156200058b5782518255916020019190600101906200056e565b5b5090506200059b91906200059f565b5090565b5b80821115620005ba576000816000905550600101620005a0565b5090565b6000620005d5620005cf84620007d7565b620007a3565b905082815260208101848484011115620005ee57600080fd5b620005fb84828562000859565b509392505050565b600081519050620006148162000923565b92915050565b600082601f8301126200062c57600080fd5b81516200063e848260208601620005be565b91505092915050565b60008151905062000658816200093d565b92915050565b60008060008060008060c087890312156200067857600080fd5b600087015167ffffffffffffffff8111156200069357600080fd5b620006a189828a016200061a565b965050602087015167ffffffffffffffff811115620006bf57600080fd5b620006cd89828a016200061a565b955050604087015167ffffffffffffffff811115620006eb57600080fd5b620006f989828a016200061a565b94505060606200070c89828a0162000603565b93505060806200071f89828a0162000647565b92505060a06200073289828a0162000647565b9150509295509295509295565b60006200074e6020836200080a565b91507f436f75706f6e207061796d656e742063616e2774206265206e656761746976656000830152602082019050919050565b600060208201905081810360008301526200079c816200073f565b9050919050565b6000604051905081810181811067ffffffffffffffff82111715620007cd57620007cc620008f4565b5b8060405250919050565b600067ffffffffffffffff821115620007f557620007f4620008f4565b5b601f19601f8301169050602081019050919050565b600082825260208201905092915050565b600062000828826200082f565b9050919050565b600073ffffffffffffffffffffffffffffffffffffffff82169050919050565b6000819050919050565b60005b83811015620008795780820151818401526020810190506200085c565b8381111562000889576000848401525b50505050565b60006002820490506001821680620008a857607f821691505b60208210811415620008bf57620008be620008c5565b5b50919050565b7f4e487b7100000000000000000000000000000000000000000000000000000000600052602260045260246000fd5b7f4e487b7100000000000000000000000000000000000000000000000000000000600052604160045260246000fd5b6200092e816200081b565b81146200093a57600080fd5b50565b62000948816200084f565b81146200095457600080fd5b50565b615b5180620009676000396000f3fe6080604052600436106102665760003560e01c806370a0823111610144578063a217fddf116100b6578063cde0a4f81161007a578063cde0a4f8146108bf578063d5391393146108e8578063d547741f14610913578063e985e9c51461093c578063efd8672914610979578063f2fde38b146109a257610266565b8063a217fddf146107c8578063a22cb465146107f3578063b88d4fde1461081c578063c87b56dd14610845578063ca15c8731461088257610266565b80638a06a364116101085780638a06a364146106a45780638da5cb5b146106cd5780639010d07c146106f857806391d148541461073557806395d89b41146107725780639f181b5e1461079d57610266565b806370a08231146105e0578063715018a61461061d5780637ad5be88146106345780637d2026af146106505780638456cb591461068d57610266565b8063248a9ca3116101dd5780634a513801116101a15780634a513801146105105780634cff6c0e1461051a5780635c975abb146105245780635ea639131461054f57806360ab58521461058c5780636352211e146105a357610266565b8063248a9ca3146104415780632f2ff15d1461047e57806336568abe146104a75780633f4ba83a146104d057806342842e0e146104e757610266565b8063095ea7b31161022f578063095ea7b31461035757806317d7de7c14610380578063191ae47b146103ab5780631af2c9fd146103c257806320965255146103ed57806323b872dd1461041857610266565b806283db4b1461026b57806301ffc9a71461028757806306fdde03146102c457806307634cbe146102ef578063081812fc1461031a575b600080fd5b6102856004803603810190610280919061437b565b6109cb565b005b34801561029357600080fd5b506102ae60048036038101906102a99190614329565b610b97565b6040516102bb91906151c3565b60405180910390f35b3480156102d057600080fd5b506102d9610ba9565b6040516102e691906151f9565b60405180910390f35b3480156102fb57600080fd5b50610304610c3b565b604051610311919061563b565b60405180910390f35b34801561032657600080fd5b50610341600480360381019061033c919061437b565b610c45565b60405161034e919061510a565b60405180910390f35b34801561036357600080fd5b5061037e60048036038101906103799190614210565b610cca565b005b34801561038c57600080fd5b50610395610de2565b6040516103a291906151f9565b60405180910390f35b3480156103b757600080fd5b506103c0610df1565b005b3480156103ce57600080fd5b506103d7610f45565b6040516103e4919061563b565b60405180910390f35b3480156103f957600080fd5b50610402610f52565b60405161040f919061563b565b60405180910390f35b34801561042457600080fd5b5061043f600480360381019061043a919061410a565b610f5c565b005b34801561044d57600080fd5b5061046860048036038101906104639190614288565b610fbc565b60405161047591906151de565b60405180910390f35b34801561048a57600080fd5b506104a560048036038101906104a091906142b1565b610fdc565b005b3480156104b357600080fd5b506104ce60048036038101906104c991906142b1565b611010565b005b3480156104dc57600080fd5b506104e5611044565b005b3480156104f357600080fd5b5061050e6004803603810190610509919061410a565b61117e565b005b61051861119e565b005b6105226112b1565b005b34801561053057600080fd5b50610539611454565b60405161054691906151c3565b60405180910390f35b34801561055b57600080fd5b50610576600480360381019061057191906140a5565b61146b565b604051610583919061563b565b60405180910390f35b34801561059857600080fd5b506105a1611523565b005b3480156105af57600080fd5b506105ca60048036038101906105c5919061437b565b611910565b6040516105d7919061510a565b60405180910390f35b3480156105ec57600080fd5b50610607600480360381019061060291906140a5565b6119c2565b604051610614919061563b565b60405180910390f35b34801561062957600080fd5b50610632611a7a565b005b61064e600480360381019061064991906143a4565b611bb7565b005b34801561065c57600080fd5b506106776004803603810190610672919061437b565b611e28565b604051610684919061510a565b60405180910390f35b34801561069957600080fd5b506106a2611e67565b005b3480156106b057600080fd5b506106cb60048036038101906106c691906140a5565b611fa2565b005b3480156106d957600080fd5b506106e2612062565b6040516106ef919061510a565b60405180910390f35b34801561070457600080fd5b5061071f600480360381019061071a91906142ed565b61208c565b60405161072c919061510a565b60405180910390f35b34801561074157600080fd5b5061075c600480360381019061075791906142b1565b6120bb565b60405161076991906151c3565b60405180910390f35b34801561077e57600080fd5b50610787612126565b60405161079491906151f9565b60405180910390f35b3480156107a957600080fd5b506107b26121b8565b6040516107bf919061563b565b60405180910390f35b3480156107d457600080fd5b506107dd6121c9565b6040516107ea91906151de565b60405180910390f35b3480156107ff57600080fd5b5061081a600480360381019061081591906141d4565b6121d0565b005b34801561082857600080fd5b50610843600480360381019061083e9190614159565b612351565b005b34801561085157600080fd5b5061086c6004803603810190610867919061437b565b6123b3565b60405161087991906151f9565b60405180910390f35b34801561088e57600080fd5b506108a960048036038101906108a49190614288565b61245a565b6040516108b6919061563b565b60405180910390f35b3480156108cb57600080fd5b506108e660048036038101906108e191906140a5565b61247e565b005b3480156108f457600080fd5b506108fd61253e565b60405161090a91906151de565b60405180910390f35b34801561091f57600080fd5b5061093a600480360381019061093591906142b1565b612562565b005b34801561094857600080fd5b50610963600480360381019061095e91906140ce565b612596565b60405161097091906151c3565b60405180910390f35b34801561098557600080fd5b506109a0600480360381019061099b919061424c565b61262a565b005b3480156109ae57600080fd5b506109c960048036038101906109c491906140a5565b61273c565b005b601154816109d99190615781565b341015610a1b576040517f08c379a0000000000000000000000000000000000000000000000000000000008152600401610a129061561b565b60405180910390fd5b6000601460003373ffffffffffffffffffffffffffffffffffffffff1673ffffffffffffffffffffffffffffffffffffffff168152602001908152602001600020541415610ac757600c339080600181540180825580915050600190039060005260206000200160009091909190916101000a81548173ffffffffffffffffffffffffffffffffffffffff021916908373ffffffffffffffffffffffffffffffffffffffff1602179055505b6000601460003373ffffffffffffffffffffffffffffffffffffffff1673ffffffffffffffffffffffffffffffffffffffff1681526020019081526020016000205490503481610b1791906156fa565b601460003373ffffffffffffffffffffffffffffffffffffffff1673ffffffffffffffffffffffffffffffffffffffff168152602001908152602001600020819055507ffe123a1efb6782dccd20e9790951adcfab3cd0e11b85a6f06d8b9222d299a0a33334604051610b8b92919061519a565b60405180910390a15050565b6000610ba282612926565b9050919050565b606060008054610bb89061592f565b80601f0160208091040260200160405190810160405280929190818152602001828054610be49061592f565b8015610c315780601f10610c0657610100808354040283529160200191610c31565b820191906000526020600020905b815481529060010190602001808311610c1457829003601f168201915b5050505050905090565b6000601254905090565b6000610c50826129a0565b610c8f576040517f08c379a0000000000000000000000000000000000000000000000000000000008152600401610c86906154db565b60405180910390fd5b6004600083815260200190815260200160002060009054906101000a900473ffffffffffffffffffffffffffffffffffffffff169050919050565b6000610cd582611910565b90508073ffffffffffffffffffffffffffffffffffffffff168373ffffffffffffffffffffffffffffffffffffffff161415610d46576040517f08c379a0000000000000000000000000000000000000000000000000000000008152600401610d3d9061557b565b60405180910390fd5b8073ffffffffffffffffffffffffffffffffffffffff16610d65612a0c565b73ffffffffffffffffffffffffffffffffffffffff161480610d945750610d9381610d8e612a0c565b612596565b5b610dd3576040517f08c379a0000000000000000000000000000000000000000000000000000000008152600401610dca9061545b565b60405180910390fd5b610ddd8383612a14565b505050565b6060610dec610ba9565b905090565b610df9612a0c565b73ffffffffffffffffffffffffffffffffffffffff16610e17612062565b73ffffffffffffffffffffffffffffffffffffffff1614610e6d576040517f08c379a0000000000000000000000000000000000000000000000000000000008152600401610e64906154fb565b60405180910390fd5b601354471015610eb2576040517f08c379a0000000000000000000000000000000000000000000000000000000008152600401610ea99061533b565b60405180910390fd5b60005b610ebf600a612acd565b811015610f42576000610ed182611910565b9050610ee581610edf612062565b84612adb565b8073ffffffffffffffffffffffffffffffffffffffff166108fc6011549081150290604051600060405180830381858888f19350505050158015610f2d573d6000803e3d6000fd5b50508080610f3a90615961565b915050610eb5565b50565b6000600c80549050905090565b6000601154905090565b610f6d610f67612a0c565b82612aeb565b610fac576040517f08c379a0000000000000000000000000000000000000000000000000000000008152600401610fa3906155bb565b60405180910390fd5b610fb7838383612bc9565b505050565b600060066000838152602001908152602001600020600101549050919050565b610fe68282612e25565b61100b81600760008581526020019081526020016000206128f690919063ffffffff16565b505050565b61101a8282612e4e565b61103f8160076000858152602001908152602001600020612ed190919063ffffffff16565b505050565b600b60009054906101000a900460ff16611093576040517f08c379a000000000000000000000000000000000000000000000000000000000815260040161108a9061525b565b60405180910390fd5b600f60009054906101000a900473ffffffffffffffffffffffffffffffffffffffff1673ffffffffffffffffffffffffffffffffffffffff163373ffffffffffffffffffffffffffffffffffffffff1614611123576040517f08c379a000000000000000000000000000000000000000000000000000000000815260040161111a906152db565b60405180910390fd5b6000600b60006101000a81548160ff0219169083151502179055507f5db9ee0a495bf2e6ff9c91a7834c1ba4fdd244a5e8aa4e537bd38aeae4b073aa611167612a0c565b604051611174919061510a565b60405180910390a1565b61119983838360405180602001604052806000815250612351565b505050565b6111a8600a612acd565b6012546111b59190615781565b3410156111f7576040517f08c379a00000000000000000000000000000000000000000000000000000000081526004016111ee9061559b565b60405180910390fd5b60005b611204600a612acd565b8110156112ae57600061121682611910565b90508073ffffffffffffffffffffffffffffffffffffffff166108fc6012549081150290604051600060405180830381858888f19350505050158015611260573d6000803e3d6000fd5b507fb3224bc7c2e6157092b5f650cc8b06e5f0c34d8218b6e9a1a5a39c2e43706e408183604051611292929190615125565b60405180910390a15080806112a690615961565b9150506111fa565b50565b600e60009054906101000a900473ffffffffffffffffffffffffffffffffffffffff1673ffffffffffffffffffffffffffffffffffffffff163373ffffffffffffffffffffffffffffffffffffffff1614611341576040517f08c379a00000000000000000000000000000000000000000000000000000000081526004016113389061539b565b60405180910390fd5b601354341015611386576040517f08c379a000000000000000000000000000000000000000000000000000000000815260040161137d906155db565b60405180910390fd5b60005b611393600a612acd565b8110156114515760006113a582611910565b90506113d481600d60009054906101000a900473ffffffffffffffffffffffffffffffffffffffff1684612adb565b8073ffffffffffffffffffffffffffffffffffffffff166108fc6011549081150290604051600060405180830381858888f1935050505015801561141c573d6000803e3d6000fd5b5060115460135461142d91906157db565b60138190555061143d600a612f01565b50808061144990615961565b915050611389565b50565b6000600b60009054906101000a900460ff16905090565b60008073ffffffffffffffffffffffffffffffffffffffff168273ffffffffffffffffffffffffffffffffffffffff1614156114dc576040517f08c379a00000000000000000000000000000000000000000000000000000000081526004016114d39061551b565b60405180910390fd5b601460008373ffffffffffffffffffffffffffffffffffffffff1673ffffffffffffffffffffffffffffffffffffffff168152602001908152602001600020549050919050565b6115547f9f2df0fed2c77648de5860a4cc508cd0818c85b8b8a1ab4ceeef8d981c8956a661154f612a0c565b6120bb565b611593576040517f08c379a000000000000000000000000000000000000000000000000000000000815260040161158a9061527b565b60405180910390fd5b60005b600c8054905081101561190d576000600c82815481106115df577f4e487b7100000000000000000000000000000000000000000000000000000000600052603260045260246000fd5b9060005260206000200160009054906101000a900473ffffffffffffffffffffffffffffffffffffffff1690506000601154601460008473ffffffffffffffffffffffffffffffffffffffff1673ffffffffffffffffffffffffffffffffffffffff1681526020019081526020016000205461165b9190615750565b9050600e60009054906101000a900473ffffffffffffffffffffffffffffffffffffffff1673ffffffffffffffffffffffffffffffffffffffff166108fc826011546116a79190615781565b9081150290604051600060405180830381858888f193505050501580156116d2573d6000803e3d6000fd5b50601154816116e19190615781565b601460008473ffffffffffffffffffffffffffffffffffffffff1673ffffffffffffffffffffffffffffffffffffffff168152602001908152602001600020541115611856578173ffffffffffffffffffffffffffffffffffffffff166108fc6011548361174f9190615781565b601460008673ffffffffffffffffffffffffffffffffffffffff1673ffffffffffffffffffffffffffffffffffffffff1681526020019081526020016000205461179991906157db565b9081150290604051600060405180830381858888f193505050501580156117c4573d6000803e3d6000fd5b507f2ee76d0c8417fef3c9f68663d321eb1c1ed0e089b5298177f0582aeadb6fd91f82601154836117f59190615781565b601460008673ffffffffffffffffffffffffffffffffffffffff1673ffffffffffffffffffffffffffffffffffffffff1681526020019081526020016000205461183f91906157db565b60405161184d92919061519a565b60405180910390a15b6000601460008473ffffffffffffffffffffffffffffffffffffffff1673ffffffffffffffffffffffffffffffffffffffff16815260200190815260200160002081905550806011546118a99190615781565b6013546118b691906156fa565b60138190555060005b818110156118f7576118da836118d5600a612acd565b612f5d565b6118e4600a61312b565b80806118ef90615961565b9150506118bf565b505050808061190590615961565b915050611596565b50565b6000806002600084815260200190815260200160002060009054906101000a900473ffffffffffffffffffffffffffffffffffffffff169050600073ffffffffffffffffffffffffffffffffffffffff168173ffffffffffffffffffffffffffffffffffffffff1614156119b9576040517f08c379a00000000000000000000000000000000000000000000000000000000081526004016119b09061549b565b60405180910390fd5b80915050919050565b60008073ffffffffffffffffffffffffffffffffffffffff168273ffffffffffffffffffffffffffffffffffffffff161415611a33576040517f08c379a0000000000000000000000000000000000000000000000000000000008152600401611a2a9061547b565b60405180910390fd5b600360008373ffffffffffffffffffffffffffffffffffffffff1673ffffffffffffffffffffffffffffffffffffffff168152602001908152602001600020549050919050565b611a82612a0c565b73ffffffffffffffffffffffffffffffffffffffff16611aa0612062565b73ffffffffffffffffffffffffffffffffffffffff1614611af6576040517f08c379a0000000000000000000000000000000000000000000000000000000008152600401611aed906154fb565b60405180910390fd5b600073ffffffffffffffffffffffffffffffffffffffff16600860009054906101000a900473ffffffffffffffffffffffffffffffffffffffff1673ffffffffffffffffffffffffffffffffffffffff167f8be0079c531659141344cd1fd0a4f28419497f9722a3daafe3b4186f6b6457e060405160405180910390a36000600860006101000a81548173ffffffffffffffffffffffffffffffffffffffff021916908373ffffffffffffffffffffffffffffffffffffffff160217905550565b611be87f9f2df0fed2c77648de5860a4cc508cd0818c85b8b8a1ab4ceeef8d981c8956a6611be3612a0c565b6120bb565b611c27576040517f08c379a0000000000000000000000000000000000000000000000000000000008152600401611c1e9061527b565b60405180910390fd5b60115482611c359190615781565b601460008373ffffffffffffffffffffffffffffffffffffffff1673ffffffffffffffffffffffffffffffffffffffff168152602001908152602001600020541015611cb6576040517f08c379a0000000000000000000000000000000000000000000000000000000008152600401611cad906153fb565b60405180910390fd5b600e60009054906101000a900473ffffffffffffffffffffffffffffffffffffffff1673ffffffffffffffffffffffffffffffffffffffff166108fc83601154611d009190615781565b9081150290604051600060405180830381858888f19350505050158015611d2b573d6000803e3d6000fd5b5060115482611d3a9190615781565b601460008373ffffffffffffffffffffffffffffffffffffffff1673ffffffffffffffffffffffffffffffffffffffff16815260200190815260200160002054611d8491906157db565b601460008373ffffffffffffffffffffffffffffffffffffffff1673ffffffffffffffffffffffffffffffffffffffff1681526020019081526020016000208190555060115482611dd59190615781565b601354611de291906156fa565b60138190555060005b82811015611e2357611e0682611e01600a612acd565b612f5d565b611e10600a61312b565b8080611e1b90615961565b915050611deb565b505050565b600c8181548110611e3857600080fd5b906000526020600020016000915054906101000a900473ffffffffffffffffffffffffffffffffffffffff1681565b600b60009054906101000a900460ff1615611eb7576040517f08c379a0000000000000000000000000000000000000000000000000000000008152600401611eae9061541b565b60405180910390fd5b600f60009054906101000a900473ffffffffffffffffffffffffffffffffffffffff1673ffffffffffffffffffffffffffffffffffffffff163373ffffffffffffffffffffffffffffffffffffffff1614611f47576040517f08c379a0000000000000000000000000000000000000000000000000000000008152600401611f3e9061543b565b60405180910390fd5b6001600b60006101000a81548160ff0219169083151502179055507f62e78cea01bee320cd4e420270b5ea74000d11b0c9f74754ebdbfc544b05a258611f8b612a0c565b604051611f98919061510a565b60405180910390a1565b611faa612a0c565b73ffffffffffffffffffffffffffffffffffffffff16611fc8612062565b73ffffffffffffffffffffffffffffffffffffffff161461201e576040517f08c379a0000000000000000000000000000000000000000000000000000000008152600401612015906154fb565b60405180910390fd5b80601060006101000a81548173ffffffffffffffffffffffffffffffffffffffff021916908373ffffffffffffffffffffffffffffffffffffffff16021790555050565b6000600860009054906101000a900473ffffffffffffffffffffffffffffffffffffffff16905090565b60006120b3826007600086815260200190815260200160002061314190919063ffffffff16565b905092915050565b60006006600084815260200190815260200160002060000160008373ffffffffffffffffffffffffffffffffffffffff1673ffffffffffffffffffffffffffffffffffffffff16815260200190815260200160002060009054906101000a900460ff16905092915050565b6060600180546121359061592f565b80601f01602080910402602001604051908101604052809291908181526020018280546121619061592f565b80156121ae5780601f10612183576101008083540402835291602001916121ae565b820191906000526020600020905b81548152906001019060200180831161219157829003601f168201915b5050505050905090565b60006121c4600a612acd565b905090565b6000801b81565b6121d8612a0c565b73ffffffffffffffffffffffffffffffffffffffff168273ffffffffffffffffffffffffffffffffffffffff161415612246576040517f08c379a000000000000000000000000000000000000000000000000000000000815260040161223d9061537b565b60405180910390fd5b8060056000612253612a0c565b73ffffffffffffffffffffffffffffffffffffffff1673ffffffffffffffffffffffffffffffffffffffff16815260200190815260200160002060008473ffffffffffffffffffffffffffffffffffffffff1673ffffffffffffffffffffffffffffffffffffffff16815260200190815260200160002060006101000a81548160ff0219169083151502179055508173ffffffffffffffffffffffffffffffffffffffff16612300612a0c565b73ffffffffffffffffffffffffffffffffffffffff167f17307eab39ab6107e8899845ad3d59bd9653f200f220920489ca2b5937696c318360405161234591906151c3565b60405180910390a35050565b61236261235c612a0c565b83612aeb565b6123a1576040517f08c379a0000000000000000000000000000000000000000000000000000000008152600401612398906155bb565b60405180910390fd5b6123ad8484848461315b565b50505050565b60606123be826129a0565b6123fd576040517f08c379a00000000000000000000000000000000000000000000000000000000081526004016123f49061555b565b60405180910390fd5b60006124076131b7565b905060008151116124275760405180602001604052806000815250612452565b8061243184613249565b6040516020016124429291906150ac565b6040516020818303038152906040525b915050919050565b6000612477600760008481526020019081526020016000206133f6565b9050919050565b612486612a0c565b73ffffffffffffffffffffffffffffffffffffffff166124a4612062565b73ffffffffffffffffffffffffffffffffffffffff16146124fa576040517f08c379a00000000000000000000000000000000000000000000000000000000081526004016124f1906154fb565b60405180910390fd5b80600f60006101000a81548173ffffffffffffffffffffffffffffffffffffffff021916908373ffffffffffffffffffffffffffffffffffffffff16021790555050565b7f9f2df0fed2c77648de5860a4cc508cd0818c85b8b8a1ab4ceeef8d981c8956a681565b61256c828261340b565b6125918160076000858152602001908152602001600020612ed190919063ffffffff16565b505050565b6000600560008473ffffffffffffffffffffffffffffffffffffffff1673ffffffffffffffffffffffffffffffffffffffff16815260200190815260200160002060008373ffffffffffffffffffffffffffffffffffffffff1673ffffffffffffffffffffffffffffffffffffffff16815260200190815260200160002060009054906101000a900460ff16905092915050565b601060009054906101000a900473ffffffffffffffffffffffffffffffffffffffff1673ffffffffffffffffffffffffffffffffffffffff163373ffffffffffffffffffffffffffffffffffffffff161461268457600080fd5b81156126a3578060125461269891906156fa565b6012819055506126fd565b6012548111156126e8576040517f08c379a00000000000000000000000000000000000000000000000000000000081526004016126df906153bb565b60405180910390fd5b806012546126f691906157db565b6012819055505b7fca1d6283d1b481c7291c2fc81205d98456d1c2948caa5f9460dd3e35ca34e4163360125460405161273092919061519a565b60405180910390a15050565b612744612a0c565b73ffffffffffffffffffffffffffffffffffffffff16612762612062565b73ffffffffffffffffffffffffffffffffffffffff16146127b8576040517f08c379a00000000000000000000000000000000000000000000000000000000081526004016127af906154fb565b60405180910390fd5b600073ffffffffffffffffffffffffffffffffffffffff168173ffffffffffffffffffffffffffffffffffffffff161415612828576040517f08c379a000000000000000000000000000000000000000000000000000000000815260040161281f906152fb565b60405180910390fd5b8073ffffffffffffffffffffffffffffffffffffffff16600860009054906101000a900473ffffffffffffffffffffffffffffffffffffffff1673ffffffffffffffffffffffffffffffffffffffff167f8be0079c531659141344cd1fd0a4f28419497f9722a3daafe3b4186f6b6457e060405160405180910390a380600860006101000a81548173ffffffffffffffffffffffffffffffffffffffff021916908373ffffffffffffffffffffffffffffffffffffffff16021790555050565b6128f28282613434565b5050565b600061291e836000018373ffffffffffffffffffffffffffffffffffffffff1660001b613515565b905092915050565b60007f5a05180f000000000000000000000000000000000000000000000000000000007bffffffffffffffffffffffffffffffffffffffffffffffffffffffff1916827bffffffffffffffffffffffffffffffffffffffffffffffffffffffff19161480612999575061299882613585565b5b9050919050565b60008073ffffffffffffffffffffffffffffffffffffffff166002600084815260200190815260200160002060009054906101000a900473ffffffffffffffffffffffffffffffffffffffff1673ffffffffffffffffffffffffffffffffffffffff1614159050919050565b600033905090565b816004600083815260200190815260200160002060006101000a81548173ffffffffffffffffffffffffffffffffffffffff021916908373ffffffffffffffffffffffffffffffffffffffff160217905550808273ffffffffffffffffffffffffffffffffffffffff16612a8783611910565b73ffffffffffffffffffffffffffffffffffffffff167f8c5be1e5ebec7d5bd14f71427d1e84f3dd0314c0f7b2291e5b200ac8c7c3b92560405160405180910390a45050565b600081600001549050919050565b612ae6838383612bc9565b505050565b6000612af6826129a0565b612b35576040517f08c379a0000000000000000000000000000000000000000000000000000000008152600401612b2c906153db565b60405180910390fd5b6000612b4083611910565b90508073ffffffffffffffffffffffffffffffffffffffff168473ffffffffffffffffffffffffffffffffffffffff161480612baf57508373ffffffffffffffffffffffffffffffffffffffff16612b9784610c45565b73ffffffffffffffffffffffffffffffffffffffff16145b80612bc05750612bbf8185612596565b5b91505092915050565b8273ffffffffffffffffffffffffffffffffffffffff16612be982611910565b73ffffffffffffffffffffffffffffffffffffffff1614612c3f576040517f08c379a0000000000000000000000000000000000000000000000000000000008152600401612c369061553b565b60405180910390fd5b600073ffffffffffffffffffffffffffffffffffffffff168273ffffffffffffffffffffffffffffffffffffffff161415612caf576040517f08c379a0000000000000000000000000000000000000000000000000000000008152600401612ca69061535b565b60405180910390fd5b612cba8383836135ff565b612cc5600082612a14565b6001600360008573ffffffffffffffffffffffffffffffffffffffff1673ffffffffffffffffffffffffffffffffffffffff1681526020019081526020016000206000828254612d1591906157db565b925050819055506001600360008473ffffffffffffffffffffffffffffffffffffffff1673ffffffffffffffffffffffffffffffffffffffff1681526020019081526020016000206000828254612d6c91906156fa565b92505081905550816002600083815260200190815260200160002060006101000a81548173ffffffffffffffffffffffffffffffffffffffff021916908373ffffffffffffffffffffffffffffffffffffffff160217905550808273ffffffffffffffffffffffffffffffffffffffff168473ffffffffffffffffffffffffffffffffffffffff167fddf252ad1be2c89b69c2b068fc378daa952ba7f163c4a11628f55a4df523b3ef60405160405180910390a4505050565b612e2e82610fbc565b612e3f81612e3a612a0c565b613604565b612e498383613434565b505050565b612e56612a0c565b73ffffffffffffffffffffffffffffffffffffffff168173ffffffffffffffffffffffffffffffffffffffff1614612ec3576040517f08c379a0000000000000000000000000000000000000000000000000000000008152600401612eba906155fb565b60405180910390fd5b612ecd82826136a1565b5050565b6000612ef9836000018373ffffffffffffffffffffffffffffffffffffffff1660001b613783565b905092915050565b60008160000154905060008111612f4d576040517f08c379a0000000000000000000000000000000000000000000000000000000008152600401612f449061529b565b60405180910390fd5b6001810382600001819055505050565b600073ffffffffffffffffffffffffffffffffffffffff168273ffffffffffffffffffffffffffffffffffffffff161415612fcd576040517f08c379a0000000000000000000000000000000000000000000000000000000008152600401612fc4906154bb565b60405180910390fd5b612fd6816129a0565b15613016576040517f08c379a000000000000000000000000000000000000000000000000000000000815260040161300d9061531b565b60405180910390fd5b613022600083836135ff565b6001600360008473ffffffffffffffffffffffffffffffffffffffff1673ffffffffffffffffffffffffffffffffffffffff168152602001908152602001600020600082825461307291906156fa565b92505081905550816002600083815260200190815260200160002060006101000a81548173ffffffffffffffffffffffffffffffffffffffff021916908373ffffffffffffffffffffffffffffffffffffffff160217905550808273ffffffffffffffffffffffffffffffffffffffff16600073ffffffffffffffffffffffffffffffffffffffff167fddf252ad1be2c89b69c2b068fc378daa952ba7f163c4a11628f55a4df523b3ef60405160405180910390a45050565b6001816000016000828254019250508190555050565b60006131508360000183613901565b60001c905092915050565b613166848484612bc9565b6131728484848461399b565b6131b1576040517f08c379a00000000000000000000000000000000000000000000000000000000081526004016131a8906152bb565b60405180910390fd5b50505050565b6060600980546131c69061592f565b80601f01602080910402602001604051908101604052809291908181526020018280546131f29061592f565b801561323f5780601f106132145761010080835404028352916020019161323f565b820191906000526020600020905b81548152906001019060200180831161322257829003601f168201915b5050505050905090565b60606000821415613291576040518060400160405280600181526020017f300000000000000000000000000000000000000000000000000000000000000081525090506133f1565b600082905060005b600082146132c35780806132ac90615961565b915050600a826132bc9190615750565b9150613299565b60008167ffffffffffffffff811115613305577f4e487b7100000000000000000000000000000000000000000000000000000000600052604160045260246000fd5b6040519080825280601f01601f1916602001820160405280156133375781602001600182028036833780820191505090505b5090505b600085146133ea5760018261335091906157db565b9150600a8561335f91906159aa565b603061336b91906156fa565b60f81b8183815181106133a7577f4e487b7100000000000000000000000000000000000000000000000000000000600052603260045260246000fd5b60200101907effffffffffffffffffffffffffffffffffffffffffffffffffffffffffffff1916908160001a905350600a856133e39190615750565b945061333b565b8093505050505b919050565b600061340482600001613b32565b9050919050565b61341482610fbc565b61342581613420612a0c565b613604565b61342f83836136a1565b505050565b61343e82826120bb565b6135115760016006600084815260200190815260200160002060000160008373ffffffffffffffffffffffffffffffffffffffff1673ffffffffffffffffffffffffffffffffffffffff16815260200190815260200160002060006101000a81548160ff0219169083151502179055506134b6612a0c565b73ffffffffffffffffffffffffffffffffffffffff168173ffffffffffffffffffffffffffffffffffffffff16837f2f8788117e7eff1d82e926ec794901d17c78024a50270940304540a733656f0d60405160405180910390a45b5050565b60006135218383613b43565b61357a57826000018290806001815401808255809150506001900390600052602060002001600090919091909150558260000180549050836001016000848152602001908152602001600020819055506001905061357f565b600090505b92915050565b60007f7965db0b000000000000000000000000000000000000000000000000000000007bffffffffffffffffffffffffffffffffffffffffffffffffffffffff1916827bffffffffffffffffffffffffffffffffffffffffffffffffffffffff191614806135f857506135f782613b66565b5b9050919050565b505050565b61360e82826120bb565b61369d576136338173ffffffffffffffffffffffffffffffffffffffff166014613c48565b6136418360001c6020613c48565b6040516020016136529291906150d0565b6040516020818303038152906040526040517f08c379a000000000000000000000000000000000000000000000000000000000815260040161369491906151f9565b60405180910390fd5b5050565b6136ab82826120bb565b1561377f5760006006600084815260200190815260200160002060000160008373ffffffffffffffffffffffffffffffffffffffff1673ffffffffffffffffffffffffffffffffffffffff16815260200190815260200160002060006101000a81548160ff021916908315150217905550613724612a0c565b73ffffffffffffffffffffffffffffffffffffffff168173ffffffffffffffffffffffffffffffffffffffff16837ff6391f5c32d9c69d2a47ea670b442974b53935d1edc7fd64eb21e047a839171b60405160405180910390a45b5050565b600080836001016000848152602001908152602001600020549050600081146138f55760006001826137b591906157db565b90506000600186600001805490506137cd91906157db565b9050600086600001828154811061380d577f4e487b7100000000000000000000000000000000000000000000000000000000600052603260045260246000fd5b9060005260206000200154905080876000018481548110613857577f4e487b7100000000000000000000000000000000000000000000000000000000600052603260045260246000fd5b90600052602060002001819055508387600101600083815260200190815260200160002081905550866000018054806138b9577f4e487b7100000000000000000000000000000000000000000000000000000000600052603160045260246000fd5b600190038181906000526020600020016000905590558660010160008781526020019081526020016000206000905560019450505050506138fb565b60009150505b92915050565b60008183600001805490501161394c576040517f08c379a00000000000000000000000000000000000000000000000000000000081526004016139439061521b565b60405180910390fd5b826000018281548110613988577f4e487b7100000000000000000000000000000000000000000000000000000000600052603260045260246000fd5b9060005260206000200154905092915050565b60006139bc8473ffffffffffffffffffffffffffffffffffffffff16613f42565b15613b25578373ffffffffffffffffffffffffffffffffffffffff1663150b7a026139e5612a0c565b8786866040518563ffffffff1660e01b8152600401613a07949392919061514e565b602060405180830381600087803b158015613a2157600080fd5b505af1925050508015613a5257506040513d601f19601f82011682018060405250810190613a4f9190614352565b60015b613ad5573d8060008114613a82576040519150601f19603f3d011682016040523d82523d6000602084013e613a87565b606091505b50600081511415613acd576040517f08c379a0000000000000000000000000000000000000000000000000000000008152600401613ac4906152bb565b60405180910390fd5b805181602001fd5b63150b7a0260e01b7bffffffffffffffffffffffffffffffffffffffffffffffffffffffff1916817bffffffffffffffffffffffffffffffffffffffffffffffffffffffff191614915050613b2a565b600190505b949350505050565b600081600001805490509050919050565b600080836001016000848152602001908152602001600020541415905092915050565b60007f80ac58cd000000000000000000000000000000000000000000000000000000007bffffffffffffffffffffffffffffffffffffffffffffffffffffffff1916827bffffffffffffffffffffffffffffffffffffffffffffffffffffffff19161480613c3157507f5b5e139f000000000000000000000000000000000000000000000000000000007bffffffffffffffffffffffffffffffffffffffffffffffffffffffff1916827bffffffffffffffffffffffffffffffffffffffffffffffffffffffff1916145b80613c415750613c4082613f55565b5b9050919050565b606060006002836002613c5b9190615781565b613c6591906156fa565b67ffffffffffffffff811115613ca4577f4e487b7100000000000000000000000000000000000000000000000000000000600052604160045260246000fd5b6040519080825280601f01601f191660200182016040528015613cd65781602001600182028036833780820191505090505b5090507f300000000000000000000000000000000000000000000000000000000000000081600081518110613d34577f4e487b7100000000000000000000000000000000000000000000000000000000600052603260045260246000fd5b60200101907effffffffffffffffffffffffffffffffffffffffffffffffffffffffffffff1916908160001a9053507f780000000000000000000000000000000000000000000000000000000000000081600181518110613dbe577f4e487b7100000000000000000000000000000000000000000000000000000000600052603260045260246000fd5b60200101907effffffffffffffffffffffffffffffffffffffffffffffffffffffffffffff1916908160001a90535060006001846002613dfe9190615781565b613e0891906156fa565b90505b6001811115613ef4577f3031323334353637383961626364656600000000000000000000000000000000600f861660108110613e70577f4e487b7100000000000000000000000000000000000000000000000000000000600052603260045260246000fd5b1a60f81b828281518110613ead577f4e487b7100000000000000000000000000000000000000000000000000000000600052603260045260246000fd5b60200101907effffffffffffffffffffffffffffffffffffffffffffffffffffffffffffff1916908160001a905350600485901c945080613eed90615905565b9050613e0b565b5060008414613f38576040517f08c379a0000000000000000000000000000000000000000000000000000000008152600401613f2f9061523b565b60405180910390fd5b8091505092915050565b600080823b905060008111915050919050565b60007f01ffc9a7000000000000000000000000000000000000000000000000000000007bffffffffffffffffffffffffffffffffffffffffffffffffffffffff1916827bffffffffffffffffffffffffffffffffffffffffffffffffffffffff1916149050919050565b6000613fd2613fcd84615687565b615656565b905082815260208101848484011115613fea57600080fd5b613ff58482856158c3565b509392505050565b60008135905061400c81615aa8565b92915050565b60008135905061402181615abf565b92915050565b60008135905061403681615ad6565b92915050565b60008135905061404b81615aed565b92915050565b60008151905061406081615aed565b92915050565b600082601f83011261407757600080fd5b8135614087848260208601613fbf565b91505092915050565b60008135905061409f81615b04565b92915050565b6000602082840312156140b757600080fd5b60006140c584828501613ffd565b91505092915050565b600080604083850312156140e157600080fd5b60006140ef85828601613ffd565b925050602061410085828601613ffd565b9150509250929050565b60008060006060848603121561411f57600080fd5b600061412d86828701613ffd565b935050602061413e86828701613ffd565b925050604061414f86828701614090565b9150509250925092565b6000806000806080858703121561416f57600080fd5b600061417d87828801613ffd565b945050602061418e87828801613ffd565b935050604061419f87828801614090565b925050606085013567ffffffffffffffff8111156141bc57600080fd5b6141c887828801614066565b91505092959194509250565b600080604083850312156141e757600080fd5b60006141f585828601613ffd565b925050602061420685828601614012565b9150509250929050565b6000806040838503121561422357600080fd5b600061423185828601613ffd565b925050602061424285828601614090565b9150509250929050565b6000806040838503121561425f57600080fd5b600061426d85828601614012565b925050602061427e85828601614090565b9150509250929050565b60006020828403121561429a57600080fd5b60006142a884828501614027565b91505092915050565b600080604083850312156142c457600080fd5b60006142d285828601614027565b92505060206142e385828601613ffd565b9150509250929050565b6000806040838503121561430057600080fd5b600061430e85828601614027565b925050602061431f85828601614090565b9150509250929050565b60006020828403121561433b57600080fd5b60006143498482850161403c565b91505092915050565b60006020828403121561436457600080fd5b600061437284828501614051565b91505092915050565b60006020828403121561438d57600080fd5b600061439b84828501614090565b91505092915050565b600080604083850312156143b757600080fd5b60006143c585828601614090565b92505060206143d685828601613ffd565b9150509250929050565b6143e98161588d565b82525050565b6143f88161580f565b82525050565b61440781615821565b82525050565b6144168161582d565b82525050565b6000614427826156b7565b61443181856156cd565b93506144418185602086016158d2565b61444a81615a97565b840191505092915050565b6000614460826156c2565b61446a81856156de565b935061447a8185602086016158d2565b61448381615a97565b840191505092915050565b6000614499826156c2565b6144a381856156ef565b93506144b38185602086016158d2565b80840191505092915050565b60006144cc6022836156de565b91507f456e756d657261626c655365743a20696e646578206f7574206f6620626f756e60008301527f64730000000000000000000000000000000000000000000000000000000000006020830152604082019050919050565b60006145326020836156de565b91507f537472696e67733a20686578206c656e67746820696e73756666696369656e746000830152602082019050919050565b60006145726014836156de565b91507f5061757361626c653a206e6f74207061757365640000000000000000000000006000830152602082019050919050565b60006145b26024836156de565b91507f4d696e746572206d7573742068617665206d696e74657220726f6c6520746f2060008301527f6d696e74000000000000000000000000000000000000000000000000000000006020830152604082019050919050565b6000614618601b836156de565b91507f436f756e7465723a2064656372656d656e74206f766572666c6f7700000000006000830152602082019050919050565b60006146586032836156de565b91507f4552433732313a207472616e7366657220746f206e6f6e20455243373231526560008301527f63656976657220696d706c656d656e74657200000000000000000000000000006020830152604082019050919050565b60006146be6022836156de565b91507f556e7061757365722063616e206f6e6c792062652074686520726567756c617460008301527f6f720000000000000000000000000000000000000000000000000000000000006020830152604082019050919050565b60006147246026836156de565b91507f4f776e61626c653a206e6577206f776e657220697320746865207a65726f206160008301527f64647265737300000000000000000000000000000000000000000000000000006020830152604082019050919050565b600061478a601c836156de565b91507f4552433732313a20746f6b656e20616c7265616479206d696e746564000000006000830152602082019050919050565b60006147ca602d836156de565b91507f54686572652773206e6f7420656e6f75676820737461626c6520636f696e206660008301527f6f7220736574746c656d656e74000000000000000000000000000000000000006020830152604082019050919050565b60006148306024836156de565b91507f4552433732313a207472616e7366657220746f20746865207a65726f2061646460008301527f72657373000000000000000000000000000000000000000000000000000000006020830152604082019050919050565b60006148966019836156de565b91507f4552433732313a20617070726f766520746f2063616c6c6572000000000000006000830152602082019050919050565b60006148d6602e836156de565b91507f506179696e6720636f6d70616e792073686f756c642062652074686520626f7260008301527f726f77696e6720636f6d70616e790000000000000000000000000000000000006020830152604082019050919050565b600061493c6020836156de565b91507f436f75706f6e207061796d656e742063616e2774206265206e656761746976656000830152602082019050919050565b600061497c602c836156de565b91507f4552433732313a206f70657261746f7220717565727920666f72206e6f6e657860008301527f697374656e7420746f6b656e00000000000000000000000000000000000000006020830152604082019050919050565b60006149e2602c836156de565b91507f496e766573746f7220686173206e6f7420656e6f7567682066756e647320666f60008301527f722074686520746f6b656e7300000000000000000000000000000000000000006020830152604082019050919050565b6000614a486010836156de565b91507f5061757361626c653a20706175736564000000000000000000000000000000006000830152602082019050919050565b6000614a886020836156de565b91507f5061757365722063616e206f6e6c792062652074686520726567756c61746f726000830152602082019050919050565b6000614ac86038836156de565b91507f4552433732313a20617070726f76652063616c6c6572206973206e6f74206f7760008301527f6e6572206e6f7220617070726f76656420666f7220616c6c00000000000000006020830152604082019050919050565b6000614b2e602a836156de565b91507f4552433732313a2062616c616e636520717565727920666f7220746865207a6560008301527f726f2061646472657373000000000000000000000000000000000000000000006020830152604082019050919050565b6000614b946029836156de565b91507f4552433732313a206f776e657220717565727920666f72206e6f6e657869737460008301527f656e7420746f6b656e00000000000000000000000000000000000000000000006020830152604082019050919050565b6000614bfa6020836156de565b91507f4552433732313a206d696e7420746f20746865207a65726f20616464726573736000830152602082019050919050565b6000614c3a602c836156de565b91507f4552433732313a20617070726f76656420717565727920666f72206e6f6e657860008301527f697374656e7420746f6b656e00000000000000000000000000000000000000006020830152604082019050919050565b6000614ca06020836156de565b91507f4f776e61626c653a2063616c6c6572206973206e6f7420746865206f776e65726000830152602082019050919050565b6000614ce06022836156de565b91507f42616c616e636520717565727920666f7220746865207a65726f20616464726560008301527f73730000000000000000000000000000000000000000000000000000000000006020830152604082019050919050565b6000614d466029836156de565b91507f4552433732313a207472616e73666572206f6620746f6b656e2074686174206960008301527f73206e6f74206f776e00000000000000000000000000000000000000000000006020830152604082019050919050565b6000614dac602f836156de565b91507f4552433732314d657461646174613a2055524920717565727920666f72206e6f60008301527f6e6578697374656e7420746f6b656e00000000000000000000000000000000006020830152604082019050919050565b6000614e126021836156de565b91507f4552433732313a20617070726f76616c20746f2063757272656e74206f776e6560008301527f72000000000000000000000000000000000000000000000000000000000000006020830152604082019050919050565b6000614e78601c836156de565b91507f4e6f7420656e6f75676820636f696e7320666f7220636f75706f6e73000000006000830152602082019050919050565b6000614eb86031836156de565b91507f4552433732313a207472616e736665722063616c6c6572206973206e6f74206f60008301527f776e6572206e6f7220617070726f7665640000000000000000000000000000006020830152604082019050919050565b6000614f1e602f836156de565b91507f4e6f7420656e6f75676820636f696e7320746f20736574746c6520746865206260008301527f6f6e64206174206d6174757269747900000000000000000000000000000000006020830152604082019050919050565b6000614f846017836156ef565b91507f416363657373436f6e74726f6c3a206163636f756e74200000000000000000006000830152601782019050919050565b6000614fc46011836156ef565b91507f206973206d697373696e6720726f6c65200000000000000000000000000000006000830152601182019050919050565b6000615004602f836156de565b91507f416363657373436f6e74726f6c3a2063616e206f6e6c792072656e6f756e636560008301527f20726f6c657320666f722073656c6600000000000000000000000000000000006020830152604082019050919050565b600061506a601f836156de565b91507f6e6f7420656e6f75676820636f696e7320666f722074686520616d6f756e74006000830152602082019050919050565b6150a681615883565b82525050565b60006150b8828561448e565b91506150c4828461448e565b91508190509392505050565b60006150db82614f77565b91506150e7828561448e565b91506150f282614fb7565b91506150fe828461448e565b91508190509392505050565b600060208201905061511f60008301846143ef565b92915050565b600060408201905061513a60008301856143e0565b615147602083018461509d565b9392505050565b600060808201905061516360008301876143ef565b61517060208301866143ef565b61517d604083018561509d565b818103606083015261518f818461441c565b905095945050505050565b60006040820190506151af60008301856143ef565b6151bc602083018461509d565b9392505050565b60006020820190506151d860008301846143fe565b92915050565b60006020820190506151f3600083018461440d565b92915050565b600060208201905081810360008301526152138184614455565b905092915050565b60006020820190508181036000830152615234816144bf565b9050919050565b6000602082019050818103600083015261525481614525565b9050919050565b6000602082019050818103600083015261527481614565565b9050919050565b60006020820190508181036000830152615294816145a5565b9050919050565b600060208201905081810360008301526152b48161460b565b9050919050565b600060208201905081810360008301526152d48161464b565b9050919050565b600060208201905081810360008301526152f4816146b1565b9050919050565b6000602082019050818103600083015261531481614717565b9050919050565b600060208201905081810360008301526153348161477d565b9050919050565b60006020820190508181036000830152615354816147bd565b9050919050565b6000602082019050818103600083015261537481614823565b9050919050565b6000602082019050818103600083015261539481614889565b9050919050565b600060208201905081810360008301526153b4816148c9565b9050919050565b600060208201905081810360008301526153d48161492f565b9050919050565b600060208201905081810360008301526153f48161496f565b9050919050565b60006020820190508181036000830152615414816149d5565b9050919050565b6000602082019050818103600083015261543481614a3b565b9050919050565b6000602082019050818103600083015261545481614a7b565b9050919050565b6000602082019050818103600083015261547481614abb565b9050919050565b6000602082019050818103600083015261549481614b21565b9050919050565b600060208201905081810360008301526154b481614b87565b9050919050565b600060208201905081810360008301526154d481614bed565b9050919050565b600060208201905081810360008301526154f481614c2d565b9050919050565b6000602082019050818103600083015261551481614c93565b9050919050565b6000602082019050818103600083015261553481614cd3565b9050919050565b6000602082019050818103600083015261555481614d39565b9050919050565b6000602082019050818103600083015261557481614d9f565b9050919050565b6000602082019050818103600083015261559481614e05565b9050919050565b600060208201905081810360008301526155b481614e6b565b9050919050565b600060208201905081810360008301526155d481614eab565b9050919050565b600060208201905081810360008301526155f481614f11565b9050919050565b6000602082019050818103600083015261561481614ff7565b9050919050565b600060208201905081810360008301526156348161505d565b9050919050565b6000602082019050615650600083018461509d565b92915050565b6000604051905081810181811067ffffffffffffffff8211171561567d5761567c615a68565b5b8060405250919050565b600067ffffffffffffffff8211156156a2576156a1615a68565b5b601f19601f8301169050602081019050919050565b600081519050919050565b600081519050919050565b600082825260208201905092915050565b600082825260208201905092915050565b600081905092915050565b600061570582615883565b915061571083615883565b9250827fffffffffffffffffffffffffffffffffffffffffffffffffffffffffffffffff03821115615745576157446159db565b5b828201905092915050565b600061575b82615883565b915061576683615883565b92508261577657615775615a0a565b5b828204905092915050565b600061578c82615883565b915061579783615883565b9250817fffffffffffffffffffffffffffffffffffffffffffffffffffffffffffffffff04831182151516156157d0576157cf6159db565b5b828202905092915050565b60006157e682615883565b91506157f183615883565b925082821015615804576158036159db565b5b828203905092915050565b600061581a82615863565b9050919050565b60008115159050919050565b6000819050919050565b60007fffffffff0000000000000000000000000000000000000000000000000000000082169050919050565b600073ffffffffffffffffffffffffffffffffffffffff82169050919050565b6000819050919050565b60006158988261589f565b9050919050565b60006158aa826158b1565b9050919050565b60006158bc82615863565b9050919050565b82818337600083830152505050565b60005b838110156158f05780820151818401526020810190506158d5565b838111156158ff576000848401525b50505050565b600061591082615883565b91506000821415615924576159236159db565b5b600182039050919050565b6000600282049050600182168061594757607f821691505b6020821081141561595b5761595a615a39565b5b50919050565b600061596c82615883565b91507fffffffffffffffffffffffffffffffffffffffffffffffffffffffffffffffff82141561599f5761599e6159db565b5b600182019050919050565b60006159b582615883565b91506159c083615883565b9250826159d0576159cf615a0a565b5b828206905092915050565b7f4e487b7100000000000000000000000000000000000000000000000000000000600052601160045260246000fd5b7f4e487b7100000000000000000000000000000000000000000000000000000000600052601260045260246000fd5b7f4e487b7100000000000000000000000000000000000000000000000000000000600052602260045260246000fd5b7f4e487b7100000000000000000000000000000000000000000000000000000000600052604160045260246000fd5b6000601f19601f8301169050919050565b615ab18161580f565b8114615abc57600080fd5b50565b615ac881615821565b8114615ad357600080fd5b50565b615adf8161582d565b8114615aea57600080fd5b50565b615af681615837565b8114615b0157600080fd5b50565b615b0d81615883565b8114615b1857600080fd5b5056fea26469706673582212201e01ed2368ddf7d2eb72ceb12d157aa9773057e32592d2ac8846e678d8ba917964736f6c63430008000033",
  "immutableReferences": {},
  "source": "// SPDX-License-Identifier: MIT\npragma solidity >=0.6.0;\n\nimport \"@openzeppelin/contracts/token/ERC721/ERC721.sol\";\nimport \"@openzeppelin/contracts/access/AccessControlEnumerable.sol\";\nimport \"@openzeppelin/contracts/access/Ownable.sol\";\nimport \"@openzeppelin/contracts/utils/Counters.sol\";\n\ncontract GreenBond is ERC721, AccessControlEnumerable, Ownable{\n    using Counters for Counters.Counter;\n\n    string private _baseTokenURI;\n    Counters.Counter private _tokenIdTracker;\n    bool private _paused;\n\n    address [] public _investors;\n\n    address _owner;\n    address payable _company;\n    address _regulator; // this could be hard coded\n    address _greenVerifier;\n    uint256 _value;\n    uint256 _coupon;\n    uint256 _totalValueRaisedRaised;\n\n    /**\n     * @dev Emitted when an investor registers initial investment request\n     */\n    event Investment(address investor, uint256 value);\n    \n    /**\n     * @dev Emitted when coins are refunded to the investor in case there are\n            too many coins for the investment\n     */\n    event CoinRefund(address investor, uint256 value);\n    \n    /**\n     * @dev Emitted when a coupon payment has been made\n     */\n    event CouponPayment(address investor, uint256 tokenId);\n\n    /**\n     * @dev Emitted when the pause is triggered by a pauser (regulator).\n     */\n    event Paused(address account);\n\n    /**\n     * @dev Emitted when the pause is lifted by a pauser (regulator).\n     */\n    event Unpaused(address account);\n\n    /**\n     * @dev Emmitted when coupon payment is adjusted\n     */\n    event CouponAdjustment(address adjuster, uint256 couponRate);\n\n    mapping (address => uint256) _investedAmountPerInvestor;\n\n    \n\n    bytes32 public constant MINTER_ROLE = keccak256(\"MINTER_ROLE\");\n    \n    // Will need to add pauser address as constructor parameter (financial regulator)\n    constructor(string memory name, string memory symbol, string memory baseTokenURI, \n    address company, uint256 value, uint256 coupon) ERC721 (name, symbol) {\n        require(coupon >= 0, \"Coupon payment can't be negative\");\n        _owner = msg.sender;\n        _baseTokenURI = baseTokenURI;\n        _company = payable(company);\n        _value = value;\n        _coupon = coupon;\n        _paused = false;\n\n        _setupRole(MINTER_ROLE, _msgSender());    \n    }\n\n    function getValue() public view returns(uint256) {\n        return _value;\n    }\n\n    function getCoupon() public view returns(uint256) {\n        return _coupon;\n    }\n\n    function numberOfInvestors() public view returns(uint256) {\n        return _investors.length;\n    }\n    \n    function tokenCount() public view returns(uint256) {\n        return _tokenIdTracker.current();\n    }\n    \n    \n    function getName() public view returns(string memory) {\n        return name();\n    }\n    \n\n    function setRegulator(address regulator) public onlyOwner {\n        _regulator = regulator;\n    }\n\n    function setGreenVerifier(address greenVerifier) public onlyOwner {\n        _greenVerifier = greenVerifier;\n    }\n\n    function getInvestorBalance(address investor) public view returns (uint){\n        require(investor != address(0), \"Balance query for the zero address\");\n        return _investedAmountPerInvestor[investor];\n    }\n\n    function _baseURI() internal view override returns (string memory) {\n        return _baseTokenURI;\n    }\n\n    // Needed to override this function as two parent classes defined the same function\n    function supportsInterface(bytes4 interfaceId) public view virtual override(AccessControlEnumerable, ERC721) returns (bool) {\n        return super.supportsInterface(interfaceId);\n    }\n\n    // Function to register investment interest (requires staking money on the contract)\n    function registerInvestment(uint256 number) public payable {\n        // Require that the investor has enough coins\n        require(msg.value >= number * _value, \"not enough coins for the amount\");\n\n        // Check if investor already on the list\n        if (_investedAmountPerInvestor[msg.sender] == 0) {\n            _investors.push(msg.sender);\n        }\n        \n        // Register the investment\n        uint256 currentAmount = _investedAmountPerInvestor[msg.sender];\n        _investedAmountPerInvestor[msg.sender] = currentAmount + msg.value;\n        // Emit event\n        emit Investment(msg.sender, msg.value);\n    }\n\n\n    // Function to issue tokens for registered investors\n    // Assumes all investors will get tokens\n    function issueTokens() external {\n        require(hasRole(MINTER_ROLE, _msgSender()), \"Minter must have minter role to mint\");\n\n        // Iterate through each investor\n        for (uint i = 0; i < _investors.length; i++) {\n            address investor = _investors[i];\n            uint256 numberOfTokens = _investedAmountPerInvestor[investor] / _value;\n            _company.transfer(_value * numberOfTokens); \n            \n            // If the invested amount would be greated than the amount needed for investment\n            // Return the remainder back to the investor\n            if (_investedAmountPerInvestor[investor] > numberOfTokens * _value) {\n                payable(investor).transfer(_investedAmountPerInvestor[investor] - numberOfTokens * _value);\n                emit CoinRefund(investor, _investedAmountPerInvestor[investor] - numberOfTokens * _value);\n            }\n\n            // Update the records\n            _investedAmountPerInvestor[investor] = 0;\n            _totalValueRaisedRaised = _totalValueRaisedRaised + _value * numberOfTokens;\n\n            // Issue tokens\n            for (uint j = 0; j < numberOfTokens; j++) {  \n                _mint(investor, _tokenIdTracker.current());\n                _tokenIdTracker.increment();\n            }\n        }\n    }\n    // Requires that the minter has minter role\n    // Automatically creates tokenURI with baseURI concatenated with TokenId\n    function issueTokens(uint256 numberOfTokens, address to) public payable {\n        require(hasRole(MINTER_ROLE, _msgSender()), \"Minter must have minter role to mint\");\n\n        // Transfer the money to the issuer\n        //require(msg.value >= _value * numberOfTokens, \"Not enough money send for the tokens\");\n        require(_investedAmountPerInvestor[to] >= numberOfTokens * _value, \"Investor has not enough funds for the tokens\");\n        //_company.transfer(msg.value);\n        //_totalValueRaisedRaised = _totalValueRaisedRaised + msg.value;\n\n        // Transfer coins and reduce the investors investment balance\n        _company.transfer(_value * numberOfTokens); \n        _investedAmountPerInvestor[to] = _investedAmountPerInvestor[to] - numberOfTokens * _value;\n        _totalValueRaisedRaised = _totalValueRaisedRaised + numberOfTokens * _value;\n\n        for (uint i = 0; i < numberOfTokens; i++) {  \n            _mint(to, _tokenIdTracker.current());\n            _tokenIdTracker.increment();\n        }\n    }\n\n    // Function for the borrowing company to pay coupons\n    function payCoupons() public payable {\n        // Message needs to have enough value for the copupon payments\n        require(msg.value >= _coupon * _tokenIdTracker.current(), \"Not enough coins for coupons\");\n        for (uint i = 0; i < _tokenIdTracker.current(); i++) {\n            address payable investor = payable(ownerOf(i));\n            investor.transfer(_coupon);\n            emit CouponPayment(investor, i);\n        }\n    }\n\n    // This function should be called by the borrowing company\n    function payBackBond() public payable {\n        require(msg.sender == _company, \"Paying company should be the borrowing company\");\n        require(msg.value >= _totalValueRaisedRaised, \"Not enough coins to settle the bond at maturity\");\n        \n        // Interate through the tokens\n        for(uint i = 0; i < _tokenIdTracker.current(); i++) {\n            address payable investor = payable(ownerOf(i));\n            // Transfer token from investor to owner\n            tokenTransfer(investor, _owner, i);\n            // Return funds\n            investor.transfer(_value);\n            // Decrement the values\n            _totalValueRaisedRaised = _totalValueRaisedRaised - _value;\n            _tokenIdTracker.decrement();\n        }\n    }\n\n    // Not needed anymore\n    function returnTokensAtMaturity() external onlyOwner {\n        // Check that the contract has the right amount of money to send back to the investors\n        require(address(this).balance >= _totalValueRaisedRaised, \"There's not enough stable coin for settlement\");\n        for(uint i = 0; i < _tokenIdTracker.current(); i++) {\n            address payable investor = payable(ownerOf(i));\n            // Get the tokens back\n            tokenTransfer(investor, owner(), i);\n            // Return the stable coin value\n            investor.transfer(_value);    \n        }\n    }\n\n    // WILL NEED TO ADD VALUE TRANSFER NEXT\n    function tokenTransfer(address from, address to, uint256 tokenId) internal {\n        _transfer(from, to, tokenId);\n    }\n\n    // Pauser functions\n    /**\n     * @dev Returns true if the contract is paused, and false otherwise.\n     */\n    function paused() public view returns (bool) {\n        return _paused;\n    }\n\n    /**\n     * @dev Modifier to make a function callable only when the contract is not paused.\n     */\n    modifier whenNotPaused() {\n        require(!_paused, \"Pausable: paused\");\n        _;\n    }\n\n    /**\n     * @dev Modifier to make a function callable only when the contract is paused.\n     */\n    modifier whenPaused() {\n        require(_paused, \"Pausable: not paused\");\n        _;\n    }\n\n    /**\n     * @dev Called by a pauser to pause, triggers stopped state.\n     */\n    function pause() public whenNotPaused {\n        require(msg.sender == _regulator, \"Pauser can only be the regulator\");\n        _paused = true;\n        emit Paused(_msgSender());\n    }\n\n    /**\n     * @dev Called by a pauser to unpause, returns to normal state.\n     */\n    function unpause() public whenPaused {\n        require(msg.sender == _regulator, \"Unpauser can only be the regulator\");\n        _paused = false;\n        emit Unpaused(_msgSender());\n    }\n\n    function adjustCoupon(bool increase, uint256 amount) external {\n        require(msg.sender == _greenVerifier);\n        if (increase){\n            _coupon = _coupon + amount;\n        } else {\n            require(amount <= _coupon, \"Coupon payment can't be negative\");\n            _coupon = _coupon - amount;\n        }\n        emit CouponAdjustment(msg.sender, _coupon);\n    }\n\n}",
  "sourcePath": "/Users/leena/Documents/Coding/Blockchain_Green_Bonds/testProjects/OZ_test/contracts/GreenBond.sol",
  "compiler": {
    "name": "solc",
    "version": "0.8.0+commit.c7dfd78e.Emscripten.clang"
  },
  "schemaVersion": "3.3.4",
  "updatedAt": "2021-06-25T09:34:00.526Z",
  "networkType": "ethereum",
  "devdoc": {
    "events": {
      "CoinRefund(address,uint256)": {
        "details": "Emitted when coins are refunded to the investor in case there are too many coins for the investment"
      },
      "CouponAdjustment(address,uint256)": {
        "details": "Emmitted when coupon payment is adjusted"
      },
      "CouponPayment(address,uint256)": {
        "details": "Emitted when a coupon payment has been made"
      },
      "Investment(address,uint256)": {
        "details": "Emitted when an investor registers initial investment request"
      },
      "Paused(address)": {
        "details": "Emitted when the pause is triggered by a pauser (regulator)."
      },
      "Unpaused(address)": {
        "details": "Emitted when the pause is lifted by a pauser (regulator)."
      }
    },
    "kind": "dev",
    "methods": {
      "approve(address,uint256)": {
        "details": "See {IERC721-approve}."
      },
      "balanceOf(address)": {
        "details": "See {IERC721-balanceOf}."
      },
      "getApproved(uint256)": {
        "details": "See {IERC721-getApproved}."
      },
      "getRoleAdmin(bytes32)": {
        "details": "Returns the admin role that controls `role`. See {grantRole} and {revokeRole}. To change a role's admin, use {_setRoleAdmin}."
      },
      "getRoleMember(bytes32,uint256)": {
        "details": "Returns one of the accounts that have `role`. `index` must be a value between 0 and {getRoleMemberCount}, non-inclusive. Role bearers are not sorted in any particular way, and their ordering may change at any point. WARNING: When using {getRoleMember} and {getRoleMemberCount}, make sure you perform all queries on the same block. See the following https://forum.openzeppelin.com/t/iterating-over-elements-on-enumerableset-in-openzeppelin-contracts/2296[forum post] for more information."
      },
      "getRoleMemberCount(bytes32)": {
        "details": "Returns the number of accounts that have `role`. Can be used together with {getRoleMember} to enumerate all bearers of a role."
      },
      "grantRole(bytes32,address)": {
        "details": "Overload {grantRole} to track enumerable memberships"
      },
      "hasRole(bytes32,address)": {
        "details": "Returns `true` if `account` has been granted `role`."
      },
      "isApprovedForAll(address,address)": {
        "details": "See {IERC721-isApprovedForAll}."
      },
      "name()": {
        "details": "See {IERC721Metadata-name}."
      },
      "owner()": {
        "details": "Returns the address of the current owner."
      },
      "ownerOf(uint256)": {
        "details": "See {IERC721-ownerOf}."
      },
      "pause()": {
        "details": "Called by a pauser to pause, triggers stopped state."
      },
      "paused()": {
        "details": "Returns true if the contract is paused, and false otherwise."
      },
      "renounceOwnership()": {
        "details": "Leaves the contract without owner. It will not be possible to call `onlyOwner` functions anymore. Can only be called by the current owner. NOTE: Renouncing ownership will leave the contract without an owner, thereby removing any functionality that is only available to the owner."
      },
      "renounceRole(bytes32,address)": {
        "details": "Overload {renounceRole} to track enumerable memberships"
      },
      "revokeRole(bytes32,address)": {
        "details": "Overload {revokeRole} to track enumerable memberships"
      },
      "safeTransferFrom(address,address,uint256)": {
        "details": "See {IERC721-safeTransferFrom}."
      },
      "safeTransferFrom(address,address,uint256,bytes)": {
        "details": "See {IERC721-safeTransferFrom}."
      },
      "setApprovalForAll(address,bool)": {
        "details": "See {IERC721-setApprovalForAll}."
      },
      "symbol()": {
        "details": "See {IERC721Metadata-symbol}."
      },
      "tokenURI(uint256)": {
        "details": "See {IERC721Metadata-tokenURI}."
      },
      "transferFrom(address,address,uint256)": {
        "details": "See {IERC721-transferFrom}."
      },
      "transferOwnership(address)": {
        "details": "Transfers ownership of the contract to a new account (`newOwner`). Can only be called by the current owner."
      },
      "unpause()": {
        "details": "Called by a pauser to unpause, returns to normal state."
      }
    },
    "version": 1
  },
  "userdoc": {
    "kind": "user",
    "methods": {},
    "version": 1
  }
}