{
  "contractName": "GreenBond2",
  "abi": [
    {
      "inputs": [
        {
          "internalType": "address",
          "name": "company",
          "type": "address"
        },
        {
          "internalType": "string",
          "name": "name",
          "type": "string"
        },
        {
          "internalType": "string",
          "name": "symbol",
          "type": "string"
        },
        {
          "internalType": "uint256",
          "name": "numberOfBondsSought",
          "type": "uint256"
        },
        {
          "internalType": "uint256",
          "name": "minCoupon",
          "type": "uint256"
        },
        {
          "internalType": "uint256",
          "name": "maxCoupon",
          "type": "uint256"
        },
        {
          "internalType": "uint256",
          "name": "bidClosingTime",
          "type": "uint256"
        },
        {
          "internalType": "uint256",
          "name": "term",
          "type": "uint256"
        },
        {
          "internalType": "uint256",
          "name": "couponsPerYear",
          "type": "uint256"
        },
        {
          "internalType": "string",
          "name": "baseBondURI",
          "type": "string"
        }
      ],
      "stateMutability": "nonpayable",
      "type": "constructor"
    },
    {
      "anonymous": false,
      "inputs": [
        {
          "indexed": true,
          "internalType": "address",
          "name": "owner",
          "type": "address"
        },
        {
          "indexed": true,
          "internalType": "address",
          "name": "approved",
          "type": "address"
        },
        {
          "indexed": true,
          "internalType": "uint256",
          "name": "tokenId",
          "type": "uint256"
        }
      ],
      "name": "Approval",
      "type": "event"
    },
    {
      "anonymous": false,
      "inputs": [
        {
          "indexed": true,
          "internalType": "address",
          "name": "owner",
          "type": "address"
        },
        {
          "indexed": true,
          "internalType": "address",
          "name": "operator",
          "type": "address"
        },
        {
          "indexed": false,
          "internalType": "bool",
          "name": "approved",
          "type": "bool"
        }
      ],
      "name": "ApprovalForAll",
      "type": "event"
    },
    {
      "anonymous": false,
      "inputs": [
        {
          "indexed": false,
          "internalType": "address",
          "name": "bidder",
          "type": "address"
        },
        {
          "indexed": false,
          "internalType": "uint256",
          "name": "coupon",
          "type": "uint256"
        },
        {
          "indexed": false,
          "internalType": "uint256",
          "name": "numberOfBonds",
          "type": "uint256"
        }
      ],
      "name": "Bid",
      "type": "event"
    },
    {
      "anonymous": false,
      "inputs": [
        {
          "indexed": false,
          "internalType": "uint256",
          "name": "actualDemand",
          "type": "uint256"
        },
        {
          "indexed": false,
          "internalType": "uint256",
          "name": "requestedDemand",
          "type": "uint256"
        }
      ],
      "name": "CancelBondIssue",
      "type": "event"
    },
    {
      "anonymous": false,
      "inputs": [
        {
          "indexed": false,
          "internalType": "address",
          "name": "account",
          "type": "address"
        },
        {
          "indexed": false,
          "internalType": "uint256",
          "name": "value",
          "type": "uint256"
        }
      ],
      "name": "CoinRefund",
      "type": "event"
    },
    {
      "anonymous": false,
      "inputs": [
        {
          "indexed": false,
          "internalType": "uint256",
          "name": "from",
          "type": "uint256"
        },
        {
          "indexed": false,
          "internalType": "uint256",
          "name": "to",
          "type": "uint256"
        }
      ],
      "name": "CouponAdjustment",
      "type": "event"
    },
    {
      "anonymous": false,
      "inputs": [
        {
          "indexed": false,
          "internalType": "address",
          "name": "investor",
          "type": "address"
        },
        {
          "indexed": false,
          "internalType": "uint256",
          "name": "bondId",
          "type": "uint256"
        }
      ],
      "name": "CouponPayment",
      "type": "event"
    },
    {
      "anonymous": false,
      "inputs": [
        {
          "indexed": false,
          "internalType": "uint256",
          "name": "coupon",
          "type": "uint256"
        }
      ],
      "name": "CouponSet",
      "type": "event"
    },
    {
      "anonymous": false,
      "inputs": [
        {
          "indexed": true,
          "internalType": "address",
          "name": "previousOwner",
          "type": "address"
        },
        {
          "indexed": true,
          "internalType": "address",
          "name": "newOwner",
          "type": "address"
        }
      ],
      "name": "OwnershipTransferred",
      "type": "event"
    },
    {
      "anonymous": false,
      "inputs": [
        {
          "indexed": true,
          "internalType": "address",
          "name": "from",
          "type": "address"
        },
        {
          "indexed": true,
          "internalType": "address",
          "name": "to",
          "type": "address"
        },
        {
          "indexed": true,
          "internalType": "uint256",
          "name": "tokenId",
          "type": "uint256"
        }
      ],
      "name": "Transfer",
      "type": "event"
    },
    {
      "inputs": [
        {
          "internalType": "address",
          "name": "to",
          "type": "address"
        },
        {
          "internalType": "uint256",
          "name": "tokenId",
          "type": "uint256"
        }
      ],
      "name": "approve",
      "outputs": [],
      "stateMutability": "nonpayable",
      "type": "function"
    },
    {
      "inputs": [
        {
          "internalType": "address",
          "name": "owner",
          "type": "address"
        }
      ],
      "name": "balanceOf",
      "outputs": [
        {
          "internalType": "uint256",
          "name": "",
          "type": "uint256"
        }
      ],
      "stateMutability": "view",
      "type": "function"
    },
    {
      "inputs": [
        {
          "internalType": "uint256",
          "name": "tokenId",
          "type": "uint256"
        }
      ],
      "name": "getApproved",
      "outputs": [
        {
          "internalType": "address",
          "name": "",
          "type": "address"
        }
      ],
      "stateMutability": "view",
      "type": "function"
    },
    {
      "inputs": [
        {
          "internalType": "address",
          "name": "owner",
          "type": "address"
        },
        {
          "internalType": "address",
          "name": "operator",
          "type": "address"
        }
      ],
      "name": "isApprovedForAll",
      "outputs": [
        {
          "internalType": "bool",
          "name": "",
          "type": "bool"
        }
      ],
      "stateMutability": "view",
      "type": "function"
    },
    {
      "inputs": [],
      "name": "name",
      "outputs": [
        {
          "internalType": "string",
          "name": "",
          "type": "string"
        }
      ],
      "stateMutability": "view",
      "type": "function"
    },
    {
      "inputs": [],
      "name": "owner",
      "outputs": [
        {
          "internalType": "address",
          "name": "",
          "type": "address"
        }
      ],
      "stateMutability": "view",
      "type": "function"
    },
    {
      "inputs": [
        {
          "internalType": "uint256",
          "name": "tokenId",
          "type": "uint256"
        }
      ],
      "name": "ownerOf",
      "outputs": [
        {
          "internalType": "address",
          "name": "",
          "type": "address"
        }
      ],
      "stateMutability": "view",
      "type": "function"
    },
    {
      "inputs": [],
      "name": "renounceOwnership",
      "outputs": [],
      "stateMutability": "nonpayable",
      "type": "function"
    },
    {
      "inputs": [
        {
          "internalType": "address",
          "name": "from",
          "type": "address"
        },
        {
          "internalType": "address",
          "name": "to",
          "type": "address"
        },
        {
          "internalType": "uint256",
          "name": "tokenId",
          "type": "uint256"
        }
      ],
      "name": "safeTransferFrom",
      "outputs": [],
      "stateMutability": "nonpayable",
      "type": "function"
    },
    {
      "inputs": [
        {
          "internalType": "address",
          "name": "from",
          "type": "address"
        },
        {
          "internalType": "address",
          "name": "to",
          "type": "address"
        },
        {
          "internalType": "uint256",
          "name": "tokenId",
          "type": "uint256"
        },
        {
          "internalType": "bytes",
          "name": "_data",
          "type": "bytes"
        }
      ],
      "name": "safeTransferFrom",
      "outputs": [],
      "stateMutability": "nonpayable",
      "type": "function"
    },
    {
      "inputs": [
        {
          "internalType": "address",
          "name": "operator",
          "type": "address"
        },
        {
          "internalType": "bool",
          "name": "approved",
          "type": "bool"
        }
      ],
      "name": "setApprovalForAll",
      "outputs": [],
      "stateMutability": "nonpayable",
      "type": "function"
    },
    {
      "inputs": [],
      "name": "symbol",
      "outputs": [
        {
          "internalType": "string",
          "name": "",
          "type": "string"
        }
      ],
      "stateMutability": "view",
      "type": "function"
    },
    {
      "inputs": [
        {
          "internalType": "uint256",
          "name": "tokenId",
          "type": "uint256"
        }
      ],
      "name": "tokenURI",
      "outputs": [
        {
          "internalType": "string",
          "name": "",
          "type": "string"
        }
      ],
      "stateMutability": "view",
      "type": "function"
    },
    {
      "inputs": [
        {
          "internalType": "address",
          "name": "from",
          "type": "address"
        },
        {
          "internalType": "address",
          "name": "to",
          "type": "address"
        },
        {
          "internalType": "uint256",
          "name": "tokenId",
          "type": "uint256"
        }
      ],
      "name": "transferFrom",
      "outputs": [],
      "stateMutability": "nonpayable",
      "type": "function"
    },
    {
      "inputs": [
        {
          "internalType": "address",
          "name": "newOwner",
          "type": "address"
        }
      ],
      "name": "transferOwnership",
      "outputs": [],
      "stateMutability": "nonpayable",
      "type": "function"
    },
    {
      "inputs": [],
      "name": "getCompany",
      "outputs": [
        {
          "internalType": "address",
          "name": "",
          "type": "address"
        }
      ],
      "stateMutability": "view",
      "type": "function"
    },
    {
      "inputs": [],
      "name": "getFaceValue",
      "outputs": [
        {
          "internalType": "uint256",
          "name": "",
          "type": "uint256"
        }
      ],
      "stateMutability": "view",
      "type": "function"
    },
    {
      "inputs": [],
      "name": "getMinCoupon",
      "outputs": [
        {
          "internalType": "uint256",
          "name": "",
          "type": "uint256"
        }
      ],
      "stateMutability": "view",
      "type": "function"
    },
    {
      "inputs": [],
      "name": "getMaxCoupon",
      "outputs": [
        {
          "internalType": "uint256",
          "name": "",
          "type": "uint256"
        }
      ],
      "stateMutability": "view",
      "type": "function"
    },
    {
      "inputs": [],
      "name": "getCoupon",
      "outputs": [
        {
          "internalType": "uint256",
          "name": "",
          "type": "uint256"
        }
      ],
      "stateMutability": "view",
      "type": "function"
    },
    {
      "inputs": [],
      "name": "getNumberOfBondsSought",
      "outputs": [
        {
          "internalType": "uint256",
          "name": "",
          "type": "uint256"
        }
      ],
      "stateMutability": "view",
      "type": "function"
    },
    {
      "inputs": [],
      "name": "getTerm",
      "outputs": [
        {
          "internalType": "uint256",
          "name": "",
          "type": "uint256"
        }
      ],
      "stateMutability": "view",
      "type": "function"
    },
    {
      "inputs": [],
      "name": "getTotalDebt",
      "outputs": [
        {
          "internalType": "uint256",
          "name": "",
          "type": "uint256"
        }
      ],
      "stateMutability": "view",
      "type": "function"
    },
    {
      "inputs": [],
      "name": "getBidClosingTime",
      "outputs": [
        {
          "internalType": "uint256",
          "name": "",
          "type": "uint256"
        }
      ],
      "stateMutability": "view",
      "type": "function"
    },
    {
      "inputs": [],
      "name": "getIssueDate",
      "outputs": [
        {
          "internalType": "uint256",
          "name": "",
          "type": "uint256"
        }
      ],
      "stateMutability": "view",
      "type": "function"
    },
    {
      "inputs": [],
      "name": "getMaturityDate",
      "outputs": [
        {
          "internalType": "uint256",
          "name": "",
          "type": "uint256"
        }
      ],
      "stateMutability": "view",
      "type": "function"
    },
    {
      "inputs": [],
      "name": "couponDefined",
      "outputs": [
        {
          "internalType": "bool",
          "name": "",
          "type": "bool"
        }
      ],
      "stateMutability": "view",
      "type": "function"
    },
    {
      "inputs": [],
      "name": "cancelled",
      "outputs": [
        {
          "internalType": "bool",
          "name": "",
          "type": "bool"
        }
      ],
      "stateMutability": "view",
      "type": "function"
    },
    {
      "inputs": [],
      "name": "getNumberOfCoupons",
      "outputs": [
        {
          "internalType": "uint256",
          "name": "",
          "type": "uint256"
        }
      ],
      "stateMutability": "view",
      "type": "function"
    },
    {
      "inputs": [],
      "name": "getNumberOfCouponsPaid",
      "outputs": [
        {
          "internalType": "uint256",
          "name": "",
          "type": "uint256"
        }
      ],
      "stateMutability": "view",
      "type": "function"
    },
    {
      "inputs": [
        {
          "internalType": "uint256",
          "name": "number",
          "type": "uint256"
        }
      ],
      "name": "getCouponDate",
      "outputs": [
        {
          "internalType": "uint256",
          "name": "",
          "type": "uint256"
        }
      ],
      "stateMutability": "view",
      "type": "function"
    },
    {
      "inputs": [
        {
          "internalType": "uint256",
          "name": "number",
          "type": "uint256"
        }
      ],
      "name": "getActualCouponDate",
      "outputs": [
        {
          "internalType": "uint256",
          "name": "",
          "type": "uint256"
        }
      ],
      "stateMutability": "view",
      "type": "function"
    },
    {
      "inputs": [],
      "name": "getCouponDates",
      "outputs": [
        {
          "internalType": "uint256[]",
          "name": "",
          "type": "uint256[]"
        }
      ],
      "stateMutability": "view",
      "type": "function"
    },
    {
      "inputs": [],
      "name": "getActualPricipalPaymentDate",
      "outputs": [
        {
          "internalType": "uint256",
          "name": "",
          "type": "uint256"
        }
      ],
      "stateMutability": "view",
      "type": "function"
    },
    {
      "inputs": [],
      "name": "numberOfInvestors",
      "outputs": [
        {
          "internalType": "uint256",
          "name": "",
          "type": "uint256"
        }
      ],
      "stateMutability": "view",
      "type": "function"
    },
    {
      "inputs": [],
      "name": "bondCount",
      "outputs": [
        {
          "internalType": "uint256",
          "name": "",
          "type": "uint256"
        }
      ],
      "stateMutability": "view",
      "type": "function"
    },
    {
      "inputs": [
        {
          "internalType": "address",
          "name": "investor",
          "type": "address"
        }
      ],
      "name": "getStakedAmountPerInvestor",
      "outputs": [
        {
          "internalType": "uint256",
          "name": "",
          "type": "uint256"
        }
      ],
      "stateMutability": "view",
      "type": "function"
    },
    {
      "inputs": [
        {
          "internalType": "address",
          "name": "investor",
          "type": "address"
        }
      ],
      "name": "getRequestedBondsPerInvestor",
      "outputs": [
        {
          "internalType": "uint256",
          "name": "",
          "type": "uint256"
        }
      ],
      "stateMutability": "view",
      "type": "function"
    },
    {
      "inputs": [
        {
          "internalType": "address",
          "name": "investor",
          "type": "address"
        }
      ],
      "name": "getCouponPerInvestor",
      "outputs": [
        {
          "internalType": "uint256",
          "name": "",
          "type": "uint256"
        }
      ],
      "stateMutability": "view",
      "type": "function"
    },
    {
      "inputs": [
        {
          "internalType": "uint256",
          "name": "coupon",
          "type": "uint256"
        }
      ],
      "name": "getBiddersAtCoupon",
      "outputs": [
        {
          "internalType": "address[]",
          "name": "",
          "type": "address[]"
        }
      ],
      "stateMutability": "view",
      "type": "function"
    },
    {
      "inputs": [],
      "name": "biddingWindowisOpen",
      "outputs": [
        {
          "internalType": "bool",
          "name": "",
          "type": "bool"
        }
      ],
      "stateMutability": "view",
      "type": "function"
    },
    {
      "inputs": [
        {
          "internalType": "bytes4",
          "name": "interfaceId",
          "type": "bytes4"
        }
      ],
      "name": "supportsInterface",
      "outputs": [
        {
          "internalType": "bool",
          "name": "",
          "type": "bool"
        }
      ],
      "stateMutability": "view",
      "type": "function"
    },
    {
      "inputs": [
        {
          "internalType": "uint256",
          "name": "coupon",
          "type": "uint256"
        },
        {
          "internalType": "uint256",
          "name": "numberOfBonds",
          "type": "uint256"
        }
      ],
      "name": "registerBid",
      "outputs": [],
      "stateMutability": "payable",
      "type": "function"
    },
    {
      "inputs": [],
      "name": "defineCoupon",
      "outputs": [],
      "stateMutability": "nonpayable",
      "type": "function"
    },
    {
      "inputs": [],
      "name": "issueBonds",
      "outputs": [],
      "stateMutability": "nonpayable",
      "type": "function"
    },
    {
      "inputs": [],
      "name": "makeCouponPayment",
      "outputs": [],
      "stateMutability": "payable",
      "type": "function"
    },
    {
      "inputs": [
        {
          "internalType": "uint256",
          "name": "coupon",
          "type": "uint256"
        }
      ],
      "name": "couponPaymentOnTime",
      "outputs": [
        {
          "internalType": "string",
          "name": "",
          "type": "string"
        }
      ],
      "stateMutability": "view",
      "type": "function"
    },
    {
      "inputs": [],
      "name": "payBackBond",
      "outputs": [],
      "stateMutability": "payable",
      "type": "function"
    },
    {
      "inputs": [],
      "name": "principalPaidOnTime",
      "outputs": [
        {
          "internalType": "string",
          "name": "",
          "type": "string"
        }
      ],
      "stateMutability": "view",
      "type": "function"
    },
    {
      "inputs": [
        {
          "internalType": "bool",
          "name": "increase",
          "type": "bool"
        },
        {
          "internalType": "uint256",
          "name": "amount",
          "type": "uint256"
        }
      ],
      "name": "adjustCoupon",
      "outputs": [],
      "stateMutability": "nonpayable",
      "type": "function"
    }
  ],
  "bytecode": "0x60806040526000600960006101000a81548160ff0219169083151502179055506000600960016101000a81548160ff0219169083151502179055503480156200004757600080fd5b50604051620066b4380380620066b483398181016040528101906200006d9190620005a0565b888881600090805190602001906200008792919062000450565b508060019080519060200190620000a092919062000450565b5050506000620000b56200044860201b60201c565b905080600660006101000a81548173ffffffffffffffffffffffffffffffffffffffff021916908373ffffffffffffffffffffffffffffffffffffffff1602179055508073ffffffffffffffffffffffffffffffffffffffff16600073ffffffffffffffffffffffffffffffffffffffff167f8be0079c531659141344cd1fd0a4f28419497f9722a3daafe3b4186f6b6457e060405160405180910390a350600073ffffffffffffffffffffffffffffffffffffffff168a73ffffffffffffffffffffffffffffffffffffffff161415620001c7576040517f08c379a0000000000000000000000000000000000000000000000000000000008152600401620001be9062000831565b60405180910390fd5b8585116200020c576040517f08c379a000000000000000000000000000000000000000000000000000000000815260040162000203906200080f565b60405180910390fd5b42841162000251576040517f08c379a00000000000000000000000000000000000000000000000000000000081526004016200024890620007ed565b60405180910390fd5b33600b60006101000a81548173ffffffffffffffffffffffffffffffffffffffff021916908373ffffffffffffffffffffffffffffffffffffffff16021790555089600c60006101000a81548173ffffffffffffffffffffffffffffffffffffffff021916908373ffffffffffffffffffffffffffffffffffffffff16021790555086600e81905550856010819055508460118190555060006012819055506064600d8190555060006016819055508360178190555080600890805190602001906200031f92919062000450565b5062093a80601754620003339190620008cb565b6018819055508260138190555081601481905550828262000355919062000960565b6015819055506301e13380836200036d919062000960565b6018546200037c9190620008cb565b6019819055506000601a819055506000826301e133806200039e919062000928565b90506000600190505b60155481116200043657601b8183620003c1919062000960565b601854620003d09190620008cb565b9080600181540180825580915050600190039060005260206000200160009091909190915055601c6000908060018154018082558091505060019003906000526020600020016000909190919091505580806200042d9062000a6b565b915050620003a7565b50505050505050505050505062000ba9565b600033905090565b8280546200045e9062000a35565b90600052602060002090601f016020900481019282620004825760008555620004ce565b82601f106200049d57805160ff1916838001178555620004ce565b82800160010185558215620004ce579182015b82811115620004cd578251825591602001919060010190620004b0565b5b509050620004dd9190620004e1565b5090565b5b80821115620004fc576000816000905550600101620004e2565b5090565b600062000517620005118462000887565b62000853565b9050828152602081018484840111156200053057600080fd5b6200053d848285620009ff565b509392505050565b600081519050620005568162000b75565b92915050565b600082601f8301126200056e57600080fd5b81516200058084826020860162000500565b91505092915050565b6000815190506200059a8162000b8f565b92915050565b6000806000806000806000806000806101408b8d031215620005c157600080fd5b6000620005d18d828e0162000545565b9a505060208b015167ffffffffffffffff811115620005ef57600080fd5b620005fd8d828e016200055c565b99505060408b015167ffffffffffffffff8111156200061b57600080fd5b620006298d828e016200055c565b98505060606200063c8d828e0162000589565b97505060806200064f8d828e0162000589565b96505060a0620006628d828e0162000589565b95505060c0620006758d828e0162000589565b94505060e0620006888d828e0162000589565b9350506101006200069c8d828e0162000589565b9250506101208b015167ffffffffffffffff811115620006bb57600080fd5b620006c98d828e016200055c565b9150509295989b9194979a5092959850565b6000620006ea602183620008ba565b91507f436c6f73696e672074696d652063616e277420626520696e207468652070617360008301527f74000000000000000000000000000000000000000000000000000000000000006020830152604082019050919050565b600062000752602e83620008ba565b91507f6d617820636f75706f6e206e6565647320746f2062652067726561746572207460008301527f68616e206d696e20636f75706f6e0000000000000000000000000000000000006020830152604082019050919050565b6000620007ba601e83620008ba565b91507f436f6d70616e7920616464726573732063616e206e6f742062652030783000006000830152602082019050919050565b600060208201905081810360008301526200080881620006db565b9050919050565b600060208201905081810360008301526200082a8162000743565b9050919050565b600060208201905081810360008301526200084c81620007ab565b9050919050565b6000604051905081810181811067ffffffffffffffff821117156200087d576200087c62000b46565b5b8060405250919050565b600067ffffffffffffffff821115620008a557620008a462000b46565b5b601f19601f8301169050602081019050919050565b600082825260208201905092915050565b6000620008d882620009f5565b9150620008e583620009f5565b9250827fffffffffffffffffffffffffffffffffffffffffffffffffffffffffffffffff038211156200091d576200091c62000ab9565b5b828201905092915050565b60006200093582620009f5565b91506200094283620009f5565b92508262000955576200095462000ae8565b5b828204905092915050565b60006200096d82620009f5565b91506200097a83620009f5565b9250817fffffffffffffffffffffffffffffffffffffffffffffffffffffffffffffffff0483118215151615620009b657620009b562000ab9565b5b828202905092915050565b6000620009ce82620009d5565b9050919050565b600073ffffffffffffffffffffffffffffffffffffffff82169050919050565b6000819050919050565b60005b8381101562000a1f57808201518184015260208101905062000a02565b8381111562000a2f576000848401525b50505050565b6000600282049050600182168062000a4e57607f821691505b6020821081141562000a655762000a6462000b17565b5b50919050565b600062000a7882620009f5565b91507fffffffffffffffffffffffffffffffffffffffffffffffffffffffffffffffff82141562000aae5762000aad62000ab9565b5b600182019050919050565b7f4e487b7100000000000000000000000000000000000000000000000000000000600052601160045260246000fd5b7f4e487b7100000000000000000000000000000000000000000000000000000000600052601260045260246000fd5b7f4e487b7100000000000000000000000000000000000000000000000000000000600052602260045260246000fd5b7f4e487b7100000000000000000000000000000000000000000000000000000000600052604160045260246000fd5b62000b8081620009c1565b811462000b8c57600080fd5b50565b62000b9a81620009f5565b811462000ba657600080fd5b50565b615afb8062000bb96000396000f3fe6080604052600436106102c85760003560e01c80637edd13c511610175578063ab20df01116100dc578063ccc716ab11610095578063e985e9c51161006f578063e985e9c514610ab6578063ec18efc414610af3578063efd8672914610b30578063f2fde38b14610b59576102c8565b8063ccc716ab14610a35578063d24f84b114610a60578063d4fc7cd914610a8b576102c8565b8063ab20df01146108ff578063b0603ec21461093c578063b88d4fde14610979578063bfa2a5a4146109a2578063c6b10134146109cd578063c87b56dd146109f8576102c8565b806395d89b411161012e57806395d89b411461080e5780639737fcff146108395780639a82a09a146108645780639afbb5a01461088f578063a22cb465146108cc578063a3e2ed9e146108f5576102c8565b80637edd13c51461070e578063870f1cc9146107395780638da5cb5b146107765780638edd4d24146107a1578063915dd036146107cc578063924091dc146107f7576102c8565b80631e1a0124116102345780634cff6c0e116101ed5780636352211e116101c75780636352211e146106525780636f3ed9d71461068f57806370a08231146106ba578063715018a6146106f7576102c8565b80634cff6c0e146106065780635de9f20a1461061057806361c49ebf1461063b576102c8565b80631e1a0124146104f65780631f3885a71461053357806323b872dd1461055e57806334ce998a1461058757806334f56f8c146105b257806342842e0e146105dd576102c8565b80630c364957116102865780630c364957146103f15780630eebfec71461040d578063124b65b41461044a578063127810bc1461047557806317171e14146104a05780631af2c9fd146104cb576102c8565b8062c3d77b146102cd57806301ffc9a7146102f857806306fdde031461033557806307634cbe14610360578063081812fc1461038b578063095ea7b3146103c8575b600080fd5b3480156102d957600080fd5b506102e2610b82565b6040516102ef9190615547565b60405180910390f35b34801561030457600080fd5b5061031f600480360381019061031a919061433a565b610b8c565b60405161032c919061516a565b60405180910390f35b34801561034157600080fd5b5061034a610b9e565b6040516103579190615185565b60405180910390f35b34801561036c57600080fd5b50610375610c30565b6040516103829190615547565b60405180910390f35b34801561039757600080fd5b506103b260048036038101906103ad919061438c565b610c3a565b6040516103bf9190615036565b60405180910390f35b3480156103d457600080fd5b506103ef60048036038101906103ea91906142c2565b610cbf565b005b61040b600480360381019061040691906143b5565b610dd7565b005b34801561041957600080fd5b50610434600480360381019061042f919061438c565b611228565b6040516104419190615126565b60405180910390f35b34801561045657600080fd5b5061045f61131c565b60405161046c9190615547565b60405180910390f35b34801561048157600080fd5b5061048a611326565b6040516104979190615036565b60405180910390f35b3480156104ac57600080fd5b506104b5611350565b6040516104c29190615547565b60405180910390f35b3480156104d757600080fd5b506104e061135a565b6040516104ed9190615547565b60405180910390f35b34801561050257600080fd5b5061051d6004803603810190610518919061438c565b611367565b60405161052a9190615185565b60405180910390f35b34801561053f57600080fd5b50610548611680565b6040516105559190615547565b60405180910390f35b34801561056a57600080fd5b50610585600480360381019061058091906141bc565b61168a565b005b34801561059357600080fd5b5061059c6116ea565b6040516105a99190615547565b60405180910390f35b3480156105be57600080fd5b506105c76116f4565b6040516105d4919061516a565b60405180910390f35b3480156105e957600080fd5b5061060460048036038101906105ff91906141bc565b61170b565b005b61060e61172b565b005b34801561061c57600080fd5b50610625611a19565b604051610632919061516a565b60405180910390f35b34801561064757600080fd5b50610650611a26565b005b34801561065e57600080fd5b506106796004803603810190610674919061438c565b611f86565b6040516106869190615036565b60405180910390f35b34801561069b57600080fd5b506106a4612038565b6040516106b19190615547565b60405180910390f35b3480156106c657600080fd5b506106e160048036038101906106dc9190614157565b612042565b6040516106ee9190615547565b60405180910390f35b34801561070357600080fd5b5061070c6120fa565b005b34801561071a57600080fd5b50610723612237565b6040516107309190615547565b60405180910390f35b34801561074557600080fd5b50610760600480360381019061075b9190614157565b612241565b60405161076d9190615547565b60405180910390f35b34801561078257600080fd5b5061078b61228a565b6040516107989190615036565b60405180910390f35b3480156107ad57600080fd5b506107b66122b4565b6040516107c39190615547565b60405180910390f35b3480156107d857600080fd5b506107e16122c5565b6040516107ee9190615547565b60405180910390f35b34801561080357600080fd5b5061080c6122cf565b005b34801561081a57600080fd5b506108236124d6565b6040516108309190615185565b60405180910390f35b34801561084557600080fd5b5061084e612568565b60405161085b9190615547565b60405180910390f35b34801561087057600080fd5b50610879612572565b604051610886919061516a565b60405180910390f35b34801561089b57600080fd5b506108b660048036038101906108b19190614157565b612589565b6040516108c39190615547565b60405180910390f35b3480156108d857600080fd5b506108f360048036038101906108ee9190614286565b6125d2565b005b6108fd612753565b005b34801561090b57600080fd5b5061092660048036038101906109219190614157565b612a1f565b6040516109339190615547565b60405180910390f35b34801561094857600080fd5b50610963600480360381019061095e919061438c565b612a68565b6040516109709190615547565b60405180910390f35b34801561098557600080fd5b506109a0600480360381019061099b919061420b565b612b12565b005b3480156109ae57600080fd5b506109b7612b74565b6040516109c49190615185565b60405180910390f35b3480156109d957600080fd5b506109e2612cb4565b6040516109ef9190615547565b60405180910390f35b348015610a0457600080fd5b50610a1f6004803603810190610a1a919061438c565b612cbe565b604051610a2c9190615185565b60405180910390f35b348015610a4157600080fd5b50610a4a612d65565b604051610a579190615547565b60405180910390f35b348015610a6c57600080fd5b50610a75612d6f565b604051610a829190615148565b60405180910390f35b348015610a9757600080fd5b50610aa0612dc7565b604051610aad9190615547565b60405180910390f35b348015610ac257600080fd5b50610add6004803603810190610ad89190614180565b612dd1565b604051610aea919061516a565b60405180910390f35b348015610aff57600080fd5b50610b1a6004803603810190610b15919061438c565b612e65565b604051610b279190615547565b60405180910390f35b348015610b3c57600080fd5b50610b576004803603810190610b5291906142fe565b612f0f565b005b348015610b6557600080fd5b50610b806004803603810190610b7b9190614157565b61301e565b005b6000600e54905090565b6000610b97826131ca565b9050919050565b606060008054610bad906158a2565b80601f0160208091040260200160405190810160405280929190818152602001828054610bd9906158a2565b8015610c265780601f10610bfb57610100808354040283529160200191610c26565b820191906000526020600020905b815481529060010190602001808311610c0957829003601f168201915b5050505050905090565b6000601254905090565b6000610c45826132ac565b610c84576040517f08c379a0000000000000000000000000000000000000000000000000000000008152600401610c7b906153a7565b60405180910390fd5b6004600083815260200190815260200160002060009054906101000a900473ffffffffffffffffffffffffffffffffffffffff169050919050565b6000610cca82611f86565b90508073ffffffffffffffffffffffffffffffffffffffff168373ffffffffffffffffffffffffffffffffffffffff161415610d3b576040517f08c379a0000000000000000000000000000000000000000000000000000000008152600401610d3290615467565b60405180910390fd5b8073ffffffffffffffffffffffffffffffffffffffff16610d5a613318565b73ffffffffffffffffffffffffffffffffffffffff161480610d895750610d8881610d83613318565b612dd1565b5b610dc8576040517f08c379a0000000000000000000000000000000000000000000000000000000008152600401610dbf906152e7565b60405180910390fd5b610dd28383613320565b505050565b610ddf611a19565b610e1e576040517f08c379a0000000000000000000000000000000000000000000000000000000008152600401610e15906154c7565b60405180910390fd5b6010548210158015610e3257506011548211155b610e71576040517f08c379a0000000000000000000000000000000000000000000000000000000008152600401610e68906151a7565b60405180910390fd5b80600d54610e7f9190615728565b341015610ec1576040517f08c379a0000000000000000000000000000000000000000000000000000000008152600401610eb890615247565b60405180910390fd5b60001515602060003373ffffffffffffffffffffffffffffffffffffffff1673ffffffffffffffffffffffffffffffffffffffff16815260200190815260200160002060009054906101000a900460ff16151514610f54576040517f08c379a0000000000000000000000000000000000000000000000000000000008152600401610f4b90615507565b60405180910390fd5b6001602060003373ffffffffffffffffffffffffffffffffffffffff1673ffffffffffffffffffffffffffffffffffffffff16815260200190815260200160002060006101000a81548160ff02191690831515021790555080601e60003373ffffffffffffffffffffffffffffffffffffffff1673ffffffffffffffffffffffffffffffffffffffff1681526020019081526020016000208190555081601f60003373ffffffffffffffffffffffffffffffffffffffff1673ffffffffffffffffffffffffffffffffffffffff16815260200190815260200160002081905550600060216000848152602001908152602001600020549050818161105891906156a1565b602160008581526020019081526020016000208190555060226000848152602001908152602001600020339080600181540180825580915050600190039060005260206000200160009091909190916101000a81548173ffffffffffffffffffffffffffffffffffffffff021916908373ffffffffffffffffffffffffffffffffffffffff16021790555081600d546110f19190615728565b601d60003373ffffffffffffffffffffffffffffffffffffffff1673ffffffffffffffffffffffffffffffffffffffff168152602001908152602001600020819055507f19421268847f42dd61705778018ddfc43bcdce8517e7a630acb12f122c709481338484604051611167939291906150ef565b60405180910390a181600d5461117d9190615728565b34111561122357600082600d546111949190615728565b3461119f9190615782565b90503373ffffffffffffffffffffffffffffffffffffffff166108fc829081150290604051600060405180830381858888f193505050501580156111e7573d6000803e3d6000fd5b507f2ee76d0c8417fef3c9f68663d321eb1c1ed0e089b5298177f0582aeadb6fd91f33826040516112199291906150c6565b60405180910390a1505b505050565b6060601054821015801561123e57506011548211155b61127d576040517f08c379a000000000000000000000000000000000000000000000000000000000815260040161127490615527565b60405180910390fd5b6022600083815260200190815260200160002080548060200260200160405190810160405280929190818152602001828054801561131057602002820191906000526020600020905b8160009054906101000a900473ffffffffffffffffffffffffffffffffffffffff1673ffffffffffffffffffffffffffffffffffffffff16815260200190600101908083116112c6575b50505050509050919050565b6000601354905090565b6000600c60009054906101000a900473ffffffffffffffffffffffffffffffffffffffff16905090565b6000601654905090565b6000600a80549050905090565b60606001821080611379575060155482115b156113bb576040518060400160405280601c81526020017f5468617420636f75706f6e20646f6573206e6f74206578697374732e00000000815250905061167b565b601b6001836113ca9190615782565b81548110611401577f4e487b7100000000000000000000000000000000000000000000000000000000600052603260045260246000fd5b90600052602060002001544210156114c8576000601c6001846114249190615782565b8154811061145b577f4e487b7100000000000000000000000000000000000000000000000000000000600052603260045260246000fd5b90600052602060002001541461148b576040518060600160405280602d8152602001615a78602d9139905061167b565b6040518060400160405280601381526020017f436f75706f6e206e6f7420647565207965742e00000000000000000000000000815250905061167b565b6000601c6001846114d99190615782565b81548110611510577f4e487b7100000000000000000000000000000000000000000000000000000000600052603260045260246000fd5b9060005260206000200154141561155e576040518060400160405280601781526020017f436f75706f6e207061796d656e74206973206c6174652e000000000000000000815250905061167b565b601b60018361156d9190615782565b815481106115a4577f4e487b7100000000000000000000000000000000000000000000000000000000600052603260045260246000fd5b9060005260206000200154601c6001846115be9190615782565b815481106115f5577f4e487b7100000000000000000000000000000000000000000000000000000000600052603260045260246000fd5b906000526020600020015411611642576040518060400160405280601481526020017f436f75706f6e2070616964206f6e2074696d652e000000000000000000000000815250905061167b565b6040518060400160405280601181526020017f436f75706f6e2070616964206c6174652e00000000000000000000000000000081525090505b919050565b6000601a54905090565b61169b611695613318565b826133d9565b6116da576040517f08c379a00000000000000000000000000000000000000000000000000000000081526004016116d190615487565b60405180910390fd5b6116e58383836134b7565b505050565b6000600f54905090565b6000600960009054906101000a900460ff16905090565b61172683838360405180602001604052806000815250612b12565b505050565b600c60009054906101000a900473ffffffffffffffffffffffffffffffffffffffff1673ffffffffffffffffffffffffffffffffffffffff163373ffffffffffffffffffffffffffffffffffffffff16146117bb576040517f08c379a00000000000000000000000000000000000000000000000000000000081526004016117b2906152a7565b60405180910390fd5b600f54341015611800576040517f08c379a00000000000000000000000000000000000000000000000000000000081526004016117f790615347565b60405180910390fd5b600061180c6007613713565b905060005b818110156118d057600061182482611f86565b905061185381600b60009054906101000a900473ffffffffffffffffffffffffffffffffffffffff16846134b7565b8073ffffffffffffffffffffffffffffffffffffffff166108fc600d549081150290604051600060405180830381858888f1935050505015801561189b573d6000803e3d6000fd5b50600d54600f546118ac9190615782565b600f819055506118bc6007613721565b5080806118c8906158d4565b915050611811565b5042601a819055506000471180156118e95750600f5434115b15611a16576000600f54346118fe9190615782565b9050804710156119935760004790503373ffffffffffffffffffffffffffffffffffffffff166108fc829081150290604051600060405180830381858888f19350505050158015611953573d6000803e3d6000fd5b507f2ee76d0c8417fef3c9f68663d321eb1c1ed0e089b5298177f0582aeadb6fd91f33826040516119859291906150c6565b60405180910390a150611a14565b3373ffffffffffffffffffffffffffffffffffffffff166108fc829081150290604051600060405180830381858888f193505050501580156119d9573d6000803e3d6000fd5b507f2ee76d0c8417fef3c9f68663d321eb1c1ed0e089b5298177f0582aeadb6fd91f3382604051611a0b9291906150c6565b60405180910390a15b505b50565b6000601754421115905090565b611a2e613318565b73ffffffffffffffffffffffffffffffffffffffff16611a4c61228a565b73ffffffffffffffffffffffffffffffffffffffff1614611aa2576040517f08c379a0000000000000000000000000000000000000000000000000000000008152600401611a99906153c7565b60405180910390fd5b60011515600960009054906101000a900460ff16151514611af8576040517f08c379a0000000000000000000000000000000000000000000000000000000008152600401611aef90615427565b60405180910390fd5b6000600e54905060005b600a80549050811015611f82576000600a8281548110611b4b577f4e487b7100000000000000000000000000000000000000000000000000000000600052603260045260246000fd5b9060005260206000200160009054906101000a900473ffffffffffffffffffffffffffffffffffffffff1690506000601e60008373ffffffffffffffffffffffffffffffffffffffff1673ffffffffffffffffffffffffffffffffffffffff16815260200190815260200160002054905083811115611e2357600c60009054906101000a900473ffffffffffffffffffffffffffffffffffffffff1673ffffffffffffffffffffffffffffffffffffffff166108fc85600d54611c0e9190615728565b9081150290604051600060405180830381858888f19350505050158015611c39573d6000803e3d6000fd5b5083600d54611c489190615728565b600f6000828254611c5991906156a1565b9250508190555083600d54611c6e9190615728565b601d60008473ffffffffffffffffffffffffffffffffffffffff1673ffffffffffffffffffffffffffffffffffffffff1681526020019081526020016000206000828254611cbc9190615782565b9250508190555060005b84811015611cfe57611ce183611cdc6007613713565b61377d565b611ceb600761394b565b8080611cf6906158d4565b915050611cc6565b506000601d60008473ffffffffffffffffffffffffffffffffffffffff1673ffffffffffffffffffffffffffffffffffffffff1681526020019081526020016000205490508273ffffffffffffffffffffffffffffffffffffffff166108fc829081150290604051600060405180830381858888f19350505050158015611d89573d6000803e3d6000fd5b507f2ee76d0c8417fef3c9f68663d321eb1c1ed0e089b5298177f0582aeadb6fd91f8382604051611dbb9291906150c6565b60405180910390a180601d60008573ffffffffffffffffffffffffffffffffffffffff1673ffffffffffffffffffffffffffffffffffffffff1681526020019081526020016000206000828254611e129190615782565b925050819055506000945050611f6d565b600c60009054906101000a900473ffffffffffffffffffffffffffffffffffffffff1673ffffffffffffffffffffffffffffffffffffffff166108fc82600d54611e6d9190615728565b9081150290604051600060405180830381858888f19350505050158015611e98573d6000803e3d6000fd5b5080600d54611ea79190615728565b600f6000828254611eb891906156a1565b9250508190555080600d54611ecd9190615728565b601d60008473ffffffffffffffffffffffffffffffffffffffff1673ffffffffffffffffffffffffffffffffffffffff1681526020019081526020016000206000828254611f1b9190615782565b9250508190555060005b81811015611f5d57611f4083611f3b6007613713565b61377d565b611f4a600761394b565b8080611f55906158d4565b915050611f25565b508084611f6a9190615782565b93505b50508080611f7a906158d4565b915050611b02565b5050565b6000806002600084815260200190815260200160002060009054906101000a900473ffffffffffffffffffffffffffffffffffffffff169050600073ffffffffffffffffffffffffffffffffffffffff168173ffffffffffffffffffffffffffffffffffffffff16141561202f576040517f08c379a000000000000000000000000000000000000000000000000000000000815260040161202690615327565b60405180910390fd5b80915050919050565b6000600d54905090565b60008073ffffffffffffffffffffffffffffffffffffffff168273ffffffffffffffffffffffffffffffffffffffff1614156120b3576040517f08c379a00000000000000000000000000000000000000000000000000000000081526004016120aa90615307565b60405180910390fd5b600360008373ffffffffffffffffffffffffffffffffffffffff1673ffffffffffffffffffffffffffffffffffffffff168152602001908152602001600020549050919050565b612102613318565b73ffffffffffffffffffffffffffffffffffffffff1661212061228a565b73ffffffffffffffffffffffffffffffffffffffff1614612176576040517f08c379a000000000000000000000000000000000000000000000000000000000815260040161216d906153c7565b60405180910390fd5b600073ffffffffffffffffffffffffffffffffffffffff16600660009054906101000a900473ffffffffffffffffffffffffffffffffffffffff1673ffffffffffffffffffffffffffffffffffffffff167f8be0079c531659141344cd1fd0a4f28419497f9722a3daafe3b4186f6b6457e060405160405180910390a36000600660006101000a81548173ffffffffffffffffffffffffffffffffffffffff021916908373ffffffffffffffffffffffffffffffffffffffff160217905550565b6000601154905090565b6000601d60008373ffffffffffffffffffffffffffffffffffffffff1673ffffffffffffffffffffffffffffffffffffffff168152602001908152602001600020549050919050565b6000600660009054906101000a900473ffffffffffffffffffffffffffffffffffffffff16905090565b60006122c06007613713565b905090565b6000601054905090565b6122d7611a19565b15612317576040517f08c379a000000000000000000000000000000000000000000000000000000000815260040161230e906154a7565b60405180910390fd5b61231f613318565b73ffffffffffffffffffffffffffffffffffffffff1661233d61228a565b73ffffffffffffffffffffffffffffffffffffffff1614612393576040517f08c379a000000000000000000000000000000000000000000000000000000000815260040161238a906153c7565b60405180910390fd5b60008060105490505b6011548111612409576021600082815260200190815260200160002054826123c491906156a1565b9150600e5482106123f657806012819055506001600960006101000a81548160ff021916908315150217905550612409565b8080612401906158d4565b91505061239c565b50600960009054906101000a900460ff1615612465577f34ccc1cc859f0b1e974530f1eb22e713649d5f3937abf904589392796241d6116012546040516124509190615547565b60405180910390a1612460613961565b6124bc565b7fe7f2eb6d54f3b1a2443045ba960f25d2ce0a36bcdee0965882edf6051179a59b81600e54604051612498929190615562565b60405180910390a16001600960016101000a81548160ff0219169083151502179055505b6124d360016012546124ce91906156a1565b613a59565b50565b6060600180546124e5906158a2565b80601f0160208091040260200160405190810160405280929190818152602001828054612511906158a2565b801561255e5780601f106125335761010080835404028352916020019161255e565b820191906000526020600020905b81548152906001019060200180831161254157829003601f168201915b5050505050905090565b6000601954905090565b6000600960019054906101000a900460ff16905090565b6000601e60008373ffffffffffffffffffffffffffffffffffffffff1673ffffffffffffffffffffffffffffffffffffffff168152602001908152602001600020549050919050565b6125da613318565b73ffffffffffffffffffffffffffffffffffffffff168273ffffffffffffffffffffffffffffffffffffffff161415612648576040517f08c379a000000000000000000000000000000000000000000000000000000000815260040161263f90615287565b60405180910390fd5b8060056000612655613318565b73ffffffffffffffffffffffffffffffffffffffff1673ffffffffffffffffffffffffffffffffffffffff16815260200190815260200160002060008473ffffffffffffffffffffffffffffffffffffffff1673ffffffffffffffffffffffffffffffffffffffff16815260200190815260200160002060006101000a81548160ff0219169083151502179055508173ffffffffffffffffffffffffffffffffffffffff16612702613318565b73ffffffffffffffffffffffffffffffffffffffff167f17307eab39ab6107e8899845ad3d59bd9653f200f220920489ca2b5937696c3183604051612747919061516a565b60405180910390a35050565b600c60009054906101000a900473ffffffffffffffffffffffffffffffffffffffff1673ffffffffffffffffffffffffffffffffffffffff163373ffffffffffffffffffffffffffffffffffffffff16146127e3576040517f08c379a00000000000000000000000000000000000000000000000000000000081526004016127da90615367565b60405180910390fd5b6127ed6007613713565b6012546127fa9190615728565b34101561283c576040517f08c379a0000000000000000000000000000000000000000000000000000000008152600401612833906154e7565b60405180910390fd5b60005b6128496007613713565b8110156128f357600061285b82611f86565b90508073ffffffffffffffffffffffffffffffffffffffff166108fc6012549081150290604051600060405180830381858888f193505050501580156128a5573d6000803e3d6000fd5b507fb3224bc7c2e6157092b5f650cc8b06e5f0c34d8218b6e9a1a5a39c2e43706e4081836040516128d7929190615051565b60405180910390a15080806128eb906158d4565b91505061283f565b5042601c60165481548110612931577f4e487b7100000000000000000000000000000000000000000000000000000000600052603260045260246000fd5b906000526020600020018190555060166000815480929190612952906158d4565b91905055506129616007613713565b60125461296e9190615728565b341115612a1d5760006129816007613713565b60125461298e9190615728565b346129999190615782565b90503373ffffffffffffffffffffffffffffffffffffffff166108fc829081150290604051600060405180830381858888f193505050501580156129e1573d6000803e3d6000fd5b507f2ee76d0c8417fef3c9f68663d321eb1c1ed0e089b5298177f0582aeadb6fd91f3382604051612a139291906150c6565b60405180910390a1505b565b6000601f60008373ffffffffffffffffffffffffffffffffffffffff1673ffffffffffffffffffffffffffffffffffffffff168152602001908152602001600020549050919050565b60008082118015612a7b57506015548211155b612aba576040517f08c379a0000000000000000000000000000000000000000000000000000000008152600401612ab190615447565b60405180910390fd5b601c600183612ac99190615782565b81548110612b00577f4e487b7100000000000000000000000000000000000000000000000000000000600052603260045260246000fd5b90600052602060002001549050919050565b612b23612b1d613318565b836133d9565b612b62576040517f08c379a0000000000000000000000000000000000000000000000000000000008152600401612b5990615487565b60405180910390fd5b612b6e84848484613bd2565b50505050565b6060601954421015612be8576000601a541415612bab57604051806060016040528060218152602001615aa5602191399050612cb1565b6040518060400160405280601e81526020017f5072696e636970616c207761732070616964206261636b206561726c792e00008152509050612cb1565b6000601a541415612c30576040518060400160405280601a81526020017f5072696e636970616c207061796d656e74206973206c6174652e0000000000008152509050612cb1565b601954601a5411612c78576040518060400160405280602081526020017f5072696e636970616c207761732070616964206261636b206f6e2074696d652e8152509050612cb1565b6040518060400160405280601d81526020017f5072696e636970616c207761732070616964206261636b206c6174652e00000081525090505b90565b6000601754905090565b6060612cc9826132ac565b612d08576040517f08c379a0000000000000000000000000000000000000000000000000000000008152600401612cff90615407565b60405180910390fd5b6000612d12613c2e565b90506000815111612d325760405180602001604052806000815250612d5d565b80612d3c84613cc0565b604051602001612d4d929190615012565b6040516020818303038152906040525b915050919050565b6000601554905090565b6060601b805480602002602001604051908101604052809291908181526020018280548015612dbd57602002820191906000526020600020905b815481526020019060010190808311612da9575b5050505050905090565b6000601854905090565b6000600560008473ffffffffffffffffffffffffffffffffffffffff1673ffffffffffffffffffffffffffffffffffffffff16815260200190815260200160002060008373ffffffffffffffffffffffffffffffffffffffff1673ffffffffffffffffffffffffffffffffffffffff16815260200190815260200160002060009054906101000a900460ff16905092915050565b60008082118015612e7857506015548211155b612eb7576040517f08c379a0000000000000000000000000000000000000000000000000000000008152600401612eae90615447565b60405180910390fd5b601b600183612ec69190615782565b81548110612efd577f4e487b7100000000000000000000000000000000000000000000000000000000600052603260045260246000fd5b90600052602060002001549050919050565b612f17613318565b73ffffffffffffffffffffffffffffffffffffffff16612f3561228a565b73ffffffffffffffffffffffffffffffffffffffff1614612f8b576040517f08c379a0000000000000000000000000000000000000000000000000000000008152600401612f82906153c7565b60405180910390fd5b600060125490508215612fb15781601254612fa691906156a1565b601281905550612fde565b601254821115612fc8576000601281905550612fdd565b81601254612fd69190615782565b6012819055505b5b7f19c6461ea018cd13c242700a8b6afa6a2a3a4de691e6f2cd9416b3bef1a9515081601254604051613011929190615562565b60405180910390a1505050565b613026613318565b73ffffffffffffffffffffffffffffffffffffffff1661304461228a565b73ffffffffffffffffffffffffffffffffffffffff161461309a576040517f08c379a0000000000000000000000000000000000000000000000000000000008152600401613091906153c7565b60405180910390fd5b600073ffffffffffffffffffffffffffffffffffffffff168173ffffffffffffffffffffffffffffffffffffffff16141561310a576040517f08c379a000000000000000000000000000000000000000000000000000000000815260040161310190615207565b60405180910390fd5b8073ffffffffffffffffffffffffffffffffffffffff16600660009054906101000a900473ffffffffffffffffffffffffffffffffffffffff1673ffffffffffffffffffffffffffffffffffffffff167f8be0079c531659141344cd1fd0a4f28419497f9722a3daafe3b4186f6b6457e060405160405180910390a380600660006101000a81548173ffffffffffffffffffffffffffffffffffffffff021916908373ffffffffffffffffffffffffffffffffffffffff16021790555050565b60007f80ac58cd000000000000000000000000000000000000000000000000000000007bffffffffffffffffffffffffffffffffffffffffffffffffffffffff1916827bffffffffffffffffffffffffffffffffffffffffffffffffffffffff1916148061329557507f5b5e139f000000000000000000000000000000000000000000000000000000007bffffffffffffffffffffffffffffffffffffffffffffffffffffffff1916827bffffffffffffffffffffffffffffffffffffffffffffffffffffffff1916145b806132a557506132a482613e6d565b5b9050919050565b60008073ffffffffffffffffffffffffffffffffffffffff166002600084815260200190815260200160002060009054906101000a900473ffffffffffffffffffffffffffffffffffffffff1673ffffffffffffffffffffffffffffffffffffffff1614159050919050565b600033905090565b816004600083815260200190815260200160002060006101000a81548173ffffffffffffffffffffffffffffffffffffffff021916908373ffffffffffffffffffffffffffffffffffffffff160217905550808273ffffffffffffffffffffffffffffffffffffffff1661339383611f86565b73ffffffffffffffffffffffffffffffffffffffff167f8c5be1e5ebec7d5bd14f71427d1e84f3dd0314c0f7b2291e5b200ac8c7c3b92560405160405180910390a45050565b60006133e4826132ac565b613423576040517f08c379a000000000000000000000000000000000000000000000000000000000815260040161341a906152c7565b60405180910390fd5b600061342e83611f86565b90508073ffffffffffffffffffffffffffffffffffffffff168473ffffffffffffffffffffffffffffffffffffffff16148061349d57508373ffffffffffffffffffffffffffffffffffffffff1661348584610c3a565b73ffffffffffffffffffffffffffffffffffffffff16145b806134ae57506134ad8185612dd1565b5b91505092915050565b8273ffffffffffffffffffffffffffffffffffffffff166134d782611f86565b73ffffffffffffffffffffffffffffffffffffffff161461352d576040517f08c379a0000000000000000000000000000000000000000000000000000000008152600401613524906153e7565b60405180910390fd5b600073ffffffffffffffffffffffffffffffffffffffff168273ffffffffffffffffffffffffffffffffffffffff16141561359d576040517f08c379a000000000000000000000000000000000000000000000000000000000815260040161359490615267565b60405180910390fd5b6135a8838383613ed7565b6135b3600082613320565b6001600360008573ffffffffffffffffffffffffffffffffffffffff1673ffffffffffffffffffffffffffffffffffffffff16815260200190815260200160002060008282546136039190615782565b925050819055506001600360008473ffffffffffffffffffffffffffffffffffffffff1673ffffffffffffffffffffffffffffffffffffffff168152602001908152602001600020600082825461365a91906156a1565b92505081905550816002600083815260200190815260200160002060006101000a81548173ffffffffffffffffffffffffffffffffffffffff021916908373ffffffffffffffffffffffffffffffffffffffff160217905550808273ffffffffffffffffffffffffffffffffffffffff168473ffffffffffffffffffffffffffffffffffffffff167fddf252ad1be2c89b69c2b068fc378daa952ba7f163c4a11628f55a4df523b3ef60405160405180910390a4505050565b600081600001549050919050565b6000816000015490506000811161376d576040517f08c379a0000000000000000000000000000000000000000000000000000000008152600401613764906151c7565b60405180910390fd5b6001810382600001819055505050565b600073ffffffffffffffffffffffffffffffffffffffff168273ffffffffffffffffffffffffffffffffffffffff1614156137ed576040517f08c379a00000000000000000000000000000000000000000000000000000000081526004016137e490615387565b60405180910390fd5b6137f6816132ac565b15613836576040517f08c379a000000000000000000000000000000000000000000000000000000000815260040161382d90615227565b60405180910390fd5b61384260008383613ed7565b6001600360008473ffffffffffffffffffffffffffffffffffffffff1673ffffffffffffffffffffffffffffffffffffffff168152602001908152602001600020600082825461389291906156a1565b92505081905550816002600083815260200190815260200160002060006101000a81548173ffffffffffffffffffffffffffffffffffffffff021916908373ffffffffffffffffffffffffffffffffffffffff160217905550808273ffffffffffffffffffffffffffffffffffffffff16600073ffffffffffffffffffffffffffffffffffffffff167fddf252ad1be2c89b69c2b068fc378daa952ba7f163c4a11628f55a4df523b3ef60405160405180910390a45050565b6001816000016000828254019250508190555050565b600060105490505b6012548111613a5657600061397d82611228565b905060005b8151811015613a4157600a8282815181106139c6577f4e487b7100000000000000000000000000000000000000000000000000000000600052603260045260246000fd5b60200260200101519080600181540180825580915050600190039060005260206000200160009091909190916101000a81548173ffffffffffffffffffffffffffffffffffffffff021916908373ffffffffffffffffffffffffffffffffffffffff1602179055508080613a39906158d4565b915050613982565b50508080613a4e906158d4565b915050613969565b50565b60008190505b6011548111613bce576000613a7382611228565b905060005b8151811015613bb9576000828281518110613abc577f4e487b7100000000000000000000000000000000000000000000000000000000600052603260045260246000fd5b602002602001015190506000601e60008373ffffffffffffffffffffffffffffffffffffffff1673ffffffffffffffffffffffffffffffffffffffff1681526020019081526020016000205490508173ffffffffffffffffffffffffffffffffffffffff166108fc82600d54613b329190615728565b9081150290604051600060405180830381858888f19350505050158015613b5d573d6000803e3d6000fd5b507f2ee76d0c8417fef3c9f68663d321eb1c1ed0e089b5298177f0582aeadb6fd91f82600d5483613b8e9190615728565b604051613b9c9291906150c6565b60405180910390a150508080613bb1906158d4565b915050613a78565b50508080613bc6906158d4565b915050613a5f565b5050565b613bdd8484846134b7565b613be984848484613edc565b613c28576040517f08c379a0000000000000000000000000000000000000000000000000000000008152600401613c1f906151e7565b60405180910390fd5b50505050565b606060088054613c3d906158a2565b80601f0160208091040260200160405190810160405280929190818152602001828054613c69906158a2565b8015613cb65780601f10613c8b57610100808354040283529160200191613cb6565b820191906000526020600020905b815481529060010190602001808311613c9957829003601f168201915b5050505050905090565b60606000821415613d08576040518060400160405280600181526020017f30000000000000000000000000000000000000000000000000000000000000008152509050613e68565b600082905060005b60008214613d3a578080613d23906158d4565b915050600a82613d3391906156f7565b9150613d10565b60008167ffffffffffffffff811115613d7c577f4e487b7100000000000000000000000000000000000000000000000000000000600052604160045260246000fd5b6040519080825280601f01601f191660200182016040528015613dae5781602001600182028036833780820191505090505b5090505b60008514613e6157600182613dc79190615782565b9150600a85613dd6919061591d565b6030613de291906156a1565b60f81b818381518110613e1e577f4e487b7100000000000000000000000000000000000000000000000000000000600052603260045260246000fd5b60200101907effffffffffffffffffffffffffffffffffffffffffffffffffffffffffffff1916908160001a905350600a85613e5a91906156f7565b9450613db2565b8093505050505b919050565b60007f01ffc9a7000000000000000000000000000000000000000000000000000000007bffffffffffffffffffffffffffffffffffffffffffffffffffffffff1916827bffffffffffffffffffffffffffffffffffffffffffffffffffffffff1916149050919050565b505050565b6000613efd8473ffffffffffffffffffffffffffffffffffffffff16614073565b15614066578373ffffffffffffffffffffffffffffffffffffffff1663150b7a02613f26613318565b8786866040518563ffffffff1660e01b8152600401613f48949392919061507a565b602060405180830381600087803b158015613f6257600080fd5b505af1925050508015613f9357506040513d601f19601f82011682018060405250810190613f909190614363565b60015b614016573d8060008114613fc3576040519150601f19603f3d011682016040523d82523d6000602084013e613fc8565b606091505b5060008151141561400e576040517f08c379a0000000000000000000000000000000000000000000000000000000008152600401614005906151e7565b60405180910390fd5b805181602001fd5b63150b7a0260e01b7bffffffffffffffffffffffffffffffffffffffffffffffffffffffff1916817bffffffffffffffffffffffffffffffffffffffffffffffffffffffff19161491505061406b565b600190505b949350505050565b600080823b905060008111915050919050565b6000614099614094846155bc565b61558b565b9050828152602081018484840111156140b157600080fd5b6140bc848285615860565b509392505050565b6000813590506140d381615a1b565b92915050565b6000813590506140e881615a32565b92915050565b6000813590506140fd81615a49565b92915050565b60008151905061411281615a49565b92915050565b600082601f83011261412957600080fd5b8135614139848260208601614086565b91505092915050565b60008135905061415181615a60565b92915050565b60006020828403121561416957600080fd5b6000614177848285016140c4565b91505092915050565b6000806040838503121561419357600080fd5b60006141a1858286016140c4565b92505060206141b2858286016140c4565b9150509250929050565b6000806000606084860312156141d157600080fd5b60006141df868287016140c4565b93505060206141f0868287016140c4565b925050604061420186828701614142565b9150509250925092565b6000806000806080858703121561422157600080fd5b600061422f878288016140c4565b9450506020614240878288016140c4565b935050604061425187828801614142565b925050606085013567ffffffffffffffff81111561426e57600080fd5b61427a87828801614118565b91505092959194509250565b6000806040838503121561429957600080fd5b60006142a7858286016140c4565b92505060206142b8858286016140d9565b9150509250929050565b600080604083850312156142d557600080fd5b60006142e3858286016140c4565b92505060206142f485828601614142565b9150509250929050565b6000806040838503121561431157600080fd5b600061431f858286016140d9565b925050602061433085828601614142565b9150509250929050565b60006020828403121561434c57600080fd5b600061435a848285016140ee565b91505092915050565b60006020828403121561437557600080fd5b600061438384828501614103565b91505092915050565b60006020828403121561439e57600080fd5b60006143ac84828501614142565b91505092915050565b600080604083850312156143c857600080fd5b60006143d685828601614142565b92505060206143e785828601614142565b9150509250929050565b60006143fd8383614430565b60208301905092915050565b60006144158383614ff4565b60208301905092915050565b61442a8161582a565b82525050565b614439816157b6565b82525050565b614448816157b6565b82525050565b60006144598261560c565b6144638185615652565b935061446e836155ec565b8060005b8381101561449f57815161448688826143f1565b975061449183615638565b925050600181019050614472565b5085935050505092915050565b60006144b782615617565b6144c18185615663565b93506144cc836155fc565b8060005b838110156144fd5781516144e48882614409565b97506144ef83615645565b9250506001810190506144d0565b5085935050505092915050565b614513816157c8565b82525050565b600061452482615622565b61452e8185615674565b935061453e81856020860161586f565b61454781615a0a565b840191505092915050565b600061455d8261562d565b6145678185615685565b935061457781856020860161586f565b61458081615a0a565b840191505092915050565b60006145968261562d565b6145a08185615696565b93506145b081856020860161586f565b80840191505092915050565b60006145c9602883615685565b91507f436f75706f6e206e6565647320746f206265206265747765656e20746865207360008301527f65742072616e67650000000000000000000000000000000000000000000000006020830152604082019050919050565b600061462f601b83615685565b91507f436f756e7465723a2064656372656d656e74206f766572666c6f7700000000006000830152602082019050919050565b600061466f603283615685565b91507f4552433732313a207472616e7366657220746f206e6f6e20455243373231526560008301527f63656976657220696d706c656d656e74657200000000000000000000000000006020830152604082019050919050565b60006146d5602683615685565b91507f4f776e61626c653a206e6577206f776e657220697320746865207a65726f206160008301527f64647265737300000000000000000000000000000000000000000000000000006020830152604082019050919050565b600061473b601c83615685565b91507f4552433732313a20746f6b656e20616c7265616479206d696e746564000000006000830152602082019050919050565b600061477b602183615685565b91507f4e6f7420656e6f75676820657468657220746f20636f7665722074686520626960008301527f64000000000000000000000000000000000000000000000000000000000000006020830152604082019050919050565b60006147e1602483615685565b91507f4552433732313a207472616e7366657220746f20746865207a65726f2061646460008301527f72657373000000000000000000000000000000000000000000000000000000006020830152604082019050919050565b6000614847601983615685565b91507f4552433732313a20617070726f766520746f2063616c6c6572000000000000006000830152602082019050919050565b6000614887602e83615685565b91507f506179696e6720636f6d70616e792073686f756c642062652074686520626f7260008301527f726f77696e6720636f6d70616e790000000000000000000000000000000000006020830152604082019050919050565b60006148ed602c83615685565b91507f4552433732313a206f70657261746f7220717565727920666f72206e6f6e657860008301527f697374656e7420746f6b656e00000000000000000000000000000000000000006020830152604082019050919050565b6000614953603883615685565b91507f4552433732313a20617070726f76652063616c6c6572206973206e6f74206f7760008301527f6e6572206e6f7220617070726f76656420666f7220616c6c00000000000000006020830152604082019050919050565b60006149b9602a83615685565b91507f4552433732313a2062616c616e636520717565727920666f7220746865207a6560008301527f726f2061646472657373000000000000000000000000000000000000000000006020830152604082019050919050565b6000614a1f602983615685565b91507f4552433732313a206f776e657220717565727920666f72206e6f6e657869737460008301527f656e7420746f6b656e00000000000000000000000000000000000000000000006020830152604082019050919050565b6000614a85602f83615685565b91507f4e6f7420656e6f75676820657468657220746f20736574746c6520746865206260008301527f6f6e64206174206d6174757269747900000000000000000000000000000000006020830152604082019050919050565b6000614aeb603583615685565b91507f436f75706f6e207061796d656e742073686f756c6420636f6d652066726f6d2060008301527f74686520626f72726f77696e6720636f6d70616e7900000000000000000000006020830152604082019050919050565b6000614b51602083615685565b91507f4552433732313a206d696e7420746f20746865207a65726f20616464726573736000830152602082019050919050565b6000614b91602c83615685565b91507f4552433732313a20617070726f76656420717565727920666f72206e6f6e657860008301527f697374656e7420746f6b656e00000000000000000000000000000000000000006020830152604082019050919050565b6000614bf7602083615685565b91507f4f776e61626c653a2063616c6c6572206973206e6f7420746865206f776e65726000830152602082019050919050565b6000614c37602983615685565b91507f4552433732313a207472616e73666572206f6620746f6b656e2074686174206960008301527f73206e6f74206f776e00000000000000000000000000000000000000000000006020830152604082019050919050565b6000614c9d602f83615685565b91507f4552433732314d657461646174613a2055524920717565727920666f72206e6f60008301527f6e6578697374656e7420746f6b656e00000000000000000000000000000000006020830152604082019050919050565b6000614d03603683615685565b91507f63616e206e6f7420697373756520626f6e64732069662074686520636f75706f60008301527f6e20686173206e6f74206265656e20646566696e6564000000000000000000006020830152604082019050919050565b6000614d69603b83615685565b91507f4e6f207375636820636f75706f6e207061796d656e742c20636865636b20746860008301527f65206e756d626572206f6620636f75706f6e207061796d656e747300000000006020830152604082019050919050565b6000614dcf602183615685565b91507f4552433732313a20617070726f76616c20746f2063757272656e74206f776e6560008301527f72000000000000000000000000000000000000000000000000000000000000006020830152604082019050919050565b6000614e35603183615685565b91507f4552433732313a207472616e736665722063616c6c6572206973206e6f74206f60008301527f776e6572206e6f7220617070726f7665640000000000000000000000000000006020830152604082019050919050565b6000614e9b601f83615685565b91507f496e766573746d656e742077696e646f77206973207374696c6c206f70656e006000830152602082019050919050565b6000614edb601d83615685565b91507f496e766573746d656e742077696e646f77206973206e6f74206f70656e0000006000830152602082019050919050565b6000614f1b602c83615685565b91507f4e6f7420656e6f75676820657468657220746f20636f7665722074686520636f60008301527f75706f6e207061796d656e7400000000000000000000000000000000000000006020830152604082019050919050565b6000614f81601983615685565b91507f4f6e6c79206f6e65206269642070657220696e766573746f72000000000000006000830152602082019050919050565b6000614fc1601383615685565b91507f436f75706f6e206e6f7420696e2072616e6765000000000000000000000000006000830152602082019050919050565b614ffd81615820565b82525050565b61500c81615820565b82525050565b600061501e828561458b565b915061502a828461458b565b91508190509392505050565b600060208201905061504b600083018461443f565b92915050565b60006040820190506150666000830185614421565b6150736020830184615003565b9392505050565b600060808201905061508f600083018761443f565b61509c602083018661443f565b6150a96040830185615003565b81810360608301526150bb8184614519565b905095945050505050565b60006040820190506150db600083018561443f565b6150e86020830184615003565b9392505050565b6000606082019050615104600083018661443f565b6151116020830185615003565b61511e6040830184615003565b949350505050565b60006020820190508181036000830152615140818461444e565b905092915050565b6000602082019050818103600083015261516281846144ac565b905092915050565b600060208201905061517f600083018461450a565b92915050565b6000602082019050818103600083015261519f8184614552565b905092915050565b600060208201905081810360008301526151c0816145bc565b9050919050565b600060208201905081810360008301526151e081614622565b9050919050565b6000602082019050818103600083015261520081614662565b9050919050565b60006020820190508181036000830152615220816146c8565b9050919050565b600060208201905081810360008301526152408161472e565b9050919050565b600060208201905081810360008301526152608161476e565b9050919050565b60006020820190508181036000830152615280816147d4565b9050919050565b600060208201905081810360008301526152a08161483a565b9050919050565b600060208201905081810360008301526152c08161487a565b9050919050565b600060208201905081810360008301526152e0816148e0565b9050919050565b6000602082019050818103600083015261530081614946565b9050919050565b60006020820190508181036000830152615320816149ac565b9050919050565b6000602082019050818103600083015261534081614a12565b9050919050565b6000602082019050818103600083015261536081614a78565b9050919050565b6000602082019050818103600083015261538081614ade565b9050919050565b600060208201905081810360008301526153a081614b44565b9050919050565b600060208201905081810360008301526153c081614b84565b9050919050565b600060208201905081810360008301526153e081614bea565b9050919050565b6000602082019050818103600083015261540081614c2a565b9050919050565b6000602082019050818103600083015261542081614c90565b9050919050565b6000602082019050818103600083015261544081614cf6565b9050919050565b6000602082019050818103600083015261546081614d5c565b9050919050565b6000602082019050818103600083015261548081614dc2565b9050919050565b600060208201905081810360008301526154a081614e28565b9050919050565b600060208201905081810360008301526154c081614e8e565b9050919050565b600060208201905081810360008301526154e081614ece565b9050919050565b6000602082019050818103600083015261550081614f0e565b9050919050565b6000602082019050818103600083015261552081614f74565b9050919050565b6000602082019050818103600083015261554081614fb4565b9050919050565b600060208201905061555c6000830184615003565b92915050565b60006040820190506155776000830185615003565b6155846020830184615003565b9392505050565b6000604051905081810181811067ffffffffffffffff821117156155b2576155b16159db565b5b8060405250919050565b600067ffffffffffffffff8211156155d7576155d66159db565b5b601f19601f8301169050602081019050919050565b6000819050602082019050919050565b6000819050602082019050919050565b600081519050919050565b600081519050919050565b600081519050919050565b600081519050919050565b6000602082019050919050565b6000602082019050919050565b600082825260208201905092915050565b600082825260208201905092915050565b600082825260208201905092915050565b600082825260208201905092915050565b600081905092915050565b60006156ac82615820565b91506156b783615820565b9250827fffffffffffffffffffffffffffffffffffffffffffffffffffffffffffffffff038211156156ec576156eb61594e565b5b828201905092915050565b600061570282615820565b915061570d83615820565b92508261571d5761571c61597d565b5b828204905092915050565b600061573382615820565b915061573e83615820565b9250817fffffffffffffffffffffffffffffffffffffffffffffffffffffffffffffffff04831182151516156157775761577661594e565b5b828202905092915050565b600061578d82615820565b915061579883615820565b9250828210156157ab576157aa61594e565b5b828203905092915050565b60006157c182615800565b9050919050565b60008115159050919050565b60007fffffffff0000000000000000000000000000000000000000000000000000000082169050919050565b600073ffffffffffffffffffffffffffffffffffffffff82169050919050565b6000819050919050565b60006158358261583c565b9050919050565b60006158478261584e565b9050919050565b600061585982615800565b9050919050565b82818337600083830152505050565b60005b8381101561588d578082015181840152602081019050615872565b8381111561589c576000848401525b50505050565b600060028204905060018216806158ba57607f821691505b602082108114156158ce576158cd6159ac565b5b50919050565b60006158df82615820565b91507fffffffffffffffffffffffffffffffffffffffffffffffffffffffffffffffff8214156159125761591161594e565b5b600182019050919050565b600061592882615820565b915061593383615820565b9250826159435761594261597d565b5b828206905092915050565b7f4e487b7100000000000000000000000000000000000000000000000000000000600052601160045260246000fd5b7f4e487b7100000000000000000000000000000000000000000000000000000000600052601260045260246000fd5b7f4e487b7100000000000000000000000000000000000000000000000000000000600052602260045260246000fd5b7f4e487b7100000000000000000000000000000000000000000000000000000000600052604160045260246000fd5b6000601f19601f8301169050919050565b615a24816157b6565b8114615a2f57600080fd5b50565b615a3b816157c8565b8114615a4657600080fd5b50565b615a52816157d4565b8114615a5d57600080fd5b50565b615a6981615820565b8114615a7457600080fd5b5056fe436f75706f6e20686173206265656e2070616964206561726c79207072696f7220746f2064756520646174652e5072696e636970616c205061796d656e74206973206e6f7420647565207965742ea2646970667358221220e43f9b8cc9b858de00312af3ed65c83ae00440e1f00ee341e3f3b87d87f311a964736f6c63430008000033",
  "immutableReferences": {},
  "source": "// SPDX-License-Identifier: MIT\npragma solidity >=0.6.0;\n\nimport \"@openzeppelin/contracts/token/ERC721/ERC721.sol\";\nimport \"@openzeppelin/contracts/access/Ownable.sol\";\nimport \"@openzeppelin/contracts/utils/Counters.sol\";\n\ncontract GreenBond2 is ERC721, Ownable {\n    using Counters for Counters.Counter;\n\n    // MODIFIERS\n    /**\n     * @dev Reverts if bidding time is not open\n     */\n    modifier onlyWhileBiddingWindowOpen {\n        require(biddingWindowisOpen(), \"Investment window is not open\");\n        _;\n    }\n\n    /**\n     * @dev Reverts if bidding time is still open\n     */\n    modifier onlyWhileBiddingWindowClosed {\n        require(!biddingWindowisOpen(), \"Investment window is still open\");\n        _;\n    }\n\n    // MEMBER VARIABLES\n    \n    // Bond ID numbers\n    Counters.Counter private _bondIdTracker;\n\n    // URI for bond metadata stored on decentralised database or cloud\n    string private _baseBondURI;\n\n    // Bond state controllers\n    bool private _coupondefined = false;\n    bool private _cancelled = false;\n\n    // List of initial investors\n    address[] private _initialInvestors; \n\n    // Owner of the contract - Issuing Financial Institution\n    address private _owner;\n    // Borrowing company\n    address payable private _company;\n\n    // Face value of 1 bond\n    uint256 private _value;\n\n    // Number of bonds sought by the borrowing company\n    uint256 private _numberOfBondsSought;\n\n    // Total amount borrowed. Calculated as number of bonds * face value\n    uint256 private _totalDebt;\n\n    // Coupon range\n    uint256 private _minCoupon;\n    uint256 private _maxCoupon;\n\n    // Final coupon \n    uint256 private _coupon;\n    \n    // Term of the bond (in years)\n    uint256 private _term;\n\n    // Coupon payment schedule (per year)\n    uint256 private _couponsPerYear;\n\n    // Total number of coupons. Calculated as term * number of coupons per year\n    uint256 private _totalCouponPayments;\n\n    // Number of coupons paid\n    uint256 private _couponsPaid; // Zero in the beginning\n\n    // Closing time for bidding\n    uint256 private _bidClosingTime;    \n\n    // Issue Date: bid closing time + 2 days\n    uint256 private _issueDate;\n\n    // Maturity Date: issue date + term\n    uint256 private _maturityDate;\n\n    // Actual principal payment date\n    uint256 private _actualPrincipalPaymentDate; \n\n    // Coupon payment dates: calculated from issue date onwards\n    uint256[] private _couponPaymentDates;\n\n    // Actual coupon payment dates\n    uint256[] private _actualCouponPaymentDates;\n\n    // Records for investor bid details\n    mapping(address => uint256) private _stakedAmountPerInvestor;\n    mapping(address => uint256) private _requestedBondsPerInvestor;\n    mapping(address => uint256) private _couponPerInvestor;\n    mapping(address => bool) private _investorHasBid;\n\n    // Records for coupon definition\n    mapping(uint256 => uint256) private _bidsPerCoupon;\n    mapping(uint256 => address[]) private _investorListAtCouponLevel;\n\n    // EVENTS\n\n    /**\n     * @dev Emitted when an investor registers a bid\n     */\n    event Bid(address bidder, uint256 coupon, uint256 numberOfBonds);\n    \n    /**\n     * @dev Emitted when coins are refunded to the investor in case there are\n            too many coins for the investment or to the company if they pay too much \n            with coupons / principal repayment\n     */\n    event CoinRefund(address account, uint256 value);\n\n    /**\n     * @dev Emitted when a coupon payment has been made\n     */\n    event CouponPayment(address investor, uint256 bondId);\n\n    /**\n     * @dev Emmitted when the coupon is defined after bidding. \n            Only when there is enough demand and issue will go ahead.\n     */\n    event CouponSet(uint256 coupon);\n\n    /**\n     * @dev Emmitted when there is not enough demand for the bond\n            and the issue is cancelled.\n     */\n    event CancelBondIssue(uint256 actualDemand, uint256 requestedDemand);\n    \n    \n    /**\n     * @dev Emmitted when coupon payment is adjusted\n     */\n    event CouponAdjustment(uint256 from, uint256 to);\n    \n\n    /**\n     * @dev constructor: requires specifying the borrowing company address,\n            bond name and symbol, number of bonds sought, coupon range,\n            bidding window closing time, term, coupons per year and\n            base URI for metadata,\n     */\n    constructor(\n        address company,\n        string memory name,\n        string memory symbol,\n        uint256 numberOfBondsSought,\n        uint256 minCoupon,\n        uint256 maxCoupon,\n        uint256 bidClosingTime,\n        uint256 term,\n        uint256 couponsPerYear,\n        string memory baseBondURI\n    ) ERC721(name, symbol) {\n        require(company != address(0), \"Company address can not be 0x0\");\n        require(\n            maxCoupon > minCoupon,\n            \"max coupon needs to be greater than min coupon\"\n        );\n        require(\n            bidClosingTime > block.timestamp,\n            \"Closing time can't be in the past\"\n        );\n        _owner = msg.sender;\n        _company = payable(company);\n        _numberOfBondsSought = numberOfBondsSought;\n        _minCoupon = minCoupon;\n        _maxCoupon = maxCoupon;\n        _coupon = 0; // by default 0\n        _value = 100; // Face value default at 100\n        _couponsPaid = 0; // set to 0 \n        _bidClosingTime = bidClosingTime;\n        _baseBondURI = baseBondURI;\n        \n        _issueDate = _bidClosingTime + 1 weeks;\n        _term = term;\n        _couponsPerYear = couponsPerYear;\n        _totalCouponPayments = couponsPerYear * term;\n        _maturityDate = _issueDate + term * 365 days;\n        _actualPrincipalPaymentDate = 0; // default to 0\n        uint256 timeBetweenpayments = 365 days / couponsPerYear;\n\n        // Setting up the coupon payment dates\n        for (uint256 i = 1; i <= _totalCouponPayments; i++) {\n            _couponPaymentDates.push(_issueDate + timeBetweenpayments * i);\n            _actualCouponPaymentDates.push(0);\n        }\n    }\n\n    /**\n     * @dev Get borrowing company.\n     */\n    function getCompany() public view returns (address) {\n        return _company;\n    }\n\n    /**\n     * @dev Get bond face value\n     */\n    function getFaceValue() public view returns (uint256) {\n        return _value;\n    }\n\n    /**\n     * @dev Get coupon bidding range\n     */\n    function getMinCoupon() public view returns (uint256) {\n        return _minCoupon;\n    }\n\n    function getMaxCoupon() public view returns (uint256) {\n        return _maxCoupon;\n    }\n\n    /**\n     * @dev Get coupon\n     */\n    function getCoupon() public view returns (uint256) {\n        return _coupon;\n    }\n \n\n    /**\n     * @dev Get number of bonds sought\n     */\n    function getNumberOfBondsSought() public view returns (uint256) {\n        return _numberOfBondsSought;\n    }\n\n    /**\n     * @dev Get bond term in years\n     */\n    function getTerm() public view returns (uint256) {\n        return _term;\n    }\n\n    /**\n     * @dev Get the total debt\n     */\n    function getTotalDebt() public view returns (uint256) {\n        return _totalDebt;\n    }\n\n    /**\n     * @dev Get bid closing time\n     */\n    function getBidClosingTime() external view returns (uint256) {\n        return _bidClosingTime;\n    }\n\n    /**\n     * @dev Get issue date\n     */\n    function getIssueDate() public view returns (uint256) {\n        return _issueDate;\n    }\n\n    /**\n     * @dev Get maturity date\n     */\n    function getMaturityDate() public view returns (uint256) {\n        return _maturityDate;\n    }\n\n    /**\n     * @dev Query bond status (cancelled/coupon defined)\n     */\n    function couponDefined() public view returns (bool) {\n        return _coupondefined;\n    }\n\n    function cancelled() public view returns (bool) {\n        return _cancelled;\n    }\n\n    /**\n     * @dev Get the number of coupon payments for the bond\n     */\n    function getNumberOfCoupons() public view returns (uint256) {\n        return _totalCouponPayments;\n    }\n\n    /**\n     * @dev Get the number of coupons paid\n     */\n    function getNumberOfCouponsPaid() public view returns (uint256) {\n        return _couponsPaid;\n    }\n\n    /**\n     * @dev Get the agreed date for a specific coupon\n     */\n    function getCouponDate(uint256 number) public view returns (uint256) {\n        require(\n            number > 0 && number <= _totalCouponPayments,\n            \"No such coupon payment, check the number of coupon payments\"\n        );\n        return _couponPaymentDates[number - 1];\n    }\n\n    /**\n     * @dev Get the actual coupon payment date for a specific coupon\n     */\n    function getActualCouponDate(uint256 number) public view returns (uint256) {\n        require(\n            number > 0 && number <= _totalCouponPayments,\n            \"No such coupon payment, check the number of coupon payments\"\n        );\n        return _actualCouponPaymentDates[number - 1];\n    }\n\n    /**\n     * @dev Get an array containin all agreed coupon dates\n     */\n    function getCouponDates() public view returns (uint256[] memory) {\n        return _couponPaymentDates;\n    }\n\n    /**\n     * @dev Get actual principal payment date\n     */\n    function getActualPricipalPaymentDate() public view returns (uint256) {\n        return _actualPrincipalPaymentDate;\n    }\n\n    function numberOfInvestors() public view returns (uint256) {\n        return _initialInvestors.length;\n    }\n\n    /**\n     * @dev Get the number of bonds issued\n     */\n    function bondCount() public view returns (uint256) {\n        return _bondIdTracker.current();\n    }\n\n    /**\n     * @dev Get the base URI for bond metadata\n     */\n    function _baseURI() internal view override returns (string memory) {\n        return _baseBondURI;\n    }\n\n    /**\n     * @dev Get staked amount per investor\n     */\n    function getStakedAmountPerInvestor(address investor)\n        external\n        view\n        returns (uint256)\n    {\n        return _stakedAmountPerInvestor[investor];\n    }\n\n    /**\n     * @dev Get requested bonds per investor\n     */\n    function getRequestedBondsPerInvestor(address investor)\n        external\n        view\n        returns(uint256)\n    {\n        return _requestedBondsPerInvestor[investor];\n    }\n\n    /**\n     * @dev Get the coupon bid per investor\n     */\n    function getCouponPerInvestor(address investor)\n        external\n        view\n        returns(uint256)\n    {\n        return _couponPerInvestor[investor];\n    }\n\n    /**\n     * @dev Get a list of bidders at a specific coupon level\n     */\n    function getBiddersAtCoupon(uint256 coupon)\n        public\n        view\n        returns (address[] memory)\n    {\n        require(\n            coupon >= _minCoupon && coupon <= _maxCoupon,\n            \"Coupon not in range\"\n        );\n        return _investorListAtCouponLevel[coupon];\n    }  \n\n    /**\n     * @dev Returns true if bidding window is open\n     */\n    function biddingWindowisOpen() public view returns (bool) {\n        return block.timestamp <= _bidClosingTime;\n    }\n\n    // Needed to override this function as two parent classes defined the same function\n    function supportsInterface(bytes4 interfaceId)\n        public\n        view\n        virtual\n        override(ERC721)\n        returns (bool)\n    {\n        return super.supportsInterface(interfaceId);\n    }\n\n    /**\n     * @dev Function for an investor to register a bid.\n            Needs to specify the coupon within the given range (min and max coupon)\n            and send enough ether to cover the bid (number of bonds bid * face value of bond).\n            Only one bid allowed per investor.    \n     */\n    function registerBid(uint256 coupon, uint256 numberOfBonds)\n        external\n        payable\n        onlyWhileBiddingWindowOpen\n    {\n        require(\n            coupon >= _minCoupon && coupon <= _maxCoupon,\n            \"Coupon needs to be between the set range\"\n        );\n        require(\n            msg.value >= _value * numberOfBonds,\n            \"Not enough ether to cover the bid\"\n        );\n        require(\n            _investorHasBid[msg.sender] == false,\n            \"Only one bid per investor\"\n        );\n\n        // Mark that investor has made a bit\n        _investorHasBid[msg.sender] = true;\n        // Update bid details\n        _requestedBondsPerInvestor[msg.sender] = numberOfBonds;\n        _couponPerInvestor[msg.sender] = coupon;\n\n        // Update the demand for the coupon level\n        uint256 currentDemand = _bidsPerCoupon[coupon];\n        _bidsPerCoupon[coupon] = currentDemand + numberOfBonds;\n        \n        // Add the investor to the list of investors bidding at this coupon level\n        _investorListAtCouponLevel[coupon].push(msg.sender);\n        \n        // Update the staked amount for the investor\n        _stakedAmountPerInvestor[msg.sender] = _value * numberOfBonds;\n\n        // Emit event\n        emit Bid(msg.sender, coupon, numberOfBonds);\n\n        // Refund if overpaid\n        if (msg.value > _value * numberOfBonds) {\n            uint256 extraAmount = msg.value - _value * numberOfBonds;\n            payable(msg.sender).transfer(extraAmount);\n            emit CoinRefund(msg.sender, extraAmount);\n        }\n    }\n\n    /**\n     * @dev Function for the issuing institution to define the coupon.\n            Finds the lowest coupon that covers the number of sought bonds\n            and sets the coupon to that level. Refunds unsuccessful bidders.\n            If not enough demand, coupon will not be defined and _cancelled\n            will be set to false.    \n     */\n    function defineCoupon()\n        public\n        onlyWhileBiddingWindowClosed\n        onlyOwner\n    {\n        // Variable for the total demand for bonds\n        uint256 bondDemand = 0;\n\n        // Iterate each coupon level, and count the bonf demand to\n        // determine the coupon level which will fulfills the seeked number of bonds\n        for (uint256 i = _minCoupon; i <= _maxCoupon; i++) {\n            // Increase the tokendemand\n            bondDemand += _bidsPerCoupon[i];\n            // If enough interest at this coupon level, set coupon and break the loop\n            if (bondDemand >= _numberOfBondsSought) {\n                _coupon = i;\n                _coupondefined = true;\n                break;\n            }\n        }\n        // If there was enough demand, emits Coupon set event and\n        // sets investor array for token issue\n        if (_coupondefined) {\n            emit CouponSet(_coupon);\n            setInvestorArray();\n        // Else bond issue is cancelled\n        } else {\n            emit CancelBondIssue(bondDemand, _numberOfBondsSought);\n            _cancelled = true;\n        }\n\n        // Refund unsuccessful investors\n        refundBiddersFromCouponLevel(_coupon + 1);\n    }\n\n    /**\n     * @dev Internal function to set the investor array for token issue.\n            Array will include all the investors who bid either at the \n            set coupon rate or lower\n     */\n    function setInvestorArray() internal {\n        for (uint256 i = _minCoupon; i <= _coupon; i++) {\n            address[] memory investors = getBiddersAtCoupon(i);\n            for (uint256 j = 0; j < investors.length; j++) {\n                _initialInvestors.push(investors[j]);\n            }\n        }\n    }\n\n    /**\n     * @dev Internal function to refund investors, who bid at specified\n            coupon level or above\n     */\n    function refundBiddersFromCouponLevel(uint256 coupon) internal {\n        for (uint256 i = coupon; i <= _maxCoupon; i++) {\n            address[] memory investors = getBiddersAtCoupon(i);\n            for (uint256 j = 0; j < investors.length; j++) {\n                address investor = investors[j];\n                uint256 amount = _requestedBondsPerInvestor[investor];\n                payable(investor).transfer(_value * amount);\n                emit CoinRefund(investor, amount * _value);\n            }\n        }\n    }\n\n\n    /**\n     * @dev Function to issue bonds for investors who bid successfully.\n        Can be called only if coupon has been defined (i.e., issue has not been cancelled).\n        Only owner, the issuing institution, can call the function\n     */\n    function issueBonds()\n        public\n        onlyOwner\n    {\n        require(\n            _coupondefined == true,\n            \"can not issue bonds if the coupon has not been defined\"\n        );\n\n        uint256 bondsAvailable = _numberOfBondsSought;\n\n        // Go through the investors\n        for (uint256 i = 0; i < _initialInvestors.length; i++) {\n            address investor = _initialInvestors[i];\n            uint256 numberOfBonds = _requestedBondsPerInvestor[investor];\n\n            // If the demanded amount is more than bonds available\n            // Issue only number of bonds available\n            if (numberOfBonds > bondsAvailable) {\n                // Transfer the value to company\n                _company.transfer(_value * bondsAvailable);\n                _totalDebt += _value * bondsAvailable;\n                _stakedAmountPerInvestor[investor] -= _value * bondsAvailable;\n\n                // Mint the tokens\n                for (uint256 j = 0; j < bondsAvailable; j++) {\n                    _mint(investor, _bondIdTracker.current());\n                    _bondIdTracker.increment();\n                }\n\n                // Refund extra amount\n                uint256 refund = _stakedAmountPerInvestor[investor]; \n                payable(investor).transfer(refund);\n                emit CoinRefund(investor, refund);\n                _stakedAmountPerInvestor[investor] -= refund;\n\n                // Set bonds available to 0\n                bondsAvailable = 0;\n\n                // Else, fulfill the whole demans\n            } else {\n                // Transfer the value to the company\n                _company.transfer(_value * numberOfBonds);\n                _totalDebt += _value * numberOfBonds;\n                _stakedAmountPerInvestor[investor] -= _value * numberOfBonds;\n\n                // Mint tokens\n                for (uint256 j = 0; j < numberOfBonds; j++) {\n                    _mint(investor, _bondIdTracker.current());\n                    _bondIdTracker.increment();\n                }\n                // Update the bonds available\n                bondsAvailable -= numberOfBonds;\n            }            \n        }\n    }\n\n    /**\n     * @dev Function to make a coupon payment.\n            Can be called only by the borrowing company.\n            Requires sending enough ether to cover a coupon payment\n            (total number of bonds * coupon rate)\n     */\n    function makeCouponPayment() public payable {\n        require(\n            msg.sender == _company,\n            \"Coupon payment should come from the borrowing company\"\n        );\n        require(\n            msg.value >= _coupon * _bondIdTracker.current(),\n            \"Not enough ether to cover the coupon payment\"\n        );\n\n        for (uint256 i = 0; i < _bondIdTracker.current(); i++) {\n            address payable investor = payable(ownerOf(i));\n            investor.transfer(_coupon);\n            emit CouponPayment(investor, i);\n        }\n\n        // Update the actual coupon payment date for the record\n        _actualCouponPaymentDates[_couponsPaid] = block.timestamp;\n        _couponsPaid++;\n\n        // Refund extra coins if paid too much\n        if (msg.value > _coupon * _bondIdTracker.current()) {\n            uint256 extraAmount = msg.value -\n                _coupon *\n                _bondIdTracker.current();\n            payable(msg.sender).transfer(extraAmount);\n            emit CoinRefund(msg.sender, extraAmount);\n        }\n    }\n\n    /**\n     * @dev Function to check if a coupon payment was made on time\n     */\n    function couponPaymentOnTime(uint256 coupon) public view returns (string memory) {\n        if(coupon < 1 || coupon > _totalCouponPayments) {\n            return \"That coupon does not exists.\";\n        }\n        // Query before the due date\n        if (block.timestamp < _couponPaymentDates[coupon - 1]) {\n            if(_actualCouponPaymentDates[coupon - 1] != 0) {\n                return \"Coupon has been paid early prior to due date.\";\n            }\n            else {\n                return \"Coupon not due yet.\";\n            }\n        }\n        // Query after the due date\n        else {\n            if(_actualCouponPaymentDates[coupon - 1] == 0) {\n                return \"Coupon payment is late.\";\n            }\n            else if(_actualCouponPaymentDates[coupon - 1] <= _couponPaymentDates[coupon - 1]) {\n                return \"Coupon paid on time.\";\n            }\n            \n            else {\n                return \"Coupon paid late.\";\n            }\n        }\n    }\n   \n\n    /**\n     * @dev Function to make a principal payment at the maturity\n            Can be called only by the borrowing company.\n            Requires sending enough ether to cover the full principal\n            (facevalue * numer of bonds)\n            Transfers the bond tokens back to the issuing company\n     */\n    function payBackBond() public payable {\n        require(\n            msg.sender == _company,\n            \"Paying company should be the borrowing company\"\n        );\n        require(\n            msg.value >= _totalDebt,\n            \"Not enough ether to settle the bond at maturity\"\n        );\n\n        // Interate through the bonds\n        uint256 numberOfBonds = _bondIdTracker.current();\n        for (uint256 i = 0; i < numberOfBonds; i++) {\n            address payable investor = payable(ownerOf(i));\n            // Transfer bond token from investor to owner\n            _transfer(investor, _owner, i);\n            // Return funds\n            investor.transfer(_value);\n            // Decrement the values\n            _totalDebt = _totalDebt - _value;\n            _bondIdTracker.decrement();\n        }\n\n        // Set the payment date\n        _actualPrincipalPaymentDate = block.timestamp;\n\n        // Refund any extra ether on the contract\n        if (address(this).balance > 0 && msg.value > _totalDebt) {\n            uint256 extraAmount = msg.value - _totalDebt;\n            if (address(this).balance < extraAmount) {\n                uint256 amount = address(this).balance;\n                payable(msg.sender).transfer(amount);\n                emit CoinRefund(msg.sender, amount);\n            } else {\n                payable(msg.sender).transfer(extraAmount);\n                emit CoinRefund(msg.sender, extraAmount);\n            }\n        }\n    }\n  \n    /**\n     * @dev Function to check if the principal payment was made on time\n     */\n    function principalPaidOnTime() public view returns (string memory) {\n        // Querying before the maturity date\n        if(block.timestamp < _maturityDate) {\n            if (_actualPrincipalPaymentDate == 0) {\n                return \"Principal Payment is not due yet.\";\n            } else {\n                return \"Principal was paid back early.\";\n            }\n        }\n        // Querying after the maturity date\n        else {\n            if(_actualPrincipalPaymentDate == 0) {\n                return \"Principal payment is late.\";\n            }\n            else if(_actualPrincipalPaymentDate <= _maturityDate) {\n                return \"Principal was paid back on time.\";\n            }\n            else {\n                return \"Principal was paid back late.\";\n            }\n        }\n    }\n  \n    /**\n     * @dev Function to adjust the coupon\n            Can be only called by the owner (issuing institution)\n            Need to specify the direction of the adjustment and the amount   \n     */\n    function adjustCoupon(bool increase, uint256 amount) external onlyOwner {\n        uint256 previousCoupon = _coupon;\n        if (increase) {\n            _coupon = _coupon + amount;\n        } else {\n            // If adjustement would lead to negative coupon, set coupon to 0\n            if (amount > _coupon) {\n                _coupon = 0;\n            } else {\n                _coupon = _coupon - amount;\n            }       \n        }\n        emit CouponAdjustment(previousCoupon, _coupon);\n    }\n}\n",
  "sourcePath": "/Users/leena/Documents/Coding/Blockchain_Green_Bonds/testProjects/OZ_test/contracts/GreenBond2.sol",
  "compiler": {
    "name": "solc",
    "version": "0.8.0+commit.c7dfd78e.Emscripten.clang"
  },
  "schemaVersion": "3.4.1",
  "updatedAt": "2021-08-12T15:55:55.569Z",
  "networkType": "ethereum",
  "devdoc": {
    "events": {
      "Bid(address,uint256,uint256)": {
        "details": "Emitted when an investor registers a bid"
      },
      "CancelBondIssue(uint256,uint256)": {
        "details": "Emmitted when there is not enough demand for the bond and the issue is cancelled."
      },
      "CoinRefund(address,uint256)": {
        "details": "Emitted when coins are refunded to the investor in case there are too many coins for the investment or to the company if they pay too much  with coupons / principal repayment"
      },
      "CouponAdjustment(uint256,uint256)": {
        "details": "Emmitted when coupon payment is adjusted"
      },
      "CouponPayment(address,uint256)": {
        "details": "Emitted when a coupon payment has been made"
      },
      "CouponSet(uint256)": {
        "details": "Emmitted when the coupon is defined after bidding.  Only when there is enough demand and issue will go ahead."
      }
    },
    "kind": "dev",
    "methods": {
      "adjustCoupon(bool,uint256)": {
        "details": "Function to adjust the coupon Can be only called by the owner (issuing institution) Need to specify the direction of the adjustment and the amount   "
      },
      "approve(address,uint256)": {
        "details": "See {IERC721-approve}."
      },
      "balanceOf(address)": {
        "details": "See {IERC721-balanceOf}."
      },
      "biddingWindowisOpen()": {
        "details": "Returns true if bidding window is open"
      },
      "bondCount()": {
        "details": "Get the number of bonds issued"
      },
      "constructor": {
        "details": "constructor: requires specifying the borrowing company address, bond name and symbol, number of bonds sought, coupon range, bidding window closing time, term, coupons per year and base URI for metadata,"
      },
      "couponDefined()": {
        "details": "Query bond status (cancelled/coupon defined)"
      },
      "couponPaymentOnTime(uint256)": {
        "details": "Function to check if a coupon payment was made on time"
      },
      "defineCoupon()": {
        "details": "Function for the issuing institution to define the coupon. Finds the lowest coupon that covers the number of sought bonds and sets the coupon to that level. Refunds unsuccessful bidders. If not enough demand, coupon will not be defined and _cancelled will be set to false.    "
      },
      "getActualCouponDate(uint256)": {
        "details": "Get the actual coupon payment date for a specific coupon"
      },
      "getActualPricipalPaymentDate()": {
        "details": "Get actual principal payment date"
      },
      "getApproved(uint256)": {
        "details": "See {IERC721-getApproved}."
      },
      "getBidClosingTime()": {
        "details": "Get bid closing time"
      },
      "getBiddersAtCoupon(uint256)": {
        "details": "Get a list of bidders at a specific coupon level"
      },
      "getCompany()": {
        "details": "Get borrowing company."
      },
      "getCoupon()": {
        "details": "Get coupon"
      },
      "getCouponDate(uint256)": {
        "details": "Get the agreed date for a specific coupon"
      },
      "getCouponDates()": {
        "details": "Get an array containin all agreed coupon dates"
      },
      "getCouponPerInvestor(address)": {
        "details": "Get the coupon bid per investor"
      },
      "getFaceValue()": {
        "details": "Get bond face value"
      },
      "getIssueDate()": {
        "details": "Get issue date"
      },
      "getMaturityDate()": {
        "details": "Get maturity date"
      },
      "getMinCoupon()": {
        "details": "Get coupon bidding range"
      },
      "getNumberOfBondsSought()": {
        "details": "Get number of bonds sought"
      },
      "getNumberOfCoupons()": {
        "details": "Get the number of coupon payments for the bond"
      },
      "getNumberOfCouponsPaid()": {
        "details": "Get the number of coupons paid"
      },
      "getRequestedBondsPerInvestor(address)": {
        "details": "Get requested bonds per investor"
      },
      "getStakedAmountPerInvestor(address)": {
        "details": "Get staked amount per investor"
      },
      "getTerm()": {
        "details": "Get bond term in years"
      },
      "getTotalDebt()": {
        "details": "Get the total debt"
      },
      "isApprovedForAll(address,address)": {
        "details": "See {IERC721-isApprovedForAll}."
      },
      "issueBonds()": {
        "details": "Function to issue bonds for investors who bid successfully. Can be called only if coupon has been defined (i.e., issue has not been cancelled). Only owner, the issuing institution, can call the function"
      },
      "makeCouponPayment()": {
        "details": "Function to make a coupon payment. Can be called only by the borrowing company. Requires sending enough ether to cover a coupon payment (total number of bonds * coupon rate)"
      },
      "name()": {
        "details": "See {IERC721Metadata-name}."
      },
      "owner()": {
        "details": "Returns the address of the current owner."
      },
      "ownerOf(uint256)": {
        "details": "See {IERC721-ownerOf}."
      },
      "payBackBond()": {
        "details": "Function to make a principal payment at the maturity Can be called only by the borrowing company. Requires sending enough ether to cover the full principal (facevalue * numer of bonds) Transfers the bond tokens back to the issuing company"
      },
      "principalPaidOnTime()": {
        "details": "Function to check if the principal payment was made on time"
      },
      "registerBid(uint256,uint256)": {
        "details": "Function for an investor to register a bid. Needs to specify the coupon within the given range (min and max coupon) and send enough ether to cover the bid (number of bonds bid * face value of bond). Only one bid allowed per investor.    "
      },
      "renounceOwnership()": {
        "details": "Leaves the contract without owner. It will not be possible to call `onlyOwner` functions anymore. Can only be called by the current owner. NOTE: Renouncing ownership will leave the contract without an owner, thereby removing any functionality that is only available to the owner."
      },
      "safeTransferFrom(address,address,uint256)": {
        "details": "See {IERC721-safeTransferFrom}."
      },
      "safeTransferFrom(address,address,uint256,bytes)": {
        "details": "See {IERC721-safeTransferFrom}."
      },
      "setApprovalForAll(address,bool)": {
        "details": "See {IERC721-setApprovalForAll}."
      },
      "supportsInterface(bytes4)": {
        "details": "See {IERC165-supportsInterface}."
      },
      "symbol()": {
        "details": "See {IERC721Metadata-symbol}."
      },
      "tokenURI(uint256)": {
        "details": "See {IERC721Metadata-tokenURI}."
      },
      "transferFrom(address,address,uint256)": {
        "details": "See {IERC721-transferFrom}."
      },
      "transferOwnership(address)": {
        "details": "Transfers ownership of the contract to a new account (`newOwner`). Can only be called by the current owner."
      }
    },
    "version": 1
  },
  "userdoc": {
    "kind": "user",
    "methods": {},
    "version": 1
  }
}