{
  "contractName": "GreenVerification",
  "abi": [
    {
      "inputs": [
        {
          "internalType": "address",
          "name": "greenVerifier",
          "type": "address"
        },
        {
          "internalType": "address",
          "name": "company",
          "type": "address"
        },
        {
          "internalType": "string",
          "name": "project",
          "type": "string"
        },
        {
          "internalType": "uint256",
          "name": "votingClosingTime",
          "type": "uint256"
        }
      ],
      "stateMutability": "nonpayable",
      "type": "constructor"
    },
    {
      "anonymous": false,
      "inputs": [
        {
          "indexed": false,
          "internalType": "address",
          "name": "voter",
          "type": "address"
        },
        {
          "indexed": false,
          "internalType": "enum GreenVerification.Vote",
          "name": "vote",
          "type": "uint8"
        }
      ],
      "name": "Voted",
      "type": "event"
    },
    {
      "inputs": [],
      "name": "getGreenVerifier",
      "outputs": [
        {
          "internalType": "address",
          "name": "",
          "type": "address"
        }
      ],
      "stateMutability": "view",
      "type": "function"
    },
    {
      "inputs": [],
      "name": "getCompany",
      "outputs": [
        {
          "internalType": "address",
          "name": "",
          "type": "address"
        }
      ],
      "stateMutability": "view",
      "type": "function"
    },
    {
      "inputs": [],
      "name": "getProject",
      "outputs": [
        {
          "internalType": "string",
          "name": "",
          "type": "string"
        }
      ],
      "stateMutability": "view",
      "type": "function"
    },
    {
      "inputs": [],
      "name": "isVerified",
      "outputs": [
        {
          "internalType": "bool",
          "name": "",
          "type": "bool"
        }
      ],
      "stateMutability": "view",
      "type": "function"
    },
    {
      "inputs": [],
      "name": "getVotingClosingTime",
      "outputs": [
        {
          "internalType": "uint256",
          "name": "",
          "type": "uint256"
        }
      ],
      "stateMutability": "view",
      "type": "function"
    },
    {
      "inputs": [],
      "name": "getVerifierVote",
      "outputs": [
        {
          "internalType": "enum GreenVerification.Vote",
          "name": "",
          "type": "uint8"
        }
      ],
      "stateMutability": "view",
      "type": "function"
    },
    {
      "inputs": [
        {
          "internalType": "uint256",
          "name": "vote",
          "type": "uint256"
        }
      ],
      "name": "getInvestorVotesPerVote",
      "outputs": [
        {
          "internalType": "uint256",
          "name": "",
          "type": "uint256"
        }
      ],
      "stateMutability": "view",
      "type": "function"
    },
    {
      "inputs": [
        {
          "internalType": "address",
          "name": "investor",
          "type": "address"
        }
      ],
      "name": "investorHasVoted",
      "outputs": [
        {
          "internalType": "bool",
          "name": "",
          "type": "bool"
        }
      ],
      "stateMutability": "view",
      "type": "function"
    },
    {
      "inputs": [
        {
          "internalType": "uint256",
          "name": "verifierVote",
          "type": "uint256"
        }
      ],
      "name": "greenVerifierVote",
      "outputs": [],
      "stateMutability": "nonpayable",
      "type": "function"
    },
    {
      "inputs": [
        {
          "internalType": "uint256",
          "name": "investorVote",
          "type": "uint256"
        }
      ],
      "name": "vote",
      "outputs": [],
      "stateMutability": "nonpayable",
      "type": "function"
    },
    {
      "inputs": [],
      "name": "verify",
      "outputs": [],
      "stateMutability": "nonpayable",
      "type": "function"
    }
  ],
  "bytecode": "0x60806040523480156200001157600080fd5b506040516200153f3803806200153f83398181016040528101906200003791906200029e565b836000806101000a81548173ffffffffffffffffffffffffffffffffffffffff021916908373ffffffffffffffffffffffffffffffffffffffff16021790555082600160006101000a81548173ffffffffffffffffffffffffffffffffffffffff021916908373ffffffffffffffffffffffffffffffffffffffff1602179055508160029080519060200190620000d09291906200014e565b50806004819055506000600860006101000a81548160ff02191690831515021790555060038060006101000a81548160ff021916908360038111156200013f577f4e487b7100000000000000000000000000000000000000000000000000000000600052602160045260246000fd5b021790555050505050620004c6565b8280546200015c90620003fe565b90600052602060002090601f016020900481019282620001805760008555620001cc565b82601f106200019b57805160ff1916838001178555620001cc565b82800160010185558215620001cc579182015b82811115620001cb578251825591602001919060010190620001ae565b5b509050620001db9190620001df565b5090565b5b80821115620001fa576000816000905550600101620001e0565b5090565b6000620002156200020f8462000357565b62000323565b9050828152602081018484840111156200022e57600080fd5b6200023b848285620003c8565b509392505050565b600081519050620002548162000492565b92915050565b600082601f8301126200026c57600080fd5b81516200027e848260208601620001fe565b91505092915050565b6000815190506200029881620004ac565b92915050565b60008060008060808587031215620002b557600080fd5b6000620002c58782880162000243565b9450506020620002d88782880162000243565b935050604085015167ffffffffffffffff811115620002f657600080fd5b62000304878288016200025a565b9250506060620003178782880162000287565b91505092959194509250565b6000604051905081810181811067ffffffffffffffff821117156200034d576200034c62000463565b5b8060405250919050565b600067ffffffffffffffff82111562000375576200037462000463565b5b601f19601f8301169050602081019050919050565b600062000397826200039e565b9050919050565b600073ffffffffffffffffffffffffffffffffffffffff82169050919050565b6000819050919050565b60005b83811015620003e8578082015181840152602081019050620003cb565b83811115620003f8576000848401525b50505050565b600060028204905060018216806200041757607f821691505b602082108114156200042e576200042d62000434565b5b50919050565b7f4e487b7100000000000000000000000000000000000000000000000000000000600052602260045260246000fd5b7f4e487b7100000000000000000000000000000000000000000000000000000000600052604160045260246000fd5b6200049d816200038a565b8114620004a957600080fd5b50565b620004b781620003be565b8114620004c357600080fd5b50565b61106980620004d66000396000f3fe608060405234801561001057600080fd5b50600436106100a95760003560e01c80636e57b700116100715780636e57b7001461014057806380007e831461015e5780639093c6361461017c578063c1ffc0b6146101ac578063e7940d23146101dc578063fc735e99146101fa576100a9565b80630121b93f146100ae578063127810bc146100ca578063265e7993146100e8578063337e0aff14610104578063675d696214610122575b600080fd5b6100c860048036038101906100c39190610aba565b610204565b005b6100d2610441565b6040516100df9190610c3e565b60405180910390f35b61010260048036038101906100fd9190610aba565b61046b565b005b61010c610646565b6040516101199190610c9d565b60405180910390f35b61012a61065d565b6040516101379190610d3a565b60405180910390f35b610148610667565b6040516101559190610cb8565b60405180910390f35b6101666106f9565b6040516101739190610c82565b60405180910390f35b61019660048036038101906101919190610aba565b610710565b6040516101a39190610d3a565b60405180910390f35b6101c660048036038101906101c19190610a91565b6107a5565b6040516101d39190610c82565b60405180910390f35b6101e46107fb565b6040516101f19190610c3e565b60405180910390f35b610202610824565b005b60001515600960003373ffffffffffffffffffffffffffffffffffffffff1673ffffffffffffffffffffffffffffffffffffffff16815260200190815260200160002060009054906101000a900460ff16151514610297576040517f08c379a000000000000000000000000000000000000000000000000000000000815260040161028e90610cfa565b60405180910390fd5b600081101580156102a9575060028111155b6102e8576040517f08c379a00000000000000000000000000000000000000000000000000000000081526004016102df90610cda565b60405180910390fd5b600060058260038110610324577f4e487b7100000000000000000000000000000000000000000000000000000000600052603260045260246000fd5b015490506001816103359190610d71565b6005836003811061036f577f4e487b7100000000000000000000000000000000000000000000000000000000600052603260045260246000fd5b01819055506001600960003373ffffffffffffffffffffffffffffffffffffffff1673ffffffffffffffffffffffffffffffffffffffff16815260200190815260200160002060006101000a81548160ff0219169083151502179055507f14075e33dffdc00c1fcaf75d0f86d667170be57fb566b12b41b499e5fa53b12533836003811115610427577f4e487b7100000000000000000000000000000000000000000000000000000000600052602160045260246000fd5b604051610435929190610c59565b60405180910390a15050565b6000600160009054906101000a900473ffffffffffffffffffffffffffffffffffffffff16905090565b60008054906101000a900473ffffffffffffffffffffffffffffffffffffffff1673ffffffffffffffffffffffffffffffffffffffff163373ffffffffffffffffffffffffffffffffffffffff16146104f9576040517f08c379a00000000000000000000000000000000000000000000000000000000081526004016104f090610d1a565b60405180910390fd5b6000811015801561050b575060028111155b61054a576040517f08c379a000000000000000000000000000000000000000000000000000000000815260040161054190610cda565b60405180910390fd5b806003811115610583577f4e487b7100000000000000000000000000000000000000000000000000000000600052602160045260246000fd5b600360006101000a81548160ff021916908360038111156105cd577f4e487b7100000000000000000000000000000000000000000000000000000000600052602160045260246000fd5b02179055507f14075e33dffdc00c1fcaf75d0f86d667170be57fb566b12b41b499e5fa53b1253382600381111561062d577f4e487b7100000000000000000000000000000000000000000000000000000000600052602160045260246000fd5b60405161063b929190610c59565b60405180910390a150565b6000600360009054906101000a900460ff16905090565b6000600454905090565b60606002805461067690610ef2565b80601f01602080910402602001604051908101604052809291908181526020018280546106a290610ef2565b80156106ef5780601f106106c4576101008083540402835291602001916106ef565b820191906000526020600020905b8154815290600101906020018083116106d257829003601f168201915b5050505050905090565b6000600860009054906101000a900460ff16905090565b6000808210158015610723575060028211155b610762576040517f08c379a000000000000000000000000000000000000000000000000000000000815260040161075990610cda565b60405180910390fd5b6005826003811061079c577f4e487b7100000000000000000000000000000000000000000000000000000000600052603260045260246000fd5b01549050919050565b6000600960008373ffffffffffffffffffffffffffffffffffffffff1673ffffffffffffffffffffffffffffffffffffffff16815260200190815260200160002060009054906101000a900460ff169050919050565b60008060009054906101000a900473ffffffffffffffffffffffffffffffffffffffff16905090565b60008054906101000a900473ffffffffffffffffffffffffffffffffffffffff1673ffffffffffffffffffffffffffffffffffffffff163373ffffffffffffffffffffffffffffffffffffffff16146108b2576040517f08c379a00000000000000000000000000000000000000000000000000000000081526004016108a990610d1a565b60405180910390fd5b600060056002600381106108ef577f4e487b7100000000000000000000000000000000000000000000000000000000600052603260045260246000fd5b0154600560016003811061092c577f4e487b7100000000000000000000000000000000000000000000000000000000600052603260045260246000fd5b01546005600060038110610969577f4e487b7100000000000000000000000000000000000000000000000000000000600052603260045260246000fd5b01546109759190610d71565b61097f9190610d71565b90506000600360009054906101000a900460ff1660038111156109cb577f4e487b7100000000000000000000000000000000000000000000000000000000600052602160045260246000fd5b9050603282606460058460038110610a0c577f4e487b7100000000000000000000000000000000000000000000000000000000600052603260045260246000fd5b0154610a189190610df8565b610a229190610dc7565b10610a47576001600860006101000a81548160ff021916908315150217905550610a63565b6000600860006101000a81548160ff0219169083151502179055505b5050565b600081359050610a7681611005565b92915050565b600081359050610a8b8161101c565b92915050565b600060208284031215610aa357600080fd5b6000610ab184828501610a67565b91505092915050565b600060208284031215610acc57600080fd5b6000610ada84828501610a7c565b91505092915050565b610aec81610e52565b82525050565b610afb81610e64565b82525050565b610b0a81610ead565b82525050565b6000610b1b82610d55565b610b258185610d60565b9350610b35818560208601610ebf565b610b3e81610fe0565b840191505092915050565b6000610b56601883610d60565b91507f566f7465206d757374206265206265747765656e20302d3200000000000000006000830152602082019050919050565b6000610b96601b83610d60565b91507f496e766573746f722063616e206f6e6c7920766f7465206f6e636500000000006000830152602082019050919050565b6000610bd6602983610d60565b91507f4f6e6c7920677265656e2076657269666965722063616e2063616c6c2074686560008301527f2066756e6374696f6e00000000000000000000000000000000000000000000006020830152604082019050919050565b610c3881610ea3565b82525050565b6000602082019050610c536000830184610ae3565b92915050565b6000604082019050610c6e6000830185610ae3565b610c7b6020830184610b01565b9392505050565b6000602082019050610c976000830184610af2565b92915050565b6000602082019050610cb26000830184610b01565b92915050565b60006020820190508181036000830152610cd28184610b10565b905092915050565b60006020820190508181036000830152610cf381610b49565b9050919050565b60006020820190508181036000830152610d1381610b89565b9050919050565b60006020820190508181036000830152610d3381610bc9565b9050919050565b6000602082019050610d4f6000830184610c2f565b92915050565b600081519050919050565b600082825260208201905092915050565b6000610d7c82610ea3565b9150610d8783610ea3565b9250827fffffffffffffffffffffffffffffffffffffffffffffffffffffffffffffffff03821115610dbc57610dbb610f24565b5b828201905092915050565b6000610dd282610ea3565b9150610ddd83610ea3565b925082610ded57610dec610f53565b5b828204905092915050565b6000610e0382610ea3565b9150610e0e83610ea3565b9250817fffffffffffffffffffffffffffffffffffffffffffffffffffffffffffffffff0483118215151615610e4757610e46610f24565b5b828202905092915050565b6000610e5d82610e83565b9050919050565b60008115159050919050565b6000819050610e7e82610ff1565b919050565b600073ffffffffffffffffffffffffffffffffffffffff82169050919050565b6000819050919050565b6000610eb882610e70565b9050919050565b60005b83811015610edd578082015181840152602081019050610ec2565b83811115610eec576000848401525b50505050565b60006002820490506001821680610f0a57607f821691505b60208210811415610f1e57610f1d610fb1565b5b50919050565b7f4e487b7100000000000000000000000000000000000000000000000000000000600052601160045260246000fd5b7f4e487b7100000000000000000000000000000000000000000000000000000000600052601260045260246000fd5b7f4e487b7100000000000000000000000000000000000000000000000000000000600052602160045260246000fd5b7f4e487b7100000000000000000000000000000000000000000000000000000000600052602260045260246000fd5b6000601f19601f8301169050919050565b6004811061100257611001610f82565b5b50565b61100e81610e52565b811461101957600080fd5b50565b61102581610ea3565b811461103057600080fd5b5056fea2646970667358221220e1bc7125cdcad4944d1879188279a7001c0400d58d155827a139448940459eab64736f6c63430008000033",
  "immutableReferences": {},
  "source": "// SPDX-License-Identifier: MIT\npragma solidity >=0.6.0;\n\ncontract GreenVerification {\n    // Voting options\n    enum Vote{BELOW, PAR, ABOVE, UNDEFINED}\n\n    /**\n     * @dev Modified for function that can only be called by the green verifier\n     */\n    modifier onlyGreenVerifier {\n        require(msg.sender == _greenVerifier, \"Only green verifier can call the function\");\n        _;\n    }\n\n    /**\n     * @dev Event to emit when investor of verifier votes\n     */\n    event Voted(address voter, Vote vote);\n\n    // Members\n    address private _greenVerifier;\n    address private _company;\n    string private _project;\n    Vote private _verifierVote;\n    uint256 private _votingClosingTime;\n    uint256[3] private _investorVotes;\n    bool private _verified;\n    mapping(address => bool) private _votedInvestors;\n\n    /**\n     * Constructors, takes address\n     */\n    constructor(address greenVerifier, address company, string memory project, uint256 votingClosingTime) {\n        _greenVerifier = greenVerifier;\n        _company = company;\n        _project = project;\n        _votingClosingTime = votingClosingTime;\n        _verified = false;\n        _verifierVote = Vote.UNDEFINED;\n    }\n\n    // Getter functions\n    function getGreenVerifier() external view returns (address) {\n        return _greenVerifier;\n    }\n\n    function getCompany() external view returns (address) {\n        return _company;\n    }\n\n    function getProject() external view returns (string memory) {\n        return _project;\n    }\n    \n    function isVerified() external view returns (bool) {\n        return _verified;\n    }\n\n    function getVotingClosingTime() external view returns (uint256) {\n        return _votingClosingTime;\n    }\n\n    function getVerifierVote() external view returns (Vote) {\n        return _verifierVote;\n    }\n\n\n    function getInvestorVotesPerVote(uint256 vote) external view returns (uint256) {\n        require(vote >=0 && vote <=2, \"Vote must be between 0-2\");\n        return _investorVotes[vote];\n    }\n    \n    // Only for testing purposes\n    function investorHasVoted(address investor) external view returns(bool) {\n        return _votedInvestors[investor];\n    }\n\n\n    function greenVerifierVote(uint256 verifierVote) external onlyGreenVerifier {\n        require(verifierVote >=0 && verifierVote <=2, \"Vote must be between 0-2\");\n        _verifierVote = Vote(verifierVote); \n        emit Voted(msg.sender, Vote(verifierVote));\n    }\n\n    function vote(uint256 investorVote) external {\n        require(_votedInvestors[msg.sender] == false, \"Investor can only vote once\");\n        require(investorVote >=0 && investorVote <=2, \"Vote must be between 0-2\");\n\n        uint256 currenNumberOfVotes = _investorVotes[investorVote];\n        _investorVotes[investorVote] = currenNumberOfVotes + 1;\n\n        _votedInvestors[msg.sender] = true;\n        emit Voted(msg.sender, Vote(investorVote));\n    }\n\n    function verify() external onlyGreenVerifier  {\n       uint256 totalVotes = _investorVotes[0] + _investorVotes[1] + _investorVotes[2];\n        uint256 verifierVote = uint256(_verifierVote);\n        if((_investorVotes[verifierVote] * 100)/totalVotes >= 50) {\n            _verified = true;\n        } else {\n            _verified = false;\n        }\n    }\n}",
  "sourcePath": "/Users/leena/Documents/Coding/Blockchain_Green_Bonds/testProjects/OZ_test/contracts/GreenVerification.sol",
  "compiler": {
    "name": "solc",
    "version": "0.8.0+commit.c7dfd78e.Emscripten.clang"
  },
  "schemaVersion": "3.3.4",
  "updatedAt": "2021-07-13T12:32:44.907Z",
  "devdoc": {
    "events": {
      "Voted(address,uint8)": {
        "details": "Event to emit when investor of verifier votes"
      }
    },
    "kind": "dev",
    "methods": {},
    "version": 1
  },
  "userdoc": {
    "kind": "user",
    "methods": {
      "constructor": {
        "notice": "Constructors, takes address"
      }
    },
    "version": 1
  }
}