{
  "contractName": "GreenBond",
  "abi": [
    {
      "inputs": [
        {
          "internalType": "string",
          "name": "name",
          "type": "string"
        },
        {
          "internalType": "string",
          "name": "symbol",
          "type": "string"
        },
        {
          "internalType": "string",
          "name": "baseTokenURI",
          "type": "string"
        },
        {
          "internalType": "address",
          "name": "company",
          "type": "address"
        },
        {
          "internalType": "uint256",
          "name": "value",
          "type": "uint256"
        },
        {
          "internalType": "uint256",
          "name": "coupon",
          "type": "uint256"
        }
      ],
      "stateMutability": "nonpayable",
      "type": "constructor"
    },
    {
      "anonymous": false,
      "inputs": [
        {
          "indexed": true,
          "internalType": "address",
          "name": "owner",
          "type": "address"
        },
        {
          "indexed": true,
          "internalType": "address",
          "name": "approved",
          "type": "address"
        },
        {
          "indexed": true,
          "internalType": "uint256",
          "name": "tokenId",
          "type": "uint256"
        }
      ],
      "name": "Approval",
      "type": "event"
    },
    {
      "anonymous": false,
      "inputs": [
        {
          "indexed": true,
          "internalType": "address",
          "name": "owner",
          "type": "address"
        },
        {
          "indexed": true,
          "internalType": "address",
          "name": "operator",
          "type": "address"
        },
        {
          "indexed": false,
          "internalType": "bool",
          "name": "approved",
          "type": "bool"
        }
      ],
      "name": "ApprovalForAll",
      "type": "event"
    },
    {
      "anonymous": false,
      "inputs": [
        {
          "indexed": false,
          "internalType": "address",
          "name": "sender",
          "type": "address"
        },
        {
          "indexed": false,
          "internalType": "uint256",
          "name": "value",
          "type": "uint256"
        }
      ],
      "name": "CoinRefund",
      "type": "event"
    },
    {
      "anonymous": false,
      "inputs": [
        {
          "indexed": false,
          "internalType": "address",
          "name": "adjuster",
          "type": "address"
        },
        {
          "indexed": false,
          "internalType": "uint256",
          "name": "couponRate",
          "type": "uint256"
        }
      ],
      "name": "CouponAdjustment",
      "type": "event"
    },
    {
      "anonymous": false,
      "inputs": [
        {
          "indexed": false,
          "internalType": "address",
          "name": "investor",
          "type": "address"
        },
        {
          "indexed": false,
          "internalType": "uint256",
          "name": "tokenId",
          "type": "uint256"
        }
      ],
      "name": "CouponPayment",
      "type": "event"
    },
    {
      "anonymous": false,
      "inputs": [
        {
          "indexed": false,
          "internalType": "address",
          "name": "investor",
          "type": "address"
        },
        {
          "indexed": false,
          "internalType": "uint256",
          "name": "value",
          "type": "uint256"
        },
        {
          "indexed": false,
          "internalType": "uint256",
          "name": "numberOfTokens",
          "type": "uint256"
        }
      ],
      "name": "Investment",
      "type": "event"
    },
    {
      "anonymous": false,
      "inputs": [
        {
          "indexed": true,
          "internalType": "address",
          "name": "previousOwner",
          "type": "address"
        },
        {
          "indexed": true,
          "internalType": "address",
          "name": "newOwner",
          "type": "address"
        }
      ],
      "name": "OwnershipTransferred",
      "type": "event"
    },
    {
      "anonymous": false,
      "inputs": [
        {
          "indexed": false,
          "internalType": "address",
          "name": "account",
          "type": "address"
        }
      ],
      "name": "Paused",
      "type": "event"
    },
    {
      "anonymous": false,
      "inputs": [
        {
          "indexed": true,
          "internalType": "address",
          "name": "from",
          "type": "address"
        },
        {
          "indexed": true,
          "internalType": "address",
          "name": "to",
          "type": "address"
        },
        {
          "indexed": true,
          "internalType": "uint256",
          "name": "tokenId",
          "type": "uint256"
        }
      ],
      "name": "Transfer",
      "type": "event"
    },
    {
      "anonymous": false,
      "inputs": [
        {
          "indexed": false,
          "internalType": "address",
          "name": "account",
          "type": "address"
        }
      ],
      "name": "Unpaused",
      "type": "event"
    },
    {
      "inputs": [
        {
          "internalType": "uint256",
          "name": "",
          "type": "uint256"
        }
      ],
      "name": "_investors",
      "outputs": [
        {
          "internalType": "address",
          "name": "",
          "type": "address"
        }
      ],
      "stateMutability": "view",
      "type": "function",
      "constant": true
    },
    {
      "inputs": [
        {
          "internalType": "address",
          "name": "to",
          "type": "address"
        },
        {
          "internalType": "uint256",
          "name": "tokenId",
          "type": "uint256"
        }
      ],
      "name": "approve",
      "outputs": [],
      "stateMutability": "nonpayable",
      "type": "function"
    },
    {
      "inputs": [
        {
          "internalType": "address",
          "name": "owner",
          "type": "address"
        }
      ],
      "name": "balanceOf",
      "outputs": [
        {
          "internalType": "uint256",
          "name": "",
          "type": "uint256"
        }
      ],
      "stateMutability": "view",
      "type": "function",
      "constant": true
    },
    {
      "inputs": [
        {
          "internalType": "uint256",
          "name": "tokenId",
          "type": "uint256"
        }
      ],
      "name": "getApproved",
      "outputs": [
        {
          "internalType": "address",
          "name": "",
          "type": "address"
        }
      ],
      "stateMutability": "view",
      "type": "function",
      "constant": true
    },
    {
      "inputs": [
        {
          "internalType": "address",
          "name": "owner",
          "type": "address"
        },
        {
          "internalType": "address",
          "name": "operator",
          "type": "address"
        }
      ],
      "name": "isApprovedForAll",
      "outputs": [
        {
          "internalType": "bool",
          "name": "",
          "type": "bool"
        }
      ],
      "stateMutability": "view",
      "type": "function",
      "constant": true
    },
    {
      "inputs": [],
      "name": "name",
      "outputs": [
        {
          "internalType": "string",
          "name": "",
          "type": "string"
        }
      ],
      "stateMutability": "view",
      "type": "function",
      "constant": true
    },
    {
      "inputs": [],
      "name": "owner",
      "outputs": [
        {
          "internalType": "address",
          "name": "",
          "type": "address"
        }
      ],
      "stateMutability": "view",
      "type": "function",
      "constant": true
    },
    {
      "inputs": [
        {
          "internalType": "uint256",
          "name": "tokenId",
          "type": "uint256"
        }
      ],
      "name": "ownerOf",
      "outputs": [
        {
          "internalType": "address",
          "name": "",
          "type": "address"
        }
      ],
      "stateMutability": "view",
      "type": "function",
      "constant": true
    },
    {
      "inputs": [],
      "name": "renounceOwnership",
      "outputs": [],
      "stateMutability": "nonpayable",
      "type": "function"
    },
    {
      "inputs": [
        {
          "internalType": "address",
          "name": "from",
          "type": "address"
        },
        {
          "internalType": "address",
          "name": "to",
          "type": "address"
        },
        {
          "internalType": "uint256",
          "name": "tokenId",
          "type": "uint256"
        }
      ],
      "name": "safeTransferFrom",
      "outputs": [],
      "stateMutability": "nonpayable",
      "type": "function"
    },
    {
      "inputs": [
        {
          "internalType": "address",
          "name": "from",
          "type": "address"
        },
        {
          "internalType": "address",
          "name": "to",
          "type": "address"
        },
        {
          "internalType": "uint256",
          "name": "tokenId",
          "type": "uint256"
        },
        {
          "internalType": "bytes",
          "name": "_data",
          "type": "bytes"
        }
      ],
      "name": "safeTransferFrom",
      "outputs": [],
      "stateMutability": "nonpayable",
      "type": "function"
    },
    {
      "inputs": [
        {
          "internalType": "address",
          "name": "operator",
          "type": "address"
        },
        {
          "internalType": "bool",
          "name": "approved",
          "type": "bool"
        }
      ],
      "name": "setApprovalForAll",
      "outputs": [],
      "stateMutability": "nonpayable",
      "type": "function"
    },
    {
      "inputs": [],
      "name": "symbol",
      "outputs": [
        {
          "internalType": "string",
          "name": "",
          "type": "string"
        }
      ],
      "stateMutability": "view",
      "type": "function",
      "constant": true
    },
    {
      "inputs": [
        {
          "internalType": "uint256",
          "name": "tokenId",
          "type": "uint256"
        }
      ],
      "name": "tokenURI",
      "outputs": [
        {
          "internalType": "string",
          "name": "",
          "type": "string"
        }
      ],
      "stateMutability": "view",
      "type": "function",
      "constant": true
    },
    {
      "inputs": [
        {
          "internalType": "address",
          "name": "from",
          "type": "address"
        },
        {
          "internalType": "address",
          "name": "to",
          "type": "address"
        },
        {
          "internalType": "uint256",
          "name": "tokenId",
          "type": "uint256"
        }
      ],
      "name": "transferFrom",
      "outputs": [],
      "stateMutability": "nonpayable",
      "type": "function"
    },
    {
      "inputs": [
        {
          "internalType": "address",
          "name": "newOwner",
          "type": "address"
        }
      ],
      "name": "transferOwnership",
      "outputs": [],
      "stateMutability": "nonpayable",
      "type": "function"
    },
    {
      "inputs": [
        {
          "internalType": "address",
          "name": "regulator",
          "type": "address"
        }
      ],
      "name": "setRegulator",
      "outputs": [],
      "stateMutability": "nonpayable",
      "type": "function"
    },
    {
      "inputs": [
        {
          "internalType": "address",
          "name": "greenVerifier",
          "type": "address"
        }
      ],
      "name": "setGreenVerifier",
      "outputs": [],
      "stateMutability": "nonpayable",
      "type": "function"
    },
    {
      "inputs": [],
      "name": "regulator",
      "outputs": [
        {
          "internalType": "address",
          "name": "",
          "type": "address"
        }
      ],
      "stateMutability": "view",
      "type": "function",
      "constant": true
    },
    {
      "inputs": [],
      "name": "greenVerifier",
      "outputs": [
        {
          "internalType": "address",
          "name": "",
          "type": "address"
        }
      ],
      "stateMutability": "view",
      "type": "function",
      "constant": true
    },
    {
      "inputs": [],
      "name": "getValue",
      "outputs": [
        {
          "internalType": "uint256",
          "name": "",
          "type": "uint256"
        }
      ],
      "stateMutability": "view",
      "type": "function",
      "constant": true
    },
    {
      "inputs": [],
      "name": "getCoupon",
      "outputs": [
        {
          "internalType": "uint256",
          "name": "",
          "type": "uint256"
        }
      ],
      "stateMutability": "view",
      "type": "function",
      "constant": true
    },
    {
      "inputs": [],
      "name": "getTotalLoan",
      "outputs": [
        {
          "internalType": "uint256",
          "name": "",
          "type": "uint256"
        }
      ],
      "stateMutability": "view",
      "type": "function",
      "constant": true
    },
    {
      "inputs": [],
      "name": "numberOfInvestors",
      "outputs": [
        {
          "internalType": "uint256",
          "name": "",
          "type": "uint256"
        }
      ],
      "stateMutability": "view",
      "type": "function",
      "constant": true
    },
    {
      "inputs": [],
      "name": "tokenCount",
      "outputs": [
        {
          "internalType": "uint256",
          "name": "",
          "type": "uint256"
        }
      ],
      "stateMutability": "view",
      "type": "function",
      "constant": true
    },
    {
      "inputs": [],
      "name": "getName",
      "outputs": [
        {
          "internalType": "string",
          "name": "",
          "type": "string"
        }
      ],
      "stateMutability": "view",
      "type": "function",
      "constant": true
    },
    {
      "inputs": [
        {
          "internalType": "address",
          "name": "investor",
          "type": "address"
        }
      ],
      "name": "getInvestorBalance",
      "outputs": [
        {
          "internalType": "uint256",
          "name": "",
          "type": "uint256"
        }
      ],
      "stateMutability": "view",
      "type": "function",
      "constant": true
    },
    {
      "inputs": [
        {
          "internalType": "bytes4",
          "name": "interfaceId",
          "type": "bytes4"
        }
      ],
      "name": "supportsInterface",
      "outputs": [
        {
          "internalType": "bool",
          "name": "",
          "type": "bool"
        }
      ],
      "stateMutability": "view",
      "type": "function",
      "constant": true
    },
    {
      "inputs": [
        {
          "internalType": "uint256",
          "name": "number",
          "type": "uint256"
        }
      ],
      "name": "registerInvestment",
      "outputs": [],
      "stateMutability": "payable",
      "type": "function",
      "payable": true
    },
    {
      "inputs": [],
      "name": "issueTokens",
      "outputs": [],
      "stateMutability": "nonpayable",
      "type": "function"
    },
    {
      "inputs": [
        {
          "internalType": "uint256",
          "name": "numberOfTokens",
          "type": "uint256"
        },
        {
          "internalType": "address",
          "name": "to",
          "type": "address"
        }
      ],
      "name": "issueTokens",
      "outputs": [],
      "stateMutability": "nonpayable",
      "type": "function"
    },
    {
      "inputs": [],
      "name": "payCoupons",
      "outputs": [],
      "stateMutability": "payable",
      "type": "function",
      "payable": true
    },
    {
      "inputs": [],
      "name": "payBackBond",
      "outputs": [],
      "stateMutability": "payable",
      "type": "function",
      "payable": true
    },
    {
      "inputs": [],
      "name": "paused",
      "outputs": [
        {
          "internalType": "bool",
          "name": "",
          "type": "bool"
        }
      ],
      "stateMutability": "view",
      "type": "function",
      "constant": true
    },
    {
      "inputs": [],
      "name": "pause",
      "outputs": [],
      "stateMutability": "nonpayable",
      "type": "function"
    },
    {
      "inputs": [],
      "name": "unpause",
      "outputs": [],
      "stateMutability": "nonpayable",
      "type": "function"
    },
    {
      "inputs": [
        {
          "internalType": "bool",
          "name": "increase",
          "type": "bool"
        },
        {
          "internalType": "uint256",
          "name": "amount",
          "type": "uint256"
        }
      ],
      "name": "adjustCoupon",
      "outputs": [],
      "stateMutability": "nonpayable",
      "type": "function"
    }
  ],
  "bytecode": "0x60806040523480156200001157600080fd5b50604051620052813803806200528183398181016040528101906200003791906200038d565b85858160009080519060200190620000519291906200023d565b5080600190805190602001906200006a9291906200023d565b50505060006200007f6200023560201b60201c565b905080600660006101000a81548173ffffffffffffffffffffffffffffffffffffffff021916908373ffffffffffffffffffffffffffffffffffffffff1602179055508073ffffffffffffffffffffffffffffffffffffffff16600073ffffffffffffffffffffffffffffffffffffffff167f8be0079c531659141344cd1fd0a4f28419497f9722a3daafe3b4186f6b6457e060405160405180910390a350600081101562000165576040517f08c379a00000000000000000000000000000000000000000000000000000000081526004016200015c90620004b0565b60405180910390fd5b33600b60006101000a81548173ffffffffffffffffffffffffffffffffffffffff021916908373ffffffffffffffffffffffffffffffffffffffff1602179055508360079080519060200190620001be9291906200023d565b5082600c60006101000a81548173ffffffffffffffffffffffffffffffffffffffff021916908373ffffffffffffffffffffffffffffffffffffffff16021790555081600f81905550806010819055506000600960006101000a81548160ff02191690831515021790555050505050505062000686565b600033905090565b8280546200024b90620005be565b90600052602060002090601f0160209004810192826200026f5760008555620002bb565b82601f106200028a57805160ff1916838001178555620002bb565b82800160010185558215620002bb579182015b82811115620002ba5782518255916020019190600101906200029d565b5b509050620002ca9190620002ce565b5090565b5b80821115620002e9576000816000905550600101620002cf565b5090565b600062000304620002fe8462000506565b620004d2565b9050828152602081018484840111156200031d57600080fd5b6200032a84828562000588565b509392505050565b600081519050620003438162000652565b92915050565b600082601f8301126200035b57600080fd5b81516200036d848260208601620002ed565b91505092915050565b60008151905062000387816200066c565b92915050565b60008060008060008060c08789031215620003a757600080fd5b600087015167ffffffffffffffff811115620003c257600080fd5b620003d089828a0162000349565b965050602087015167ffffffffffffffff811115620003ee57600080fd5b620003fc89828a0162000349565b955050604087015167ffffffffffffffff8111156200041a57600080fd5b6200042889828a0162000349565b94505060606200043b89828a0162000332565b93505060806200044e89828a0162000376565b92505060a06200046189828a0162000376565b9150509295509295509295565b60006200047d60208362000539565b91507f436f75706f6e207061796d656e742063616e2774206265206e656761746976656000830152602082019050919050565b60006020820190508181036000830152620004cb816200046e565b9050919050565b6000604051905081810181811067ffffffffffffffff82111715620004fc57620004fb62000623565b5b8060405250919050565b600067ffffffffffffffff82111562000524576200052362000623565b5b601f19601f8301169050602081019050919050565b600082825260208201905092915050565b600062000557826200055e565b9050919050565b600073ffffffffffffffffffffffffffffffffffffffff82169050919050565b6000819050919050565b60005b83811015620005a85780820151818401526020810190506200058b565b83811115620005b8576000848401525b50505050565b60006002820490506001821680620005d757607f821691505b60208210811415620005ee57620005ed620005f4565b5b50919050565b7f4e487b7100000000000000000000000000000000000000000000000000000000600052602260045260246000fd5b7f4e487b7100000000000000000000000000000000000000000000000000000000600052604160045260246000fd5b6200065d816200054a565b81146200066957600080fd5b50565b62000677816200057e565b81146200068357600080fd5b50565b614beb80620006966000396000f3fe6080604052600436106102195760003560e01c80636352211e116101235780639f181b5e116100ab578063d367acfe1161006f578063d367acfe1461074b578063dd8fee1414610776578063e985e9c5146107a1578063efd86729146107de578063f2fde38b1461080757610219565b80639f181b5e14610668578063a22cb46514610693578063b88d4fde146106bc578063c87b56dd146106e5578063cde0a4f81461072257610219565b80637d2026af116100f25780637d2026af146105955780638456cb59146105d25780638a06a364146105e95780638da5cb5b1461061257806395d89b411461063d57610219565b80636352211e146104db57806370a0823114610518578063715018a6146105555780637ad5be881461056c57610219565b806323b872dd116101a65780634a513801116101755780634a513801146104485780634cff6c0e146104525780635c975abb1461045c5780635ea639131461048757806360ab5852146104c457610219565b806323b872dd146103b45780632929c6e6146103dd5780633f4ba83a1461040857806342842e0e1461041f57610219565b8063081812fc116101ed578063081812fc146102cd578063095ea7b31461030a57806317d7de7c146103335780631af2c9fd1461035e578063209652551461038957610219565b806283db4b1461021e57806301ffc9a71461023a57806306fdde031461027757806307634cbe146102a2575b600080fd5b61023860048036038101906102339190613725565b610830565b005b34801561024657600080fd5b50610261600480360381019061025c91906136d3565b610a8c565b60405161026e9190614343565b60405180910390f35b34801561028357600080fd5b5061028c610a9e565b604051610299919061435e565b60405180910390f35b3480156102ae57600080fd5b506102b7610b30565b6040516102c49190614720565b60405180910390f35b3480156102d957600080fd5b506102f460048036038101906102ef9190613725565b610b3a565b6040516103019190614253565b60405180910390f35b34801561031657600080fd5b50610331600480360381019061032c919061365b565b610bbf565b005b34801561033f57600080fd5b50610348610cd7565b604051610355919061435e565b60405180910390f35b34801561036a57600080fd5b50610373610ce6565b6040516103809190614720565b60405180910390f35b34801561039557600080fd5b5061039e610cf3565b6040516103ab9190614720565b60405180910390f35b3480156103c057600080fd5b506103db60048036038101906103d69190613555565b610cfd565b005b3480156103e957600080fd5b506103f2610d5d565b6040516103ff9190614720565b60405180910390f35b34801561041457600080fd5b5061041d610d67565b005b34801561042b57600080fd5b5061044660048036038101906104419190613555565b610ea1565b005b610450610ec1565b005b61045a61109a565b005b34801561046857600080fd5b50610471611381565b60405161047e9190614343565b60405180910390f35b34801561049357600080fd5b506104ae60048036038101906104a991906134f0565b611398565b6040516104bb9190614720565b60405180910390f35b3480156104d057600080fd5b506104d9611450565b005b3480156104e757600080fd5b5061050260048036038101906104fd9190613725565b611895565b60405161050f9190614253565b60405180910390f35b34801561052457600080fd5b5061053f600480360381019061053a91906134f0565b611947565b60405161054c9190614720565b60405180910390f35b34801561056157600080fd5b5061056a6119ff565b005b34801561057857600080fd5b50610593600480360381019061058e919061374e565b611b3c565b005b3480156105a157600080fd5b506105bc60048036038101906105b79190613725565b611dcd565b6040516105c99190614253565b60405180910390f35b3480156105de57600080fd5b506105e7611e0c565b005b3480156105f557600080fd5b50610610600480360381019061060b91906134f0565b611f47565b005b34801561061e57600080fd5b50610627612007565b6040516106349190614253565b60405180910390f35b34801561064957600080fd5b50610652612031565b60405161065f919061435e565b60405180910390f35b34801561067457600080fd5b5061067d6120c3565b60405161068a9190614720565b60405180910390f35b34801561069f57600080fd5b506106ba60048036038101906106b5919061361f565b6120d4565b005b3480156106c857600080fd5b506106e360048036038101906106de91906135a4565b612255565b005b3480156106f157600080fd5b5061070c60048036038101906107079190613725565b6122b7565b604051610719919061435e565b60405180910390f35b34801561072e57600080fd5b50610749600480360381019061074491906134f0565b61235e565b005b34801561075757600080fd5b5061076061241e565b60405161076d9190614253565b60405180910390f35b34801561078257600080fd5b5061078b612448565b6040516107989190614253565b60405180910390f35b3480156107ad57600080fd5b506107c860048036038101906107c39190613519565b612472565b6040516107d59190614343565b60405180910390f35b3480156107ea57600080fd5b5061080560048036038101906108009190613697565b612506565b005b34801561081357600080fd5b5061082e600480360381019061082991906134f0565b612618565b005b600f548161083e9190614866565b341015610880576040517f08c379a000000000000000000000000000000000000000000000000000000000815260040161087790614700565b60405180910390fd5b6000601260003373ffffffffffffffffffffffffffffffffffffffff1673ffffffffffffffffffffffffffffffffffffffff16815260200190815260200160002054141561092c57600a339080600181540180825580915050600190039060005260206000200160009091909190916101000a81548173ffffffffffffffffffffffffffffffffffffffff021916908373ffffffffffffffffffffffffffffffffffffffff1602179055505b6000601260003373ffffffffffffffffffffffffffffffffffffffff1673ffffffffffffffffffffffffffffffffffffffff168152602001908152602001600020549050348161097c91906147df565b601260003373ffffffffffffffffffffffffffffffffffffffff1673ffffffffffffffffffffffffffffffffffffffff1681526020019081526020016000208190555081601360003373ffffffffffffffffffffffffffffffffffffffff1673ffffffffffffffffffffffffffffffffffffffff16815260200190815260200160002054610a0a91906147df565b601360003373ffffffffffffffffffffffffffffffffffffffff1673ffffffffffffffffffffffffffffffffffffffff168152602001908152602001600020819055507f8514357b17ccbde354811f827b94585a7ab01b4034aa86a807b7cc2c100b7be8333484604051610a809392919061430c565b60405180910390a15050565b6000610a97826127c4565b9050919050565b606060008054610aad906149e0565b80601f0160208091040260200160405190810160405280929190818152602001828054610ad9906149e0565b8015610b265780601f10610afb57610100808354040283529160200191610b26565b820191906000526020600020905b815481529060010190602001808311610b0957829003601f168201915b5050505050905090565b6000601054905090565b6000610b45826128a6565b610b84576040517f08c379a0000000000000000000000000000000000000000000000000000000008152600401610b7b906145c0565b60405180910390fd5b6004600083815260200190815260200160002060009054906101000a900473ffffffffffffffffffffffffffffffffffffffff169050919050565b6000610bca82611895565b90508073ffffffffffffffffffffffffffffffffffffffff168373ffffffffffffffffffffffffffffffffffffffff161415610c3b576040517f08c379a0000000000000000000000000000000000000000000000000000000008152600401610c3290614660565b60405180910390fd5b8073ffffffffffffffffffffffffffffffffffffffff16610c5a612912565b73ffffffffffffffffffffffffffffffffffffffff161480610c895750610c8881610c83612912565b612472565b5b610cc8576040517f08c379a0000000000000000000000000000000000000000000000000000000008152600401610cbf90614540565b60405180910390fd5b610cd2838361291a565b505050565b6060610ce1610a9e565b905090565b6000600a80549050905090565b6000600f54905090565b610d0e610d08612912565b826129d3565b610d4d576040517f08c379a0000000000000000000000000000000000000000000000000000000008152600401610d44906146a0565b60405180910390fd5b610d58838383612ab1565b505050565b6000601154905090565b600960009054906101000a900460ff16610db6576040517f08c379a0000000000000000000000000000000000000000000000000000000008152600401610dad90614380565b60405180910390fd5b600d60009054906101000a900473ffffffffffffffffffffffffffffffffffffffff1673ffffffffffffffffffffffffffffffffffffffff163373ffffffffffffffffffffffffffffffffffffffff1614610e46576040517f08c379a0000000000000000000000000000000000000000000000000000000008152600401610e3d906143e0565b60405180910390fd5b6000600960006101000a81548160ff0219169083151502179055507f5db9ee0a495bf2e6ff9c91a7834c1ba4fdd244a5e8aa4e537bd38aeae4b073aa610e8a612912565b604051610e979190614253565b60405180910390a1565b610ebc83838360405180602001604052806000815250612255565b505050565b610ecb6008612d0d565b601054610ed89190614866565b341015610f1a576040517f08c379a0000000000000000000000000000000000000000000000000000000008152600401610f1190614680565b60405180910390fd5b60005b610f276008612d0d565b811015610fd1576000610f3982611895565b90508073ffffffffffffffffffffffffffffffffffffffff166108fc6010549081150290604051600060405180830381858888f19350505050158015610f83573d6000803e3d6000fd5b507fb3224bc7c2e6157092b5f650cc8b06e5f0c34d8218b6e9a1a5a39c2e43706e408183604051610fb592919061426e565b60405180910390a1508080610fc990614a12565b915050610f1d565b50610fdc6008612d0d565b601054610fe99190614866565b341115611098576000610ffc6008612d0d565b6010546110099190614866565b3461101491906148c0565b90503373ffffffffffffffffffffffffffffffffffffffff166108fc829081150290604051600060405180830381858888f1935050505015801561105c573d6000803e3d6000fd5b507f2ee76d0c8417fef3c9f68663d321eb1c1ed0e089b5298177f0582aeadb6fd91f338260405161108e9291906142e3565b60405180910390a1505b565b600c60009054906101000a900473ffffffffffffffffffffffffffffffffffffffff1673ffffffffffffffffffffffffffffffffffffffff163373ffffffffffffffffffffffffffffffffffffffff161461112a576040517f08c379a000000000000000000000000000000000000000000000000000000000815260040161112190614480565b60405180910390fd5b60115434101561116f576040517f08c379a0000000000000000000000000000000000000000000000000000000008152600401611166906146c0565b60405180910390fd5b600061117b6008612d0d565b905060005b8181101561123f57600061119382611895565b90506111c281600b60009054906101000a900473ffffffffffffffffffffffffffffffffffffffff1684612d1b565b8073ffffffffffffffffffffffffffffffffffffffff166108fc600f549081150290604051600060405180830381858888f1935050505015801561120a573d6000803e3d6000fd5b50600f5460115461121b91906148c0565b60118190555061122b6008612d2b565b50808061123790614a12565b915050611180565b50600047118015611251575060115434115b1561137e5760006011543461126691906148c0565b9050804710156112fb5760004790503373ffffffffffffffffffffffffffffffffffffffff166108fc829081150290604051600060405180830381858888f193505050501580156112bb573d6000803e3d6000fd5b507f2ee76d0c8417fef3c9f68663d321eb1c1ed0e089b5298177f0582aeadb6fd91f33826040516112ed9291906142e3565b60405180910390a15061137c565b3373ffffffffffffffffffffffffffffffffffffffff166108fc829081150290604051600060405180830381858888f19350505050158015611341573d6000803e3d6000fd5b507f2ee76d0c8417fef3c9f68663d321eb1c1ed0e089b5298177f0582aeadb6fd91f33826040516113739291906142e3565b60405180910390a15b505b50565b6000600960009054906101000a900460ff16905090565b60008073ffffffffffffffffffffffffffffffffffffffff168273ffffffffffffffffffffffffffffffffffffffff161415611409576040517f08c379a000000000000000000000000000000000000000000000000000000000815260040161140090614600565b60405180910390fd5b601260008373ffffffffffffffffffffffffffffffffffffffff1673ffffffffffffffffffffffffffffffffffffffff168152602001908152602001600020549050919050565b600b60009054906101000a900473ffffffffffffffffffffffffffffffffffffffff1673ffffffffffffffffffffffffffffffffffffffff163373ffffffffffffffffffffffffffffffffffffffff16146114e0576040517f08c379a00000000000000000000000000000000000000000000000000000000081526004016114d7906146e0565b60405180910390fd5b60005b600a80549050811015611892576000600a828154811061152c577f4e487b7100000000000000000000000000000000000000000000000000000000600052603260045260246000fd5b9060005260206000200160009054906101000a900473ffffffffffffffffffffffffffffffffffffffff1690506000601360008373ffffffffffffffffffffffffffffffffffffffff1673ffffffffffffffffffffffffffffffffffffffff168152602001908152602001600020549050600c60009054906101000a900473ffffffffffffffffffffffffffffffffffffffff1673ffffffffffffffffffffffffffffffffffffffff166108fc82600f546115e79190614866565b9081150290604051600060405180830381858888f19350505050158015611612573d6000803e3d6000fd5b5060005b8181101561164e576116318361162c6008612d0d565b612d87565b61163b6008612f55565b808061164690614a12565b915050611616565b50600f548161165d9190614866565b601260008473ffffffffffffffffffffffffffffffffffffffff1673ffffffffffffffffffffffffffffffffffffffff1681526020019081526020016000205411156117d2578173ffffffffffffffffffffffffffffffffffffffff166108fc600f54836116cb9190614866565b601260008673ffffffffffffffffffffffffffffffffffffffff1673ffffffffffffffffffffffffffffffffffffffff1681526020019081526020016000205461171591906148c0565b9081150290604051600060405180830381858888f19350505050158015611740573d6000803e3d6000fd5b507f2ee76d0c8417fef3c9f68663d321eb1c1ed0e089b5298177f0582aeadb6fd91f82600f54836117719190614866565b601260008673ffffffffffffffffffffffffffffffffffffffff1673ffffffffffffffffffffffffffffffffffffffff168152602001908152602001600020546117bb91906148c0565b6040516117c99291906142e3565b60405180910390a15b6000601260008473ffffffffffffffffffffffffffffffffffffffff1673ffffffffffffffffffffffffffffffffffffffff168152602001908152602001600020819055506000601360008473ffffffffffffffffffffffffffffffffffffffff1673ffffffffffffffffffffffffffffffffffffffff1681526020019081526020016000208190555080600f5461186a9190614866565b60115461187791906147df565b6011819055505050808061188a90614a12565b9150506114e3565b50565b6000806002600084815260200190815260200160002060009054906101000a900473ffffffffffffffffffffffffffffffffffffffff169050600073ffffffffffffffffffffffffffffffffffffffff168173ffffffffffffffffffffffffffffffffffffffff16141561193e576040517f08c379a000000000000000000000000000000000000000000000000000000000815260040161193590614580565b60405180910390fd5b80915050919050565b60008073ffffffffffffffffffffffffffffffffffffffff168273ffffffffffffffffffffffffffffffffffffffff1614156119b8576040517f08c379a00000000000000000000000000000000000000000000000000000000081526004016119af90614560565b60405180910390fd5b600360008373ffffffffffffffffffffffffffffffffffffffff1673ffffffffffffffffffffffffffffffffffffffff168152602001908152602001600020549050919050565b611a07612912565b73ffffffffffffffffffffffffffffffffffffffff16611a25612007565b73ffffffffffffffffffffffffffffffffffffffff1614611a7b576040517f08c379a0000000000000000000000000000000000000000000000000000000008152600401611a72906145e0565b60405180910390fd5b600073ffffffffffffffffffffffffffffffffffffffff16600660009054906101000a900473ffffffffffffffffffffffffffffffffffffffff1673ffffffffffffffffffffffffffffffffffffffff167f8be0079c531659141344cd1fd0a4f28419497f9722a3daafe3b4186f6b6457e060405160405180910390a36000600660006101000a81548173ffffffffffffffffffffffffffffffffffffffff021916908373ffffffffffffffffffffffffffffffffffffffff160217905550565b600b60009054906101000a900473ffffffffffffffffffffffffffffffffffffffff1673ffffffffffffffffffffffffffffffffffffffff163373ffffffffffffffffffffffffffffffffffffffff1614611bcc576040517f08c379a0000000000000000000000000000000000000000000000000000000008152600401611bc3906146e0565b60405180910390fd5b600f5482611bda9190614866565b601260008373ffffffffffffffffffffffffffffffffffffffff1673ffffffffffffffffffffffffffffffffffffffff168152602001908152602001600020541015611c5b576040517f08c379a0000000000000000000000000000000000000000000000000000000008152600401611c52906144e0565b60405180910390fd5b600c60009054906101000a900473ffffffffffffffffffffffffffffffffffffffff1673ffffffffffffffffffffffffffffffffffffffff166108fc83600f54611ca59190614866565b9081150290604051600060405180830381858888f19350505050158015611cd0573d6000803e3d6000fd5b50600f5482611cdf9190614866565b601260008373ffffffffffffffffffffffffffffffffffffffff1673ffffffffffffffffffffffffffffffffffffffff16815260200190815260200160002054611d2991906148c0565b601260008373ffffffffffffffffffffffffffffffffffffffff1673ffffffffffffffffffffffffffffffffffffffff16815260200190815260200160002081905550600f5482611d7a9190614866565b601154611d8791906147df565b60118190555060005b82811015611dc857611dab82611da66008612d0d565b612d87565b611db56008612f55565b8080611dc090614a12565b915050611d90565b505050565b600a8181548110611ddd57600080fd5b906000526020600020016000915054906101000a900473ffffffffffffffffffffffffffffffffffffffff1681565b600960009054906101000a900460ff1615611e5c576040517f08c379a0000000000000000000000000000000000000000000000000000000008152600401611e5390614500565b60405180910390fd5b600d60009054906101000a900473ffffffffffffffffffffffffffffffffffffffff1673ffffffffffffffffffffffffffffffffffffffff163373ffffffffffffffffffffffffffffffffffffffff1614611eec576040517f08c379a0000000000000000000000000000000000000000000000000000000008152600401611ee390614520565b60405180910390fd5b6001600960006101000a81548160ff0219169083151502179055507f62e78cea01bee320cd4e420270b5ea74000d11b0c9f74754ebdbfc544b05a258611f30612912565b604051611f3d9190614253565b60405180910390a1565b611f4f612912565b73ffffffffffffffffffffffffffffffffffffffff16611f6d612007565b73ffffffffffffffffffffffffffffffffffffffff1614611fc3576040517f08c379a0000000000000000000000000000000000000000000000000000000008152600401611fba906145e0565b60405180910390fd5b80600e60006101000a81548173ffffffffffffffffffffffffffffffffffffffff021916908373ffffffffffffffffffffffffffffffffffffffff16021790555050565b6000600660009054906101000a900473ffffffffffffffffffffffffffffffffffffffff16905090565b606060018054612040906149e0565b80601f016020809104026020016040519081016040528092919081815260200182805461206c906149e0565b80156120b95780601f1061208e576101008083540402835291602001916120b9565b820191906000526020600020905b81548152906001019060200180831161209c57829003601f168201915b5050505050905090565b60006120cf6008612d0d565b905090565b6120dc612912565b73ffffffffffffffffffffffffffffffffffffffff168273ffffffffffffffffffffffffffffffffffffffff16141561214a576040517f08c379a000000000000000000000000000000000000000000000000000000000815260040161214190614460565b60405180910390fd5b8060056000612157612912565b73ffffffffffffffffffffffffffffffffffffffff1673ffffffffffffffffffffffffffffffffffffffff16815260200190815260200160002060008473ffffffffffffffffffffffffffffffffffffffff1673ffffffffffffffffffffffffffffffffffffffff16815260200190815260200160002060006101000a81548160ff0219169083151502179055508173ffffffffffffffffffffffffffffffffffffffff16612204612912565b73ffffffffffffffffffffffffffffffffffffffff167f17307eab39ab6107e8899845ad3d59bd9653f200f220920489ca2b5937696c31836040516122499190614343565b60405180910390a35050565b612266612260612912565b836129d3565b6122a5576040517f08c379a000000000000000000000000000000000000000000000000000000000815260040161229c906146a0565b60405180910390fd5b6122b184848484612f6b565b50505050565b60606122c2826128a6565b612301576040517f08c379a00000000000000000000000000000000000000000000000000000000081526004016122f890614640565b60405180910390fd5b600061230b612fc7565b9050600081511161232b5760405180602001604052806000815250612356565b8061233584613059565b60405160200161234692919061422f565b6040516020818303038152906040525b915050919050565b612366612912565b73ffffffffffffffffffffffffffffffffffffffff16612384612007565b73ffffffffffffffffffffffffffffffffffffffff16146123da576040517f08c379a00000000000000000000000000000000000000000000000000000000081526004016123d1906145e0565b60405180910390fd5b80600d60006101000a81548173ffffffffffffffffffffffffffffffffffffffff021916908373ffffffffffffffffffffffffffffffffffffffff16021790555050565b6000600e60009054906101000a900473ffffffffffffffffffffffffffffffffffffffff16905090565b6000600d60009054906101000a900473ffffffffffffffffffffffffffffffffffffffff16905090565b6000600560008473ffffffffffffffffffffffffffffffffffffffff1673ffffffffffffffffffffffffffffffffffffffff16815260200190815260200160002060008373ffffffffffffffffffffffffffffffffffffffff1673ffffffffffffffffffffffffffffffffffffffff16815260200190815260200160002060009054906101000a900460ff16905092915050565b600e60009054906101000a900473ffffffffffffffffffffffffffffffffffffffff1673ffffffffffffffffffffffffffffffffffffffff163373ffffffffffffffffffffffffffffffffffffffff161461256057600080fd5b811561257f578060105461257491906147df565b6010819055506125d9565b6010548111156125c4576040517f08c379a00000000000000000000000000000000000000000000000000000000081526004016125bb906144a0565b60405180910390fd5b806010546125d291906148c0565b6010819055505b7fca1d6283d1b481c7291c2fc81205d98456d1c2948caa5f9460dd3e35ca34e4163360105460405161260c9291906142e3565b60405180910390a15050565b612620612912565b73ffffffffffffffffffffffffffffffffffffffff1661263e612007565b73ffffffffffffffffffffffffffffffffffffffff1614612694576040517f08c379a000000000000000000000000000000000000000000000000000000000815260040161268b906145e0565b60405180910390fd5b600073ffffffffffffffffffffffffffffffffffffffff168173ffffffffffffffffffffffffffffffffffffffff161415612704576040517f08c379a00000000000000000000000000000000000000000000000000000000081526004016126fb90614400565b60405180910390fd5b8073ffffffffffffffffffffffffffffffffffffffff16600660009054906101000a900473ffffffffffffffffffffffffffffffffffffffff1673ffffffffffffffffffffffffffffffffffffffff167f8be0079c531659141344cd1fd0a4f28419497f9722a3daafe3b4186f6b6457e060405160405180910390a380600660006101000a81548173ffffffffffffffffffffffffffffffffffffffff021916908373ffffffffffffffffffffffffffffffffffffffff16021790555050565b60007f80ac58cd000000000000000000000000000000000000000000000000000000007bffffffffffffffffffffffffffffffffffffffffffffffffffffffff1916827bffffffffffffffffffffffffffffffffffffffffffffffffffffffff1916148061288f57507f5b5e139f000000000000000000000000000000000000000000000000000000007bffffffffffffffffffffffffffffffffffffffffffffffffffffffff1916827bffffffffffffffffffffffffffffffffffffffffffffffffffffffff1916145b8061289f575061289e82613206565b5b9050919050565b60008073ffffffffffffffffffffffffffffffffffffffff166002600084815260200190815260200160002060009054906101000a900473ffffffffffffffffffffffffffffffffffffffff1673ffffffffffffffffffffffffffffffffffffffff1614159050919050565b600033905090565b816004600083815260200190815260200160002060006101000a81548173ffffffffffffffffffffffffffffffffffffffff021916908373ffffffffffffffffffffffffffffffffffffffff160217905550808273ffffffffffffffffffffffffffffffffffffffff1661298d83611895565b73ffffffffffffffffffffffffffffffffffffffff167f8c5be1e5ebec7d5bd14f71427d1e84f3dd0314c0f7b2291e5b200ac8c7c3b92560405160405180910390a45050565b60006129de826128a6565b612a1d576040517f08c379a0000000000000000000000000000000000000000000000000000000008152600401612a14906144c0565b60405180910390fd5b6000612a2883611895565b90508073ffffffffffffffffffffffffffffffffffffffff168473ffffffffffffffffffffffffffffffffffffffff161480612a9757508373ffffffffffffffffffffffffffffffffffffffff16612a7f84610b3a565b73ffffffffffffffffffffffffffffffffffffffff16145b80612aa85750612aa78185612472565b5b91505092915050565b8273ffffffffffffffffffffffffffffffffffffffff16612ad182611895565b73ffffffffffffffffffffffffffffffffffffffff1614612b27576040517f08c379a0000000000000000000000000000000000000000000000000000000008152600401612b1e90614620565b60405180910390fd5b600073ffffffffffffffffffffffffffffffffffffffff168273ffffffffffffffffffffffffffffffffffffffff161415612b97576040517f08c379a0000000000000000000000000000000000000000000000000000000008152600401612b8e90614440565b60405180910390fd5b612ba2838383613270565b612bad60008261291a565b6001600360008573ffffffffffffffffffffffffffffffffffffffff1673ffffffffffffffffffffffffffffffffffffffff1681526020019081526020016000206000828254612bfd91906148c0565b925050819055506001600360008473ffffffffffffffffffffffffffffffffffffffff1673ffffffffffffffffffffffffffffffffffffffff1681526020019081526020016000206000828254612c5491906147df565b92505081905550816002600083815260200190815260200160002060006101000a81548173ffffffffffffffffffffffffffffffffffffffff021916908373ffffffffffffffffffffffffffffffffffffffff160217905550808273ffffffffffffffffffffffffffffffffffffffff168473ffffffffffffffffffffffffffffffffffffffff167fddf252ad1be2c89b69c2b068fc378daa952ba7f163c4a11628f55a4df523b3ef60405160405180910390a4505050565b600081600001549050919050565b612d26838383612ab1565b505050565b60008160000154905060008111612d77576040517f08c379a0000000000000000000000000000000000000000000000000000000008152600401612d6e906143a0565b60405180910390fd5b6001810382600001819055505050565b600073ffffffffffffffffffffffffffffffffffffffff168273ffffffffffffffffffffffffffffffffffffffff161415612df7576040517f08c379a0000000000000000000000000000000000000000000000000000000008152600401612dee906145a0565b60405180910390fd5b612e00816128a6565b15612e40576040517f08c379a0000000000000000000000000000000000000000000000000000000008152600401612e3790614420565b60405180910390fd5b612e4c60008383613270565b6001600360008473ffffffffffffffffffffffffffffffffffffffff1673ffffffffffffffffffffffffffffffffffffffff1681526020019081526020016000206000828254612e9c91906147df565b92505081905550816002600083815260200190815260200160002060006101000a81548173ffffffffffffffffffffffffffffffffffffffff021916908373ffffffffffffffffffffffffffffffffffffffff160217905550808273ffffffffffffffffffffffffffffffffffffffff16600073ffffffffffffffffffffffffffffffffffffffff167fddf252ad1be2c89b69c2b068fc378daa952ba7f163c4a11628f55a4df523b3ef60405160405180910390a45050565b6001816000016000828254019250508190555050565b612f76848484612ab1565b612f8284848484613275565b612fc1576040517f08c379a0000000000000000000000000000000000000000000000000000000008152600401612fb8906143c0565b60405180910390fd5b50505050565b606060078054612fd6906149e0565b80601f0160208091040260200160405190810160405280929190818152602001828054613002906149e0565b801561304f5780601f106130245761010080835404028352916020019161304f565b820191906000526020600020905b81548152906001019060200180831161303257829003601f168201915b5050505050905090565b606060008214156130a1576040518060400160405280600181526020017f30000000000000000000000000000000000000000000000000000000000000008152509050613201565b600082905060005b600082146130d35780806130bc90614a12565b915050600a826130cc9190614835565b91506130a9565b60008167ffffffffffffffff811115613115577f4e487b7100000000000000000000000000000000000000000000000000000000600052604160045260246000fd5b6040519080825280601f01601f1916602001820160405280156131475781602001600182028036833780820191505090505b5090505b600085146131fa5760018261316091906148c0565b9150600a8561316f9190614a5b565b603061317b91906147df565b60f81b8183815181106131b7577f4e487b7100000000000000000000000000000000000000000000000000000000600052603260045260246000fd5b60200101907effffffffffffffffffffffffffffffffffffffffffffffffffffffffffffff1916908160001a905350600a856131f39190614835565b945061314b565b8093505050505b919050565b60007f01ffc9a7000000000000000000000000000000000000000000000000000000007bffffffffffffffffffffffffffffffffffffffffffffffffffffffff1916827bffffffffffffffffffffffffffffffffffffffffffffffffffffffff1916149050919050565b505050565b60006132968473ffffffffffffffffffffffffffffffffffffffff1661340c565b156133ff578373ffffffffffffffffffffffffffffffffffffffff1663150b7a026132bf612912565b8786866040518563ffffffff1660e01b81526004016132e19493929190614297565b602060405180830381600087803b1580156132fb57600080fd5b505af192505050801561332c57506040513d601f19601f8201168201806040525081019061332991906136fc565b60015b6133af573d806000811461335c576040519150601f19603f3d011682016040523d82523d6000602084013e613361565b606091505b506000815114156133a7576040517f08c379a000000000000000000000000000000000000000000000000000000000815260040161339e906143c0565b60405180910390fd5b805181602001fd5b63150b7a0260e01b7bffffffffffffffffffffffffffffffffffffffffffffffffffffffff1916817bffffffffffffffffffffffffffffffffffffffffffffffffffffffff191614915050613404565b600190505b949350505050565b600080823b905060008111915050919050565b600061343261342d8461476c565b61473b565b90508281526020810184848401111561344a57600080fd5b61345584828561499e565b509392505050565b60008135905061346c81614b59565b92915050565b60008135905061348181614b70565b92915050565b60008135905061349681614b87565b92915050565b6000815190506134ab81614b87565b92915050565b600082601f8301126134c257600080fd5b81356134d284826020860161341f565b91505092915050565b6000813590506134ea81614b9e565b92915050565b60006020828403121561350257600080fd5b60006135108482850161345d565b91505092915050565b6000806040838503121561352c57600080fd5b600061353a8582860161345d565b925050602061354b8582860161345d565b9150509250929050565b60008060006060848603121561356a57600080fd5b60006135788682870161345d565b93505060206135898682870161345d565b925050604061359a868287016134db565b9150509250925092565b600080600080608085870312156135ba57600080fd5b60006135c88782880161345d565b94505060206135d98782880161345d565b93505060406135ea878288016134db565b925050606085013567ffffffffffffffff81111561360757600080fd5b613613878288016134b1565b91505092959194509250565b6000806040838503121561363257600080fd5b60006136408582860161345d565b925050602061365185828601613472565b9150509250929050565b6000806040838503121561366e57600080fd5b600061367c8582860161345d565b925050602061368d858286016134db565b9150509250929050565b600080604083850312156136aa57600080fd5b60006136b885828601613472565b92505060206136c9858286016134db565b9150509250929050565b6000602082840312156136e557600080fd5b60006136f384828501613487565b91505092915050565b60006020828403121561370e57600080fd5b600061371c8482850161349c565b91505092915050565b60006020828403121561373757600080fd5b6000613745848285016134db565b91505092915050565b6000806040838503121561376157600080fd5b600061376f858286016134db565b92505060206137808582860161345d565b9150509250929050565b61379381614968565b82525050565b6137a2816148f4565b82525050565b6137b181614906565b82525050565b60006137c28261479c565b6137cc81856147b2565b93506137dc8185602086016149ad565b6137e581614b48565b840191505092915050565b60006137fb826147a7565b61380581856147c3565b93506138158185602086016149ad565b61381e81614b48565b840191505092915050565b6000613834826147a7565b61383e81856147d4565b935061384e8185602086016149ad565b80840191505092915050565b60006138676014836147c3565b91507f5061757361626c653a206e6f74207061757365640000000000000000000000006000830152602082019050919050565b60006138a7601b836147c3565b91507f436f756e7465723a2064656372656d656e74206f766572666c6f7700000000006000830152602082019050919050565b60006138e76032836147c3565b91507f4552433732313a207472616e7366657220746f206e6f6e20455243373231526560008301527f63656976657220696d706c656d656e74657200000000000000000000000000006020830152604082019050919050565b600061394d6022836147c3565b91507f556e7061757365722063616e206f6e6c792062652074686520726567756c617460008301527f6f720000000000000000000000000000000000000000000000000000000000006020830152604082019050919050565b60006139b36026836147c3565b91507f4f776e61626c653a206e6577206f776e657220697320746865207a65726f206160008301527f64647265737300000000000000000000000000000000000000000000000000006020830152604082019050919050565b6000613a19601c836147c3565b91507f4552433732313a20746f6b656e20616c7265616479206d696e746564000000006000830152602082019050919050565b6000613a596024836147c3565b91507f4552433732313a207472616e7366657220746f20746865207a65726f2061646460008301527f72657373000000000000000000000000000000000000000000000000000000006020830152604082019050919050565b6000613abf6019836147c3565b91507f4552433732313a20617070726f766520746f2063616c6c6572000000000000006000830152602082019050919050565b6000613aff602e836147c3565b91507f506179696e6720636f6d70616e792073686f756c642062652074686520626f7260008301527f726f77696e6720636f6d70616e790000000000000000000000000000000000006020830152604082019050919050565b6000613b656020836147c3565b91507f436f75706f6e207061796d656e742063616e2774206265206e656761746976656000830152602082019050919050565b6000613ba5602c836147c3565b91507f4552433732313a206f70657261746f7220717565727920666f72206e6f6e657860008301527f697374656e7420746f6b656e00000000000000000000000000000000000000006020830152604082019050919050565b6000613c0b602c836147c3565b91507f496e766573746f7220686173206e6f7420656e6f7567682066756e647320666f60008301527f722074686520746f6b656e7300000000000000000000000000000000000000006020830152604082019050919050565b6000613c716010836147c3565b91507f5061757361626c653a20706175736564000000000000000000000000000000006000830152602082019050919050565b6000613cb16020836147c3565b91507f5061757365722063616e206f6e6c792062652074686520726567756c61746f726000830152602082019050919050565b6000613cf16038836147c3565b91507f4552433732313a20617070726f76652063616c6c6572206973206e6f74206f7760008301527f6e6572206e6f7220617070726f76656420666f7220616c6c00000000000000006020830152604082019050919050565b6000613d57602a836147c3565b91507f4552433732313a2062616c616e636520717565727920666f7220746865207a6560008301527f726f2061646472657373000000000000000000000000000000000000000000006020830152604082019050919050565b6000613dbd6029836147c3565b91507f4552433732313a206f776e657220717565727920666f72206e6f6e657869737460008301527f656e7420746f6b656e00000000000000000000000000000000000000000000006020830152604082019050919050565b6000613e236020836147c3565b91507f4552433732313a206d696e7420746f20746865207a65726f20616464726573736000830152602082019050919050565b6000613e63602c836147c3565b91507f4552433732313a20617070726f76656420717565727920666f72206e6f6e657860008301527f697374656e7420746f6b656e00000000000000000000000000000000000000006020830152604082019050919050565b6000613ec96020836147c3565b91507f4f776e61626c653a2063616c6c6572206973206e6f7420746865206f776e65726000830152602082019050919050565b6000613f096022836147c3565b91507f42616c616e636520717565727920666f7220746865207a65726f20616464726560008301527f73730000000000000000000000000000000000000000000000000000000000006020830152604082019050919050565b6000613f6f6029836147c3565b91507f4552433732313a207472616e73666572206f6620746f6b656e2074686174206960008301527f73206e6f74206f776e00000000000000000000000000000000000000000000006020830152604082019050919050565b6000613fd5602f836147c3565b91507f4552433732314d657461646174613a2055524920717565727920666f72206e6f60008301527f6e6578697374656e7420746f6b656e00000000000000000000000000000000006020830152604082019050919050565b600061403b6021836147c3565b91507f4552433732313a20617070726f76616c20746f2063757272656e74206f776e6560008301527f72000000000000000000000000000000000000000000000000000000000000006020830152604082019050919050565b60006140a1601c836147c3565b91507f4e6f7420656e6f75676820636f696e7320666f7220636f75706f6e73000000006000830152602082019050919050565b60006140e16031836147c3565b91507f4552433732313a207472616e736665722063616c6c6572206973206e6f74206f60008301527f776e6572206e6f7220617070726f7665640000000000000000000000000000006020830152604082019050919050565b6000614147602f836147c3565b91507f4e6f7420656e6f75676820636f696e7320746f20736574746c6520746865206260008301527f6f6e64206174206d6174757269747900000000000000000000000000000000006020830152604082019050919050565b60006141ad601a836147c3565b91507f4f6e6c79206f776e65722063616e206d696e7420746f6b656e730000000000006000830152602082019050919050565b60006141ed601f836147c3565b91507f6e6f7420656e6f75676820636f696e7320666f722074686520616d6f756e74006000830152602082019050919050565b6142298161495e565b82525050565b600061423b8285613829565b91506142478284613829565b91508190509392505050565b60006020820190506142686000830184613799565b92915050565b6000604082019050614283600083018561378a565b6142906020830184614220565b9392505050565b60006080820190506142ac6000830187613799565b6142b96020830186613799565b6142c66040830185614220565b81810360608301526142d881846137b7565b905095945050505050565b60006040820190506142f86000830185613799565b6143056020830184614220565b9392505050565b60006060820190506143216000830186613799565b61432e6020830185614220565b61433b6040830184614220565b949350505050565b600060208201905061435860008301846137a8565b92915050565b6000602082019050818103600083015261437881846137f0565b905092915050565b600060208201905081810360008301526143998161385a565b9050919050565b600060208201905081810360008301526143b98161389a565b9050919050565b600060208201905081810360008301526143d9816138da565b9050919050565b600060208201905081810360008301526143f981613940565b9050919050565b60006020820190508181036000830152614419816139a6565b9050919050565b6000602082019050818103600083015261443981613a0c565b9050919050565b6000602082019050818103600083015261445981613a4c565b9050919050565b6000602082019050818103600083015261447981613ab2565b9050919050565b6000602082019050818103600083015261449981613af2565b9050919050565b600060208201905081810360008301526144b981613b58565b9050919050565b600060208201905081810360008301526144d981613b98565b9050919050565b600060208201905081810360008301526144f981613bfe565b9050919050565b6000602082019050818103600083015261451981613c64565b9050919050565b6000602082019050818103600083015261453981613ca4565b9050919050565b6000602082019050818103600083015261455981613ce4565b9050919050565b6000602082019050818103600083015261457981613d4a565b9050919050565b6000602082019050818103600083015261459981613db0565b9050919050565b600060208201905081810360008301526145b981613e16565b9050919050565b600060208201905081810360008301526145d981613e56565b9050919050565b600060208201905081810360008301526145f981613ebc565b9050919050565b6000602082019050818103600083015261461981613efc565b9050919050565b6000602082019050818103600083015261463981613f62565b9050919050565b6000602082019050818103600083015261465981613fc8565b9050919050565b600060208201905081810360008301526146798161402e565b9050919050565b6000602082019050818103600083015261469981614094565b9050919050565b600060208201905081810360008301526146b9816140d4565b9050919050565b600060208201905081810360008301526146d98161413a565b9050919050565b600060208201905081810360008301526146f9816141a0565b9050919050565b60006020820190508181036000830152614719816141e0565b9050919050565b60006020820190506147356000830184614220565b92915050565b6000604051905081810181811067ffffffffffffffff8211171561476257614761614b19565b5b8060405250919050565b600067ffffffffffffffff82111561478757614786614b19565b5b601f19601f8301169050602081019050919050565b600081519050919050565b600081519050919050565b600082825260208201905092915050565b600082825260208201905092915050565b600081905092915050565b60006147ea8261495e565b91506147f58361495e565b9250827fffffffffffffffffffffffffffffffffffffffffffffffffffffffffffffffff0382111561482a57614829614a8c565b5b828201905092915050565b60006148408261495e565b915061484b8361495e565b92508261485b5761485a614abb565b5b828204905092915050565b60006148718261495e565b915061487c8361495e565b9250817fffffffffffffffffffffffffffffffffffffffffffffffffffffffffffffffff04831182151516156148b5576148b4614a8c565b5b828202905092915050565b60006148cb8261495e565b91506148d68361495e565b9250828210156148e9576148e8614a8c565b5b828203905092915050565b60006148ff8261493e565b9050919050565b60008115159050919050565b60007fffffffff0000000000000000000000000000000000000000000000000000000082169050919050565b600073ffffffffffffffffffffffffffffffffffffffff82169050919050565b6000819050919050565b60006149738261497a565b9050919050565b60006149858261498c565b9050919050565b60006149978261493e565b9050919050565b82818337600083830152505050565b60005b838110156149cb5780820151818401526020810190506149b0565b838111156149da576000848401525b50505050565b600060028204905060018216806149f857607f821691505b60208210811415614a0c57614a0b614aea565b5b50919050565b6000614a1d8261495e565b91507fffffffffffffffffffffffffffffffffffffffffffffffffffffffffffffffff821415614a5057614a4f614a8c565b5b600182019050919050565b6000614a668261495e565b9150614a718361495e565b925082614a8157614a80614abb565b5b828206905092915050565b7f4e487b7100000000000000000000000000000000000000000000000000000000600052601160045260246000fd5b7f4e487b7100000000000000000000000000000000000000000000000000000000600052601260045260246000fd5b7f4e487b7100000000000000000000000000000000000000000000000000000000600052602260045260246000fd5b7f4e487b7100000000000000000000000000000000000000000000000000000000600052604160045260246000fd5b6000601f19601f8301169050919050565b614b62816148f4565b8114614b6d57600080fd5b50565b614b7981614906565b8114614b8457600080fd5b50565b614b9081614912565b8114614b9b57600080fd5b50565b614ba78161495e565b8114614bb257600080fd5b5056fea26469706673582212208a16b241f308a5b882c72d89e8682f26dd604ad0612353631df0e048d5a645e564736f6c63430008000033",
  "immutableReferences": {},
  "source": "// SPDX-License-Identifier: MIT\npragma solidity >=0.6.0;\n\nimport \"@openzeppelin/contracts/token/ERC721/ERC721.sol\";\n//import \"@openzeppelin/contracts/access/AccessControlEnumerable.sol\";\nimport \"@openzeppelin/contracts/access/Ownable.sol\";\nimport \"@openzeppelin/contracts/utils/Counters.sol\";\n\ncontract GreenBond is ERC721, Ownable{\n    using Counters for Counters.Counter;\n\n    string private _baseTokenURI;\n    Counters.Counter private _tokenIdTracker;\n    bool private _paused;\n\n    address [] public _investors;\n\n    address _owner;\n    address payable _company;\n    address _regulator; \n    address _greenVerifier;\n    uint256 _value;\n    uint256 _coupon;\n    uint256 _totalValueRaised;\n\n    /**\n     * @dev Emitted when an investor registers initial investment request\n     */\n    event Investment(address investor, uint256 value, uint256 numberOfTokens);\n    \n    /**\n     * @dev Emitted when coins are refunded to the investor in case there are\n            too many coins for the investment or to the company if they pay too much \n            with coupons / principal repayment\n     */\n    event CoinRefund(address sender, uint256 value);\n    \n    /**\n     * @dev Emitted when a coupon payment has been made\n     */\n    event CouponPayment(address investor, uint256 tokenId);\n\n    /**\n     * @dev Emitted when the pause is triggered by a pauser (regulator).\n     */\n    event Paused(address account);\n\n    /**\n     * @dev Emitted when the pause is lifted by a pauser (regulator).\n     */\n    event Unpaused(address account);\n\n    /**\n     * @dev Emmitted when coupon payment is adjusted\n     */\n    event CouponAdjustment(address adjuster, uint256 couponRate);\n\n    mapping (address => uint256) _investedAmountPerInvestor;\n    mapping (address => uint256) _requestedTokensPerInvestor;\n\n    //bytes32 public constant MINTER_ROLE = keccak256(\"MINTER_ROLE\");\n    \n    // Will need to add pauser address as constructor parameter (financial regulator)\n    constructor(string memory name, string memory symbol, string memory baseTokenURI, \n    address company, uint256 value, uint256 coupon) ERC721 (name, symbol) {\n        require(coupon >= 0, \"Coupon payment can't be negative\");\n        _owner = msg.sender;\n        _baseTokenURI = baseTokenURI;\n        _company = payable(company);\n        _value = value;\n        _coupon = coupon;\n        _paused = false;\n\n        //_setupRole(MINTER_ROLE, _msgSender());    \n    }\n\n    function setRegulator(address regulator) public onlyOwner {\n        _regulator = regulator;\n    }\n    \n    function setGreenVerifier(address greenVerifier) public onlyOwner {\n        _greenVerifier = greenVerifier;\n    }\n\n    function regulator() public view returns(address) {\n        return _regulator;\n    }\n\n    function greenVerifier() public view returns(address) {\n        return _greenVerifier;\n    }\n\n    function getValue() public view returns(uint256) {\n        return _value;\n    }\n\n    function getCoupon() public view returns(uint256) {\n        return _coupon;\n    }\n\n    function getTotalLoan() public view returns(uint256) {\n        return _totalValueRaised;\n    }\n\n    function numberOfInvestors() public view returns(uint256) {\n        return _investors.length;\n    }\n    \n    function tokenCount() public view returns(uint256) {\n        return _tokenIdTracker.current();\n    }\n    \n    function getName() public view returns(string memory) {\n        return name();\n    } \n\n    function getInvestorBalance(address investor) public view returns (uint){\n        require(investor != address(0), \"Balance query for the zero address\");\n        return _investedAmountPerInvestor[investor];\n    }\n\n    function _baseURI() internal view override returns (string memory) {\n        return _baseTokenURI;\n    }\n\n    // Needed to override this function as two parent classes defined the same function\n    function supportsInterface(bytes4 interfaceId) public view virtual override(ERC721) returns (bool) {\n        return super.supportsInterface(interfaceId);\n    }\n\n    // Function to register investment interest (requires staking money on the contract)\n    function registerInvestment(uint256 number) public payable {\n        // Require that the investor has enough coins\n        require(msg.value >= number * _value, \"not enough coins for the amount\");\n\n        // Check if investor already on the list\n        if (_investedAmountPerInvestor[msg.sender] == 0) {\n            _investors.push(msg.sender);\n        }\n        \n        // Register the investment\n        uint256 currentAmount = _investedAmountPerInvestor[msg.sender];\n        _investedAmountPerInvestor[msg.sender] = currentAmount + msg.value;\n        _requestedTokensPerInvestor[msg.sender] = _requestedTokensPerInvestor[msg.sender] + number;\n\n        // Emit event\n        emit Investment(msg.sender, msg.value, number);\n    }\n\n\n    // Function to issue tokens for registered investors\n    // Assumes all investors will get tokens\n    function issueTokens() public {\n        require(msg.sender == _owner, \"Only owner can mint tokens\");\n        //require(hasRole(MINTER_ROLE, _msgSender()), \"Minter must have minter role to mint\");\n\n        // Iterate through each investor\n        for (uint i = 0; i < _investors.length; i++) {\n            address investor = _investors[i];\n            uint256 numberOfTokens = _requestedTokensPerInvestor[investor];\n            // Transfer money to the borrowing company\n            _company.transfer(_value * numberOfTokens); \n            \n\n            // Issue tokens\n            for (uint j = 0; j < numberOfTokens; j++) {  \n                _mint(investor, _tokenIdTracker.current());\n                _tokenIdTracker.increment();\n            }\n\n            // If the invested amount would be greated than the amount needed for investment\n            // Return the remainder back to the investor\n            if (_investedAmountPerInvestor[investor] > numberOfTokens * _value) {\n                payable(investor).transfer(_investedAmountPerInvestor[investor] - numberOfTokens * _value);\n                emit CoinRefund(investor, _investedAmountPerInvestor[investor] - numberOfTokens * _value);\n            }\n\n            // Update the records\n            _investedAmountPerInvestor[investor] = 0;\n            _requestedTokensPerInvestor[investor] = 0;\n            _totalValueRaised = _totalValueRaised + _value * numberOfTokens;\n  \n        }\n    }\n    // Requires that the minter has minter role\n    // Automatically creates tokenURI with baseURI concatenated with TokenId\n    function issueTokens(uint256 numberOfTokens, address to) public {\n        require(msg.sender == _owner, \"Only owner can mint tokens\");\n        //require(hasRole(MINTER_ROLE, _msgSender()), \"Minter must have minter role to mint\");\n\n        // Transfer the money to the issuer\n        //require(msg.value >= _value * numberOfTokens, \"Not enough money send for the tokens\");\n        require(_investedAmountPerInvestor[to] >= numberOfTokens * _value, \"Investor has not enough funds for the tokens\");\n        //_company.transfer(msg.value);\n        //_totalValueRaisedRaised = _totalValueRaisedRaised + msg.value;\n\n        // Transfer coins and reduce the investors investment balance\n        _company.transfer(_value * numberOfTokens); \n        _investedAmountPerInvestor[to] = _investedAmountPerInvestor[to] - numberOfTokens * _value;\n        _totalValueRaised = _totalValueRaised + numberOfTokens * _value;\n\n        for (uint i = 0; i < numberOfTokens; i++) {  \n            _mint(to, _tokenIdTracker.current());\n            _tokenIdTracker.increment();\n        }\n    }\n\n    // Function for the borrowing company to pay coupons\n    function payCoupons() public payable {\n        // Message needs to have enough value for the copupon payments\n        require(msg.value >= _coupon * _tokenIdTracker.current(), \"Not enough coins for coupons\");\n        for (uint i = 0; i < _tokenIdTracker.current(); i++) {\n            address payable investor = payable(ownerOf(i));\n            investor.transfer(_coupon);\n            emit CouponPayment(investor, i);\n        }\n\n        // Refund extra coins if paid too much\n        if (msg.value > _coupon * _tokenIdTracker.current()) {\n            uint256 extraAmount = msg.value - _coupon * _tokenIdTracker.current();\n            payable(msg.sender).transfer(extraAmount);\n            emit CoinRefund(msg.sender, extraAmount);\n        }\n    }\n\n    // This function should be called by the borrowing company\n    function payBackBond() public payable {\n        require(msg.sender == _company, \"Paying company should be the borrowing company\");\n        require(msg.value >= _totalValueRaised, \"Not enough coins to settle the bond at maturity\");\n        \n        // Interate through the tokens\n        uint256 numberOfTokens = _tokenIdTracker.current();\n        for(uint i = 0; i < numberOfTokens; i++) {\n            address payable investor = payable(ownerOf(i));\n            // Transfer token from investor to owner\n            tokenTransfer(investor, _owner, i);\n            // Return funds\n            investor.transfer(_value);\n            // Decrement the values\n            _totalValueRaised = _totalValueRaised - _value;\n            _tokenIdTracker.decrement();\n        }\n        \n\n        // Refund coins there is extra money on the contract\n        if (address(this).balance > 0 && msg.value > _totalValueRaised) {\n            uint256 extraAmount = msg.value - _totalValueRaised;\n            if(address(this).balance < extraAmount) {\n                uint256 amount = address(this).balance;\n                payable(msg.sender).transfer(amount);\n                emit CoinRefund(msg.sender, amount);\n            } else {\n                payable(msg.sender).transfer(extraAmount);\n            emit CoinRefund(msg.sender, extraAmount);\n            }\n        }\n    \n    }\n\n    /*\n    // Not needed anymore\n    function returnTokensAtMaturity() external onlyOwner {\n        // Check that the contract has the right amount of money to send back to the investors\n        require(address(this).balance >= _totalValueRaisedRaised, \"There's not enough stable coin for settlement\");\n        for(uint i = 0; i < _tokenIdTracker.current(); i++) {\n            address payable investor = payable(ownerOf(i));\n            // Get the tokens back\n            tokenTransfer(investor, owner(), i);\n            // Return the stable coin value\n            investor.transfer(_value);    \n        }\n    }\n\n    */\n    // Internal function to transer the tokens\n    function tokenTransfer(address from, address to, uint256 tokenId) internal {\n        _transfer(from, to, tokenId);\n    }\n\n    // Pauser functions\n    /**\n     * @dev Returns true if the contract is paused, and false otherwise.\n     */\n    function paused() public view returns (bool) {\n        return _paused;\n    }\n\n    /**\n     * @dev Modifier to make a function callable only when the contract is not paused.\n     */\n    modifier whenNotPaused() {\n        require(!_paused, \"Pausable: paused\");\n        _;\n    }\n\n    /**\n     * @dev Modifier to make a function callable only when the contract is paused.\n     */\n    modifier whenPaused() {\n        require(_paused, \"Pausable: not paused\");\n        _;\n    }\n\n    /**\n     * @dev Called by a pauser to pause, triggers stopped state.\n     */\n    function pause() public whenNotPaused {\n        require(msg.sender == _regulator, \"Pauser can only be the regulator\");\n        _paused = true;\n        emit Paused(_msgSender());\n    }\n\n    /**\n     * @dev Called by a pauser to unpause, returns to normal state.\n     */\n    function unpause() public whenPaused {\n        require(msg.sender == _regulator, \"Unpauser can only be the regulator\");\n        _paused = false;\n        emit Unpaused(_msgSender());\n    }\n\n    function adjustCoupon(bool increase, uint256 amount) public {\n        require(msg.sender == _greenVerifier);\n        if (increase){\n            _coupon = _coupon + amount;\n        } else {\n            require(amount <= _coupon, \"Coupon payment can't be negative\");\n            _coupon = _coupon - amount;\n        }\n        emit CouponAdjustment(msg.sender, _coupon);\n    }\n\n}",
  "sourcePath": "/Users/leena/Documents/Coding/Blockchain_Green_Bonds/testProjects/OZ_test/contracts/GreenBond.sol",
  "compiler": {
    "name": "solc",
    "version": "0.8.0+commit.c7dfd78e.Emscripten.clang"
  },
  "schemaVersion": "3.3.4",
  "updatedAt": "2021-07-02T09:32:05.426Z",
  "networkType": "ethereum",
  "devdoc": {
    "events": {
      "CoinRefund(address,uint256)": {
        "details": "Emitted when coins are refunded to the investor in case there are too many coins for the investment or to the company if they pay too much  with coupons / principal repayment"
      },
      "CouponAdjustment(address,uint256)": {
        "details": "Emmitted when coupon payment is adjusted"
      },
      "CouponPayment(address,uint256)": {
        "details": "Emitted when a coupon payment has been made"
      },
      "Investment(address,uint256,uint256)": {
        "details": "Emitted when an investor registers initial investment request"
      },
      "Paused(address)": {
        "details": "Emitted when the pause is triggered by a pauser (regulator)."
      },
      "Unpaused(address)": {
        "details": "Emitted when the pause is lifted by a pauser (regulator)."
      }
    },
    "kind": "dev",
    "methods": {
      "approve(address,uint256)": {
        "details": "See {IERC721-approve}."
      },
      "balanceOf(address)": {
        "details": "See {IERC721-balanceOf}."
      },
      "getApproved(uint256)": {
        "details": "See {IERC721-getApproved}."
      },
      "isApprovedForAll(address,address)": {
        "details": "See {IERC721-isApprovedForAll}."
      },
      "name()": {
        "details": "See {IERC721Metadata-name}."
      },
      "owner()": {
        "details": "Returns the address of the current owner."
      },
      "ownerOf(uint256)": {
        "details": "See {IERC721-ownerOf}."
      },
      "pause()": {
        "details": "Called by a pauser to pause, triggers stopped state."
      },
      "paused()": {
        "details": "Returns true if the contract is paused, and false otherwise."
      },
      "renounceOwnership()": {
        "details": "Leaves the contract without owner. It will not be possible to call `onlyOwner` functions anymore. Can only be called by the current owner. NOTE: Renouncing ownership will leave the contract without an owner, thereby removing any functionality that is only available to the owner."
      },
      "safeTransferFrom(address,address,uint256)": {
        "details": "See {IERC721-safeTransferFrom}."
      },
      "safeTransferFrom(address,address,uint256,bytes)": {
        "details": "See {IERC721-safeTransferFrom}."
      },
      "setApprovalForAll(address,bool)": {
        "details": "See {IERC721-setApprovalForAll}."
      },
      "supportsInterface(bytes4)": {
        "details": "See {IERC165-supportsInterface}."
      },
      "symbol()": {
        "details": "See {IERC721Metadata-symbol}."
      },
      "tokenURI(uint256)": {
        "details": "See {IERC721Metadata-tokenURI}."
      },
      "transferFrom(address,address,uint256)": {
        "details": "See {IERC721-transferFrom}."
      },
      "transferOwnership(address)": {
        "details": "Transfers ownership of the contract to a new account (`newOwner`). Can only be called by the current owner."
      },
      "unpause()": {
        "details": "Called by a pauser to unpause, returns to normal state."
      }
    },
    "version": 1
  },
  "userdoc": {
    "kind": "user",
    "methods": {},
    "version": 1
  }
}