{
  "contractName": "GreenCertificate",
  "abi": [
    {
      "inputs": [
        {
          "internalType": "address",
          "name": "company",
          "type": "address"
        }
      ],
      "stateMutability": "nonpayable",
      "type": "constructor"
    },
    {
      "inputs": [],
      "name": "_owner",
      "outputs": [
        {
          "internalType": "address",
          "name": "",
          "type": "address"
        }
      ],
      "stateMutability": "view",
      "type": "function",
      "constant": true
    },
    {
      "inputs": [
        {
          "internalType": "string",
          "name": "name",
          "type": "string"
        }
      ],
      "name": "addProject",
      "outputs": [],
      "stateMutability": "nonpayable",
      "type": "function"
    },
    {
      "inputs": [],
      "name": "getCompany",
      "outputs": [
        {
          "internalType": "address",
          "name": "",
          "type": "address"
        }
      ],
      "stateMutability": "view",
      "type": "function",
      "constant": true
    },
    {
      "inputs": [
        {
          "internalType": "string",
          "name": "name",
          "type": "string"
        }
      ],
      "name": "isCertifiedProject",
      "outputs": [
        {
          "internalType": "bool",
          "name": "",
          "type": "bool"
        }
      ],
      "stateMutability": "view",
      "type": "function",
      "constant": true
    }
  ],
  "bytecode": "0x608060405234801561001057600080fd5b506040516105de3803806105de833981810160405281019061003291906100ce565b80600160006101000a81548173ffffffffffffffffffffffffffffffffffffffff021916908373ffffffffffffffffffffffffffffffffffffffff160217905550336000806101000a81548173ffffffffffffffffffffffffffffffffffffffff021916908373ffffffffffffffffffffffffffffffffffffffff16021790555050610140565b6000815190506100c881610129565b92915050565b6000602082840312156100e057600080fd5b60006100ee848285016100b9565b91505092915050565b600061010282610109565b9050919050565b600073ffffffffffffffffffffffffffffffffffffffff82169050919050565b610132816100f7565b811461013d57600080fd5b50565b61048f8061014f6000396000f3fe608060405234801561001057600080fd5b506004361061004c5760003560e01c80630ed047d414610051578063127810bc1461006d578063b2bdfa7b1461008b578063ffa67370146100a9575b600080fd5b61006b60048036038101906100669190610256565b6100d9565b005b61007561016b565b60405161008291906102fd565b60405180910390f35b610093610195565b6040516100a091906102fd565b60405180910390f35b6100c360048036038101906100be9190610256565b6101b9565b6040516100d09190610318565b60405180910390f35b60008054906101000a900473ffffffffffffffffffffffffffffffffffffffff1673ffffffffffffffffffffffffffffffffffffffff163373ffffffffffffffffffffffffffffffffffffffff161461013157600080fd5b600160028260405161014391906102e6565b908152602001604051809103902060006101000a81548160ff02191690831515021790555050565b6000600160009054906101000a900473ffffffffffffffffffffffffffffffffffffffff16905090565b60008054906101000a900473ffffffffffffffffffffffffffffffffffffffff1681565b60006002826040516101cb91906102e6565b908152602001604051809103902060009054906101000a900460ff169050919050565b60006102016101fc84610364565b610333565b90508281526020810184848401111561021957600080fd5b6102248482856103e8565b509392505050565b600082601f83011261023d57600080fd5b813561024d8482602086016101ee565b91505092915050565b60006020828403121561026857600080fd5b600082013567ffffffffffffffff81111561028257600080fd5b61028e8482850161022c565b91505092915050565b6102a0816103aa565b82525050565b6102af816103bc565b82525050565b60006102c082610394565b6102ca818561039f565b93506102da8185602086016103f7565b80840191505092915050565b60006102f282846102b5565b915081905092915050565b60006020820190506103126000830184610297565b92915050565b600060208201905061032d60008301846102a6565b92915050565b6000604051905081810181811067ffffffffffffffff8211171561035a5761035961042a565b5b8060405250919050565b600067ffffffffffffffff82111561037f5761037e61042a565b5b601f19601f8301169050602081019050919050565b600081519050919050565b600081905092915050565b60006103b5826103c8565b9050919050565b60008115159050919050565b600073ffffffffffffffffffffffffffffffffffffffff82169050919050565b82818337600083830152505050565b60005b838110156104155780820151818401526020810190506103fa565b83811115610424576000848401525b50505050565b7f4e487b7100000000000000000000000000000000000000000000000000000000600052604160045260246000fdfea26469706673582212205136b441fb565990107227185c631df651bf422c4623925cfc81ba3919aa0e5364736f6c63430008000033",
  "immutableReferences": {},
  "source": "// SPDX-License-Identifier: MIT\npragma solidity >=0.6.0;\n\ncontract GreenCertificate {\n    // Owner\n    address public _owner;\n\n    // function modifier\n    modifier onlyOwner() {\n        require(msg.sender == _owner);\n        _;\n    }\n\n    // Company address\n    address private _company;\n\n    // Mapping for certified projects\n    mapping(string => bool) _greenProjects;\n\n    constructor(address company) {\n        _company = company;\n        _owner = msg.sender;\n    }\n\n    function addProject(string memory name) external onlyOwner {\n        _greenProjects[name] = true;\n\n    }\n\n    function getCompany() public view returns (address){\n        return _company;\n    }\n\n    function isCertifiedProject(string memory name) public view returns (bool) {\n        return (_greenProjects[name]);\n    }\n\n}",
  "sourcePath": "/Users/leena/Documents/Coding/Blockchain_Green_Bonds/testProjects/OZ_test/contracts/GreenCertificate.sol",
  "compiler": {
    "name": "solc",
    "version": "0.8.0+commit.c7dfd78e.Emscripten.clang"
  },
  "schemaVersion": "3.3.4",
  "updatedAt": "2021-07-01T14:21:25.581Z",
  "networkType": "ethereum",
  "devdoc": {
    "kind": "dev",
    "methods": {},
    "version": 1
  },
  "userdoc": {
    "kind": "user",
    "methods": {},
    "version": 1
  }
}