{
  "contractName": "GreenVerification",
  "abi": [
    {
      "inputs": [
        {
          "internalType": "address",
          "name": "company",
          "type": "address"
        },
        {
          "internalType": "string",
          "name": "project",
          "type": "string"
        },
        {
          "internalType": "uint256",
          "name": "votingClosingTime",
          "type": "uint256"
        }
      ],
      "stateMutability": "nonpayable",
      "type": "constructor"
    },
    {
      "anonymous": false,
      "inputs": [
        {
          "indexed": false,
          "internalType": "string",
          "name": "reason",
          "type": "string"
        }
      ],
      "name": "Reset",
      "type": "event"
    },
    {
      "anonymous": false,
      "inputs": [
        {
          "indexed": false,
          "internalType": "address",
          "name": "voter",
          "type": "address"
        },
        {
          "indexed": false,
          "internalType": "enum GreenVerification.Vote",
          "name": "vote",
          "type": "uint8"
        }
      ],
      "name": "Voted",
      "type": "event"
    },
    {
      "inputs": [
        {
          "internalType": "string",
          "name": "reason",
          "type": "string"
        }
      ],
      "name": "reset",
      "outputs": [],
      "stateMutability": "nonpayable",
      "type": "function"
    },
    {
      "inputs": [],
      "name": "openVoting",
      "outputs": [],
      "stateMutability": "nonpayable",
      "type": "function"
    },
    {
      "inputs": [],
      "name": "closeVoting",
      "outputs": [],
      "stateMutability": "nonpayable",
      "type": "function"
    },
    {
      "inputs": [],
      "name": "getVoterCount",
      "outputs": [
        {
          "internalType": "uint256",
          "name": "",
          "type": "uint256"
        }
      ],
      "stateMutability": "view",
      "type": "function"
    },
    {
      "inputs": [],
      "name": "getGreenVerifier",
      "outputs": [
        {
          "internalType": "address",
          "name": "",
          "type": "address"
        }
      ],
      "stateMutability": "view",
      "type": "function"
    },
    {
      "inputs": [],
      "name": "getCompany",
      "outputs": [
        {
          "internalType": "address",
          "name": "",
          "type": "address"
        }
      ],
      "stateMutability": "view",
      "type": "function"
    },
    {
      "inputs": [],
      "name": "getProject",
      "outputs": [
        {
          "internalType": "string",
          "name": "",
          "type": "string"
        }
      ],
      "stateMutability": "view",
      "type": "function"
    },
    {
      "inputs": [],
      "name": "isVerified",
      "outputs": [
        {
          "internalType": "bool",
          "name": "",
          "type": "bool"
        }
      ],
      "stateMutability": "view",
      "type": "function"
    },
    {
      "inputs": [],
      "name": "getVotingClosingTime",
      "outputs": [
        {
          "internalType": "uint256",
          "name": "",
          "type": "uint256"
        }
      ],
      "stateMutability": "view",
      "type": "function"
    },
    {
      "inputs": [],
      "name": "getVerifierVote",
      "outputs": [
        {
          "internalType": "uint256",
          "name": "",
          "type": "uint256"
        }
      ],
      "stateMutability": "view",
      "type": "function"
    },
    {
      "inputs": [
        {
          "internalType": "uint256",
          "name": "vote",
          "type": "uint256"
        }
      ],
      "name": "getInvestorVotesPerVote",
      "outputs": [
        {
          "internalType": "uint256",
          "name": "",
          "type": "uint256"
        }
      ],
      "stateMutability": "view",
      "type": "function"
    },
    {
      "inputs": [
        {
          "internalType": "address",
          "name": "investor",
          "type": "address"
        }
      ],
      "name": "investorHasVoted",
      "outputs": [
        {
          "internalType": "bool",
          "name": "",
          "type": "bool"
        }
      ],
      "stateMutability": "view",
      "type": "function"
    },
    {
      "inputs": [
        {
          "internalType": "uint256",
          "name": "verifierVote",
          "type": "uint256"
        }
      ],
      "name": "greenVerifierVote",
      "outputs": [],
      "stateMutability": "nonpayable",
      "type": "function"
    },
    {
      "inputs": [
        {
          "internalType": "uint256",
          "name": "investorVote",
          "type": "uint256"
        }
      ],
      "name": "vote",
      "outputs": [],
      "stateMutability": "nonpayable",
      "type": "function"
    },
    {
      "inputs": [],
      "name": "verify",
      "outputs": [],
      "stateMutability": "nonpayable",
      "type": "function"
    }
  ],
  "bytecode": "0x60806040523480156200001157600080fd5b5060405162001d4a38038062001d4a8339818101604052810190620000379190620002fd565b8042106200007c576040517f08c379a00000000000000000000000000000000000000000000000000000000081526004016200007390620003d4565b60405180910390fd5b336000806101000a81548173ffffffffffffffffffffffffffffffffffffffff021916908373ffffffffffffffffffffffffffffffffffffffff16021790555082600160006101000a81548173ffffffffffffffffffffffffffffffffffffffff021916908373ffffffffffffffffffffffffffffffffffffffff160217905550816002908051906020019062000115929190620001ad565b50806004819055506000600860006101000a81548160ff02191690831515021790555060038060006101000a81548160ff0219169083600381111562000184577f4e487b7100000000000000000000000000000000000000000000000000000000600052602160045260246000fd5b02179055506000600c60006101000a81548160ff021916908315150217905550505050620005aa565b828054620001bb90620004e2565b90600052602060002090601f016020900481019282620001df57600085556200022b565b82601f10620001fa57805160ff19168380011785556200022b565b828001600101855582156200022b579182015b828111156200022a5782518255916020019190600101906200020d565b5b5090506200023a91906200023e565b5090565b5b80821115620002595760008160009055506001016200023f565b5090565b6000620002746200026e846200042a565b620003f6565b9050828152602081018484840111156200028d57600080fd5b6200029a848285620004ac565b509392505050565b600081519050620002b38162000576565b92915050565b600082601f830112620002cb57600080fd5b8151620002dd8482602086016200025d565b91505092915050565b600081519050620002f78162000590565b92915050565b6000806000606084860312156200031357600080fd5b60006200032386828701620002a2565b935050602084015167ffffffffffffffff8111156200034157600080fd5b6200034f86828701620002b9565b92505060406200036286828701620002e6565b9150509250925092565b60006200037b602a836200045d565b91507f566f74696e6720636c6f73696e672074696d652063616e206e6f74206265206960008301527f6e207468652070617374000000000000000000000000000000000000000000006020830152604082019050919050565b60006020820190508181036000830152620003ef816200036c565b9050919050565b6000604051905081810181811067ffffffffffffffff8211171562000420576200041f62000547565b5b8060405250919050565b600067ffffffffffffffff82111562000448576200044762000547565b5b601f19601f8301169050602081019050919050565b600082825260208201905092915050565b60006200047b8262000482565b9050919050565b600073ffffffffffffffffffffffffffffffffffffffff82169050919050565b6000819050919050565b60005b83811015620004cc578082015181840152602081019050620004af565b83811115620004dc576000848401525b50505050565b60006002820490506001821680620004fb57607f821691505b6020821081141562000512576200051162000518565b5b50919050565b7f4e487b7100000000000000000000000000000000000000000000000000000000600052602260045260246000fd5b7f4e487b7100000000000000000000000000000000000000000000000000000000600052604160045260246000fd5b62000581816200046e565b81146200058d57600080fd5b50565b6200059b81620004a2565b8114620005a757600080fd5b50565b61179080620005ba6000396000f3fe608060405234801561001057600080fd5b50600436106100f55760003560e01c806380007e8311610097578063c631b29211610066578063c631b29214610250578063d6d904981461025a578063e7940d2314610276578063fc735e9914610294576100f5565b806380007e83146101c85780639093c636146101e6578063affc067014610216578063c1ffc0b614610220576100f5565b8063265e7993116100d3578063265e799314610152578063337e0aff1461016e578063675d69621461018c5780636e57b700146101aa576100f5565b80630121b93f146100fa57806311174a2914610116578063127810bc14610134575b600080fd5b610114600480360381019061010f9190611129565b61029e565b005b61011e6105ef565b60405161012b91906113df565b60405180910390f35b61013c6105f9565b60405161014991906112da565b60405180910390f35b61016c60048036038101906101679190611129565b610623565b005b6101766107fe565b60405161018391906113df565b60405180910390f35b61019461084d565b6040516101a191906113df565b60405180910390f35b6101b2610857565b6040516101bf919061135d565b60405180910390f35b6101d06108e9565b6040516101dd919061131e565b60405180910390f35b61020060048036038101906101fb9190611129565b610900565b60405161020d91906113df565b60405180910390f35b61021e610995565b005b61023a600480360381019061023591906110bb565b610a40565b604051610247919061131e565b60405180910390f35b610258610a96565b005b610274600480360381019061026f91906110e4565b610b41565b005b61027e610ddb565b60405161028b91906112da565b60405180910390f35b61029c610e04565b005b60001515600960003373ffffffffffffffffffffffffffffffffffffffff1673ffffffffffffffffffffffffffffffffffffffff16815260200190815260200160002060009054906101000a900460ff16151514610331576040517f08c379a00000000000000000000000000000000000000000000000000000000081526004016103289061139f565b60405180910390fd5b60008110158015610343575060028111155b610382576040517f08c379a00000000000000000000000000000000000000000000000000000000081526004016103799061137f565b60405180910390fd5b6000600582600381106103be577f4e487b7100000000000000000000000000000000000000000000000000000000600052603260045260246000fd5b015490506001816103cf9190611416565b60058360038110610409577f4e487b7100000000000000000000000000000000000000000000000000000000600052603260045260246000fd5b01819055506001600960003373ffffffffffffffffffffffffffffffffffffffff1673ffffffffffffffffffffffffffffffffffffffff16815260200190815260200160002060006101000a81548160ff0219169083151502179055507f14075e33dffdc00c1fcaf75d0f86d667170be57fb566b12b41b499e5fa53b125338360038111156104c1577f4e487b7100000000000000000000000000000000000000000000000000000000600052602160045260246000fd5b6040516104cf9291906112f5565b60405180910390a1600b54600a805490501061054d57600a339080600181540180825580915050600190039060005260206000200160009091909190916101000a81548173ffffffffffffffffffffffffffffffffffffffff021916908373ffffffffffffffffffffffffffffffffffffffff1602179055506105d3565b33600a600b548154811061058a577f4e487b7100000000000000000000000000000000000000000000000000000000600052603260045260246000fd5b9060005260206000200160006101000a81548173ffffffffffffffffffffffffffffffffffffffff021916908373ffffffffffffffffffffffffffffffffffffffff1602179055505b600b60008154809291906105e690611602565b91905055505050565b6000600b54905090565b6000600160009054906101000a900473ffffffffffffffffffffffffffffffffffffffff16905090565b60008054906101000a900473ffffffffffffffffffffffffffffffffffffffff1673ffffffffffffffffffffffffffffffffffffffff163373ffffffffffffffffffffffffffffffffffffffff16146106b1576040517f08c379a00000000000000000000000000000000000000000000000000000000081526004016106a8906113bf565b60405180910390fd5b600081101580156106c3575060028111155b610702576040517f08c379a00000000000000000000000000000000000000000000000000000000081526004016106f99061137f565b60405180910390fd5b80600381111561073b577f4e487b7100000000000000000000000000000000000000000000000000000000600052602160045260246000fd5b600360006101000a81548160ff02191690836003811115610785577f4e487b7100000000000000000000000000000000000000000000000000000000600052602160045260246000fd5b02179055507f14075e33dffdc00c1fcaf75d0f86d667170be57fb566b12b41b499e5fa53b125338260038111156107e5577f4e487b7100000000000000000000000000000000000000000000000000000000600052602160045260246000fd5b6040516107f39291906112f5565b60405180910390a150565b6000600360009054906101000a900460ff166003811115610848577f4e487b7100000000000000000000000000000000000000000000000000000000600052602160045260246000fd5b905090565b6000600454905090565b606060028054610866906115d0565b80601f0160208091040260200160405190810160405280929190818152602001828054610892906115d0565b80156108df5780601f106108b4576101008083540402835291602001916108df565b820191906000526020600020905b8154815290600101906020018083116108c257829003601f168201915b5050505050905090565b6000600860009054906101000a900460ff16905090565b6000808210158015610913575060028211155b610952576040517f08c379a00000000000000000000000000000000000000000000000000000000081526004016109499061137f565b60405180910390fd5b6005826003811061098c577f4e487b7100000000000000000000000000000000000000000000000000000000600052603260045260246000fd5b01549050919050565b60008054906101000a900473ffffffffffffffffffffffffffffffffffffffff1673ffffffffffffffffffffffffffffffffffffffff163373ffffffffffffffffffffffffffffffffffffffff1614610a23576040517f08c379a0000000000000000000000000000000000000000000000000000000008152600401610a1a906113bf565b60405180910390fd5b6001600c60006101000a81548160ff021916908315150217905550565b6000600960008373ffffffffffffffffffffffffffffffffffffffff1673ffffffffffffffffffffffffffffffffffffffff16815260200190815260200160002060009054906101000a900460ff169050919050565b60008054906101000a900473ffffffffffffffffffffffffffffffffffffffff1673ffffffffffffffffffffffffffffffffffffffff163373ffffffffffffffffffffffffffffffffffffffff1614610b24576040517f08c379a0000000000000000000000000000000000000000000000000000000008152600401610b1b906113bf565b60405180910390fd5b6000600c60006101000a81548160ff021916908315150217905550565b60008054906101000a900473ffffffffffffffffffffffffffffffffffffffff1673ffffffffffffffffffffffffffffffffffffffff163373ffffffffffffffffffffffffffffffffffffffff1614610bcf576040517f08c379a0000000000000000000000000000000000000000000000000000000008152600401610bc6906113bf565b60405180910390fd5b6000600b54905060005b81811015610d4c57600060096000600a8481548110610c21577f4e487b7100000000000000000000000000000000000000000000000000000000600052603260045260246000fd5b9060005260206000200160009054906101000a900473ffffffffffffffffffffffffffffffffffffffff1673ffffffffffffffffffffffffffffffffffffffff1673ffffffffffffffffffffffffffffffffffffffff16815260200190815260200160002060006101000a81548160ff0219169083151502179055506000600a8281548110610cd9577f4e487b7100000000000000000000000000000000000000000000000000000000600052603260045260246000fd5b9060005260206000200160006101000a81548173ffffffffffffffffffffffffffffffffffffffff021916908373ffffffffffffffffffffffffffffffffffffffff160217905550600b6000815480929190610d34906115a6565b91905055508080610d4490611602565b915050610bd9565b5060038060006101000a81548160ff02191690836003811115610d98577f4e487b7100000000000000000000000000000000000000000000000000000000600052602160045260246000fd5b02179055507fa204ec6a4c301f826e1580f4ca8da0c3f3ad2d807d9f613ad7df4f1d286c7bcc8383604051610dce929190611339565b60405180910390a1505050565b60008060009054906101000a900473ffffffffffffffffffffffffffffffffffffffff16905090565b60008054906101000a900473ffffffffffffffffffffffffffffffffffffffff1673ffffffffffffffffffffffffffffffffffffffff163373ffffffffffffffffffffffffffffffffffffffff1614610e92576040517f08c379a0000000000000000000000000000000000000000000000000000000008152600401610e89906113bf565b60405180910390fd5b60006005600260038110610ecf577f4e487b7100000000000000000000000000000000000000000000000000000000600052603260045260246000fd5b01546005600160038110610f0c577f4e487b7100000000000000000000000000000000000000000000000000000000600052603260045260246000fd5b01546005600060038110610f49577f4e487b7100000000000000000000000000000000000000000000000000000000600052603260045260246000fd5b0154610f559190611416565b610f5f9190611416565b90506000600360009054906101000a900460ff166003811115610fab577f4e487b7100000000000000000000000000000000000000000000000000000000600052602160045260246000fd5b9050603282606460058460038110610fec577f4e487b7100000000000000000000000000000000000000000000000000000000600052603260045260246000fd5b0154610ff8919061149d565b611002919061146c565b10611027576001600860006101000a81548160ff021916908315150217905550611043565b6000600860006101000a81548160ff0219169083151502179055505b5050565b6000813590506110568161172c565b92915050565b60008083601f84011261106e57600080fd5b8235905067ffffffffffffffff81111561108757600080fd5b60208301915083600182028301111561109f57600080fd5b9250929050565b6000813590506110b581611743565b92915050565b6000602082840312156110cd57600080fd5b60006110db84828501611047565b91505092915050565b600080602083850312156110f757600080fd5b600083013567ffffffffffffffff81111561111157600080fd5b61111d8582860161105c565b92509250509250929050565b60006020828403121561113b57600080fd5b6000611149848285016110a6565b91505092915050565b61115b816114f7565b82525050565b61116a81611509565b82525050565b61117981611552565b82525050565b600061118b8385611405565b9350611198838584611564565b6111a183611707565b840190509392505050565b60006111b7826113fa565b6111c18185611405565b93506111d1818560208601611573565b6111da81611707565b840191505092915050565b60006111f2601883611405565b91507f566f7465206d757374206265206265747765656e20302d3200000000000000006000830152602082019050919050565b6000611232601b83611405565b91507f496e766573746f722063616e206f6e6c7920766f7465206f6e636500000000006000830152602082019050919050565b6000611272602983611405565b91507f4f6e6c7920677265656e2076657269666965722063616e2063616c6c2074686560008301527f2066756e6374696f6e00000000000000000000000000000000000000000000006020830152604082019050919050565b6112d481611548565b82525050565b60006020820190506112ef6000830184611152565b92915050565b600060408201905061130a6000830185611152565b6113176020830184611170565b9392505050565b60006020820190506113336000830184611161565b92915050565b6000602082019050818103600083015261135481848661117f565b90509392505050565b6000602082019050818103600083015261137781846111ac565b905092915050565b60006020820190508181036000830152611398816111e5565b9050919050565b600060208201905081810360008301526113b881611225565b9050919050565b600060208201905081810360008301526113d881611265565b9050919050565b60006020820190506113f460008301846112cb565b92915050565b600081519050919050565b600082825260208201905092915050565b600061142182611548565b915061142c83611548565b9250827fffffffffffffffffffffffffffffffffffffffffffffffffffffffffffffffff038211156114615761146061164b565b5b828201905092915050565b600061147782611548565b915061148283611548565b9250826114925761149161167a565b5b828204905092915050565b60006114a882611548565b91506114b383611548565b9250817fffffffffffffffffffffffffffffffffffffffffffffffffffffffffffffffff04831182151516156114ec576114eb61164b565b5b828202905092915050565b600061150282611528565b9050919050565b60008115159050919050565b600081905061152382611718565b919050565b600073ffffffffffffffffffffffffffffffffffffffff82169050919050565b6000819050919050565b600061155d82611515565b9050919050565b82818337600083830152505050565b60005b83811015611591578082015181840152602081019050611576565b838111156115a0576000848401525b50505050565b60006115b182611548565b915060008214156115c5576115c461164b565b5b600182039050919050565b600060028204905060018216806115e857607f821691505b602082108114156115fc576115fb6116d8565b5b50919050565b600061160d82611548565b91507fffffffffffffffffffffffffffffffffffffffffffffffffffffffffffffffff8214156116405761163f61164b565b5b600182019050919050565b7f4e487b7100000000000000000000000000000000000000000000000000000000600052601160045260246000fd5b7f4e487b7100000000000000000000000000000000000000000000000000000000600052601260045260246000fd5b7f4e487b7100000000000000000000000000000000000000000000000000000000600052602160045260246000fd5b7f4e487b7100000000000000000000000000000000000000000000000000000000600052602260045260246000fd5b6000601f19601f8301169050919050565b60048110611729576117286116a9565b5b50565b611735816114f7565b811461174057600080fd5b50565b61174c81611548565b811461175757600080fd5b5056fea26469706673582212206580d33b83164a1298c74d4c190c247ce662bb7f73ab629702ed3f0d69f5ba0964736f6c63430008000033",
  "immutableReferences": {},
  "source": "// SPDX-License-Identifier: MIT\npragma solidity >=0.6.0;\n\ncontract GreenVerification {\n    // Voting options\n    enum Vote {\n        BELOW,\n        PAR,\n        ABOVE,\n        UNDEFINED\n    }\n\n    /**\n     * @dev Modified for functions that can only be called by the green verifier\n     */\n    modifier onlyGreenVerifier {\n        require(\n            msg.sender == _greenVerifier,\n            \"Only green verifier can call the function\"\n        );\n        _;\n    }\n\n    /**\n     * @dev Event to emit when investor of verifier votes\n     */\n    event Voted(address voter, Vote vote);\n\n    // Members\n    address private _greenVerifier;\n    address private _company;\n    string private _project;\n    Vote private _verifierVote;\n    uint256 private _votingClosingTime;\n    uint256[3] private _investorVotes;\n    bool private _verified;\n    mapping(address => bool) private _votedInvestors;\n\n    // Test members for resetting\n    address[] _voterList;\n    uint256 _voterCount;\n    bool _openForVoting;\n\n    /**\n     * Constructor, takes company address, project name and voting close time as parameters\n     */\n    constructor(\n        address company,\n        string memory project,\n        uint256 votingClosingTime\n    ) {\n        require(block.timestamp < votingClosingTime, \"Voting closing time can not be in the past\");\n        _greenVerifier = msg.sender;\n        _company = company;\n        _project = project;\n        _votingClosingTime = votingClosingTime;\n        _verified = false;\n        _verifierVote = Vote.UNDEFINED;\n        \n        // WHAT SHOULD BE THE DEFAULT\n        _openForVoting = false;\n    }\n\n    // TESTING\n    event Reset(string reason);\n\n    function reset(string calldata reason) external onlyGreenVerifier {\n        // Reset votes\n        uint256 length = _voterCount;\n        for(uint i = 0; i < length; i++) {\n            _votedInvestors[_voterList[i]] = false;\n            _voterList[i] = address(0);\n            _voterCount--;\n        }\n        // Reset verifier's vote\n        _verifierVote = Vote.UNDEFINED;\n        emit Reset(reason);\n    }\n\n    function openVoting() external onlyGreenVerifier {\n        _openForVoting = true;\n    }\n    function closeVoting() external onlyGreenVerifier {\n        _openForVoting = false;\n    }\n\n    function getVoterCount() external view returns (uint256) {\n        return _voterCount;\n    }\n\n    // Getter functions\n    function getGreenVerifier() external view returns (address) {\n        return _greenVerifier;\n    }\n\n    function getCompany() external view returns (address) {\n        return _company;\n    }\n\n    function getProject() external view returns (string memory) {\n        return _project;\n    }\n\n    function isVerified() external view returns (bool) {\n        return _verified;\n    }\n\n    function getVotingClosingTime() external view returns (uint256) {\n        return _votingClosingTime;\n    }\n\n    function getVerifierVote() external view returns (uint256) {\n        return uint256(_verifierVote);\n    }\n\n    function getInvestorVotesPerVote(uint256 vote)\n        external\n        view\n        returns (uint256)\n    {\n        require(vote >= 0 && vote <= 2, \"Vote must be between 0-2\");\n        return _investorVotes[vote];\n    }\n\n    // Only for testing purposes\n    function investorHasVoted(address investor) external view returns (bool) {\n        return _votedInvestors[investor];\n    }\n\n    function greenVerifierVote(uint256 verifierVote)\n        external\n        onlyGreenVerifier\n    {\n        require(\n            verifierVote >= 0 && verifierVote <= 2,\n            \"Vote must be between 0-2\"\n        );\n        _verifierVote = Vote(verifierVote);\n        emit Voted(msg.sender, Vote(verifierVote));\n    }\n\n    function vote(uint256 investorVote) external {\n        require(\n            _votedInvestors[msg.sender] == false,\n            \"Investor can only vote once\"\n        );\n        require(\n            investorVote >= 0 && investorVote <= 2,\n            \"Vote must be between 0-2\"\n        );\n\n        uint256 currenNumberOfVotes = _investorVotes[investorVote];\n        _investorVotes[investorVote] = currenNumberOfVotes + 1;\n\n        _votedInvestors[msg.sender] = true;\n        emit Voted(msg.sender, Vote(investorVote));\n        // ADDED\n        if(_voterList.length >= _voterCount) {\n            _voterList.push(msg.sender);\n        } else {\n            _voterList[_voterCount] = msg.sender;\n        }\n        _voterCount++;\n    }\n\n    function verify() external onlyGreenVerifier {\n        uint256 totalVotes = \n            _investorVotes[0] +\n            _investorVotes[1] +\n            _investorVotes[2];\n        uint256 verifierVote = uint256(_verifierVote);\n        if ((_investorVotes[verifierVote] * 100) / totalVotes >= 50) {\n            _verified = true;\n        } else {\n            _verified = false;\n        }\n    }\n}\n",
  "sourcePath": "/Users/leena/Documents/Coding/Blockchain_Green_Bonds/testProjects/OZ_test/contracts/GreenVerification.sol",
  "compiler": {
    "name": "solc",
    "version": "0.8.0+commit.c7dfd78e.Emscripten.clang"
  },
  "schemaVersion": "3.3.4",
  "updatedAt": "2021-07-15T10:36:07.933Z",
  "devdoc": {
    "events": {
      "Voted(address,uint8)": {
        "details": "Event to emit when investor of verifier votes"
      }
    },
    "kind": "dev",
    "methods": {},
    "version": 1
  },
  "userdoc": {
    "kind": "user",
    "methods": {
      "constructor": {
        "notice": "Constructor, takes company address, project name and voting close time as parameters"
      }
    },
    "version": 1
  }
}