{
  "contractName": "GreenCertificateRepository",
  "abi": [
    {
      "inputs": [],
      "stateMutability": "nonpayable",
      "type": "constructor"
    },
    {
      "anonymous": false,
      "inputs": [
        {
          "indexed": false,
          "internalType": "address",
          "name": "certificate",
          "type": "address"
        }
      ],
      "name": "CompanyCertification",
      "type": "event"
    },
    {
      "anonymous": false,
      "inputs": [
        {
          "indexed": false,
          "internalType": "address",
          "name": "company",
          "type": "address"
        },
        {
          "indexed": false,
          "internalType": "string",
          "name": "project",
          "type": "string"
        }
      ],
      "name": "ProjectCertification",
      "type": "event"
    },
    {
      "inputs": [],
      "name": "getOwner",
      "outputs": [
        {
          "internalType": "address",
          "name": "",
          "type": "address"
        }
      ],
      "stateMutability": "view",
      "type": "function",
      "constant": true
    },
    {
      "inputs": [
        {
          "internalType": "address",
          "name": "company",
          "type": "address"
        }
      ],
      "name": "isCertifiedCompany",
      "outputs": [
        {
          "internalType": "bool",
          "name": "",
          "type": "bool"
        }
      ],
      "stateMutability": "view",
      "type": "function",
      "constant": true
    },
    {
      "inputs": [
        {
          "internalType": "address",
          "name": "company",
          "type": "address"
        }
      ],
      "name": "getCompanyCertificateAddress",
      "outputs": [
        {
          "internalType": "address",
          "name": "",
          "type": "address"
        }
      ],
      "stateMutability": "view",
      "type": "function",
      "constant": true
    },
    {
      "inputs": [
        {
          "internalType": "address",
          "name": "company",
          "type": "address"
        }
      ],
      "name": "getCertifiedProjects",
      "outputs": [
        {
          "internalType": "string[]",
          "name": "",
          "type": "string[]"
        }
      ],
      "stateMutability": "view",
      "type": "function",
      "constant": true
    },
    {
      "inputs": [
        {
          "internalType": "address",
          "name": "company",
          "type": "address"
        },
        {
          "internalType": "string",
          "name": "project",
          "type": "string"
        }
      ],
      "name": "isCeritifiedProject",
      "outputs": [
        {
          "internalType": "bool",
          "name": "",
          "type": "bool"
        }
      ],
      "stateMutability": "view",
      "type": "function",
      "constant": true
    },
    {
      "inputs": [
        {
          "internalType": "address",
          "name": "company",
          "type": "address"
        },
        {
          "internalType": "string",
          "name": "project",
          "type": "string"
        }
      ],
      "name": "createCertificate",
      "outputs": [],
      "stateMutability": "nonpayable",
      "type": "function"
    }
  ],
  "bytecode": "0x608060405234801561001057600080fd5b50336000806101000a81548173ffffffffffffffffffffffffffffffffffffffff021916908373ffffffffffffffffffffffffffffffffffffffff1602179055506118d4806100606000396000f3fe60806040523480156200001157600080fd5b5060043610620000695760003560e01c8062896eee146200006e57806342b828b3146200008e578063620feee314620000c4578063893d20e814620000fa5780639c0d15fb146200011c578063cb35e1e61462000152575b600080fd5b6200008c600480360381019062000086919062000a36565b62000188565b005b620000ac6004803603810190620000a6919062000a0a565b6200049c565b604051620000bb919062000ccf565b60405180910390f35b620000e26004803603810190620000dc919062000a36565b620005d8565b604051620000f1919062000cf3565b60405180910390f35b6200010462000723565b60405162000113919062000c7e565b60405180910390f35b6200013a600480360381019062000134919062000a0a565b6200074c565b60405162000149919062000c7e565b60405180910390f35b6200017060048036038101906200016a919062000a0a565b62000802565b6040516200017f919062000cf3565b60405180910390f35b60008054906101000a900473ffffffffffffffffffffffffffffffffffffffff1673ffffffffffffffffffffffffffffffffffffffff163373ffffffffffffffffffffffffffffffffffffffff1614620001e157600080fd5b60001515600260008473ffffffffffffffffffffffffffffffffffffffff1673ffffffffffffffffffffffffffffffffffffffff16815260200190815260200160002060009054906101000a900460ff161515141562000389576000826040516200024c9062000858565b62000258919062000c7e565b604051809103906000f08015801562000275573d6000803e3d6000fd5b5090506001600260008573ffffffffffffffffffffffffffffffffffffffff1673ffffffffffffffffffffffffffffffffffffffff16815260200190815260200160002060006101000a81548160ff02191690831515021790555080600160008573ffffffffffffffffffffffffffffffffffffffff1673ffffffffffffffffffffffffffffffffffffffff16815260200190815260200160002060006101000a81548173ffffffffffffffffffffffffffffffffffffffff021916908373ffffffffffffffffffffffffffffffffffffffff1602179055507fd74aba97929f9c483acd3c361751a46ee8ef31b85336dec91f503d695dab6df1816040516200037f919062000c7e565b60405180910390a1505b6000600160008473ffffffffffffffffffffffffffffffffffffffff1673ffffffffffffffffffffffffffffffffffffffff16815260200190815260200160002060009054906101000a900473ffffffffffffffffffffffffffffffffffffffff1690508073ffffffffffffffffffffffffffffffffffffffff16630ed047d4836040518263ffffffff1660e01b815260040162000428919062000d10565b600060405180830381600087803b1580156200044357600080fd5b505af115801562000458573d6000803e3d6000fd5b505050507f7290139a1d883a1284fc3550b1ca8c453f0520aa22089656d30587b014cb69fb83836040516200048f92919062000c9b565b60405180910390a1505050565b6060620004a98262000802565b620004eb576040517f08c379a0000000000000000000000000000000000000000000000000000000008152600401620004e29062000d34565b60405180910390fd5b600160008373ffffffffffffffffffffffffffffffffffffffff1673ffffffffffffffffffffffffffffffffffffffff16815260200190815260200160002060009054906101000a900473ffffffffffffffffffffffffffffffffffffffff1673ffffffffffffffffffffffffffffffffffffffff1663dcc601286040518163ffffffff1660e01b815260040160006040518083038186803b1580156200059157600080fd5b505afa158015620005a6573d6000803e3d6000fd5b505050506040513d6000823e3d601f19601f82011682018060405250810190620005d1919062000a90565b9050919050565b6000620005e58362000802565b62000627576040517f08c379a00000000000000000000000000000000000000000000000000000000081526004016200061e9062000d34565b60405180910390fd5b6000600160008573ffffffffffffffffffffffffffffffffffffffff1673ffffffffffffffffffffffffffffffffffffffff16815260200190815260200160002060009054906101000a900473ffffffffffffffffffffffffffffffffffffffff1690508073ffffffffffffffffffffffffffffffffffffffff1663ffa67370846040518263ffffffff1660e01b8152600401620006c6919062000d10565b60206040518083038186803b158015620006df57600080fd5b505afa158015620006f4573d6000803e3d6000fd5b505050506040513d601f19601f820116820180604052508101906200071a919062000ad5565b91505092915050565b60008060009054906101000a900473ffffffffffffffffffffffffffffffffffffffff16905090565b6000620007598262000802565b6200079b576040517f08c379a0000000000000000000000000000000000000000000000000000000008152600401620007929062000d34565b60405180910390fd5b600160008373ffffffffffffffffffffffffffffffffffffffff1673ffffffffffffffffffffffffffffffffffffffff16815260200190815260200160002060009054906101000a900473ffffffffffffffffffffffffffffffffffffffff169050919050565b6000600260008373ffffffffffffffffffffffffffffffffffffffff1673ffffffffffffffffffffffffffffffffffffffff16815260200190815260200160002060009054906101000a900460ff169050919050565b6109538062000f4c83390190565b60006200087d620008778462000d8a565b62000d56565b9050808382526020820190508260005b85811015620008c15781518501620008a68882620009dd565b8452602084019350602083019250506001810190506200088d565b5050509392505050565b6000620008e2620008dc8462000db9565b62000d56565b905082815260208101848484011115620008fb57600080fd5b6200090884828562000e92565b509392505050565b600062000927620009218462000db9565b62000d56565b9050828152602081018484840111156200094057600080fd5b6200094d84828562000ea1565b509392505050565b600081359050620009668162000f17565b92915050565b600082601f8301126200097e57600080fd5b81516200099084826020860162000866565b91505092915050565b600081519050620009aa8162000f31565b92915050565b600082601f830112620009c257600080fd5b8135620009d4848260208601620008cb565b91505092915050565b600082601f830112620009ef57600080fd5b815162000a0184826020860162000910565b91505092915050565b60006020828403121562000a1d57600080fd5b600062000a2d8482850162000955565b91505092915050565b6000806040838503121562000a4a57600080fd5b600062000a5a8582860162000955565b925050602083013567ffffffffffffffff81111562000a7857600080fd5b62000a8685828601620009b0565b9150509250929050565b60006020828403121562000aa357600080fd5b600082015167ffffffffffffffff81111562000abe57600080fd5b62000acc848285016200096c565b91505092915050565b60006020828403121562000ae857600080fd5b600062000af88482850162000999565b91505092915050565b600062000b0f838362000bba565b905092915050565b62000b228162000e52565b82525050565b600062000b358262000dfc565b62000b41818562000e1f565b93508360208202850162000b558562000dec565b8060005b8581101562000b97578484038952815162000b75858262000b01565b945062000b828362000e12565b925060208a0199505060018101905062000b59565b50829750879550505050505092915050565b62000bb48162000e66565b82525050565b600062000bc78262000e07565b62000bd3818562000e30565b935062000be581856020860162000ea1565b62000bf08162000f06565b840191505092915050565b600062000c088262000e07565b62000c14818562000e41565b935062000c2681856020860162000ea1565b62000c318162000f06565b840191505092915050565b600062000c4b601e8362000e41565b91507f476976656e20636f6d70616e79206973206e6f742063657274696669656400006000830152602082019050919050565b600060208201905062000c95600083018462000b17565b92915050565b600060408201905062000cb2600083018562000b17565b818103602083015262000cc6818462000bfb565b90509392505050565b6000602082019050818103600083015262000ceb818462000b28565b905092915050565b600060208201905062000d0a600083018462000ba9565b92915050565b6000602082019050818103600083015262000d2c818462000bfb565b905092915050565b6000602082019050818103600083015262000d4f8162000c3c565b9050919050565b6000604051905081810181811067ffffffffffffffff8211171562000d805762000d7f62000ed7565b5b8060405250919050565b600067ffffffffffffffff82111562000da85762000da762000ed7565b5b602082029050602081019050919050565b600067ffffffffffffffff82111562000dd75762000dd662000ed7565b5b601f19601f8301169050602081019050919050565b6000819050602082019050919050565b600081519050919050565b600081519050919050565b6000602082019050919050565b600082825260208201905092915050565b600082825260208201905092915050565b600082825260208201905092915050565b600062000e5f8262000e72565b9050919050565b60008115159050919050565b600073ffffffffffffffffffffffffffffffffffffffff82169050919050565b82818337600083830152505050565b60005b8381101562000ec157808201518184015260208101905062000ea4565b8381111562000ed1576000848401525b50505050565b7f4e487b7100000000000000000000000000000000000000000000000000000000600052604160045260246000fd5b6000601f19601f8301169050919050565b62000f228162000e52565b811462000f2e57600080fd5b50565b62000f3c8162000e66565b811462000f4857600080fd5b5056fe608060405234801561001057600080fd5b50604051610953380380610953833981810160405281019061003291906100ce565b80600160006101000a81548173ffffffffffffffffffffffffffffffffffffffff021916908373ffffffffffffffffffffffffffffffffffffffff160217905550336000806101000a81548173ffffffffffffffffffffffffffffffffffffffff021916908373ffffffffffffffffffffffffffffffffffffffff16021790555050610140565b6000815190506100c881610129565b92915050565b6000602082840312156100e057600080fd5b60006100ee848285016100b9565b91505092915050565b600061010282610109565b9050919050565b600073ffffffffffffffffffffffffffffffffffffffff82169050919050565b610132816100f7565b811461013d57600080fd5b50565b6108048061014f6000396000f3fe608060405234801561001057600080fd5b50600436106100575760003560e01c80630ed047d41461005c578063127810bc14610078578063893d20e814610096578063dcc60128146100b4578063ffa67370146100d2575b600080fd5b6100766004803603810190610071919061045f565b610102565b005b61008061020e565b60405161008d91906105ef565b60405180910390f35b61009e610238565b6040516100ab91906105ef565b60405180910390f35b6100bc610261565b6040516100c9919061060a565b60405180910390f35b6100ec60048036038101906100e7919061045f565b61033a565b6040516100f9919061062c565b60405180910390f35b60008054906101000a900473ffffffffffffffffffffffffffffffffffffffff1673ffffffffffffffffffffffffffffffffffffffff163373ffffffffffffffffffffffffffffffffffffffff161461015a57600080fd5b60016003838360405161016e9291906105d6565b908152602001604051809103902060006101000a81548160ff02191690831515021790555060028282909180600181540180825580915050600190039060005260206000200160009091929091929091929091925091906101d0929190610372565b507fe2113e2f31e9059e4f64d1910b874f2e8ee4a4fd9081c4910d409f649dfe3b488282604051610202929190610647565b60405180910390a15050565b6000600160009054906101000a900473ffffffffffffffffffffffffffffffffffffffff16905090565b60008060009054906101000a900473ffffffffffffffffffffffffffffffffffffffff16905090565b60606002805480602002602001604051908101604052809291908181526020016000905b828210156103315783829060005260206000200180546102a49061075c565b80601f01602080910402602001604051908101604052809291908181526020018280546102d09061075c565b801561031d5780601f106102f25761010080835404028352916020019161031d565b820191906000526020600020905b81548152906001019060200180831161030057829003601f168201915b505050505081526020019060010190610285565b50505050905090565b60006003838360405161034e9291906105d6565b908152602001604051809103902060009054906101000a900460ff16905092915050565b82805461037e9061075c565b90600052602060002090601f0160209004810192826103a057600085556103e7565b82601f106103b957803560ff19168380011785556103e7565b828001600101855582156103e7579182015b828111156103e65782358255916020019190600101906103cb565b5b5090506103f491906103f8565b5090565b5b808211156104115760008160009055506001016103f9565b5090565b60008083601f84011261042757600080fd5b8235905067ffffffffffffffff81111561044057600080fd5b60208301915083600182028301111561045857600080fd5b9250929050565b6000806020838503121561047257600080fd5b600083013567ffffffffffffffff81111561048c57600080fd5b61049885828601610415565b92509250509250929050565b60006104b0838361059d565b905092915050565b6104c1816106dc565b82525050565b60006104d28261067b565b6104dc818561069e565b9350836020820285016104ee8561066b565b8060005b8581101561052a578484038952815161050b85826104a4565b945061051683610691565b925060208a019950506001810190506104f2565b50829750879550505050505092915050565b610545816106ee565b82525050565b600061055783856106c0565b935061056483858461071a565b61056d836107bd565b840190509392505050565b600061058483856106d1565b935061059183858461071a565b82840190509392505050565b60006105a882610686565b6105b281856106af565b93506105c2818560208601610729565b6105cb816107bd565b840191505092915050565b60006105e3828486610578565b91508190509392505050565b600060208201905061060460008301846104b8565b92915050565b6000602082019050818103600083015261062481846104c7565b905092915050565b6000602082019050610641600083018461053c565b92915050565b6000602082019050818103600083015261066281848661054b565b90509392505050565b6000819050602082019050919050565b600081519050919050565b600081519050919050565b6000602082019050919050565b600082825260208201905092915050565b600082825260208201905092915050565b600082825260208201905092915050565b600081905092915050565b60006106e7826106fa565b9050919050565b60008115159050919050565b600073ffffffffffffffffffffffffffffffffffffffff82169050919050565b82818337600083830152505050565b60005b8381101561074757808201518184015260208101905061072c565b83811115610756576000848401525b50505050565b6000600282049050600182168061077457607f821691505b602082108114156107885761078761078e565b5b50919050565b7f4e487b7100000000000000000000000000000000000000000000000000000000600052602260045260246000fd5b6000601f19601f830116905091905056fea26469706673582212205f1923931e62c95f02156b109297df1e06a858a300bc9fe2775b480c0974a75064736f6c63430008000033a264697066735822122078dee3d5e12fefc8685674665d1c06f649b184d4f6255de2071e6f41d3de8ea064736f6c63430008000033",
  "immutableReferences": {},
  "source": "// SPDX-License-Identifier: MIT\npragma solidity >=0.6.0;\n\nimport \"./GreenCertificate.sol\";\nimport \"@openzeppelin/contracts/utils/Address.sol\";\n\ncontract GreenCertificateRepository {\n    using Address for address;\n\n    /**\n     * @dev Modifier to allow function to be called only by the contract owner\n     */\n    modifier onlyOwner() {\n        require(msg.sender == _owner);\n        _;\n    }\n\n    /**\n     * @dev Event to be emmitted when a company certificate is created\n     */\n    event CompanyCertification(address certificate);\n\n    /**\n     * @dev Event to be emmitted when a project is added\n     */\n    event ProjectCertification(address company, string project);\n\n\n    // Owner of this contract\n    address private _owner;\n\n    // Mapping of company to a green certificate\n    mapping(address => GreenCertificate) private _greenCertificates;\n    // Mapping of certified companies\n    mapping(address => bool) private _certifiedCompanies;\n\n\n    constructor() {\n        _owner = msg.sender;\n    }\n\n    // Getter functions\n    function getOwner() external view returns (address) {\n        return _owner;\n    }\n\n    // Function to check if a company is certified\n    function isCertifiedCompany(address company) public view returns (bool) {\n        return _certifiedCompanies[company];\n    }\n\n    // Function to get the address of the company's certificate\n    function getCompanyCertificateAddress(address company) public view returns (address) {\n        require(isCertifiedCompany(company), \"Given company is not certified\");\n        return address(_greenCertificates[company]);     \n    }\n\n    // Function to get a list of certified projects\n    function getCertifiedProjects(address company) external view returns (string[] memory) {\n        require(isCertifiedCompany(company), \"Given company is not certified\");\n        return _greenCertificates[company].getProjects();\n    }\n\n    function isCeritifiedProject(address company, string memory project) external view returns (bool) {\n        require(isCertifiedCompany(company), \"Given company is not certified\");\n        GreenCertificate certificate = _greenCertificates[company];\n        return certificate.isCertifiedProject(project);\n    }\n\n\n    function createCertificate(address company, string memory project) external onlyOwner {\n        // Create certificate for the company if it already does not exist\n        if(_certifiedCompanies[company] == false) {\n            // Create certificate\n            GreenCertificate newCertificate = new GreenCertificate(company);\n            _certifiedCompanies[company] = true;\n            _greenCertificates[company] = newCertificate;\n\n            // Create an event\n            emit CompanyCertification(address(newCertificate));\n        } \n\n        // Add project to the list\n        GreenCertificate certificate = _greenCertificates[company];\n        certificate.addProject(project);   \n        emit ProjectCertification(company, project);      \n    }\n \n}\n\n",
  "sourcePath": "/Users/leena/Documents/Coding/Blockchain_Green_Bonds/testProjects/OZ_test/contracts/GreenCertificateRepository.sol",
  "compiler": {
    "name": "solc",
    "version": "0.8.0+commit.c7dfd78e.Emscripten.clang"
  },
  "schemaVersion": "3.4.1",
  "updatedAt": "2021-08-19T12:06:16.784Z",
  "networkType": "ethereum",
  "devdoc": {
    "events": {
      "CompanyCertification(address)": {
        "details": "Event to be emmitted when a company certificate is created"
      },
      "ProjectCertification(address,string)": {
        "details": "Event to be emmitted when a project is added"
      }
    },
    "kind": "dev",
    "methods": {},
    "version": 1
  },
  "userdoc": {
    "kind": "user",
    "methods": {},
    "version": 1
  }
}