{
  "contractName": "GreenBond2",
  "abi": [
    {
      "inputs": [
        {
          "internalType": "address",
          "name": "company",
          "type": "address"
        },
        {
          "internalType": "string",
          "name": "name",
          "type": "string"
        },
        {
          "internalType": "string",
          "name": "symbol",
          "type": "string"
        },
        {
          "internalType": "uint256",
          "name": "numberOfBondsSeeked",
          "type": "uint256"
        },
        {
          "internalType": "uint256",
          "name": "minCoupon",
          "type": "uint256"
        },
        {
          "internalType": "uint256",
          "name": "maxCoupon",
          "type": "uint256"
        },
        {
          "internalType": "uint256",
          "name": "bidClosingTime",
          "type": "uint256"
        },
        {
          "internalType": "uint256",
          "name": "term",
          "type": "uint256"
        },
        {
          "internalType": "uint256",
          "name": "couponsPerYear",
          "type": "uint256"
        },
        {
          "internalType": "string",
          "name": "baseBondURI",
          "type": "string"
        }
      ],
      "stateMutability": "nonpayable",
      "type": "constructor"
    },
    {
      "anonymous": false,
      "inputs": [
        {
          "indexed": true,
          "internalType": "address",
          "name": "owner",
          "type": "address"
        },
        {
          "indexed": true,
          "internalType": "address",
          "name": "approved",
          "type": "address"
        },
        {
          "indexed": true,
          "internalType": "uint256",
          "name": "tokenId",
          "type": "uint256"
        }
      ],
      "name": "Approval",
      "type": "event"
    },
    {
      "anonymous": false,
      "inputs": [
        {
          "indexed": true,
          "internalType": "address",
          "name": "owner",
          "type": "address"
        },
        {
          "indexed": true,
          "internalType": "address",
          "name": "operator",
          "type": "address"
        },
        {
          "indexed": false,
          "internalType": "bool",
          "name": "approved",
          "type": "bool"
        }
      ],
      "name": "ApprovalForAll",
      "type": "event"
    },
    {
      "anonymous": false,
      "inputs": [
        {
          "indexed": false,
          "internalType": "address",
          "name": "bidder",
          "type": "address"
        },
        {
          "indexed": false,
          "internalType": "uint256",
          "name": "coupon",
          "type": "uint256"
        },
        {
          "indexed": false,
          "internalType": "uint256",
          "name": "numberOfBonds",
          "type": "uint256"
        }
      ],
      "name": "Bid",
      "type": "event"
    },
    {
      "anonymous": false,
      "inputs": [
        {
          "indexed": false,
          "internalType": "uint256",
          "name": "actualDemand",
          "type": "uint256"
        },
        {
          "indexed": false,
          "internalType": "uint256",
          "name": "requestedDemand",
          "type": "uint256"
        }
      ],
      "name": "CancelBondIssue",
      "type": "event"
    },
    {
      "anonymous": false,
      "inputs": [
        {
          "indexed": false,
          "internalType": "address",
          "name": "account",
          "type": "address"
        },
        {
          "indexed": false,
          "internalType": "uint256",
          "name": "value",
          "type": "uint256"
        }
      ],
      "name": "CoinRefund",
      "type": "event"
    },
    {
      "anonymous": false,
      "inputs": [
        {
          "indexed": false,
          "internalType": "uint256",
          "name": "from",
          "type": "uint256"
        },
        {
          "indexed": false,
          "internalType": "uint256",
          "name": "to",
          "type": "uint256"
        }
      ],
      "name": "CouponAdjustment",
      "type": "event"
    },
    {
      "anonymous": false,
      "inputs": [
        {
          "indexed": false,
          "internalType": "address",
          "name": "investor",
          "type": "address"
        },
        {
          "indexed": false,
          "internalType": "uint256",
          "name": "bondId",
          "type": "uint256"
        }
      ],
      "name": "CouponPayment",
      "type": "event"
    },
    {
      "anonymous": false,
      "inputs": [
        {
          "indexed": false,
          "internalType": "uint256",
          "name": "coupon",
          "type": "uint256"
        }
      ],
      "name": "CouponSet",
      "type": "event"
    },
    {
      "anonymous": false,
      "inputs": [
        {
          "indexed": false,
          "internalType": "address",
          "name": "investor",
          "type": "address"
        },
        {
          "indexed": false,
          "internalType": "uint256",
          "name": "value",
          "type": "uint256"
        },
        {
          "indexed": false,
          "internalType": "uint256",
          "name": "numberOfBonds",
          "type": "uint256"
        }
      ],
      "name": "Investment",
      "type": "event"
    },
    {
      "anonymous": false,
      "inputs": [
        {
          "indexed": true,
          "internalType": "address",
          "name": "previousOwner",
          "type": "address"
        },
        {
          "indexed": true,
          "internalType": "address",
          "name": "newOwner",
          "type": "address"
        }
      ],
      "name": "OwnershipTransferred",
      "type": "event"
    },
    {
      "anonymous": false,
      "inputs": [
        {
          "indexed": true,
          "internalType": "address",
          "name": "from",
          "type": "address"
        },
        {
          "indexed": true,
          "internalType": "address",
          "name": "to",
          "type": "address"
        },
        {
          "indexed": true,
          "internalType": "uint256",
          "name": "tokenId",
          "type": "uint256"
        }
      ],
      "name": "Transfer",
      "type": "event"
    },
    {
      "inputs": [
        {
          "internalType": "address",
          "name": "to",
          "type": "address"
        },
        {
          "internalType": "uint256",
          "name": "tokenId",
          "type": "uint256"
        }
      ],
      "name": "approve",
      "outputs": [],
      "stateMutability": "nonpayable",
      "type": "function"
    },
    {
      "inputs": [
        {
          "internalType": "address",
          "name": "owner",
          "type": "address"
        }
      ],
      "name": "balanceOf",
      "outputs": [
        {
          "internalType": "uint256",
          "name": "",
          "type": "uint256"
        }
      ],
      "stateMutability": "view",
      "type": "function",
      "constant": true
    },
    {
      "inputs": [
        {
          "internalType": "uint256",
          "name": "tokenId",
          "type": "uint256"
        }
      ],
      "name": "getApproved",
      "outputs": [
        {
          "internalType": "address",
          "name": "",
          "type": "address"
        }
      ],
      "stateMutability": "view",
      "type": "function",
      "constant": true
    },
    {
      "inputs": [
        {
          "internalType": "address",
          "name": "owner",
          "type": "address"
        },
        {
          "internalType": "address",
          "name": "operator",
          "type": "address"
        }
      ],
      "name": "isApprovedForAll",
      "outputs": [
        {
          "internalType": "bool",
          "name": "",
          "type": "bool"
        }
      ],
      "stateMutability": "view",
      "type": "function",
      "constant": true
    },
    {
      "inputs": [],
      "name": "name",
      "outputs": [
        {
          "internalType": "string",
          "name": "",
          "type": "string"
        }
      ],
      "stateMutability": "view",
      "type": "function",
      "constant": true
    },
    {
      "inputs": [],
      "name": "owner",
      "outputs": [
        {
          "internalType": "address",
          "name": "",
          "type": "address"
        }
      ],
      "stateMutability": "view",
      "type": "function",
      "constant": true
    },
    {
      "inputs": [
        {
          "internalType": "uint256",
          "name": "tokenId",
          "type": "uint256"
        }
      ],
      "name": "ownerOf",
      "outputs": [
        {
          "internalType": "address",
          "name": "",
          "type": "address"
        }
      ],
      "stateMutability": "view",
      "type": "function",
      "constant": true
    },
    {
      "inputs": [],
      "name": "renounceOwnership",
      "outputs": [],
      "stateMutability": "nonpayable",
      "type": "function"
    },
    {
      "inputs": [
        {
          "internalType": "address",
          "name": "from",
          "type": "address"
        },
        {
          "internalType": "address",
          "name": "to",
          "type": "address"
        },
        {
          "internalType": "uint256",
          "name": "tokenId",
          "type": "uint256"
        }
      ],
      "name": "safeTransferFrom",
      "outputs": [],
      "stateMutability": "nonpayable",
      "type": "function"
    },
    {
      "inputs": [
        {
          "internalType": "address",
          "name": "from",
          "type": "address"
        },
        {
          "internalType": "address",
          "name": "to",
          "type": "address"
        },
        {
          "internalType": "uint256",
          "name": "tokenId",
          "type": "uint256"
        },
        {
          "internalType": "bytes",
          "name": "_data",
          "type": "bytes"
        }
      ],
      "name": "safeTransferFrom",
      "outputs": [],
      "stateMutability": "nonpayable",
      "type": "function"
    },
    {
      "inputs": [
        {
          "internalType": "address",
          "name": "operator",
          "type": "address"
        },
        {
          "internalType": "bool",
          "name": "approved",
          "type": "bool"
        }
      ],
      "name": "setApprovalForAll",
      "outputs": [],
      "stateMutability": "nonpayable",
      "type": "function"
    },
    {
      "inputs": [],
      "name": "symbol",
      "outputs": [
        {
          "internalType": "string",
          "name": "",
          "type": "string"
        }
      ],
      "stateMutability": "view",
      "type": "function",
      "constant": true
    },
    {
      "inputs": [
        {
          "internalType": "uint256",
          "name": "tokenId",
          "type": "uint256"
        }
      ],
      "name": "tokenURI",
      "outputs": [
        {
          "internalType": "string",
          "name": "",
          "type": "string"
        }
      ],
      "stateMutability": "view",
      "type": "function",
      "constant": true
    },
    {
      "inputs": [
        {
          "internalType": "address",
          "name": "from",
          "type": "address"
        },
        {
          "internalType": "address",
          "name": "to",
          "type": "address"
        },
        {
          "internalType": "uint256",
          "name": "tokenId",
          "type": "uint256"
        }
      ],
      "name": "transferFrom",
      "outputs": [],
      "stateMutability": "nonpayable",
      "type": "function"
    },
    {
      "inputs": [
        {
          "internalType": "address",
          "name": "newOwner",
          "type": "address"
        }
      ],
      "name": "transferOwnership",
      "outputs": [],
      "stateMutability": "nonpayable",
      "type": "function"
    },
    {
      "inputs": [],
      "name": "couponDefined",
      "outputs": [
        {
          "internalType": "bool",
          "name": "",
          "type": "bool"
        }
      ],
      "stateMutability": "view",
      "type": "function",
      "constant": true
    },
    {
      "inputs": [],
      "name": "cancelled",
      "outputs": [
        {
          "internalType": "bool",
          "name": "",
          "type": "bool"
        }
      ],
      "stateMutability": "view",
      "type": "function",
      "constant": true
    },
    {
      "inputs": [],
      "name": "getCompany",
      "outputs": [
        {
          "internalType": "address",
          "name": "",
          "type": "address"
        }
      ],
      "stateMutability": "view",
      "type": "function",
      "constant": true
    },
    {
      "inputs": [],
      "name": "getFaceValue",
      "outputs": [
        {
          "internalType": "uint256",
          "name": "",
          "type": "uint256"
        }
      ],
      "stateMutability": "view",
      "type": "function",
      "constant": true
    },
    {
      "inputs": [],
      "name": "getName",
      "outputs": [
        {
          "internalType": "string",
          "name": "",
          "type": "string"
        }
      ],
      "stateMutability": "view",
      "type": "function",
      "constant": true
    },
    {
      "inputs": [],
      "name": "getNumberOfBondsSeeked",
      "outputs": [
        {
          "internalType": "uint256",
          "name": "",
          "type": "uint256"
        }
      ],
      "stateMutability": "view",
      "type": "function",
      "constant": true
    },
    {
      "inputs": [],
      "name": "getCoupon",
      "outputs": [
        {
          "internalType": "uint256",
          "name": "",
          "type": "uint256"
        }
      ],
      "stateMutability": "view",
      "type": "function",
      "constant": true
    },
    {
      "inputs": [],
      "name": "getMinCoupon",
      "outputs": [
        {
          "internalType": "uint256",
          "name": "",
          "type": "uint256"
        }
      ],
      "stateMutability": "view",
      "type": "function",
      "constant": true
    },
    {
      "inputs": [],
      "name": "getMaxCoupon",
      "outputs": [
        {
          "internalType": "uint256",
          "name": "",
          "type": "uint256"
        }
      ],
      "stateMutability": "view",
      "type": "function",
      "constant": true
    },
    {
      "inputs": [],
      "name": "getTerm",
      "outputs": [
        {
          "internalType": "uint256",
          "name": "",
          "type": "uint256"
        }
      ],
      "stateMutability": "view",
      "type": "function",
      "constant": true
    },
    {
      "inputs": [],
      "name": "getTotalDebt",
      "outputs": [
        {
          "internalType": "uint256",
          "name": "",
          "type": "uint256"
        }
      ],
      "stateMutability": "view",
      "type": "function",
      "constant": true
    },
    {
      "inputs": [],
      "name": "getBidClosingTime",
      "outputs": [
        {
          "internalType": "uint256",
          "name": "",
          "type": "uint256"
        }
      ],
      "stateMutability": "view",
      "type": "function",
      "constant": true
    },
    {
      "inputs": [],
      "name": "getIssueDate",
      "outputs": [
        {
          "internalType": "uint256",
          "name": "",
          "type": "uint256"
        }
      ],
      "stateMutability": "view",
      "type": "function",
      "constant": true
    },
    {
      "inputs": [],
      "name": "getMaturityDate",
      "outputs": [
        {
          "internalType": "uint256",
          "name": "",
          "type": "uint256"
        }
      ],
      "stateMutability": "view",
      "type": "function",
      "constant": true
    },
    {
      "inputs": [
        {
          "internalType": "uint256",
          "name": "number",
          "type": "uint256"
        }
      ],
      "name": "getCouponDate",
      "outputs": [
        {
          "internalType": "uint256",
          "name": "",
          "type": "uint256"
        }
      ],
      "stateMutability": "view",
      "type": "function",
      "constant": true
    },
    {
      "inputs": [
        {
          "internalType": "uint256",
          "name": "number",
          "type": "uint256"
        }
      ],
      "name": "getActualCouponDate",
      "outputs": [
        {
          "internalType": "uint256",
          "name": "",
          "type": "uint256"
        }
      ],
      "stateMutability": "view",
      "type": "function",
      "constant": true
    },
    {
      "inputs": [],
      "name": "getCouponDates",
      "outputs": [
        {
          "internalType": "uint256[]",
          "name": "",
          "type": "uint256[]"
        }
      ],
      "stateMutability": "view",
      "type": "function",
      "constant": true
    },
    {
      "inputs": [],
      "name": "numberOfInvestors",
      "outputs": [
        {
          "internalType": "uint256",
          "name": "",
          "type": "uint256"
        }
      ],
      "stateMutability": "view",
      "type": "function",
      "constant": true
    },
    {
      "inputs": [],
      "name": "bondCount",
      "outputs": [
        {
          "internalType": "uint256",
          "name": "",
          "type": "uint256"
        }
      ],
      "stateMutability": "view",
      "type": "function",
      "constant": true
    },
    {
      "inputs": [
        {
          "internalType": "address",
          "name": "investor",
          "type": "address"
        }
      ],
      "name": "getInvestedAmountPerInvestor",
      "outputs": [
        {
          "internalType": "uint256",
          "name": "",
          "type": "uint256"
        }
      ],
      "stateMutability": "view",
      "type": "function",
      "constant": true
    },
    {
      "inputs": [
        {
          "internalType": "address",
          "name": "investor",
          "type": "address"
        }
      ],
      "name": "getRequestedBondsPerInvestor",
      "outputs": [
        {
          "internalType": "uint256",
          "name": "",
          "type": "uint256"
        }
      ],
      "stateMutability": "view",
      "type": "function",
      "constant": true
    },
    {
      "inputs": [
        {
          "internalType": "address",
          "name": "investor",
          "type": "address"
        }
      ],
      "name": "getCouponPerInvestor",
      "outputs": [
        {
          "internalType": "uint256",
          "name": "",
          "type": "uint256"
        }
      ],
      "stateMutability": "view",
      "type": "function",
      "constant": true
    },
    {
      "inputs": [
        {
          "internalType": "bytes4",
          "name": "interfaceId",
          "type": "bytes4"
        }
      ],
      "name": "supportsInterface",
      "outputs": [
        {
          "internalType": "bool",
          "name": "",
          "type": "bool"
        }
      ],
      "stateMutability": "view",
      "type": "function",
      "constant": true
    },
    {
      "inputs": [
        {
          "internalType": "uint256",
          "name": "coupon",
          "type": "uint256"
        },
        {
          "internalType": "uint256",
          "name": "numberOfBonds",
          "type": "uint256"
        }
      ],
      "name": "registerBid",
      "outputs": [],
      "stateMutability": "payable",
      "type": "function",
      "payable": true
    },
    {
      "inputs": [],
      "name": "defineCoupon",
      "outputs": [
        {
          "internalType": "uint256",
          "name": "",
          "type": "uint256"
        }
      ],
      "stateMutability": "nonpayable",
      "type": "function"
    },
    {
      "inputs": [
        {
          "internalType": "uint256",
          "name": "coupon",
          "type": "uint256"
        }
      ],
      "name": "getBiddersAtCoupon",
      "outputs": [
        {
          "internalType": "address[]",
          "name": "",
          "type": "address[]"
        }
      ],
      "stateMutability": "view",
      "type": "function",
      "constant": true
    },
    {
      "inputs": [
        {
          "internalType": "address",
          "name": "investor",
          "type": "address"
        }
      ],
      "name": "getInvestorBalance",
      "outputs": [
        {
          "internalType": "uint256",
          "name": "",
          "type": "uint256"
        }
      ],
      "stateMutability": "view",
      "type": "function",
      "constant": true
    },
    {
      "inputs": [],
      "name": "biddingWindowisOpen",
      "outputs": [
        {
          "internalType": "bool",
          "name": "",
          "type": "bool"
        }
      ],
      "stateMutability": "view",
      "type": "function",
      "constant": true
    },
    {
      "inputs": [],
      "name": "issueBonds",
      "outputs": [],
      "stateMutability": "nonpayable",
      "type": "function"
    },
    {
      "inputs": [],
      "name": "payCoupons",
      "outputs": [],
      "stateMutability": "payable",
      "type": "function",
      "payable": true
    },
    {
      "inputs": [
        {
          "internalType": "uint256",
          "name": "coupon",
          "type": "uint256"
        }
      ],
      "name": "couponPaymentMadeOnTime",
      "outputs": [
        {
          "internalType": "bool",
          "name": "",
          "type": "bool"
        }
      ],
      "stateMutability": "view",
      "type": "function",
      "constant": true
    },
    {
      "inputs": [],
      "name": "payBackBond",
      "outputs": [],
      "stateMutability": "payable",
      "type": "function",
      "payable": true
    },
    {
      "inputs": [],
      "name": "principalPaymentMadeOnTime",
      "outputs": [
        {
          "internalType": "bool",
          "name": "",
          "type": "bool"
        }
      ],
      "stateMutability": "view",
      "type": "function",
      "constant": true
    },
    {
      "inputs": [
        {
          "internalType": "bool",
          "name": "increase",
          "type": "bool"
        },
        {
          "internalType": "uint256",
          "name": "amount",
          "type": "uint256"
        }
      ],
      "name": "adjustCoupon",
      "outputs": [],
      "stateMutability": "nonpayable",
      "type": "function"
    }
  ],
  "bytecode": "0x60806040526000600960006101000a81548160ff0219169083151502179055506000600960016101000a81548160ff021916908315150217905550600060145560006019553480156200005157600080fd5b506040516200697f3803806200697f8339818101604052810190620000779190620005e1565b888881600090805190602001906200009192919062000491565b508060019080519060200190620000aa92919062000491565b5050506000620000bf6200048960201b60201c565b905080600660006101000a81548173ffffffffffffffffffffffffffffffffffffffff021916908373ffffffffffffffffffffffffffffffffffffffff1602179055508073ffffffffffffffffffffffffffffffffffffffff16600073ffffffffffffffffffffffffffffffffffffffff167f8be0079c531659141344cd1fd0a4f28419497f9722a3daafe3b4186f6b6457e060405160405180910390a350600073ffffffffffffffffffffffffffffffffffffffff168a73ffffffffffffffffffffffffffffffffffffffff161415620001d1576040517f08c379a0000000000000000000000000000000000000000000000000000000008152600401620001c890620008d6565b60405180910390fd5b600086101562000218576040517f08c379a00000000000000000000000000000000000000000000000000000000081526004016200020f9062000870565b60405180910390fd5b8585116200025d576040517f08c379a00000000000000000000000000000000000000000000000000000000081526004016200025490620008b4565b60405180910390fd5b428411620002a2576040517f08c379a0000000000000000000000000000000000000000000000000000000008152600401620002999062000892565b60405180910390fd5b33600b60006101000a81548173ffffffffffffffffffffffffffffffffffffffff021916908373ffffffffffffffffffffffffffffffffffffffff1602179055508060089080519060200190620002fb92919062000491565b5089600c60006101000a81548173ffffffffffffffffffffffffffffffffffffffff021916908373ffffffffffffffffffffffffffffffffffffffff1602179055506064600d8190555086600e819055506000600f8190555085601081905550846011819055508360168190555062093a806016546200037c919062000970565b6017819055508260128190555081601a8190555082826200039e919062000a05565b6013819055506301e1338083620003b6919062000a05565b601754620003c5919062000970565b6018819055506000826301e13380620003df9190620009cd565b90506000600190505b60135481116200047757601b818362000402919062000a05565b60175462000411919062000970565b9080600181540180825580915050600190039060005260206000200160009091909190915055601c6000908060018154018082558091505060019003906000526020600020016000909190919091505580806200046e9062000b10565b915050620003e8565b50505050505050505050505062000c4e565b600033905090565b8280546200049f9062000ada565b90600052602060002090601f016020900481019282620004c357600085556200050f565b82601f10620004de57805160ff19168380011785556200050f565b828001600101855582156200050f579182015b828111156200050e578251825591602001919060010190620004f1565b5b5090506200051e919062000522565b5090565b5b808211156200053d57600081600090555060010162000523565b5090565b60006200055862000552846200092c565b620008f8565b9050828152602081018484840111156200057157600080fd5b6200057e84828562000aa4565b509392505050565b600081519050620005978162000c1a565b92915050565b600082601f830112620005af57600080fd5b8151620005c184826020860162000541565b91505092915050565b600081519050620005db8162000c34565b92915050565b6000806000806000806000806000806101408b8d0312156200060257600080fd5b6000620006128d828e0162000586565b9a505060208b015167ffffffffffffffff8111156200063057600080fd5b6200063e8d828e016200059d565b99505060408b015167ffffffffffffffff8111156200065c57600080fd5b6200066a8d828e016200059d565b98505060606200067d8d828e01620005ca565b9750506080620006908d828e01620005ca565b96505060a0620006a38d828e01620005ca565b95505060c0620006b68d828e01620005ca565b94505060e0620006c98d828e01620005ca565b935050610100620006dd8d828e01620005ca565b9250506101208b015167ffffffffffffffff811115620006fc57600080fd5b6200070a8d828e016200059d565b9150509295989b9194979a5092959850565b60006200072b6018836200095f565b91507f636f75706f6e2063616e2774206265206e6567617469766500000000000000006000830152602082019050919050565b60006200076d6021836200095f565b91507f436c6f73696e672074696d652063616e277420626520696e207468652070617360008301527f74000000000000000000000000000000000000000000000000000000000000006020830152604082019050919050565b6000620007d5602e836200095f565b91507f6d617820636f75706f6e206e6565647320746f2062652067726561746572207460008301527f68616e206d696e20636f75706f6e0000000000000000000000000000000000006020830152604082019050919050565b60006200083d601e836200095f565b91507f436f6d70616e7920616464726573732063616e206e6f742062652030783000006000830152602082019050919050565b600060208201905081810360008301526200088b816200071c565b9050919050565b60006020820190508181036000830152620008ad816200075e565b9050919050565b60006020820190508181036000830152620008cf81620007c6565b9050919050565b60006020820190508181036000830152620008f1816200082e565b9050919050565b6000604051905081810181811067ffffffffffffffff8211171562000922576200092162000beb565b5b8060405250919050565b600067ffffffffffffffff8211156200094a576200094962000beb565b5b601f19601f8301169050602081019050919050565b600082825260208201905092915050565b60006200097d8262000a9a565b91506200098a8362000a9a565b9250827fffffffffffffffffffffffffffffffffffffffffffffffffffffffffffffffff03821115620009c257620009c162000b5e565b5b828201905092915050565b6000620009da8262000a9a565b9150620009e78362000a9a565b925082620009fa57620009f962000b8d565b5b828204905092915050565b600062000a128262000a9a565b915062000a1f8362000a9a565b9250817fffffffffffffffffffffffffffffffffffffffffffffffffffffffffffffffff048311821515161562000a5b5762000a5a62000b5e565b5b828202905092915050565b600062000a738262000a7a565b9050919050565b600073ffffffffffffffffffffffffffffffffffffffff82169050919050565b6000819050919050565b60005b8381101562000ac457808201518184015260208101905062000aa7565b8381111562000ad4576000848401525b50505050565b6000600282049050600182168062000af357607f821691505b6020821081141562000b0a5762000b0962000bbc565b5b50919050565b600062000b1d8262000a9a565b91507fffffffffffffffffffffffffffffffffffffffffffffffffffffffffffffffff82141562000b535762000b5262000b5e565b5b600182019050919050565b7f4e487b7100000000000000000000000000000000000000000000000000000000600052601160045260246000fd5b7f4e487b7100000000000000000000000000000000000000000000000000000000600052601260045260246000fd5b7f4e487b7100000000000000000000000000000000000000000000000000000000600052602260045260246000fd5b7f4e487b7100000000000000000000000000000000000000000000000000000000600052604160045260246000fd5b62000c258162000a66565b811462000c3157600080fd5b50565b62000c3f8162000a9a565b811462000c4b57600080fd5b50565b615d218062000c5e6000396000f3fe6080604052600436106102ae5760003560e01c80637edd13c511610175578063b88d4fde116100dc578063d4fc7cd911610095578063e985e9c51161006f578063e985e9c514610a97578063ec18efc414610ad4578063efd8672914610b11578063f2fde38b14610b3a576102ae565b8063d4fc7cd914610a04578063e050a30614610a2f578063e412cfc714610a5a576102ae565b8063b88d4fde146108e0578063bc3ada9c14610909578063c6b1013414610946578063c74584a614610971578063c87b56dd1461099c578063d24f84b1146109d9576102ae565b80639737fcff1161012e5780639737fcff146107aa5780639a82a09a146107d55780639afbb5a014610800578063a22cb4651461083d578063ab20df0114610866578063b0603ec2146108a3576102ae565b80637edd13c5146106a85780638da5cb5b146106d35780638edd4d24146106fe578063915dd03614610729578063924091dc1461075457806395d89b411461077f576102ae565b806334ce998a116102195780635ea63913116101d25780635ea639131461059857806361c49ebf146105d55780636352211e146105ec5780636f3ed9d71461062957806370a0823114610654578063715018a614610691576102ae565b806334ce998a146104da57806334f56f8c1461050557806342842e0e146105305780634a513801146105595780634cff6c0e146105635780635de9f20a1461056d576102ae565b80630eebfec71161026b5780630eebfec7146103c8578063124b65b414610405578063127810bc1461043057806317d7de7c1461045b5780631af2c9fd1461048657806323b872dd146104b1576102ae565b806301ffc9a7146102b357806306fdde03146102f057806307634cbe1461031b578063081812fc14610346578063095ea7b3146103835780630c364957146103ac575b600080fd5b3480156102bf57600080fd5b506102da60048036038101906102d59190614348565b610b63565b6040516102e7919061531e565b60405180910390f35b3480156102fc57600080fd5b50610305610b75565b6040516103129190615339565b60405180910390f35b34801561032757600080fd5b50610330610c07565b60405161033d91906157bb565b60405180910390f35b34801561035257600080fd5b5061036d6004803603810190610368919061439a565b610c11565b60405161037a91906151ea565b60405180910390f35b34801561038f57600080fd5b506103aa60048036038101906103a591906142d0565b610c96565b005b6103c660048036038101906103c191906143c3565b610dae565b005b3480156103d457600080fd5b506103ef60048036038101906103ea919061439a565b6112bf565b6040516103fc91906152da565b60405180910390f35b34801561041157600080fd5b5061041a6113b3565b60405161042791906157bb565b60405180910390f35b34801561043c57600080fd5b506104456113bd565b60405161045291906151ea565b60405180910390f35b34801561046757600080fd5b506104706113e7565b60405161047d9190615339565b60405180910390f35b34801561049257600080fd5b5061049b6113f6565b6040516104a891906157bb565b60405180910390f35b3480156104bd57600080fd5b506104d860048036038101906104d391906141ca565b611403565b005b3480156104e657600080fd5b506104ef611463565b6040516104fc91906157bb565b60405180910390f35b34801561051157600080fd5b5061051a61146d565b604051610527919061531e565b60405180910390f35b34801561053c57600080fd5b50610557600480360381019061055291906141ca565b611484565b005b6105616114a4565b005b61056b6117b6565b005b34801561057957600080fd5b50610582611aa4565b60405161058f919061531e565b60405180910390f35b3480156105a457600080fd5b506105bf60048036038101906105ba9190614165565b611ab1565b6040516105cc91906157bb565b60405180910390f35b3480156105e157600080fd5b506105ea611b69565b005b3480156105f857600080fd5b50610613600480360381019061060e919061439a565b6120db565b60405161062091906151ea565b60405180910390f35b34801561063557600080fd5b5061063e61218d565b60405161064b91906157bb565b60405180910390f35b34801561066057600080fd5b5061067b60048036038101906106769190614165565b612197565b60405161068891906157bb565b60405180910390f35b34801561069d57600080fd5b506106a661224f565b005b3480156106b457600080fd5b506106bd61238c565b6040516106ca91906157bb565b60405180910390f35b3480156106df57600080fd5b506106e8612396565b6040516106f591906151ea565b60405180910390f35b34801561070a57600080fd5b506107136123c0565b60405161072091906157bb565b60405180910390f35b34801561073557600080fd5b5061073e6123d1565b60405161074b91906157bb565b60405180910390f35b34801561076057600080fd5b506107696123db565b60405161077691906157bb565b60405180910390f35b34801561078b57600080fd5b506107946125e0565b6040516107a19190615339565b60405180910390f35b3480156107b657600080fd5b506107bf612672565b6040516107cc91906157bb565b60405180910390f35b3480156107e157600080fd5b506107ea61267c565b6040516107f7919061531e565b60405180910390f35b34801561080c57600080fd5b5061082760048036038101906108229190614165565b612693565b60405161083491906157bb565b60405180910390f35b34801561084957600080fd5b50610864600480360381019061085f9190614294565b6126dc565b005b34801561087257600080fd5b5061088d60048036038101906108889190614165565b61285d565b60405161089a91906157bb565b60405180910390f35b3480156108af57600080fd5b506108ca60048036038101906108c5919061439a565b6128a6565b6040516108d791906157bb565b60405180910390f35b3480156108ec57600080fd5b5061090760048036038101906109029190614219565b612950565b005b34801561091557600080fd5b50610930600480360381019061092b9190614165565b6129b2565b60405161093d91906157bb565b60405180910390f35b34801561095257600080fd5b5061095b6129fb565b60405161096891906157bb565b60405180910390f35b34801561097d57600080fd5b50610986612a05565b60405161099391906157bb565b60405180910390f35b3480156109a857600080fd5b506109c360048036038101906109be919061439a565b612a0f565b6040516109d09190615339565b60405180910390f35b3480156109e557600080fd5b506109ee612ab6565b6040516109fb91906152fc565b60405180910390f35b348015610a1057600080fd5b50610a19612b0e565b604051610a2691906157bb565b60405180910390f35b348015610a3b57600080fd5b50610a44612b18565b604051610a51919061531e565b60405180910390f35b348015610a6657600080fd5b50610a816004803603810190610a7c919061439a565b612b8f565b604051610a8e919061531e565b60405180910390f35b348015610aa357600080fd5b50610abe6004803603810190610ab9919061418e565b612d91565b604051610acb919061531e565b60405180910390f35b348015610ae057600080fd5b50610afb6004803603810190610af6919061439a565b612e25565b604051610b0891906157bb565b60405180910390f35b348015610b1d57600080fd5b50610b386004803603810190610b33919061430c565b612ecf565b005b348015610b4657600080fd5b50610b616004803603810190610b5c9190614165565b61300b565b005b6000610b6e826131b7565b9050919050565b606060008054610b8490615b16565b80601f0160208091040260200160405190810160405280929190818152602001828054610bb090615b16565b8015610bfd5780601f10610bd257610100808354040283529160200191610bfd565b820191906000526020600020905b815481529060010190602001808311610be057829003601f168201915b5050505050905090565b6000600f54905090565b6000610c1c82613299565b610c5b576040517f08c379a0000000000000000000000000000000000000000000000000000000008152600401610c52906155bb565b60405180910390fd5b6004600083815260200190815260200160002060009054906101000a900473ffffffffffffffffffffffffffffffffffffffff169050919050565b6000610ca1826120db565b90508073ffffffffffffffffffffffffffffffffffffffff168373ffffffffffffffffffffffffffffffffffffffff161415610d12576040517f08c379a0000000000000000000000000000000000000000000000000000000008152600401610d099061569b565b60405180910390fd5b8073ffffffffffffffffffffffffffffffffffffffff16610d31613305565b73ffffffffffffffffffffffffffffffffffffffff161480610d605750610d5f81610d5a613305565b612d91565b5b610d9f576040517f08c379a0000000000000000000000000000000000000000000000000000000008152600401610d969061551b565b60405180910390fd5b610da9838361330d565b505050565b610db6611aa4565b610df5576040517f08c379a0000000000000000000000000000000000000000000000000000000008152600401610dec9061575b565b60405180910390fd5b6010548210158015610e0957506011548211155b610e48576040517f08c379a0000000000000000000000000000000000000000000000000000000008152600401610e3f9061537b565b60405180910390fd5b80600d54610e56919061599c565b341015610e98576040517f08c379a0000000000000000000000000000000000000000000000000000000008152600401610e8f9061573b565b60405180910390fd5b60001515602360003373ffffffffffffffffffffffffffffffffffffffff1673ffffffffffffffffffffffffffffffffffffffff16815260200190815260200160002060009054906101000a900460ff16151514610f2b576040517f08c379a0000000000000000000000000000000000000000000000000000000008152600401610f229061577b565b60405180910390fd5b6001602360003373ffffffffffffffffffffffffffffffffffffffff1673ffffffffffffffffffffffffffffffffffffffff16815260200190815260200160002060006101000a81548160ff02191690831515021790555080601e60003373ffffffffffffffffffffffffffffffffffffffff1673ffffffffffffffffffffffffffffffffffffffff168152602001908152602001600020819055506000602060008481526020019081526020016000205490508181610feb9190615915565b602060008581526020019081526020016000208190555082601f60003373ffffffffffffffffffffffffffffffffffffffff1673ffffffffffffffffffffffffffffffffffffffff168152602001908152602001600020819055506000602260003373ffffffffffffffffffffffffffffffffffffffff1673ffffffffffffffffffffffffffffffffffffffff168152602001908152602001600020600085815260200190815260200160002054905060008114156111195760216000858152602001908152602001600020339080600181540180825580915050600190039060005260206000200160009091909190916101000a81548173ffffffffffffffffffffffffffffffffffffffff021916908373ffffffffffffffffffffffffffffffffffffffff1602179055505b80836111259190615915565b602260003373ffffffffffffffffffffffffffffffffffffffff1673ffffffffffffffffffffffffffffffffffffffff16815260200190815260200160002060008681526020019081526020016000208190555082600d54611187919061599c565b601d60003373ffffffffffffffffffffffffffffffffffffffff1673ffffffffffffffffffffffffffffffffffffffff168152602001908152602001600020819055507f19421268847f42dd61705778018ddfc43bcdce8517e7a630acb12f122c7094813385856040516111fd939291906152a3565b60405180910390a182600d54611213919061599c565b3411156112b957600083600d5461122a919061599c565b3461123591906159f6565b90503373ffffffffffffffffffffffffffffffffffffffff166108fc829081150290604051600060405180830381858888f1935050505015801561127d573d6000803e3d6000fd5b507f2ee76d0c8417fef3c9f68663d321eb1c1ed0e089b5298177f0582aeadb6fd91f33826040516112af92919061527a565b60405180910390a1505b50505050565b606060105482101580156112d557506011548211155b611314576040517f08c379a000000000000000000000000000000000000000000000000000000000815260040161130b9061579b565b60405180910390fd5b602160008381526020019081526020016000208054806020026020016040519081016040528092919081815260200182805480156113a757602002820191906000526020600020905b8160009054906101000a900473ffffffffffffffffffffffffffffffffffffffff1673ffffffffffffffffffffffffffffffffffffffff168152602001906001019080831161135d575b50505050509050919050565b6000601254905090565b6000600c60009054906101000a900473ffffffffffffffffffffffffffffffffffffffff16905090565b60606113f1610b75565b905090565b6000600a80549050905090565b61141461140e613305565b826133c6565b611453576040517f08c379a000000000000000000000000000000000000000000000000000000000815260040161144a906156db565b60405180910390fd5b61145e8383836134a4565b505050565b6000601554905090565b6000600960009054906101000a900460ff16905090565b61149f83838360405180602001604052806000815250612950565b505050565b600c60009054906101000a900473ffffffffffffffffffffffffffffffffffffffff1673ffffffffffffffffffffffffffffffffffffffff163373ffffffffffffffffffffffffffffffffffffffff1614611534576040517f08c379a000000000000000000000000000000000000000000000000000000000815260040161152b9061557b565b60405180910390fd5b61153e6007613700565b600f5461154b919061599c565b34101561158d576040517f08c379a0000000000000000000000000000000000000000000000000000000008152600401611584906156bb565b60405180910390fd5b601354601454106115d3576040517f08c379a00000000000000000000000000000000000000000000000000000000081526004016115ca9061535b565b60405180910390fd5b60005b6115e06007613700565b81101561168a5760006115f2826120db565b90508073ffffffffffffffffffffffffffffffffffffffff166108fc600f549081150290604051600060405180830381858888f1935050505015801561163c573d6000803e3d6000fd5b507fb3224bc7c2e6157092b5f650cc8b06e5f0c34d8218b6e9a1a5a39c2e43706e40818360405161166e929190615205565b60405180910390a150808061168290615b48565b9150506115d6565b5042601c601454815481106116c8577f4e487b7100000000000000000000000000000000000000000000000000000000600052603260045260246000fd5b9060005260206000200181905550601460008154809291906116e990615b48565b91905055506116f86007613700565b600f54611705919061599c565b3411156117b45760006117186007613700565b600f54611725919061599c565b3461173091906159f6565b90503373ffffffffffffffffffffffffffffffffffffffff166108fc829081150290604051600060405180830381858888f19350505050158015611778573d6000803e3d6000fd5b507f2ee76d0c8417fef3c9f68663d321eb1c1ed0e089b5298177f0582aeadb6fd91f33826040516117aa92919061527a565b60405180910390a1505b565b600c60009054906101000a900473ffffffffffffffffffffffffffffffffffffffff1673ffffffffffffffffffffffffffffffffffffffff163373ffffffffffffffffffffffffffffffffffffffff1614611846576040517f08c379a000000000000000000000000000000000000000000000000000000000815260040161183d9061549b565b60405180910390fd5b60155434101561188b576040517f08c379a0000000000000000000000000000000000000000000000000000000008152600401611882906156fb565b60405180910390fd5b60006118976007613700565b905060005b8181101561195b5760006118af826120db565b90506118de81600b60009054906101000a900473ffffffffffffffffffffffffffffffffffffffff168461370e565b8073ffffffffffffffffffffffffffffffffffffffff166108fc600d549081150290604051600060405180830381858888f19350505050158015611926573d6000803e3d6000fd5b50600d5460155461193791906159f6565b601581905550611947600761371e565b50808061195390615b48565b91505061189c565b5042601981905550600047118015611974575060155434115b15611aa15760006015543461198991906159f6565b905080471015611a1e5760004790503373ffffffffffffffffffffffffffffffffffffffff166108fc829081150290604051600060405180830381858888f193505050501580156119de573d6000803e3d6000fd5b507f2ee76d0c8417fef3c9f68663d321eb1c1ed0e089b5298177f0582aeadb6fd91f3382604051611a1092919061527a565b60405180910390a150611a9f565b3373ffffffffffffffffffffffffffffffffffffffff166108fc829081150290604051600060405180830381858888f19350505050158015611a64573d6000803e3d6000fd5b507f2ee76d0c8417fef3c9f68663d321eb1c1ed0e089b5298177f0582aeadb6fd91f3382604051611a9692919061527a565b60405180910390a15b505b50565b6000601654421115905090565b60008073ffffffffffffffffffffffffffffffffffffffff168273ffffffffffffffffffffffffffffffffffffffff161415611b22576040517f08c379a0000000000000000000000000000000000000000000000000000000008152600401611b19906155fb565b60405180910390fd5b601d60008373ffffffffffffffffffffffffffffffffffffffff1673ffffffffffffffffffffffffffffffffffffffff168152602001908152602001600020549050919050565b611b71611aa4565b15611bb1576040517f08c379a0000000000000000000000000000000000000000000000000000000008152600401611ba89061571b565b60405180910390fd5b611bb9613305565b73ffffffffffffffffffffffffffffffffffffffff16611bd7612396565b73ffffffffffffffffffffffffffffffffffffffff1614611c2d576040517f08c379a0000000000000000000000000000000000000000000000000000000008152600401611c24906155db565b60405180910390fd5b60011515600960009054906101000a900460ff16151514611c83576040517f08c379a0000000000000000000000000000000000000000000000000000000008152600401611c7a9061565b565b60405180910390fd5b6000600e54905060005b600a805490508110156120d7576000600a8281548110611cd6577f4e487b7100000000000000000000000000000000000000000000000000000000600052603260045260246000fd5b9060005260206000200160009054906101000a900473ffffffffffffffffffffffffffffffffffffffff1690506000601e60008373ffffffffffffffffffffffffffffffffffffffff1673ffffffffffffffffffffffffffffffffffffffff16815260200190815260200160002054905083811115611f9657600c60009054906101000a900473ffffffffffffffffffffffffffffffffffffffff1673ffffffffffffffffffffffffffffffffffffffff166108fc85600d54611d99919061599c565b9081150290604051600060405180830381858888f19350505050158015611dc4573d6000803e3d6000fd5b5083600d54611dd3919061599c565b60156000828254611de49190615915565b9250508190555060005b84811015611e2657611e0983611e046007613700565b61377a565b611e136007613948565b8080611e1e90615b48565b915050611dee565b506000601d60008473ffffffffffffffffffffffffffffffffffffffff1673ffffffffffffffffffffffffffffffffffffffff16815260200190815260200160002054905084600d54611e79919061599c565b81611e8491906159f6565b601d60008573ffffffffffffffffffffffffffffffffffffffff1673ffffffffffffffffffffffffffffffffffffffff168152602001908152602001600020819055506000601d60008573ffffffffffffffffffffffffffffffffffffffff1673ffffffffffffffffffffffffffffffffffffffff1681526020019081526020016000205490508373ffffffffffffffffffffffffffffffffffffffff166108fc829081150290604051600060405180830381858888f19350505050158015611f51573d6000803e3d6000fd5b507f2ee76d0c8417fef3c9f68663d321eb1c1ed0e089b5298177f0582aeadb6fd91f8482604051611f8392919061527a565b60405180910390a16000955050506120c2565b600c60009054906101000a900473ffffffffffffffffffffffffffffffffffffffff1673ffffffffffffffffffffffffffffffffffffffff166108fc82600d54611fe0919061599c565b9081150290604051600060405180830381858888f1935050505015801561200b573d6000803e3d6000fd5b5080600d5461201a919061599c565b6015600082825461202b9190615915565b9250508190555060005b8181101561206d576120508361204b6007613700565b61377a565b61205a6007613948565b808061206590615b48565b915050612035565b506000601d60008473ffffffffffffffffffffffffffffffffffffffff1673ffffffffffffffffffffffffffffffffffffffff1681526020019081526020016000208190555080846120bf91906159f6565b93505b505080806120cf90615b48565b915050611c8d565b5050565b6000806002600084815260200190815260200160002060009054906101000a900473ffffffffffffffffffffffffffffffffffffffff169050600073ffffffffffffffffffffffffffffffffffffffff168173ffffffffffffffffffffffffffffffffffffffff161415612184576040517f08c379a000000000000000000000000000000000000000000000000000000000815260040161217b9061555b565b60405180910390fd5b80915050919050565b6000600d54905090565b60008073ffffffffffffffffffffffffffffffffffffffff168273ffffffffffffffffffffffffffffffffffffffff161415612208576040517f08c379a00000000000000000000000000000000000000000000000000000000081526004016121ff9061553b565b60405180910390fd5b600360008373ffffffffffffffffffffffffffffffffffffffff1673ffffffffffffffffffffffffffffffffffffffff168152602001908152602001600020549050919050565b612257613305565b73ffffffffffffffffffffffffffffffffffffffff16612275612396565b73ffffffffffffffffffffffffffffffffffffffff16146122cb576040517f08c379a00000000000000000000000000000000000000000000000000000000081526004016122c2906155db565b60405180910390fd5b600073ffffffffffffffffffffffffffffffffffffffff16600660009054906101000a900473ffffffffffffffffffffffffffffffffffffffff1673ffffffffffffffffffffffffffffffffffffffff167f8be0079c531659141344cd1fd0a4f28419497f9722a3daafe3b4186f6b6457e060405160405180910390a36000600660006101000a81548173ffffffffffffffffffffffffffffffffffffffff021916908373ffffffffffffffffffffffffffffffffffffffff160217905550565b6000601154905090565b6000600660009054906101000a900473ffffffffffffffffffffffffffffffffffffffff16905090565b60006123cc6007613700565b905090565b6000601054905090565b60006123e5611aa4565b15612425576040517f08c379a000000000000000000000000000000000000000000000000000000000815260040161241c9061571b565b60405180910390fd5b61242d613305565b73ffffffffffffffffffffffffffffffffffffffff1661244b612396565b73ffffffffffffffffffffffffffffffffffffffff16146124a1576040517f08c379a0000000000000000000000000000000000000000000000000000000008152600401612498906155db565b60405180910390fd5b60008060105490505b60115481116124fc576020600082815260200190815260200160002054826124d29190615915565b9150600e5482106124e95780600f819055506124fc565b80806124f490615b48565b9150506124aa565b506000600f541115612569577f34ccc1cc859f0b1e974530f1eb22e713649d5f3937abf904589392796241d611600f5460405161253991906157bb565b60405180910390a16001600960006101000a81548160ff02191690831515021790555061256461395e565b6125c0565b7fe7f2eb6d54f3b1a2443045ba960f25d2ce0a36bcdee0965882edf6051179a59b81600e5460405161259c9291906157d6565b60405180910390a16001600960016101000a81548160ff0219169083151502179055505b6125d76001600f546125d29190615915565b613a56565b600f5491505090565b6060600180546125ef90615b16565b80601f016020809104026020016040519081016040528092919081815260200182805461261b90615b16565b80156126685780601f1061263d57610100808354040283529160200191612668565b820191906000526020600020905b81548152906001019060200180831161264b57829003601f168201915b5050505050905090565b6000601854905090565b6000600960019054906101000a900460ff16905090565b6000601e60008373ffffffffffffffffffffffffffffffffffffffff1673ffffffffffffffffffffffffffffffffffffffff168152602001908152602001600020549050919050565b6126e4613305565b73ffffffffffffffffffffffffffffffffffffffff168273ffffffffffffffffffffffffffffffffffffffff161415612752576040517f08c379a00000000000000000000000000000000000000000000000000000000081526004016127499061547b565b60405180910390fd5b806005600061275f613305565b73ffffffffffffffffffffffffffffffffffffffff1673ffffffffffffffffffffffffffffffffffffffff16815260200190815260200160002060008473ffffffffffffffffffffffffffffffffffffffff1673ffffffffffffffffffffffffffffffffffffffff16815260200190815260200160002060006101000a81548160ff0219169083151502179055508173ffffffffffffffffffffffffffffffffffffffff1661280c613305565b73ffffffffffffffffffffffffffffffffffffffff167f17307eab39ab6107e8899845ad3d59bd9653f200f220920489ca2b5937696c3183604051612851919061531e565b60405180910390a35050565b6000601f60008373ffffffffffffffffffffffffffffffffffffffff1673ffffffffffffffffffffffffffffffffffffffff168152602001908152602001600020549050919050565b600080821180156128b957506013548211155b6128f8576040517f08c379a00000000000000000000000000000000000000000000000000000000081526004016128ef9061567b565b60405180910390fd5b601c60018361290791906159f6565b8154811061293e577f4e487b7100000000000000000000000000000000000000000000000000000000600052603260045260246000fd5b90600052602060002001549050919050565b61296161295b613305565b836133c6565b6129a0576040517f08c379a0000000000000000000000000000000000000000000000000000000008152600401612997906156db565b60405180910390fd5b6129ac84848484613be0565b50505050565b6000601d60008373ffffffffffffffffffffffffffffffffffffffff1673ffffffffffffffffffffffffffffffffffffffff168152602001908152602001600020549050919050565b6000601654905090565b6000600e54905090565b6060612a1a82613299565b612a59576040517f08c379a0000000000000000000000000000000000000000000000000000000008152600401612a509061563b565b60405180910390fd5b6000612a63613c3c565b90506000815111612a835760405180602001604052806000815250612aae565b80612a8d84613cce565b604051602001612a9e9291906151c6565b6040516020818303038152906040525b915050919050565b6060601b805480602002602001604051908101604052809291908181526020018280548015612b0457602002820191906000526020600020905b815481526020019060010190808311612af0575b5050505050905090565b6000601754905090565b60006018544211612b5e576040517f08c379a0000000000000000000000000000000000000000000000000000000008152600401612b559061543b565b60405180910390fd5b60006019541415612b725760009050612b8c565b6018546019541115612b875760009050612b8c565b600190505b90565b600060018210158015612ba457506013548211155b612be3576040517f08c379a0000000000000000000000000000000000000000000000000000000008152600401612bda9061541b565b60405180910390fd5b601b600183612bf291906159f6565b81548110612c29577f4e487b7100000000000000000000000000000000000000000000000000000000600052603260045260246000fd5b90600052602060002001544211612c75576040517f08c379a0000000000000000000000000000000000000000000000000000000008152600401612c6c906154bb565b60405180910390fd5b6000601c600184612c8691906159f6565b81548110612cbd577f4e487b7100000000000000000000000000000000000000000000000000000000600052603260045260246000fd5b90600052602060002001541415612cd75760009050612d8c565b601b600183612ce691906159f6565b81548110612d1d577f4e487b7100000000000000000000000000000000000000000000000000000000600052603260045260246000fd5b9060005260206000200154601c600184612d3791906159f6565b81548110612d6e577f4e487b7100000000000000000000000000000000000000000000000000000000600052603260045260246000fd5b906000526020600020015411612d875760019050612d8c565b600090505b919050565b6000600560008473ffffffffffffffffffffffffffffffffffffffff1673ffffffffffffffffffffffffffffffffffffffff16815260200190815260200160002060008373ffffffffffffffffffffffffffffffffffffffff1673ffffffffffffffffffffffffffffffffffffffff16815260200190815260200160002060009054906101000a900460ff16905092915050565b60008082118015612e3857506013548211155b612e77576040517f08c379a0000000000000000000000000000000000000000000000000000000008152600401612e6e9061567b565b60405180910390fd5b601b600183612e8691906159f6565b81548110612ebd577f4e487b7100000000000000000000000000000000000000000000000000000000600052603260045260246000fd5b90600052602060002001549050919050565b612ed7613305565b73ffffffffffffffffffffffffffffffffffffffff16612ef5612396565b73ffffffffffffffffffffffffffffffffffffffff1614612f4b576040517f08c379a0000000000000000000000000000000000000000000000000000000008152600401612f42906155db565b60405180910390fd5b6000600f5490508215612f715781600f54612f669190615915565b600f81905550612fcb565b600f54821115612fb6576040517f08c379a0000000000000000000000000000000000000000000000000000000008152600401612fad906154db565b60405180910390fd5b81600f54612fc491906159f6565b600f819055505b7f19c6461ea018cd13c242700a8b6afa6a2a3a4de691e6f2cd9416b3bef1a9515081600f54604051612ffe9291906157d6565b60405180910390a1505050565b613013613305565b73ffffffffffffffffffffffffffffffffffffffff16613031612396565b73ffffffffffffffffffffffffffffffffffffffff1614613087576040517f08c379a000000000000000000000000000000000000000000000000000000000815260040161307e906155db565b60405180910390fd5b600073ffffffffffffffffffffffffffffffffffffffff168173ffffffffffffffffffffffffffffffffffffffff1614156130f7576040517f08c379a00000000000000000000000000000000000000000000000000000000081526004016130ee906153db565b60405180910390fd5b8073ffffffffffffffffffffffffffffffffffffffff16600660009054906101000a900473ffffffffffffffffffffffffffffffffffffffff1673ffffffffffffffffffffffffffffffffffffffff167f8be0079c531659141344cd1fd0a4f28419497f9722a3daafe3b4186f6b6457e060405160405180910390a380600660006101000a81548173ffffffffffffffffffffffffffffffffffffffff021916908373ffffffffffffffffffffffffffffffffffffffff16021790555050565b60007f80ac58cd000000000000000000000000000000000000000000000000000000007bffffffffffffffffffffffffffffffffffffffffffffffffffffffff1916827bffffffffffffffffffffffffffffffffffffffffffffffffffffffff1916148061328257507f5b5e139f000000000000000000000000000000000000000000000000000000007bffffffffffffffffffffffffffffffffffffffffffffffffffffffff1916827bffffffffffffffffffffffffffffffffffffffffffffffffffffffff1916145b80613292575061329182613e7b565b5b9050919050565b60008073ffffffffffffffffffffffffffffffffffffffff166002600084815260200190815260200160002060009054906101000a900473ffffffffffffffffffffffffffffffffffffffff1673ffffffffffffffffffffffffffffffffffffffff1614159050919050565b600033905090565b816004600083815260200190815260200160002060006101000a81548173ffffffffffffffffffffffffffffffffffffffff021916908373ffffffffffffffffffffffffffffffffffffffff160217905550808273ffffffffffffffffffffffffffffffffffffffff16613380836120db565b73ffffffffffffffffffffffffffffffffffffffff167f8c5be1e5ebec7d5bd14f71427d1e84f3dd0314c0f7b2291e5b200ac8c7c3b92560405160405180910390a45050565b60006133d182613299565b613410576040517f08c379a0000000000000000000000000000000000000000000000000000000008152600401613407906154fb565b60405180910390fd5b600061341b836120db565b90508073ffffffffffffffffffffffffffffffffffffffff168473ffffffffffffffffffffffffffffffffffffffff16148061348a57508373ffffffffffffffffffffffffffffffffffffffff1661347284610c11565b73ffffffffffffffffffffffffffffffffffffffff16145b8061349b575061349a8185612d91565b5b91505092915050565b8273ffffffffffffffffffffffffffffffffffffffff166134c4826120db565b73ffffffffffffffffffffffffffffffffffffffff161461351a576040517f08c379a00000000000000000000000000000000000000000000000000000000081526004016135119061561b565b60405180910390fd5b600073ffffffffffffffffffffffffffffffffffffffff168273ffffffffffffffffffffffffffffffffffffffff16141561358a576040517f08c379a00000000000000000000000000000000000000000000000000000000081526004016135819061545b565b60405180910390fd5b613595838383613ee5565b6135a060008261330d565b6001600360008573ffffffffffffffffffffffffffffffffffffffff1673ffffffffffffffffffffffffffffffffffffffff16815260200190815260200160002060008282546135f091906159f6565b925050819055506001600360008473ffffffffffffffffffffffffffffffffffffffff1673ffffffffffffffffffffffffffffffffffffffff16815260200190815260200160002060008282546136479190615915565b92505081905550816002600083815260200190815260200160002060006101000a81548173ffffffffffffffffffffffffffffffffffffffff021916908373ffffffffffffffffffffffffffffffffffffffff160217905550808273ffffffffffffffffffffffffffffffffffffffff168473ffffffffffffffffffffffffffffffffffffffff167fddf252ad1be2c89b69c2b068fc378daa952ba7f163c4a11628f55a4df523b3ef60405160405180910390a4505050565b600081600001549050919050565b6137198383836134a4565b505050565b6000816000015490506000811161376a576040517f08c379a00000000000000000000000000000000000000000000000000000000081526004016137619061539b565b60405180910390fd5b6001810382600001819055505050565b600073ffffffffffffffffffffffffffffffffffffffff168273ffffffffffffffffffffffffffffffffffffffff1614156137ea576040517f08c379a00000000000000000000000000000000000000000000000000000000081526004016137e19061559b565b60405180910390fd5b6137f381613299565b15613833576040517f08c379a000000000000000000000000000000000000000000000000000000000815260040161382a906153fb565b60405180910390fd5b61383f60008383613ee5565b6001600360008473ffffffffffffffffffffffffffffffffffffffff1673ffffffffffffffffffffffffffffffffffffffff168152602001908152602001600020600082825461388f9190615915565b92505081905550816002600083815260200190815260200160002060006101000a81548173ffffffffffffffffffffffffffffffffffffffff021916908373ffffffffffffffffffffffffffffffffffffffff160217905550808273ffffffffffffffffffffffffffffffffffffffff16600073ffffffffffffffffffffffffffffffffffffffff167fddf252ad1be2c89b69c2b068fc378daa952ba7f163c4a11628f55a4df523b3ef60405160405180910390a45050565b6001816000016000828254019250508190555050565b600060105490505b600f548111613a5357600061397a826112bf565b905060005b8151811015613a3e57600a8282815181106139c3577f4e487b7100000000000000000000000000000000000000000000000000000000600052603260045260246000fd5b60200260200101519080600181540180825580915050600190039060005260206000200160009091909190916101000a81548173ffffffffffffffffffffffffffffffffffffffff021916908373ffffffffffffffffffffffffffffffffffffffff1602179055508080613a3690615b48565b91505061397f565b50508080613a4b90615b48565b915050613966565b50565b60008190505b6011548111613bdc576000613a70826112bf565b905060005b8151811015613bc7576000828281518110613ab9577f4e487b7100000000000000000000000000000000000000000000000000000000600052603260045260246000fd5b602002602001015190506000602260008373ffffffffffffffffffffffffffffffffffffffff1673ffffffffffffffffffffffffffffffffffffffff16815260200190815260200160002060008681526020019081526020016000205490508173ffffffffffffffffffffffffffffffffffffffff166108fc82600d54613b40919061599c565b9081150290604051600060405180830381858888f19350505050158015613b6b573d6000803e3d6000fd5b507f2ee76d0c8417fef3c9f68663d321eb1c1ed0e089b5298177f0582aeadb6fd91f82600d5483613b9c919061599c565b604051613baa92919061527a565b60405180910390a150508080613bbf90615b48565b915050613a75565b50508080613bd490615b48565b915050613a5c565b5050565b613beb8484846134a4565b613bf784848484613eea565b613c36576040517f08c379a0000000000000000000000000000000000000000000000000000000008152600401613c2d906153bb565b60405180910390fd5b50505050565b606060088054613c4b90615b16565b80601f0160208091040260200160405190810160405280929190818152602001828054613c7790615b16565b8015613cc45780601f10613c9957610100808354040283529160200191613cc4565b820191906000526020600020905b815481529060010190602001808311613ca757829003601f168201915b5050505050905090565b60606000821415613d16576040518060400160405280600181526020017f30000000000000000000000000000000000000000000000000000000000000008152509050613e76565b600082905060005b60008214613d48578080613d3190615b48565b915050600a82613d41919061596b565b9150613d1e565b60008167ffffffffffffffff811115613d8a577f4e487b7100000000000000000000000000000000000000000000000000000000600052604160045260246000fd5b6040519080825280601f01601f191660200182016040528015613dbc5781602001600182028036833780820191505090505b5090505b60008514613e6f57600182613dd591906159f6565b9150600a85613de49190615b91565b6030613df09190615915565b60f81b818381518110613e2c577f4e487b7100000000000000000000000000000000000000000000000000000000600052603260045260246000fd5b60200101907effffffffffffffffffffffffffffffffffffffffffffffffffffffffffffff1916908160001a905350600a85613e68919061596b565b9450613dc0565b8093505050505b919050565b60007f01ffc9a7000000000000000000000000000000000000000000000000000000007bffffffffffffffffffffffffffffffffffffffffffffffffffffffff1916827bffffffffffffffffffffffffffffffffffffffffffffffffffffffff1916149050919050565b505050565b6000613f0b8473ffffffffffffffffffffffffffffffffffffffff16614081565b15614074578373ffffffffffffffffffffffffffffffffffffffff1663150b7a02613f34613305565b8786866040518563ffffffff1660e01b8152600401613f56949392919061522e565b602060405180830381600087803b158015613f7057600080fd5b505af1925050508015613fa157506040513d601f19601f82011682018060405250810190613f9e9190614371565b60015b614024573d8060008114613fd1576040519150601f19603f3d011682016040523d82523d6000602084013e613fd6565b606091505b5060008151141561401c576040517f08c379a0000000000000000000000000000000000000000000000000000000008152600401614013906153bb565b60405180910390fd5b805181602001fd5b63150b7a0260e01b7bffffffffffffffffffffffffffffffffffffffffffffffffffffffff1916817bffffffffffffffffffffffffffffffffffffffffffffffffffffffff191614915050614079565b600190505b949350505050565b600080823b905060008111915050919050565b60006140a76140a284615830565b6157ff565b9050828152602081018484840111156140bf57600080fd5b6140ca848285615ad4565b509392505050565b6000813590506140e181615c8f565b92915050565b6000813590506140f681615ca6565b92915050565b60008135905061410b81615cbd565b92915050565b60008151905061412081615cbd565b92915050565b600082601f83011261413757600080fd5b8135614147848260208601614094565b91505092915050565b60008135905061415f81615cd4565b92915050565b60006020828403121561417757600080fd5b6000614185848285016140d2565b91505092915050565b600080604083850312156141a157600080fd5b60006141af858286016140d2565b92505060206141c0858286016140d2565b9150509250929050565b6000806000606084860312156141df57600080fd5b60006141ed868287016140d2565b93505060206141fe868287016140d2565b925050604061420f86828701614150565b9150509250925092565b6000806000806080858703121561422f57600080fd5b600061423d878288016140d2565b945050602061424e878288016140d2565b935050604061425f87828801614150565b925050606085013567ffffffffffffffff81111561427c57600080fd5b61428887828801614126565b91505092959194509250565b600080604083850312156142a757600080fd5b60006142b5858286016140d2565b92505060206142c6858286016140e7565b9150509250929050565b600080604083850312156142e357600080fd5b60006142f1858286016140d2565b925050602061430285828601614150565b9150509250929050565b6000806040838503121561431f57600080fd5b600061432d858286016140e7565b925050602061433e85828601614150565b9150509250929050565b60006020828403121561435a57600080fd5b6000614368848285016140fc565b91505092915050565b60006020828403121561438357600080fd5b600061439184828501614111565b91505092915050565b6000602082840312156143ac57600080fd5b60006143ba84828501614150565b91505092915050565b600080604083850312156143d657600080fd5b60006143e485828601614150565b92505060206143f585828601614150565b9150509250929050565b600061440b838361443e565b60208301905092915050565b600061442383836151a8565b60208301905092915050565b61443881615a9e565b82525050565b61444781615a2a565b82525050565b61445681615a2a565b82525050565b600061446782615880565b61447181856158c6565b935061447c83615860565b8060005b838110156144ad57815161449488826143ff565b975061449f836158ac565b925050600181019050614480565b5085935050505092915050565b60006144c58261588b565b6144cf81856158d7565b93506144da83615870565b8060005b8381101561450b5781516144f28882614417565b97506144fd836158b9565b9250506001810190506144de565b5085935050505092915050565b61452181615a3c565b82525050565b600061453282615896565b61453c81856158e8565b935061454c818560208601615ae3565b61455581615c7e565b840191505092915050565b600061456b826158a1565b61457581856158f9565b9350614585818560208601615ae3565b61458e81615c7e565b840191505092915050565b60006145a4826158a1565b6145ae818561590a565b93506145be818560208601615ae3565b80840191505092915050565b60006145d7602a836158f9565b91507f416c6c20636f75706f6e207061796d656e7473206861766520616c726561647960008301527f206265656e206d616465000000000000000000000000000000000000000000006020830152604082019050919050565b600061463d6028836158f9565b91507f436f75706f6e206e6565647320746f206265206265747765656e20746865207360008301527f65742072616e67650000000000000000000000000000000000000000000000006020830152604082019050919050565b60006146a3601b836158f9565b91507f436f756e7465723a2064656372656d656e74206f766572666c6f7700000000006000830152602082019050919050565b60006146e36032836158f9565b91507f4552433732313a207472616e7366657220746f206e6f6e20455243373231526560008301527f63656976657220696d706c656d656e74657200000000000000000000000000006020830152604082019050919050565b60006147496026836158f9565b91507f4f776e61626c653a206e6577206f776e657220697320746865207a65726f206160008301527f64647265737300000000000000000000000000000000000000000000000000006020830152604082019050919050565b60006147af601c836158f9565b91507f4552433732313a20746f6b656e20616c7265616479206d696e746564000000006000830152602082019050919050565b60006147ef601b836158f9565b91507f5468617420636f75706f6e20646f6573206e6f742065786973747300000000006000830152602082019050919050565b600061482f6018836158f9565b91507f426f6e6420686173206e6f74206d6174757265642079657400000000000000006000830152602082019050919050565b600061486f6024836158f9565b91507f4552433732313a207472616e7366657220746f20746865207a65726f2061646460008301527f72657373000000000000000000000000000000000000000000000000000000006020830152604082019050919050565b60006148d56019836158f9565b91507f4552433732313a20617070726f766520746f2063616c6c6572000000000000006000830152602082019050919050565b6000614915602e836158f9565b91507f506179696e6720636f6d70616e792073686f756c642062652074686520626f7260008301527f726f77696e6720636f6d70616e790000000000000000000000000000000000006020830152604082019050919050565b600061497b6012836158f9565b91507f436f75706f6e206e6f74206475652079657400000000000000000000000000006000830152602082019050919050565b60006149bb6020836158f9565b91507f436f75706f6e207061796d656e742063616e2774206265206e656761746976656000830152602082019050919050565b60006149fb602c836158f9565b91507f4552433732313a206f70657261746f7220717565727920666f72206e6f6e657860008301527f697374656e7420746f6b656e00000000000000000000000000000000000000006020830152604082019050919050565b6000614a616038836158f9565b91507f4552433732313a20617070726f76652063616c6c6572206973206e6f74206f7760008301527f6e6572206e6f7220617070726f76656420666f7220616c6c00000000000000006020830152604082019050919050565b6000614ac7602a836158f9565b91507f4552433732313a2062616c616e636520717565727920666f7220746865207a6560008301527f726f2061646472657373000000000000000000000000000000000000000000006020830152604082019050919050565b6000614b2d6029836158f9565b91507f4552433732313a206f776e657220717565727920666f72206e6f6e657869737460008301527f656e7420746f6b656e00000000000000000000000000000000000000000000006020830152604082019050919050565b6000614b936035836158f9565b91507f436f75706f6e207061796d656e742073686f756c6420636f6d652066726f6d2060008301527f74686520626f72726f77696e6720636f6d70616e7900000000000000000000006020830152604082019050919050565b6000614bf96020836158f9565b91507f4552433732313a206d696e7420746f20746865207a65726f20616464726573736000830152602082019050919050565b6000614c39602c836158f9565b91507f4552433732313a20617070726f76656420717565727920666f72206e6f6e657860008301527f697374656e7420746f6b656e00000000000000000000000000000000000000006020830152604082019050919050565b6000614c9f6020836158f9565b91507f4f776e61626c653a2063616c6c6572206973206e6f7420746865206f776e65726000830152602082019050919050565b6000614cdf6022836158f9565b91507f42616c616e636520717565727920666f7220746865207a65726f20616464726560008301527f73730000000000000000000000000000000000000000000000000000000000006020830152604082019050919050565b6000614d456029836158f9565b91507f4552433732313a207472616e73666572206f6620746f6b656e2074686174206960008301527f73206e6f74206f776e00000000000000000000000000000000000000000000006020830152604082019050919050565b6000614dab602f836158f9565b91507f4552433732314d657461646174613a2055524920717565727920666f72206e6f60008301527f6e6578697374656e7420746f6b656e00000000000000000000000000000000006020830152604082019050919050565b6000614e116036836158f9565b91507f63616e206e6f7420697373756520626f6e64732069662074686520636f75706f60008301527f6e20686173206e6f74206265656e20646566696e6564000000000000000000006020830152604082019050919050565b6000614e77603b836158f9565b91507f4e6f207375636820636f75706f6e207061796d656e742c20636865636b20746860008301527f65206e756d626572206f6620636f75706f6e207061796d656e747300000000006020830152604082019050919050565b6000614edd6021836158f9565b91507f4552433732313a20617070726f76616c20746f2063757272656e74206f776e6560008301527f72000000000000000000000000000000000000000000000000000000000000006020830152604082019050919050565b6000614f43601c836158f9565b91507f4e6f7420656e6f75676820636f696e7320666f7220636f75706f6e73000000006000830152602082019050919050565b6000614f836031836158f9565b91507f4552433732313a207472616e736665722063616c6c6572206973206e6f74206f60008301527f776e6572206e6f7220617070726f7665640000000000000000000000000000006020830152604082019050919050565b6000614fe9602f836158f9565b91507f4e6f7420656e6f75676820636f696e7320746f20736574746c6520746865206260008301527f6f6e64206174206d6174757269747900000000000000000000000000000000006020830152604082019050919050565b600061504f601f836158f9565b91507f496e766573746d656e742077696e646f77206973207374696c6c206f70656e006000830152602082019050919050565b600061508f6026836158f9565b91507f4e6f7420656e6f75676820636f696e73206465706f736974656420666f72207460008301527f68652062696400000000000000000000000000000000000000000000000000006020830152604082019050919050565b60006150f5601d836158f9565b91507f496e766573746d656e742077696e646f77206973206e6f74206f70656e0000006000830152602082019050919050565b60006151356019836158f9565b91507f4f6e6c79206f6e65206269642070657220696e766573746f72000000000000006000830152602082019050919050565b60006151756013836158f9565b91507f436f75706f6e206e6f7420696e2072616e6765000000000000000000000000006000830152602082019050919050565b6151b181615a94565b82525050565b6151c081615a94565b82525050565b60006151d28285614599565b91506151de8284614599565b91508190509392505050565b60006020820190506151ff600083018461444d565b92915050565b600060408201905061521a600083018561442f565b61522760208301846151b7565b9392505050565b6000608082019050615243600083018761444d565b615250602083018661444d565b61525d60408301856151b7565b818103606083015261526f8184614527565b905095945050505050565b600060408201905061528f600083018561444d565b61529c60208301846151b7565b9392505050565b60006060820190506152b8600083018661444d565b6152c560208301856151b7565b6152d260408301846151b7565b949350505050565b600060208201905081810360008301526152f4818461445c565b905092915050565b6000602082019050818103600083015261531681846144ba565b905092915050565b60006020820190506153336000830184614518565b92915050565b600060208201905081810360008301526153538184614560565b905092915050565b60006020820190508181036000830152615374816145ca565b9050919050565b6000602082019050818103600083015261539481614630565b9050919050565b600060208201905081810360008301526153b481614696565b9050919050565b600060208201905081810360008301526153d4816146d6565b9050919050565b600060208201905081810360008301526153f48161473c565b9050919050565b60006020820190508181036000830152615414816147a2565b9050919050565b60006020820190508181036000830152615434816147e2565b9050919050565b6000602082019050818103600083015261545481614822565b9050919050565b6000602082019050818103600083015261547481614862565b9050919050565b60006020820190508181036000830152615494816148c8565b9050919050565b600060208201905081810360008301526154b481614908565b9050919050565b600060208201905081810360008301526154d48161496e565b9050919050565b600060208201905081810360008301526154f4816149ae565b9050919050565b60006020820190508181036000830152615514816149ee565b9050919050565b6000602082019050818103600083015261553481614a54565b9050919050565b6000602082019050818103600083015261555481614aba565b9050919050565b6000602082019050818103600083015261557481614b20565b9050919050565b6000602082019050818103600083015261559481614b86565b9050919050565b600060208201905081810360008301526155b481614bec565b9050919050565b600060208201905081810360008301526155d481614c2c565b9050919050565b600060208201905081810360008301526155f481614c92565b9050919050565b6000602082019050818103600083015261561481614cd2565b9050919050565b6000602082019050818103600083015261563481614d38565b9050919050565b6000602082019050818103600083015261565481614d9e565b9050919050565b6000602082019050818103600083015261567481614e04565b9050919050565b6000602082019050818103600083015261569481614e6a565b9050919050565b600060208201905081810360008301526156b481614ed0565b9050919050565b600060208201905081810360008301526156d481614f36565b9050919050565b600060208201905081810360008301526156f481614f76565b9050919050565b6000602082019050818103600083015261571481614fdc565b9050919050565b6000602082019050818103600083015261573481615042565b9050919050565b6000602082019050818103600083015261575481615082565b9050919050565b60006020820190508181036000830152615774816150e8565b9050919050565b6000602082019050818103600083015261579481615128565b9050919050565b600060208201905081810360008301526157b481615168565b9050919050565b60006020820190506157d060008301846151b7565b92915050565b60006040820190506157eb60008301856151b7565b6157f860208301846151b7565b9392505050565b6000604051905081810181811067ffffffffffffffff8211171561582657615825615c4f565b5b8060405250919050565b600067ffffffffffffffff82111561584b5761584a615c4f565b5b601f19601f8301169050602081019050919050565b6000819050602082019050919050565b6000819050602082019050919050565b600081519050919050565b600081519050919050565b600081519050919050565b600081519050919050565b6000602082019050919050565b6000602082019050919050565b600082825260208201905092915050565b600082825260208201905092915050565b600082825260208201905092915050565b600082825260208201905092915050565b600081905092915050565b600061592082615a94565b915061592b83615a94565b9250827fffffffffffffffffffffffffffffffffffffffffffffffffffffffffffffffff038211156159605761595f615bc2565b5b828201905092915050565b600061597682615a94565b915061598183615a94565b92508261599157615990615bf1565b5b828204905092915050565b60006159a782615a94565b91506159b283615a94565b9250817fffffffffffffffffffffffffffffffffffffffffffffffffffffffffffffffff04831182151516156159eb576159ea615bc2565b5b828202905092915050565b6000615a0182615a94565b9150615a0c83615a94565b925082821015615a1f57615a1e615bc2565b5b828203905092915050565b6000615a3582615a74565b9050919050565b60008115159050919050565b60007fffffffff0000000000000000000000000000000000000000000000000000000082169050919050565b600073ffffffffffffffffffffffffffffffffffffffff82169050919050565b6000819050919050565b6000615aa982615ab0565b9050919050565b6000615abb82615ac2565b9050919050565b6000615acd82615a74565b9050919050565b82818337600083830152505050565b60005b83811015615b01578082015181840152602081019050615ae6565b83811115615b10576000848401525b50505050565b60006002820490506001821680615b2e57607f821691505b60208210811415615b4257615b41615c20565b5b50919050565b6000615b5382615a94565b91507fffffffffffffffffffffffffffffffffffffffffffffffffffffffffffffffff821415615b8657615b85615bc2565b5b600182019050919050565b6000615b9c82615a94565b9150615ba783615a94565b925082615bb757615bb6615bf1565b5b828206905092915050565b7f4e487b7100000000000000000000000000000000000000000000000000000000600052601160045260246000fd5b7f4e487b7100000000000000000000000000000000000000000000000000000000600052601260045260246000fd5b7f4e487b7100000000000000000000000000000000000000000000000000000000600052602260045260246000fd5b7f4e487b7100000000000000000000000000000000000000000000000000000000600052604160045260246000fd5b6000601f19601f8301169050919050565b615c9881615a2a565b8114615ca357600080fd5b50565b615caf81615a3c565b8114615cba57600080fd5b50565b615cc681615a48565b8114615cd157600080fd5b50565b615cdd81615a94565b8114615ce857600080fd5b5056fea26469706673582212201ed46d6d23e7f4a64868611ae5cd5319df529a1c25643c910bb2aa92054ad85f64736f6c63430008000033",
  "immutableReferences": {},
  "source": "// SPDX-License-Identifier: MIT\npragma solidity >=0.6.0;\n\nimport \"@openzeppelin/contracts/token/ERC721/ERC721.sol\";\nimport \"@openzeppelin/contracts/access/Ownable.sol\";\nimport \"@openzeppelin/contracts/utils/Counters.sol\";\n\ncontract GreenBond2 is ERC721, Ownable {\n    using Counters for Counters.Counter;\n\n    // MODIFIERS\n    /**\n     * @dev Reverts if bidding time is not open\n     */\n    modifier onlyWhileBiddingWindowOpen {\n        require(biddingWindowisOpen(), \"Investment window is not open\");\n        _;\n    }\n\n    /**\n     * @dev Reverts if bidding time is still open\n     */\n    modifier onlyWhileBiddingWindowClosed {\n        require(!biddingWindowisOpen(), \"Investment window is still open\");\n        _;\n    }\n\n\n    // MEMBER VARIABLES\n\n    Counters.Counter private _bondIdTracker;\n    string private _baseBondURI;\n    // Boolean variable that is only set true if there is enough demand for bond\n    bool private _coupondefined = false;\n    bool private _cancelled = false;\n\n    // List of initial investors who have bidded at 'right coupon level'\n    address[] private _initialInvestors;\n    address private _owner;\n    address payable private _company;\n    uint256 private _value;\n    uint256 private _numberOfBondsSeeked;\n    uint256 private _coupon;\n    uint256 private _minCoupon;\n    uint256 private _maxCoupon;\n    uint256 private _term;\n    uint256 private _totalCouponPayments;\n    uint256 private _couponsPaid = 0; // Zero in the beginning\n    uint256 private _totalDebt;\n    uint256 private _bidClosingTime;\n    uint256 private _issueDate;\n    uint256 private _maturityDate;\n    uint256 private _actualPrincipalPaymentDate = 0; // Initialise to 0\n    uint256 private _couponsPerYear;\n    // Dates for the agreed coupon payments\n    uint256[] private _couponPaymentDates;\n    // Dates when the actual couons were paid\n    uint256[] private _actualCouponPaymentDates;\n    \n    \n\n    mapping(address => uint256) _investedAmountPerInvestor;\n    mapping(address => uint256) _requestedBondsPerInvestor;\n    mapping(address => uint256) _couponPerInvestor;\n\n    mapping(uint256 => uint256) _bidsPerCoupon;\n    mapping(uint256 => address[]) _investorListAtCouponLevel;\n    mapping(address => mapping(uint256 => uint256)) _bidsPerInvestorAtCouponLevel;\n    mapping(address => bool) _biddedInvestors;\n\n    /**\n     * @dev Emitted when an investor registers initial investment request\n     */\n    event Investment(address investor, uint256 value, uint256 numberOfBonds);\n\n    /**\n     * @dev Emitted when coins are refunded to the investor in case there are\n            too many coins for the investment or to the company if they pay too much \n            with coupons / principal repayment\n     */\n    event CoinRefund(address account, uint256 value);\n\n    /**\n     * @dev Emitted when a coupon payment has been made\n     */\n    event CouponPayment(address investor, uint256 bondId);\n\n\n    /**\n     * @dev Emmitted when coupon payment is adjusted\n     */\n    event CouponAdjustment(uint256 from, uint256 to);\n    event CouponSet(uint256 coupon);\n    event CancelBondIssue(uint256 actualDemand, uint256 requestedDemand);\n    event Bid(address bidder, uint256 coupon, uint256 numberOfBonds);\n\n    /**\n     * @dev constructor, requires name and symbol for the bond,\n     * base URI for metadata, company address, facevalue for one bond / min investment\n     * coupon amount, investment window closing time\n     */\n    constructor(\n        address company,\n        string memory name,\n        string memory symbol,\n        uint256 numberOfBondsSeeked,\n        uint256 minCoupon,\n        uint256 maxCoupon,\n        uint256 bidClosingTime,\n        uint256 term,\n        uint256 couponsPerYear,\n        string memory baseBondURI\n    ) ERC721(name, symbol) {\n        require(company != address(0), \"Company address can not be 0x0\");\n        require(minCoupon >= 0, \"coupon can't be negative\");\n        require(\n            maxCoupon > minCoupon,\n            \"max coupon needs to be greater than min coupon\"\n        );\n        require(\n            bidClosingTime > block.timestamp,\n            \"Closing time can't be in the past\"\n        );\n        _owner = msg.sender;\n        _baseBondURI = baseBondURI;\n        _company = payable(company);\n        _value = 100; // Face value default at 100\n        _numberOfBondsSeeked = numberOfBondsSeeked;\n        _coupon = 0; // by default 0\n        _minCoupon = minCoupon;\n        _maxCoupon = maxCoupon;\n        _bidClosingTime = bidClosingTime;\n        _issueDate = _bidClosingTime + 1 weeks;\n        _term = term;\n        _couponsPerYear = couponsPerYear;\n        _totalCouponPayments = couponsPerYear * term;\n\n        _maturityDate = _issueDate + term * 365 days;\n\n        uint256 timeBetweenpayments = 365 days / couponsPerYear;\n\n        // Setting up the coupon payment dates\n        for (uint256 i = 1; i <= _totalCouponPayments; i++) {\n            _couponPaymentDates.push(_issueDate + timeBetweenpayments * i);\n            _actualCouponPaymentDates.push(0);\n        }\n    }\n\n    // Getter functions\n\n    function couponDefined() public view returns (bool) {\n        return _coupondefined;\n    }\n\n    function cancelled() public view returns (bool) {\n        return _cancelled;\n    }\n\n    function getCompany() public view returns (address) {\n        return _company;\n    }\n\n    function getFaceValue() public view returns (uint256) {\n        return _value;\n    }\n\n    function getName() public view returns (string memory) {\n        return name();\n    }\n\n    function getNumberOfBondsSeeked() public view returns (uint256) {\n        return _numberOfBondsSeeked;\n    }\n\n    function getCoupon() public view returns (uint256) {\n        return _coupon;\n    }\n\n    function getMinCoupon() public view returns (uint256) {\n        return _minCoupon;\n    }\n\n    function getMaxCoupon() public view returns (uint256) {\n        return _maxCoupon;\n    }\n\n    function getTerm() public view returns (uint256) {\n        return _term;\n    }\n\n    function getTotalDebt() public view returns (uint256) {\n        return _totalDebt;\n    }\n\n    function getBidClosingTime() external view returns (uint256) {\n        return _bidClosingTime;\n    }\n\n    function getIssueDate() public view returns (uint256) {\n        return _issueDate;\n    }\n\n    function getMaturityDate() public view returns (uint256) {\n        return _maturityDate;\n    }\n\n    function getCouponDate(uint256 number) public view returns (uint256) {\n        require(\n            number > 0 && number <= _totalCouponPayments,\n            \"No such coupon payment, check the number of coupon payments\"\n        );\n        return _couponPaymentDates[number - 1];\n    }\n\n    function getActualCouponDate(uint256 number) public view returns (uint256) {\n        require(\n            number > 0 && number <= _totalCouponPayments,\n            \"No such coupon payment, check the number of coupon payments\"\n        );\n        return _actualCouponPaymentDates[number - 1];\n    }\n\n    function getCouponDates() public view returns (uint256[] memory) {\n        return _couponPaymentDates;\n    }\n\n    function numberOfInvestors() public view returns (uint256) {\n        return _initialInvestors.length;\n    }\n\n    function bondCount() public view returns (uint256) {\n        return _bondIdTracker.current();\n    }\n\n\n    function _baseURI() internal view override returns (string memory) {\n        return _baseBondURI;\n    }\n\n    function getInvestedAmountPerInvestor(address investor)\n        external\n        view\n        returns (uint256)\n    {\n        return _investedAmountPerInvestor[investor];\n    }\n\n    function getRequestedBondsPerInvestor(address investor)\n        external\n        view\n        returns(uint256)\n    {\n        return _requestedBondsPerInvestor[investor];\n    }\n\n    function getCouponPerInvestor(address investor)\n        external\n        view\n        returns(uint256)\n    {\n        return _couponPerInvestor[investor];\n    }\n\n    // Needed to override this function as two parent classes defined the same function\n    function supportsInterface(bytes4 interfaceId)\n        public\n        view\n        virtual\n        override(ERC721)\n        returns (bool)\n    {\n        return super.supportsInterface(interfaceId);\n    }\n\n    // Function for investors to register their bids\n    function registerBid(uint256 coupon, uint256 numberOfBonds)\n        external\n        payable\n        onlyWhileBiddingWindowOpen\n    {\n        require(\n            coupon >= _minCoupon && coupon <= _maxCoupon,\n            \"Coupon needs to be between the set range\"\n        );\n        require(\n            msg.value >= _value * numberOfBonds,\n            \"Not enough coins deposited for the bid\"\n        );\n        require(\n            _biddedInvestors[msg.sender] == false,\n            \"Only one bid per investor\"\n        );\n\n        _biddedInvestors[msg.sender] = true;\n        _requestedBondsPerInvestor[msg.sender] = numberOfBonds;\n\n        // Update the demand for the coupon level\n        uint256 currentDemand = _bidsPerCoupon[coupon];\n        _bidsPerCoupon[coupon] = currentDemand + numberOfBonds;\n        _couponPerInvestor[msg.sender] = coupon;\n\n        // Add the investor to the list if not already on the list\n        uint256 currentAmountInvested = _bidsPerInvestorAtCouponLevel[\n            msg.sender\n        ][coupon];\n        if (currentAmountInvested == 0) {\n            _investorListAtCouponLevel[coupon].push(msg.sender);\n        }\n\n        // Update the mapping\n        _bidsPerInvestorAtCouponLevel[msg.sender][coupon] =\n            numberOfBonds +\n            currentAmountInvested;\n\n        _investedAmountPerInvestor[msg.sender] = _value * numberOfBonds;\n\n        // Emit event\n        emit Bid(msg.sender, coupon, numberOfBonds);\n\n        // Refund if overpaid\n        if (msg.value > _value * numberOfBonds) {\n            uint256 extraAmount = msg.value - _value * numberOfBonds;\n            payable(msg.sender).transfer(extraAmount);\n            emit CoinRefund(msg.sender, extraAmount);\n        }\n    }\n\n    // Function for issuer to define coupon\n    // Finds the lowest coupon that fullfills the demand\n    // Returns the defined coupon\n    function defineCoupon()\n        public\n        onlyWhileBiddingWindowClosed\n        onlyOwner\n        returns (uint256)\n    {\n        // Variable for the total demand for tokens\n        uint256 tokenDemand = 0;\n\n        // Iterate each coupon level, and count the token demand to\n        // determine the coupon level which will fulfills the seeked number of bonds\n        for (uint256 i = _minCoupon; i <= _maxCoupon; i++) {\n            // Increase the tokendemand\n            tokenDemand += _bidsPerCoupon[i];\n            // If enough interest at this coupon level, set coupon and break the loop\n            if (tokenDemand >= _numberOfBondsSeeked) {\n                _coupon = i;\n                break;\n            }\n        }\n\n        if (_coupon > 0) {\n            emit CouponSet(_coupon);\n            _coupondefined = true;\n            setInvestroArray();\n        } else {\n            emit CancelBondIssue(tokenDemand, _numberOfBondsSeeked);\n            _cancelled = true;\n        }\n\n        // Refund unsuccessful investors\n        refundBiddersFromCouponLevel(_coupon + 1);\n\n        return _coupon;\n    }\n\n    function setInvestroArray() internal {\n        for (uint256 i = _minCoupon; i <= _coupon; i++) {\n            address[] memory investors = getBiddersAtCoupon(i);\n            for (uint256 j = 0; j < investors.length; j++) {\n                _initialInvestors.push(investors[j]);\n            }\n        }\n    }\n\n    function getBiddersAtCoupon(uint256 coupon)\n        public\n        view\n        returns (address[] memory)\n    {\n        require(\n            coupon >= _minCoupon && coupon <= _maxCoupon,\n            \"Coupon not in range\"\n        );\n        return _investorListAtCouponLevel[coupon];\n    }\n\n    // Function to refund unsuccessful bidders when coupon is defined\n    function refundBiddersFromCouponLevel(uint256 coupon) internal {\n        for (uint256 i = coupon; i <= _maxCoupon; i++) {\n            address[] memory investors = getBiddersAtCoupon(i);\n            for (uint256 j = 0; j < investors.length; j++) {\n                address investor = investors[j];\n                uint256 amount = _bidsPerInvestorAtCouponLevel[investor][i];\n                payable(investor).transfer(_value * amount);\n                emit CoinRefund(investor, amount * _value);\n            }\n        }\n    }\n\n    // Just for testing\n    function getInvestorBalance(address investor)\n        public\n        view\n        returns (uint256)\n    {\n        require(investor != address(0), \"Balance query for the zero address\");\n        return _investedAmountPerInvestor[investor];\n    }\n\n    // Return true if the investment window is open, false otherwise.\n    function biddingWindowisOpen() public view returns (bool) {\n        return block.timestamp <= _bidClosingTime;\n    }\n\n    /**\n     * @dev Function to issue bonds for investors who have registered \n        Assumes all investors will get the requested investment\n        Can be called only when investment window is closed and the contract is unpaused\n     */\n\n    function issueBonds()\n        public\n        onlyWhileBiddingWindowClosed\n        onlyOwner\n    {\n        require(\n            _coupondefined == true,\n            \"can not issue bonds if the coupon has not been defined\"\n        );\n\n        uint256 bondsAvailable = _numberOfBondsSeeked;\n\n        // Go through the investors\n        for (uint256 i = 0; i < _initialInvestors.length; i++) {\n            address investor = _initialInvestors[i];\n            uint256 numberOfBonds = _requestedBondsPerInvestor[investor];\n\n            // If the demanded amount is more than bonds available\n            if (numberOfBonds > bondsAvailable) {\n                // Transfer the value to company\n                _company.transfer(_value * bondsAvailable);\n                _totalDebt += _value * bondsAvailable;\n\n                for (uint256 j = 0; j < bondsAvailable; j++) {\n                    _mint(investor, _bondIdTracker.current());\n                    _bondIdTracker.increment();\n                }\n\n                // Refund extra amount\n                uint256 balance = _investedAmountPerInvestor[investor];\n                _investedAmountPerInvestor[investor] =\n                    balance -\n                    _value *\n                    bondsAvailable;\n                uint256 refund = _investedAmountPerInvestor[investor];\n                payable(investor).transfer(refund);\n                emit CoinRefund(investor, refund);\n\n                // Set bonds available to 0\n                bondsAvailable = 0;\n\n                // Else, fulfill the whole demans\n            } else {\n                _company.transfer(_value * numberOfBonds);\n                _totalDebt += _value * numberOfBonds;\n                for (uint256 j = 0; j < numberOfBonds; j++) {\n                    _mint(investor, _bondIdTracker.current());\n                    _bondIdTracker.increment();\n                }\n                // Update Investor balance to 0\n                _investedAmountPerInvestor[investor] = 0;\n\n                bondsAvailable -= numberOfBonds;\n            }\n        }\n    }\n\n    // Function for the borrowing company to pay coupons\n    function payCoupons() public payable {\n        // Message needs to have enough value for the copupon payments\n        require(\n            msg.sender == _company,\n            \"Coupon payment should come from the borrowing company\"\n        );\n        require(\n            msg.value >= _coupon * _bondIdTracker.current(),\n            \"Not enough coins for coupons\"\n        );\n\n        // Prevents company from paying extra coupons\n        require(\n            _couponsPaid < _totalCouponPayments,\n            \"All coupon payments have already been made\"\n        );\n\n        for (uint256 i = 0; i < _bondIdTracker.current(); i++) {\n            address payable investor = payable(ownerOf(i));\n            investor.transfer(_coupon);\n            emit CouponPayment(investor, i);\n        }\n\n        // Update coupon payment date\n        _actualCouponPaymentDates[_couponsPaid] = block.timestamp;\n        _couponsPaid++;\n\n        // Refund extra coins if paid too much\n        if (msg.value > _coupon * _bondIdTracker.current()) {\n            uint256 extraAmount = msg.value -\n                _coupon *\n                _bondIdTracker.current();\n            payable(msg.sender).transfer(extraAmount);\n            emit CoinRefund(msg.sender, extraAmount);\n        }\n    }\n\n    function couponPaymentMadeOnTime(uint256 coupon)\n        public\n        view\n        returns (bool)\n    {\n        require(\n            coupon >= 1 && coupon <= _totalCouponPayments,\n            \"That coupon does not exists\"\n        );\n        require(\n            block.timestamp > _couponPaymentDates[coupon - 1],\n            \"Coupon not due yet\"\n        );\n\n        if (_actualCouponPaymentDates[coupon - 1] == 0) {\n            return false;\n        }\n        // Coupon payment made before or by the agreed data\n        else if (\n            _actualCouponPaymentDates[coupon - 1] <=\n            _couponPaymentDates[coupon - 1]\n        ) {\n            return true;\n        } else {\n            return false;\n        }\n    }\n\n    // This function should be called by the borrowing company\n    function payBackBond() public payable {\n        require(\n            msg.sender == _company,\n            \"Paying company should be the borrowing company\"\n        );\n        require(\n            msg.value >= _totalDebt,\n            \"Not enough coins to settle the bond at maturity\"\n        );\n\n        // Interate through the bonds\n        uint256 numberOfBonds = _bondIdTracker.current();\n        for (uint256 i = 0; i < numberOfBonds; i++) {\n            address payable investor = payable(ownerOf(i));\n            // Transfer bond from investor to owner\n            bondTransfer(investor, _owner, i);\n            // Return funds\n            investor.transfer(_value);\n            // Decrement the values\n            _totalDebt = _totalDebt - _value;\n            _bondIdTracker.decrement();\n        }\n\n        // Set the payment date\n        _actualPrincipalPaymentDate = block.timestamp;\n\n        // Refund coins there is extra money on the contract\n        if (address(this).balance > 0 && msg.value > _totalDebt) {\n            uint256 extraAmount = msg.value - _totalDebt;\n            if (address(this).balance < extraAmount) {\n                uint256 amount = address(this).balance;\n                payable(msg.sender).transfer(amount);\n                emit CoinRefund(msg.sender, amount);\n            } else {\n                payable(msg.sender).transfer(extraAmount);\n                emit CoinRefund(msg.sender, extraAmount);\n            }\n        }\n    }\n\n    // Checks if the principal amount was paid back on time\n    function principalPaymentMadeOnTime() public view returns (bool) {\n        require(block.timestamp > _maturityDate, \"Bond has not matured yet\");\n        if (_actualPrincipalPaymentDate == 0) {\n            return false;\n        } else if (_actualPrincipalPaymentDate > _maturityDate) {\n            return false;\n        } else {\n            return true;\n        }\n    }\n\n    // Internal function to transer the bonds\n    function bondTransfer(\n        address from,\n        address to,\n        uint256 bondId\n    ) internal {\n        _transfer(from, to, bondId);\n    }\n\n    /**\n     * Function to adjust the coupon\n     */\n    function adjustCoupon(bool increase, uint256 amount) external onlyOwner {\n        uint256 previousCoupon = _coupon;\n        if (increase) {\n            _coupon = _coupon + amount;\n        } else {\n            require(amount <= _coupon, \"Coupon payment can't be negative\");\n            _coupon = _coupon - amount;\n        }\n        emit CouponAdjustment(previousCoupon, _coupon);\n    }\n}\n",
  "sourcePath": "/Users/leena/Documents/Coding/Blockchain_Green_Bonds/testProjects/OZ_test/contracts/GreenBond2.sol",
  "compiler": {
    "name": "solc",
    "version": "0.8.0+commit.c7dfd78e.Emscripten.clang"
  },
  "schemaVersion": "3.4.1",
  "updatedAt": "2021-07-29T12:34:17.442Z",
  "networkType": "ethereum",
  "devdoc": {
    "events": {
      "CoinRefund(address,uint256)": {
        "details": "Emitted when coins are refunded to the investor in case there are too many coins for the investment or to the company if they pay too much  with coupons / principal repayment"
      },
      "CouponAdjustment(uint256,uint256)": {
        "details": "Emmitted when coupon payment is adjusted"
      },
      "CouponPayment(address,uint256)": {
        "details": "Emitted when a coupon payment has been made"
      },
      "Investment(address,uint256,uint256)": {
        "details": "Emitted when an investor registers initial investment request"
      }
    },
    "kind": "dev",
    "methods": {
      "approve(address,uint256)": {
        "details": "See {IERC721-approve}."
      },
      "balanceOf(address)": {
        "details": "See {IERC721-balanceOf}."
      },
      "constructor": {
        "details": "constructor, requires name and symbol for the bond, base URI for metadata, company address, facevalue for one bond / min investment coupon amount, investment window closing time"
      },
      "getApproved(uint256)": {
        "details": "See {IERC721-getApproved}."
      },
      "isApprovedForAll(address,address)": {
        "details": "See {IERC721-isApprovedForAll}."
      },
      "issueBonds()": {
        "details": "Function to issue bonds for investors who have registered  Assumes all investors will get the requested investment Can be called only when investment window is closed and the contract is unpaused"
      },
      "name()": {
        "details": "See {IERC721Metadata-name}."
      },
      "owner()": {
        "details": "Returns the address of the current owner."
      },
      "ownerOf(uint256)": {
        "details": "See {IERC721-ownerOf}."
      },
      "renounceOwnership()": {
        "details": "Leaves the contract without owner. It will not be possible to call `onlyOwner` functions anymore. Can only be called by the current owner. NOTE: Renouncing ownership will leave the contract without an owner, thereby removing any functionality that is only available to the owner."
      },
      "safeTransferFrom(address,address,uint256)": {
        "details": "See {IERC721-safeTransferFrom}."
      },
      "safeTransferFrom(address,address,uint256,bytes)": {
        "details": "See {IERC721-safeTransferFrom}."
      },
      "setApprovalForAll(address,bool)": {
        "details": "See {IERC721-setApprovalForAll}."
      },
      "supportsInterface(bytes4)": {
        "details": "See {IERC165-supportsInterface}."
      },
      "symbol()": {
        "details": "See {IERC721Metadata-symbol}."
      },
      "tokenURI(uint256)": {
        "details": "See {IERC721Metadata-tokenURI}."
      },
      "transferFrom(address,address,uint256)": {
        "details": "See {IERC721-transferFrom}."
      },
      "transferOwnership(address)": {
        "details": "Transfers ownership of the contract to a new account (`newOwner`). Can only be called by the current owner."
      }
    },
    "version": 1
  },
  "userdoc": {
    "kind": "user",
    "methods": {
      "adjustCoupon(bool,uint256)": {
        "notice": "Function to adjust the coupon"
      }
    },
    "version": 1
  }
}