{
  "contractName": "GreenCertificate",
  "abi": [
    {
      "inputs": [
        {
          "internalType": "address",
          "name": "company",
          "type": "address"
        }
      ],
      "stateMutability": "nonpayable",
      "type": "constructor"
    },
    {
      "anonymous": false,
      "inputs": [
        {
          "indexed": false,
          "internalType": "string",
          "name": "name",
          "type": "string"
        },
        {
          "indexed": false,
          "internalType": "uint256",
          "name": "timestamp",
          "type": "uint256"
        }
      ],
      "name": "ProjectAdded",
      "type": "event"
    },
    {
      "anonymous": false,
      "inputs": [
        {
          "indexed": false,
          "internalType": "string",
          "name": "name",
          "type": "string"
        }
      ],
      "name": "ProjectRemoved",
      "type": "event"
    },
    {
      "inputs": [],
      "name": "_company",
      "outputs": [
        {
          "internalType": "address",
          "name": "",
          "type": "address"
        }
      ],
      "stateMutability": "view",
      "type": "function"
    },
    {
      "inputs": [],
      "name": "_owner",
      "outputs": [
        {
          "internalType": "address",
          "name": "",
          "type": "address"
        }
      ],
      "stateMutability": "view",
      "type": "function"
    },
    {
      "inputs": [
        {
          "internalType": "uint256",
          "name": "time",
          "type": "uint256"
        }
      ],
      "name": "setDeadline",
      "outputs": [],
      "stateMutability": "nonpayable",
      "type": "function"
    },
    {
      "inputs": [],
      "name": "getEndDate",
      "outputs": [
        {
          "internalType": "uint256",
          "name": "",
          "type": "uint256"
        }
      ],
      "stateMutability": "view",
      "type": "function"
    },
    {
      "inputs": [
        {
          "internalType": "string",
          "name": "name",
          "type": "string"
        }
      ],
      "name": "addProject",
      "outputs": [],
      "stateMutability": "nonpayable",
      "type": "function"
    },
    {
      "inputs": [
        {
          "internalType": "string",
          "name": "name",
          "type": "string"
        }
      ],
      "name": "removeProject",
      "outputs": [],
      "stateMutability": "nonpayable",
      "type": "function"
    },
    {
      "inputs": [],
      "name": "getCompany",
      "outputs": [
        {
          "internalType": "address",
          "name": "",
          "type": "address"
        }
      ],
      "stateMutability": "view",
      "type": "function"
    },
    {
      "inputs": [
        {
          "internalType": "string",
          "name": "name",
          "type": "string"
        }
      ],
      "name": "isCertifiedProject",
      "outputs": [
        {
          "internalType": "bool",
          "name": "",
          "type": "bool"
        }
      ],
      "stateMutability": "view",
      "type": "function"
    }
  ],
  "bytecode": "0x608060405234801561001057600080fd5b50604051610a21380380610a21833981810160405281019061003291906100ce565b80600160006101000a81548173ffffffffffffffffffffffffffffffffffffffff021916908373ffffffffffffffffffffffffffffffffffffffff160217905550336000806101000a81548173ffffffffffffffffffffffffffffffffffffffff021916908373ffffffffffffffffffffffffffffffffffffffff16021790555050610140565b6000815190506100c881610129565b92915050565b6000602082840312156100e057600080fd5b60006100ee848285016100b9565b91505092915050565b600061010282610109565b9050919050565b600073ffffffffffffffffffffffffffffffffffffffff82169050919050565b610132816100f7565b811461013d57600080fd5b50565b6108d28061014f6000396000f3fe608060405234801561001057600080fd5b50600436106100885760003560e01c8063abb2c89e1161005b578063abb2c89e14610101578063b13564881461011d578063b2bdfa7b1461013b578063ffa673701461015957610088565b80630ed047d41461008d578063127810bc146100a9578063195199f6146100c7578063a4e2a16e146100e3575b600080fd5b6100a760048036038101906100a291906104f2565b610189565b005b6100b1610254565b6040516100be9190610670565b60405180910390f35b6100e160048036038101906100dc9190610533565b61027e565b005b6100eb610323565b6040516100f89190610670565b60405180910390f35b61011b600480360381019061011691906104f2565b610349565b005b610125610412565b6040516101329190610718565b60405180910390f35b61014361041c565b6040516101509190610670565b60405180910390f35b610173600480360381019061016e91906104f2565b610440565b604051610180919061068b565b60405180910390f35b60008054906101000a900473ffffffffffffffffffffffffffffffffffffffff1673ffffffffffffffffffffffffffffffffffffffff163373ffffffffffffffffffffffffffffffffffffffff16146101e157600080fd5b60016003826040516101f39190610659565b908152602001604051809103902060006101000a81548160ff0219169083151502179055507fc3a59c359d661d36347756321a82bedb654fea0beb523f9ae032f5c31190aefa81426040516102499291906106c8565b60405180910390a150565b6000600160009054906101000a900473ffffffffffffffffffffffffffffffffffffffff16905090565b60008054906101000a900473ffffffffffffffffffffffffffffffffffffffff1673ffffffffffffffffffffffffffffffffffffffff163373ffffffffffffffffffffffffffffffffffffffff16146102d657600080fd5b42811015610319576040517f08c379a0000000000000000000000000000000000000000000000000000000008152600401610310906106f8565b60405180910390fd5b8060028190555050565b600160009054906101000a900473ffffffffffffffffffffffffffffffffffffffff1681565b60008054906101000a900473ffffffffffffffffffffffffffffffffffffffff1673ffffffffffffffffffffffffffffffffffffffff163373ffffffffffffffffffffffffffffffffffffffff16146103a157600080fd5b60006003826040516103b39190610659565b908152602001604051809103902060006101000a81548160ff0219169083151502179055507fe38cb434cb7b037ee92b51fc4e5c80fd2986d179adfd3c2537d5a886e537b62f8160405161040791906106a6565b60405180910390a150565b6000600254905090565b60008054906101000a900473ffffffffffffffffffffffffffffffffffffffff1681565b60006003826040516104529190610659565b908152602001604051809103902060009054906101000a900460ff169050919050565b600061048861048384610764565b610733565b9050828152602081018484840111156104a057600080fd5b6104ab848285610803565b509392505050565b600082601f8301126104c457600080fd5b81356104d4848260208601610475565b91505092915050565b6000813590506104ec81610885565b92915050565b60006020828403121561050457600080fd5b600082013567ffffffffffffffff81111561051e57600080fd5b61052a848285016104b3565b91505092915050565b60006020828403121561054557600080fd5b6000610553848285016104dd565b91505092915050565b610565816107bb565b82525050565b610574816107cd565b82525050565b600061058582610794565b61058f818561079f565b935061059f818560208601610812565b6105a881610874565b840191505092915050565b60006105be82610794565b6105c881856107b0565b93506105d8818560208601610812565b80840191505092915050565b60006105f160248361079f565b91507f446561646c696e652074696d65206973206265666f72652063757272656e742060008301527f74696d65000000000000000000000000000000000000000000000000000000006020830152604082019050919050565b610653816107f9565b82525050565b600061066582846105b3565b915081905092915050565b6000602082019050610685600083018461055c565b92915050565b60006020820190506106a0600083018461056b565b92915050565b600060208201905081810360008301526106c0818461057a565b905092915050565b600060408201905081810360008301526106e2818561057a565b90506106f1602083018461064a565b9392505050565b60006020820190508181036000830152610711816105e4565b9050919050565b600060208201905061072d600083018461064a565b92915050565b6000604051905081810181811067ffffffffffffffff8211171561075a57610759610845565b5b8060405250919050565b600067ffffffffffffffff82111561077f5761077e610845565b5b601f19601f8301169050602081019050919050565b600081519050919050565b600082825260208201905092915050565b600081905092915050565b60006107c6826107d9565b9050919050565b60008115159050919050565b600073ffffffffffffffffffffffffffffffffffffffff82169050919050565b6000819050919050565b82818337600083830152505050565b60005b83811015610830578082015181840152602081019050610815565b8381111561083f576000848401525b50505050565b7f4e487b7100000000000000000000000000000000000000000000000000000000600052604160045260246000fd5b6000601f19601f8301169050919050565b61088e816107f9565b811461089957600080fd5b5056fea26469706673582212203f1c47e4da53492a6abc8ad1a6b91d10f40e0739c984b5d1a64566b64b21f67364736f6c63430008000033",
  "immutableReferences": {},
  "source": "// SPDX-License-Identifier: MIT\npragma solidity >=0.6.0;\n\ncontract GreenCertificate {\n\n    event ProjectAdded(string name, uint256 timestamp);\n    event ProjectRemoved(string name);\n\n    // Owner\n    address public _owner;\n\n    // function modifier\n    modifier onlyOwner() {\n        require(msg.sender == _owner);\n        _;\n    }\n\n    // Company address\n    address public _company;\n    uint256 private _endDate;\n\n    // Mapping for certified projects\n    mapping(string => bool) _greenProjects;\n\n    constructor(address company) {\n        _company = company;\n        _owner = msg.sender;\n    }\n\n    function setDeadline(uint256 time) external onlyOwner {\n        require(time >= block.timestamp, \"Deadline time is before current time\");\n        _endDate = time;\n    }\n\n    function getEndDate() public view returns (uint256) {\n        return _endDate;\n    }\n\n    function addProject(string memory name) external onlyOwner {\n        _greenProjects[name] = true;\n        emit ProjectAdded(name, block.timestamp);\n    }\n\n    function removeProject(string memory name) external onlyOwner {\n        _greenProjects[name] = false;\n        emit ProjectRemoved(name);\n    }\n\n    function getCompany() public view returns (address){\n        return _company;\n    }\n\n    function isCertifiedProject(string memory name) public view returns (bool) {\n        return (_greenProjects[name]);\n    }\n\n}",
  "sourcePath": "/Users/leena/Documents/Coding/Blockchain_Green_Bonds/testProjects/OZ_test/contracts/GreenCertificate.sol",
  "compiler": {
    "name": "solc",
    "version": "0.8.0+commit.c7dfd78e.Emscripten.clang"
  },
  "schemaVersion": "3.3.4",
  "updatedAt": "2021-07-08T10:57:27.968Z",
  "networkType": "ethereum",
  "devdoc": {
    "kind": "dev",
    "methods": {},
    "version": 1
  },
  "userdoc": {
    "kind": "user",
    "methods": {},
    "version": 1
  }
}