{
  "contractName": "GreenBond",
  "abi": [
    {
      "inputs": [
        {
          "internalType": "string",
          "name": "name",
          "type": "string"
        },
        {
          "internalType": "string",
          "name": "symbol",
          "type": "string"
        },
        {
          "internalType": "string",
          "name": "baseTokenURI",
          "type": "string"
        },
        {
          "internalType": "address",
          "name": "company",
          "type": "address"
        },
        {
          "internalType": "uint256",
          "name": "value",
          "type": "uint256"
        },
        {
          "internalType": "uint256",
          "name": "coupon",
          "type": "uint256"
        }
      ],
      "stateMutability": "nonpayable",
      "type": "constructor"
    },
    {
      "anonymous": false,
      "inputs": [
        {
          "indexed": true,
          "internalType": "address",
          "name": "owner",
          "type": "address"
        },
        {
          "indexed": true,
          "internalType": "address",
          "name": "approved",
          "type": "address"
        },
        {
          "indexed": true,
          "internalType": "uint256",
          "name": "tokenId",
          "type": "uint256"
        }
      ],
      "name": "Approval",
      "type": "event"
    },
    {
      "anonymous": false,
      "inputs": [
        {
          "indexed": true,
          "internalType": "address",
          "name": "owner",
          "type": "address"
        },
        {
          "indexed": true,
          "internalType": "address",
          "name": "operator",
          "type": "address"
        },
        {
          "indexed": false,
          "internalType": "bool",
          "name": "approved",
          "type": "bool"
        }
      ],
      "name": "ApprovalForAll",
      "type": "event"
    },
    {
      "anonymous": false,
      "inputs": [
        {
          "indexed": false,
          "internalType": "address",
          "name": "investor",
          "type": "address"
        },
        {
          "indexed": false,
          "internalType": "uint256",
          "name": "value",
          "type": "uint256"
        }
      ],
      "name": "CoinRefund",
      "type": "event"
    },
    {
      "anonymous": false,
      "inputs": [
        {
          "indexed": false,
          "internalType": "address",
          "name": "adjuster",
          "type": "address"
        },
        {
          "indexed": false,
          "internalType": "uint256",
          "name": "couponRate",
          "type": "uint256"
        }
      ],
      "name": "CouponAdjustment",
      "type": "event"
    },
    {
      "anonymous": false,
      "inputs": [
        {
          "indexed": false,
          "internalType": "address",
          "name": "investor",
          "type": "address"
        },
        {
          "indexed": false,
          "internalType": "uint256",
          "name": "tokenId",
          "type": "uint256"
        }
      ],
      "name": "CouponPayment",
      "type": "event"
    },
    {
      "anonymous": false,
      "inputs": [
        {
          "indexed": false,
          "internalType": "address",
          "name": "investor",
          "type": "address"
        },
        {
          "indexed": false,
          "internalType": "uint256",
          "name": "value",
          "type": "uint256"
        }
      ],
      "name": "Investment",
      "type": "event"
    },
    {
      "anonymous": false,
      "inputs": [
        {
          "indexed": true,
          "internalType": "address",
          "name": "previousOwner",
          "type": "address"
        },
        {
          "indexed": true,
          "internalType": "address",
          "name": "newOwner",
          "type": "address"
        }
      ],
      "name": "OwnershipTransferred",
      "type": "event"
    },
    {
      "anonymous": false,
      "inputs": [
        {
          "indexed": false,
          "internalType": "address",
          "name": "account",
          "type": "address"
        }
      ],
      "name": "Paused",
      "type": "event"
    },
    {
      "anonymous": false,
      "inputs": [
        {
          "indexed": true,
          "internalType": "bytes32",
          "name": "role",
          "type": "bytes32"
        },
        {
          "indexed": true,
          "internalType": "bytes32",
          "name": "previousAdminRole",
          "type": "bytes32"
        },
        {
          "indexed": true,
          "internalType": "bytes32",
          "name": "newAdminRole",
          "type": "bytes32"
        }
      ],
      "name": "RoleAdminChanged",
      "type": "event"
    },
    {
      "anonymous": false,
      "inputs": [
        {
          "indexed": true,
          "internalType": "bytes32",
          "name": "role",
          "type": "bytes32"
        },
        {
          "indexed": true,
          "internalType": "address",
          "name": "account",
          "type": "address"
        },
        {
          "indexed": true,
          "internalType": "address",
          "name": "sender",
          "type": "address"
        }
      ],
      "name": "RoleGranted",
      "type": "event"
    },
    {
      "anonymous": false,
      "inputs": [
        {
          "indexed": true,
          "internalType": "bytes32",
          "name": "role",
          "type": "bytes32"
        },
        {
          "indexed": true,
          "internalType": "address",
          "name": "account",
          "type": "address"
        },
        {
          "indexed": true,
          "internalType": "address",
          "name": "sender",
          "type": "address"
        }
      ],
      "name": "RoleRevoked",
      "type": "event"
    },
    {
      "anonymous": false,
      "inputs": [
        {
          "indexed": true,
          "internalType": "address",
          "name": "from",
          "type": "address"
        },
        {
          "indexed": true,
          "internalType": "address",
          "name": "to",
          "type": "address"
        },
        {
          "indexed": true,
          "internalType": "uint256",
          "name": "tokenId",
          "type": "uint256"
        }
      ],
      "name": "Transfer",
      "type": "event"
    },
    {
      "anonymous": false,
      "inputs": [
        {
          "indexed": false,
          "internalType": "address",
          "name": "account",
          "type": "address"
        }
      ],
      "name": "Unpaused",
      "type": "event"
    },
    {
      "inputs": [],
      "name": "DEFAULT_ADMIN_ROLE",
      "outputs": [
        {
          "internalType": "bytes32",
          "name": "",
          "type": "bytes32"
        }
      ],
      "stateMutability": "view",
      "type": "function",
      "constant": true
    },
    {
      "inputs": [],
      "name": "MINTER_ROLE",
      "outputs": [
        {
          "internalType": "bytes32",
          "name": "",
          "type": "bytes32"
        }
      ],
      "stateMutability": "view",
      "type": "function",
      "constant": true
    },
    {
      "inputs": [
        {
          "internalType": "address",
          "name": "to",
          "type": "address"
        },
        {
          "internalType": "uint256",
          "name": "tokenId",
          "type": "uint256"
        }
      ],
      "name": "approve",
      "outputs": [],
      "stateMutability": "nonpayable",
      "type": "function"
    },
    {
      "inputs": [
        {
          "internalType": "address",
          "name": "owner",
          "type": "address"
        }
      ],
      "name": "balanceOf",
      "outputs": [
        {
          "internalType": "uint256",
          "name": "",
          "type": "uint256"
        }
      ],
      "stateMutability": "view",
      "type": "function",
      "constant": true
    },
    {
      "inputs": [
        {
          "internalType": "uint256",
          "name": "tokenId",
          "type": "uint256"
        }
      ],
      "name": "getApproved",
      "outputs": [
        {
          "internalType": "address",
          "name": "",
          "type": "address"
        }
      ],
      "stateMutability": "view",
      "type": "function",
      "constant": true
    },
    {
      "inputs": [
        {
          "internalType": "bytes32",
          "name": "role",
          "type": "bytes32"
        }
      ],
      "name": "getRoleAdmin",
      "outputs": [
        {
          "internalType": "bytes32",
          "name": "",
          "type": "bytes32"
        }
      ],
      "stateMutability": "view",
      "type": "function",
      "constant": true
    },
    {
      "inputs": [
        {
          "internalType": "bytes32",
          "name": "role",
          "type": "bytes32"
        },
        {
          "internalType": "uint256",
          "name": "index",
          "type": "uint256"
        }
      ],
      "name": "getRoleMember",
      "outputs": [
        {
          "internalType": "address",
          "name": "",
          "type": "address"
        }
      ],
      "stateMutability": "view",
      "type": "function",
      "constant": true
    },
    {
      "inputs": [
        {
          "internalType": "bytes32",
          "name": "role",
          "type": "bytes32"
        }
      ],
      "name": "getRoleMemberCount",
      "outputs": [
        {
          "internalType": "uint256",
          "name": "",
          "type": "uint256"
        }
      ],
      "stateMutability": "view",
      "type": "function",
      "constant": true
    },
    {
      "inputs": [
        {
          "internalType": "bytes32",
          "name": "role",
          "type": "bytes32"
        },
        {
          "internalType": "address",
          "name": "account",
          "type": "address"
        }
      ],
      "name": "grantRole",
      "outputs": [],
      "stateMutability": "nonpayable",
      "type": "function"
    },
    {
      "inputs": [
        {
          "internalType": "bytes32",
          "name": "role",
          "type": "bytes32"
        },
        {
          "internalType": "address",
          "name": "account",
          "type": "address"
        }
      ],
      "name": "hasRole",
      "outputs": [
        {
          "internalType": "bool",
          "name": "",
          "type": "bool"
        }
      ],
      "stateMutability": "view",
      "type": "function",
      "constant": true
    },
    {
      "inputs": [
        {
          "internalType": "address",
          "name": "owner",
          "type": "address"
        },
        {
          "internalType": "address",
          "name": "operator",
          "type": "address"
        }
      ],
      "name": "isApprovedForAll",
      "outputs": [
        {
          "internalType": "bool",
          "name": "",
          "type": "bool"
        }
      ],
      "stateMutability": "view",
      "type": "function",
      "constant": true
    },
    {
      "inputs": [],
      "name": "name",
      "outputs": [
        {
          "internalType": "string",
          "name": "",
          "type": "string"
        }
      ],
      "stateMutability": "view",
      "type": "function",
      "constant": true
    },
    {
      "inputs": [],
      "name": "owner",
      "outputs": [
        {
          "internalType": "address",
          "name": "",
          "type": "address"
        }
      ],
      "stateMutability": "view",
      "type": "function",
      "constant": true
    },
    {
      "inputs": [
        {
          "internalType": "uint256",
          "name": "tokenId",
          "type": "uint256"
        }
      ],
      "name": "ownerOf",
      "outputs": [
        {
          "internalType": "address",
          "name": "",
          "type": "address"
        }
      ],
      "stateMutability": "view",
      "type": "function",
      "constant": true
    },
    {
      "inputs": [],
      "name": "renounceOwnership",
      "outputs": [],
      "stateMutability": "nonpayable",
      "type": "function"
    },
    {
      "inputs": [
        {
          "internalType": "bytes32",
          "name": "role",
          "type": "bytes32"
        },
        {
          "internalType": "address",
          "name": "account",
          "type": "address"
        }
      ],
      "name": "renounceRole",
      "outputs": [],
      "stateMutability": "nonpayable",
      "type": "function"
    },
    {
      "inputs": [
        {
          "internalType": "bytes32",
          "name": "role",
          "type": "bytes32"
        },
        {
          "internalType": "address",
          "name": "account",
          "type": "address"
        }
      ],
      "name": "revokeRole",
      "outputs": [],
      "stateMutability": "nonpayable",
      "type": "function"
    },
    {
      "inputs": [
        {
          "internalType": "address",
          "name": "from",
          "type": "address"
        },
        {
          "internalType": "address",
          "name": "to",
          "type": "address"
        },
        {
          "internalType": "uint256",
          "name": "tokenId",
          "type": "uint256"
        }
      ],
      "name": "safeTransferFrom",
      "outputs": [],
      "stateMutability": "nonpayable",
      "type": "function"
    },
    {
      "inputs": [
        {
          "internalType": "address",
          "name": "from",
          "type": "address"
        },
        {
          "internalType": "address",
          "name": "to",
          "type": "address"
        },
        {
          "internalType": "uint256",
          "name": "tokenId",
          "type": "uint256"
        },
        {
          "internalType": "bytes",
          "name": "_data",
          "type": "bytes"
        }
      ],
      "name": "safeTransferFrom",
      "outputs": [],
      "stateMutability": "nonpayable",
      "type": "function"
    },
    {
      "inputs": [
        {
          "internalType": "address",
          "name": "operator",
          "type": "address"
        },
        {
          "internalType": "bool",
          "name": "approved",
          "type": "bool"
        }
      ],
      "name": "setApprovalForAll",
      "outputs": [],
      "stateMutability": "nonpayable",
      "type": "function"
    },
    {
      "inputs": [],
      "name": "symbol",
      "outputs": [
        {
          "internalType": "string",
          "name": "",
          "type": "string"
        }
      ],
      "stateMutability": "view",
      "type": "function",
      "constant": true
    },
    {
      "inputs": [
        {
          "internalType": "uint256",
          "name": "tokenId",
          "type": "uint256"
        }
      ],
      "name": "tokenURI",
      "outputs": [
        {
          "internalType": "string",
          "name": "",
          "type": "string"
        }
      ],
      "stateMutability": "view",
      "type": "function",
      "constant": true
    },
    {
      "inputs": [
        {
          "internalType": "address",
          "name": "from",
          "type": "address"
        },
        {
          "internalType": "address",
          "name": "to",
          "type": "address"
        },
        {
          "internalType": "uint256",
          "name": "tokenId",
          "type": "uint256"
        }
      ],
      "name": "transferFrom",
      "outputs": [],
      "stateMutability": "nonpayable",
      "type": "function"
    },
    {
      "inputs": [
        {
          "internalType": "address",
          "name": "newOwner",
          "type": "address"
        }
      ],
      "name": "transferOwnership",
      "outputs": [],
      "stateMutability": "nonpayable",
      "type": "function"
    },
    {
      "inputs": [],
      "name": "getName",
      "outputs": [
        {
          "internalType": "string",
          "name": "",
          "type": "string"
        }
      ],
      "stateMutability": "view",
      "type": "function",
      "constant": true
    },
    {
      "inputs": [
        {
          "internalType": "address",
          "name": "regulator",
          "type": "address"
        }
      ],
      "name": "setRegulator",
      "outputs": [],
      "stateMutability": "nonpayable",
      "type": "function"
    },
    {
      "inputs": [
        {
          "internalType": "address",
          "name": "greenVerifier",
          "type": "address"
        }
      ],
      "name": "setGreenVerifier",
      "outputs": [],
      "stateMutability": "nonpayable",
      "type": "function"
    },
    {
      "inputs": [
        {
          "internalType": "address",
          "name": "investor",
          "type": "address"
        }
      ],
      "name": "getInvestorBalance",
      "outputs": [
        {
          "internalType": "uint256",
          "name": "",
          "type": "uint256"
        }
      ],
      "stateMutability": "view",
      "type": "function",
      "constant": true
    },
    {
      "inputs": [
        {
          "internalType": "bytes4",
          "name": "interfaceId",
          "type": "bytes4"
        }
      ],
      "name": "supportsInterface",
      "outputs": [
        {
          "internalType": "bool",
          "name": "",
          "type": "bool"
        }
      ],
      "stateMutability": "view",
      "type": "function",
      "constant": true
    },
    {
      "inputs": [
        {
          "internalType": "uint256",
          "name": "number",
          "type": "uint256"
        }
      ],
      "name": "registerInvestment",
      "outputs": [],
      "stateMutability": "payable",
      "type": "function",
      "payable": true
    },
    {
      "inputs": [],
      "name": "issueTokens",
      "outputs": [],
      "stateMutability": "nonpayable",
      "type": "function"
    },
    {
      "inputs": [
        {
          "internalType": "uint256",
          "name": "numberOfTokens",
          "type": "uint256"
        },
        {
          "internalType": "address",
          "name": "to",
          "type": "address"
        }
      ],
      "name": "issueTokens",
      "outputs": [],
      "stateMutability": "payable",
      "type": "function",
      "payable": true
    },
    {
      "inputs": [],
      "name": "payCoupons",
      "outputs": [],
      "stateMutability": "payable",
      "type": "function",
      "payable": true
    },
    {
      "inputs": [],
      "name": "payBackBond",
      "outputs": [],
      "stateMutability": "payable",
      "type": "function",
      "payable": true
    },
    {
      "inputs": [],
      "name": "returnTokensAtMaturity",
      "outputs": [],
      "stateMutability": "nonpayable",
      "type": "function"
    },
    {
      "inputs": [],
      "name": "paused",
      "outputs": [
        {
          "internalType": "bool",
          "name": "",
          "type": "bool"
        }
      ],
      "stateMutability": "view",
      "type": "function",
      "constant": true
    },
    {
      "inputs": [],
      "name": "pause",
      "outputs": [],
      "stateMutability": "nonpayable",
      "type": "function"
    },
    {
      "inputs": [],
      "name": "unpause",
      "outputs": [],
      "stateMutability": "nonpayable",
      "type": "function"
    },
    {
      "inputs": [
        {
          "internalType": "bool",
          "name": "increase",
          "type": "bool"
        },
        {
          "internalType": "uint256",
          "name": "amount",
          "type": "uint256"
        }
      ],
      "name": "adjustCoupon",
      "outputs": [],
      "stateMutability": "nonpayable",
      "type": "function"
    }
  ],
  "bytecode": "0x60806040523480156200001157600080fd5b50604051620063273803806200632783398181016040528101906200003791906200065e565b85858160009080519060200190620000519291906200050e565b5080600190805190602001906200006a9291906200050e565b50505060006200007f6200027660201b60201c565b905080600860006101000a81548173ffffffffffffffffffffffffffffffffffffffff021916908373ffffffffffffffffffffffffffffffffffffffff1602179055508073ffffffffffffffffffffffffffffffffffffffff16600073ffffffffffffffffffffffffffffffffffffffff167f8be0079c531659141344cd1fd0a4f28419497f9722a3daafe3b4186f6b6457e060405160405180910390a350600081101562000165576040517f08c379a00000000000000000000000000000000000000000000000000000000081526004016200015c9062000781565b60405180910390fd5b33600d60006101000a81548173ffffffffffffffffffffffffffffffffffffffff021916908373ffffffffffffffffffffffffffffffffffffffff1602179055508360099080519060200190620001be9291906200050e565b5082600e60006101000a81548173ffffffffffffffffffffffffffffffffffffffff021916908373ffffffffffffffffffffffffffffffffffffffff16021790555081601181905550806012819055506000600b60006101000a81548160ff0219169083151502179055506200026a7f9f2df0fed2c77648de5860a4cc508cd0818c85b8b8a1ab4ceeef8d981c8956a66200025e6200027660201b60201c565b6200027e60201b60201c565b50505050505062000957565b600033905090565b620002958282620002c660201b620027571760201c565b620002c18160076000858152602001908152602001600020620002dc60201b620027651790919060201c565b505050565b620002d882826200031460201b60201c565b5050565b60006200030c836000018373ffffffffffffffffffffffffffffffffffffffff1660001b6200040660201b60201c565b905092915050565b6200032682826200048060201b60201c565b620004025760016006600084815260200190815260200160002060000160008373ffffffffffffffffffffffffffffffffffffffff1673ffffffffffffffffffffffffffffffffffffffff16815260200190815260200160002060006101000a81548160ff021916908315150217905550620003a76200027660201b60201c565b73ffffffffffffffffffffffffffffffffffffffff168173ffffffffffffffffffffffffffffffffffffffff16837f2f8788117e7eff1d82e926ec794901d17c78024a50270940304540a733656f0d60405160405180910390a45b5050565b60006200041a8383620004eb60201b60201c565b620004755782600001829080600181540180825580915050600190039060005260206000200160009091909190915055826000018054905083600101600084815260200190815260200160002081905550600190506200047a565b600090505b92915050565b60006006600084815260200190815260200160002060000160008373ffffffffffffffffffffffffffffffffffffffff1673ffffffffffffffffffffffffffffffffffffffff16815260200190815260200160002060009054906101000a900460ff16905092915050565b600080836001016000848152602001908152602001600020541415905092915050565b8280546200051c906200088f565b90600052602060002090601f0160209004810192826200054057600085556200058c565b82601f106200055b57805160ff19168380011785556200058c565b828001600101855582156200058c579182015b828111156200058b5782518255916020019190600101906200056e565b5b5090506200059b91906200059f565b5090565b5b80821115620005ba576000816000905550600101620005a0565b5090565b6000620005d5620005cf84620007d7565b620007a3565b905082815260208101848484011115620005ee57600080fd5b620005fb84828562000859565b509392505050565b600081519050620006148162000923565b92915050565b600082601f8301126200062c57600080fd5b81516200063e848260208601620005be565b91505092915050565b60008151905062000658816200093d565b92915050565b60008060008060008060c087890312156200067857600080fd5b600087015167ffffffffffffffff8111156200069357600080fd5b620006a189828a016200061a565b965050602087015167ffffffffffffffff811115620006bf57600080fd5b620006cd89828a016200061a565b955050604087015167ffffffffffffffff811115620006eb57600080fd5b620006f989828a016200061a565b94505060606200070c89828a0162000603565b93505060806200071f89828a0162000647565b92505060a06200073289828a0162000647565b9150509295509295509295565b60006200074e6020836200080a565b91507f436f75706f6e207061796d656e742063616e2774206265206e656761746976656000830152602082019050919050565b600060208201905081810360008301526200079c816200073f565b9050919050565b6000604051905081810181811067ffffffffffffffff82111715620007cd57620007cc620008f4565b5b8060405250919050565b600067ffffffffffffffff821115620007f557620007f4620008f4565b5b601f19601f8301169050602081019050919050565b600082825260208201905092915050565b600062000828826200082f565b9050919050565b600073ffffffffffffffffffffffffffffffffffffffff82169050919050565b6000819050919050565b60005b83811015620008795780820151818401526020810190506200085c565b8381111562000889576000848401525b50505050565b60006002820490506001821680620008a857607f821691505b60208210811415620008bf57620008be620008c5565b5b50919050565b7f4e487b7100000000000000000000000000000000000000000000000000000000600052602260045260246000fd5b7f4e487b7100000000000000000000000000000000000000000000000000000000600052604160045260246000fd5b6200092e816200081b565b81146200093a57600080fd5b50565b62000948816200084f565b81146200095457600080fd5b50565b6159c080620009676000396000f3fe60806040526004361061022f5760003560e01c806370a082311161012e578063a22cb465116100ab578063d53913931161006f578063d5391393146107c8578063d547741f146107f3578063e985e9c51461081c578063efd8672914610859578063f2fde38b146108825761022f565b8063a22cb465146106d3578063b88d4fde146106fc578063c87b56dd14610725578063ca15c87314610762578063cde0a4f81461079f5761022f565b80638da5cb5b116100f25780638da5cb5b146105d85780639010d07c1461060357806391d148541461064057806395d89b411461067d578063a217fddf146106a85761022f565b806370a0823114610528578063715018a6146105655780637ad5be881461057c5780638456cb59146105985780638a06a364146105af5761022f565b80632f2ff15d116101bc5780634cff6c0e116101805780634cff6c0e146104625780635c975abb1461046c5780635ea639131461049757806360ab5852146104d45780636352211e146104eb5761022f565b80632f2ff15d146103c657806336568abe146103ef5780633f4ba83a1461041857806342842e0e1461042f5780634a513801146104585761022f565b8063095ea7b311610203578063095ea7b3146102f557806317d7de7c1461031e578063191ae47b1461034957806323b872dd14610360578063248a9ca3146103895761022f565b806283db4b1461023457806301ffc9a71461025057806306fdde031461028d578063081812fc146102b8575b600080fd5b61024e600480360381019061024991906141ea565b6108ab565b005b34801561025c57600080fd5b5061027760048036038101906102729190614198565b610a77565b6040516102849190615032565b60405180910390f35b34801561029957600080fd5b506102a2610a89565b6040516102af9190615068565b60405180910390f35b3480156102c457600080fd5b506102df60048036038101906102da91906141ea565b610b1b565b6040516102ec9190614f79565b60405180910390f35b34801561030157600080fd5b5061031c6004803603810190610317919061407f565b610ba0565b005b34801561032a57600080fd5b50610333610cb8565b6040516103409190615068565b60405180910390f35b34801561035557600080fd5b5061035e610cc7565b005b34801561036c57600080fd5b5061038760048036038101906103829190613f79565b610e1b565b005b34801561039557600080fd5b506103b060048036038101906103ab91906140f7565b610e7b565b6040516103bd919061504d565b60405180910390f35b3480156103d257600080fd5b506103ed60048036038101906103e89190614120565b610e9b565b005b3480156103fb57600080fd5b5061041660048036038101906104119190614120565b610ecf565b005b34801561042457600080fd5b5061042d610f03565b005b34801561043b57600080fd5b5061045660048036038101906104519190613f79565b61103d565b005b61046061105d565b005b61046a611170565b005b34801561047857600080fd5b50610481611313565b60405161048e9190615032565b60405180910390f35b3480156104a357600080fd5b506104be60048036038101906104b99190613f14565b61132a565b6040516104cb91906154aa565b60405180910390f35b3480156104e057600080fd5b506104e96113e2565b005b3480156104f757600080fd5b50610512600480360381019061050d91906141ea565b6117cf565b60405161051f9190614f79565b60405180910390f35b34801561053457600080fd5b5061054f600480360381019061054a9190613f14565b611881565b60405161055c91906154aa565b60405180910390f35b34801561057157600080fd5b5061057a611939565b005b61059660048036038101906105919190614213565b611a76565b005b3480156105a457600080fd5b506105ad611ce7565b005b3480156105bb57600080fd5b506105d660048036038101906105d19190613f14565b611e22565b005b3480156105e457600080fd5b506105ed611ee2565b6040516105fa9190614f79565b60405180910390f35b34801561060f57600080fd5b5061062a6004803603810190610625919061415c565b611f0c565b6040516106379190614f79565b60405180910390f35b34801561064c57600080fd5b5061066760048036038101906106629190614120565b611f3b565b6040516106749190615032565b60405180910390f35b34801561068957600080fd5b50610692611fa6565b60405161069f9190615068565b60405180910390f35b3480156106b457600080fd5b506106bd612038565b6040516106ca919061504d565b60405180910390f35b3480156106df57600080fd5b506106fa60048036038101906106f59190614043565b61203f565b005b34801561070857600080fd5b50610723600480360381019061071e9190613fc8565b6121c0565b005b34801561073157600080fd5b5061074c600480360381019061074791906141ea565b612222565b6040516107599190615068565b60405180910390f35b34801561076e57600080fd5b50610789600480360381019061078491906140f7565b6122c9565b60405161079691906154aa565b60405180910390f35b3480156107ab57600080fd5b506107c660048036038101906107c19190613f14565b6122ed565b005b3480156107d457600080fd5b506107dd6123ad565b6040516107ea919061504d565b60405180910390f35b3480156107ff57600080fd5b5061081a60048036038101906108159190614120565b6123d1565b005b34801561082857600080fd5b50610843600480360381019061083e9190613f3d565b612405565b6040516108509190615032565b60405180910390f35b34801561086557600080fd5b50610880600480360381019061087b91906140bb565b612499565b005b34801561088e57600080fd5b506108a960048036038101906108a49190613f14565b6125ab565b005b601154816108b991906155f0565b3410156108fb576040517f08c379a00000000000000000000000000000000000000000000000000000000081526004016108f29061548a565b60405180910390fd5b6000601460003373ffffffffffffffffffffffffffffffffffffffff1673ffffffffffffffffffffffffffffffffffffffff1681526020019081526020016000205414156109a757600c339080600181540180825580915050600190039060005260206000200160009091909190916101000a81548173ffffffffffffffffffffffffffffffffffffffff021916908373ffffffffffffffffffffffffffffffffffffffff1602179055505b6000601460003373ffffffffffffffffffffffffffffffffffffffff1673ffffffffffffffffffffffffffffffffffffffff16815260200190815260200160002054905034816109f79190615569565b601460003373ffffffffffffffffffffffffffffffffffffffff1673ffffffffffffffffffffffffffffffffffffffff168152602001908152602001600020819055507ffe123a1efb6782dccd20e9790951adcfab3cd0e11b85a6f06d8b9222d299a0a33334604051610a6b929190615009565b60405180910390a15050565b6000610a8282612795565b9050919050565b606060008054610a989061579e565b80601f0160208091040260200160405190810160405280929190818152602001828054610ac49061579e565b8015610b115780601f10610ae657610100808354040283529160200191610b11565b820191906000526020600020905b815481529060010190602001808311610af457829003601f168201915b5050505050905090565b6000610b268261280f565b610b65576040517f08c379a0000000000000000000000000000000000000000000000000000000008152600401610b5c9061534a565b60405180910390fd5b6004600083815260200190815260200160002060009054906101000a900473ffffffffffffffffffffffffffffffffffffffff169050919050565b6000610bab826117cf565b90508073ffffffffffffffffffffffffffffffffffffffff168373ffffffffffffffffffffffffffffffffffffffff161415610c1c576040517f08c379a0000000000000000000000000000000000000000000000000000000008152600401610c13906153ea565b60405180910390fd5b8073ffffffffffffffffffffffffffffffffffffffff16610c3b61287b565b73ffffffffffffffffffffffffffffffffffffffff161480610c6a5750610c6981610c6461287b565b612405565b5b610ca9576040517f08c379a0000000000000000000000000000000000000000000000000000000008152600401610ca0906152ca565b60405180910390fd5b610cb38383612883565b505050565b6060610cc2610a89565b905090565b610ccf61287b565b73ffffffffffffffffffffffffffffffffffffffff16610ced611ee2565b73ffffffffffffffffffffffffffffffffffffffff1614610d43576040517f08c379a0000000000000000000000000000000000000000000000000000000008152600401610d3a9061536a565b60405180910390fd5b601354471015610d88576040517f08c379a0000000000000000000000000000000000000000000000000000000008152600401610d7f906151aa565b60405180910390fd5b60005b610d95600a61293c565b811015610e18576000610da7826117cf565b9050610dbb81610db5611ee2565b8461294a565b8073ffffffffffffffffffffffffffffffffffffffff166108fc6011549081150290604051600060405180830381858888f19350505050158015610e03573d6000803e3d6000fd5b50508080610e10906157d0565b915050610d8b565b50565b610e2c610e2661287b565b8261295a565b610e6b576040517f08c379a0000000000000000000000000000000000000000000000000000000008152600401610e629061542a565b60405180910390fd5b610e76838383612a38565b505050565b600060066000838152602001908152602001600020600101549050919050565b610ea58282612c94565b610eca816007600085815260200190815260200160002061276590919063ffffffff16565b505050565b610ed98282612cbd565b610efe8160076000858152602001908152602001600020612d4090919063ffffffff16565b505050565b600b60009054906101000a900460ff16610f52576040517f08c379a0000000000000000000000000000000000000000000000000000000008152600401610f49906150ca565b60405180910390fd5b600f60009054906101000a900473ffffffffffffffffffffffffffffffffffffffff1673ffffffffffffffffffffffffffffffffffffffff163373ffffffffffffffffffffffffffffffffffffffff1614610fe2576040517f08c379a0000000000000000000000000000000000000000000000000000000008152600401610fd99061514a565b60405180910390fd5b6000600b60006101000a81548160ff0219169083151502179055507f5db9ee0a495bf2e6ff9c91a7834c1ba4fdd244a5e8aa4e537bd38aeae4b073aa61102661287b565b6040516110339190614f79565b60405180910390a1565b611058838383604051806020016040528060008152506121c0565b505050565b611067600a61293c565b60125461107491906155f0565b3410156110b6576040517f08c379a00000000000000000000000000000000000000000000000000000000081526004016110ad9061540a565b60405180910390fd5b60005b6110c3600a61293c565b81101561116d5760006110d5826117cf565b90508073ffffffffffffffffffffffffffffffffffffffff166108fc6012549081150290604051600060405180830381858888f1935050505015801561111f573d6000803e3d6000fd5b507fb3224bc7c2e6157092b5f650cc8b06e5f0c34d8218b6e9a1a5a39c2e43706e408183604051611151929190614f94565b60405180910390a1508080611165906157d0565b9150506110b9565b50565b600e60009054906101000a900473ffffffffffffffffffffffffffffffffffffffff1673ffffffffffffffffffffffffffffffffffffffff163373ffffffffffffffffffffffffffffffffffffffff1614611200576040517f08c379a00000000000000000000000000000000000000000000000000000000081526004016111f79061520a565b60405180910390fd5b601354341015611245576040517f08c379a000000000000000000000000000000000000000000000000000000000815260040161123c9061544a565b60405180910390fd5b60005b611252600a61293c565b811015611310576000611264826117cf565b905061129381600d60009054906101000a900473ffffffffffffffffffffffffffffffffffffffff168461294a565b8073ffffffffffffffffffffffffffffffffffffffff166108fc6011549081150290604051600060405180830381858888f193505050501580156112db573d6000803e3d6000fd5b506011546013546112ec919061564a565b6013819055506112fc600a612d70565b508080611308906157d0565b915050611248565b50565b6000600b60009054906101000a900460ff16905090565b60008073ffffffffffffffffffffffffffffffffffffffff168273ffffffffffffffffffffffffffffffffffffffff16141561139b576040517f08c379a00000000000000000000000000000000000000000000000000000000081526004016113929061538a565b60405180910390fd5b601460008373ffffffffffffffffffffffffffffffffffffffff1673ffffffffffffffffffffffffffffffffffffffff168152602001908152602001600020549050919050565b6114137f9f2df0fed2c77648de5860a4cc508cd0818c85b8b8a1ab4ceeef8d981c8956a661140e61287b565b611f3b565b611452576040517f08c379a0000000000000000000000000000000000000000000000000000000008152600401611449906150ea565b60405180910390fd5b60005b600c805490508110156117cc576000600c828154811061149e577f4e487b7100000000000000000000000000000000000000000000000000000000600052603260045260246000fd5b9060005260206000200160009054906101000a900473ffffffffffffffffffffffffffffffffffffffff1690506000601154601460008473ffffffffffffffffffffffffffffffffffffffff1673ffffffffffffffffffffffffffffffffffffffff1681526020019081526020016000205461151a91906155bf565b9050600e60009054906101000a900473ffffffffffffffffffffffffffffffffffffffff1673ffffffffffffffffffffffffffffffffffffffff166108fc8260115461156691906155f0565b9081150290604051600060405180830381858888f19350505050158015611591573d6000803e3d6000fd5b50601154816115a091906155f0565b601460008473ffffffffffffffffffffffffffffffffffffffff1673ffffffffffffffffffffffffffffffffffffffff168152602001908152602001600020541115611715578173ffffffffffffffffffffffffffffffffffffffff166108fc6011548361160e91906155f0565b601460008673ffffffffffffffffffffffffffffffffffffffff1673ffffffffffffffffffffffffffffffffffffffff16815260200190815260200160002054611658919061564a565b9081150290604051600060405180830381858888f19350505050158015611683573d6000803e3d6000fd5b507f2ee76d0c8417fef3c9f68663d321eb1c1ed0e089b5298177f0582aeadb6fd91f82601154836116b491906155f0565b601460008673ffffffffffffffffffffffffffffffffffffffff1673ffffffffffffffffffffffffffffffffffffffff168152602001908152602001600020546116fe919061564a565b60405161170c929190615009565b60405180910390a15b6000601460008473ffffffffffffffffffffffffffffffffffffffff1673ffffffffffffffffffffffffffffffffffffffff168152602001908152602001600020819055508060115461176891906155f0565b6013546117759190615569565b60138190555060005b818110156117b65761179983611794600a61293c565b612dcc565b6117a3600a612f9a565b80806117ae906157d0565b91505061177e565b50505080806117c4906157d0565b915050611455565b50565b6000806002600084815260200190815260200160002060009054906101000a900473ffffffffffffffffffffffffffffffffffffffff169050600073ffffffffffffffffffffffffffffffffffffffff168173ffffffffffffffffffffffffffffffffffffffff161415611878576040517f08c379a000000000000000000000000000000000000000000000000000000000815260040161186f9061530a565b60405180910390fd5b80915050919050565b60008073ffffffffffffffffffffffffffffffffffffffff168273ffffffffffffffffffffffffffffffffffffffff1614156118f2576040517f08c379a00000000000000000000000000000000000000000000000000000000081526004016118e9906152ea565b60405180910390fd5b600360008373ffffffffffffffffffffffffffffffffffffffff1673ffffffffffffffffffffffffffffffffffffffff168152602001908152602001600020549050919050565b61194161287b565b73ffffffffffffffffffffffffffffffffffffffff1661195f611ee2565b73ffffffffffffffffffffffffffffffffffffffff16146119b5576040517f08c379a00000000000000000000000000000000000000000000000000000000081526004016119ac9061536a565b60405180910390fd5b600073ffffffffffffffffffffffffffffffffffffffff16600860009054906101000a900473ffffffffffffffffffffffffffffffffffffffff1673ffffffffffffffffffffffffffffffffffffffff167f8be0079c531659141344cd1fd0a4f28419497f9722a3daafe3b4186f6b6457e060405160405180910390a36000600860006101000a81548173ffffffffffffffffffffffffffffffffffffffff021916908373ffffffffffffffffffffffffffffffffffffffff160217905550565b611aa77f9f2df0fed2c77648de5860a4cc508cd0818c85b8b8a1ab4ceeef8d981c8956a6611aa261287b565b611f3b565b611ae6576040517f08c379a0000000000000000000000000000000000000000000000000000000008152600401611add906150ea565b60405180910390fd5b60115482611af491906155f0565b601460008373ffffffffffffffffffffffffffffffffffffffff1673ffffffffffffffffffffffffffffffffffffffff168152602001908152602001600020541015611b75576040517f08c379a0000000000000000000000000000000000000000000000000000000008152600401611b6c9061526a565b60405180910390fd5b600e60009054906101000a900473ffffffffffffffffffffffffffffffffffffffff1673ffffffffffffffffffffffffffffffffffffffff166108fc83601154611bbf91906155f0565b9081150290604051600060405180830381858888f19350505050158015611bea573d6000803e3d6000fd5b5060115482611bf991906155f0565b601460008373ffffffffffffffffffffffffffffffffffffffff1673ffffffffffffffffffffffffffffffffffffffff16815260200190815260200160002054611c43919061564a565b601460008373ffffffffffffffffffffffffffffffffffffffff1673ffffffffffffffffffffffffffffffffffffffff1681526020019081526020016000208190555060115482611c9491906155f0565b601354611ca19190615569565b60138190555060005b82811015611ce257611cc582611cc0600a61293c565b612dcc565b611ccf600a612f9a565b8080611cda906157d0565b915050611caa565b505050565b600b60009054906101000a900460ff1615611d37576040517f08c379a0000000000000000000000000000000000000000000000000000000008152600401611d2e9061528a565b60405180910390fd5b600f60009054906101000a900473ffffffffffffffffffffffffffffffffffffffff1673ffffffffffffffffffffffffffffffffffffffff163373ffffffffffffffffffffffffffffffffffffffff1614611dc7576040517f08c379a0000000000000000000000000000000000000000000000000000000008152600401611dbe906152aa565b60405180910390fd5b6001600b60006101000a81548160ff0219169083151502179055507f62e78cea01bee320cd4e420270b5ea74000d11b0c9f74754ebdbfc544b05a258611e0b61287b565b604051611e189190614f79565b60405180910390a1565b611e2a61287b565b73ffffffffffffffffffffffffffffffffffffffff16611e48611ee2565b73ffffffffffffffffffffffffffffffffffffffff1614611e9e576040517f08c379a0000000000000000000000000000000000000000000000000000000008152600401611e959061536a565b60405180910390fd5b80601060006101000a81548173ffffffffffffffffffffffffffffffffffffffff021916908373ffffffffffffffffffffffffffffffffffffffff16021790555050565b6000600860009054906101000a900473ffffffffffffffffffffffffffffffffffffffff16905090565b6000611f338260076000868152602001908152602001600020612fb090919063ffffffff16565b905092915050565b60006006600084815260200190815260200160002060000160008373ffffffffffffffffffffffffffffffffffffffff1673ffffffffffffffffffffffffffffffffffffffff16815260200190815260200160002060009054906101000a900460ff16905092915050565b606060018054611fb59061579e565b80601f0160208091040260200160405190810160405280929190818152602001828054611fe19061579e565b801561202e5780601f106120035761010080835404028352916020019161202e565b820191906000526020600020905b81548152906001019060200180831161201157829003601f168201915b5050505050905090565b6000801b81565b61204761287b565b73ffffffffffffffffffffffffffffffffffffffff168273ffffffffffffffffffffffffffffffffffffffff1614156120b5576040517f08c379a00000000000000000000000000000000000000000000000000000000081526004016120ac906151ea565b60405180910390fd5b80600560006120c261287b565b73ffffffffffffffffffffffffffffffffffffffff1673ffffffffffffffffffffffffffffffffffffffff16815260200190815260200160002060008473ffffffffffffffffffffffffffffffffffffffff1673ffffffffffffffffffffffffffffffffffffffff16815260200190815260200160002060006101000a81548160ff0219169083151502179055508173ffffffffffffffffffffffffffffffffffffffff1661216f61287b565b73ffffffffffffffffffffffffffffffffffffffff167f17307eab39ab6107e8899845ad3d59bd9653f200f220920489ca2b5937696c31836040516121b49190615032565b60405180910390a35050565b6121d16121cb61287b565b8361295a565b612210576040517f08c379a00000000000000000000000000000000000000000000000000000000081526004016122079061542a565b60405180910390fd5b61221c84848484612fca565b50505050565b606061222d8261280f565b61226c576040517f08c379a0000000000000000000000000000000000000000000000000000000008152600401612263906153ca565b60405180910390fd5b6000612276613026565b9050600081511161229657604051806020016040528060008152506122c1565b806122a0846130b8565b6040516020016122b1929190614f1b565b6040516020818303038152906040525b915050919050565b60006122e660076000848152602001908152602001600020613265565b9050919050565b6122f561287b565b73ffffffffffffffffffffffffffffffffffffffff16612313611ee2565b73ffffffffffffffffffffffffffffffffffffffff1614612369576040517f08c379a00000000000000000000000000000000000000000000000000000000081526004016123609061536a565b60405180910390fd5b80600f60006101000a81548173ffffffffffffffffffffffffffffffffffffffff021916908373ffffffffffffffffffffffffffffffffffffffff16021790555050565b7f9f2df0fed2c77648de5860a4cc508cd0818c85b8b8a1ab4ceeef8d981c8956a681565b6123db828261327a565b6124008160076000858152602001908152602001600020612d4090919063ffffffff16565b505050565b6000600560008473ffffffffffffffffffffffffffffffffffffffff1673ffffffffffffffffffffffffffffffffffffffff16815260200190815260200160002060008373ffffffffffffffffffffffffffffffffffffffff1673ffffffffffffffffffffffffffffffffffffffff16815260200190815260200160002060009054906101000a900460ff16905092915050565b601060009054906101000a900473ffffffffffffffffffffffffffffffffffffffff1673ffffffffffffffffffffffffffffffffffffffff163373ffffffffffffffffffffffffffffffffffffffff16146124f357600080fd5b811561251257806012546125079190615569565b60128190555061256c565b601254811115612557576040517f08c379a000000000000000000000000000000000000000000000000000000000815260040161254e9061522a565b60405180910390fd5b80601254612565919061564a565b6012819055505b7fca1d6283d1b481c7291c2fc81205d98456d1c2948caa5f9460dd3e35ca34e4163360125460405161259f929190615009565b60405180910390a15050565b6125b361287b565b73ffffffffffffffffffffffffffffffffffffffff166125d1611ee2565b73ffffffffffffffffffffffffffffffffffffffff1614612627576040517f08c379a000000000000000000000000000000000000000000000000000000000815260040161261e9061536a565b60405180910390fd5b600073ffffffffffffffffffffffffffffffffffffffff168173ffffffffffffffffffffffffffffffffffffffff161415612697576040517f08c379a000000000000000000000000000000000000000000000000000000000815260040161268e9061516a565b60405180910390fd5b8073ffffffffffffffffffffffffffffffffffffffff16600860009054906101000a900473ffffffffffffffffffffffffffffffffffffffff1673ffffffffffffffffffffffffffffffffffffffff167f8be0079c531659141344cd1fd0a4f28419497f9722a3daafe3b4186f6b6457e060405160405180910390a380600860006101000a81548173ffffffffffffffffffffffffffffffffffffffff021916908373ffffffffffffffffffffffffffffffffffffffff16021790555050565b61276182826132a3565b5050565b600061278d836000018373ffffffffffffffffffffffffffffffffffffffff1660001b613384565b905092915050565b60007f5a05180f000000000000000000000000000000000000000000000000000000007bffffffffffffffffffffffffffffffffffffffffffffffffffffffff1916827bffffffffffffffffffffffffffffffffffffffffffffffffffffffff191614806128085750612807826133f4565b5b9050919050565b60008073ffffffffffffffffffffffffffffffffffffffff166002600084815260200190815260200160002060009054906101000a900473ffffffffffffffffffffffffffffffffffffffff1673ffffffffffffffffffffffffffffffffffffffff1614159050919050565b600033905090565b816004600083815260200190815260200160002060006101000a81548173ffffffffffffffffffffffffffffffffffffffff021916908373ffffffffffffffffffffffffffffffffffffffff160217905550808273ffffffffffffffffffffffffffffffffffffffff166128f6836117cf565b73ffffffffffffffffffffffffffffffffffffffff167f8c5be1e5ebec7d5bd14f71427d1e84f3dd0314c0f7b2291e5b200ac8c7c3b92560405160405180910390a45050565b600081600001549050919050565b612955838383612a38565b505050565b60006129658261280f565b6129a4576040517f08c379a000000000000000000000000000000000000000000000000000000000815260040161299b9061524a565b60405180910390fd5b60006129af836117cf565b90508073ffffffffffffffffffffffffffffffffffffffff168473ffffffffffffffffffffffffffffffffffffffff161480612a1e57508373ffffffffffffffffffffffffffffffffffffffff16612a0684610b1b565b73ffffffffffffffffffffffffffffffffffffffff16145b80612a2f5750612a2e8185612405565b5b91505092915050565b8273ffffffffffffffffffffffffffffffffffffffff16612a58826117cf565b73ffffffffffffffffffffffffffffffffffffffff1614612aae576040517f08c379a0000000000000000000000000000000000000000000000000000000008152600401612aa5906153aa565b60405180910390fd5b600073ffffffffffffffffffffffffffffffffffffffff168273ffffffffffffffffffffffffffffffffffffffff161415612b1e576040517f08c379a0000000000000000000000000000000000000000000000000000000008152600401612b15906151ca565b60405180910390fd5b612b2983838361346e565b612b34600082612883565b6001600360008573ffffffffffffffffffffffffffffffffffffffff1673ffffffffffffffffffffffffffffffffffffffff1681526020019081526020016000206000828254612b84919061564a565b925050819055506001600360008473ffffffffffffffffffffffffffffffffffffffff1673ffffffffffffffffffffffffffffffffffffffff1681526020019081526020016000206000828254612bdb9190615569565b92505081905550816002600083815260200190815260200160002060006101000a81548173ffffffffffffffffffffffffffffffffffffffff021916908373ffffffffffffffffffffffffffffffffffffffff160217905550808273ffffffffffffffffffffffffffffffffffffffff168473ffffffffffffffffffffffffffffffffffffffff167fddf252ad1be2c89b69c2b068fc378daa952ba7f163c4a11628f55a4df523b3ef60405160405180910390a4505050565b612c9d82610e7b565b612cae81612ca961287b565b613473565b612cb883836132a3565b505050565b612cc561287b565b73ffffffffffffffffffffffffffffffffffffffff168173ffffffffffffffffffffffffffffffffffffffff1614612d32576040517f08c379a0000000000000000000000000000000000000000000000000000000008152600401612d299061546a565b60405180910390fd5b612d3c8282613510565b5050565b6000612d68836000018373ffffffffffffffffffffffffffffffffffffffff1660001b6135f2565b905092915050565b60008160000154905060008111612dbc576040517f08c379a0000000000000000000000000000000000000000000000000000000008152600401612db39061510a565b60405180910390fd5b6001810382600001819055505050565b600073ffffffffffffffffffffffffffffffffffffffff168273ffffffffffffffffffffffffffffffffffffffff161415612e3c576040517f08c379a0000000000000000000000000000000000000000000000000000000008152600401612e339061532a565b60405180910390fd5b612e458161280f565b15612e85576040517f08c379a0000000000000000000000000000000000000000000000000000000008152600401612e7c9061518a565b60405180910390fd5b612e916000838361346e565b6001600360008473ffffffffffffffffffffffffffffffffffffffff1673ffffffffffffffffffffffffffffffffffffffff1681526020019081526020016000206000828254612ee19190615569565b92505081905550816002600083815260200190815260200160002060006101000a81548173ffffffffffffffffffffffffffffffffffffffff021916908373ffffffffffffffffffffffffffffffffffffffff160217905550808273ffffffffffffffffffffffffffffffffffffffff16600073ffffffffffffffffffffffffffffffffffffffff167fddf252ad1be2c89b69c2b068fc378daa952ba7f163c4a11628f55a4df523b3ef60405160405180910390a45050565b6001816000016000828254019250508190555050565b6000612fbf8360000183613770565b60001c905092915050565b612fd5848484612a38565b612fe18484848461380a565b613020576040517f08c379a00000000000000000000000000000000000000000000000000000000081526004016130179061512a565b60405180910390fd5b50505050565b6060600980546130359061579e565b80601f01602080910402602001604051908101604052809291908181526020018280546130619061579e565b80156130ae5780601f10613083576101008083540402835291602001916130ae565b820191906000526020600020905b81548152906001019060200180831161309157829003601f168201915b5050505050905090565b60606000821415613100576040518060400160405280600181526020017f30000000000000000000000000000000000000000000000000000000000000008152509050613260565b600082905060005b6000821461313257808061311b906157d0565b915050600a8261312b91906155bf565b9150613108565b60008167ffffffffffffffff811115613174577f4e487b7100000000000000000000000000000000000000000000000000000000600052604160045260246000fd5b6040519080825280601f01601f1916602001820160405280156131a65781602001600182028036833780820191505090505b5090505b60008514613259576001826131bf919061564a565b9150600a856131ce9190615819565b60306131da9190615569565b60f81b818381518110613216577f4e487b7100000000000000000000000000000000000000000000000000000000600052603260045260246000fd5b60200101907effffffffffffffffffffffffffffffffffffffffffffffffffffffffffffff1916908160001a905350600a8561325291906155bf565b94506131aa565b8093505050505b919050565b6000613273826000016139a1565b9050919050565b61328382610e7b565b6132948161328f61287b565b613473565b61329e8383613510565b505050565b6132ad8282611f3b565b6133805760016006600084815260200190815260200160002060000160008373ffffffffffffffffffffffffffffffffffffffff1673ffffffffffffffffffffffffffffffffffffffff16815260200190815260200160002060006101000a81548160ff02191690831515021790555061332561287b565b73ffffffffffffffffffffffffffffffffffffffff168173ffffffffffffffffffffffffffffffffffffffff16837f2f8788117e7eff1d82e926ec794901d17c78024a50270940304540a733656f0d60405160405180910390a45b5050565b600061339083836139b2565b6133e95782600001829080600181540180825580915050600190039060005260206000200160009091909190915055826000018054905083600101600084815260200190815260200160002081905550600190506133ee565b600090505b92915050565b60007f7965db0b000000000000000000000000000000000000000000000000000000007bffffffffffffffffffffffffffffffffffffffffffffffffffffffff1916827bffffffffffffffffffffffffffffffffffffffffffffffffffffffff191614806134675750613466826139d5565b5b9050919050565b505050565b61347d8282611f3b565b61350c576134a28173ffffffffffffffffffffffffffffffffffffffff166014613ab7565b6134b08360001c6020613ab7565b6040516020016134c1929190614f3f565b6040516020818303038152906040526040517f08c379a00000000000000000000000000000000000000000000000000000000081526004016135039190615068565b60405180910390fd5b5050565b61351a8282611f3b565b156135ee5760006006600084815260200190815260200160002060000160008373ffffffffffffffffffffffffffffffffffffffff1673ffffffffffffffffffffffffffffffffffffffff16815260200190815260200160002060006101000a81548160ff02191690831515021790555061359361287b565b73ffffffffffffffffffffffffffffffffffffffff168173ffffffffffffffffffffffffffffffffffffffff16837ff6391f5c32d9c69d2a47ea670b442974b53935d1edc7fd64eb21e047a839171b60405160405180910390a45b5050565b60008083600101600084815260200190815260200160002054905060008114613764576000600182613624919061564a565b905060006001866000018054905061363c919061564a565b9050600086600001828154811061367c577f4e487b7100000000000000000000000000000000000000000000000000000000600052603260045260246000fd5b90600052602060002001549050808760000184815481106136c6577f4e487b7100000000000000000000000000000000000000000000000000000000600052603260045260246000fd5b9060005260206000200181905550838760010160008381526020019081526020016000208190555086600001805480613728577f4e487b7100000000000000000000000000000000000000000000000000000000600052603160045260246000fd5b6001900381819060005260206000200160009055905586600101600087815260200190815260200160002060009055600194505050505061376a565b60009150505b92915050565b6000818360000180549050116137bb576040517f08c379a00000000000000000000000000000000000000000000000000000000081526004016137b29061508a565b60405180910390fd5b8260000182815481106137f7577f4e487b7100000000000000000000000000000000000000000000000000000000600052603260045260246000fd5b9060005260206000200154905092915050565b600061382b8473ffffffffffffffffffffffffffffffffffffffff16613db1565b15613994578373ffffffffffffffffffffffffffffffffffffffff1663150b7a0261385461287b565b8786866040518563ffffffff1660e01b81526004016138769493929190614fbd565b602060405180830381600087803b15801561389057600080fd5b505af19250505080156138c157506040513d601f19601f820116820180604052508101906138be91906141c1565b60015b613944573d80600081146138f1576040519150601f19603f3d011682016040523d82523d6000602084013e6138f6565b606091505b5060008151141561393c576040517f08c379a00000000000000000000000000000000000000000000000000000000081526004016139339061512a565b60405180910390fd5b805181602001fd5b63150b7a0260e01b7bffffffffffffffffffffffffffffffffffffffffffffffffffffffff1916817bffffffffffffffffffffffffffffffffffffffffffffffffffffffff191614915050613999565b600190505b949350505050565b600081600001805490509050919050565b600080836001016000848152602001908152602001600020541415905092915050565b60007f80ac58cd000000000000000000000000000000000000000000000000000000007bffffffffffffffffffffffffffffffffffffffffffffffffffffffff1916827bffffffffffffffffffffffffffffffffffffffffffffffffffffffff19161480613aa057507f5b5e139f000000000000000000000000000000000000000000000000000000007bffffffffffffffffffffffffffffffffffffffffffffffffffffffff1916827bffffffffffffffffffffffffffffffffffffffffffffffffffffffff1916145b80613ab05750613aaf82613dc4565b5b9050919050565b606060006002836002613aca91906155f0565b613ad49190615569565b67ffffffffffffffff811115613b13577f4e487b7100000000000000000000000000000000000000000000000000000000600052604160045260246000fd5b6040519080825280601f01601f191660200182016040528015613b455781602001600182028036833780820191505090505b5090507f300000000000000000000000000000000000000000000000000000000000000081600081518110613ba3577f4e487b7100000000000000000000000000000000000000000000000000000000600052603260045260246000fd5b60200101907effffffffffffffffffffffffffffffffffffffffffffffffffffffffffffff1916908160001a9053507f780000000000000000000000000000000000000000000000000000000000000081600181518110613c2d577f4e487b7100000000000000000000000000000000000000000000000000000000600052603260045260246000fd5b60200101907effffffffffffffffffffffffffffffffffffffffffffffffffffffffffffff1916908160001a90535060006001846002613c6d91906155f0565b613c779190615569565b90505b6001811115613d63577f3031323334353637383961626364656600000000000000000000000000000000600f861660108110613cdf577f4e487b7100000000000000000000000000000000000000000000000000000000600052603260045260246000fd5b1a60f81b828281518110613d1c577f4e487b7100000000000000000000000000000000000000000000000000000000600052603260045260246000fd5b60200101907effffffffffffffffffffffffffffffffffffffffffffffffffffffffffffff1916908160001a905350600485901c945080613d5c90615774565b9050613c7a565b5060008414613da7576040517f08c379a0000000000000000000000000000000000000000000000000000000008152600401613d9e906150aa565b60405180910390fd5b8091505092915050565b600080823b905060008111915050919050565b60007f01ffc9a7000000000000000000000000000000000000000000000000000000007bffffffffffffffffffffffffffffffffffffffffffffffffffffffff1916827bffffffffffffffffffffffffffffffffffffffffffffffffffffffff1916149050919050565b6000613e41613e3c846154f6565b6154c5565b905082815260208101848484011115613e5957600080fd5b613e64848285615732565b509392505050565b600081359050613e7b81615917565b92915050565b600081359050613e908161592e565b92915050565b600081359050613ea581615945565b92915050565b600081359050613eba8161595c565b92915050565b600081519050613ecf8161595c565b92915050565b600082601f830112613ee657600080fd5b8135613ef6848260208601613e2e565b91505092915050565b600081359050613f0e81615973565b92915050565b600060208284031215613f2657600080fd5b6000613f3484828501613e6c565b91505092915050565b60008060408385031215613f5057600080fd5b6000613f5e85828601613e6c565b9250506020613f6f85828601613e6c565b9150509250929050565b600080600060608486031215613f8e57600080fd5b6000613f9c86828701613e6c565b9350506020613fad86828701613e6c565b9250506040613fbe86828701613eff565b9150509250925092565b60008060008060808587031215613fde57600080fd5b6000613fec87828801613e6c565b9450506020613ffd87828801613e6c565b935050604061400e87828801613eff565b925050606085013567ffffffffffffffff81111561402b57600080fd5b61403787828801613ed5565b91505092959194509250565b6000806040838503121561405657600080fd5b600061406485828601613e6c565b925050602061407585828601613e81565b9150509250929050565b6000806040838503121561409257600080fd5b60006140a085828601613e6c565b92505060206140b185828601613eff565b9150509250929050565b600080604083850312156140ce57600080fd5b60006140dc85828601613e81565b92505060206140ed85828601613eff565b9150509250929050565b60006020828403121561410957600080fd5b600061411784828501613e96565b91505092915050565b6000806040838503121561413357600080fd5b600061414185828601613e96565b925050602061415285828601613e6c565b9150509250929050565b6000806040838503121561416f57600080fd5b600061417d85828601613e96565b925050602061418e85828601613eff565b9150509250929050565b6000602082840312156141aa57600080fd5b60006141b884828501613eab565b91505092915050565b6000602082840312156141d357600080fd5b60006141e184828501613ec0565b91505092915050565b6000602082840312156141fc57600080fd5b600061420a84828501613eff565b91505092915050565b6000806040838503121561422657600080fd5b600061423485828601613eff565b925050602061424585828601613e6c565b9150509250929050565b614258816156fc565b82525050565b6142678161567e565b82525050565b61427681615690565b82525050565b6142858161569c565b82525050565b600061429682615526565b6142a0818561553c565b93506142b0818560208601615741565b6142b981615906565b840191505092915050565b60006142cf82615531565b6142d9818561554d565b93506142e9818560208601615741565b6142f281615906565b840191505092915050565b600061430882615531565b614312818561555e565b9350614322818560208601615741565b80840191505092915050565b600061433b60228361554d565b91507f456e756d657261626c655365743a20696e646578206f7574206f6620626f756e60008301527f64730000000000000000000000000000000000000000000000000000000000006020830152604082019050919050565b60006143a160208361554d565b91507f537472696e67733a20686578206c656e67746820696e73756666696369656e746000830152602082019050919050565b60006143e160148361554d565b91507f5061757361626c653a206e6f74207061757365640000000000000000000000006000830152602082019050919050565b600061442160248361554d565b91507f4d696e746572206d7573742068617665206d696e74657220726f6c6520746f2060008301527f6d696e74000000000000000000000000000000000000000000000000000000006020830152604082019050919050565b6000614487601b8361554d565b91507f436f756e7465723a2064656372656d656e74206f766572666c6f7700000000006000830152602082019050919050565b60006144c760328361554d565b91507f4552433732313a207472616e7366657220746f206e6f6e20455243373231526560008301527f63656976657220696d706c656d656e74657200000000000000000000000000006020830152604082019050919050565b600061452d60228361554d565b91507f556e7061757365722063616e206f6e6c792062652074686520726567756c617460008301527f6f720000000000000000000000000000000000000000000000000000000000006020830152604082019050919050565b600061459360268361554d565b91507f4f776e61626c653a206e6577206f776e657220697320746865207a65726f206160008301527f64647265737300000000000000000000000000000000000000000000000000006020830152604082019050919050565b60006145f9601c8361554d565b91507f4552433732313a20746f6b656e20616c7265616479206d696e746564000000006000830152602082019050919050565b6000614639602d8361554d565b91507f54686572652773206e6f7420656e6f75676820737461626c6520636f696e206660008301527f6f7220736574746c656d656e74000000000000000000000000000000000000006020830152604082019050919050565b600061469f60248361554d565b91507f4552433732313a207472616e7366657220746f20746865207a65726f2061646460008301527f72657373000000000000000000000000000000000000000000000000000000006020830152604082019050919050565b600061470560198361554d565b91507f4552433732313a20617070726f766520746f2063616c6c6572000000000000006000830152602082019050919050565b6000614745602e8361554d565b91507f506179696e6720636f6d70616e792073686f756c642062652074686520626f7260008301527f726f77696e6720636f6d70616e790000000000000000000000000000000000006020830152604082019050919050565b60006147ab60208361554d565b91507f436f75706f6e207061796d656e742063616e2774206265206e656761746976656000830152602082019050919050565b60006147eb602c8361554d565b91507f4552433732313a206f70657261746f7220717565727920666f72206e6f6e657860008301527f697374656e7420746f6b656e00000000000000000000000000000000000000006020830152604082019050919050565b6000614851602c8361554d565b91507f496e766573746f7220686173206e6f7420656e6f7567682066756e647320666f60008301527f722074686520746f6b656e7300000000000000000000000000000000000000006020830152604082019050919050565b60006148b760108361554d565b91507f5061757361626c653a20706175736564000000000000000000000000000000006000830152602082019050919050565b60006148f760208361554d565b91507f5061757365722063616e206f6e6c792062652074686520726567756c61746f726000830152602082019050919050565b600061493760388361554d565b91507f4552433732313a20617070726f76652063616c6c6572206973206e6f74206f7760008301527f6e6572206e6f7220617070726f76656420666f7220616c6c00000000000000006020830152604082019050919050565b600061499d602a8361554d565b91507f4552433732313a2062616c616e636520717565727920666f7220746865207a6560008301527f726f2061646472657373000000000000000000000000000000000000000000006020830152604082019050919050565b6000614a0360298361554d565b91507f4552433732313a206f776e657220717565727920666f72206e6f6e657869737460008301527f656e7420746f6b656e00000000000000000000000000000000000000000000006020830152604082019050919050565b6000614a6960208361554d565b91507f4552433732313a206d696e7420746f20746865207a65726f20616464726573736000830152602082019050919050565b6000614aa9602c8361554d565b91507f4552433732313a20617070726f76656420717565727920666f72206e6f6e657860008301527f697374656e7420746f6b656e00000000000000000000000000000000000000006020830152604082019050919050565b6000614b0f60208361554d565b91507f4f776e61626c653a2063616c6c6572206973206e6f7420746865206f776e65726000830152602082019050919050565b6000614b4f60228361554d565b91507f42616c616e636520717565727920666f7220746865207a65726f20616464726560008301527f73730000000000000000000000000000000000000000000000000000000000006020830152604082019050919050565b6000614bb560298361554d565b91507f4552433732313a207472616e73666572206f6620746f6b656e2074686174206960008301527f73206e6f74206f776e00000000000000000000000000000000000000000000006020830152604082019050919050565b6000614c1b602f8361554d565b91507f4552433732314d657461646174613a2055524920717565727920666f72206e6f60008301527f6e6578697374656e7420746f6b656e00000000000000000000000000000000006020830152604082019050919050565b6000614c8160218361554d565b91507f4552433732313a20617070726f76616c20746f2063757272656e74206f776e6560008301527f72000000000000000000000000000000000000000000000000000000000000006020830152604082019050919050565b6000614ce7601c8361554d565b91507f4e6f7420656e6f75676820636f696e7320666f7220636f75706f6e73000000006000830152602082019050919050565b6000614d2760318361554d565b91507f4552433732313a207472616e736665722063616c6c6572206973206e6f74206f60008301527f776e6572206e6f7220617070726f7665640000000000000000000000000000006020830152604082019050919050565b6000614d8d602f8361554d565b91507f4e6f7420656e6f75676820636f696e7320746f20736574746c6520746865206260008301527f6f6e64206174206d6174757269747900000000000000000000000000000000006020830152604082019050919050565b6000614df360178361555e565b91507f416363657373436f6e74726f6c3a206163636f756e74200000000000000000006000830152601782019050919050565b6000614e3360118361555e565b91507f206973206d697373696e6720726f6c65200000000000000000000000000000006000830152601182019050919050565b6000614e73602f8361554d565b91507f416363657373436f6e74726f6c3a2063616e206f6e6c792072656e6f756e636560008301527f20726f6c657320666f722073656c6600000000000000000000000000000000006020830152604082019050919050565b6000614ed9601f8361554d565b91507f6e6f7420656e6f75676820636f696e7320666f722074686520616d6f756e74006000830152602082019050919050565b614f15816156f2565b82525050565b6000614f2782856142fd565b9150614f3382846142fd565b91508190509392505050565b6000614f4a82614de6565b9150614f5682856142fd565b9150614f6182614e26565b9150614f6d82846142fd565b91508190509392505050565b6000602082019050614f8e600083018461425e565b92915050565b6000604082019050614fa9600083018561424f565b614fb66020830184614f0c565b9392505050565b6000608082019050614fd2600083018761425e565b614fdf602083018661425e565b614fec6040830185614f0c565b8181036060830152614ffe818461428b565b905095945050505050565b600060408201905061501e600083018561425e565b61502b6020830184614f0c565b9392505050565b6000602082019050615047600083018461426d565b92915050565b6000602082019050615062600083018461427c565b92915050565b6000602082019050818103600083015261508281846142c4565b905092915050565b600060208201905081810360008301526150a38161432e565b9050919050565b600060208201905081810360008301526150c381614394565b9050919050565b600060208201905081810360008301526150e3816143d4565b9050919050565b6000602082019050818103600083015261510381614414565b9050919050565b600060208201905081810360008301526151238161447a565b9050919050565b60006020820190508181036000830152615143816144ba565b9050919050565b6000602082019050818103600083015261516381614520565b9050919050565b6000602082019050818103600083015261518381614586565b9050919050565b600060208201905081810360008301526151a3816145ec565b9050919050565b600060208201905081810360008301526151c38161462c565b9050919050565b600060208201905081810360008301526151e381614692565b9050919050565b60006020820190508181036000830152615203816146f8565b9050919050565b6000602082019050818103600083015261522381614738565b9050919050565b600060208201905081810360008301526152438161479e565b9050919050565b60006020820190508181036000830152615263816147de565b9050919050565b6000602082019050818103600083015261528381614844565b9050919050565b600060208201905081810360008301526152a3816148aa565b9050919050565b600060208201905081810360008301526152c3816148ea565b9050919050565b600060208201905081810360008301526152e38161492a565b9050919050565b6000602082019050818103600083015261530381614990565b9050919050565b60006020820190508181036000830152615323816149f6565b9050919050565b6000602082019050818103600083015261534381614a5c565b9050919050565b6000602082019050818103600083015261536381614a9c565b9050919050565b6000602082019050818103600083015261538381614b02565b9050919050565b600060208201905081810360008301526153a381614b42565b9050919050565b600060208201905081810360008301526153c381614ba8565b9050919050565b600060208201905081810360008301526153e381614c0e565b9050919050565b6000602082019050818103600083015261540381614c74565b9050919050565b6000602082019050818103600083015261542381614cda565b9050919050565b6000602082019050818103600083015261544381614d1a565b9050919050565b6000602082019050818103600083015261546381614d80565b9050919050565b6000602082019050818103600083015261548381614e66565b9050919050565b600060208201905081810360008301526154a381614ecc565b9050919050565b60006020820190506154bf6000830184614f0c565b92915050565b6000604051905081810181811067ffffffffffffffff821117156154ec576154eb6158d7565b5b8060405250919050565b600067ffffffffffffffff821115615511576155106158d7565b5b601f19601f8301169050602081019050919050565b600081519050919050565b600081519050919050565b600082825260208201905092915050565b600082825260208201905092915050565b600081905092915050565b6000615574826156f2565b915061557f836156f2565b9250827fffffffffffffffffffffffffffffffffffffffffffffffffffffffffffffffff038211156155b4576155b361584a565b5b828201905092915050565b60006155ca826156f2565b91506155d5836156f2565b9250826155e5576155e4615879565b5b828204905092915050565b60006155fb826156f2565b9150615606836156f2565b9250817fffffffffffffffffffffffffffffffffffffffffffffffffffffffffffffffff048311821515161561563f5761563e61584a565b5b828202905092915050565b6000615655826156f2565b9150615660836156f2565b9250828210156156735761567261584a565b5b828203905092915050565b6000615689826156d2565b9050919050565b60008115159050919050565b6000819050919050565b60007fffffffff0000000000000000000000000000000000000000000000000000000082169050919050565b600073ffffffffffffffffffffffffffffffffffffffff82169050919050565b6000819050919050565b60006157078261570e565b9050919050565b600061571982615720565b9050919050565b600061572b826156d2565b9050919050565b82818337600083830152505050565b60005b8381101561575f578082015181840152602081019050615744565b8381111561576e576000848401525b50505050565b600061577f826156f2565b915060008214156157935761579261584a565b5b600182039050919050565b600060028204905060018216806157b657607f821691505b602082108114156157ca576157c96158a8565b5b50919050565b60006157db826156f2565b91507fffffffffffffffffffffffffffffffffffffffffffffffffffffffffffffffff82141561580e5761580d61584a565b5b600182019050919050565b6000615824826156f2565b915061582f836156f2565b92508261583f5761583e615879565b5b828206905092915050565b7f4e487b7100000000000000000000000000000000000000000000000000000000600052601160045260246000fd5b7f4e487b7100000000000000000000000000000000000000000000000000000000600052601260045260246000fd5b7f4e487b7100000000000000000000000000000000000000000000000000000000600052602260045260246000fd5b7f4e487b7100000000000000000000000000000000000000000000000000000000600052604160045260246000fd5b6000601f19601f8301169050919050565b6159208161567e565b811461592b57600080fd5b50565b61593781615690565b811461594257600080fd5b50565b61594e8161569c565b811461595957600080fd5b50565b615965816156a6565b811461597057600080fd5b50565b61597c816156f2565b811461598757600080fd5b5056fea2646970667358221220ab8f71b8f7bf0587837729a2ce8628a1fcb95e568a30f4f3436c0fafd5101f0e64736f6c63430008000033",
  "immutableReferences": {},
  "source": "// SPDX-License-Identifier: MIT\npragma solidity >=0.6.0;\n\nimport \"@openzeppelin/contracts/token/ERC721/ERC721.sol\";\nimport \"@openzeppelin/contracts/access/AccessControlEnumerable.sol\";\nimport \"@openzeppelin/contracts/access/Ownable.sol\";\nimport \"@openzeppelin/contracts/utils/Counters.sol\";\n\ncontract GreenBond is ERC721, AccessControlEnumerable, Ownable{\n    using Counters for Counters.Counter;\n\n    string private _baseTokenURI;\n    Counters.Counter private _tokenIdTracker;\n    bool private _paused;\n\n    address [] _investors;\n\n    address _owner;\n    address payable _company;\n    address _regulator; // this could be hard coded\n    address _greenVerifier;\n    uint256 _value;\n    uint256 _coupon;\n    uint256 _totalValueRaisedRaised;\n\n    /**\n     * @dev Emitted when an investor registers initial investment request\n     */\n    event Investment(address investor, uint256 value);\n    \n    /**\n     * @dev Emitted when coins are refunded to the investor in case there are\n            too many coins for the investment\n     */\n    event CoinRefund(address investor, uint256 value);\n    \n    /**\n     * @dev Emitted when a coupon payment has been made\n     */\n    event CouponPayment(address investor, uint256 tokenId);\n\n    /**\n     * @dev Emitted when the pause is triggered by a pauser (regulator).\n     */\n    event Paused(address account);\n\n    /**\n     * @dev Emitted when the pause is lifted by a pauser (regulator).\n     */\n    event Unpaused(address account);\n\n    /**\n     * @dev Emmitted when coupon payment is adjusted\n     */\n    event CouponAdjustment(address adjuster, uint256 couponRate);\n\n    mapping (address => uint256) _investedAmountPerInvestor;\n\n    \n\n    bytes32 public constant MINTER_ROLE = keccak256(\"MINTER_ROLE\");\n    \n    // Will need to add pauser address as constructor parameter (financial regulator)\n    constructor(string memory name, string memory symbol, string memory baseTokenURI, \n    address company, uint256 value, uint256 coupon) ERC721 (name, symbol) {\n        require(coupon >= 0, \"Coupon payment can't be negative\");\n        _owner = msg.sender;\n        _baseTokenURI = baseTokenURI;\n        _company = payable(company);\n        _value = value;\n        _coupon = coupon;\n        _paused = false;\n\n        _setupRole(MINTER_ROLE, _msgSender());    \n    }\n\n\n    function getName() public view returns(string memory) {\n        return name();\n    }\n\n    function setRegulator(address regulator) public onlyOwner {\n        _regulator = regulator;\n    }\n\n    function setGreenVerifier(address greenVerifier) public onlyOwner {\n        _greenVerifier = greenVerifier;\n    }\n\n    function getInvestorBalance(address investor) public view returns (uint){\n        require(investor != address(0), \"Balance query for the zero address\");\n        return _investedAmountPerInvestor[investor];\n    }\n\n    function _baseURI() internal view override returns (string memory) {\n        return _baseTokenURI;\n    }\n\n    // Needed to override this function as two parent classes defined the same function\n    function supportsInterface(bytes4 interfaceId) public view virtual override(AccessControlEnumerable, ERC721) returns (bool) {\n        return super.supportsInterface(interfaceId);\n    }\n\n    // Function to register investment interest (requires staking money on the contract)\n    function registerInvestment(uint256 number) public payable {\n        // Require that the investor has enough coins\n        require(msg.value >= number * _value, \"not enough coins for the amount\");\n\n        // Check if investor already on the list\n        if (_investedAmountPerInvestor[msg.sender] == 0) {\n            _investors.push(msg.sender);\n        }\n        \n        // Register the investment\n        uint256 currentAmount = _investedAmountPerInvestor[msg.sender];\n        _investedAmountPerInvestor[msg.sender] = currentAmount + msg.value;\n        // Emit event\n        emit Investment(msg.sender, msg.value);\n    }\n\n\n    // Function to issue tokens for registered investors\n    // Assumes all investors will get tokens\n    function issueTokens() external {\n        require(hasRole(MINTER_ROLE, _msgSender()), \"Minter must have minter role to mint\");\n\n        // Iterate through each investor\n        for (uint i = 0; i < _investors.length; i++) {\n            address investor = _investors[i];\n            uint256 numberOfTokens = _investedAmountPerInvestor[investor] / _value;\n            _company.transfer(_value * numberOfTokens); \n            \n            // If the invested amount would be greated than the amount needed for investment\n            // Return the remainder back to the investor\n            if (_investedAmountPerInvestor[investor] > numberOfTokens * _value) {\n                payable(investor).transfer(_investedAmountPerInvestor[investor] - numberOfTokens * _value);\n                emit CoinRefund(investor, _investedAmountPerInvestor[investor] - numberOfTokens * _value);\n            }\n\n            // Update the records\n            _investedAmountPerInvestor[investor] = 0;\n            _totalValueRaisedRaised = _totalValueRaisedRaised + _value * numberOfTokens;\n\n            // Issue tokens\n            for (uint j = 0; j < numberOfTokens; j++) {  \n                _mint(investor, _tokenIdTracker.current());\n                _tokenIdTracker.increment();\n            }\n        }\n    }\n    // Requires that the minter has minter role\n    // Automatically creates tokenURI with baseURI concatenated with TokenId\n    function issueTokens(uint256 numberOfTokens, address to) public payable {\n        require(hasRole(MINTER_ROLE, _msgSender()), \"Minter must have minter role to mint\");\n\n        // Transfer the money to the issuer\n        //require(msg.value >= _value * numberOfTokens, \"Not enough money send for the tokens\");\n        require(_investedAmountPerInvestor[to] >= numberOfTokens * _value, \"Investor has not enough funds for the tokens\");\n        //_company.transfer(msg.value);\n        //_totalValueRaisedRaised = _totalValueRaisedRaised + msg.value;\n\n        // Transfer coins and reduce the investors investment balance\n        _company.transfer(_value * numberOfTokens); \n        _investedAmountPerInvestor[to] = _investedAmountPerInvestor[to] - numberOfTokens * _value;\n        _totalValueRaisedRaised = _totalValueRaisedRaised + numberOfTokens * _value;\n\n        for (uint i = 0; i < numberOfTokens; i++) {  \n            _mint(to, _tokenIdTracker.current());\n            _tokenIdTracker.increment();\n        }\n    }\n\n    // Function for the borrowing company to pay coupons\n    function payCoupons() public payable {\n        // Message needs to have enough value for the copupon payments\n        require(msg.value >= _coupon * _tokenIdTracker.current(), \"Not enough coins for coupons\");\n        for (uint i = 0; i < _tokenIdTracker.current(); i++) {\n            address payable investor = payable(ownerOf(i));\n            investor.transfer(_coupon);\n            emit CouponPayment(investor, i);\n        }\n    }\n\n    // This function should be called by the borrowing company\n    function payBackBond() public payable {\n        require(msg.sender == _company, \"Paying company should be the borrowing company\");\n        require(msg.value >= _totalValueRaisedRaised, \"Not enough coins to settle the bond at maturity\");\n        \n        // Interate through the tokens\n        for(uint i = 0; i < _tokenIdTracker.current(); i++) {\n            address payable investor = payable(ownerOf(i));\n            // Transfer token from investor to owner\n            tokenTransfer(investor, _owner, i);\n            // Return funds\n            investor.transfer(_value);\n            // Decrement the values\n            _totalValueRaisedRaised = _totalValueRaisedRaised - _value;\n            _tokenIdTracker.decrement();\n        }\n    }\n\n    // Not needed anymore\n    function returnTokensAtMaturity() external onlyOwner {\n        // Check that the contract has the right amount of money to send back to the investors\n        require(address(this).balance >= _totalValueRaisedRaised, \"There's not enough stable coin for settlement\");\n        for(uint i = 0; i < _tokenIdTracker.current(); i++) {\n            address payable investor = payable(ownerOf(i));\n            // Get the tokens back\n            tokenTransfer(investor, owner(), i);\n            // Return the stable coin value\n            investor.transfer(_value);    \n        }\n    }\n\n    // WILL NEED TO ADD VALUE TRANSFER NEXT\n    function tokenTransfer(address from, address to, uint256 tokenId) internal {\n        _transfer(from, to, tokenId);\n    }\n\n    // Pauser functions\n    /**\n     * @dev Returns true if the contract is paused, and false otherwise.\n     */\n    function paused() public view returns (bool) {\n        return _paused;\n    }\n\n    /**\n     * @dev Modifier to make a function callable only when the contract is not paused.\n     */\n    modifier whenNotPaused() {\n        require(!_paused, \"Pausable: paused\");\n        _;\n    }\n\n    /**\n     * @dev Modifier to make a function callable only when the contract is paused.\n     */\n    modifier whenPaused() {\n        require(_paused, \"Pausable: not paused\");\n        _;\n    }\n\n    /**\n     * @dev Called by a pauser to pause, triggers stopped state.\n     */\n    function pause() public whenNotPaused {\n        require(msg.sender == _regulator, \"Pauser can only be the regulator\");\n        _paused = true;\n        emit Paused(_msgSender());\n    }\n\n    /**\n     * @dev Called by a pauser to unpause, returns to normal state.\n     */\n    function unpause() public whenPaused {\n        require(msg.sender == _regulator, \"Unpauser can only be the regulator\");\n        _paused = false;\n        emit Unpaused(_msgSender());\n    }\n\n    function adjustCoupon(bool increase, uint256 amount) external {\n        require(msg.sender == _greenVerifier);\n        if (increase){\n            _coupon = _coupon + amount;\n        } else {\n            require(amount <= _coupon, \"Coupon payment can't be negative\");\n            _coupon = _coupon - amount;\n        }\n        emit CouponAdjustment(msg.sender, _coupon);\n    }\n\n}",
  "sourcePath": "/Users/leena/Documents/Coding/Blockchain_Green_Bonds/testProjects/OZ_test/contracts/GreenBond.sol",
  "compiler": {
    "name": "solc",
    "version": "0.8.0+commit.c7dfd78e.Emscripten.clang"
  },
  "schemaVersion": "3.3.4",
  "updatedAt": "2021-06-23T10:32:04.639Z",
  "networkType": "ethereum",
  "devdoc": {
    "events": {
      "CoinRefund(address,uint256)": {
        "details": "Emitted when coins are refunded to the investor in case there are too many coins for the investment"
      },
      "CouponAdjustment(address,uint256)": {
        "details": "Emmitted when coupon payment is adjusted"
      },
      "CouponPayment(address,uint256)": {
        "details": "Emitted when a coupon payment has been made"
      },
      "Investment(address,uint256)": {
        "details": "Emitted when an investor registers initial investment request"
      },
      "Paused(address)": {
        "details": "Emitted when the pause is triggered by a pauser (regulator)."
      },
      "Unpaused(address)": {
        "details": "Emitted when the pause is lifted by a pauser (regulator)."
      }
    },
    "kind": "dev",
    "methods": {
      "approve(address,uint256)": {
        "details": "See {IERC721-approve}."
      },
      "balanceOf(address)": {
        "details": "See {IERC721-balanceOf}."
      },
      "getApproved(uint256)": {
        "details": "See {IERC721-getApproved}."
      },
      "getRoleAdmin(bytes32)": {
        "details": "Returns the admin role that controls `role`. See {grantRole} and {revokeRole}. To change a role's admin, use {_setRoleAdmin}."
      },
      "getRoleMember(bytes32,uint256)": {
        "details": "Returns one of the accounts that have `role`. `index` must be a value between 0 and {getRoleMemberCount}, non-inclusive. Role bearers are not sorted in any particular way, and their ordering may change at any point. WARNING: When using {getRoleMember} and {getRoleMemberCount}, make sure you perform all queries on the same block. See the following https://forum.openzeppelin.com/t/iterating-over-elements-on-enumerableset-in-openzeppelin-contracts/2296[forum post] for more information."
      },
      "getRoleMemberCount(bytes32)": {
        "details": "Returns the number of accounts that have `role`. Can be used together with {getRoleMember} to enumerate all bearers of a role."
      },
      "grantRole(bytes32,address)": {
        "details": "Overload {grantRole} to track enumerable memberships"
      },
      "hasRole(bytes32,address)": {
        "details": "Returns `true` if `account` has been granted `role`."
      },
      "isApprovedForAll(address,address)": {
        "details": "See {IERC721-isApprovedForAll}."
      },
      "name()": {
        "details": "See {IERC721Metadata-name}."
      },
      "owner()": {
        "details": "Returns the address of the current owner."
      },
      "ownerOf(uint256)": {
        "details": "See {IERC721-ownerOf}."
      },
      "pause()": {
        "details": "Called by a pauser to pause, triggers stopped state."
      },
      "paused()": {
        "details": "Returns true if the contract is paused, and false otherwise."
      },
      "renounceOwnership()": {
        "details": "Leaves the contract without owner. It will not be possible to call `onlyOwner` functions anymore. Can only be called by the current owner. NOTE: Renouncing ownership will leave the contract without an owner, thereby removing any functionality that is only available to the owner."
      },
      "renounceRole(bytes32,address)": {
        "details": "Overload {renounceRole} to track enumerable memberships"
      },
      "revokeRole(bytes32,address)": {
        "details": "Overload {revokeRole} to track enumerable memberships"
      },
      "safeTransferFrom(address,address,uint256)": {
        "details": "See {IERC721-safeTransferFrom}."
      },
      "safeTransferFrom(address,address,uint256,bytes)": {
        "details": "See {IERC721-safeTransferFrom}."
      },
      "setApprovalForAll(address,bool)": {
        "details": "See {IERC721-setApprovalForAll}."
      },
      "symbol()": {
        "details": "See {IERC721Metadata-symbol}."
      },
      "tokenURI(uint256)": {
        "details": "See {IERC721Metadata-tokenURI}."
      },
      "transferFrom(address,address,uint256)": {
        "details": "See {IERC721-transferFrom}."
      },
      "transferOwnership(address)": {
        "details": "Transfers ownership of the contract to a new account (`newOwner`). Can only be called by the current owner."
      },
      "unpause()": {
        "details": "Called by a pauser to unpause, returns to normal state."
      }
    },
    "version": 1
  },
  "userdoc": {
    "kind": "user",
    "methods": {},
    "version": 1
  }
}