{
  "contractName": "GreenBond",
  "abi": [
    {
      "inputs": [
        {
          "internalType": "string",
          "name": "name",
          "type": "string"
        },
        {
          "internalType": "string",
          "name": "symbol",
          "type": "string"
        },
        {
          "internalType": "string",
          "name": "baseTokenURI",
          "type": "string"
        },
        {
          "internalType": "address",
          "name": "company",
          "type": "address"
        },
        {
          "internalType": "uint256",
          "name": "value",
          "type": "uint256"
        },
        {
          "internalType": "uint256",
          "name": "coupon",
          "type": "uint256"
        }
      ],
      "stateMutability": "nonpayable",
      "type": "constructor"
    },
    {
      "anonymous": false,
      "inputs": [
        {
          "indexed": true,
          "internalType": "address",
          "name": "owner",
          "type": "address"
        },
        {
          "indexed": true,
          "internalType": "address",
          "name": "approved",
          "type": "address"
        },
        {
          "indexed": true,
          "internalType": "uint256",
          "name": "tokenId",
          "type": "uint256"
        }
      ],
      "name": "Approval",
      "type": "event"
    },
    {
      "anonymous": false,
      "inputs": [
        {
          "indexed": true,
          "internalType": "address",
          "name": "owner",
          "type": "address"
        },
        {
          "indexed": true,
          "internalType": "address",
          "name": "operator",
          "type": "address"
        },
        {
          "indexed": false,
          "internalType": "bool",
          "name": "approved",
          "type": "bool"
        }
      ],
      "name": "ApprovalForAll",
      "type": "event"
    },
    {
      "anonymous": false,
      "inputs": [
        {
          "indexed": false,
          "internalType": "address",
          "name": "investor",
          "type": "address"
        },
        {
          "indexed": false,
          "internalType": "uint256",
          "name": "value",
          "type": "uint256"
        }
      ],
      "name": "CoinRefund",
      "type": "event"
    },
    {
      "anonymous": false,
      "inputs": [
        {
          "indexed": false,
          "internalType": "address",
          "name": "adjuster",
          "type": "address"
        },
        {
          "indexed": false,
          "internalType": "uint256",
          "name": "couponRate",
          "type": "uint256"
        }
      ],
      "name": "CouponAdjustment",
      "type": "event"
    },
    {
      "anonymous": false,
      "inputs": [
        {
          "indexed": false,
          "internalType": "address",
          "name": "investor",
          "type": "address"
        },
        {
          "indexed": false,
          "internalType": "uint256",
          "name": "tokenId",
          "type": "uint256"
        }
      ],
      "name": "CouponPayment",
      "type": "event"
    },
    {
      "anonymous": false,
      "inputs": [
        {
          "indexed": false,
          "internalType": "address",
          "name": "investor",
          "type": "address"
        },
        {
          "indexed": false,
          "internalType": "uint256",
          "name": "value",
          "type": "uint256"
        }
      ],
      "name": "Investment",
      "type": "event"
    },
    {
      "anonymous": false,
      "inputs": [
        {
          "indexed": true,
          "internalType": "address",
          "name": "previousOwner",
          "type": "address"
        },
        {
          "indexed": true,
          "internalType": "address",
          "name": "newOwner",
          "type": "address"
        }
      ],
      "name": "OwnershipTransferred",
      "type": "event"
    },
    {
      "anonymous": false,
      "inputs": [
        {
          "indexed": false,
          "internalType": "address",
          "name": "account",
          "type": "address"
        }
      ],
      "name": "Paused",
      "type": "event"
    },
    {
      "anonymous": false,
      "inputs": [
        {
          "indexed": true,
          "internalType": "bytes32",
          "name": "role",
          "type": "bytes32"
        },
        {
          "indexed": true,
          "internalType": "bytes32",
          "name": "previousAdminRole",
          "type": "bytes32"
        },
        {
          "indexed": true,
          "internalType": "bytes32",
          "name": "newAdminRole",
          "type": "bytes32"
        }
      ],
      "name": "RoleAdminChanged",
      "type": "event"
    },
    {
      "anonymous": false,
      "inputs": [
        {
          "indexed": true,
          "internalType": "bytes32",
          "name": "role",
          "type": "bytes32"
        },
        {
          "indexed": true,
          "internalType": "address",
          "name": "account",
          "type": "address"
        },
        {
          "indexed": true,
          "internalType": "address",
          "name": "sender",
          "type": "address"
        }
      ],
      "name": "RoleGranted",
      "type": "event"
    },
    {
      "anonymous": false,
      "inputs": [
        {
          "indexed": true,
          "internalType": "bytes32",
          "name": "role",
          "type": "bytes32"
        },
        {
          "indexed": true,
          "internalType": "address",
          "name": "account",
          "type": "address"
        },
        {
          "indexed": true,
          "internalType": "address",
          "name": "sender",
          "type": "address"
        }
      ],
      "name": "RoleRevoked",
      "type": "event"
    },
    {
      "anonymous": false,
      "inputs": [
        {
          "indexed": true,
          "internalType": "address",
          "name": "from",
          "type": "address"
        },
        {
          "indexed": true,
          "internalType": "address",
          "name": "to",
          "type": "address"
        },
        {
          "indexed": true,
          "internalType": "uint256",
          "name": "tokenId",
          "type": "uint256"
        }
      ],
      "name": "Transfer",
      "type": "event"
    },
    {
      "anonymous": false,
      "inputs": [
        {
          "indexed": false,
          "internalType": "address",
          "name": "account",
          "type": "address"
        }
      ],
      "name": "Unpaused",
      "type": "event"
    },
    {
      "inputs": [],
      "name": "DEFAULT_ADMIN_ROLE",
      "outputs": [
        {
          "internalType": "bytes32",
          "name": "",
          "type": "bytes32"
        }
      ],
      "stateMutability": "view",
      "type": "function",
      "constant": true
    },
    {
      "inputs": [
        {
          "internalType": "uint256",
          "name": "",
          "type": "uint256"
        }
      ],
      "name": "_investors",
      "outputs": [
        {
          "internalType": "address",
          "name": "",
          "type": "address"
        }
      ],
      "stateMutability": "view",
      "type": "function",
      "constant": true
    },
    {
      "inputs": [
        {
          "internalType": "address",
          "name": "to",
          "type": "address"
        },
        {
          "internalType": "uint256",
          "name": "tokenId",
          "type": "uint256"
        }
      ],
      "name": "approve",
      "outputs": [],
      "stateMutability": "nonpayable",
      "type": "function"
    },
    {
      "inputs": [
        {
          "internalType": "address",
          "name": "owner",
          "type": "address"
        }
      ],
      "name": "balanceOf",
      "outputs": [
        {
          "internalType": "uint256",
          "name": "",
          "type": "uint256"
        }
      ],
      "stateMutability": "view",
      "type": "function",
      "constant": true
    },
    {
      "inputs": [
        {
          "internalType": "uint256",
          "name": "tokenId",
          "type": "uint256"
        }
      ],
      "name": "getApproved",
      "outputs": [
        {
          "internalType": "address",
          "name": "",
          "type": "address"
        }
      ],
      "stateMutability": "view",
      "type": "function",
      "constant": true
    },
    {
      "inputs": [
        {
          "internalType": "bytes32",
          "name": "role",
          "type": "bytes32"
        }
      ],
      "name": "getRoleAdmin",
      "outputs": [
        {
          "internalType": "bytes32",
          "name": "",
          "type": "bytes32"
        }
      ],
      "stateMutability": "view",
      "type": "function",
      "constant": true
    },
    {
      "inputs": [
        {
          "internalType": "bytes32",
          "name": "role",
          "type": "bytes32"
        },
        {
          "internalType": "uint256",
          "name": "index",
          "type": "uint256"
        }
      ],
      "name": "getRoleMember",
      "outputs": [
        {
          "internalType": "address",
          "name": "",
          "type": "address"
        }
      ],
      "stateMutability": "view",
      "type": "function",
      "constant": true
    },
    {
      "inputs": [
        {
          "internalType": "bytes32",
          "name": "role",
          "type": "bytes32"
        }
      ],
      "name": "getRoleMemberCount",
      "outputs": [
        {
          "internalType": "uint256",
          "name": "",
          "type": "uint256"
        }
      ],
      "stateMutability": "view",
      "type": "function",
      "constant": true
    },
    {
      "inputs": [
        {
          "internalType": "bytes32",
          "name": "role",
          "type": "bytes32"
        },
        {
          "internalType": "address",
          "name": "account",
          "type": "address"
        }
      ],
      "name": "grantRole",
      "outputs": [],
      "stateMutability": "nonpayable",
      "type": "function"
    },
    {
      "inputs": [
        {
          "internalType": "bytes32",
          "name": "role",
          "type": "bytes32"
        },
        {
          "internalType": "address",
          "name": "account",
          "type": "address"
        }
      ],
      "name": "hasRole",
      "outputs": [
        {
          "internalType": "bool",
          "name": "",
          "type": "bool"
        }
      ],
      "stateMutability": "view",
      "type": "function",
      "constant": true
    },
    {
      "inputs": [
        {
          "internalType": "address",
          "name": "owner",
          "type": "address"
        },
        {
          "internalType": "address",
          "name": "operator",
          "type": "address"
        }
      ],
      "name": "isApprovedForAll",
      "outputs": [
        {
          "internalType": "bool",
          "name": "",
          "type": "bool"
        }
      ],
      "stateMutability": "view",
      "type": "function",
      "constant": true
    },
    {
      "inputs": [],
      "name": "name",
      "outputs": [
        {
          "internalType": "string",
          "name": "",
          "type": "string"
        }
      ],
      "stateMutability": "view",
      "type": "function",
      "constant": true
    },
    {
      "inputs": [],
      "name": "owner",
      "outputs": [
        {
          "internalType": "address",
          "name": "",
          "type": "address"
        }
      ],
      "stateMutability": "view",
      "type": "function",
      "constant": true
    },
    {
      "inputs": [
        {
          "internalType": "uint256",
          "name": "tokenId",
          "type": "uint256"
        }
      ],
      "name": "ownerOf",
      "outputs": [
        {
          "internalType": "address",
          "name": "",
          "type": "address"
        }
      ],
      "stateMutability": "view",
      "type": "function",
      "constant": true
    },
    {
      "inputs": [],
      "name": "renounceOwnership",
      "outputs": [],
      "stateMutability": "nonpayable",
      "type": "function"
    },
    {
      "inputs": [
        {
          "internalType": "bytes32",
          "name": "role",
          "type": "bytes32"
        },
        {
          "internalType": "address",
          "name": "account",
          "type": "address"
        }
      ],
      "name": "renounceRole",
      "outputs": [],
      "stateMutability": "nonpayable",
      "type": "function"
    },
    {
      "inputs": [
        {
          "internalType": "bytes32",
          "name": "role",
          "type": "bytes32"
        },
        {
          "internalType": "address",
          "name": "account",
          "type": "address"
        }
      ],
      "name": "revokeRole",
      "outputs": [],
      "stateMutability": "nonpayable",
      "type": "function"
    },
    {
      "inputs": [
        {
          "internalType": "address",
          "name": "from",
          "type": "address"
        },
        {
          "internalType": "address",
          "name": "to",
          "type": "address"
        },
        {
          "internalType": "uint256",
          "name": "tokenId",
          "type": "uint256"
        }
      ],
      "name": "safeTransferFrom",
      "outputs": [],
      "stateMutability": "nonpayable",
      "type": "function"
    },
    {
      "inputs": [
        {
          "internalType": "address",
          "name": "from",
          "type": "address"
        },
        {
          "internalType": "address",
          "name": "to",
          "type": "address"
        },
        {
          "internalType": "uint256",
          "name": "tokenId",
          "type": "uint256"
        },
        {
          "internalType": "bytes",
          "name": "_data",
          "type": "bytes"
        }
      ],
      "name": "safeTransferFrom",
      "outputs": [],
      "stateMutability": "nonpayable",
      "type": "function"
    },
    {
      "inputs": [
        {
          "internalType": "address",
          "name": "operator",
          "type": "address"
        },
        {
          "internalType": "bool",
          "name": "approved",
          "type": "bool"
        }
      ],
      "name": "setApprovalForAll",
      "outputs": [],
      "stateMutability": "nonpayable",
      "type": "function"
    },
    {
      "inputs": [],
      "name": "symbol",
      "outputs": [
        {
          "internalType": "string",
          "name": "",
          "type": "string"
        }
      ],
      "stateMutability": "view",
      "type": "function",
      "constant": true
    },
    {
      "inputs": [
        {
          "internalType": "uint256",
          "name": "tokenId",
          "type": "uint256"
        }
      ],
      "name": "tokenURI",
      "outputs": [
        {
          "internalType": "string",
          "name": "",
          "type": "string"
        }
      ],
      "stateMutability": "view",
      "type": "function",
      "constant": true
    },
    {
      "inputs": [
        {
          "internalType": "address",
          "name": "from",
          "type": "address"
        },
        {
          "internalType": "address",
          "name": "to",
          "type": "address"
        },
        {
          "internalType": "uint256",
          "name": "tokenId",
          "type": "uint256"
        }
      ],
      "name": "transferFrom",
      "outputs": [],
      "stateMutability": "nonpayable",
      "type": "function"
    },
    {
      "inputs": [
        {
          "internalType": "address",
          "name": "newOwner",
          "type": "address"
        }
      ],
      "name": "transferOwnership",
      "outputs": [],
      "stateMutability": "nonpayable",
      "type": "function"
    },
    {
      "inputs": [],
      "name": "getValue",
      "outputs": [
        {
          "internalType": "uint256",
          "name": "",
          "type": "uint256"
        }
      ],
      "stateMutability": "view",
      "type": "function",
      "constant": true
    },
    {
      "inputs": [],
      "name": "getCoupon",
      "outputs": [
        {
          "internalType": "uint256",
          "name": "",
          "type": "uint256"
        }
      ],
      "stateMutability": "view",
      "type": "function",
      "constant": true
    },
    {
      "inputs": [],
      "name": "numberOfInvestors",
      "outputs": [
        {
          "internalType": "uint256",
          "name": "",
          "type": "uint256"
        }
      ],
      "stateMutability": "view",
      "type": "function",
      "constant": true
    },
    {
      "inputs": [],
      "name": "tokenCount",
      "outputs": [
        {
          "internalType": "uint256",
          "name": "",
          "type": "uint256"
        }
      ],
      "stateMutability": "view",
      "type": "function",
      "constant": true
    },
    {
      "inputs": [],
      "name": "getName",
      "outputs": [
        {
          "internalType": "string",
          "name": "",
          "type": "string"
        }
      ],
      "stateMutability": "view",
      "type": "function",
      "constant": true
    },
    {
      "inputs": [
        {
          "internalType": "address",
          "name": "regulator",
          "type": "address"
        }
      ],
      "name": "setRegulator",
      "outputs": [],
      "stateMutability": "nonpayable",
      "type": "function"
    },
    {
      "inputs": [
        {
          "internalType": "address",
          "name": "greenVerifier",
          "type": "address"
        }
      ],
      "name": "setGreenVerifier",
      "outputs": [],
      "stateMutability": "nonpayable",
      "type": "function"
    },
    {
      "inputs": [
        {
          "internalType": "address",
          "name": "investor",
          "type": "address"
        }
      ],
      "name": "getInvestorBalance",
      "outputs": [
        {
          "internalType": "uint256",
          "name": "",
          "type": "uint256"
        }
      ],
      "stateMutability": "view",
      "type": "function",
      "constant": true
    },
    {
      "inputs": [
        {
          "internalType": "bytes4",
          "name": "interfaceId",
          "type": "bytes4"
        }
      ],
      "name": "supportsInterface",
      "outputs": [
        {
          "internalType": "bool",
          "name": "",
          "type": "bool"
        }
      ],
      "stateMutability": "view",
      "type": "function",
      "constant": true
    },
    {
      "inputs": [
        {
          "internalType": "uint256",
          "name": "number",
          "type": "uint256"
        }
      ],
      "name": "registerInvestment",
      "outputs": [],
      "stateMutability": "payable",
      "type": "function",
      "payable": true
    },
    {
      "inputs": [],
      "name": "issueTokens",
      "outputs": [],
      "stateMutability": "nonpayable",
      "type": "function"
    },
    {
      "inputs": [
        {
          "internalType": "uint256",
          "name": "numberOfTokens",
          "type": "uint256"
        },
        {
          "internalType": "address",
          "name": "to",
          "type": "address"
        }
      ],
      "name": "issueTokens",
      "outputs": [],
      "stateMutability": "payable",
      "type": "function",
      "payable": true
    },
    {
      "inputs": [],
      "name": "payCoupons",
      "outputs": [],
      "stateMutability": "payable",
      "type": "function",
      "payable": true
    },
    {
      "inputs": [],
      "name": "payBackBond",
      "outputs": [],
      "stateMutability": "payable",
      "type": "function",
      "payable": true
    },
    {
      "inputs": [],
      "name": "returnTokensAtMaturity",
      "outputs": [],
      "stateMutability": "nonpayable",
      "type": "function"
    },
    {
      "inputs": [],
      "name": "paused",
      "outputs": [
        {
          "internalType": "bool",
          "name": "",
          "type": "bool"
        }
      ],
      "stateMutability": "view",
      "type": "function",
      "constant": true
    },
    {
      "inputs": [],
      "name": "pause",
      "outputs": [],
      "stateMutability": "nonpayable",
      "type": "function"
    },
    {
      "inputs": [],
      "name": "unpause",
      "outputs": [],
      "stateMutability": "nonpayable",
      "type": "function"
    },
    {
      "inputs": [
        {
          "internalType": "bool",
          "name": "increase",
          "type": "bool"
        },
        {
          "internalType": "uint256",
          "name": "amount",
          "type": "uint256"
        }
      ],
      "name": "adjustCoupon",
      "outputs": [],
      "stateMutability": "nonpayable",
      "type": "function"
    }
  ],
  "bytecode": "0x60806040523480156200001157600080fd5b50604051620061993803806200619983398181016040528101906200003791906200038d565b85858160009080519060200190620000519291906200023d565b5080600190805190602001906200006a9291906200023d565b50505060006200007f6200023560201b60201c565b905080600860006101000a81548173ffffffffffffffffffffffffffffffffffffffff021916908373ffffffffffffffffffffffffffffffffffffffff1602179055508073ffffffffffffffffffffffffffffffffffffffff16600073ffffffffffffffffffffffffffffffffffffffff167f8be0079c531659141344cd1fd0a4f28419497f9722a3daafe3b4186f6b6457e060405160405180910390a350600081101562000165576040517f08c379a00000000000000000000000000000000000000000000000000000000081526004016200015c90620004b0565b60405180910390fd5b33600d60006101000a81548173ffffffffffffffffffffffffffffffffffffffff021916908373ffffffffffffffffffffffffffffffffffffffff1602179055508360099080519060200190620001be9291906200023d565b5082600e60006101000a81548173ffffffffffffffffffffffffffffffffffffffff021916908373ffffffffffffffffffffffffffffffffffffffff16021790555081601181905550806012819055506000600b60006101000a81548160ff02191690831515021790555050505050505062000686565b600033905090565b8280546200024b90620005be565b90600052602060002090601f0160209004810192826200026f5760008555620002bb565b82601f106200028a57805160ff1916838001178555620002bb565b82800160010185558215620002bb579182015b82811115620002ba5782518255916020019190600101906200029d565b5b509050620002ca9190620002ce565b5090565b5b80821115620002e9576000816000905550600101620002cf565b5090565b600062000304620002fe8462000506565b620004d2565b9050828152602081018484840111156200031d57600080fd5b6200032a84828562000588565b509392505050565b600081519050620003438162000652565b92915050565b600082601f8301126200035b57600080fd5b81516200036d848260208601620002ed565b91505092915050565b60008151905062000387816200066c565b92915050565b60008060008060008060c08789031215620003a757600080fd5b600087015167ffffffffffffffff811115620003c257600080fd5b620003d089828a0162000349565b965050602087015167ffffffffffffffff811115620003ee57600080fd5b620003fc89828a0162000349565b955050604087015167ffffffffffffffff8111156200041a57600080fd5b6200042889828a0162000349565b94505060606200043b89828a0162000332565b93505060806200044e89828a0162000376565b92505060a06200046189828a0162000376565b9150509295509295509295565b60006200047d60208362000539565b91507f436f75706f6e207061796d656e742063616e2774206265206e656761746976656000830152602082019050919050565b60006020820190508181036000830152620004cb816200046e565b9050919050565b6000604051905081810181811067ffffffffffffffff82111715620004fc57620004fb62000623565b5b8060405250919050565b600067ffffffffffffffff82111562000524576200052362000623565b5b601f19601f8301169050602081019050919050565b600082825260208201905092915050565b600062000557826200055e565b9050919050565b600073ffffffffffffffffffffffffffffffffffffffff82169050919050565b6000819050919050565b60005b83811015620005a85780820151818401526020810190506200058b565b83811115620005b8576000848401525b50505050565b60006002820490506001821680620005d757607f821691505b60208210811415620005ee57620005ed620005f4565b5b50919050565b7f4e487b7100000000000000000000000000000000000000000000000000000000600052602260045260246000fd5b7f4e487b7100000000000000000000000000000000000000000000000000000000600052604160045260246000fd5b6200065d816200054a565b81146200066957600080fd5b50565b62000677816200057e565b81146200068357600080fd5b50565b615b0380620006966000396000f3fe60806040526004361061025b5760003560e01c80636352211e116101445780639f181b5e116100b6578063ca15c8731161007a578063ca15c87314610877578063cde0a4f8146108b4578063d547741f146108dd578063e985e9c514610906578063efd8672914610943578063f2fde38b1461096c5761025b565b80639f181b5e14610792578063a217fddf146107bd578063a22cb465146107e8578063b88d4fde14610811578063c87b56dd1461083a5761025b565b80638456cb59116101085780638456cb59146106825780638a06a364146106995780638da5cb5b146106c25780639010d07c146106ed57806391d148541461072a57806395d89b41146107675761025b565b80636352211e1461059857806370a08231146105d5578063715018a6146106125780637ad5be88146106295780637d2026af146106455761025b565b806323b872dd116101dd57806342842e0e116101a157806342842e0e146104dc5780634a513801146105055780634cff6c0e1461050f5780635c975abb146105195780635ea639131461054457806360ab5852146105815761025b565b806323b872dd1461040d578063248a9ca3146104365780632f2ff15d1461047357806336568abe1461049c5780633f4ba83a146104c55761025b565b8063095ea7b311610224578063095ea7b31461034c57806317d7de7c14610375578063191ae47b146103a05780631af2c9fd146103b757806320965255146103e25761025b565b806283db4b1461026057806301ffc9a71461027c57806306fdde03146102b957806307634cbe146102e4578063081812fc1461030f575b600080fd5b61027a60048036038101906102759190614353565b610995565b005b34801561028857600080fd5b506102a3600480360381019061029e9190614301565b610b61565b6040516102b09190615175565b60405180910390f35b3480156102c557600080fd5b506102ce610b73565b6040516102db91906151ab565b60405180910390f35b3480156102f057600080fd5b506102f9610c05565b60405161030691906155ed565b60405180910390f35b34801561031b57600080fd5b5061033660048036038101906103319190614353565b610c0f565b60405161034391906150bc565b60405180910390f35b34801561035857600080fd5b50610373600480360381019061036e91906141e8565b610c94565b005b34801561038157600080fd5b5061038a610dac565b60405161039791906151ab565b60405180910390f35b3480156103ac57600080fd5b506103b5610dbb565b005b3480156103c357600080fd5b506103cc610f0f565b6040516103d991906155ed565b60405180910390f35b3480156103ee57600080fd5b506103f7610f1c565b60405161040491906155ed565b60405180910390f35b34801561041957600080fd5b50610434600480360381019061042f91906140e2565b610f26565b005b34801561044257600080fd5b5061045d60048036038101906104589190614260565b610f86565b60405161046a9190615190565b60405180910390f35b34801561047f57600080fd5b5061049a60048036038101906104959190614289565b610fa6565b005b3480156104a857600080fd5b506104c360048036038101906104be9190614289565b610fda565b005b3480156104d157600080fd5b506104da61100e565b005b3480156104e857600080fd5b5061050360048036038101906104fe91906140e2565b611148565b005b61050d611168565b005b61051761127b565b005b34801561052557600080fd5b5061052e61141e565b60405161053b9190615175565b60405180910390f35b34801561055057600080fd5b5061056b6004803603810190610566919061407d565b611435565b60405161057891906155ed565b60405180910390f35b34801561058d57600080fd5b506105966114ed565b005b3480156105a457600080fd5b506105bf60048036038101906105ba9190614353565b6118fa565b6040516105cc91906150bc565b60405180910390f35b3480156105e157600080fd5b506105fc60048036038101906105f7919061407d565b6119ac565b60405161060991906155ed565b60405180910390f35b34801561061e57600080fd5b50610627611a64565b005b610643600480360381019061063e919061437c565b611ba1565b005b34801561065157600080fd5b5061066c60048036038101906106679190614353565b611e32565b60405161067991906150bc565b60405180910390f35b34801561068e57600080fd5b50610697611e71565b005b3480156106a557600080fd5b506106c060048036038101906106bb919061407d565b611fac565b005b3480156106ce57600080fd5b506106d761206c565b6040516106e491906150bc565b60405180910390f35b3480156106f957600080fd5b50610714600480360381019061070f91906142c5565b612096565b60405161072191906150bc565b60405180910390f35b34801561073657600080fd5b50610751600480360381019061074c9190614289565b6120c5565b60405161075e9190615175565b60405180910390f35b34801561077357600080fd5b5061077c612130565b60405161078991906151ab565b60405180910390f35b34801561079e57600080fd5b506107a76121c2565b6040516107b491906155ed565b60405180910390f35b3480156107c957600080fd5b506107d26121d3565b6040516107df9190615190565b60405180910390f35b3480156107f457600080fd5b5061080f600480360381019061080a91906141ac565b6121da565b005b34801561081d57600080fd5b5061083860048036038101906108339190614131565b61235b565b005b34801561084657600080fd5b50610861600480360381019061085c9190614353565b6123bd565b60405161086e91906151ab565b60405180910390f35b34801561088357600080fd5b5061089e60048036038101906108999190614260565b612464565b6040516108ab91906155ed565b60405180910390f35b3480156108c057600080fd5b506108db60048036038101906108d6919061407d565b612488565b005b3480156108e957600080fd5b5061090460048036038101906108ff9190614289565b612548565b005b34801561091257600080fd5b5061092d600480360381019061092891906140a6565b61257c565b60405161093a9190615175565b60405180910390f35b34801561094f57600080fd5b5061096a60048036038101906109659190614224565b612610565b005b34801561097857600080fd5b50610993600480360381019061098e919061407d565b612722565b005b601154816109a39190615733565b3410156109e5576040517f08c379a00000000000000000000000000000000000000000000000000000000081526004016109dc906155cd565b60405180910390fd5b6000601460003373ffffffffffffffffffffffffffffffffffffffff1673ffffffffffffffffffffffffffffffffffffffff168152602001908152602001600020541415610a9157600c339080600181540180825580915050600190039060005260206000200160009091909190916101000a81548173ffffffffffffffffffffffffffffffffffffffff021916908373ffffffffffffffffffffffffffffffffffffffff1602179055505b6000601460003373ffffffffffffffffffffffffffffffffffffffff1673ffffffffffffffffffffffffffffffffffffffff1681526020019081526020016000205490503481610ae191906156ac565b601460003373ffffffffffffffffffffffffffffffffffffffff1673ffffffffffffffffffffffffffffffffffffffff168152602001908152602001600020819055507ffe123a1efb6782dccd20e9790951adcfab3cd0e11b85a6f06d8b9222d299a0a33334604051610b5592919061514c565b60405180910390a15050565b6000610b6c826128ce565b9050919050565b606060008054610b82906158e1565b80601f0160208091040260200160405190810160405280929190818152602001828054610bae906158e1565b8015610bfb5780601f10610bd057610100808354040283529160200191610bfb565b820191906000526020600020905b815481529060010190602001808311610bde57829003601f168201915b5050505050905090565b6000601254905090565b6000610c1a82612948565b610c59576040517f08c379a0000000000000000000000000000000000000000000000000000000008152600401610c509061546d565b60405180910390fd5b6004600083815260200190815260200160002060009054906101000a900473ffffffffffffffffffffffffffffffffffffffff169050919050565b6000610c9f826118fa565b90508073ffffffffffffffffffffffffffffffffffffffff168373ffffffffffffffffffffffffffffffffffffffff161415610d10576040517f08c379a0000000000000000000000000000000000000000000000000000000008152600401610d079061550d565b60405180910390fd5b8073ffffffffffffffffffffffffffffffffffffffff16610d2f6129b4565b73ffffffffffffffffffffffffffffffffffffffff161480610d5e5750610d5d81610d586129b4565b61257c565b5b610d9d576040517f08c379a0000000000000000000000000000000000000000000000000000000008152600401610d94906153ed565b60405180910390fd5b610da783836129bc565b505050565b6060610db6610b73565b905090565b610dc36129b4565b73ffffffffffffffffffffffffffffffffffffffff16610de161206c565b73ffffffffffffffffffffffffffffffffffffffff1614610e37576040517f08c379a0000000000000000000000000000000000000000000000000000000008152600401610e2e9061548d565b60405180910390fd5b601354471015610e7c576040517f08c379a0000000000000000000000000000000000000000000000000000000008152600401610e73906152cd565b60405180910390fd5b60005b610e89600a612a75565b811015610f0c576000610e9b826118fa565b9050610eaf81610ea961206c565b84612a83565b8073ffffffffffffffffffffffffffffffffffffffff166108fc6011549081150290604051600060405180830381858888f19350505050158015610ef7573d6000803e3d6000fd5b50508080610f0490615913565b915050610e7f565b50565b6000600c80549050905090565b6000601154905090565b610f37610f316129b4565b82612a93565b610f76576040517f08c379a0000000000000000000000000000000000000000000000000000000008152600401610f6d9061554d565b60405180910390fd5b610f81838383612b71565b505050565b600060066000838152602001908152602001600020600101549050919050565b610fb08282612dcd565b610fd58160076000858152602001908152602001600020612df690919063ffffffff16565b505050565b610fe48282612e26565b6110098160076000858152602001908152602001600020612ea990919063ffffffff16565b505050565b600b60009054906101000a900460ff1661105d576040517f08c379a00000000000000000000000000000000000000000000000000000000081526004016110549061520d565b60405180910390fd5b600f60009054906101000a900473ffffffffffffffffffffffffffffffffffffffff1673ffffffffffffffffffffffffffffffffffffffff163373ffffffffffffffffffffffffffffffffffffffff16146110ed576040517f08c379a00000000000000000000000000000000000000000000000000000000081526004016110e49061526d565b60405180910390fd5b6000600b60006101000a81548160ff0219169083151502179055507f5db9ee0a495bf2e6ff9c91a7834c1ba4fdd244a5e8aa4e537bd38aeae4b073aa6111316129b4565b60405161113e91906150bc565b60405180910390a1565b6111638383836040518060200160405280600081525061235b565b505050565b611172600a612a75565b60125461117f9190615733565b3410156111c1576040517f08c379a00000000000000000000000000000000000000000000000000000000081526004016111b89061552d565b60405180910390fd5b60005b6111ce600a612a75565b8110156112785760006111e0826118fa565b90508073ffffffffffffffffffffffffffffffffffffffff166108fc6012549081150290604051600060405180830381858888f1935050505015801561122a573d6000803e3d6000fd5b507fb3224bc7c2e6157092b5f650cc8b06e5f0c34d8218b6e9a1a5a39c2e43706e40818360405161125c9291906150d7565b60405180910390a150808061127090615913565b9150506111c4565b50565b600e60009054906101000a900473ffffffffffffffffffffffffffffffffffffffff1673ffffffffffffffffffffffffffffffffffffffff163373ffffffffffffffffffffffffffffffffffffffff161461130b576040517f08c379a00000000000000000000000000000000000000000000000000000000081526004016113029061532d565b60405180910390fd5b601354341015611350576040517f08c379a00000000000000000000000000000000000000000000000000000000081526004016113479061556d565b60405180910390fd5b60005b61135d600a612a75565b81101561141b57600061136f826118fa565b905061139e81600d60009054906101000a900473ffffffffffffffffffffffffffffffffffffffff1684612a83565b8073ffffffffffffffffffffffffffffffffffffffff166108fc6011549081150290604051600060405180830381858888f193505050501580156113e6573d6000803e3d6000fd5b506011546013546113f7919061578d565b601381905550611407600a612ed9565b50808061141390615913565b915050611353565b50565b6000600b60009054906101000a900460ff16905090565b60008073ffffffffffffffffffffffffffffffffffffffff168273ffffffffffffffffffffffffffffffffffffffff1614156114a6576040517f08c379a000000000000000000000000000000000000000000000000000000000815260040161149d906154ad565b60405180910390fd5b601460008373ffffffffffffffffffffffffffffffffffffffff1673ffffffffffffffffffffffffffffffffffffffff168152602001908152602001600020549050919050565b600d60009054906101000a900473ffffffffffffffffffffffffffffffffffffffff1673ffffffffffffffffffffffffffffffffffffffff163373ffffffffffffffffffffffffffffffffffffffff161461157d576040517f08c379a0000000000000000000000000000000000000000000000000000000008152600401611574906155ad565b60405180910390fd5b60005b600c805490508110156118f7576000600c82815481106115c9577f4e487b7100000000000000000000000000000000000000000000000000000000600052603260045260246000fd5b9060005260206000200160009054906101000a900473ffffffffffffffffffffffffffffffffffffffff1690506000601154601460008473ffffffffffffffffffffffffffffffffffffffff1673ffffffffffffffffffffffffffffffffffffffff168152602001908152602001600020546116459190615702565b9050600e60009054906101000a900473ffffffffffffffffffffffffffffffffffffffff1673ffffffffffffffffffffffffffffffffffffffff166108fc826011546116919190615733565b9081150290604051600060405180830381858888f193505050501580156116bc573d6000803e3d6000fd5b50601154816116cb9190615733565b601460008473ffffffffffffffffffffffffffffffffffffffff1673ffffffffffffffffffffffffffffffffffffffff168152602001908152602001600020541115611840578173ffffffffffffffffffffffffffffffffffffffff166108fc601154836117399190615733565b601460008673ffffffffffffffffffffffffffffffffffffffff1673ffffffffffffffffffffffffffffffffffffffff16815260200190815260200160002054611783919061578d565b9081150290604051600060405180830381858888f193505050501580156117ae573d6000803e3d6000fd5b507f2ee76d0c8417fef3c9f68663d321eb1c1ed0e089b5298177f0582aeadb6fd91f82601154836117df9190615733565b601460008673ffffffffffffffffffffffffffffffffffffffff1673ffffffffffffffffffffffffffffffffffffffff16815260200190815260200160002054611829919061578d565b60405161183792919061514c565b60405180910390a15b6000601460008473ffffffffffffffffffffffffffffffffffffffff1673ffffffffffffffffffffffffffffffffffffffff16815260200190815260200160002081905550806011546118939190615733565b6013546118a091906156ac565b60138190555060005b818110156118e1576118c4836118bf600a612a75565b612f35565b6118ce600a613103565b80806118d990615913565b9150506118a9565b50505080806118ef90615913565b915050611580565b50565b6000806002600084815260200190815260200160002060009054906101000a900473ffffffffffffffffffffffffffffffffffffffff169050600073ffffffffffffffffffffffffffffffffffffffff168173ffffffffffffffffffffffffffffffffffffffff1614156119a3576040517f08c379a000000000000000000000000000000000000000000000000000000000815260040161199a9061542d565b60405180910390fd5b80915050919050565b60008073ffffffffffffffffffffffffffffffffffffffff168273ffffffffffffffffffffffffffffffffffffffff161415611a1d576040517f08c379a0000000000000000000000000000000000000000000000000000000008152600401611a149061540d565b60405180910390fd5b600360008373ffffffffffffffffffffffffffffffffffffffff1673ffffffffffffffffffffffffffffffffffffffff168152602001908152602001600020549050919050565b611a6c6129b4565b73ffffffffffffffffffffffffffffffffffffffff16611a8a61206c565b73ffffffffffffffffffffffffffffffffffffffff1614611ae0576040517f08c379a0000000000000000000000000000000000000000000000000000000008152600401611ad79061548d565b60405180910390fd5b600073ffffffffffffffffffffffffffffffffffffffff16600860009054906101000a900473ffffffffffffffffffffffffffffffffffffffff1673ffffffffffffffffffffffffffffffffffffffff167f8be0079c531659141344cd1fd0a4f28419497f9722a3daafe3b4186f6b6457e060405160405180910390a36000600860006101000a81548173ffffffffffffffffffffffffffffffffffffffff021916908373ffffffffffffffffffffffffffffffffffffffff160217905550565b600d60009054906101000a900473ffffffffffffffffffffffffffffffffffffffff1673ffffffffffffffffffffffffffffffffffffffff163373ffffffffffffffffffffffffffffffffffffffff1614611c31576040517f08c379a0000000000000000000000000000000000000000000000000000000008152600401611c28906155ad565b60405180910390fd5b60115482611c3f9190615733565b601460008373ffffffffffffffffffffffffffffffffffffffff1673ffffffffffffffffffffffffffffffffffffffff168152602001908152602001600020541015611cc0576040517f08c379a0000000000000000000000000000000000000000000000000000000008152600401611cb79061538d565b60405180910390fd5b600e60009054906101000a900473ffffffffffffffffffffffffffffffffffffffff1673ffffffffffffffffffffffffffffffffffffffff166108fc83601154611d0a9190615733565b9081150290604051600060405180830381858888f19350505050158015611d35573d6000803e3d6000fd5b5060115482611d449190615733565b601460008373ffffffffffffffffffffffffffffffffffffffff1673ffffffffffffffffffffffffffffffffffffffff16815260200190815260200160002054611d8e919061578d565b601460008373ffffffffffffffffffffffffffffffffffffffff1673ffffffffffffffffffffffffffffffffffffffff1681526020019081526020016000208190555060115482611ddf9190615733565b601354611dec91906156ac565b60138190555060005b82811015611e2d57611e1082611e0b600a612a75565b612f35565b611e1a600a613103565b8080611e2590615913565b915050611df5565b505050565b600c8181548110611e4257600080fd5b906000526020600020016000915054906101000a900473ffffffffffffffffffffffffffffffffffffffff1681565b600b60009054906101000a900460ff1615611ec1576040517f08c379a0000000000000000000000000000000000000000000000000000000008152600401611eb8906153ad565b60405180910390fd5b600f60009054906101000a900473ffffffffffffffffffffffffffffffffffffffff1673ffffffffffffffffffffffffffffffffffffffff163373ffffffffffffffffffffffffffffffffffffffff1614611f51576040517f08c379a0000000000000000000000000000000000000000000000000000000008152600401611f48906153cd565b60405180910390fd5b6001600b60006101000a81548160ff0219169083151502179055507f62e78cea01bee320cd4e420270b5ea74000d11b0c9f74754ebdbfc544b05a258611f956129b4565b604051611fa291906150bc565b60405180910390a1565b611fb46129b4565b73ffffffffffffffffffffffffffffffffffffffff16611fd261206c565b73ffffffffffffffffffffffffffffffffffffffff1614612028576040517f08c379a000000000000000000000000000000000000000000000000000000000815260040161201f9061548d565b60405180910390fd5b80601060006101000a81548173ffffffffffffffffffffffffffffffffffffffff021916908373ffffffffffffffffffffffffffffffffffffffff16021790555050565b6000600860009054906101000a900473ffffffffffffffffffffffffffffffffffffffff16905090565b60006120bd826007600086815260200190815260200160002061311990919063ffffffff16565b905092915050565b60006006600084815260200190815260200160002060000160008373ffffffffffffffffffffffffffffffffffffffff1673ffffffffffffffffffffffffffffffffffffffff16815260200190815260200160002060009054906101000a900460ff16905092915050565b60606001805461213f906158e1565b80601f016020809104026020016040519081016040528092919081815260200182805461216b906158e1565b80156121b85780601f1061218d576101008083540402835291602001916121b8565b820191906000526020600020905b81548152906001019060200180831161219b57829003601f168201915b5050505050905090565b60006121ce600a612a75565b905090565b6000801b81565b6121e26129b4565b73ffffffffffffffffffffffffffffffffffffffff168273ffffffffffffffffffffffffffffffffffffffff161415612250576040517f08c379a00000000000000000000000000000000000000000000000000000000081526004016122479061530d565b60405180910390fd5b806005600061225d6129b4565b73ffffffffffffffffffffffffffffffffffffffff1673ffffffffffffffffffffffffffffffffffffffff16815260200190815260200160002060008473ffffffffffffffffffffffffffffffffffffffff1673ffffffffffffffffffffffffffffffffffffffff16815260200190815260200160002060006101000a81548160ff0219169083151502179055508173ffffffffffffffffffffffffffffffffffffffff1661230a6129b4565b73ffffffffffffffffffffffffffffffffffffffff167f17307eab39ab6107e8899845ad3d59bd9653f200f220920489ca2b5937696c318360405161234f9190615175565b60405180910390a35050565b61236c6123666129b4565b83612a93565b6123ab576040517f08c379a00000000000000000000000000000000000000000000000000000000081526004016123a29061554d565b60405180910390fd5b6123b784848484613133565b50505050565b60606123c882612948565b612407576040517f08c379a00000000000000000000000000000000000000000000000000000000081526004016123fe906154ed565b60405180910390fd5b600061241161318f565b90506000815111612431576040518060200160405280600081525061245c565b8061243b84613221565b60405160200161244c92919061505e565b6040516020818303038152906040525b915050919050565b6000612481600760008481526020019081526020016000206133ce565b9050919050565b6124906129b4565b73ffffffffffffffffffffffffffffffffffffffff166124ae61206c565b73ffffffffffffffffffffffffffffffffffffffff1614612504576040517f08c379a00000000000000000000000000000000000000000000000000000000081526004016124fb9061548d565b60405180910390fd5b80600f60006101000a81548173ffffffffffffffffffffffffffffffffffffffff021916908373ffffffffffffffffffffffffffffffffffffffff16021790555050565b61255282826133e3565b6125778160076000858152602001908152602001600020612ea990919063ffffffff16565b505050565b6000600560008473ffffffffffffffffffffffffffffffffffffffff1673ffffffffffffffffffffffffffffffffffffffff16815260200190815260200160002060008373ffffffffffffffffffffffffffffffffffffffff1673ffffffffffffffffffffffffffffffffffffffff16815260200190815260200160002060009054906101000a900460ff16905092915050565b601060009054906101000a900473ffffffffffffffffffffffffffffffffffffffff1673ffffffffffffffffffffffffffffffffffffffff163373ffffffffffffffffffffffffffffffffffffffff161461266a57600080fd5b8115612689578060125461267e91906156ac565b6012819055506126e3565b6012548111156126ce576040517f08c379a00000000000000000000000000000000000000000000000000000000081526004016126c59061534d565b60405180910390fd5b806012546126dc919061578d565b6012819055505b7fca1d6283d1b481c7291c2fc81205d98456d1c2948caa5f9460dd3e35ca34e4163360125460405161271692919061514c565b60405180910390a15050565b61272a6129b4565b73ffffffffffffffffffffffffffffffffffffffff1661274861206c565b73ffffffffffffffffffffffffffffffffffffffff161461279e576040517f08c379a00000000000000000000000000000000000000000000000000000000081526004016127959061548d565b60405180910390fd5b600073ffffffffffffffffffffffffffffffffffffffff168173ffffffffffffffffffffffffffffffffffffffff16141561280e576040517f08c379a00000000000000000000000000000000000000000000000000000000081526004016128059061528d565b60405180910390fd5b8073ffffffffffffffffffffffffffffffffffffffff16600860009054906101000a900473ffffffffffffffffffffffffffffffffffffffff1673ffffffffffffffffffffffffffffffffffffffff167f8be0079c531659141344cd1fd0a4f28419497f9722a3daafe3b4186f6b6457e060405160405180910390a380600860006101000a81548173ffffffffffffffffffffffffffffffffffffffff021916908373ffffffffffffffffffffffffffffffffffffffff16021790555050565b60007f5a05180f000000000000000000000000000000000000000000000000000000007bffffffffffffffffffffffffffffffffffffffffffffffffffffffff1916827bffffffffffffffffffffffffffffffffffffffffffffffffffffffff1916148061294157506129408261340c565b5b9050919050565b60008073ffffffffffffffffffffffffffffffffffffffff166002600084815260200190815260200160002060009054906101000a900473ffffffffffffffffffffffffffffffffffffffff1673ffffffffffffffffffffffffffffffffffffffff1614159050919050565b600033905090565b816004600083815260200190815260200160002060006101000a81548173ffffffffffffffffffffffffffffffffffffffff021916908373ffffffffffffffffffffffffffffffffffffffff160217905550808273ffffffffffffffffffffffffffffffffffffffff16612a2f836118fa565b73ffffffffffffffffffffffffffffffffffffffff167f8c5be1e5ebec7d5bd14f71427d1e84f3dd0314c0f7b2291e5b200ac8c7c3b92560405160405180910390a45050565b600081600001549050919050565b612a8e838383612b71565b505050565b6000612a9e82612948565b612add576040517f08c379a0000000000000000000000000000000000000000000000000000000008152600401612ad49061536d565b60405180910390fd5b6000612ae8836118fa565b90508073ffffffffffffffffffffffffffffffffffffffff168473ffffffffffffffffffffffffffffffffffffffff161480612b5757508373ffffffffffffffffffffffffffffffffffffffff16612b3f84610c0f565b73ffffffffffffffffffffffffffffffffffffffff16145b80612b685750612b67818561257c565b5b91505092915050565b8273ffffffffffffffffffffffffffffffffffffffff16612b91826118fa565b73ffffffffffffffffffffffffffffffffffffffff1614612be7576040517f08c379a0000000000000000000000000000000000000000000000000000000008152600401612bde906154cd565b60405180910390fd5b600073ffffffffffffffffffffffffffffffffffffffff168273ffffffffffffffffffffffffffffffffffffffff161415612c57576040517f08c379a0000000000000000000000000000000000000000000000000000000008152600401612c4e906152ed565b60405180910390fd5b612c62838383613486565b612c6d6000826129bc565b6001600360008573ffffffffffffffffffffffffffffffffffffffff1673ffffffffffffffffffffffffffffffffffffffff1681526020019081526020016000206000828254612cbd919061578d565b925050819055506001600360008473ffffffffffffffffffffffffffffffffffffffff1673ffffffffffffffffffffffffffffffffffffffff1681526020019081526020016000206000828254612d1491906156ac565b92505081905550816002600083815260200190815260200160002060006101000a81548173ffffffffffffffffffffffffffffffffffffffff021916908373ffffffffffffffffffffffffffffffffffffffff160217905550808273ffffffffffffffffffffffffffffffffffffffff168473ffffffffffffffffffffffffffffffffffffffff167fddf252ad1be2c89b69c2b068fc378daa952ba7f163c4a11628f55a4df523b3ef60405160405180910390a4505050565b612dd682610f86565b612de781612de26129b4565b61348b565b612df18383613528565b505050565b6000612e1e836000018373ffffffffffffffffffffffffffffffffffffffff1660001b613609565b905092915050565b612e2e6129b4565b73ffffffffffffffffffffffffffffffffffffffff168173ffffffffffffffffffffffffffffffffffffffff1614612e9b576040517f08c379a0000000000000000000000000000000000000000000000000000000008152600401612e929061558d565b60405180910390fd5b612ea58282613679565b5050565b6000612ed1836000018373ffffffffffffffffffffffffffffffffffffffff1660001b61375b565b905092915050565b60008160000154905060008111612f25576040517f08c379a0000000000000000000000000000000000000000000000000000000008152600401612f1c9061522d565b60405180910390fd5b6001810382600001819055505050565b600073ffffffffffffffffffffffffffffffffffffffff168273ffffffffffffffffffffffffffffffffffffffff161415612fa5576040517f08c379a0000000000000000000000000000000000000000000000000000000008152600401612f9c9061544d565b60405180910390fd5b612fae81612948565b15612fee576040517f08c379a0000000000000000000000000000000000000000000000000000000008152600401612fe5906152ad565b60405180910390fd5b612ffa60008383613486565b6001600360008473ffffffffffffffffffffffffffffffffffffffff1673ffffffffffffffffffffffffffffffffffffffff168152602001908152602001600020600082825461304a91906156ac565b92505081905550816002600083815260200190815260200160002060006101000a81548173ffffffffffffffffffffffffffffffffffffffff021916908373ffffffffffffffffffffffffffffffffffffffff160217905550808273ffffffffffffffffffffffffffffffffffffffff16600073ffffffffffffffffffffffffffffffffffffffff167fddf252ad1be2c89b69c2b068fc378daa952ba7f163c4a11628f55a4df523b3ef60405160405180910390a45050565b6001816000016000828254019250508190555050565b600061312883600001836138d9565b60001c905092915050565b61313e848484612b71565b61314a84848484613973565b613189576040517f08c379a00000000000000000000000000000000000000000000000000000000081526004016131809061524d565b60405180910390fd5b50505050565b60606009805461319e906158e1565b80601f01602080910402602001604051908101604052809291908181526020018280546131ca906158e1565b80156132175780601f106131ec57610100808354040283529160200191613217565b820191906000526020600020905b8154815290600101906020018083116131fa57829003601f168201915b5050505050905090565b60606000821415613269576040518060400160405280600181526020017f300000000000000000000000000000000000000000000000000000000000000081525090506133c9565b600082905060005b6000821461329b57808061328490615913565b915050600a826132949190615702565b9150613271565b60008167ffffffffffffffff8111156132dd577f4e487b7100000000000000000000000000000000000000000000000000000000600052604160045260246000fd5b6040519080825280601f01601f19166020018201604052801561330f5781602001600182028036833780820191505090505b5090505b600085146133c257600182613328919061578d565b9150600a85613337919061595c565b603061334391906156ac565b60f81b81838151811061337f577f4e487b7100000000000000000000000000000000000000000000000000000000600052603260045260246000fd5b60200101907effffffffffffffffffffffffffffffffffffffffffffffffffffffffffffff1916908160001a905350600a856133bb9190615702565b9450613313565b8093505050505b919050565b60006133dc82600001613b0a565b9050919050565b6133ec82610f86565b6133fd816133f86129b4565b61348b565b6134078383613679565b505050565b60007f7965db0b000000000000000000000000000000000000000000000000000000007bffffffffffffffffffffffffffffffffffffffffffffffffffffffff1916827bffffffffffffffffffffffffffffffffffffffffffffffffffffffff1916148061347f575061347e82613b1b565b5b9050919050565b505050565b61349582826120c5565b613524576134ba8173ffffffffffffffffffffffffffffffffffffffff166014613bfd565b6134c88360001c6020613bfd565b6040516020016134d9929190615082565b6040516020818303038152906040526040517f08c379a000000000000000000000000000000000000000000000000000000000815260040161351b91906151ab565b60405180910390fd5b5050565b61353282826120c5565b6136055760016006600084815260200190815260200160002060000160008373ffffffffffffffffffffffffffffffffffffffff1673ffffffffffffffffffffffffffffffffffffffff16815260200190815260200160002060006101000a81548160ff0219169083151502179055506135aa6129b4565b73ffffffffffffffffffffffffffffffffffffffff168173ffffffffffffffffffffffffffffffffffffffff16837f2f8788117e7eff1d82e926ec794901d17c78024a50270940304540a733656f0d60405160405180910390a45b5050565b60006136158383613ef7565b61366e578260000182908060018154018082558091505060019003906000526020600020016000909190919091505582600001805490508360010160008481526020019081526020016000208190555060019050613673565b600090505b92915050565b61368382826120c5565b156137575760006006600084815260200190815260200160002060000160008373ffffffffffffffffffffffffffffffffffffffff1673ffffffffffffffffffffffffffffffffffffffff16815260200190815260200160002060006101000a81548160ff0219169083151502179055506136fc6129b4565b73ffffffffffffffffffffffffffffffffffffffff168173ffffffffffffffffffffffffffffffffffffffff16837ff6391f5c32d9c69d2a47ea670b442974b53935d1edc7fd64eb21e047a839171b60405160405180910390a45b5050565b600080836001016000848152602001908152602001600020549050600081146138cd57600060018261378d919061578d565b90506000600186600001805490506137a5919061578d565b905060008660000182815481106137e5577f4e487b7100000000000000000000000000000000000000000000000000000000600052603260045260246000fd5b906000526020600020015490508087600001848154811061382f577f4e487b7100000000000000000000000000000000000000000000000000000000600052603260045260246000fd5b9060005260206000200181905550838760010160008381526020019081526020016000208190555086600001805480613891577f4e487b7100000000000000000000000000000000000000000000000000000000600052603160045260246000fd5b600190038181906000526020600020016000905590558660010160008781526020019081526020016000206000905560019450505050506138d3565b60009150505b92915050565b600081836000018054905011613924576040517f08c379a000000000000000000000000000000000000000000000000000000000815260040161391b906151cd565b60405180910390fd5b826000018281548110613960577f4e487b7100000000000000000000000000000000000000000000000000000000600052603260045260246000fd5b9060005260206000200154905092915050565b60006139948473ffffffffffffffffffffffffffffffffffffffff16613f1a565b15613afd578373ffffffffffffffffffffffffffffffffffffffff1663150b7a026139bd6129b4565b8786866040518563ffffffff1660e01b81526004016139df9493929190615100565b602060405180830381600087803b1580156139f957600080fd5b505af1925050508015613a2a57506040513d601f19601f82011682018060405250810190613a27919061432a565b60015b613aad573d8060008114613a5a576040519150601f19603f3d011682016040523d82523d6000602084013e613a5f565b606091505b50600081511415613aa5576040517f08c379a0000000000000000000000000000000000000000000000000000000008152600401613a9c9061524d565b60405180910390fd5b805181602001fd5b63150b7a0260e01b7bffffffffffffffffffffffffffffffffffffffffffffffffffffffff1916817bffffffffffffffffffffffffffffffffffffffffffffffffffffffff191614915050613b02565b600190505b949350505050565b600081600001805490509050919050565b60007f80ac58cd000000000000000000000000000000000000000000000000000000007bffffffffffffffffffffffffffffffffffffffffffffffffffffffff1916827bffffffffffffffffffffffffffffffffffffffffffffffffffffffff19161480613be657507f5b5e139f000000000000000000000000000000000000000000000000000000007bffffffffffffffffffffffffffffffffffffffffffffffffffffffff1916827bffffffffffffffffffffffffffffffffffffffffffffffffffffffff1916145b80613bf65750613bf582613f2d565b5b9050919050565b606060006002836002613c109190615733565b613c1a91906156ac565b67ffffffffffffffff811115613c59577f4e487b7100000000000000000000000000000000000000000000000000000000600052604160045260246000fd5b6040519080825280601f01601f191660200182016040528015613c8b5781602001600182028036833780820191505090505b5090507f300000000000000000000000000000000000000000000000000000000000000081600081518110613ce9577f4e487b7100000000000000000000000000000000000000000000000000000000600052603260045260246000fd5b60200101907effffffffffffffffffffffffffffffffffffffffffffffffffffffffffffff1916908160001a9053507f780000000000000000000000000000000000000000000000000000000000000081600181518110613d73577f4e487b7100000000000000000000000000000000000000000000000000000000600052603260045260246000fd5b60200101907effffffffffffffffffffffffffffffffffffffffffffffffffffffffffffff1916908160001a90535060006001846002613db39190615733565b613dbd91906156ac565b90505b6001811115613ea9577f3031323334353637383961626364656600000000000000000000000000000000600f861660108110613e25577f4e487b7100000000000000000000000000000000000000000000000000000000600052603260045260246000fd5b1a60f81b828281518110613e62577f4e487b7100000000000000000000000000000000000000000000000000000000600052603260045260246000fd5b60200101907effffffffffffffffffffffffffffffffffffffffffffffffffffffffffffff1916908160001a905350600485901c945080613ea2906158b7565b9050613dc0565b5060008414613eed576040517f08c379a0000000000000000000000000000000000000000000000000000000008152600401613ee4906151ed565b60405180910390fd5b8091505092915050565b600080836001016000848152602001908152602001600020541415905092915050565b600080823b905060008111915050919050565b60007f01ffc9a7000000000000000000000000000000000000000000000000000000007bffffffffffffffffffffffffffffffffffffffffffffffffffffffff1916827bffffffffffffffffffffffffffffffffffffffffffffffffffffffff1916149050919050565b6000613faa613fa584615639565b615608565b905082815260208101848484011115613fc257600080fd5b613fcd848285615875565b509392505050565b600081359050613fe481615a5a565b92915050565b600081359050613ff981615a71565b92915050565b60008135905061400e81615a88565b92915050565b60008135905061402381615a9f565b92915050565b60008151905061403881615a9f565b92915050565b600082601f83011261404f57600080fd5b813561405f848260208601613f97565b91505092915050565b60008135905061407781615ab6565b92915050565b60006020828403121561408f57600080fd5b600061409d84828501613fd5565b91505092915050565b600080604083850312156140b957600080fd5b60006140c785828601613fd5565b92505060206140d885828601613fd5565b9150509250929050565b6000806000606084860312156140f757600080fd5b600061410586828701613fd5565b935050602061411686828701613fd5565b925050604061412786828701614068565b9150509250925092565b6000806000806080858703121561414757600080fd5b600061415587828801613fd5565b945050602061416687828801613fd5565b935050604061417787828801614068565b925050606085013567ffffffffffffffff81111561419457600080fd5b6141a08782880161403e565b91505092959194509250565b600080604083850312156141bf57600080fd5b60006141cd85828601613fd5565b92505060206141de85828601613fea565b9150509250929050565b600080604083850312156141fb57600080fd5b600061420985828601613fd5565b925050602061421a85828601614068565b9150509250929050565b6000806040838503121561423757600080fd5b600061424585828601613fea565b925050602061425685828601614068565b9150509250929050565b60006020828403121561427257600080fd5b600061428084828501613fff565b91505092915050565b6000806040838503121561429c57600080fd5b60006142aa85828601613fff565b92505060206142bb85828601613fd5565b9150509250929050565b600080604083850312156142d857600080fd5b60006142e685828601613fff565b92505060206142f785828601614068565b9150509250929050565b60006020828403121561431357600080fd5b600061432184828501614014565b91505092915050565b60006020828403121561433c57600080fd5b600061434a84828501614029565b91505092915050565b60006020828403121561436557600080fd5b600061437384828501614068565b91505092915050565b6000806040838503121561438f57600080fd5b600061439d85828601614068565b92505060206143ae85828601613fd5565b9150509250929050565b6143c18161583f565b82525050565b6143d0816157c1565b82525050565b6143df816157d3565b82525050565b6143ee816157df565b82525050565b60006143ff82615669565b614409818561567f565b9350614419818560208601615884565b61442281615a49565b840191505092915050565b600061443882615674565b6144428185615690565b9350614452818560208601615884565b61445b81615a49565b840191505092915050565b600061447182615674565b61447b81856156a1565b935061448b818560208601615884565b80840191505092915050565b60006144a4602283615690565b91507f456e756d657261626c655365743a20696e646578206f7574206f6620626f756e60008301527f64730000000000000000000000000000000000000000000000000000000000006020830152604082019050919050565b600061450a602083615690565b91507f537472696e67733a20686578206c656e67746820696e73756666696369656e746000830152602082019050919050565b600061454a601483615690565b91507f5061757361626c653a206e6f74207061757365640000000000000000000000006000830152602082019050919050565b600061458a601b83615690565b91507f436f756e7465723a2064656372656d656e74206f766572666c6f7700000000006000830152602082019050919050565b60006145ca603283615690565b91507f4552433732313a207472616e7366657220746f206e6f6e20455243373231526560008301527f63656976657220696d706c656d656e74657200000000000000000000000000006020830152604082019050919050565b6000614630602283615690565b91507f556e7061757365722063616e206f6e6c792062652074686520726567756c617460008301527f6f720000000000000000000000000000000000000000000000000000000000006020830152604082019050919050565b6000614696602683615690565b91507f4f776e61626c653a206e6577206f776e657220697320746865207a65726f206160008301527f64647265737300000000000000000000000000000000000000000000000000006020830152604082019050919050565b60006146fc601c83615690565b91507f4552433732313a20746f6b656e20616c7265616479206d696e746564000000006000830152602082019050919050565b600061473c602d83615690565b91507f54686572652773206e6f7420656e6f75676820737461626c6520636f696e206660008301527f6f7220736574746c656d656e74000000000000000000000000000000000000006020830152604082019050919050565b60006147a2602483615690565b91507f4552433732313a207472616e7366657220746f20746865207a65726f2061646460008301527f72657373000000000000000000000000000000000000000000000000000000006020830152604082019050919050565b6000614808601983615690565b91507f4552433732313a20617070726f766520746f2063616c6c6572000000000000006000830152602082019050919050565b6000614848602e83615690565b91507f506179696e6720636f6d70616e792073686f756c642062652074686520626f7260008301527f726f77696e6720636f6d70616e790000000000000000000000000000000000006020830152604082019050919050565b60006148ae602083615690565b91507f436f75706f6e207061796d656e742063616e2774206265206e656761746976656000830152602082019050919050565b60006148ee602c83615690565b91507f4552433732313a206f70657261746f7220717565727920666f72206e6f6e657860008301527f697374656e7420746f6b656e00000000000000000000000000000000000000006020830152604082019050919050565b6000614954602c83615690565b91507f496e766573746f7220686173206e6f7420656e6f7567682066756e647320666f60008301527f722074686520746f6b656e7300000000000000000000000000000000000000006020830152604082019050919050565b60006149ba601083615690565b91507f5061757361626c653a20706175736564000000000000000000000000000000006000830152602082019050919050565b60006149fa602083615690565b91507f5061757365722063616e206f6e6c792062652074686520726567756c61746f726000830152602082019050919050565b6000614a3a603883615690565b91507f4552433732313a20617070726f76652063616c6c6572206973206e6f74206f7760008301527f6e6572206e6f7220617070726f76656420666f7220616c6c00000000000000006020830152604082019050919050565b6000614aa0602a83615690565b91507f4552433732313a2062616c616e636520717565727920666f7220746865207a6560008301527f726f2061646472657373000000000000000000000000000000000000000000006020830152604082019050919050565b6000614b06602983615690565b91507f4552433732313a206f776e657220717565727920666f72206e6f6e657869737460008301527f656e7420746f6b656e00000000000000000000000000000000000000000000006020830152604082019050919050565b6000614b6c602083615690565b91507f4552433732313a206d696e7420746f20746865207a65726f20616464726573736000830152602082019050919050565b6000614bac602c83615690565b91507f4552433732313a20617070726f76656420717565727920666f72206e6f6e657860008301527f697374656e7420746f6b656e00000000000000000000000000000000000000006020830152604082019050919050565b6000614c12602083615690565b91507f4f776e61626c653a2063616c6c6572206973206e6f7420746865206f776e65726000830152602082019050919050565b6000614c52602283615690565b91507f42616c616e636520717565727920666f7220746865207a65726f20616464726560008301527f73730000000000000000000000000000000000000000000000000000000000006020830152604082019050919050565b6000614cb8602983615690565b91507f4552433732313a207472616e73666572206f6620746f6b656e2074686174206960008301527f73206e6f74206f776e00000000000000000000000000000000000000000000006020830152604082019050919050565b6000614d1e602f83615690565b91507f4552433732314d657461646174613a2055524920717565727920666f72206e6f60008301527f6e6578697374656e7420746f6b656e00000000000000000000000000000000006020830152604082019050919050565b6000614d84602183615690565b91507f4552433732313a20617070726f76616c20746f2063757272656e74206f776e6560008301527f72000000000000000000000000000000000000000000000000000000000000006020830152604082019050919050565b6000614dea601c83615690565b91507f4e6f7420656e6f75676820636f696e7320666f7220636f75706f6e73000000006000830152602082019050919050565b6000614e2a603183615690565b91507f4552433732313a207472616e736665722063616c6c6572206973206e6f74206f60008301527f776e6572206e6f7220617070726f7665640000000000000000000000000000006020830152604082019050919050565b6000614e90602f83615690565b91507f4e6f7420656e6f75676820636f696e7320746f20736574746c6520746865206260008301527f6f6e64206174206d6174757269747900000000000000000000000000000000006020830152604082019050919050565b6000614ef66017836156a1565b91507f416363657373436f6e74726f6c3a206163636f756e74200000000000000000006000830152601782019050919050565b6000614f366011836156a1565b91507f206973206d697373696e6720726f6c65200000000000000000000000000000006000830152601182019050919050565b6000614f76602f83615690565b91507f416363657373436f6e74726f6c3a2063616e206f6e6c792072656e6f756e636560008301527f20726f6c657320666f722073656c6600000000000000000000000000000000006020830152604082019050919050565b6000614fdc601a83615690565b91507f4f6e6c79206f776e65722063616e206d696e7420746f6b656e730000000000006000830152602082019050919050565b600061501c601f83615690565b91507f6e6f7420656e6f75676820636f696e7320666f722074686520616d6f756e74006000830152602082019050919050565b61505881615835565b82525050565b600061506a8285614466565b91506150768284614466565b91508190509392505050565b600061508d82614ee9565b91506150998285614466565b91506150a482614f29565b91506150b08284614466565b91508190509392505050565b60006020820190506150d160008301846143c7565b92915050565b60006040820190506150ec60008301856143b8565b6150f9602083018461504f565b9392505050565b600060808201905061511560008301876143c7565b61512260208301866143c7565b61512f604083018561504f565b818103606083015261514181846143f4565b905095945050505050565b600060408201905061516160008301856143c7565b61516e602083018461504f565b9392505050565b600060208201905061518a60008301846143d6565b92915050565b60006020820190506151a560008301846143e5565b92915050565b600060208201905081810360008301526151c5818461442d565b905092915050565b600060208201905081810360008301526151e681614497565b9050919050565b60006020820190508181036000830152615206816144fd565b9050919050565b600060208201905081810360008301526152268161453d565b9050919050565b600060208201905081810360008301526152468161457d565b9050919050565b60006020820190508181036000830152615266816145bd565b9050919050565b6000602082019050818103600083015261528681614623565b9050919050565b600060208201905081810360008301526152a681614689565b9050919050565b600060208201905081810360008301526152c6816146ef565b9050919050565b600060208201905081810360008301526152e68161472f565b9050919050565b6000602082019050818103600083015261530681614795565b9050919050565b60006020820190508181036000830152615326816147fb565b9050919050565b600060208201905081810360008301526153468161483b565b9050919050565b60006020820190508181036000830152615366816148a1565b9050919050565b60006020820190508181036000830152615386816148e1565b9050919050565b600060208201905081810360008301526153a681614947565b9050919050565b600060208201905081810360008301526153c6816149ad565b9050919050565b600060208201905081810360008301526153e6816149ed565b9050919050565b6000602082019050818103600083015261540681614a2d565b9050919050565b6000602082019050818103600083015261542681614a93565b9050919050565b6000602082019050818103600083015261544681614af9565b9050919050565b6000602082019050818103600083015261546681614b5f565b9050919050565b6000602082019050818103600083015261548681614b9f565b9050919050565b600060208201905081810360008301526154a681614c05565b9050919050565b600060208201905081810360008301526154c681614c45565b9050919050565b600060208201905081810360008301526154e681614cab565b9050919050565b6000602082019050818103600083015261550681614d11565b9050919050565b6000602082019050818103600083015261552681614d77565b9050919050565b6000602082019050818103600083015261554681614ddd565b9050919050565b6000602082019050818103600083015261556681614e1d565b9050919050565b6000602082019050818103600083015261558681614e83565b9050919050565b600060208201905081810360008301526155a681614f69565b9050919050565b600060208201905081810360008301526155c681614fcf565b9050919050565b600060208201905081810360008301526155e68161500f565b9050919050565b6000602082019050615602600083018461504f565b92915050565b6000604051905081810181811067ffffffffffffffff8211171561562f5761562e615a1a565b5b8060405250919050565b600067ffffffffffffffff82111561565457615653615a1a565b5b601f19601f8301169050602081019050919050565b600081519050919050565b600081519050919050565b600082825260208201905092915050565b600082825260208201905092915050565b600081905092915050565b60006156b782615835565b91506156c283615835565b9250827fffffffffffffffffffffffffffffffffffffffffffffffffffffffffffffffff038211156156f7576156f661598d565b5b828201905092915050565b600061570d82615835565b915061571883615835565b925082615728576157276159bc565b5b828204905092915050565b600061573e82615835565b915061574983615835565b9250817fffffffffffffffffffffffffffffffffffffffffffffffffffffffffffffffff04831182151516156157825761578161598d565b5b828202905092915050565b600061579882615835565b91506157a383615835565b9250828210156157b6576157b561598d565b5b828203905092915050565b60006157cc82615815565b9050919050565b60008115159050919050565b6000819050919050565b60007fffffffff0000000000000000000000000000000000000000000000000000000082169050919050565b600073ffffffffffffffffffffffffffffffffffffffff82169050919050565b6000819050919050565b600061584a82615851565b9050919050565b600061585c82615863565b9050919050565b600061586e82615815565b9050919050565b82818337600083830152505050565b60005b838110156158a2578082015181840152602081019050615887565b838111156158b1576000848401525b50505050565b60006158c282615835565b915060008214156158d6576158d561598d565b5b600182039050919050565b600060028204905060018216806158f957607f821691505b6020821081141561590d5761590c6159eb565b5b50919050565b600061591e82615835565b91507fffffffffffffffffffffffffffffffffffffffffffffffffffffffffffffffff8214156159515761595061598d565b5b600182019050919050565b600061596782615835565b915061597283615835565b925082615982576159816159bc565b5b828206905092915050565b7f4e487b7100000000000000000000000000000000000000000000000000000000600052601160045260246000fd5b7f4e487b7100000000000000000000000000000000000000000000000000000000600052601260045260246000fd5b7f4e487b7100000000000000000000000000000000000000000000000000000000600052602260045260246000fd5b7f4e487b7100000000000000000000000000000000000000000000000000000000600052604160045260246000fd5b6000601f19601f8301169050919050565b615a63816157c1565b8114615a6e57600080fd5b50565b615a7a816157d3565b8114615a8557600080fd5b50565b615a91816157df565b8114615a9c57600080fd5b50565b615aa8816157e9565b8114615ab357600080fd5b50565b615abf81615835565b8114615aca57600080fd5b5056fea26469706673582212204395daabe179939bdd20b3bc1fe94ed5ce62dd04e88f3dd8d7348ff73647b5c964736f6c63430008000033",
  "immutableReferences": {},
  "source": "// SPDX-License-Identifier: MIT\npragma solidity >=0.6.0;\n\nimport \"@openzeppelin/contracts/token/ERC721/ERC721.sol\";\nimport \"@openzeppelin/contracts/access/AccessControlEnumerable.sol\";\nimport \"@openzeppelin/contracts/access/Ownable.sol\";\nimport \"@openzeppelin/contracts/utils/Counters.sol\";\n\ncontract GreenBond is ERC721, AccessControlEnumerable, Ownable{\n    using Counters for Counters.Counter;\n\n    string private _baseTokenURI;\n    Counters.Counter private _tokenIdTracker;\n    bool private _paused;\n\n    address [] public _investors;\n\n    address _owner;\n    address payable _company;\n    address _regulator; // this could be hard coded\n    address _greenVerifier;\n    uint256 _value;\n    uint256 _coupon;\n    uint256 _totalValueRaisedRaised;\n\n    /**\n     * @dev Emitted when an investor registers initial investment request\n     */\n    event Investment(address investor, uint256 value);\n    \n    /**\n     * @dev Emitted when coins are refunded to the investor in case there are\n            too many coins for the investment\n     */\n    event CoinRefund(address investor, uint256 value);\n    \n    /**\n     * @dev Emitted when a coupon payment has been made\n     */\n    event CouponPayment(address investor, uint256 tokenId);\n\n    /**\n     * @dev Emitted when the pause is triggered by a pauser (regulator).\n     */\n    event Paused(address account);\n\n    /**\n     * @dev Emitted when the pause is lifted by a pauser (regulator).\n     */\n    event Unpaused(address account);\n\n    /**\n     * @dev Emmitted when coupon payment is adjusted\n     */\n    event CouponAdjustment(address adjuster, uint256 couponRate);\n\n    mapping (address => uint256) _investedAmountPerInvestor;\n\n    //bytes32 public constant MINTER_ROLE = keccak256(\"MINTER_ROLE\");\n    \n    // Will need to add pauser address as constructor parameter (financial regulator)\n    constructor(string memory name, string memory symbol, string memory baseTokenURI, \n    address company, uint256 value, uint256 coupon) ERC721 (name, symbol) {\n        require(coupon >= 0, \"Coupon payment can't be negative\");\n        _owner = msg.sender;\n        _baseTokenURI = baseTokenURI;\n        _company = payable(company);\n        _value = value;\n        _coupon = coupon;\n        _paused = false;\n\n        //_setupRole(MINTER_ROLE, _msgSender());    \n    }\n\n    \n    function getValue() public view returns(uint256) {\n        return _value;\n    }\n\n    function getCoupon() public view returns(uint256) {\n        return _coupon;\n    }\n\n    function numberOfInvestors() public view returns(uint256) {\n        return _investors.length;\n    }\n    \n    function tokenCount() public view returns(uint256) {\n        return _tokenIdTracker.current();\n    }\n    \n    \n    function getName() public view returns(string memory) {\n        return name();\n    }\n    \n\n    function setRegulator(address regulator) public onlyOwner {\n        _regulator = regulator;\n    }\n\n    function setGreenVerifier(address greenVerifier) public onlyOwner {\n        _greenVerifier = greenVerifier;\n    }\n\n    function getInvestorBalance(address investor) public view returns (uint){\n        require(investor != address(0), \"Balance query for the zero address\");\n        return _investedAmountPerInvestor[investor];\n    }\n\n    function _baseURI() internal view override returns (string memory) {\n        return _baseTokenURI;\n    }\n\n    // Needed to override this function as two parent classes defined the same function\n    function supportsInterface(bytes4 interfaceId) public view virtual override(AccessControlEnumerable, ERC721) returns (bool) {\n        return super.supportsInterface(interfaceId);\n    }\n\n    // Function to register investment interest (requires staking money on the contract)\n    function registerInvestment(uint256 number) public payable {\n        // Require that the investor has enough coins\n        require(msg.value >= number * _value, \"not enough coins for the amount\");\n\n        // Check if investor already on the list\n        if (_investedAmountPerInvestor[msg.sender] == 0) {\n            _investors.push(msg.sender);\n        }\n        \n        // Register the investment\n        uint256 currentAmount = _investedAmountPerInvestor[msg.sender];\n        _investedAmountPerInvestor[msg.sender] = currentAmount + msg.value;\n        // Emit event\n        emit Investment(msg.sender, msg.value);\n    }\n\n\n    // Function to issue tokens for registered investors\n    // Assumes all investors will get tokens\n    function issueTokens() external {\n        require(msg.sender == _owner, \"Only owner can mint tokens\");\n        //require(hasRole(MINTER_ROLE, _msgSender()), \"Minter must have minter role to mint\");\n\n        // Iterate through each investor\n        for (uint i = 0; i < _investors.length; i++) {\n            address investor = _investors[i];\n            uint256 numberOfTokens = _investedAmountPerInvestor[investor] / _value;\n            _company.transfer(_value * numberOfTokens); \n            \n            // If the invested amount would be greated than the amount needed for investment\n            // Return the remainder back to the investor\n            if (_investedAmountPerInvestor[investor] > numberOfTokens * _value) {\n                payable(investor).transfer(_investedAmountPerInvestor[investor] - numberOfTokens * _value);\n                emit CoinRefund(investor, _investedAmountPerInvestor[investor] - numberOfTokens * _value);\n            }\n\n            // Update the records\n            _investedAmountPerInvestor[investor] = 0;\n            _totalValueRaisedRaised = _totalValueRaisedRaised + _value * numberOfTokens;\n\n            // Issue tokens\n            for (uint j = 0; j < numberOfTokens; j++) {  \n                _mint(investor, _tokenIdTracker.current());\n                _tokenIdTracker.increment();\n            }\n        }\n    }\n    // Requires that the minter has minter role\n    // Automatically creates tokenURI with baseURI concatenated with TokenId\n    function issueTokens(uint256 numberOfTokens, address to) public payable {\n        require(msg.sender == _owner, \"Only owner can mint tokens\");\n        //require(hasRole(MINTER_ROLE, _msgSender()), \"Minter must have minter role to mint\");\n\n        // Transfer the money to the issuer\n        //require(msg.value >= _value * numberOfTokens, \"Not enough money send for the tokens\");\n        require(_investedAmountPerInvestor[to] >= numberOfTokens * _value, \"Investor has not enough funds for the tokens\");\n        //_company.transfer(msg.value);\n        //_totalValueRaisedRaised = _totalValueRaisedRaised + msg.value;\n\n        // Transfer coins and reduce the investors investment balance\n        _company.transfer(_value * numberOfTokens); \n        _investedAmountPerInvestor[to] = _investedAmountPerInvestor[to] - numberOfTokens * _value;\n        _totalValueRaisedRaised = _totalValueRaisedRaised + numberOfTokens * _value;\n\n        for (uint i = 0; i < numberOfTokens; i++) {  \n            _mint(to, _tokenIdTracker.current());\n            _tokenIdTracker.increment();\n        }\n    }\n\n    // Function for the borrowing company to pay coupons\n    function payCoupons() public payable {\n        // Message needs to have enough value for the copupon payments\n        require(msg.value >= _coupon * _tokenIdTracker.current(), \"Not enough coins for coupons\");\n        for (uint i = 0; i < _tokenIdTracker.current(); i++) {\n            address payable investor = payable(ownerOf(i));\n            investor.transfer(_coupon);\n            emit CouponPayment(investor, i);\n        }\n    }\n\n    // This function should be called by the borrowing company\n    function payBackBond() public payable {\n        require(msg.sender == _company, \"Paying company should be the borrowing company\");\n        require(msg.value >= _totalValueRaisedRaised, \"Not enough coins to settle the bond at maturity\");\n        \n        // Interate through the tokens\n        for(uint i = 0; i < _tokenIdTracker.current(); i++) {\n            address payable investor = payable(ownerOf(i));\n            // Transfer token from investor to owner\n            tokenTransfer(investor, _owner, i);\n            // Return funds\n            investor.transfer(_value);\n            // Decrement the values\n            _totalValueRaisedRaised = _totalValueRaisedRaised - _value;\n            _tokenIdTracker.decrement();\n        }\n    }\n\n    // Not needed anymore\n    function returnTokensAtMaturity() external onlyOwner {\n        // Check that the contract has the right amount of money to send back to the investors\n        require(address(this).balance >= _totalValueRaisedRaised, \"There's not enough stable coin for settlement\");\n        for(uint i = 0; i < _tokenIdTracker.current(); i++) {\n            address payable investor = payable(ownerOf(i));\n            // Get the tokens back\n            tokenTransfer(investor, owner(), i);\n            // Return the stable coin value\n            investor.transfer(_value);    \n        }\n    }\n\n    // WILL NEED TO ADD VALUE TRANSFER NEXT\n    function tokenTransfer(address from, address to, uint256 tokenId) internal {\n        _transfer(from, to, tokenId);\n    }\n\n    // Pauser functions\n    /**\n     * @dev Returns true if the contract is paused, and false otherwise.\n     */\n    function paused() public view returns (bool) {\n        return _paused;\n    }\n\n    /**\n     * @dev Modifier to make a function callable only when the contract is not paused.\n     */\n    modifier whenNotPaused() {\n        require(!_paused, \"Pausable: paused\");\n        _;\n    }\n\n    /**\n     * @dev Modifier to make a function callable only when the contract is paused.\n     */\n    modifier whenPaused() {\n        require(_paused, \"Pausable: not paused\");\n        _;\n    }\n\n    /**\n     * @dev Called by a pauser to pause, triggers stopped state.\n     */\n    function pause() public whenNotPaused {\n        require(msg.sender == _regulator, \"Pauser can only be the regulator\");\n        _paused = true;\n        emit Paused(_msgSender());\n    }\n\n    /**\n     * @dev Called by a pauser to unpause, returns to normal state.\n     */\n    function unpause() public whenPaused {\n        require(msg.sender == _regulator, \"Unpauser can only be the regulator\");\n        _paused = false;\n        emit Unpaused(_msgSender());\n    }\n\n    function adjustCoupon(bool increase, uint256 amount) external {\n        require(msg.sender == _greenVerifier);\n        if (increase){\n            _coupon = _coupon + amount;\n        } else {\n            require(amount <= _coupon, \"Coupon payment can't be negative\");\n            _coupon = _coupon - amount;\n        }\n        emit CouponAdjustment(msg.sender, _coupon);\n    }\n\n}",
  "sourcePath": "/Users/leena/Documents/Coding/Blockchain_Green_Bonds/testProjects/OZ_test/contracts/GreenBond.sol",
  "compiler": {
    "name": "solc",
    "version": "0.8.0+commit.c7dfd78e.Emscripten.clang"
  },
  "schemaVersion": "3.3.4",
  "updatedAt": "2021-07-01T12:04:06.113Z",
  "networkType": "ethereum",
  "devdoc": {
    "events": {
      "CoinRefund(address,uint256)": {
        "details": "Emitted when coins are refunded to the investor in case there are too many coins for the investment"
      },
      "CouponAdjustment(address,uint256)": {
        "details": "Emmitted when coupon payment is adjusted"
      },
      "CouponPayment(address,uint256)": {
        "details": "Emitted when a coupon payment has been made"
      },
      "Investment(address,uint256)": {
        "details": "Emitted when an investor registers initial investment request"
      },
      "Paused(address)": {
        "details": "Emitted when the pause is triggered by a pauser (regulator)."
      },
      "Unpaused(address)": {
        "details": "Emitted when the pause is lifted by a pauser (regulator)."
      }
    },
    "kind": "dev",
    "methods": {
      "approve(address,uint256)": {
        "details": "See {IERC721-approve}."
      },
      "balanceOf(address)": {
        "details": "See {IERC721-balanceOf}."
      },
      "getApproved(uint256)": {
        "details": "See {IERC721-getApproved}."
      },
      "getRoleAdmin(bytes32)": {
        "details": "Returns the admin role that controls `role`. See {grantRole} and {revokeRole}. To change a role's admin, use {_setRoleAdmin}."
      },
      "getRoleMember(bytes32,uint256)": {
        "details": "Returns one of the accounts that have `role`. `index` must be a value between 0 and {getRoleMemberCount}, non-inclusive. Role bearers are not sorted in any particular way, and their ordering may change at any point. WARNING: When using {getRoleMember} and {getRoleMemberCount}, make sure you perform all queries on the same block. See the following https://forum.openzeppelin.com/t/iterating-over-elements-on-enumerableset-in-openzeppelin-contracts/2296[forum post] for more information."
      },
      "getRoleMemberCount(bytes32)": {
        "details": "Returns the number of accounts that have `role`. Can be used together with {getRoleMember} to enumerate all bearers of a role."
      },
      "grantRole(bytes32,address)": {
        "details": "Overload {grantRole} to track enumerable memberships"
      },
      "hasRole(bytes32,address)": {
        "details": "Returns `true` if `account` has been granted `role`."
      },
      "isApprovedForAll(address,address)": {
        "details": "See {IERC721-isApprovedForAll}."
      },
      "name()": {
        "details": "See {IERC721Metadata-name}."
      },
      "owner()": {
        "details": "Returns the address of the current owner."
      },
      "ownerOf(uint256)": {
        "details": "See {IERC721-ownerOf}."
      },
      "pause()": {
        "details": "Called by a pauser to pause, triggers stopped state."
      },
      "paused()": {
        "details": "Returns true if the contract is paused, and false otherwise."
      },
      "renounceOwnership()": {
        "details": "Leaves the contract without owner. It will not be possible to call `onlyOwner` functions anymore. Can only be called by the current owner. NOTE: Renouncing ownership will leave the contract without an owner, thereby removing any functionality that is only available to the owner."
      },
      "renounceRole(bytes32,address)": {
        "details": "Overload {renounceRole} to track enumerable memberships"
      },
      "revokeRole(bytes32,address)": {
        "details": "Overload {revokeRole} to track enumerable memberships"
      },
      "safeTransferFrom(address,address,uint256)": {
        "details": "See {IERC721-safeTransferFrom}."
      },
      "safeTransferFrom(address,address,uint256,bytes)": {
        "details": "See {IERC721-safeTransferFrom}."
      },
      "setApprovalForAll(address,bool)": {
        "details": "See {IERC721-setApprovalForAll}."
      },
      "symbol()": {
        "details": "See {IERC721Metadata-symbol}."
      },
      "tokenURI(uint256)": {
        "details": "See {IERC721Metadata-tokenURI}."
      },
      "transferFrom(address,address,uint256)": {
        "details": "See {IERC721-transferFrom}."
      },
      "transferOwnership(address)": {
        "details": "Transfers ownership of the contract to a new account (`newOwner`). Can only be called by the current owner."
      },
      "unpause()": {
        "details": "Called by a pauser to unpause, returns to normal state."
      }
    },
    "version": 1
  },
  "userdoc": {
    "kind": "user",
    "methods": {},
    "version": 1
  }
}