{
  "contractName": "GreenBond",
  "abi": [
    {
      "inputs": [
        {
          "internalType": "address",
          "name": "company",
          "type": "address"
        },
        {
          "internalType": "string",
          "name": "name",
          "type": "string"
        },
        {
          "internalType": "string",
          "name": "symbol",
          "type": "string"
        },
        {
          "internalType": "uint256",
          "name": "numberOfBondsSeeked",
          "type": "uint256"
        },
        {
          "internalType": "uint256",
          "name": "minCoupon",
          "type": "uint256"
        },
        {
          "internalType": "uint256",
          "name": "maxCoupon",
          "type": "uint256"
        },
        {
          "internalType": "uint256",
          "name": "bidClosingTime",
          "type": "uint256"
        },
        {
          "internalType": "uint256",
          "name": "term",
          "type": "uint256"
        },
        {
          "internalType": "uint256",
          "name": "couponsPerYear",
          "type": "uint256"
        },
        {
          "internalType": "string",
          "name": "baseBondURI",
          "type": "string"
        }
      ],
      "stateMutability": "nonpayable",
      "type": "constructor"
    },
    {
      "anonymous": false,
      "inputs": [
        {
          "indexed": true,
          "internalType": "address",
          "name": "owner",
          "type": "address"
        },
        {
          "indexed": true,
          "internalType": "address",
          "name": "approved",
          "type": "address"
        },
        {
          "indexed": true,
          "internalType": "uint256",
          "name": "tokenId",
          "type": "uint256"
        }
      ],
      "name": "Approval",
      "type": "event"
    },
    {
      "anonymous": false,
      "inputs": [
        {
          "indexed": true,
          "internalType": "address",
          "name": "owner",
          "type": "address"
        },
        {
          "indexed": true,
          "internalType": "address",
          "name": "operator",
          "type": "address"
        },
        {
          "indexed": false,
          "internalType": "bool",
          "name": "approved",
          "type": "bool"
        }
      ],
      "name": "ApprovalForAll",
      "type": "event"
    },
    {
      "anonymous": false,
      "inputs": [
        {
          "indexed": false,
          "internalType": "address",
          "name": "bidder",
          "type": "address"
        },
        {
          "indexed": false,
          "internalType": "uint256",
          "name": "coupon",
          "type": "uint256"
        },
        {
          "indexed": false,
          "internalType": "uint256",
          "name": "numberOfBonds",
          "type": "uint256"
        }
      ],
      "name": "Bid",
      "type": "event"
    },
    {
      "anonymous": false,
      "inputs": [
        {
          "indexed": false,
          "internalType": "uint256",
          "name": "actualDemand",
          "type": "uint256"
        },
        {
          "indexed": false,
          "internalType": "uint256",
          "name": "requestedDemand",
          "type": "uint256"
        }
      ],
      "name": "CancelBondIssue",
      "type": "event"
    },
    {
      "anonymous": false,
      "inputs": [
        {
          "indexed": false,
          "internalType": "address",
          "name": "account",
          "type": "address"
        },
        {
          "indexed": false,
          "internalType": "uint256",
          "name": "value",
          "type": "uint256"
        }
      ],
      "name": "CoinRefund",
      "type": "event"
    },
    {
      "anonymous": false,
      "inputs": [
        {
          "indexed": false,
          "internalType": "uint256",
          "name": "from",
          "type": "uint256"
        },
        {
          "indexed": false,
          "internalType": "uint256",
          "name": "to",
          "type": "uint256"
        }
      ],
      "name": "CouponAdjustment",
      "type": "event"
    },
    {
      "anonymous": false,
      "inputs": [
        {
          "indexed": false,
          "internalType": "address",
          "name": "investor",
          "type": "address"
        },
        {
          "indexed": false,
          "internalType": "uint256",
          "name": "bondId",
          "type": "uint256"
        }
      ],
      "name": "CouponPayment",
      "type": "event"
    },
    {
      "anonymous": false,
      "inputs": [
        {
          "indexed": false,
          "internalType": "uint256",
          "name": "coupon",
          "type": "uint256"
        }
      ],
      "name": "CouponSet",
      "type": "event"
    },
    {
      "anonymous": false,
      "inputs": [
        {
          "indexed": false,
          "internalType": "address",
          "name": "investor",
          "type": "address"
        },
        {
          "indexed": false,
          "internalType": "uint256",
          "name": "value",
          "type": "uint256"
        },
        {
          "indexed": false,
          "internalType": "uint256",
          "name": "numberOfBonds",
          "type": "uint256"
        }
      ],
      "name": "Investment",
      "type": "event"
    },
    {
      "anonymous": false,
      "inputs": [
        {
          "indexed": true,
          "internalType": "address",
          "name": "previousOwner",
          "type": "address"
        },
        {
          "indexed": true,
          "internalType": "address",
          "name": "newOwner",
          "type": "address"
        }
      ],
      "name": "OwnershipTransferred",
      "type": "event"
    },
    {
      "anonymous": false,
      "inputs": [
        {
          "indexed": true,
          "internalType": "address",
          "name": "from",
          "type": "address"
        },
        {
          "indexed": true,
          "internalType": "address",
          "name": "to",
          "type": "address"
        },
        {
          "indexed": true,
          "internalType": "uint256",
          "name": "tokenId",
          "type": "uint256"
        }
      ],
      "name": "Transfer",
      "type": "event"
    },
    {
      "inputs": [
        {
          "internalType": "address",
          "name": "to",
          "type": "address"
        },
        {
          "internalType": "uint256",
          "name": "tokenId",
          "type": "uint256"
        }
      ],
      "name": "approve",
      "outputs": [],
      "stateMutability": "nonpayable",
      "type": "function"
    },
    {
      "inputs": [
        {
          "internalType": "address",
          "name": "owner",
          "type": "address"
        }
      ],
      "name": "balanceOf",
      "outputs": [
        {
          "internalType": "uint256",
          "name": "",
          "type": "uint256"
        }
      ],
      "stateMutability": "view",
      "type": "function",
      "constant": true
    },
    {
      "inputs": [
        {
          "internalType": "uint256",
          "name": "tokenId",
          "type": "uint256"
        }
      ],
      "name": "getApproved",
      "outputs": [
        {
          "internalType": "address",
          "name": "",
          "type": "address"
        }
      ],
      "stateMutability": "view",
      "type": "function",
      "constant": true
    },
    {
      "inputs": [
        {
          "internalType": "address",
          "name": "owner",
          "type": "address"
        },
        {
          "internalType": "address",
          "name": "operator",
          "type": "address"
        }
      ],
      "name": "isApprovedForAll",
      "outputs": [
        {
          "internalType": "bool",
          "name": "",
          "type": "bool"
        }
      ],
      "stateMutability": "view",
      "type": "function",
      "constant": true
    },
    {
      "inputs": [],
      "name": "name",
      "outputs": [
        {
          "internalType": "string",
          "name": "",
          "type": "string"
        }
      ],
      "stateMutability": "view",
      "type": "function",
      "constant": true
    },
    {
      "inputs": [],
      "name": "owner",
      "outputs": [
        {
          "internalType": "address",
          "name": "",
          "type": "address"
        }
      ],
      "stateMutability": "view",
      "type": "function",
      "constant": true
    },
    {
      "inputs": [
        {
          "internalType": "uint256",
          "name": "tokenId",
          "type": "uint256"
        }
      ],
      "name": "ownerOf",
      "outputs": [
        {
          "internalType": "address",
          "name": "",
          "type": "address"
        }
      ],
      "stateMutability": "view",
      "type": "function",
      "constant": true
    },
    {
      "inputs": [],
      "name": "renounceOwnership",
      "outputs": [],
      "stateMutability": "nonpayable",
      "type": "function"
    },
    {
      "inputs": [
        {
          "internalType": "address",
          "name": "from",
          "type": "address"
        },
        {
          "internalType": "address",
          "name": "to",
          "type": "address"
        },
        {
          "internalType": "uint256",
          "name": "tokenId",
          "type": "uint256"
        }
      ],
      "name": "safeTransferFrom",
      "outputs": [],
      "stateMutability": "nonpayable",
      "type": "function"
    },
    {
      "inputs": [
        {
          "internalType": "address",
          "name": "from",
          "type": "address"
        },
        {
          "internalType": "address",
          "name": "to",
          "type": "address"
        },
        {
          "internalType": "uint256",
          "name": "tokenId",
          "type": "uint256"
        },
        {
          "internalType": "bytes",
          "name": "_data",
          "type": "bytes"
        }
      ],
      "name": "safeTransferFrom",
      "outputs": [],
      "stateMutability": "nonpayable",
      "type": "function"
    },
    {
      "inputs": [
        {
          "internalType": "address",
          "name": "operator",
          "type": "address"
        },
        {
          "internalType": "bool",
          "name": "approved",
          "type": "bool"
        }
      ],
      "name": "setApprovalForAll",
      "outputs": [],
      "stateMutability": "nonpayable",
      "type": "function"
    },
    {
      "inputs": [],
      "name": "symbol",
      "outputs": [
        {
          "internalType": "string",
          "name": "",
          "type": "string"
        }
      ],
      "stateMutability": "view",
      "type": "function",
      "constant": true
    },
    {
      "inputs": [
        {
          "internalType": "uint256",
          "name": "tokenId",
          "type": "uint256"
        }
      ],
      "name": "tokenURI",
      "outputs": [
        {
          "internalType": "string",
          "name": "",
          "type": "string"
        }
      ],
      "stateMutability": "view",
      "type": "function",
      "constant": true
    },
    {
      "inputs": [
        {
          "internalType": "address",
          "name": "from",
          "type": "address"
        },
        {
          "internalType": "address",
          "name": "to",
          "type": "address"
        },
        {
          "internalType": "uint256",
          "name": "tokenId",
          "type": "uint256"
        }
      ],
      "name": "transferFrom",
      "outputs": [],
      "stateMutability": "nonpayable",
      "type": "function"
    },
    {
      "inputs": [
        {
          "internalType": "address",
          "name": "newOwner",
          "type": "address"
        }
      ],
      "name": "transferOwnership",
      "outputs": [],
      "stateMutability": "nonpayable",
      "type": "function"
    },
    {
      "inputs": [],
      "name": "getBidClosingTime",
      "outputs": [
        {
          "internalType": "uint256",
          "name": "",
          "type": "uint256"
        }
      ],
      "stateMutability": "view",
      "type": "function",
      "constant": true
    },
    {
      "inputs": [],
      "name": "getIssueDate",
      "outputs": [
        {
          "internalType": "uint256",
          "name": "",
          "type": "uint256"
        }
      ],
      "stateMutability": "view",
      "type": "function",
      "constant": true
    },
    {
      "inputs": [],
      "name": "getMaturityDate",
      "outputs": [
        {
          "internalType": "uint256",
          "name": "",
          "type": "uint256"
        }
      ],
      "stateMutability": "view",
      "type": "function",
      "constant": true
    },
    {
      "inputs": [],
      "name": "getTerm",
      "outputs": [
        {
          "internalType": "uint256",
          "name": "",
          "type": "uint256"
        }
      ],
      "stateMutability": "view",
      "type": "function",
      "constant": true
    },
    {
      "inputs": [
        {
          "internalType": "uint256",
          "name": "number",
          "type": "uint256"
        }
      ],
      "name": "getCouponDate",
      "outputs": [
        {
          "internalType": "uint256",
          "name": "",
          "type": "uint256"
        }
      ],
      "stateMutability": "view",
      "type": "function",
      "constant": true
    },
    {
      "inputs": [],
      "name": "getCouponDates",
      "outputs": [
        {
          "internalType": "uint256[]",
          "name": "",
          "type": "uint256[]"
        }
      ],
      "stateMutability": "view",
      "type": "function",
      "constant": true
    },
    {
      "inputs": [],
      "name": "getCompany",
      "outputs": [
        {
          "internalType": "address",
          "name": "",
          "type": "address"
        }
      ],
      "stateMutability": "view",
      "type": "function",
      "constant": true
    },
    {
      "inputs": [],
      "name": "getFaceValue",
      "outputs": [
        {
          "internalType": "uint256",
          "name": "",
          "type": "uint256"
        }
      ],
      "stateMutability": "view",
      "type": "function",
      "constant": true
    },
    {
      "inputs": [],
      "name": "getCurrentPrice",
      "outputs": [
        {
          "internalType": "uint256",
          "name": "",
          "type": "uint256"
        }
      ],
      "stateMutability": "view",
      "type": "function",
      "constant": true
    },
    {
      "inputs": [],
      "name": "getCoupon",
      "outputs": [
        {
          "internalType": "uint256",
          "name": "",
          "type": "uint256"
        }
      ],
      "stateMutability": "view",
      "type": "function",
      "constant": true
    },
    {
      "inputs": [],
      "name": "getMinCoupon",
      "outputs": [
        {
          "internalType": "uint256",
          "name": "",
          "type": "uint256"
        }
      ],
      "stateMutability": "view",
      "type": "function",
      "constant": true
    },
    {
      "inputs": [],
      "name": "getMaxCoupon",
      "outputs": [
        {
          "internalType": "uint256",
          "name": "",
          "type": "uint256"
        }
      ],
      "stateMutability": "view",
      "type": "function",
      "constant": true
    },
    {
      "inputs": [],
      "name": "getTotalDebt",
      "outputs": [
        {
          "internalType": "uint256",
          "name": "",
          "type": "uint256"
        }
      ],
      "stateMutability": "view",
      "type": "function",
      "constant": true
    },
    {
      "inputs": [],
      "name": "numberOfInvestors",
      "outputs": [
        {
          "internalType": "uint256",
          "name": "",
          "type": "uint256"
        }
      ],
      "stateMutability": "view",
      "type": "function",
      "constant": true
    },
    {
      "inputs": [],
      "name": "bondCount",
      "outputs": [
        {
          "internalType": "uint256",
          "name": "",
          "type": "uint256"
        }
      ],
      "stateMutability": "view",
      "type": "function",
      "constant": true
    },
    {
      "inputs": [],
      "name": "getName",
      "outputs": [
        {
          "internalType": "string",
          "name": "",
          "type": "string"
        }
      ],
      "stateMutability": "view",
      "type": "function",
      "constant": true
    },
    {
      "inputs": [
        {
          "internalType": "address",
          "name": "investor",
          "type": "address"
        }
      ],
      "name": "getInvestedAmountPerInvestor",
      "outputs": [
        {
          "internalType": "uint256",
          "name": "",
          "type": "uint256"
        }
      ],
      "stateMutability": "view",
      "type": "function",
      "constant": true
    },
    {
      "inputs": [
        {
          "internalType": "bytes4",
          "name": "interfaceId",
          "type": "bytes4"
        }
      ],
      "name": "supportsInterface",
      "outputs": [
        {
          "internalType": "bool",
          "name": "",
          "type": "bool"
        }
      ],
      "stateMutability": "view",
      "type": "function",
      "constant": true
    },
    {
      "inputs": [
        {
          "internalType": "uint256",
          "name": "coupon",
          "type": "uint256"
        },
        {
          "internalType": "uint256",
          "name": "numberOfBonds",
          "type": "uint256"
        }
      ],
      "name": "registerBid",
      "outputs": [],
      "stateMutability": "payable",
      "type": "function",
      "payable": true
    },
    {
      "inputs": [],
      "name": "defineCoupon",
      "outputs": [
        {
          "internalType": "uint256",
          "name": "",
          "type": "uint256"
        }
      ],
      "stateMutability": "nonpayable",
      "type": "function"
    },
    {
      "inputs": [
        {
          "internalType": "uint256",
          "name": "coupon",
          "type": "uint256"
        }
      ],
      "name": "getBiddersAtCoupon",
      "outputs": [
        {
          "internalType": "address[]",
          "name": "",
          "type": "address[]"
        }
      ],
      "stateMutability": "view",
      "type": "function",
      "constant": true
    },
    {
      "inputs": [
        {
          "internalType": "address",
          "name": "investor",
          "type": "address"
        }
      ],
      "name": "getInvestorBalance",
      "outputs": [
        {
          "internalType": "uint256",
          "name": "",
          "type": "uint256"
        }
      ],
      "stateMutability": "view",
      "type": "function",
      "constant": true
    },
    {
      "inputs": [],
      "name": "biddingWindowisOpen",
      "outputs": [
        {
          "internalType": "bool",
          "name": "",
          "type": "bool"
        }
      ],
      "stateMutability": "view",
      "type": "function",
      "constant": true
    },
    {
      "inputs": [],
      "name": "issueBonds",
      "outputs": [],
      "stateMutability": "nonpayable",
      "type": "function"
    },
    {
      "inputs": [],
      "name": "payCoupons",
      "outputs": [],
      "stateMutability": "payable",
      "type": "function",
      "payable": true
    },
    {
      "inputs": [
        {
          "internalType": "uint256",
          "name": "coupon",
          "type": "uint256"
        }
      ],
      "name": "couponPaymentMadeOnTime",
      "outputs": [
        {
          "internalType": "bool",
          "name": "",
          "type": "bool"
        }
      ],
      "stateMutability": "view",
      "type": "function",
      "constant": true
    },
    {
      "inputs": [],
      "name": "payBackBond",
      "outputs": [],
      "stateMutability": "payable",
      "type": "function",
      "payable": true
    },
    {
      "inputs": [],
      "name": "principalPaymentMadeOnTime",
      "outputs": [
        {
          "internalType": "bool",
          "name": "",
          "type": "bool"
        }
      ],
      "stateMutability": "view",
      "type": "function",
      "constant": true
    },
    {
      "inputs": [
        {
          "internalType": "bool",
          "name": "increase",
          "type": "bool"
        },
        {
          "internalType": "uint256",
          "name": "amount",
          "type": "uint256"
        }
      ],
      "name": "adjustCoupon",
      "outputs": [],
      "stateMutability": "nonpayable",
      "type": "function"
    }
  ],
  "bytecode": "0x60806040526000600960006101000a81548160ff021916908315150217905550600060145560006019553480156200003657600080fd5b50604051620066613803806200666183398181016040528101906200005c9190620005c6565b888881600090805190602001906200007692919062000476565b5080600190805190602001906200008f92919062000476565b5050506000620000a46200046e60201b60201c565b905080600660006101000a81548173ffffffffffffffffffffffffffffffffffffffff021916908373ffffffffffffffffffffffffffffffffffffffff1602179055508073ffffffffffffffffffffffffffffffffffffffff16600073ffffffffffffffffffffffffffffffffffffffff167f8be0079c531659141344cd1fd0a4f28419497f9722a3daafe3b4186f6b6457e060405160405180910390a350600073ffffffffffffffffffffffffffffffffffffffff168a73ffffffffffffffffffffffffffffffffffffffff161415620001b6576040517f08c379a0000000000000000000000000000000000000000000000000000000008152600401620001ad90620008bb565b60405180910390fd5b6000861015620001fd576040517f08c379a0000000000000000000000000000000000000000000000000000000008152600401620001f49062000855565b60405180910390fd5b85851162000242576040517f08c379a0000000000000000000000000000000000000000000000000000000008152600401620002399062000899565b60405180910390fd5b42841162000287576040517f08c379a00000000000000000000000000000000000000000000000000000000081526004016200027e9062000877565b60405180910390fd5b33600b60006101000a81548173ffffffffffffffffffffffffffffffffffffffff021916908373ffffffffffffffffffffffffffffffffffffffff1602179055508060089080519060200190620002e092919062000476565b5089600c60006101000a81548173ffffffffffffffffffffffffffffffffffffffff021916908373ffffffffffffffffffffffffffffffffffffffff1602179055506064600d8190555086600e819055506000600f8190555085601081905550846011819055508360168190555062093a8060165462000361919062000955565b6017819055508260128190555081601a819055508282620003839190620009ea565b6013819055506301e13380836200039b9190620009ea565b601754620003aa919062000955565b6018819055506000826301e13380620003c49190620009b2565b90506000600190505b60135481116200045c57601b8183620003e79190620009ea565b601754620003f6919062000955565b9080600181540180825580915050600190039060005260206000200160009091909190915055601c600090806001815401808255809150506001900390600052602060002001600090919091909150558080620004539062000af5565b915050620003cd565b50505050505050505050505062000c33565b600033905090565b828054620004849062000abf565b90600052602060002090601f016020900481019282620004a85760008555620004f4565b82601f10620004c357805160ff1916838001178555620004f4565b82800160010185558215620004f4579182015b82811115620004f3578251825591602001919060010190620004d6565b5b50905062000503919062000507565b5090565b5b808211156200052257600081600090555060010162000508565b5090565b60006200053d620005378462000911565b620008dd565b9050828152602081018484840111156200055657600080fd5b6200056384828562000a89565b509392505050565b6000815190506200057c8162000bff565b92915050565b600082601f8301126200059457600080fd5b8151620005a684826020860162000526565b91505092915050565b600081519050620005c08162000c19565b92915050565b6000806000806000806000806000806101408b8d031215620005e757600080fd5b6000620005f78d828e016200056b565b9a505060208b015167ffffffffffffffff8111156200061557600080fd5b620006238d828e0162000582565b99505060408b015167ffffffffffffffff8111156200064157600080fd5b6200064f8d828e0162000582565b9850506060620006628d828e01620005af565b9750506080620006758d828e01620005af565b96505060a0620006888d828e01620005af565b95505060c06200069b8d828e01620005af565b94505060e0620006ae8d828e01620005af565b935050610100620006c28d828e01620005af565b9250506101208b015167ffffffffffffffff811115620006e157600080fd5b620006ef8d828e0162000582565b9150509295989b9194979a5092959850565b60006200071060188362000944565b91507f636f75706f6e2063616e2774206265206e6567617469766500000000000000006000830152602082019050919050565b60006200075260218362000944565b91507f436c6f73696e672074696d652063616e277420626520696e207468652070617360008301527f74000000000000000000000000000000000000000000000000000000000000006020830152604082019050919050565b6000620007ba602e8362000944565b91507f6d617820636f75706f6e206e6565647320746f2062652067726561746572207460008301527f68616e206d696e20636f75706f6e0000000000000000000000000000000000006020830152604082019050919050565b600062000822601e8362000944565b91507f436f6d70616e7920616464726573732063616e206e6f742062652030783000006000830152602082019050919050565b60006020820190508181036000830152620008708162000701565b9050919050565b60006020820190508181036000830152620008928162000743565b9050919050565b60006020820190508181036000830152620008b481620007ab565b9050919050565b60006020820190508181036000830152620008d68162000813565b9050919050565b6000604051905081810181811067ffffffffffffffff8211171562000907576200090662000bd0565b5b8060405250919050565b600067ffffffffffffffff8211156200092f576200092e62000bd0565b5b601f19601f8301169050602081019050919050565b600082825260208201905092915050565b6000620009628262000a7f565b91506200096f8362000a7f565b9250827fffffffffffffffffffffffffffffffffffffffffffffffffffffffffffffffff03821115620009a757620009a662000b43565b5b828201905092915050565b6000620009bf8262000a7f565b9150620009cc8362000a7f565b925082620009df57620009de62000b72565b5b828204905092915050565b6000620009f78262000a7f565b915062000a048362000a7f565b9250817fffffffffffffffffffffffffffffffffffffffffffffffffffffffffffffffff048311821515161562000a405762000a3f62000b43565b5b828202905092915050565b600062000a588262000a5f565b9050919050565b600073ffffffffffffffffffffffffffffffffffffffff82169050919050565b6000819050919050565b60005b8381101562000aa957808201518184015260208101905062000a8c565b8381111562000ab9576000848401525b50505050565b6000600282049050600182168062000ad857607f821691505b6020821081141562000aef5762000aee62000ba1565b5b50919050565b600062000b028262000a7f565b91507fffffffffffffffffffffffffffffffffffffffffffffffffffffffffffffffff82141562000b385762000b3762000b43565b5b600182019050919050565b7f4e487b7100000000000000000000000000000000000000000000000000000000600052601160045260246000fd5b7f4e487b7100000000000000000000000000000000000000000000000000000000600052601260045260246000fd5b7f4e487b7100000000000000000000000000000000000000000000000000000000600052602260045260246000fd5b7f4e487b7100000000000000000000000000000000000000000000000000000000600052604160045260246000fd5b62000c0a8162000a4b565b811462000c1657600080fd5b50565b62000c248162000a7f565b811462000c3057600080fd5b50565b615a1e8062000c436000396000f3fe6080604052600436106102675760003560e01c8063715018a611610144578063c6b10134116100b6578063e412cfc71161007a578063e412cfc7146108db578063e985e9c514610918578063eb91d37e14610955578063ec18efc414610980578063efd86729146109bd578063f2fde38b146109e657610267565b8063c6b10134146107f2578063c87b56dd1461081d578063d24f84b11461085a578063d4fc7cd914610885578063e050a306146108b057610267565b8063924091dc11610108578063924091dc146106e257806395d89b411461070d5780639737fcff14610738578063a22cb46514610763578063b88d4fde1461078c578063bc3ada9c146107b557610267565b8063715018a61461061f5780637edd13c5146106365780638da5cb5b146106615780638edd4d241461068c578063915dd036146106b757610267565b806323b872dd116101dd5780635de9f20a116101a15780635de9f20a146104fb5780635ea639131461052657806361c49ebf146105635780636352211e1461057a5780636f3ed9d7146105b757806370a08231146105e257610267565b806323b872dd1461046a57806334ce998a1461049357806342842e0e146104be5780634a513801146104e75780634cff6c0e146104f157610267565b80630c3649571161022f5780630c364957146103655780630eebfec714610381578063124b65b4146103be578063127810bc146103e957806317d7de7c146104145780631af2c9fd1461043f57610267565b806301ffc9a71461026c57806306fdde03146102a957806307634cbe146102d4578063081812fc146102ff578063095ea7b31461033c575b600080fd5b34801561027857600080fd5b50610293600480360381019061028e9190614045565b610a0f565b6040516102a0919061501b565b60405180910390f35b3480156102b557600080fd5b506102be610a21565b6040516102cb9190615036565b60405180910390f35b3480156102e057600080fd5b506102e9610ab3565b6040516102f691906154b8565b60405180910390f35b34801561030b57600080fd5b5061032660048036038101906103219190614097565b610abd565b6040516103339190614ee7565b60405180910390f35b34801561034857600080fd5b50610363600480360381019061035e9190613fcd565b610b42565b005b61037f600480360381019061037a91906140c0565b610c5a565b005b34801561038d57600080fd5b506103a860048036038101906103a39190614097565b611127565b6040516103b59190614fd7565b60405180910390f35b3480156103ca57600080fd5b506103d361121b565b6040516103e091906154b8565b60405180910390f35b3480156103f557600080fd5b506103fe611225565b60405161040b9190614ee7565b60405180910390f35b34801561042057600080fd5b5061042961124f565b6040516104369190615036565b60405180910390f35b34801561044b57600080fd5b5061045461125e565b60405161046191906154b8565b60405180910390f35b34801561047657600080fd5b50610491600480360381019061048c9190613ec7565b61126b565b005b34801561049f57600080fd5b506104a86112cb565b6040516104b591906154b8565b60405180910390f35b3480156104ca57600080fd5b506104e560048036038101906104e09190613ec7565b6112d5565b005b6104ef6112f5565b005b6104f9611607565b005b34801561050757600080fd5b506105106118f5565b60405161051d919061501b565b60405180910390f35b34801561053257600080fd5b5061054d60048036038101906105489190613e62565b611902565b60405161055a91906154b8565b60405180910390f35b34801561056f57600080fd5b506105786119ba565b005b34801561058657600080fd5b506105a1600480360381019061059c9190614097565b611f2c565b6040516105ae9190614ee7565b60405180910390f35b3480156105c357600080fd5b506105cc611fde565b6040516105d991906154b8565b60405180910390f35b3480156105ee57600080fd5b5061060960048036038101906106049190613e62565b611fe8565b60405161061691906154b8565b60405180910390f35b34801561062b57600080fd5b506106346120a0565b005b34801561064257600080fd5b5061064b6121dd565b60405161065891906154b8565b60405180910390f35b34801561066d57600080fd5b506106766121e7565b6040516106839190614ee7565b60405180910390f35b34801561069857600080fd5b506106a1612211565b6040516106ae91906154b8565b60405180910390f35b3480156106c357600080fd5b506106cc612222565b6040516106d991906154b8565b60405180910390f35b3480156106ee57600080fd5b506106f761222c565b60405161070491906154b8565b60405180910390f35b34801561071957600080fd5b50610722612416565b60405161072f9190615036565b60405180910390f35b34801561074457600080fd5b5061074d6124a8565b60405161075a91906154b8565b60405180910390f35b34801561076f57600080fd5b5061078a60048036038101906107859190613f91565b6124b2565b005b34801561079857600080fd5b506107b360048036038101906107ae9190613f16565b612633565b005b3480156107c157600080fd5b506107dc60048036038101906107d79190613e62565b612695565b6040516107e991906154b8565b60405180910390f35b3480156107fe57600080fd5b506108076126de565b60405161081491906154b8565b60405180910390f35b34801561082957600080fd5b50610844600480360381019061083f9190614097565b6126e8565b6040516108519190615036565b60405180910390f35b34801561086657600080fd5b5061086f61278f565b60405161087c9190614ff9565b60405180910390f35b34801561089157600080fd5b5061089a6127e7565b6040516108a791906154b8565b60405180910390f35b3480156108bc57600080fd5b506108c56127f1565b6040516108d2919061501b565b60405180910390f35b3480156108e757600080fd5b5061090260048036038101906108fd9190614097565b612868565b60405161090f919061501b565b60405180910390f35b34801561092457600080fd5b5061093f600480360381019061093a9190613e8b565b612a6a565b60405161094c919061501b565b60405180910390f35b34801561096157600080fd5b5061096a612afe565b60405161097791906154b8565b60405180910390f35b34801561098c57600080fd5b506109a760048036038101906109a29190614097565b612b22565b6040516109b491906154b8565b60405180910390f35b3480156109c957600080fd5b506109e460048036038101906109df9190614009565b612bcc565b005b3480156109f257600080fd5b50610a0d6004803603810190610a089190613e62565b612d08565b005b6000610a1a82612eb4565b9050919050565b606060008054610a3090615813565b80601f0160208091040260200160405190810160405280929190818152602001828054610a5c90615813565b8015610aa95780601f10610a7e57610100808354040283529160200191610aa9565b820191906000526020600020905b815481529060010190602001808311610a8c57829003601f168201915b5050505050905090565b6000600f54905090565b6000610ac882612f96565b610b07576040517f08c379a0000000000000000000000000000000000000000000000000000000008152600401610afe906152b8565b60405180910390fd5b6004600083815260200190815260200160002060009054906101000a900473ffffffffffffffffffffffffffffffffffffffff169050919050565b6000610b4d82611f2c565b90508073ffffffffffffffffffffffffffffffffffffffff168373ffffffffffffffffffffffffffffffffffffffff161415610bbe576040517f08c379a0000000000000000000000000000000000000000000000000000000008152600401610bb590615398565b60405180910390fd5b8073ffffffffffffffffffffffffffffffffffffffff16610bdd613002565b73ffffffffffffffffffffffffffffffffffffffff161480610c0c5750610c0b81610c06613002565b612a6a565b5b610c4b576040517f08c379a0000000000000000000000000000000000000000000000000000000008152600401610c4290615218565b60405180910390fd5b610c55838361300a565b505050565b610c626118f5565b610ca1576040517f08c379a0000000000000000000000000000000000000000000000000000000008152600401610c9890615458565b60405180910390fd5b6010548210158015610cb557506011548211155b610cf4576040517f08c379a0000000000000000000000000000000000000000000000000000000008152600401610ceb90615078565b60405180910390fd5b80600d54610d029190615699565b341015610d44576040517f08c379a0000000000000000000000000000000000000000000000000000000008152600401610d3b90615438565b60405180910390fd5b60001515602260003373ffffffffffffffffffffffffffffffffffffffff1673ffffffffffffffffffffffffffffffffffffffff16815260200190815260200160002060009054906101000a900460ff16151514610dd7576040517f08c379a0000000000000000000000000000000000000000000000000000000008152600401610dce90615478565b60405180910390fd5b6001602260003373ffffffffffffffffffffffffffffffffffffffff1673ffffffffffffffffffffffffffffffffffffffff16815260200190815260200160002060006101000a81548160ff02191690831515021790555080601e60003373ffffffffffffffffffffffffffffffffffffffff1673ffffffffffffffffffffffffffffffffffffffff168152602001908152602001600020819055506000601f60008481526020019081526020016000205490508181610e979190615612565b601f6000858152602001908152602001600020819055506000602160003373ffffffffffffffffffffffffffffffffffffffff1673ffffffffffffffffffffffffffffffffffffffff16815260200190815260200160002060008581526020019081526020016000205490506000811415610f815760206000858152602001908152602001600020339080600181540180825580915050600190039060005260206000200160009091909190916101000a81548173ffffffffffffffffffffffffffffffffffffffff021916908373ffffffffffffffffffffffffffffffffffffffff1602179055505b8083610f8d9190615612565b602160003373ffffffffffffffffffffffffffffffffffffffff1673ffffffffffffffffffffffffffffffffffffffff16815260200190815260200160002060008681526020019081526020016000208190555082600d54610fef9190615699565b601d60003373ffffffffffffffffffffffffffffffffffffffff1673ffffffffffffffffffffffffffffffffffffffff168152602001908152602001600020819055507f19421268847f42dd61705778018ddfc43bcdce8517e7a630acb12f122c70948133858560405161106593929190614fa0565b60405180910390a182600d5461107b9190615699565b34111561112157600083600d546110929190615699565b3461109d91906156f3565b90503373ffffffffffffffffffffffffffffffffffffffff166108fc829081150290604051600060405180830381858888f193505050501580156110e5573d6000803e3d6000fd5b507f2ee76d0c8417fef3c9f68663d321eb1c1ed0e089b5298177f0582aeadb6fd91f3382604051611117929190614f77565b60405180910390a1505b50505050565b6060601054821015801561113d57506011548211155b61117c576040517f08c379a000000000000000000000000000000000000000000000000000000000815260040161117390615498565b60405180910390fd5b6020600083815260200190815260200160002080548060200260200160405190810160405280929190818152602001828054801561120f57602002820191906000526020600020905b8160009054906101000a900473ffffffffffffffffffffffffffffffffffffffff1673ffffffffffffffffffffffffffffffffffffffff16815260200190600101908083116111c5575b50505050509050919050565b6000601254905090565b6000600c60009054906101000a900473ffffffffffffffffffffffffffffffffffffffff16905090565b6060611259610a21565b905090565b6000600a80549050905090565b61127c611276613002565b826130c3565b6112bb576040517f08c379a00000000000000000000000000000000000000000000000000000000081526004016112b2906153d8565b60405180910390fd5b6112c68383836131a1565b505050565b6000601554905090565b6112f083838360405180602001604052806000815250612633565b505050565b600c60009054906101000a900473ffffffffffffffffffffffffffffffffffffffff1673ffffffffffffffffffffffffffffffffffffffff163373ffffffffffffffffffffffffffffffffffffffff1614611385576040517f08c379a000000000000000000000000000000000000000000000000000000000815260040161137c90615278565b60405180910390fd5b61138f60076133fd565b600f5461139c9190615699565b3410156113de576040517f08c379a00000000000000000000000000000000000000000000000000000000081526004016113d5906153b8565b60405180910390fd5b60135460145410611424576040517f08c379a000000000000000000000000000000000000000000000000000000000815260040161141b90615058565b60405180910390fd5b60005b61143160076133fd565b8110156114db57600061144382611f2c565b90508073ffffffffffffffffffffffffffffffffffffffff166108fc600f549081150290604051600060405180830381858888f1935050505015801561148d573d6000803e3d6000fd5b507fb3224bc7c2e6157092b5f650cc8b06e5f0c34d8218b6e9a1a5a39c2e43706e4081836040516114bf929190614f02565b60405180910390a15080806114d390615845565b915050611427565b5042601c60145481548110611519577f4e487b7100000000000000000000000000000000000000000000000000000000600052603260045260246000fd5b90600052602060002001819055506014600081548092919061153a90615845565b919050555061154960076133fd565b600f546115569190615699565b34111561160557600061156960076133fd565b600f546115769190615699565b3461158191906156f3565b90503373ffffffffffffffffffffffffffffffffffffffff166108fc829081150290604051600060405180830381858888f193505050501580156115c9573d6000803e3d6000fd5b507f2ee76d0c8417fef3c9f68663d321eb1c1ed0e089b5298177f0582aeadb6fd91f33826040516115fb929190614f77565b60405180910390a1505b565b600c60009054906101000a900473ffffffffffffffffffffffffffffffffffffffff1673ffffffffffffffffffffffffffffffffffffffff163373ffffffffffffffffffffffffffffffffffffffff1614611697576040517f08c379a000000000000000000000000000000000000000000000000000000000815260040161168e90615198565b60405180910390fd5b6015543410156116dc576040517f08c379a00000000000000000000000000000000000000000000000000000000081526004016116d3906153f8565b60405180910390fd5b60006116e860076133fd565b905060005b818110156117ac57600061170082611f2c565b905061172f81600b60009054906101000a900473ffffffffffffffffffffffffffffffffffffffff168461340b565b8073ffffffffffffffffffffffffffffffffffffffff166108fc600d549081150290604051600060405180830381858888f19350505050158015611777573d6000803e3d6000fd5b50600d5460155461178891906156f3565b601581905550611798600761341b565b5080806117a490615845565b9150506116ed565b50426019819055506000471180156117c5575060155434115b156118f2576000601554346117da91906156f3565b90508047101561186f5760004790503373ffffffffffffffffffffffffffffffffffffffff166108fc829081150290604051600060405180830381858888f1935050505015801561182f573d6000803e3d6000fd5b507f2ee76d0c8417fef3c9f68663d321eb1c1ed0e089b5298177f0582aeadb6fd91f3382604051611861929190614f77565b60405180910390a1506118f0565b3373ffffffffffffffffffffffffffffffffffffffff166108fc829081150290604051600060405180830381858888f193505050501580156118b5573d6000803e3d6000fd5b507f2ee76d0c8417fef3c9f68663d321eb1c1ed0e089b5298177f0582aeadb6fd91f33826040516118e7929190614f77565b60405180910390a15b505b50565b6000601654421115905090565b60008073ffffffffffffffffffffffffffffffffffffffff168273ffffffffffffffffffffffffffffffffffffffff161415611973576040517f08c379a000000000000000000000000000000000000000000000000000000000815260040161196a906152f8565b60405180910390fd5b601d60008373ffffffffffffffffffffffffffffffffffffffff1673ffffffffffffffffffffffffffffffffffffffff168152602001908152602001600020549050919050565b6119c26118f5565b15611a02576040517f08c379a00000000000000000000000000000000000000000000000000000000081526004016119f990615418565b60405180910390fd5b611a0a613002565b73ffffffffffffffffffffffffffffffffffffffff16611a286121e7565b73ffffffffffffffffffffffffffffffffffffffff1614611a7e576040517f08c379a0000000000000000000000000000000000000000000000000000000008152600401611a75906152d8565b60405180910390fd5b60011515600960009054906101000a900460ff16151514611ad4576040517f08c379a0000000000000000000000000000000000000000000000000000000008152600401611acb90615358565b60405180910390fd5b6000600e54905060005b600a80549050811015611f28576000600a8281548110611b27577f4e487b7100000000000000000000000000000000000000000000000000000000600052603260045260246000fd5b9060005260206000200160009054906101000a900473ffffffffffffffffffffffffffffffffffffffff1690506000601e60008373ffffffffffffffffffffffffffffffffffffffff1673ffffffffffffffffffffffffffffffffffffffff16815260200190815260200160002054905083811115611de757600c60009054906101000a900473ffffffffffffffffffffffffffffffffffffffff1673ffffffffffffffffffffffffffffffffffffffff166108fc85600d54611bea9190615699565b9081150290604051600060405180830381858888f19350505050158015611c15573d6000803e3d6000fd5b5083600d54611c249190615699565b60156000828254611c359190615612565b9250508190555060005b84811015611c7757611c5a83611c5560076133fd565b613477565b611c646007613645565b8080611c6f90615845565b915050611c3f565b506000601d60008473ffffffffffffffffffffffffffffffffffffffff1673ffffffffffffffffffffffffffffffffffffffff16815260200190815260200160002054905084600d54611cca9190615699565b81611cd591906156f3565b601d60008573ffffffffffffffffffffffffffffffffffffffff1673ffffffffffffffffffffffffffffffffffffffff168152602001908152602001600020819055506000601d60008573ffffffffffffffffffffffffffffffffffffffff1673ffffffffffffffffffffffffffffffffffffffff1681526020019081526020016000205490508373ffffffffffffffffffffffffffffffffffffffff166108fc829081150290604051600060405180830381858888f19350505050158015611da2573d6000803e3d6000fd5b507f2ee76d0c8417fef3c9f68663d321eb1c1ed0e089b5298177f0582aeadb6fd91f8482604051611dd4929190614f77565b60405180910390a1600095505050611f13565b600c60009054906101000a900473ffffffffffffffffffffffffffffffffffffffff1673ffffffffffffffffffffffffffffffffffffffff166108fc82600d54611e319190615699565b9081150290604051600060405180830381858888f19350505050158015611e5c573d6000803e3d6000fd5b5080600d54611e6b9190615699565b60156000828254611e7c9190615612565b9250508190555060005b81811015611ebe57611ea183611e9c60076133fd565b613477565b611eab6007613645565b8080611eb690615845565b915050611e86565b506000601d60008473ffffffffffffffffffffffffffffffffffffffff1673ffffffffffffffffffffffffffffffffffffffff168152602001908152602001600020819055508084611f1091906156f3565b93505b50508080611f2090615845565b915050611ade565b5050565b6000806002600084815260200190815260200160002060009054906101000a900473ffffffffffffffffffffffffffffffffffffffff169050600073ffffffffffffffffffffffffffffffffffffffff168173ffffffffffffffffffffffffffffffffffffffff161415611fd5576040517f08c379a0000000000000000000000000000000000000000000000000000000008152600401611fcc90615258565b60405180910390fd5b80915050919050565b6000600d54905090565b60008073ffffffffffffffffffffffffffffffffffffffff168273ffffffffffffffffffffffffffffffffffffffff161415612059576040517f08c379a000000000000000000000000000000000000000000000000000000000815260040161205090615238565b60405180910390fd5b600360008373ffffffffffffffffffffffffffffffffffffffff1673ffffffffffffffffffffffffffffffffffffffff168152602001908152602001600020549050919050565b6120a8613002565b73ffffffffffffffffffffffffffffffffffffffff166120c66121e7565b73ffffffffffffffffffffffffffffffffffffffff161461211c576040517f08c379a0000000000000000000000000000000000000000000000000000000008152600401612113906152d8565b60405180910390fd5b600073ffffffffffffffffffffffffffffffffffffffff16600660009054906101000a900473ffffffffffffffffffffffffffffffffffffffff1673ffffffffffffffffffffffffffffffffffffffff167f8be0079c531659141344cd1fd0a4f28419497f9722a3daafe3b4186f6b6457e060405160405180910390a36000600660006101000a81548173ffffffffffffffffffffffffffffffffffffffff021916908373ffffffffffffffffffffffffffffffffffffffff160217905550565b6000601154905090565b6000600660009054906101000a900473ffffffffffffffffffffffffffffffffffffffff16905090565b600061221d60076133fd565b905090565b6000601054905090565b60006122366118f5565b15612276576040517f08c379a000000000000000000000000000000000000000000000000000000000815260040161226d90615418565b60405180910390fd5b61227e613002565b73ffffffffffffffffffffffffffffffffffffffff1661229c6121e7565b73ffffffffffffffffffffffffffffffffffffffff16146122f2576040517f08c379a00000000000000000000000000000000000000000000000000000000081526004016122e9906152d8565b60405180910390fd5b60008060105490505b601154811161234d57601f600082815260200190815260200160002054826123239190615612565b9150600e54821061233a5780600f8190555061234d565b808061234590615845565b9150506122fb565b506000600f5411156123ba577f34ccc1cc859f0b1e974530f1eb22e713649d5f3937abf904589392796241d611600f5460405161238a91906154b8565b60405180910390a16001600960006101000a81548160ff0219169083151502179055506123b561365b565b6123f6565b7fe7f2eb6d54f3b1a2443045ba960f25d2ce0a36bcdee0965882edf6051179a59b81600e546040516123ed9291906154d3565b60405180910390a15b61240d6001600f546124089190615612565b613753565b600f5491505090565b60606001805461242590615813565b80601f016020809104026020016040519081016040528092919081815260200182805461245190615813565b801561249e5780601f106124735761010080835404028352916020019161249e565b820191906000526020600020905b81548152906001019060200180831161248157829003601f168201915b5050505050905090565b6000601854905090565b6124ba613002565b73ffffffffffffffffffffffffffffffffffffffff168273ffffffffffffffffffffffffffffffffffffffff161415612528576040517f08c379a000000000000000000000000000000000000000000000000000000000815260040161251f90615178565b60405180910390fd5b8060056000612535613002565b73ffffffffffffffffffffffffffffffffffffffff1673ffffffffffffffffffffffffffffffffffffffff16815260200190815260200160002060008473ffffffffffffffffffffffffffffffffffffffff1673ffffffffffffffffffffffffffffffffffffffff16815260200190815260200160002060006101000a81548160ff0219169083151502179055508173ffffffffffffffffffffffffffffffffffffffff166125e2613002565b73ffffffffffffffffffffffffffffffffffffffff167f17307eab39ab6107e8899845ad3d59bd9653f200f220920489ca2b5937696c3183604051612627919061501b565b60405180910390a35050565b61264461263e613002565b836130c3565b612683576040517f08c379a000000000000000000000000000000000000000000000000000000000815260040161267a906153d8565b60405180910390fd5b61268f848484846138dd565b50505050565b6000601d60008373ffffffffffffffffffffffffffffffffffffffff1673ffffffffffffffffffffffffffffffffffffffff168152602001908152602001600020549050919050565b6000601654905090565b60606126f382612f96565b612732576040517f08c379a000000000000000000000000000000000000000000000000000000000815260040161272990615338565b60405180910390fd5b600061273c613939565b9050600081511161275c5760405180602001604052806000815250612787565b80612766846139cb565b604051602001612777929190614ec3565b6040516020818303038152906040525b915050919050565b6060601b8054806020026020016040519081016040528092919081815260200182805480156127dd57602002820191906000526020600020905b8154815260200190600101908083116127c9575b5050505050905090565b6000601754905090565b60006018544211612837576040517f08c379a000000000000000000000000000000000000000000000000000000000815260040161282e90615138565b60405180910390fd5b6000601954141561284b5760009050612865565b60185460195411156128605760009050612865565b600190505b90565b60006001821015801561287d57506013548211155b6128bc576040517f08c379a00000000000000000000000000000000000000000000000000000000081526004016128b390615118565b60405180910390fd5b601b6001836128cb91906156f3565b81548110612902577f4e487b7100000000000000000000000000000000000000000000000000000000600052603260045260246000fd5b9060005260206000200154421161294e576040517f08c379a0000000000000000000000000000000000000000000000000000000008152600401612945906151b8565b60405180910390fd5b6000601c60018461295f91906156f3565b81548110612996577f4e487b7100000000000000000000000000000000000000000000000000000000600052603260045260246000fd5b906000526020600020015414156129b05760009050612a65565b601b6001836129bf91906156f3565b815481106129f6577f4e487b7100000000000000000000000000000000000000000000000000000000600052603260045260246000fd5b9060005260206000200154601c600184612a1091906156f3565b81548110612a47577f4e487b7100000000000000000000000000000000000000000000000000000000600052603260045260246000fd5b906000526020600020015411612a605760019050612a65565b600090505b919050565b6000600560008473ffffffffffffffffffffffffffffffffffffffff1673ffffffffffffffffffffffffffffffffffffffff16815260200190815260200160002060008373ffffffffffffffffffffffffffffffffffffffff1673ffffffffffffffffffffffffffffffffffffffff16815260200190815260200160002060009054906101000a900460ff16905092915050565b6000601454600f54612b109190615699565b600d54612b1d91906156f3565b905090565b60008082118015612b3557506013548211155b612b74576040517f08c379a0000000000000000000000000000000000000000000000000000000008152600401612b6b90615378565b60405180910390fd5b601b600183612b8391906156f3565b81548110612bba577f4e487b7100000000000000000000000000000000000000000000000000000000600052603260045260246000fd5b90600052602060002001549050919050565b612bd4613002565b73ffffffffffffffffffffffffffffffffffffffff16612bf26121e7565b73ffffffffffffffffffffffffffffffffffffffff1614612c48576040517f08c379a0000000000000000000000000000000000000000000000000000000008152600401612c3f906152d8565b60405180910390fd5b6000600f5490508215612c6e5781600f54612c639190615612565b600f81905550612cc8565b600f54821115612cb3576040517f08c379a0000000000000000000000000000000000000000000000000000000008152600401612caa906151d8565b60405180910390fd5b81600f54612cc191906156f3565b600f819055505b7f19c6461ea018cd13c242700a8b6afa6a2a3a4de691e6f2cd9416b3bef1a9515081600f54604051612cfb9291906154d3565b60405180910390a1505050565b612d10613002565b73ffffffffffffffffffffffffffffffffffffffff16612d2e6121e7565b73ffffffffffffffffffffffffffffffffffffffff1614612d84576040517f08c379a0000000000000000000000000000000000000000000000000000000008152600401612d7b906152d8565b60405180910390fd5b600073ffffffffffffffffffffffffffffffffffffffff168173ffffffffffffffffffffffffffffffffffffffff161415612df4576040517f08c379a0000000000000000000000000000000000000000000000000000000008152600401612deb906150d8565b60405180910390fd5b8073ffffffffffffffffffffffffffffffffffffffff16600660009054906101000a900473ffffffffffffffffffffffffffffffffffffffff1673ffffffffffffffffffffffffffffffffffffffff167f8be0079c531659141344cd1fd0a4f28419497f9722a3daafe3b4186f6b6457e060405160405180910390a380600660006101000a81548173ffffffffffffffffffffffffffffffffffffffff021916908373ffffffffffffffffffffffffffffffffffffffff16021790555050565b60007f80ac58cd000000000000000000000000000000000000000000000000000000007bffffffffffffffffffffffffffffffffffffffffffffffffffffffff1916827bffffffffffffffffffffffffffffffffffffffffffffffffffffffff19161480612f7f57507f5b5e139f000000000000000000000000000000000000000000000000000000007bffffffffffffffffffffffffffffffffffffffffffffffffffffffff1916827bffffffffffffffffffffffffffffffffffffffffffffffffffffffff1916145b80612f8f5750612f8e82613b78565b5b9050919050565b60008073ffffffffffffffffffffffffffffffffffffffff166002600084815260200190815260200160002060009054906101000a900473ffffffffffffffffffffffffffffffffffffffff1673ffffffffffffffffffffffffffffffffffffffff1614159050919050565b600033905090565b816004600083815260200190815260200160002060006101000a81548173ffffffffffffffffffffffffffffffffffffffff021916908373ffffffffffffffffffffffffffffffffffffffff160217905550808273ffffffffffffffffffffffffffffffffffffffff1661307d83611f2c565b73ffffffffffffffffffffffffffffffffffffffff167f8c5be1e5ebec7d5bd14f71427d1e84f3dd0314c0f7b2291e5b200ac8c7c3b92560405160405180910390a45050565b60006130ce82612f96565b61310d576040517f08c379a0000000000000000000000000000000000000000000000000000000008152600401613104906151f8565b60405180910390fd5b600061311883611f2c565b90508073ffffffffffffffffffffffffffffffffffffffff168473ffffffffffffffffffffffffffffffffffffffff16148061318757508373ffffffffffffffffffffffffffffffffffffffff1661316f84610abd565b73ffffffffffffffffffffffffffffffffffffffff16145b8061319857506131978185612a6a565b5b91505092915050565b8273ffffffffffffffffffffffffffffffffffffffff166131c182611f2c565b73ffffffffffffffffffffffffffffffffffffffff1614613217576040517f08c379a000000000000000000000000000000000000000000000000000000000815260040161320e90615318565b60405180910390fd5b600073ffffffffffffffffffffffffffffffffffffffff168273ffffffffffffffffffffffffffffffffffffffff161415613287576040517f08c379a000000000000000000000000000000000000000000000000000000000815260040161327e90615158565b60405180910390fd5b613292838383613be2565b61329d60008261300a565b6001600360008573ffffffffffffffffffffffffffffffffffffffff1673ffffffffffffffffffffffffffffffffffffffff16815260200190815260200160002060008282546132ed91906156f3565b925050819055506001600360008473ffffffffffffffffffffffffffffffffffffffff1673ffffffffffffffffffffffffffffffffffffffff16815260200190815260200160002060008282546133449190615612565b92505081905550816002600083815260200190815260200160002060006101000a81548173ffffffffffffffffffffffffffffffffffffffff021916908373ffffffffffffffffffffffffffffffffffffffff160217905550808273ffffffffffffffffffffffffffffffffffffffff168473ffffffffffffffffffffffffffffffffffffffff167fddf252ad1be2c89b69c2b068fc378daa952ba7f163c4a11628f55a4df523b3ef60405160405180910390a4505050565b600081600001549050919050565b6134168383836131a1565b505050565b60008160000154905060008111613467576040517f08c379a000000000000000000000000000000000000000000000000000000000815260040161345e90615098565b60405180910390fd5b6001810382600001819055505050565b600073ffffffffffffffffffffffffffffffffffffffff168273ffffffffffffffffffffffffffffffffffffffff1614156134e7576040517f08c379a00000000000000000000000000000000000000000000000000000000081526004016134de90615298565b60405180910390fd5b6134f081612f96565b15613530576040517f08c379a0000000000000000000000000000000000000000000000000000000008152600401613527906150f8565b60405180910390fd5b61353c60008383613be2565b6001600360008473ffffffffffffffffffffffffffffffffffffffff1673ffffffffffffffffffffffffffffffffffffffff168152602001908152602001600020600082825461358c9190615612565b92505081905550816002600083815260200190815260200160002060006101000a81548173ffffffffffffffffffffffffffffffffffffffff021916908373ffffffffffffffffffffffffffffffffffffffff160217905550808273ffffffffffffffffffffffffffffffffffffffff16600073ffffffffffffffffffffffffffffffffffffffff167fddf252ad1be2c89b69c2b068fc378daa952ba7f163c4a11628f55a4df523b3ef60405160405180910390a45050565b6001816000016000828254019250508190555050565b600060105490505b600f54811161375057600061367782611127565b905060005b815181101561373b57600a8282815181106136c0577f4e487b7100000000000000000000000000000000000000000000000000000000600052603260045260246000fd5b60200260200101519080600181540180825580915050600190039060005260206000200160009091909190916101000a81548173ffffffffffffffffffffffffffffffffffffffff021916908373ffffffffffffffffffffffffffffffffffffffff160217905550808061373390615845565b91505061367c565b5050808061374890615845565b915050613663565b50565b60008190505b60115481116138d957600061376d82611127565b905060005b81518110156138c45760008282815181106137b6577f4e487b7100000000000000000000000000000000000000000000000000000000600052603260045260246000fd5b602002602001015190506000602160008373ffffffffffffffffffffffffffffffffffffffff1673ffffffffffffffffffffffffffffffffffffffff16815260200190815260200160002060008681526020019081526020016000205490508173ffffffffffffffffffffffffffffffffffffffff166108fc82600d5461383d9190615699565b9081150290604051600060405180830381858888f19350505050158015613868573d6000803e3d6000fd5b507f2ee76d0c8417fef3c9f68663d321eb1c1ed0e089b5298177f0582aeadb6fd91f82600d54836138999190615699565b6040516138a7929190614f77565b60405180910390a1505080806138bc90615845565b915050613772565b505080806138d190615845565b915050613759565b5050565b6138e88484846131a1565b6138f484848484613be7565b613933576040517f08c379a000000000000000000000000000000000000000000000000000000000815260040161392a906150b8565b60405180910390fd5b50505050565b60606008805461394890615813565b80601f016020809104026020016040519081016040528092919081815260200182805461397490615813565b80156139c15780601f10613996576101008083540402835291602001916139c1565b820191906000526020600020905b8154815290600101906020018083116139a457829003601f168201915b5050505050905090565b60606000821415613a13576040518060400160405280600181526020017f30000000000000000000000000000000000000000000000000000000000000008152509050613b73565b600082905060005b60008214613a45578080613a2e90615845565b915050600a82613a3e9190615668565b9150613a1b565b60008167ffffffffffffffff811115613a87577f4e487b7100000000000000000000000000000000000000000000000000000000600052604160045260246000fd5b6040519080825280601f01601f191660200182016040528015613ab95781602001600182028036833780820191505090505b5090505b60008514613b6c57600182613ad291906156f3565b9150600a85613ae1919061588e565b6030613aed9190615612565b60f81b818381518110613b29577f4e487b7100000000000000000000000000000000000000000000000000000000600052603260045260246000fd5b60200101907effffffffffffffffffffffffffffffffffffffffffffffffffffffffffffff1916908160001a905350600a85613b659190615668565b9450613abd565b8093505050505b919050565b60007f01ffc9a7000000000000000000000000000000000000000000000000000000007bffffffffffffffffffffffffffffffffffffffffffffffffffffffff1916827bffffffffffffffffffffffffffffffffffffffffffffffffffffffff1916149050919050565b505050565b6000613c088473ffffffffffffffffffffffffffffffffffffffff16613d7e565b15613d71578373ffffffffffffffffffffffffffffffffffffffff1663150b7a02613c31613002565b8786866040518563ffffffff1660e01b8152600401613c539493929190614f2b565b602060405180830381600087803b158015613c6d57600080fd5b505af1925050508015613c9e57506040513d601f19601f82011682018060405250810190613c9b919061406e565b60015b613d21573d8060008114613cce576040519150601f19603f3d011682016040523d82523d6000602084013e613cd3565b606091505b50600081511415613d19576040517f08c379a0000000000000000000000000000000000000000000000000000000008152600401613d10906150b8565b60405180910390fd5b805181602001fd5b63150b7a0260e01b7bffffffffffffffffffffffffffffffffffffffffffffffffffffffff1916817bffffffffffffffffffffffffffffffffffffffffffffffffffffffff191614915050613d76565b600190505b949350505050565b600080823b905060008111915050919050565b6000613da4613d9f8461552d565b6154fc565b905082815260208101848484011115613dbc57600080fd5b613dc78482856157d1565b509392505050565b600081359050613dde8161598c565b92915050565b600081359050613df3816159a3565b92915050565b600081359050613e08816159ba565b92915050565b600081519050613e1d816159ba565b92915050565b600082601f830112613e3457600080fd5b8135613e44848260208601613d91565b91505092915050565b600081359050613e5c816159d1565b92915050565b600060208284031215613e7457600080fd5b6000613e8284828501613dcf565b91505092915050565b60008060408385031215613e9e57600080fd5b6000613eac85828601613dcf565b9250506020613ebd85828601613dcf565b9150509250929050565b600080600060608486031215613edc57600080fd5b6000613eea86828701613dcf565b9350506020613efb86828701613dcf565b9250506040613f0c86828701613e4d565b9150509250925092565b60008060008060808587031215613f2c57600080fd5b6000613f3a87828801613dcf565b9450506020613f4b87828801613dcf565b9350506040613f5c87828801613e4d565b925050606085013567ffffffffffffffff811115613f7957600080fd5b613f8587828801613e23565b91505092959194509250565b60008060408385031215613fa457600080fd5b6000613fb285828601613dcf565b9250506020613fc385828601613de4565b9150509250929050565b60008060408385031215613fe057600080fd5b6000613fee85828601613dcf565b9250506020613fff85828601613e4d565b9150509250929050565b6000806040838503121561401c57600080fd5b600061402a85828601613de4565b925050602061403b85828601613e4d565b9150509250929050565b60006020828403121561405757600080fd5b600061406584828501613df9565b91505092915050565b60006020828403121561408057600080fd5b600061408e84828501613e0e565b91505092915050565b6000602082840312156140a957600080fd5b60006140b784828501613e4d565b91505092915050565b600080604083850312156140d357600080fd5b60006140e185828601613e4d565b92505060206140f285828601613e4d565b9150509250929050565b6000614108838361413b565b60208301905092915050565b60006141208383614ea5565b60208301905092915050565b6141358161579b565b82525050565b61414481615727565b82525050565b61415381615727565b82525050565b60006141648261557d565b61416e81856155c3565b93506141798361555d565b8060005b838110156141aa57815161419188826140fc565b975061419c836155a9565b92505060018101905061417d565b5085935050505092915050565b60006141c282615588565b6141cc81856155d4565b93506141d78361556d565b8060005b838110156142085781516141ef8882614114565b97506141fa836155b6565b9250506001810190506141db565b5085935050505092915050565b61421e81615739565b82525050565b600061422f82615593565b61423981856155e5565b93506142498185602086016157e0565b6142528161597b565b840191505092915050565b60006142688261559e565b61427281856155f6565b93506142828185602086016157e0565b61428b8161597b565b840191505092915050565b60006142a18261559e565b6142ab8185615607565b93506142bb8185602086016157e0565b80840191505092915050565b60006142d4602a836155f6565b91507f416c6c20636f75706f6e207061796d656e7473206861766520616c726561647960008301527f206265656e206d616465000000000000000000000000000000000000000000006020830152604082019050919050565b600061433a6028836155f6565b91507f436f75706f6e206e6565647320746f206265206265747765656e20746865207360008301527f65742072616e67650000000000000000000000000000000000000000000000006020830152604082019050919050565b60006143a0601b836155f6565b91507f436f756e7465723a2064656372656d656e74206f766572666c6f7700000000006000830152602082019050919050565b60006143e06032836155f6565b91507f4552433732313a207472616e7366657220746f206e6f6e20455243373231526560008301527f63656976657220696d706c656d656e74657200000000000000000000000000006020830152604082019050919050565b60006144466026836155f6565b91507f4f776e61626c653a206e6577206f776e657220697320746865207a65726f206160008301527f64647265737300000000000000000000000000000000000000000000000000006020830152604082019050919050565b60006144ac601c836155f6565b91507f4552433732313a20746f6b656e20616c7265616479206d696e746564000000006000830152602082019050919050565b60006144ec601b836155f6565b91507f5468617420636f75706f6e20646f6573206e6f742065786973747300000000006000830152602082019050919050565b600061452c6018836155f6565b91507f426f6e6420686173206e6f74206d6174757265642079657400000000000000006000830152602082019050919050565b600061456c6024836155f6565b91507f4552433732313a207472616e7366657220746f20746865207a65726f2061646460008301527f72657373000000000000000000000000000000000000000000000000000000006020830152604082019050919050565b60006145d26019836155f6565b91507f4552433732313a20617070726f766520746f2063616c6c6572000000000000006000830152602082019050919050565b6000614612602e836155f6565b91507f506179696e6720636f6d70616e792073686f756c642062652074686520626f7260008301527f726f77696e6720636f6d70616e790000000000000000000000000000000000006020830152604082019050919050565b60006146786012836155f6565b91507f436f75706f6e206e6f74206475652079657400000000000000000000000000006000830152602082019050919050565b60006146b86020836155f6565b91507f436f75706f6e207061796d656e742063616e2774206265206e656761746976656000830152602082019050919050565b60006146f8602c836155f6565b91507f4552433732313a206f70657261746f7220717565727920666f72206e6f6e657860008301527f697374656e7420746f6b656e00000000000000000000000000000000000000006020830152604082019050919050565b600061475e6038836155f6565b91507f4552433732313a20617070726f76652063616c6c6572206973206e6f74206f7760008301527f6e6572206e6f7220617070726f76656420666f7220616c6c00000000000000006020830152604082019050919050565b60006147c4602a836155f6565b91507f4552433732313a2062616c616e636520717565727920666f7220746865207a6560008301527f726f2061646472657373000000000000000000000000000000000000000000006020830152604082019050919050565b600061482a6029836155f6565b91507f4552433732313a206f776e657220717565727920666f72206e6f6e657869737460008301527f656e7420746f6b656e00000000000000000000000000000000000000000000006020830152604082019050919050565b60006148906035836155f6565b91507f436f75706f6e207061796d656e742073686f756c6420636f6d652066726f6d2060008301527f74686520626f72726f77696e6720636f6d70616e7900000000000000000000006020830152604082019050919050565b60006148f66020836155f6565b91507f4552433732313a206d696e7420746f20746865207a65726f20616464726573736000830152602082019050919050565b6000614936602c836155f6565b91507f4552433732313a20617070726f76656420717565727920666f72206e6f6e657860008301527f697374656e7420746f6b656e00000000000000000000000000000000000000006020830152604082019050919050565b600061499c6020836155f6565b91507f4f776e61626c653a2063616c6c6572206973206e6f7420746865206f776e65726000830152602082019050919050565b60006149dc6022836155f6565b91507f42616c616e636520717565727920666f7220746865207a65726f20616464726560008301527f73730000000000000000000000000000000000000000000000000000000000006020830152604082019050919050565b6000614a426029836155f6565b91507f4552433732313a207472616e73666572206f6620746f6b656e2074686174206960008301527f73206e6f74206f776e00000000000000000000000000000000000000000000006020830152604082019050919050565b6000614aa8602f836155f6565b91507f4552433732314d657461646174613a2055524920717565727920666f72206e6f60008301527f6e6578697374656e7420746f6b656e00000000000000000000000000000000006020830152604082019050919050565b6000614b0e6036836155f6565b91507f63616e206e6f7420697373756520626f6e64732069662074686520636f75706f60008301527f6e20686173206e6f74206265656e20646566696e6564000000000000000000006020830152604082019050919050565b6000614b74603b836155f6565b91507f4e6f207375636820636f75706f6e207061796d656e742c20636865636b20746860008301527f65206e756d626572206f6620636f75706f6e207061796d656e747300000000006020830152604082019050919050565b6000614bda6021836155f6565b91507f4552433732313a20617070726f76616c20746f2063757272656e74206f776e6560008301527f72000000000000000000000000000000000000000000000000000000000000006020830152604082019050919050565b6000614c40601c836155f6565b91507f4e6f7420656e6f75676820636f696e7320666f7220636f75706f6e73000000006000830152602082019050919050565b6000614c806031836155f6565b91507f4552433732313a207472616e736665722063616c6c6572206973206e6f74206f60008301527f776e6572206e6f7220617070726f7665640000000000000000000000000000006020830152604082019050919050565b6000614ce6602f836155f6565b91507f4e6f7420656e6f75676820636f696e7320746f20736574746c6520746865206260008301527f6f6e64206174206d6174757269747900000000000000000000000000000000006020830152604082019050919050565b6000614d4c601f836155f6565b91507f496e766573746d656e742077696e646f77206973207374696c6c206f70656e006000830152602082019050919050565b6000614d8c6026836155f6565b91507f4e6f7420656e6f75676820636f696e73206465706f736974656420666f72207460008301527f68652062696400000000000000000000000000000000000000000000000000006020830152604082019050919050565b6000614df2601d836155f6565b91507f496e766573746d656e742077696e646f77206973206e6f74206f70656e0000006000830152602082019050919050565b6000614e326019836155f6565b91507f4f6e6c79206f6e65206269642070657220696e766573746f72000000000000006000830152602082019050919050565b6000614e726013836155f6565b91507f436f75706f6e206e6f7420696e2072616e6765000000000000000000000000006000830152602082019050919050565b614eae81615791565b82525050565b614ebd81615791565b82525050565b6000614ecf8285614296565b9150614edb8284614296565b91508190509392505050565b6000602082019050614efc600083018461414a565b92915050565b6000604082019050614f17600083018561412c565b614f246020830184614eb4565b9392505050565b6000608082019050614f40600083018761414a565b614f4d602083018661414a565b614f5a6040830185614eb4565b8181036060830152614f6c8184614224565b905095945050505050565b6000604082019050614f8c600083018561414a565b614f996020830184614eb4565b9392505050565b6000606082019050614fb5600083018661414a565b614fc26020830185614eb4565b614fcf6040830184614eb4565b949350505050565b60006020820190508181036000830152614ff18184614159565b905092915050565b6000602082019050818103600083015261501381846141b7565b905092915050565b60006020820190506150306000830184614215565b92915050565b60006020820190508181036000830152615050818461425d565b905092915050565b60006020820190508181036000830152615071816142c7565b9050919050565b600060208201905081810360008301526150918161432d565b9050919050565b600060208201905081810360008301526150b181614393565b9050919050565b600060208201905081810360008301526150d1816143d3565b9050919050565b600060208201905081810360008301526150f181614439565b9050919050565b600060208201905081810360008301526151118161449f565b9050919050565b60006020820190508181036000830152615131816144df565b9050919050565b600060208201905081810360008301526151518161451f565b9050919050565b600060208201905081810360008301526151718161455f565b9050919050565b60006020820190508181036000830152615191816145c5565b9050919050565b600060208201905081810360008301526151b181614605565b9050919050565b600060208201905081810360008301526151d18161466b565b9050919050565b600060208201905081810360008301526151f1816146ab565b9050919050565b60006020820190508181036000830152615211816146eb565b9050919050565b6000602082019050818103600083015261523181614751565b9050919050565b60006020820190508181036000830152615251816147b7565b9050919050565b600060208201905081810360008301526152718161481d565b9050919050565b6000602082019050818103600083015261529181614883565b9050919050565b600060208201905081810360008301526152b1816148e9565b9050919050565b600060208201905081810360008301526152d181614929565b9050919050565b600060208201905081810360008301526152f18161498f565b9050919050565b60006020820190508181036000830152615311816149cf565b9050919050565b6000602082019050818103600083015261533181614a35565b9050919050565b6000602082019050818103600083015261535181614a9b565b9050919050565b6000602082019050818103600083015261537181614b01565b9050919050565b6000602082019050818103600083015261539181614b67565b9050919050565b600060208201905081810360008301526153b181614bcd565b9050919050565b600060208201905081810360008301526153d181614c33565b9050919050565b600060208201905081810360008301526153f181614c73565b9050919050565b6000602082019050818103600083015261541181614cd9565b9050919050565b6000602082019050818103600083015261543181614d3f565b9050919050565b6000602082019050818103600083015261545181614d7f565b9050919050565b6000602082019050818103600083015261547181614de5565b9050919050565b6000602082019050818103600083015261549181614e25565b9050919050565b600060208201905081810360008301526154b181614e65565b9050919050565b60006020820190506154cd6000830184614eb4565b92915050565b60006040820190506154e86000830185614eb4565b6154f56020830184614eb4565b9392505050565b6000604051905081810181811067ffffffffffffffff821117156155235761552261594c565b5b8060405250919050565b600067ffffffffffffffff8211156155485761554761594c565b5b601f19601f8301169050602081019050919050565b6000819050602082019050919050565b6000819050602082019050919050565b600081519050919050565b600081519050919050565b600081519050919050565b600081519050919050565b6000602082019050919050565b6000602082019050919050565b600082825260208201905092915050565b600082825260208201905092915050565b600082825260208201905092915050565b600082825260208201905092915050565b600081905092915050565b600061561d82615791565b915061562883615791565b9250827fffffffffffffffffffffffffffffffffffffffffffffffffffffffffffffffff0382111561565d5761565c6158bf565b5b828201905092915050565b600061567382615791565b915061567e83615791565b92508261568e5761568d6158ee565b5b828204905092915050565b60006156a482615791565b91506156af83615791565b9250817fffffffffffffffffffffffffffffffffffffffffffffffffffffffffffffffff04831182151516156156e8576156e76158bf565b5b828202905092915050565b60006156fe82615791565b915061570983615791565b92508282101561571c5761571b6158bf565b5b828203905092915050565b600061573282615771565b9050919050565b60008115159050919050565b60007fffffffff0000000000000000000000000000000000000000000000000000000082169050919050565b600073ffffffffffffffffffffffffffffffffffffffff82169050919050565b6000819050919050565b60006157a6826157ad565b9050919050565b60006157b8826157bf565b9050919050565b60006157ca82615771565b9050919050565b82818337600083830152505050565b60005b838110156157fe5780820151818401526020810190506157e3565b8381111561580d576000848401525b50505050565b6000600282049050600182168061582b57607f821691505b6020821081141561583f5761583e61591d565b5b50919050565b600061585082615791565b91507fffffffffffffffffffffffffffffffffffffffffffffffffffffffffffffffff821415615883576158826158bf565b5b600182019050919050565b600061589982615791565b91506158a483615791565b9250826158b4576158b36158ee565b5b828206905092915050565b7f4e487b7100000000000000000000000000000000000000000000000000000000600052601160045260246000fd5b7f4e487b7100000000000000000000000000000000000000000000000000000000600052601260045260246000fd5b7f4e487b7100000000000000000000000000000000000000000000000000000000600052602260045260246000fd5b7f4e487b7100000000000000000000000000000000000000000000000000000000600052604160045260246000fd5b6000601f19601f8301169050919050565b61599581615727565b81146159a057600080fd5b50565b6159ac81615739565b81146159b757600080fd5b50565b6159c381615745565b81146159ce57600080fd5b50565b6159da81615791565b81146159e557600080fd5b5056fea2646970667358221220a7710ca46735d7403471ab6978a042235c1ef4da3bd4146c41c16641202ae25a64736f6c63430008000033",
  "immutableReferences": {},
  "source": "// SPDX-License-Identifier: MIT\npragma solidity >=0.6.0;\n\nimport \"@openzeppelin/contracts/token/ERC721/ERC721.sol\";\nimport \"@openzeppelin/contracts/access/Ownable.sol\";\nimport \"@openzeppelin/contracts/utils/Counters.sol\";\n\ncontract GreenBond is ERC721, Ownable {\n    using Counters for Counters.Counter;\n\n    // MODIFIERS\n    /**\n     * @dev Reverts if bidding time is not open\n     */\n    modifier onlyWhileBiddingWindowOpen {\n        require(biddingWindowisOpen(), \"Investment window is not open\");\n        _;\n    }\n\n    /**\n     * @dev Reverts if bidding time is still open\n     */\n    modifier onlyWhileBiddingWindowClosed {\n        require(!biddingWindowisOpen(), \"Investment window is still open\");\n        _;\n    }\n\n\n    // MEMBER VARIABLES\n\n    Counters.Counter private _bondIdTracker;\n    string private _baseBondURI;\n    // Boolean variable that is only set true if there is enough demand for bond\n    bool private _coupondefined = false;\n    // List of initial investors who have bidded at 'right coupon level'\n    address[] private _initialInvestors;\n    address private _owner;\n    address payable private _company;\n    uint256 private _value;\n    uint256 private _numberOfBondsSeeked;\n    uint256 private _coupon;\n    uint256 private _minCoupon;\n    uint256 private _maxCoupon;\n    uint256 private _term;\n    uint256 private _totalCouponPayments;\n    uint256 private _couponsPaid = 0; // Zero in the beginning\n    uint256 private _totalDebt;\n    uint256 private _bidClosingTime;\n    uint256 private _issueDate;\n    uint256 private _maturityDate;\n    uint256 private _actualPrincipalPaymentDate = 0; // Initialise to 0\n    uint256 private _couponsPerYear;\n    // Dates for the agreed coupon payments\n    uint256[] private _couponPaymentDates;\n    // Dates when the actual couons were paid\n    uint256[] private _actualCouponPaymentDates;\n\n    mapping(address => uint256) _investedAmountPerInvestor;\n    mapping(address => uint256) _requestedBondsPerInvestor;\n\n    mapping(uint256 => uint256) _bidsPerCoupon;\n    mapping(uint256 => address[]) _investorListAtCouponLevel;\n    mapping(address => mapping(uint256 => uint256)) _bidsPerInvestorAtCouponLevel;\n    mapping(address => bool) _biddedInvestors;\n\n    /**\n     * @dev Emitted when an investor registers initial investment request\n     */\n    event Investment(address investor, uint256 value, uint256 numberOfBonds);\n\n    /**\n     * @dev Emitted when coins are refunded to the investor in case there are\n            too many coins for the investment or to the company if they pay too much \n            with coupons / principal repayment\n     */\n    event CoinRefund(address account, uint256 value);\n\n    /**\n     * @dev Emitted when a coupon payment has been made\n     */\n    event CouponPayment(address investor, uint256 bondId);\n\n\n    /**\n     * @dev Emmitted when coupon payment is adjusted\n     */\n    event CouponAdjustment(uint256 from, uint256 to);\n    event CouponSet(uint256 coupon);\n    event CancelBondIssue(uint256 actualDemand, uint256 requestedDemand);\n    event Bid(address bidder, uint256 coupon, uint256 numberOfBonds);\n\n    /**\n     * @dev constructor, requires name and symbol for the bond,\n     * base URI for metadata, company address, facevalue for one bond / min investment\n     * coupon amount, investment window closing time\n     */\n    constructor(\n        address company,\n        string memory name,\n        string memory symbol,\n        uint256 numberOfBondsSeeked,\n        uint256 minCoupon,\n        uint256 maxCoupon,\n        uint256 bidClosingTime,\n        uint256 term,\n        uint256 couponsPerYear,\n        string memory baseBondURI\n    ) ERC721(name, symbol) {\n        require(company != address(0), \"Company address can not be 0x0\");\n        require(minCoupon >= 0, \"coupon can't be negative\");\n        require(\n            maxCoupon > minCoupon,\n            \"max coupon needs to be greater than min coupon\"\n        );\n        require(\n            bidClosingTime > block.timestamp,\n            \"Closing time can't be in the past\"\n        );\n        _owner = msg.sender;\n        _baseBondURI = baseBondURI;\n        _company = payable(company);\n        _value = 100; // Face value default at 100\n        _numberOfBondsSeeked = numberOfBondsSeeked;\n        _coupon = 0; // by default 0\n        _minCoupon = minCoupon;\n        _maxCoupon = maxCoupon;\n        _bidClosingTime = bidClosingTime;\n        _issueDate = _bidClosingTime + 1 weeks;\n        _term = term;\n        _couponsPerYear = couponsPerYear;\n        _totalCouponPayments = couponsPerYear * term;\n\n        _maturityDate = _issueDate + term * 365 days;\n\n        uint256 timeBetweenpayments = 365 days / couponsPerYear;\n\n        // Setting up the coupon payment dates\n        for (uint256 i = 1; i <= _totalCouponPayments; i++) {\n            _couponPaymentDates.push(_issueDate + timeBetweenpayments * i);\n            _actualCouponPaymentDates.push(0);\n        }\n    }\n\n    // Getter functions\n\n    function getBidClosingTime() external view returns (uint256) {\n        return _bidClosingTime;\n    }\n\n    function getIssueDate() public view returns (uint256) {\n        return _issueDate;\n    }\n\n    function getMaturityDate() public view returns (uint256) {\n        return _maturityDate;\n    }\n\n    function getTerm() public view returns (uint256) {\n        return _term;\n    }\n\n    function getCouponDate(uint256 number) public view returns (uint256) {\n        require(\n            number > 0 && number <= _totalCouponPayments,\n            \"No such coupon payment, check the number of coupon payments\"\n        );\n        return _couponPaymentDates[number - 1];\n    }\n\n    function getCouponDates() public view returns (uint256[] memory) {\n        return _couponPaymentDates;\n    }\n\n    function getCompany() public view returns (address) {\n        return _company;\n    }\n\n    function getFaceValue() public view returns (uint256) {\n        return _value;\n    }\n\n    // TESTING PRICE\n    function getCurrentPrice() public view returns (uint256) {\n        return _value - _coupon * _couponsPaid;\n    }\n\n    function getCoupon() public view returns (uint256) {\n        return _coupon;\n    }\n\n    function getMinCoupon() public view returns (uint256) {\n        return _minCoupon;\n    }\n\n    function getMaxCoupon() public view returns (uint256) {\n        return _maxCoupon;\n    }\n\n    function getTotalDebt() public view returns (uint256) {\n        return _totalDebt;\n    }\n\n    function numberOfInvestors() public view returns (uint256) {\n        return _initialInvestors.length;\n    }\n\n    function bondCount() public view returns (uint256) {\n        return _bondIdTracker.current();\n    }\n\n    function getName() public view returns (string memory) {\n        return name();\n    }\n\n    function _baseURI() internal view override returns (string memory) {\n        return _baseBondURI;\n    }\n\n    function getInvestedAmountPerInvestor(address investor)\n        external\n        view\n        returns (uint256)\n    {\n        return _investedAmountPerInvestor[investor];\n    }\n\n    // Needed to override this function as two parent classes defined the same function\n    function supportsInterface(bytes4 interfaceId)\n        public\n        view\n        virtual\n        override(ERC721)\n        returns (bool)\n    {\n        return super.supportsInterface(interfaceId);\n    }\n\n    // Function for investors to register their bids\n    function registerBid(uint256 coupon, uint256 numberOfBonds)\n        external\n        payable\n        onlyWhileBiddingWindowOpen\n    {\n        require(\n            coupon >= _minCoupon && coupon <= _maxCoupon,\n            \"Coupon needs to be between the set range\"\n        );\n        require(\n            msg.value >= _value * numberOfBonds,\n            \"Not enough coins deposited for the bid\"\n        );\n        require(\n            _biddedInvestors[msg.sender] == false,\n            \"Only one bid per investor\"\n        );\n\n        _biddedInvestors[msg.sender] = true;\n        _requestedBondsPerInvestor[msg.sender] = numberOfBonds;\n\n        // Update the demand for the coupon level\n        uint256 currentDemand = _bidsPerCoupon[coupon];\n        _bidsPerCoupon[coupon] = currentDemand + numberOfBonds;\n\n        // Add the investor to the list if not already on the list\n        uint256 currentAmountInvested = _bidsPerInvestorAtCouponLevel[\n            msg.sender\n        ][coupon];\n        if (currentAmountInvested == 0) {\n            _investorListAtCouponLevel[coupon].push(msg.sender);\n        }\n\n        // Update the mapping\n        _bidsPerInvestorAtCouponLevel[msg.sender][coupon] =\n            numberOfBonds +\n            currentAmountInvested;\n\n        _investedAmountPerInvestor[msg.sender] = _value * numberOfBonds;\n\n        // Emit event\n        emit Bid(msg.sender, coupon, numberOfBonds);\n\n        // Refund if overpaid\n        if (msg.value > _value * numberOfBonds) {\n            uint256 extraAmount = msg.value - _value * numberOfBonds;\n            payable(msg.sender).transfer(extraAmount);\n            emit CoinRefund(msg.sender, extraAmount);\n        }\n    }\n\n    // Function for issuer to define coupon\n    // Finds the lowest coupon that fullfills the demand\n    // Returns the defined coupon\n    function defineCoupon()\n        public\n        onlyWhileBiddingWindowClosed\n        onlyOwner\n        returns (uint256)\n    {\n        // Variable for the total demand for tokens\n        uint256 tokenDemand = 0;\n\n        // Iterate each coupon level, and count the token demand to\n        // determine the coupon level which will fulfills the seeked number of bonds\n        for (uint256 i = _minCoupon; i <= _maxCoupon; i++) {\n            // Increase the tokendemand\n            tokenDemand += _bidsPerCoupon[i];\n            // If enough interest at this coupon level, set coupon and break the loop\n            if (tokenDemand >= _numberOfBondsSeeked) {\n                _coupon = i;\n                break;\n            }\n        }\n\n        if (_coupon > 0) {\n            emit CouponSet(_coupon);\n            _coupondefined = true;\n            setInvestroArray();\n        } else {\n            emit CancelBondIssue(tokenDemand, _numberOfBondsSeeked);\n        }\n\n        // Refund unsuccessful investors\n        refundBiddersFromCouponLevel(_coupon + 1);\n\n        return _coupon;\n    }\n\n    function setInvestroArray() internal {\n        for (uint256 i = _minCoupon; i <= _coupon; i++) {\n            address[] memory investors = getBiddersAtCoupon(i);\n            for (uint256 j = 0; j < investors.length; j++) {\n                _initialInvestors.push(investors[j]);\n            }\n        }\n    }\n\n    function getBiddersAtCoupon(uint256 coupon)\n        public\n        view\n        returns (address[] memory)\n    {\n        require(\n            coupon >= _minCoupon && coupon <= _maxCoupon,\n            \"Coupon not in range\"\n        );\n        return _investorListAtCouponLevel[coupon];\n    }\n\n    // Function to refund unsuccessful bidders when coupon is defined\n    function refundBiddersFromCouponLevel(uint256 coupon) internal {\n        for (uint256 i = coupon; i <= _maxCoupon; i++) {\n            address[] memory investors = getBiddersAtCoupon(i);\n            for (uint256 j = 0; j < investors.length; j++) {\n                address investor = investors[j];\n                uint256 amount = _bidsPerInvestorAtCouponLevel[investor][i];\n                payable(investor).transfer(_value * amount);\n                emit CoinRefund(investor, amount * _value);\n            }\n        }\n    }\n\n    // Just for testing\n    function getInvestorBalance(address investor)\n        public\n        view\n        returns (uint256)\n    {\n        require(investor != address(0), \"Balance query for the zero address\");\n        return _investedAmountPerInvestor[investor];\n    }\n\n    // Return true if the investment window is open, false otherwise.\n    function biddingWindowisOpen() public view returns (bool) {\n        return block.timestamp <= _bidClosingTime;\n    }\n\n    /**\n     * @dev Function to issue bonds for investors who have registered \n        Assumes all investors will get the requested investment\n        Can be called only when investment window is closed and the contract is unpaused\n     */\n\n    function issueBonds()\n        public\n        onlyWhileBiddingWindowClosed\n        onlyOwner\n    {\n        require(\n            _coupondefined == true,\n            \"can not issue bonds if the coupon has not been defined\"\n        );\n\n        uint256 bondsAvailable = _numberOfBondsSeeked;\n\n        // Go through the investors\n        for (uint256 i = 0; i < _initialInvestors.length; i++) {\n            address investor = _initialInvestors[i];\n            uint256 numberOfBonds = _requestedBondsPerInvestor[investor];\n\n            // If the demanded amount is more than bonds available\n            if (numberOfBonds > bondsAvailable) {\n                // Transfer the value to company\n                _company.transfer(_value * bondsAvailable);\n                _totalDebt += _value * bondsAvailable;\n\n                for (uint256 j = 0; j < bondsAvailable; j++) {\n                    _mint(investor, _bondIdTracker.current());\n                    _bondIdTracker.increment();\n                }\n\n                // Refund extra amount\n                uint256 balance = _investedAmountPerInvestor[investor];\n                _investedAmountPerInvestor[investor] =\n                    balance -\n                    _value *\n                    bondsAvailable;\n                uint256 refund = _investedAmountPerInvestor[investor];\n                payable(investor).transfer(refund);\n                emit CoinRefund(investor, refund);\n\n                // Set bonds available to 0\n                bondsAvailable = 0;\n\n                // Else, fulfill the whole demans\n            } else {\n                _company.transfer(_value * numberOfBonds);\n                _totalDebt += _value * numberOfBonds;\n                for (uint256 j = 0; j < numberOfBonds; j++) {\n                    _mint(investor, _bondIdTracker.current());\n                    _bondIdTracker.increment();\n                }\n                // Update Investor balance to 0\n                _investedAmountPerInvestor[investor] = 0;\n\n                bondsAvailable -= numberOfBonds;\n            }\n        }\n    }\n\n    // Function for the borrowing company to pay coupons\n    function payCoupons() public payable {\n        // Message needs to have enough value for the copupon payments\n        require(\n            msg.sender == _company,\n            \"Coupon payment should come from the borrowing company\"\n        );\n        require(\n            msg.value >= _coupon * _bondIdTracker.current(),\n            \"Not enough coins for coupons\"\n        );\n\n        // Prevents company from paying extra coupons\n        require(\n            _couponsPaid < _totalCouponPayments,\n            \"All coupon payments have already been made\"\n        );\n\n        for (uint256 i = 0; i < _bondIdTracker.current(); i++) {\n            address payable investor = payable(ownerOf(i));\n            investor.transfer(_coupon);\n            emit CouponPayment(investor, i);\n        }\n\n        // Update coupon payment date\n        _actualCouponPaymentDates[_couponsPaid] = block.timestamp;\n        _couponsPaid++;\n\n        // Refund extra coins if paid too much\n        if (msg.value > _coupon * _bondIdTracker.current()) {\n            uint256 extraAmount = msg.value -\n                _coupon *\n                _bondIdTracker.current();\n            payable(msg.sender).transfer(extraAmount);\n            emit CoinRefund(msg.sender, extraAmount);\n        }\n    }\n\n    function couponPaymentMadeOnTime(uint256 coupon)\n        public\n        view\n        returns (bool)\n    {\n        require(\n            coupon >= 1 && coupon <= _totalCouponPayments,\n            \"That coupon does not exists\"\n        );\n        require(\n            block.timestamp > _couponPaymentDates[coupon - 1],\n            \"Coupon not due yet\"\n        );\n\n        if (_actualCouponPaymentDates[coupon - 1] == 0) {\n            return false;\n        }\n        // Coupon payment made before or by the agreed data\n        else if (\n            _actualCouponPaymentDates[coupon - 1] <=\n            _couponPaymentDates[coupon - 1]\n        ) {\n            return true;\n        } else {\n            return false;\n        }\n    }\n\n    // This function should be called by the borrowing company\n    function payBackBond() public payable {\n        require(\n            msg.sender == _company,\n            \"Paying company should be the borrowing company\"\n        );\n        require(\n            msg.value >= _totalDebt,\n            \"Not enough coins to settle the bond at maturity\"\n        );\n\n        // Interate through the bonds\n        uint256 numberOfBonds = _bondIdTracker.current();\n        for (uint256 i = 0; i < numberOfBonds; i++) {\n            address payable investor = payable(ownerOf(i));\n            // Transfer bond from investor to owner\n            bondTransfer(investor, _owner, i);\n            // Return funds\n            investor.transfer(_value);\n            // Decrement the values\n            _totalDebt = _totalDebt - _value;\n            _bondIdTracker.decrement();\n        }\n\n        // Set the payment date\n        _actualPrincipalPaymentDate = block.timestamp;\n\n        // Refund coins there is extra money on the contract\n        if (address(this).balance > 0 && msg.value > _totalDebt) {\n            uint256 extraAmount = msg.value - _totalDebt;\n            if (address(this).balance < extraAmount) {\n                uint256 amount = address(this).balance;\n                payable(msg.sender).transfer(amount);\n                emit CoinRefund(msg.sender, amount);\n            } else {\n                payable(msg.sender).transfer(extraAmount);\n                emit CoinRefund(msg.sender, extraAmount);\n            }\n        }\n    }\n\n    // Checks if the principal amount was paid back on time\n    function principalPaymentMadeOnTime() public view returns (bool) {\n        require(block.timestamp > _maturityDate, \"Bond has not matured yet\");\n        if (_actualPrincipalPaymentDate == 0) {\n            return false;\n        } else if (_actualPrincipalPaymentDate > _maturityDate) {\n            return false;\n        } else {\n            return true;\n        }\n    }\n\n    // Internal function to transer the bonds\n    function bondTransfer(\n        address from,\n        address to,\n        uint256 bondId\n    ) internal {\n        _transfer(from, to, bondId);\n    }\n\n    /**\n     * Function to adjust the coupon\n     */\n    function adjustCoupon(bool increase, uint256 amount) external onlyOwner {\n        uint256 previousCoupon = _coupon;\n        if (increase) {\n            _coupon = _coupon + amount;\n        } else {\n            require(amount <= _coupon, \"Coupon payment can't be negative\");\n            _coupon = _coupon - amount;\n        }\n        emit CouponAdjustment(previousCoupon, _coupon);\n    }\n}\n",
  "sourcePath": "/Users/leena/Documents/Coding/Blockchain_Green_Bonds/testProjects/OZ_test/contracts/GreenBond.sol",
  "compiler": {
    "name": "solc",
    "version": "0.8.0+commit.c7dfd78e.Emscripten.clang"
  },
  "schemaVersion": "3.4.1",
  "updatedAt": "2021-07-20T13:38:01.027Z",
  "networkType": "ethereum",
  "devdoc": {
    "events": {
      "CoinRefund(address,uint256)": {
        "details": "Emitted when coins are refunded to the investor in case there are too many coins for the investment or to the company if they pay too much  with coupons / principal repayment"
      },
      "CouponAdjustment(uint256,uint256)": {
        "details": "Emmitted when coupon payment is adjusted"
      },
      "CouponPayment(address,uint256)": {
        "details": "Emitted when a coupon payment has been made"
      },
      "Investment(address,uint256,uint256)": {
        "details": "Emitted when an investor registers initial investment request"
      }
    },
    "kind": "dev",
    "methods": {
      "approve(address,uint256)": {
        "details": "See {IERC721-approve}."
      },
      "balanceOf(address)": {
        "details": "See {IERC721-balanceOf}."
      },
      "constructor": {
        "details": "constructor, requires name and symbol for the bond, base URI for metadata, company address, facevalue for one bond / min investment coupon amount, investment window closing time"
      },
      "getApproved(uint256)": {
        "details": "See {IERC721-getApproved}."
      },
      "isApprovedForAll(address,address)": {
        "details": "See {IERC721-isApprovedForAll}."
      },
      "issueBonds()": {
        "details": "Function to issue bonds for investors who have registered  Assumes all investors will get the requested investment Can be called only when investment window is closed and the contract is unpaused"
      },
      "name()": {
        "details": "See {IERC721Metadata-name}."
      },
      "owner()": {
        "details": "Returns the address of the current owner."
      },
      "ownerOf(uint256)": {
        "details": "See {IERC721-ownerOf}."
      },
      "renounceOwnership()": {
        "details": "Leaves the contract without owner. It will not be possible to call `onlyOwner` functions anymore. Can only be called by the current owner. NOTE: Renouncing ownership will leave the contract without an owner, thereby removing any functionality that is only available to the owner."
      },
      "safeTransferFrom(address,address,uint256)": {
        "details": "See {IERC721-safeTransferFrom}."
      },
      "safeTransferFrom(address,address,uint256,bytes)": {
        "details": "See {IERC721-safeTransferFrom}."
      },
      "setApprovalForAll(address,bool)": {
        "details": "See {IERC721-setApprovalForAll}."
      },
      "supportsInterface(bytes4)": {
        "details": "See {IERC165-supportsInterface}."
      },
      "symbol()": {
        "details": "See {IERC721Metadata-symbol}."
      },
      "tokenURI(uint256)": {
        "details": "See {IERC721Metadata-tokenURI}."
      },
      "transferFrom(address,address,uint256)": {
        "details": "See {IERC721-transferFrom}."
      },
      "transferOwnership(address)": {
        "details": "Transfers ownership of the contract to a new account (`newOwner`). Can only be called by the current owner."
      }
    },
    "version": 1
  },
  "userdoc": {
    "kind": "user",
    "methods": {
      "adjustCoupon(bool,uint256)": {
        "notice": "Function to adjust the coupon"
      }
    },
    "version": 1
  }
}