{
  "contractName": "GreenBond",
  "abi": [
    {
      "inputs": [
        {
          "internalType": "string",
          "name": "name",
          "type": "string"
        },
        {
          "internalType": "string",
          "name": "symbol",
          "type": "string"
        },
        {
          "internalType": "string",
          "name": "baseTokenURI",
          "type": "string"
        },
        {
          "internalType": "address",
          "name": "company",
          "type": "address"
        },
        {
          "internalType": "uint256",
          "name": "value",
          "type": "uint256"
        },
        {
          "internalType": "uint256",
          "name": "coupon",
          "type": "uint256"
        }
      ],
      "stateMutability": "nonpayable",
      "type": "constructor"
    },
    {
      "anonymous": false,
      "inputs": [
        {
          "indexed": true,
          "internalType": "address",
          "name": "owner",
          "type": "address"
        },
        {
          "indexed": true,
          "internalType": "address",
          "name": "approved",
          "type": "address"
        },
        {
          "indexed": true,
          "internalType": "uint256",
          "name": "tokenId",
          "type": "uint256"
        }
      ],
      "name": "Approval",
      "type": "event"
    },
    {
      "anonymous": false,
      "inputs": [
        {
          "indexed": true,
          "internalType": "address",
          "name": "owner",
          "type": "address"
        },
        {
          "indexed": true,
          "internalType": "address",
          "name": "operator",
          "type": "address"
        },
        {
          "indexed": false,
          "internalType": "bool",
          "name": "approved",
          "type": "bool"
        }
      ],
      "name": "ApprovalForAll",
      "type": "event"
    },
    {
      "anonymous": false,
      "inputs": [
        {
          "indexed": false,
          "internalType": "address",
          "name": "investor",
          "type": "address"
        },
        {
          "indexed": false,
          "internalType": "uint256",
          "name": "value",
          "type": "uint256"
        }
      ],
      "name": "CoinRefund",
      "type": "event"
    },
    {
      "anonymous": false,
      "inputs": [
        {
          "indexed": false,
          "internalType": "address",
          "name": "adjuster",
          "type": "address"
        },
        {
          "indexed": false,
          "internalType": "uint256",
          "name": "couponRate",
          "type": "uint256"
        }
      ],
      "name": "CouponAdjustment",
      "type": "event"
    },
    {
      "anonymous": false,
      "inputs": [
        {
          "indexed": false,
          "internalType": "address",
          "name": "investor",
          "type": "address"
        },
        {
          "indexed": false,
          "internalType": "uint256",
          "name": "tokenId",
          "type": "uint256"
        }
      ],
      "name": "CouponPayment",
      "type": "event"
    },
    {
      "anonymous": false,
      "inputs": [
        {
          "indexed": false,
          "internalType": "address",
          "name": "investor",
          "type": "address"
        },
        {
          "indexed": false,
          "internalType": "uint256",
          "name": "value",
          "type": "uint256"
        }
      ],
      "name": "Investment",
      "type": "event"
    },
    {
      "anonymous": false,
      "inputs": [
        {
          "indexed": true,
          "internalType": "address",
          "name": "previousOwner",
          "type": "address"
        },
        {
          "indexed": true,
          "internalType": "address",
          "name": "newOwner",
          "type": "address"
        }
      ],
      "name": "OwnershipTransferred",
      "type": "event"
    },
    {
      "anonymous": false,
      "inputs": [
        {
          "indexed": false,
          "internalType": "address",
          "name": "account",
          "type": "address"
        }
      ],
      "name": "Paused",
      "type": "event"
    },
    {
      "anonymous": false,
      "inputs": [
        {
          "indexed": true,
          "internalType": "bytes32",
          "name": "role",
          "type": "bytes32"
        },
        {
          "indexed": true,
          "internalType": "bytes32",
          "name": "previousAdminRole",
          "type": "bytes32"
        },
        {
          "indexed": true,
          "internalType": "bytes32",
          "name": "newAdminRole",
          "type": "bytes32"
        }
      ],
      "name": "RoleAdminChanged",
      "type": "event"
    },
    {
      "anonymous": false,
      "inputs": [
        {
          "indexed": true,
          "internalType": "bytes32",
          "name": "role",
          "type": "bytes32"
        },
        {
          "indexed": true,
          "internalType": "address",
          "name": "account",
          "type": "address"
        },
        {
          "indexed": true,
          "internalType": "address",
          "name": "sender",
          "type": "address"
        }
      ],
      "name": "RoleGranted",
      "type": "event"
    },
    {
      "anonymous": false,
      "inputs": [
        {
          "indexed": true,
          "internalType": "bytes32",
          "name": "role",
          "type": "bytes32"
        },
        {
          "indexed": true,
          "internalType": "address",
          "name": "account",
          "type": "address"
        },
        {
          "indexed": true,
          "internalType": "address",
          "name": "sender",
          "type": "address"
        }
      ],
      "name": "RoleRevoked",
      "type": "event"
    },
    {
      "anonymous": false,
      "inputs": [
        {
          "indexed": true,
          "internalType": "address",
          "name": "from",
          "type": "address"
        },
        {
          "indexed": true,
          "internalType": "address",
          "name": "to",
          "type": "address"
        },
        {
          "indexed": true,
          "internalType": "uint256",
          "name": "tokenId",
          "type": "uint256"
        }
      ],
      "name": "Transfer",
      "type": "event"
    },
    {
      "anonymous": false,
      "inputs": [
        {
          "indexed": false,
          "internalType": "address",
          "name": "account",
          "type": "address"
        }
      ],
      "name": "Unpaused",
      "type": "event"
    },
    {
      "inputs": [],
      "name": "DEFAULT_ADMIN_ROLE",
      "outputs": [
        {
          "internalType": "bytes32",
          "name": "",
          "type": "bytes32"
        }
      ],
      "stateMutability": "view",
      "type": "function",
      "constant": true
    },
    {
      "inputs": [],
      "name": "MINTER_ROLE",
      "outputs": [
        {
          "internalType": "bytes32",
          "name": "",
          "type": "bytes32"
        }
      ],
      "stateMutability": "view",
      "type": "function",
      "constant": true
    },
    {
      "inputs": [
        {
          "internalType": "address",
          "name": "to",
          "type": "address"
        },
        {
          "internalType": "uint256",
          "name": "tokenId",
          "type": "uint256"
        }
      ],
      "name": "approve",
      "outputs": [],
      "stateMutability": "nonpayable",
      "type": "function"
    },
    {
      "inputs": [
        {
          "internalType": "address",
          "name": "owner",
          "type": "address"
        }
      ],
      "name": "balanceOf",
      "outputs": [
        {
          "internalType": "uint256",
          "name": "",
          "type": "uint256"
        }
      ],
      "stateMutability": "view",
      "type": "function",
      "constant": true
    },
    {
      "inputs": [
        {
          "internalType": "uint256",
          "name": "tokenId",
          "type": "uint256"
        }
      ],
      "name": "getApproved",
      "outputs": [
        {
          "internalType": "address",
          "name": "",
          "type": "address"
        }
      ],
      "stateMutability": "view",
      "type": "function",
      "constant": true
    },
    {
      "inputs": [
        {
          "internalType": "bytes32",
          "name": "role",
          "type": "bytes32"
        }
      ],
      "name": "getRoleAdmin",
      "outputs": [
        {
          "internalType": "bytes32",
          "name": "",
          "type": "bytes32"
        }
      ],
      "stateMutability": "view",
      "type": "function",
      "constant": true
    },
    {
      "inputs": [
        {
          "internalType": "bytes32",
          "name": "role",
          "type": "bytes32"
        },
        {
          "internalType": "uint256",
          "name": "index",
          "type": "uint256"
        }
      ],
      "name": "getRoleMember",
      "outputs": [
        {
          "internalType": "address",
          "name": "",
          "type": "address"
        }
      ],
      "stateMutability": "view",
      "type": "function",
      "constant": true
    },
    {
      "inputs": [
        {
          "internalType": "bytes32",
          "name": "role",
          "type": "bytes32"
        }
      ],
      "name": "getRoleMemberCount",
      "outputs": [
        {
          "internalType": "uint256",
          "name": "",
          "type": "uint256"
        }
      ],
      "stateMutability": "view",
      "type": "function",
      "constant": true
    },
    {
      "inputs": [
        {
          "internalType": "bytes32",
          "name": "role",
          "type": "bytes32"
        },
        {
          "internalType": "address",
          "name": "account",
          "type": "address"
        }
      ],
      "name": "grantRole",
      "outputs": [],
      "stateMutability": "nonpayable",
      "type": "function"
    },
    {
      "inputs": [
        {
          "internalType": "bytes32",
          "name": "role",
          "type": "bytes32"
        },
        {
          "internalType": "address",
          "name": "account",
          "type": "address"
        }
      ],
      "name": "hasRole",
      "outputs": [
        {
          "internalType": "bool",
          "name": "",
          "type": "bool"
        }
      ],
      "stateMutability": "view",
      "type": "function",
      "constant": true
    },
    {
      "inputs": [
        {
          "internalType": "address",
          "name": "owner",
          "type": "address"
        },
        {
          "internalType": "address",
          "name": "operator",
          "type": "address"
        }
      ],
      "name": "isApprovedForAll",
      "outputs": [
        {
          "internalType": "bool",
          "name": "",
          "type": "bool"
        }
      ],
      "stateMutability": "view",
      "type": "function",
      "constant": true
    },
    {
      "inputs": [],
      "name": "name",
      "outputs": [
        {
          "internalType": "string",
          "name": "",
          "type": "string"
        }
      ],
      "stateMutability": "view",
      "type": "function",
      "constant": true
    },
    {
      "inputs": [],
      "name": "owner",
      "outputs": [
        {
          "internalType": "address",
          "name": "",
          "type": "address"
        }
      ],
      "stateMutability": "view",
      "type": "function",
      "constant": true
    },
    {
      "inputs": [
        {
          "internalType": "uint256",
          "name": "tokenId",
          "type": "uint256"
        }
      ],
      "name": "ownerOf",
      "outputs": [
        {
          "internalType": "address",
          "name": "",
          "type": "address"
        }
      ],
      "stateMutability": "view",
      "type": "function",
      "constant": true
    },
    {
      "inputs": [],
      "name": "renounceOwnership",
      "outputs": [],
      "stateMutability": "nonpayable",
      "type": "function"
    },
    {
      "inputs": [
        {
          "internalType": "bytes32",
          "name": "role",
          "type": "bytes32"
        },
        {
          "internalType": "address",
          "name": "account",
          "type": "address"
        }
      ],
      "name": "renounceRole",
      "outputs": [],
      "stateMutability": "nonpayable",
      "type": "function"
    },
    {
      "inputs": [
        {
          "internalType": "bytes32",
          "name": "role",
          "type": "bytes32"
        },
        {
          "internalType": "address",
          "name": "account",
          "type": "address"
        }
      ],
      "name": "revokeRole",
      "outputs": [],
      "stateMutability": "nonpayable",
      "type": "function"
    },
    {
      "inputs": [
        {
          "internalType": "address",
          "name": "from",
          "type": "address"
        },
        {
          "internalType": "address",
          "name": "to",
          "type": "address"
        },
        {
          "internalType": "uint256",
          "name": "tokenId",
          "type": "uint256"
        }
      ],
      "name": "safeTransferFrom",
      "outputs": [],
      "stateMutability": "nonpayable",
      "type": "function"
    },
    {
      "inputs": [
        {
          "internalType": "address",
          "name": "from",
          "type": "address"
        },
        {
          "internalType": "address",
          "name": "to",
          "type": "address"
        },
        {
          "internalType": "uint256",
          "name": "tokenId",
          "type": "uint256"
        },
        {
          "internalType": "bytes",
          "name": "_data",
          "type": "bytes"
        }
      ],
      "name": "safeTransferFrom",
      "outputs": [],
      "stateMutability": "nonpayable",
      "type": "function"
    },
    {
      "inputs": [
        {
          "internalType": "address",
          "name": "operator",
          "type": "address"
        },
        {
          "internalType": "bool",
          "name": "approved",
          "type": "bool"
        }
      ],
      "name": "setApprovalForAll",
      "outputs": [],
      "stateMutability": "nonpayable",
      "type": "function"
    },
    {
      "inputs": [],
      "name": "symbol",
      "outputs": [
        {
          "internalType": "string",
          "name": "",
          "type": "string"
        }
      ],
      "stateMutability": "view",
      "type": "function",
      "constant": true
    },
    {
      "inputs": [
        {
          "internalType": "uint256",
          "name": "tokenId",
          "type": "uint256"
        }
      ],
      "name": "tokenURI",
      "outputs": [
        {
          "internalType": "string",
          "name": "",
          "type": "string"
        }
      ],
      "stateMutability": "view",
      "type": "function",
      "constant": true
    },
    {
      "inputs": [
        {
          "internalType": "address",
          "name": "from",
          "type": "address"
        },
        {
          "internalType": "address",
          "name": "to",
          "type": "address"
        },
        {
          "internalType": "uint256",
          "name": "tokenId",
          "type": "uint256"
        }
      ],
      "name": "transferFrom",
      "outputs": [],
      "stateMutability": "nonpayable",
      "type": "function"
    },
    {
      "inputs": [
        {
          "internalType": "address",
          "name": "newOwner",
          "type": "address"
        }
      ],
      "name": "transferOwnership",
      "outputs": [],
      "stateMutability": "nonpayable",
      "type": "function"
    },
    {
      "inputs": [
        {
          "internalType": "address",
          "name": "regulator",
          "type": "address"
        }
      ],
      "name": "setRegulator",
      "outputs": [],
      "stateMutability": "nonpayable",
      "type": "function"
    },
    {
      "inputs": [
        {
          "internalType": "address",
          "name": "greenVerifier",
          "type": "address"
        }
      ],
      "name": "setGreenVerifier",
      "outputs": [],
      "stateMutability": "nonpayable",
      "type": "function"
    },
    {
      "inputs": [
        {
          "internalType": "address",
          "name": "investor",
          "type": "address"
        }
      ],
      "name": "getInvestorBalance",
      "outputs": [
        {
          "internalType": "uint256",
          "name": "",
          "type": "uint256"
        }
      ],
      "stateMutability": "view",
      "type": "function",
      "constant": true
    },
    {
      "inputs": [
        {
          "internalType": "bytes4",
          "name": "interfaceId",
          "type": "bytes4"
        }
      ],
      "name": "supportsInterface",
      "outputs": [
        {
          "internalType": "bool",
          "name": "",
          "type": "bool"
        }
      ],
      "stateMutability": "view",
      "type": "function",
      "constant": true
    },
    {
      "inputs": [
        {
          "internalType": "uint256",
          "name": "number",
          "type": "uint256"
        }
      ],
      "name": "registerInvestment",
      "outputs": [],
      "stateMutability": "payable",
      "type": "function",
      "payable": true
    },
    {
      "inputs": [],
      "name": "issueTokens",
      "outputs": [],
      "stateMutability": "nonpayable",
      "type": "function"
    },
    {
      "inputs": [
        {
          "internalType": "uint256",
          "name": "numberOfTokens",
          "type": "uint256"
        },
        {
          "internalType": "address",
          "name": "to",
          "type": "address"
        }
      ],
      "name": "issueTokens",
      "outputs": [],
      "stateMutability": "payable",
      "type": "function",
      "payable": true
    },
    {
      "inputs": [],
      "name": "payCoupons",
      "outputs": [],
      "stateMutability": "payable",
      "type": "function",
      "payable": true
    },
    {
      "inputs": [],
      "name": "payBackBond",
      "outputs": [],
      "stateMutability": "payable",
      "type": "function",
      "payable": true
    },
    {
      "inputs": [],
      "name": "returnTokensAtMaturity",
      "outputs": [],
      "stateMutability": "nonpayable",
      "type": "function"
    },
    {
      "inputs": [],
      "name": "paused",
      "outputs": [
        {
          "internalType": "bool",
          "name": "",
          "type": "bool"
        }
      ],
      "stateMutability": "view",
      "type": "function",
      "constant": true
    },
    {
      "inputs": [],
      "name": "pause",
      "outputs": [],
      "stateMutability": "nonpayable",
      "type": "function"
    },
    {
      "inputs": [],
      "name": "unpause",
      "outputs": [],
      "stateMutability": "nonpayable",
      "type": "function"
    },
    {
      "inputs": [
        {
          "internalType": "bool",
          "name": "increase",
          "type": "bool"
        },
        {
          "internalType": "uint256",
          "name": "amount",
          "type": "uint256"
        }
      ],
      "name": "adjustCoupon",
      "outputs": [],
      "stateMutability": "nonpayable",
      "type": "function"
    }
  ],
  "bytecode": "0x60806040523480156200001157600080fd5b50604051620062e2380380620062e283398181016040528101906200003791906200065e565b85858160009080519060200190620000519291906200050e565b5080600190805190602001906200006a9291906200050e565b50505060006200007f6200027660201b60201c565b905080600860006101000a81548173ffffffffffffffffffffffffffffffffffffffff021916908373ffffffffffffffffffffffffffffffffffffffff1602179055508073ffffffffffffffffffffffffffffffffffffffff16600073ffffffffffffffffffffffffffffffffffffffff167f8be0079c531659141344cd1fd0a4f28419497f9722a3daafe3b4186f6b6457e060405160405180910390a350600081101562000165576040517f08c379a00000000000000000000000000000000000000000000000000000000081526004016200015c9062000781565b60405180910390fd5b33600d60006101000a81548173ffffffffffffffffffffffffffffffffffffffff021916908373ffffffffffffffffffffffffffffffffffffffff1602179055508360099080519060200190620001be9291906200050e565b5082600e60006101000a81548173ffffffffffffffffffffffffffffffffffffffff021916908373ffffffffffffffffffffffffffffffffffffffff16021790555081601181905550806012819055506000600b60006101000a81548160ff0219169083151502179055506200026a7f9f2df0fed2c77648de5860a4cc508cd0818c85b8b8a1ab4ceeef8d981c8956a66200025e6200027660201b60201c565b6200027e60201b60201c565b50505050505062000957565b600033905090565b620002958282620002c660201b620027121760201c565b620002c18160076000858152602001908152602001600020620002dc60201b620027201790919060201c565b505050565b620002d882826200031460201b60201c565b5050565b60006200030c836000018373ffffffffffffffffffffffffffffffffffffffff1660001b6200040660201b60201c565b905092915050565b6200032682826200048060201b60201c565b620004025760016006600084815260200190815260200160002060000160008373ffffffffffffffffffffffffffffffffffffffff1673ffffffffffffffffffffffffffffffffffffffff16815260200190815260200160002060006101000a81548160ff021916908315150217905550620003a76200027660201b60201c565b73ffffffffffffffffffffffffffffffffffffffff168173ffffffffffffffffffffffffffffffffffffffff16837f2f8788117e7eff1d82e926ec794901d17c78024a50270940304540a733656f0d60405160405180910390a45b5050565b60006200041a8383620004eb60201b60201c565b620004755782600001829080600181540180825580915050600190039060005260206000200160009091909190915055826000018054905083600101600084815260200190815260200160002081905550600190506200047a565b600090505b92915050565b60006006600084815260200190815260200160002060000160008373ffffffffffffffffffffffffffffffffffffffff1673ffffffffffffffffffffffffffffffffffffffff16815260200190815260200160002060009054906101000a900460ff16905092915050565b600080836001016000848152602001908152602001600020541415905092915050565b8280546200051c906200088f565b90600052602060002090601f0160209004810192826200054057600085556200058c565b82601f106200055b57805160ff19168380011785556200058c565b828001600101855582156200058c579182015b828111156200058b5782518255916020019190600101906200056e565b5b5090506200059b91906200059f565b5090565b5b80821115620005ba576000816000905550600101620005a0565b5090565b6000620005d5620005cf84620007d7565b620007a3565b905082815260208101848484011115620005ee57600080fd5b620005fb84828562000859565b509392505050565b600081519050620006148162000923565b92915050565b600082601f8301126200062c57600080fd5b81516200063e848260208601620005be565b91505092915050565b60008151905062000658816200093d565b92915050565b60008060008060008060c087890312156200067857600080fd5b600087015167ffffffffffffffff8111156200069357600080fd5b620006a189828a016200061a565b965050602087015167ffffffffffffffff811115620006bf57600080fd5b620006cd89828a016200061a565b955050604087015167ffffffffffffffff811115620006eb57600080fd5b620006f989828a016200061a565b94505060606200070c89828a0162000603565b93505060806200071f89828a0162000647565b92505060a06200073289828a0162000647565b9150509295509295509295565b60006200074e6020836200080a565b91507f436f75706f6e207061796d656e742063616e2774206265206e656761746976656000830152602082019050919050565b600060208201905081810360008301526200079c816200073f565b9050919050565b6000604051905081810181811067ffffffffffffffff82111715620007cd57620007cc620008f4565b5b8060405250919050565b600067ffffffffffffffff821115620007f557620007f4620008f4565b5b601f19601f8301169050602081019050919050565b600082825260208201905092915050565b600062000828826200082f565b9050919050565b600073ffffffffffffffffffffffffffffffffffffffff82169050919050565b6000819050919050565b60005b83811015620008795780820151818401526020810190506200085c565b8381111562000889576000848401525b50505050565b60006002820490506001821680620008a857607f821691505b60208210811415620008bf57620008be620008c5565b5b50919050565b7f4e487b7100000000000000000000000000000000000000000000000000000000600052602260045260246000fd5b7f4e487b7100000000000000000000000000000000000000000000000000000000600052604160045260246000fd5b6200092e816200081b565b81146200093a57600080fd5b50565b62000948816200084f565b81146200095457600080fd5b50565b61597b80620009676000396000f3fe6080604052600436106102245760003560e01c8063715018a611610123578063a22cb465116100ab578063d53913931161006f578063d539139314610792578063d547741f146107bd578063e985e9c5146107e6578063efd8672914610823578063f2fde38b1461084c57610224565b8063a22cb4651461069d578063b88d4fde146106c6578063c87b56dd146106ef578063ca15c8731461072c578063cde0a4f81461076957610224565b80638da5cb5b116100f25780638da5cb5b146105a25780639010d07c146105cd57806391d148541461060a57806395d89b4114610647578063a217fddf1461067257610224565b8063715018a61461052f5780637ad5be88146105465780638456cb59146105625780638a06a3641461057957610224565b806336568abe116101b15780635c975abb116101755780635c975abb146104365780635ea639131461046157806360ab58521461049e5780636352211e146104b557806370a08231146104f257610224565b806336568abe146103b95780633f4ba83a146103e257806342842e0e146103f95780634a513801146104225780634cff6c0e1461042c57610224565b8063095ea7b3116101f8578063095ea7b3146102ea578063191ae47b1461031357806323b872dd1461032a578063248a9ca3146103535780632f2ff15d1461039057610224565b806283db4b1461022957806301ffc9a71461024557806306fdde0314610282578063081812fc146102ad575b600080fd5b610243600480360381019061023e91906141a5565b610875565b005b34801561025157600080fd5b5061026c60048036038101906102679190614153565b610a41565b6040516102799190614fed565b60405180910390f35b34801561028e57600080fd5b50610297610a53565b6040516102a49190615023565b60405180910390f35b3480156102b957600080fd5b506102d460048036038101906102cf91906141a5565b610ae5565b6040516102e19190614f34565b60405180910390f35b3480156102f657600080fd5b50610311600480360381019061030c919061403a565b610b6a565b005b34801561031f57600080fd5b50610328610c82565b005b34801561033657600080fd5b50610351600480360381019061034c9190613f34565b610dd6565b005b34801561035f57600080fd5b5061037a600480360381019061037591906140b2565b610e36565b6040516103879190615008565b60405180910390f35b34801561039c57600080fd5b506103b760048036038101906103b291906140db565b610e56565b005b3480156103c557600080fd5b506103e060048036038101906103db91906140db565b610e8a565b005b3480156103ee57600080fd5b506103f7610ebe565b005b34801561040557600080fd5b50610420600480360381019061041b9190613f34565b610ff8565b005b61042a611018565b005b61043461112b565b005b34801561044257600080fd5b5061044b6112ce565b6040516104589190614fed565b60405180910390f35b34801561046d57600080fd5b5061048860048036038101906104839190613ecf565b6112e5565b6040516104959190615465565b60405180910390f35b3480156104aa57600080fd5b506104b361139d565b005b3480156104c157600080fd5b506104dc60048036038101906104d791906141a5565b61178a565b6040516104e99190614f34565b60405180910390f35b3480156104fe57600080fd5b5061051960048036038101906105149190613ecf565b61183c565b6040516105269190615465565b60405180910390f35b34801561053b57600080fd5b506105446118f4565b005b610560600480360381019061055b91906141ce565b611a31565b005b34801561056e57600080fd5b50610577611ca2565b005b34801561058557600080fd5b506105a0600480360381019061059b9190613ecf565b611ddd565b005b3480156105ae57600080fd5b506105b7611e9d565b6040516105c49190614f34565b60405180910390f35b3480156105d957600080fd5b506105f460048036038101906105ef9190614117565b611ec7565b6040516106019190614f34565b60405180910390f35b34801561061657600080fd5b50610631600480360381019061062c91906140db565b611ef6565b60405161063e9190614fed565b60405180910390f35b34801561065357600080fd5b5061065c611f61565b6040516106699190615023565b60405180910390f35b34801561067e57600080fd5b50610687611ff3565b6040516106949190615008565b60405180910390f35b3480156106a957600080fd5b506106c460048036038101906106bf9190613ffe565b611ffa565b005b3480156106d257600080fd5b506106ed60048036038101906106e89190613f83565b61217b565b005b3480156106fb57600080fd5b50610716600480360381019061071191906141a5565b6121dd565b6040516107239190615023565b60405180910390f35b34801561073857600080fd5b50610753600480360381019061074e91906140b2565b612284565b6040516107609190615465565b60405180910390f35b34801561077557600080fd5b50610790600480360381019061078b9190613ecf565b6122a8565b005b34801561079e57600080fd5b506107a7612368565b6040516107b49190615008565b60405180910390f35b3480156107c957600080fd5b506107e460048036038101906107df91906140db565b61238c565b005b3480156107f257600080fd5b5061080d60048036038101906108089190613ef8565b6123c0565b60405161081a9190614fed565b60405180910390f35b34801561082f57600080fd5b5061084a60048036038101906108459190614076565b612454565b005b34801561085857600080fd5b50610873600480360381019061086e9190613ecf565b612566565b005b6011548161088391906155ab565b3410156108c5576040517f08c379a00000000000000000000000000000000000000000000000000000000081526004016108bc90615445565b60405180910390fd5b6000601460003373ffffffffffffffffffffffffffffffffffffffff1673ffffffffffffffffffffffffffffffffffffffff16815260200190815260200160002054141561097157600c339080600181540180825580915050600190039060005260206000200160009091909190916101000a81548173ffffffffffffffffffffffffffffffffffffffff021916908373ffffffffffffffffffffffffffffffffffffffff1602179055505b6000601460003373ffffffffffffffffffffffffffffffffffffffff1673ffffffffffffffffffffffffffffffffffffffff16815260200190815260200160002054905034816109c19190615524565b601460003373ffffffffffffffffffffffffffffffffffffffff1673ffffffffffffffffffffffffffffffffffffffff168152602001908152602001600020819055507ffe123a1efb6782dccd20e9790951adcfab3cd0e11b85a6f06d8b9222d299a0a33334604051610a35929190614fc4565b60405180910390a15050565b6000610a4c82612750565b9050919050565b606060008054610a6290615759565b80601f0160208091040260200160405190810160405280929190818152602001828054610a8e90615759565b8015610adb5780601f10610ab057610100808354040283529160200191610adb565b820191906000526020600020905b815481529060010190602001808311610abe57829003601f168201915b5050505050905090565b6000610af0826127ca565b610b2f576040517f08c379a0000000000000000000000000000000000000000000000000000000008152600401610b2690615305565b60405180910390fd5b6004600083815260200190815260200160002060009054906101000a900473ffffffffffffffffffffffffffffffffffffffff169050919050565b6000610b758261178a565b90508073ffffffffffffffffffffffffffffffffffffffff168373ffffffffffffffffffffffffffffffffffffffff161415610be6576040517f08c379a0000000000000000000000000000000000000000000000000000000008152600401610bdd906153a5565b60405180910390fd5b8073ffffffffffffffffffffffffffffffffffffffff16610c05612836565b73ffffffffffffffffffffffffffffffffffffffff161480610c345750610c3381610c2e612836565b6123c0565b5b610c73576040517f08c379a0000000000000000000000000000000000000000000000000000000008152600401610c6a90615285565b60405180910390fd5b610c7d838361283e565b505050565b610c8a612836565b73ffffffffffffffffffffffffffffffffffffffff16610ca8611e9d565b73ffffffffffffffffffffffffffffffffffffffff1614610cfe576040517f08c379a0000000000000000000000000000000000000000000000000000000008152600401610cf590615325565b60405180910390fd5b601354471015610d43576040517f08c379a0000000000000000000000000000000000000000000000000000000008152600401610d3a90615165565b60405180910390fd5b60005b610d50600a6128f7565b811015610dd3576000610d628261178a565b9050610d7681610d70611e9d565b84612905565b8073ffffffffffffffffffffffffffffffffffffffff166108fc6011549081150290604051600060405180830381858888f19350505050158015610dbe573d6000803e3d6000fd5b50508080610dcb9061578b565b915050610d46565b50565b610de7610de1612836565b82612915565b610e26576040517f08c379a0000000000000000000000000000000000000000000000000000000008152600401610e1d906153e5565b60405180910390fd5b610e318383836129f3565b505050565b600060066000838152602001908152602001600020600101549050919050565b610e608282612c4f565b610e85816007600085815260200190815260200160002061272090919063ffffffff16565b505050565b610e948282612c78565b610eb98160076000858152602001908152602001600020612cfb90919063ffffffff16565b505050565b600b60009054906101000a900460ff16610f0d576040517f08c379a0000000000000000000000000000000000000000000000000000000008152600401610f0490615085565b60405180910390fd5b600f60009054906101000a900473ffffffffffffffffffffffffffffffffffffffff1673ffffffffffffffffffffffffffffffffffffffff163373ffffffffffffffffffffffffffffffffffffffff1614610f9d576040517f08c379a0000000000000000000000000000000000000000000000000000000008152600401610f9490615105565b60405180910390fd5b6000600b60006101000a81548160ff0219169083151502179055507f5db9ee0a495bf2e6ff9c91a7834c1ba4fdd244a5e8aa4e537bd38aeae4b073aa610fe1612836565b604051610fee9190614f34565b60405180910390a1565b6110138383836040518060200160405280600081525061217b565b505050565b611022600a6128f7565b60125461102f91906155ab565b341015611071576040517f08c379a0000000000000000000000000000000000000000000000000000000008152600401611068906153c5565b60405180910390fd5b60005b61107e600a6128f7565b8110156111285760006110908261178a565b90508073ffffffffffffffffffffffffffffffffffffffff166108fc6012549081150290604051600060405180830381858888f193505050501580156110da573d6000803e3d6000fd5b507fb3224bc7c2e6157092b5f650cc8b06e5f0c34d8218b6e9a1a5a39c2e43706e40818360405161110c929190614f4f565b60405180910390a15080806111209061578b565b915050611074565b50565b600e60009054906101000a900473ffffffffffffffffffffffffffffffffffffffff1673ffffffffffffffffffffffffffffffffffffffff163373ffffffffffffffffffffffffffffffffffffffff16146111bb576040517f08c379a00000000000000000000000000000000000000000000000000000000081526004016111b2906151c5565b60405180910390fd5b601354341015611200576040517f08c379a00000000000000000000000000000000000000000000000000000000081526004016111f790615405565b60405180910390fd5b60005b61120d600a6128f7565b8110156112cb57600061121f8261178a565b905061124e81600d60009054906101000a900473ffffffffffffffffffffffffffffffffffffffff1684612905565b8073ffffffffffffffffffffffffffffffffffffffff166108fc6011549081150290604051600060405180830381858888f19350505050158015611296573d6000803e3d6000fd5b506011546013546112a79190615605565b6013819055506112b7600a612d2b565b5080806112c39061578b565b915050611203565b50565b6000600b60009054906101000a900460ff16905090565b60008073ffffffffffffffffffffffffffffffffffffffff168273ffffffffffffffffffffffffffffffffffffffff161415611356576040517f08c379a000000000000000000000000000000000000000000000000000000000815260040161134d90615345565b60405180910390fd5b601460008373ffffffffffffffffffffffffffffffffffffffff1673ffffffffffffffffffffffffffffffffffffffff168152602001908152602001600020549050919050565b6113ce7f9f2df0fed2c77648de5860a4cc508cd0818c85b8b8a1ab4ceeef8d981c8956a66113c9612836565b611ef6565b61140d576040517f08c379a0000000000000000000000000000000000000000000000000000000008152600401611404906150a5565b60405180910390fd5b60005b600c80549050811015611787576000600c8281548110611459577f4e487b7100000000000000000000000000000000000000000000000000000000600052603260045260246000fd5b9060005260206000200160009054906101000a900473ffffffffffffffffffffffffffffffffffffffff1690506000601154601460008473ffffffffffffffffffffffffffffffffffffffff1673ffffffffffffffffffffffffffffffffffffffff168152602001908152602001600020546114d5919061557a565b9050600e60009054906101000a900473ffffffffffffffffffffffffffffffffffffffff1673ffffffffffffffffffffffffffffffffffffffff166108fc8260115461152191906155ab565b9081150290604051600060405180830381858888f1935050505015801561154c573d6000803e3d6000fd5b506011548161155b91906155ab565b601460008473ffffffffffffffffffffffffffffffffffffffff1673ffffffffffffffffffffffffffffffffffffffff1681526020019081526020016000205411156116d0578173ffffffffffffffffffffffffffffffffffffffff166108fc601154836115c991906155ab565b601460008673ffffffffffffffffffffffffffffffffffffffff1673ffffffffffffffffffffffffffffffffffffffff168152602001908152602001600020546116139190615605565b9081150290604051600060405180830381858888f1935050505015801561163e573d6000803e3d6000fd5b507f2ee76d0c8417fef3c9f68663d321eb1c1ed0e089b5298177f0582aeadb6fd91f826011548361166f91906155ab565b601460008673ffffffffffffffffffffffffffffffffffffffff1673ffffffffffffffffffffffffffffffffffffffff168152602001908152602001600020546116b99190615605565b6040516116c7929190614fc4565b60405180910390a15b6000601460008473ffffffffffffffffffffffffffffffffffffffff1673ffffffffffffffffffffffffffffffffffffffff168152602001908152602001600020819055508060115461172391906155ab565b6013546117309190615524565b60138190555060005b81811015611771576117548361174f600a6128f7565b612d87565b61175e600a612f55565b80806117699061578b565b915050611739565b505050808061177f9061578b565b915050611410565b50565b6000806002600084815260200190815260200160002060009054906101000a900473ffffffffffffffffffffffffffffffffffffffff169050600073ffffffffffffffffffffffffffffffffffffffff168173ffffffffffffffffffffffffffffffffffffffff161415611833576040517f08c379a000000000000000000000000000000000000000000000000000000000815260040161182a906152c5565b60405180910390fd5b80915050919050565b60008073ffffffffffffffffffffffffffffffffffffffff168273ffffffffffffffffffffffffffffffffffffffff1614156118ad576040517f08c379a00000000000000000000000000000000000000000000000000000000081526004016118a4906152a5565b60405180910390fd5b600360008373ffffffffffffffffffffffffffffffffffffffff1673ffffffffffffffffffffffffffffffffffffffff168152602001908152602001600020549050919050565b6118fc612836565b73ffffffffffffffffffffffffffffffffffffffff1661191a611e9d565b73ffffffffffffffffffffffffffffffffffffffff1614611970576040517f08c379a000000000000000000000000000000000000000000000000000000000815260040161196790615325565b60405180910390fd5b600073ffffffffffffffffffffffffffffffffffffffff16600860009054906101000a900473ffffffffffffffffffffffffffffffffffffffff1673ffffffffffffffffffffffffffffffffffffffff167f8be0079c531659141344cd1fd0a4f28419497f9722a3daafe3b4186f6b6457e060405160405180910390a36000600860006101000a81548173ffffffffffffffffffffffffffffffffffffffff021916908373ffffffffffffffffffffffffffffffffffffffff160217905550565b611a627f9f2df0fed2c77648de5860a4cc508cd0818c85b8b8a1ab4ceeef8d981c8956a6611a5d612836565b611ef6565b611aa1576040517f08c379a0000000000000000000000000000000000000000000000000000000008152600401611a98906150a5565b60405180910390fd5b60115482611aaf91906155ab565b601460008373ffffffffffffffffffffffffffffffffffffffff1673ffffffffffffffffffffffffffffffffffffffff168152602001908152602001600020541015611b30576040517f08c379a0000000000000000000000000000000000000000000000000000000008152600401611b2790615225565b60405180910390fd5b600e60009054906101000a900473ffffffffffffffffffffffffffffffffffffffff1673ffffffffffffffffffffffffffffffffffffffff166108fc83601154611b7a91906155ab565b9081150290604051600060405180830381858888f19350505050158015611ba5573d6000803e3d6000fd5b5060115482611bb491906155ab565b601460008373ffffffffffffffffffffffffffffffffffffffff1673ffffffffffffffffffffffffffffffffffffffff16815260200190815260200160002054611bfe9190615605565b601460008373ffffffffffffffffffffffffffffffffffffffff1673ffffffffffffffffffffffffffffffffffffffff1681526020019081526020016000208190555060115482611c4f91906155ab565b601354611c5c9190615524565b60138190555060005b82811015611c9d57611c8082611c7b600a6128f7565b612d87565b611c8a600a612f55565b8080611c959061578b565b915050611c65565b505050565b600b60009054906101000a900460ff1615611cf2576040517f08c379a0000000000000000000000000000000000000000000000000000000008152600401611ce990615245565b60405180910390fd5b600f60009054906101000a900473ffffffffffffffffffffffffffffffffffffffff1673ffffffffffffffffffffffffffffffffffffffff163373ffffffffffffffffffffffffffffffffffffffff1614611d82576040517f08c379a0000000000000000000000000000000000000000000000000000000008152600401611d7990615265565b60405180910390fd5b6001600b60006101000a81548160ff0219169083151502179055507f62e78cea01bee320cd4e420270b5ea74000d11b0c9f74754ebdbfc544b05a258611dc6612836565b604051611dd39190614f34565b60405180910390a1565b611de5612836565b73ffffffffffffffffffffffffffffffffffffffff16611e03611e9d565b73ffffffffffffffffffffffffffffffffffffffff1614611e59576040517f08c379a0000000000000000000000000000000000000000000000000000000008152600401611e5090615325565b60405180910390fd5b80601060006101000a81548173ffffffffffffffffffffffffffffffffffffffff021916908373ffffffffffffffffffffffffffffffffffffffff16021790555050565b6000600860009054906101000a900473ffffffffffffffffffffffffffffffffffffffff16905090565b6000611eee8260076000868152602001908152602001600020612f6b90919063ffffffff16565b905092915050565b60006006600084815260200190815260200160002060000160008373ffffffffffffffffffffffffffffffffffffffff1673ffffffffffffffffffffffffffffffffffffffff16815260200190815260200160002060009054906101000a900460ff16905092915050565b606060018054611f7090615759565b80601f0160208091040260200160405190810160405280929190818152602001828054611f9c90615759565b8015611fe95780601f10611fbe57610100808354040283529160200191611fe9565b820191906000526020600020905b815481529060010190602001808311611fcc57829003601f168201915b5050505050905090565b6000801b81565b612002612836565b73ffffffffffffffffffffffffffffffffffffffff168273ffffffffffffffffffffffffffffffffffffffff161415612070576040517f08c379a0000000000000000000000000000000000000000000000000000000008152600401612067906151a5565b60405180910390fd5b806005600061207d612836565b73ffffffffffffffffffffffffffffffffffffffff1673ffffffffffffffffffffffffffffffffffffffff16815260200190815260200160002060008473ffffffffffffffffffffffffffffffffffffffff1673ffffffffffffffffffffffffffffffffffffffff16815260200190815260200160002060006101000a81548160ff0219169083151502179055508173ffffffffffffffffffffffffffffffffffffffff1661212a612836565b73ffffffffffffffffffffffffffffffffffffffff167f17307eab39ab6107e8899845ad3d59bd9653f200f220920489ca2b5937696c318360405161216f9190614fed565b60405180910390a35050565b61218c612186612836565b83612915565b6121cb576040517f08c379a00000000000000000000000000000000000000000000000000000000081526004016121c2906153e5565b60405180910390fd5b6121d784848484612f85565b50505050565b60606121e8826127ca565b612227576040517f08c379a000000000000000000000000000000000000000000000000000000000815260040161221e90615385565b60405180910390fd5b6000612231612fe1565b90506000815111612251576040518060200160405280600081525061227c565b8061225b84613073565b60405160200161226c929190614ed6565b6040516020818303038152906040525b915050919050565b60006122a160076000848152602001908152602001600020613220565b9050919050565b6122b0612836565b73ffffffffffffffffffffffffffffffffffffffff166122ce611e9d565b73ffffffffffffffffffffffffffffffffffffffff1614612324576040517f08c379a000000000000000000000000000000000000000000000000000000000815260040161231b90615325565b60405180910390fd5b80600f60006101000a81548173ffffffffffffffffffffffffffffffffffffffff021916908373ffffffffffffffffffffffffffffffffffffffff16021790555050565b7f9f2df0fed2c77648de5860a4cc508cd0818c85b8b8a1ab4ceeef8d981c8956a681565b6123968282613235565b6123bb8160076000858152602001908152602001600020612cfb90919063ffffffff16565b505050565b6000600560008473ffffffffffffffffffffffffffffffffffffffff1673ffffffffffffffffffffffffffffffffffffffff16815260200190815260200160002060008373ffffffffffffffffffffffffffffffffffffffff1673ffffffffffffffffffffffffffffffffffffffff16815260200190815260200160002060009054906101000a900460ff16905092915050565b601060009054906101000a900473ffffffffffffffffffffffffffffffffffffffff1673ffffffffffffffffffffffffffffffffffffffff163373ffffffffffffffffffffffffffffffffffffffff16146124ae57600080fd5b81156124cd57806012546124c29190615524565b601281905550612527565b601254811115612512576040517f08c379a0000000000000000000000000000000000000000000000000000000008152600401612509906151e5565b60405180910390fd5b806012546125209190615605565b6012819055505b7fca1d6283d1b481c7291c2fc81205d98456d1c2948caa5f9460dd3e35ca34e4163360125460405161255a929190614fc4565b60405180910390a15050565b61256e612836565b73ffffffffffffffffffffffffffffffffffffffff1661258c611e9d565b73ffffffffffffffffffffffffffffffffffffffff16146125e2576040517f08c379a00000000000000000000000000000000000000000000000000000000081526004016125d990615325565b60405180910390fd5b600073ffffffffffffffffffffffffffffffffffffffff168173ffffffffffffffffffffffffffffffffffffffff161415612652576040517f08c379a000000000000000000000000000000000000000000000000000000000815260040161264990615125565b60405180910390fd5b8073ffffffffffffffffffffffffffffffffffffffff16600860009054906101000a900473ffffffffffffffffffffffffffffffffffffffff1673ffffffffffffffffffffffffffffffffffffffff167f8be0079c531659141344cd1fd0a4f28419497f9722a3daafe3b4186f6b6457e060405160405180910390a380600860006101000a81548173ffffffffffffffffffffffffffffffffffffffff021916908373ffffffffffffffffffffffffffffffffffffffff16021790555050565b61271c828261325e565b5050565b6000612748836000018373ffffffffffffffffffffffffffffffffffffffff1660001b61333f565b905092915050565b60007f5a05180f000000000000000000000000000000000000000000000000000000007bffffffffffffffffffffffffffffffffffffffffffffffffffffffff1916827bffffffffffffffffffffffffffffffffffffffffffffffffffffffff191614806127c357506127c2826133af565b5b9050919050565b60008073ffffffffffffffffffffffffffffffffffffffff166002600084815260200190815260200160002060009054906101000a900473ffffffffffffffffffffffffffffffffffffffff1673ffffffffffffffffffffffffffffffffffffffff1614159050919050565b600033905090565b816004600083815260200190815260200160002060006101000a81548173ffffffffffffffffffffffffffffffffffffffff021916908373ffffffffffffffffffffffffffffffffffffffff160217905550808273ffffffffffffffffffffffffffffffffffffffff166128b18361178a565b73ffffffffffffffffffffffffffffffffffffffff167f8c5be1e5ebec7d5bd14f71427d1e84f3dd0314c0f7b2291e5b200ac8c7c3b92560405160405180910390a45050565b600081600001549050919050565b6129108383836129f3565b505050565b6000612920826127ca565b61295f576040517f08c379a000000000000000000000000000000000000000000000000000000000815260040161295690615205565b60405180910390fd5b600061296a8361178a565b90508073ffffffffffffffffffffffffffffffffffffffff168473ffffffffffffffffffffffffffffffffffffffff1614806129d957508373ffffffffffffffffffffffffffffffffffffffff166129c184610ae5565b73ffffffffffffffffffffffffffffffffffffffff16145b806129ea57506129e981856123c0565b5b91505092915050565b8273ffffffffffffffffffffffffffffffffffffffff16612a138261178a565b73ffffffffffffffffffffffffffffffffffffffff1614612a69576040517f08c379a0000000000000000000000000000000000000000000000000000000008152600401612a6090615365565b60405180910390fd5b600073ffffffffffffffffffffffffffffffffffffffff168273ffffffffffffffffffffffffffffffffffffffff161415612ad9576040517f08c379a0000000000000000000000000000000000000000000000000000000008152600401612ad090615185565b60405180910390fd5b612ae4838383613429565b612aef60008261283e565b6001600360008573ffffffffffffffffffffffffffffffffffffffff1673ffffffffffffffffffffffffffffffffffffffff1681526020019081526020016000206000828254612b3f9190615605565b925050819055506001600360008473ffffffffffffffffffffffffffffffffffffffff1673ffffffffffffffffffffffffffffffffffffffff1681526020019081526020016000206000828254612b969190615524565b92505081905550816002600083815260200190815260200160002060006101000a81548173ffffffffffffffffffffffffffffffffffffffff021916908373ffffffffffffffffffffffffffffffffffffffff160217905550808273ffffffffffffffffffffffffffffffffffffffff168473ffffffffffffffffffffffffffffffffffffffff167fddf252ad1be2c89b69c2b068fc378daa952ba7f163c4a11628f55a4df523b3ef60405160405180910390a4505050565b612c5882610e36565b612c6981612c64612836565b61342e565b612c73838361325e565b505050565b612c80612836565b73ffffffffffffffffffffffffffffffffffffffff168173ffffffffffffffffffffffffffffffffffffffff1614612ced576040517f08c379a0000000000000000000000000000000000000000000000000000000008152600401612ce490615425565b60405180910390fd5b612cf782826134cb565b5050565b6000612d23836000018373ffffffffffffffffffffffffffffffffffffffff1660001b6135ad565b905092915050565b60008160000154905060008111612d77576040517f08c379a0000000000000000000000000000000000000000000000000000000008152600401612d6e906150c5565b60405180910390fd5b6001810382600001819055505050565b600073ffffffffffffffffffffffffffffffffffffffff168273ffffffffffffffffffffffffffffffffffffffff161415612df7576040517f08c379a0000000000000000000000000000000000000000000000000000000008152600401612dee906152e5565b60405180910390fd5b612e00816127ca565b15612e40576040517f08c379a0000000000000000000000000000000000000000000000000000000008152600401612e3790615145565b60405180910390fd5b612e4c60008383613429565b6001600360008473ffffffffffffffffffffffffffffffffffffffff1673ffffffffffffffffffffffffffffffffffffffff1681526020019081526020016000206000828254612e9c9190615524565b92505081905550816002600083815260200190815260200160002060006101000a81548173ffffffffffffffffffffffffffffffffffffffff021916908373ffffffffffffffffffffffffffffffffffffffff160217905550808273ffffffffffffffffffffffffffffffffffffffff16600073ffffffffffffffffffffffffffffffffffffffff167fddf252ad1be2c89b69c2b068fc378daa952ba7f163c4a11628f55a4df523b3ef60405160405180910390a45050565b6001816000016000828254019250508190555050565b6000612f7a836000018361372b565b60001c905092915050565b612f908484846129f3565b612f9c848484846137c5565b612fdb576040517f08c379a0000000000000000000000000000000000000000000000000000000008152600401612fd2906150e5565b60405180910390fd5b50505050565b606060098054612ff090615759565b80601f016020809104026020016040519081016040528092919081815260200182805461301c90615759565b80156130695780601f1061303e57610100808354040283529160200191613069565b820191906000526020600020905b81548152906001019060200180831161304c57829003601f168201915b5050505050905090565b606060008214156130bb576040518060400160405280600181526020017f3000000000000000000000000000000000000000000000000000000000000000815250905061321b565b600082905060005b600082146130ed5780806130d69061578b565b915050600a826130e6919061557a565b91506130c3565b60008167ffffffffffffffff81111561312f577f4e487b7100000000000000000000000000000000000000000000000000000000600052604160045260246000fd5b6040519080825280601f01601f1916602001820160405280156131615781602001600182028036833780820191505090505b5090505b600085146132145760018261317a9190615605565b9150600a8561318991906157d4565b60306131959190615524565b60f81b8183815181106131d1577f4e487b7100000000000000000000000000000000000000000000000000000000600052603260045260246000fd5b60200101907effffffffffffffffffffffffffffffffffffffffffffffffffffffffffffff1916908160001a905350600a8561320d919061557a565b9450613165565b8093505050505b919050565b600061322e8260000161395c565b9050919050565b61323e82610e36565b61324f8161324a612836565b61342e565b61325983836134cb565b505050565b6132688282611ef6565b61333b5760016006600084815260200190815260200160002060000160008373ffffffffffffffffffffffffffffffffffffffff1673ffffffffffffffffffffffffffffffffffffffff16815260200190815260200160002060006101000a81548160ff0219169083151502179055506132e0612836565b73ffffffffffffffffffffffffffffffffffffffff168173ffffffffffffffffffffffffffffffffffffffff16837f2f8788117e7eff1d82e926ec794901d17c78024a50270940304540a733656f0d60405160405180910390a45b5050565b600061334b838361396d565b6133a45782600001829080600181540180825580915050600190039060005260206000200160009091909190915055826000018054905083600101600084815260200190815260200160002081905550600190506133a9565b600090505b92915050565b60007f7965db0b000000000000000000000000000000000000000000000000000000007bffffffffffffffffffffffffffffffffffffffffffffffffffffffff1916827bffffffffffffffffffffffffffffffffffffffffffffffffffffffff19161480613422575061342182613990565b5b9050919050565b505050565b6134388282611ef6565b6134c75761345d8173ffffffffffffffffffffffffffffffffffffffff166014613a72565b61346b8360001c6020613a72565b60405160200161347c929190614efa565b6040516020818303038152906040526040517f08c379a00000000000000000000000000000000000000000000000000000000081526004016134be9190615023565b60405180910390fd5b5050565b6134d58282611ef6565b156135a95760006006600084815260200190815260200160002060000160008373ffffffffffffffffffffffffffffffffffffffff1673ffffffffffffffffffffffffffffffffffffffff16815260200190815260200160002060006101000a81548160ff02191690831515021790555061354e612836565b73ffffffffffffffffffffffffffffffffffffffff168173ffffffffffffffffffffffffffffffffffffffff16837ff6391f5c32d9c69d2a47ea670b442974b53935d1edc7fd64eb21e047a839171b60405160405180910390a45b5050565b6000808360010160008481526020019081526020016000205490506000811461371f5760006001826135df9190615605565b90506000600186600001805490506135f79190615605565b90506000866000018281548110613637577f4e487b7100000000000000000000000000000000000000000000000000000000600052603260045260246000fd5b9060005260206000200154905080876000018481548110613681577f4e487b7100000000000000000000000000000000000000000000000000000000600052603260045260246000fd5b90600052602060002001819055508387600101600083815260200190815260200160002081905550866000018054806136e3577f4e487b7100000000000000000000000000000000000000000000000000000000600052603160045260246000fd5b60019003818190600052602060002001600090559055866001016000878152602001908152602001600020600090556001945050505050613725565b60009150505b92915050565b600081836000018054905011613776576040517f08c379a000000000000000000000000000000000000000000000000000000000815260040161376d90615045565b60405180910390fd5b8260000182815481106137b2577f4e487b7100000000000000000000000000000000000000000000000000000000600052603260045260246000fd5b9060005260206000200154905092915050565b60006137e68473ffffffffffffffffffffffffffffffffffffffff16613d6c565b1561394f578373ffffffffffffffffffffffffffffffffffffffff1663150b7a0261380f612836565b8786866040518563ffffffff1660e01b81526004016138319493929190614f78565b602060405180830381600087803b15801561384b57600080fd5b505af192505050801561387c57506040513d601f19601f82011682018060405250810190613879919061417c565b60015b6138ff573d80600081146138ac576040519150601f19603f3d011682016040523d82523d6000602084013e6138b1565b606091505b506000815114156138f7576040517f08c379a00000000000000000000000000000000000000000000000000000000081526004016138ee906150e5565b60405180910390fd5b805181602001fd5b63150b7a0260e01b7bffffffffffffffffffffffffffffffffffffffffffffffffffffffff1916817bffffffffffffffffffffffffffffffffffffffffffffffffffffffff191614915050613954565b600190505b949350505050565b600081600001805490509050919050565b600080836001016000848152602001908152602001600020541415905092915050565b60007f80ac58cd000000000000000000000000000000000000000000000000000000007bffffffffffffffffffffffffffffffffffffffffffffffffffffffff1916827bffffffffffffffffffffffffffffffffffffffffffffffffffffffff19161480613a5b57507f5b5e139f000000000000000000000000000000000000000000000000000000007bffffffffffffffffffffffffffffffffffffffffffffffffffffffff1916827bffffffffffffffffffffffffffffffffffffffffffffffffffffffff1916145b80613a6b5750613a6a82613d7f565b5b9050919050565b606060006002836002613a8591906155ab565b613a8f9190615524565b67ffffffffffffffff811115613ace577f4e487b7100000000000000000000000000000000000000000000000000000000600052604160045260246000fd5b6040519080825280601f01601f191660200182016040528015613b005781602001600182028036833780820191505090505b5090507f300000000000000000000000000000000000000000000000000000000000000081600081518110613b5e577f4e487b7100000000000000000000000000000000000000000000000000000000600052603260045260246000fd5b60200101907effffffffffffffffffffffffffffffffffffffffffffffffffffffffffffff1916908160001a9053507f780000000000000000000000000000000000000000000000000000000000000081600181518110613be8577f4e487b7100000000000000000000000000000000000000000000000000000000600052603260045260246000fd5b60200101907effffffffffffffffffffffffffffffffffffffffffffffffffffffffffffff1916908160001a90535060006001846002613c2891906155ab565b613c329190615524565b90505b6001811115613d1e577f3031323334353637383961626364656600000000000000000000000000000000600f861660108110613c9a577f4e487b7100000000000000000000000000000000000000000000000000000000600052603260045260246000fd5b1a60f81b828281518110613cd7577f4e487b7100000000000000000000000000000000000000000000000000000000600052603260045260246000fd5b60200101907effffffffffffffffffffffffffffffffffffffffffffffffffffffffffffff1916908160001a905350600485901c945080613d179061572f565b9050613c35565b5060008414613d62576040517f08c379a0000000000000000000000000000000000000000000000000000000008152600401613d5990615065565b60405180910390fd5b8091505092915050565b600080823b905060008111915050919050565b60007f01ffc9a7000000000000000000000000000000000000000000000000000000007bffffffffffffffffffffffffffffffffffffffffffffffffffffffff1916827bffffffffffffffffffffffffffffffffffffffffffffffffffffffff1916149050919050565b6000613dfc613df7846154b1565b615480565b905082815260208101848484011115613e1457600080fd5b613e1f8482856156ed565b509392505050565b600081359050613e36816158d2565b92915050565b600081359050613e4b816158e9565b92915050565b600081359050613e6081615900565b92915050565b600081359050613e7581615917565b92915050565b600081519050613e8a81615917565b92915050565b600082601f830112613ea157600080fd5b8135613eb1848260208601613de9565b91505092915050565b600081359050613ec98161592e565b92915050565b600060208284031215613ee157600080fd5b6000613eef84828501613e27565b91505092915050565b60008060408385031215613f0b57600080fd5b6000613f1985828601613e27565b9250506020613f2a85828601613e27565b9150509250929050565b600080600060608486031215613f4957600080fd5b6000613f5786828701613e27565b9350506020613f6886828701613e27565b9250506040613f7986828701613eba565b9150509250925092565b60008060008060808587031215613f9957600080fd5b6000613fa787828801613e27565b9450506020613fb887828801613e27565b9350506040613fc987828801613eba565b925050606085013567ffffffffffffffff811115613fe657600080fd5b613ff287828801613e90565b91505092959194509250565b6000806040838503121561401157600080fd5b600061401f85828601613e27565b925050602061403085828601613e3c565b9150509250929050565b6000806040838503121561404d57600080fd5b600061405b85828601613e27565b925050602061406c85828601613eba565b9150509250929050565b6000806040838503121561408957600080fd5b600061409785828601613e3c565b92505060206140a885828601613eba565b9150509250929050565b6000602082840312156140c457600080fd5b60006140d284828501613e51565b91505092915050565b600080604083850312156140ee57600080fd5b60006140fc85828601613e51565b925050602061410d85828601613e27565b9150509250929050565b6000806040838503121561412a57600080fd5b600061413885828601613e51565b925050602061414985828601613eba565b9150509250929050565b60006020828403121561416557600080fd5b600061417384828501613e66565b91505092915050565b60006020828403121561418e57600080fd5b600061419c84828501613e7b565b91505092915050565b6000602082840312156141b757600080fd5b60006141c584828501613eba565b91505092915050565b600080604083850312156141e157600080fd5b60006141ef85828601613eba565b925050602061420085828601613e27565b9150509250929050565b614213816156b7565b82525050565b61422281615639565b82525050565b6142318161564b565b82525050565b61424081615657565b82525050565b6000614251826154e1565b61425b81856154f7565b935061426b8185602086016156fc565b614274816158c1565b840191505092915050565b600061428a826154ec565b6142948185615508565b93506142a48185602086016156fc565b6142ad816158c1565b840191505092915050565b60006142c3826154ec565b6142cd8185615519565b93506142dd8185602086016156fc565b80840191505092915050565b60006142f6602283615508565b91507f456e756d657261626c655365743a20696e646578206f7574206f6620626f756e60008301527f64730000000000000000000000000000000000000000000000000000000000006020830152604082019050919050565b600061435c602083615508565b91507f537472696e67733a20686578206c656e67746820696e73756666696369656e746000830152602082019050919050565b600061439c601483615508565b91507f5061757361626c653a206e6f74207061757365640000000000000000000000006000830152602082019050919050565b60006143dc602483615508565b91507f4d696e746572206d7573742068617665206d696e74657220726f6c6520746f2060008301527f6d696e74000000000000000000000000000000000000000000000000000000006020830152604082019050919050565b6000614442601b83615508565b91507f436f756e7465723a2064656372656d656e74206f766572666c6f7700000000006000830152602082019050919050565b6000614482603283615508565b91507f4552433732313a207472616e7366657220746f206e6f6e20455243373231526560008301527f63656976657220696d706c656d656e74657200000000000000000000000000006020830152604082019050919050565b60006144e8602283615508565b91507f556e7061757365722063616e206f6e6c792062652074686520726567756c617460008301527f6f720000000000000000000000000000000000000000000000000000000000006020830152604082019050919050565b600061454e602683615508565b91507f4f776e61626c653a206e6577206f776e657220697320746865207a65726f206160008301527f64647265737300000000000000000000000000000000000000000000000000006020830152604082019050919050565b60006145b4601c83615508565b91507f4552433732313a20746f6b656e20616c7265616479206d696e746564000000006000830152602082019050919050565b60006145f4602d83615508565b91507f54686572652773206e6f7420656e6f75676820737461626c6520636f696e206660008301527f6f7220736574746c656d656e74000000000000000000000000000000000000006020830152604082019050919050565b600061465a602483615508565b91507f4552433732313a207472616e7366657220746f20746865207a65726f2061646460008301527f72657373000000000000000000000000000000000000000000000000000000006020830152604082019050919050565b60006146c0601983615508565b91507f4552433732313a20617070726f766520746f2063616c6c6572000000000000006000830152602082019050919050565b6000614700602e83615508565b91507f506179696e6720636f6d70616e792073686f756c642062652074686520626f7260008301527f726f77696e6720636f6d70616e790000000000000000000000000000000000006020830152604082019050919050565b6000614766602083615508565b91507f436f75706f6e207061796d656e742063616e2774206265206e656761746976656000830152602082019050919050565b60006147a6602c83615508565b91507f4552433732313a206f70657261746f7220717565727920666f72206e6f6e657860008301527f697374656e7420746f6b656e00000000000000000000000000000000000000006020830152604082019050919050565b600061480c602c83615508565b91507f496e766573746f7220686173206e6f7420656e6f7567682066756e647320666f60008301527f722074686520746f6b656e7300000000000000000000000000000000000000006020830152604082019050919050565b6000614872601083615508565b91507f5061757361626c653a20706175736564000000000000000000000000000000006000830152602082019050919050565b60006148b2602083615508565b91507f5061757365722063616e206f6e6c792062652074686520726567756c61746f726000830152602082019050919050565b60006148f2603883615508565b91507f4552433732313a20617070726f76652063616c6c6572206973206e6f74206f7760008301527f6e6572206e6f7220617070726f76656420666f7220616c6c00000000000000006020830152604082019050919050565b6000614958602a83615508565b91507f4552433732313a2062616c616e636520717565727920666f7220746865207a6560008301527f726f2061646472657373000000000000000000000000000000000000000000006020830152604082019050919050565b60006149be602983615508565b91507f4552433732313a206f776e657220717565727920666f72206e6f6e657869737460008301527f656e7420746f6b656e00000000000000000000000000000000000000000000006020830152604082019050919050565b6000614a24602083615508565b91507f4552433732313a206d696e7420746f20746865207a65726f20616464726573736000830152602082019050919050565b6000614a64602c83615508565b91507f4552433732313a20617070726f76656420717565727920666f72206e6f6e657860008301527f697374656e7420746f6b656e00000000000000000000000000000000000000006020830152604082019050919050565b6000614aca602083615508565b91507f4f776e61626c653a2063616c6c6572206973206e6f7420746865206f776e65726000830152602082019050919050565b6000614b0a602283615508565b91507f42616c616e636520717565727920666f7220746865207a65726f20616464726560008301527f73730000000000000000000000000000000000000000000000000000000000006020830152604082019050919050565b6000614b70602983615508565b91507f4552433732313a207472616e73666572206f6620746f6b656e2074686174206960008301527f73206e6f74206f776e00000000000000000000000000000000000000000000006020830152604082019050919050565b6000614bd6602f83615508565b91507f4552433732314d657461646174613a2055524920717565727920666f72206e6f60008301527f6e6578697374656e7420746f6b656e00000000000000000000000000000000006020830152604082019050919050565b6000614c3c602183615508565b91507f4552433732313a20617070726f76616c20746f2063757272656e74206f776e6560008301527f72000000000000000000000000000000000000000000000000000000000000006020830152604082019050919050565b6000614ca2601c83615508565b91507f4e6f7420656e6f75676820636f696e7320666f7220636f75706f6e73000000006000830152602082019050919050565b6000614ce2603183615508565b91507f4552433732313a207472616e736665722063616c6c6572206973206e6f74206f60008301527f776e6572206e6f7220617070726f7665640000000000000000000000000000006020830152604082019050919050565b6000614d48602f83615508565b91507f4e6f7420656e6f75676820636f696e7320746f20736574746c6520746865206260008301527f6f6e64206174206d6174757269747900000000000000000000000000000000006020830152604082019050919050565b6000614dae601783615519565b91507f416363657373436f6e74726f6c3a206163636f756e74200000000000000000006000830152601782019050919050565b6000614dee601183615519565b91507f206973206d697373696e6720726f6c65200000000000000000000000000000006000830152601182019050919050565b6000614e2e602f83615508565b91507f416363657373436f6e74726f6c3a2063616e206f6e6c792072656e6f756e636560008301527f20726f6c657320666f722073656c6600000000000000000000000000000000006020830152604082019050919050565b6000614e94601f83615508565b91507f6e6f7420656e6f75676820636f696e7320666f722074686520616d6f756e74006000830152602082019050919050565b614ed0816156ad565b82525050565b6000614ee282856142b8565b9150614eee82846142b8565b91508190509392505050565b6000614f0582614da1565b9150614f1182856142b8565b9150614f1c82614de1565b9150614f2882846142b8565b91508190509392505050565b6000602082019050614f496000830184614219565b92915050565b6000604082019050614f64600083018561420a565b614f716020830184614ec7565b9392505050565b6000608082019050614f8d6000830187614219565b614f9a6020830186614219565b614fa76040830185614ec7565b8181036060830152614fb98184614246565b905095945050505050565b6000604082019050614fd96000830185614219565b614fe66020830184614ec7565b9392505050565b60006020820190506150026000830184614228565b92915050565b600060208201905061501d6000830184614237565b92915050565b6000602082019050818103600083015261503d818461427f565b905092915050565b6000602082019050818103600083015261505e816142e9565b9050919050565b6000602082019050818103600083015261507e8161434f565b9050919050565b6000602082019050818103600083015261509e8161438f565b9050919050565b600060208201905081810360008301526150be816143cf565b9050919050565b600060208201905081810360008301526150de81614435565b9050919050565b600060208201905081810360008301526150fe81614475565b9050919050565b6000602082019050818103600083015261511e816144db565b9050919050565b6000602082019050818103600083015261513e81614541565b9050919050565b6000602082019050818103600083015261515e816145a7565b9050919050565b6000602082019050818103600083015261517e816145e7565b9050919050565b6000602082019050818103600083015261519e8161464d565b9050919050565b600060208201905081810360008301526151be816146b3565b9050919050565b600060208201905081810360008301526151de816146f3565b9050919050565b600060208201905081810360008301526151fe81614759565b9050919050565b6000602082019050818103600083015261521e81614799565b9050919050565b6000602082019050818103600083015261523e816147ff565b9050919050565b6000602082019050818103600083015261525e81614865565b9050919050565b6000602082019050818103600083015261527e816148a5565b9050919050565b6000602082019050818103600083015261529e816148e5565b9050919050565b600060208201905081810360008301526152be8161494b565b9050919050565b600060208201905081810360008301526152de816149b1565b9050919050565b600060208201905081810360008301526152fe81614a17565b9050919050565b6000602082019050818103600083015261531e81614a57565b9050919050565b6000602082019050818103600083015261533e81614abd565b9050919050565b6000602082019050818103600083015261535e81614afd565b9050919050565b6000602082019050818103600083015261537e81614b63565b9050919050565b6000602082019050818103600083015261539e81614bc9565b9050919050565b600060208201905081810360008301526153be81614c2f565b9050919050565b600060208201905081810360008301526153de81614c95565b9050919050565b600060208201905081810360008301526153fe81614cd5565b9050919050565b6000602082019050818103600083015261541e81614d3b565b9050919050565b6000602082019050818103600083015261543e81614e21565b9050919050565b6000602082019050818103600083015261545e81614e87565b9050919050565b600060208201905061547a6000830184614ec7565b92915050565b6000604051905081810181811067ffffffffffffffff821117156154a7576154a6615892565b5b8060405250919050565b600067ffffffffffffffff8211156154cc576154cb615892565b5b601f19601f8301169050602081019050919050565b600081519050919050565b600081519050919050565b600082825260208201905092915050565b600082825260208201905092915050565b600081905092915050565b600061552f826156ad565b915061553a836156ad565b9250827fffffffffffffffffffffffffffffffffffffffffffffffffffffffffffffffff0382111561556f5761556e615805565b5b828201905092915050565b6000615585826156ad565b9150615590836156ad565b9250826155a05761559f615834565b5b828204905092915050565b60006155b6826156ad565b91506155c1836156ad565b9250817fffffffffffffffffffffffffffffffffffffffffffffffffffffffffffffffff04831182151516156155fa576155f9615805565b5b828202905092915050565b6000615610826156ad565b915061561b836156ad565b92508282101561562e5761562d615805565b5b828203905092915050565b60006156448261568d565b9050919050565b60008115159050919050565b6000819050919050565b60007fffffffff0000000000000000000000000000000000000000000000000000000082169050919050565b600073ffffffffffffffffffffffffffffffffffffffff82169050919050565b6000819050919050565b60006156c2826156c9565b9050919050565b60006156d4826156db565b9050919050565b60006156e68261568d565b9050919050565b82818337600083830152505050565b60005b8381101561571a5780820151818401526020810190506156ff565b83811115615729576000848401525b50505050565b600061573a826156ad565b9150600082141561574e5761574d615805565b5b600182039050919050565b6000600282049050600182168061577157607f821691505b6020821081141561578557615784615863565b5b50919050565b6000615796826156ad565b91507fffffffffffffffffffffffffffffffffffffffffffffffffffffffffffffffff8214156157c9576157c8615805565b5b600182019050919050565b60006157df826156ad565b91506157ea836156ad565b9250826157fa576157f9615834565b5b828206905092915050565b7f4e487b7100000000000000000000000000000000000000000000000000000000600052601160045260246000fd5b7f4e487b7100000000000000000000000000000000000000000000000000000000600052601260045260246000fd5b7f4e487b7100000000000000000000000000000000000000000000000000000000600052602260045260246000fd5b7f4e487b7100000000000000000000000000000000000000000000000000000000600052604160045260246000fd5b6000601f19601f8301169050919050565b6158db81615639565b81146158e657600080fd5b50565b6158f28161564b565b81146158fd57600080fd5b50565b61590981615657565b811461591457600080fd5b50565b61592081615661565b811461592b57600080fd5b50565b615937816156ad565b811461594257600080fd5b5056fea2646970667358221220179e248ddda29711435d5391ef86a0cc62a77741e22b3e0527fd68e712ca2e2f64736f6c63430008000033",
  "immutableReferences": {},
  "source": "// SPDX-License-Identifier: MIT\npragma solidity >=0.6.0;\n\nimport \"@openzeppelin/contracts/token/ERC721/ERC721.sol\";\nimport \"@openzeppelin/contracts/access/AccessControlEnumerable.sol\";\nimport \"@openzeppelin/contracts/access/Ownable.sol\";\nimport \"@openzeppelin/contracts/utils/Counters.sol\";\n\ncontract GreenBond is ERC721, AccessControlEnumerable, Ownable{\n    using Counters for Counters.Counter;\n\n    string private _baseTokenURI;\n    Counters.Counter private _tokenIdTracker;\n    bool private _paused;\n\n    address [] _investors;\n\n    address _owner;\n    address payable _company;\n    address _regulator; // this could be hard coded\n    address _greenVerifier;\n    uint256 _value;\n    uint256 _coupon;\n    uint256 _totalValueRaisedRaised;\n\n    /**\n     * @dev Emitted when an investor registers initial investment request\n     */\n    event Investment(address investor, uint256 value);\n    \n    /**\n     * @dev Emitted when coins are refunded to the investor in case there are\n            too many coins for the investment\n     */\n    event CoinRefund(address investor, uint256 value);\n    \n    /**\n     * @dev Emitted when a coupon payment has been made\n     */\n    event CouponPayment(address investor, uint256 tokenId);\n\n    /**\n     * @dev Emitted when the pause is triggered by a pauser (regulator).\n     */\n    event Paused(address account);\n\n    /**\n     * @dev Emitted when the pause is lifted by a pauser (regulator).\n     */\n    event Unpaused(address account);\n\n    /**\n     * @dev Emmitted when coupon payment is adjusted\n     */\n    event CouponAdjustment(address adjuster, uint256 couponRate);\n\n    mapping (address => uint256) _investedAmountPerInvestor;\n\n    \n\n    bytes32 public constant MINTER_ROLE = keccak256(\"MINTER_ROLE\");\n    \n    // Will need to add pauser address as constructor parameter (financial regulator)\n    constructor(string memory name, string memory symbol, string memory baseTokenURI, \n    address company, uint256 value, uint256 coupon) ERC721 (name, symbol) {\n        require(coupon >= 0, \"Coupon payment can't be negative\");\n        _owner = msg.sender;\n        _baseTokenURI = baseTokenURI;\n        _company = payable(company);\n        _value = value;\n        _coupon = coupon;\n        _paused = false;\n\n        _setupRole(MINTER_ROLE, _msgSender());    \n    }\n\n    function setRegulator(address regulator) public onlyOwner {\n        _regulator = regulator;\n    }\n\n    function setGreenVerifier(address greenVerifier) public onlyOwner {\n        _greenVerifier = greenVerifier;\n    }\n\n    function getInvestorBalance(address investor) public view returns (uint){\n        require(investor != address(0), \"Balance query for the zero address\");\n        return _investedAmountPerInvestor[investor];\n    }\n\n    function _baseURI() internal view override returns (string memory) {\n        return _baseTokenURI;\n    }\n\n    // Needed to override this function as two parent classes defined the same function\n    function supportsInterface(bytes4 interfaceId) public view virtual override(AccessControlEnumerable, ERC721) returns (bool) {\n        return super.supportsInterface(interfaceId);\n    }\n\n    // Function to register investment interest (requires staking money on the contract)\n    function registerInvestment(uint256 number) public payable {\n        // Require that the investor has enough coins\n        require(msg.value >= number * _value, \"not enough coins for the amount\");\n\n        // Check if investor already on the list\n        if (_investedAmountPerInvestor[msg.sender] == 0) {\n            _investors.push(msg.sender);\n        }\n        \n        // Register the investment\n        uint256 currentAmount = _investedAmountPerInvestor[msg.sender];\n        _investedAmountPerInvestor[msg.sender] = currentAmount + msg.value;\n        // Emit event\n        emit Investment(msg.sender, msg.value);\n    }\n\n\n    // Function to issue tokens for registered investors\n    // Assumes all investors will get tokens\n    function issueTokens() external {\n        require(hasRole(MINTER_ROLE, _msgSender()), \"Minter must have minter role to mint\");\n\n        // Iterate through each investor\n        for (uint i = 0; i < _investors.length; i++) {\n            address investor = _investors[i];\n            uint256 numberOfTokens = _investedAmountPerInvestor[investor] / _value;\n            _company.transfer(_value * numberOfTokens); \n            \n            // If the invested amount would be greated than the amount needed for investment\n            // Return the remainder back to the investor\n            if (_investedAmountPerInvestor[investor] > numberOfTokens * _value) {\n                payable(investor).transfer(_investedAmountPerInvestor[investor] - numberOfTokens * _value);\n                emit CoinRefund(investor, _investedAmountPerInvestor[investor] - numberOfTokens * _value);\n            }\n\n            // Update the records\n            _investedAmountPerInvestor[investor] = 0;\n            _totalValueRaisedRaised = _totalValueRaisedRaised + _value * numberOfTokens;\n\n            // Issue tokens\n            for (uint j = 0; j < numberOfTokens; j++) {  \n                _mint(investor, _tokenIdTracker.current());\n                _tokenIdTracker.increment();\n            }\n        }\n    }\n    // Requires that the minter has minter role\n    // Automatically creates tokenURI with baseURI concatenated with TokenId\n    function issueTokens(uint256 numberOfTokens, address to) public payable {\n        require(hasRole(MINTER_ROLE, _msgSender()), \"Minter must have minter role to mint\");\n\n        // Transfer the money to the issuer\n        //require(msg.value >= _value * numberOfTokens, \"Not enough money send for the tokens\");\n        require(_investedAmountPerInvestor[to] >= numberOfTokens * _value, \"Investor has not enough funds for the tokens\");\n        //_company.transfer(msg.value);\n        //_totalValueRaisedRaised = _totalValueRaisedRaised + msg.value;\n\n        // Transfer coins and reduce the investors investment balance\n        _company.transfer(_value * numberOfTokens); \n        _investedAmountPerInvestor[to] = _investedAmountPerInvestor[to] - numberOfTokens * _value;\n        _totalValueRaisedRaised = _totalValueRaisedRaised + numberOfTokens * _value;\n\n        for (uint i = 0; i < numberOfTokens; i++) {  \n            _mint(to, _tokenIdTracker.current());\n            _tokenIdTracker.increment();\n        }\n    }\n\n    // Function for the borrowing company to pay coupons\n    function payCoupons() public payable {\n        // Message needs to have enough value for the copupon payments\n        require(msg.value >= _coupon * _tokenIdTracker.current(), \"Not enough coins for coupons\");\n        for (uint i = 0; i < _tokenIdTracker.current(); i++) {\n            address payable investor = payable(ownerOf(i));\n            investor.transfer(_coupon);\n            emit CouponPayment(investor, i);\n        }\n    }\n\n    // This function should be called by the borrowing company\n    function payBackBond() public payable {\n        require(msg.sender == _company, \"Paying company should be the borrowing company\");\n        require(msg.value >= _totalValueRaisedRaised, \"Not enough coins to settle the bond at maturity\");\n        \n        // Interate through the tokens\n        for(uint i = 0; i < _tokenIdTracker.current(); i++) {\n            address payable investor = payable(ownerOf(i));\n            // Transfer token from investor to owner\n            tokenTransfer(investor, _owner, i);\n            // Return funds\n            investor.transfer(_value);\n            // Decrement the values\n            _totalValueRaisedRaised = _totalValueRaisedRaised - _value;\n            _tokenIdTracker.decrement();\n        }\n    }\n\n    // Not needed anymore\n    function returnTokensAtMaturity() external onlyOwner {\n        // Check that the contract has the right amount of money to send back to the investors\n        require(address(this).balance >= _totalValueRaisedRaised, \"There's not enough stable coin for settlement\");\n        for(uint i = 0; i < _tokenIdTracker.current(); i++) {\n            address payable investor = payable(ownerOf(i));\n            // Get the tokens back\n            tokenTransfer(investor, owner(), i);\n            // Return the stable coin value\n            investor.transfer(_value);    \n        }\n    }\n\n    // WILL NEED TO ADD VALUE TRANSFER NEXT\n    function tokenTransfer(address from, address to, uint256 tokenId) internal {\n        _transfer(from, to, tokenId);\n    }\n\n    // Pauser functions\n    /**\n     * @dev Returns true if the contract is paused, and false otherwise.\n     */\n    function paused() public view returns (bool) {\n        return _paused;\n    }\n\n    /**\n     * @dev Modifier to make a function callable only when the contract is not paused.\n     */\n    modifier whenNotPaused() {\n        require(!_paused, \"Pausable: paused\");\n        _;\n    }\n\n    /**\n     * @dev Modifier to make a function callable only when the contract is paused.\n     */\n    modifier whenPaused() {\n        require(_paused, \"Pausable: not paused\");\n        _;\n    }\n\n    /**\n     * @dev Called by a pauser to pause, triggers stopped state.\n     */\n    function pause() public whenNotPaused {\n        require(msg.sender == _regulator, \"Pauser can only be the regulator\");\n        _paused = true;\n        emit Paused(_msgSender());\n    }\n\n    /**\n     * @dev Called by a pauser to unpause, returns to normal state.\n     */\n    function unpause() public whenPaused {\n        require(msg.sender == _regulator, \"Unpauser can only be the regulator\");\n        _paused = false;\n        emit Unpaused(_msgSender());\n    }\n\n    function adjustCoupon(bool increase, uint256 amount) external {\n        require(msg.sender == _greenVerifier);\n        if (increase){\n            _coupon = _coupon + amount;\n        } else {\n            require(amount <= _coupon, \"Coupon payment can't be negative\");\n            _coupon = _coupon - amount;\n        }\n        emit CouponAdjustment(msg.sender, _coupon);\n    }\n\n}",
  "sourcePath": "/Users/leena/Documents/Coding/Blockchain_Green_Bonds/testProjects/OZ_test/contracts/GreenBond.sol",
  "compiler": {
    "name": "solc",
    "version": "0.8.0+commit.c7dfd78e.Emscripten.clang"
  },
  "schemaVersion": "3.3.4",
  "updatedAt": "2021-06-21T10:58:07.591Z",
  "networkType": "ethereum",
  "devdoc": {
    "events": {
      "CoinRefund(address,uint256)": {
        "details": "Emitted when coins are refunded to the investor in case there are too many coins for the investment"
      },
      "CouponAdjustment(address,uint256)": {
        "details": "Emmitted when coupon payment is adjusted"
      },
      "CouponPayment(address,uint256)": {
        "details": "Emitted when a coupon payment has been made"
      },
      "Investment(address,uint256)": {
        "details": "Emitted when an investor registers initial investment request"
      },
      "Paused(address)": {
        "details": "Emitted when the pause is triggered by a pauser (regulator)."
      },
      "Unpaused(address)": {
        "details": "Emitted when the pause is lifted by a pauser (regulator)."
      }
    },
    "kind": "dev",
    "methods": {
      "approve(address,uint256)": {
        "details": "See {IERC721-approve}."
      },
      "balanceOf(address)": {
        "details": "See {IERC721-balanceOf}."
      },
      "getApproved(uint256)": {
        "details": "See {IERC721-getApproved}."
      },
      "getRoleAdmin(bytes32)": {
        "details": "Returns the admin role that controls `role`. See {grantRole} and {revokeRole}. To change a role's admin, use {_setRoleAdmin}."
      },
      "getRoleMember(bytes32,uint256)": {
        "details": "Returns one of the accounts that have `role`. `index` must be a value between 0 and {getRoleMemberCount}, non-inclusive. Role bearers are not sorted in any particular way, and their ordering may change at any point. WARNING: When using {getRoleMember} and {getRoleMemberCount}, make sure you perform all queries on the same block. See the following https://forum.openzeppelin.com/t/iterating-over-elements-on-enumerableset-in-openzeppelin-contracts/2296[forum post] for more information."
      },
      "getRoleMemberCount(bytes32)": {
        "details": "Returns the number of accounts that have `role`. Can be used together with {getRoleMember} to enumerate all bearers of a role."
      },
      "grantRole(bytes32,address)": {
        "details": "Overload {grantRole} to track enumerable memberships"
      },
      "hasRole(bytes32,address)": {
        "details": "Returns `true` if `account` has been granted `role`."
      },
      "isApprovedForAll(address,address)": {
        "details": "See {IERC721-isApprovedForAll}."
      },
      "name()": {
        "details": "See {IERC721Metadata-name}."
      },
      "owner()": {
        "details": "Returns the address of the current owner."
      },
      "ownerOf(uint256)": {
        "details": "See {IERC721-ownerOf}."
      },
      "pause()": {
        "details": "Called by a pauser to pause, triggers stopped state."
      },
      "paused()": {
        "details": "Returns true if the contract is paused, and false otherwise."
      },
      "renounceOwnership()": {
        "details": "Leaves the contract without owner. It will not be possible to call `onlyOwner` functions anymore. Can only be called by the current owner. NOTE: Renouncing ownership will leave the contract without an owner, thereby removing any functionality that is only available to the owner."
      },
      "renounceRole(bytes32,address)": {
        "details": "Overload {renounceRole} to track enumerable memberships"
      },
      "revokeRole(bytes32,address)": {
        "details": "Overload {revokeRole} to track enumerable memberships"
      },
      "safeTransferFrom(address,address,uint256)": {
        "details": "See {IERC721-safeTransferFrom}."
      },
      "safeTransferFrom(address,address,uint256,bytes)": {
        "details": "See {IERC721-safeTransferFrom}."
      },
      "setApprovalForAll(address,bool)": {
        "details": "See {IERC721-setApprovalForAll}."
      },
      "symbol()": {
        "details": "See {IERC721Metadata-symbol}."
      },
      "tokenURI(uint256)": {
        "details": "See {IERC721Metadata-tokenURI}."
      },
      "transferFrom(address,address,uint256)": {
        "details": "See {IERC721-transferFrom}."
      },
      "transferOwnership(address)": {
        "details": "Transfers ownership of the contract to a new account (`newOwner`). Can only be called by the current owner."
      },
      "unpause()": {
        "details": "Called by a pauser to unpause, returns to normal state."
      }
    },
    "version": 1
  },
  "userdoc": {
    "kind": "user",
    "methods": {},
    "version": 1
  }
}