{
  "contractName": "GreenCertifier",
  "abi": [
    {
      "inputs": [],
      "stateMutability": "nonpayable",
      "type": "constructor"
    },
    {
      "anonymous": false,
      "inputs": [
        {
          "indexed": false,
          "internalType": "contract GreenCertificate",
          "name": "certificate",
          "type": "address"
        }
      ],
      "name": "CompanyCertification",
      "type": "event"
    },
    {
      "anonymous": false,
      "inputs": [
        {
          "indexed": false,
          "internalType": "address",
          "name": "company",
          "type": "address"
        },
        {
          "indexed": false,
          "internalType": "string",
          "name": "project",
          "type": "string"
        }
      ],
      "name": "ProjectCertification",
      "type": "event"
    },
    {
      "inputs": [
        {
          "internalType": "address",
          "name": "",
          "type": "address"
        }
      ],
      "name": "_certifiedCompanies",
      "outputs": [
        {
          "internalType": "bool",
          "name": "",
          "type": "bool"
        }
      ],
      "stateMutability": "view",
      "type": "function",
      "constant": true
    },
    {
      "inputs": [
        {
          "internalType": "address",
          "name": "",
          "type": "address"
        }
      ],
      "name": "_greenCertificates",
      "outputs": [
        {
          "internalType": "contract GreenCertificate",
          "name": "",
          "type": "address"
        }
      ],
      "stateMutability": "view",
      "type": "function",
      "constant": true
    },
    {
      "inputs": [],
      "name": "_owner",
      "outputs": [
        {
          "internalType": "address",
          "name": "",
          "type": "address"
        }
      ],
      "stateMutability": "view",
      "type": "function",
      "constant": true
    },
    {
      "inputs": [
        {
          "internalType": "address",
          "name": "company",
          "type": "address"
        },
        {
          "internalType": "string",
          "name": "project",
          "type": "string"
        }
      ],
      "name": "createCertificate",
      "outputs": [],
      "stateMutability": "nonpayable",
      "type": "function"
    },
    {
      "inputs": [
        {
          "internalType": "address",
          "name": "company",
          "type": "address"
        },
        {
          "internalType": "string",
          "name": "project",
          "type": "string"
        }
      ],
      "name": "isCertified",
      "outputs": [
        {
          "internalType": "bool",
          "name": "",
          "type": "bool"
        }
      ],
      "stateMutability": "view",
      "type": "function",
      "constant": true
    }
  ],
  "bytecode": "0x608060405234801561001057600080fd5b50336000806101000a81548173ffffffffffffffffffffffffffffffffffffffff021916908373ffffffffffffffffffffffffffffffffffffffff160217905550611076806100606000396000f3fe608060405234801561001057600080fd5b50600436106100565760003560e01c8062896eee1461005b5780635a3987fe146100775780636b3b848a146100a7578063b2bdfa7b146100d7578063f755de72146100f5575b600080fd5b610075600480360381019061007091906106ed565b610125565b005b610091600480360381019061008c91906106c4565b61042a565b60405161009e9190610876565b60405180910390f35b6100c160048036038101906100bc91906106ed565b61045d565b6040516100ce919061085b565b60405180910390f35b6100df6105e1565b6040516100ec9190610810565b60405180910390f35b61010f600480360381019061010a91906106c4565b610605565b60405161011c919061085b565b60405180910390f35b60008054906101000a900473ffffffffffffffffffffffffffffffffffffffff1673ffffffffffffffffffffffffffffffffffffffff163373ffffffffffffffffffffffffffffffffffffffff161461017d57600080fd5b60001515600260008473ffffffffffffffffffffffffffffffffffffffff1673ffffffffffffffffffffffffffffffffffffffff16815260200190815260200160002060009054906101000a900460ff161515141561031d576000826040516101e590610625565b6101ef9190610810565b604051809103906000f08015801561020b573d6000803e3d6000fd5b5090506001600260008573ffffffffffffffffffffffffffffffffffffffff1673ffffffffffffffffffffffffffffffffffffffff16815260200190815260200160002060006101000a81548160ff02191690831515021790555080600160008573ffffffffffffffffffffffffffffffffffffffff1673ffffffffffffffffffffffffffffffffffffffff16815260200190815260200160002060006101000a81548173ffffffffffffffffffffffffffffffffffffffff021916908373ffffffffffffffffffffffffffffffffffffffff1602179055507fd74aba97929f9c483acd3c361751a46ee8ef31b85336dec91f503d695dab6df1816040516103139190610876565b60405180910390a1505b6000600160008473ffffffffffffffffffffffffffffffffffffffff1673ffffffffffffffffffffffffffffffffffffffff16815260200190815260200160002060009054906101000a900473ffffffffffffffffffffffffffffffffffffffff1690508073ffffffffffffffffffffffffffffffffffffffff16630ed047d4836040518263ffffffff1660e01b81526004016103ba9190610891565b600060405180830381600087803b1580156103d457600080fd5b505af11580156103e8573d6000803e3d6000fd5b505050507f7290139a1d883a1284fc3550b1ca8c453f0520aa22089656d30587b014cb69fb838360405161041d92919061082b565b60405180910390a1505050565b60016020528060005260406000206000915054906101000a900473ffffffffffffffffffffffffffffffffffffffff1681565b6000600260008473ffffffffffffffffffffffffffffffffffffffff1673ffffffffffffffffffffffffffffffffffffffff16815260200190815260200160002060009054906101000a900460ff166104eb576040517f08c379a00000000000000000000000000000000000000000000000000000000081526004016104e2906108b3565b60405180910390fd5b6000600160008573ffffffffffffffffffffffffffffffffffffffff1673ffffffffffffffffffffffffffffffffffffffff16815260200190815260200160002060009054906101000a900473ffffffffffffffffffffffffffffffffffffffff1690508073ffffffffffffffffffffffffffffffffffffffff1663ffa67370846040518263ffffffff1660e01b81526004016105889190610891565b60206040518083038186803b1580156105a057600080fd5b505afa1580156105b4573d6000803e3d6000fd5b505050506040513d601f19601f820116820180604052508101906105d89190610741565b91505092915050565b60008054906101000a900473ffffffffffffffffffffffffffffffffffffffff1681565b60026020528060005260406000206000915054906101000a900460ff1681565b6105de80610a6383390190565b600061064561064084610904565b6108d3565b90508281526020810184848401111561065d57600080fd5b6106688482856109b2565b509392505050565b60008135905061067f81610a34565b92915050565b60008151905061069481610a4b565b92915050565b600082601f8301126106ab57600080fd5b81356106bb848260208601610632565b91505092915050565b6000602082840312156106d657600080fd5b60006106e484828501610670565b91505092915050565b6000806040838503121561070057600080fd5b600061070e85828601610670565b925050602083013567ffffffffffffffff81111561072b57600080fd5b6107378582860161069a565b9150509250929050565b60006020828403121561075357600080fd5b600061076184828501610685565b91505092915050565b61077381610950565b82525050565b61078281610962565b82525050565b6107918161098e565b82525050565b60006107a282610934565b6107ac818561093f565b93506107bc8185602086016109c1565b6107c581610a23565b840191505092915050565b60006107dd60188361093f565b91507f436f6d70616e79206973206e6f742063657274696669656400000000000000006000830152602082019050919050565b6000602082019050610825600083018461076a565b92915050565b6000604082019050610840600083018561076a565b81810360208301526108528184610797565b90509392505050565b60006020820190506108706000830184610779565b92915050565b600060208201905061088b6000830184610788565b92915050565b600060208201905081810360008301526108ab8184610797565b905092915050565b600060208201905081810360008301526108cc816107d0565b9050919050565b6000604051905081810181811067ffffffffffffffff821117156108fa576108f96109f4565b5b8060405250919050565b600067ffffffffffffffff82111561091f5761091e6109f4565b5b601f19601f8301169050602081019050919050565b600081519050919050565b600082825260208201905092915050565b600061095b8261096e565b9050919050565b60008115159050919050565b600073ffffffffffffffffffffffffffffffffffffffff82169050919050565b6000610999826109a0565b9050919050565b60006109ab8261096e565b9050919050565b82818337600083830152505050565b60005b838110156109df5780820151818401526020810190506109c4565b838111156109ee576000848401525b50505050565b7f4e487b7100000000000000000000000000000000000000000000000000000000600052604160045260246000fd5b6000601f19601f8301169050919050565b610a3d81610950565b8114610a4857600080fd5b50565b610a5481610962565b8114610a5f57600080fd5b5056fe608060405234801561001057600080fd5b506040516105de3803806105de833981810160405281019061003291906100ce565b80600160006101000a81548173ffffffffffffffffffffffffffffffffffffffff021916908373ffffffffffffffffffffffffffffffffffffffff160217905550336000806101000a81548173ffffffffffffffffffffffffffffffffffffffff021916908373ffffffffffffffffffffffffffffffffffffffff16021790555050610140565b6000815190506100c881610129565b92915050565b6000602082840312156100e057600080fd5b60006100ee848285016100b9565b91505092915050565b600061010282610109565b9050919050565b600073ffffffffffffffffffffffffffffffffffffffff82169050919050565b610132816100f7565b811461013d57600080fd5b50565b61048f8061014f6000396000f3fe608060405234801561001057600080fd5b506004361061004c5760003560e01c80630ed047d414610051578063127810bc1461006d578063b2bdfa7b1461008b578063ffa67370146100a9575b600080fd5b61006b60048036038101906100669190610256565b6100d9565b005b61007561016b565b60405161008291906102fd565b60405180910390f35b610093610195565b6040516100a091906102fd565b60405180910390f35b6100c360048036038101906100be9190610256565b6101b9565b6040516100d09190610318565b60405180910390f35b60008054906101000a900473ffffffffffffffffffffffffffffffffffffffff1673ffffffffffffffffffffffffffffffffffffffff163373ffffffffffffffffffffffffffffffffffffffff161461013157600080fd5b600160028260405161014391906102e6565b908152602001604051809103902060006101000a81548160ff02191690831515021790555050565b6000600160009054906101000a900473ffffffffffffffffffffffffffffffffffffffff16905090565b60008054906101000a900473ffffffffffffffffffffffffffffffffffffffff1681565b60006002826040516101cb91906102e6565b908152602001604051809103902060009054906101000a900460ff169050919050565b60006102016101fc84610364565b610333565b90508281526020810184848401111561021957600080fd5b6102248482856103e8565b509392505050565b600082601f83011261023d57600080fd5b813561024d8482602086016101ee565b91505092915050565b60006020828403121561026857600080fd5b600082013567ffffffffffffffff81111561028257600080fd5b61028e8482850161022c565b91505092915050565b6102a0816103aa565b82525050565b6102af816103bc565b82525050565b60006102c082610394565b6102ca818561039f565b93506102da8185602086016103f7565b80840191505092915050565b60006102f282846102b5565b915081905092915050565b60006020820190506103126000830184610297565b92915050565b600060208201905061032d60008301846102a6565b92915050565b6000604051905081810181811067ffffffffffffffff8211171561035a5761035961042a565b5b8060405250919050565b600067ffffffffffffffff82111561037f5761037e61042a565b5b601f19601f8301169050602081019050919050565b600081519050919050565b600081905092915050565b60006103b5826103c8565b9050919050565b60008115159050919050565b600073ffffffffffffffffffffffffffffffffffffffff82169050919050565b82818337600083830152505050565b60005b838110156104155780820151818401526020810190506103fa565b83811115610424576000848401525b50505050565b7f4e487b7100000000000000000000000000000000000000000000000000000000600052604160045260246000fdfea26469706673582212205136b441fb565990107227185c631df651bf422c4623925cfc81ba3919aa0e5364736f6c63430008000033a264697066735822122043e012ab38e9fe6a616c1a825ef6175476a74af27276463bd1b65be919a11bb864736f6c63430008000033",
  "immutableReferences": {},
  "source": "// SPDX-License-Identifier: MIT\npragma solidity >=0.6.0;\n\nimport \"./GreenCertificate.sol\";\nimport \"@openzeppelin/contracts/utils/Address.sol\";\n\ncontract GreenCertifier {\n    using Address for address;\n\n    // Event to be emmitted when a company certificate is created\n    event CompanyCertification(GreenCertificate certificate);\n\n    // Event to be emmitted when a project is added\n    event ProjectCertification(address company, string project);\n\n\n    // Owner of this contract\n    address public _owner;\n\n\n    // function modifier\n    modifier onlyOwner() {\n        require(msg.sender == _owner);\n        _;\n    }\n\n    // Maps company address to a green certificate\n    mapping(address => GreenCertificate) public _greenCertificates;\n    mapping(address => bool) public _certifiedCompanies;\n    // Two options for mapping\n    //mapping (uint256 => GreenCertificate) private _greenCertificates;\n    //mapping (uint256 => address) private _greenCertificates;\n\n    constructor() {\n        _owner = msg.sender;\n    }\n\n    function createCertificate(address company, string memory project) external onlyOwner {\n        // Create certificate for the company if it already does not exist\n        if(_certifiedCompanies[company] == false) {\n            // Create certificate\n            GreenCertificate newCertificate = new GreenCertificate(company);\n            _certifiedCompanies[company] = true;\n            _greenCertificates[company] = newCertificate;\n\n            // Create an event\n            emit CompanyCertification(newCertificate);\n        } \n\n        // Add project to the list\n        GreenCertificate certificate = _greenCertificates[company];\n        certificate.addProject(project);   \n        emit ProjectCertification(company, project);      \n    }\n\n    function isCertified(address company, string memory project) public view returns(bool) {\n        require(_certifiedCompanies[company], \"Company is not certified\");\n        GreenCertificate certificate = _greenCertificates[company];\n        return certificate.isCertifiedProject(project);\n    }\n}\n\n",
  "sourcePath": "/Users/leena/Documents/Coding/Blockchain_Green_Bonds/testProjects/OZ_test/contracts/GreenCertifier.sol",
  "compiler": {
    "name": "solc",
    "version": "0.8.0+commit.c7dfd78e.Emscripten.clang"
  },
  "schemaVersion": "3.3.4",
  "updatedAt": "2021-06-25T13:06:51.612Z",
  "networkType": "ethereum",
  "devdoc": {
    "kind": "dev",
    "methods": {},
    "version": 1
  },
  "userdoc": {
    "kind": "user",
    "methods": {},
    "version": 1
  }
}