{
  "contractName": "GreenVerificationRepository",
  "abi": [
    {
      "inputs": [],
      "stateMutability": "nonpayable",
      "type": "constructor"
    },
    {
      "anonymous": false,
      "inputs": [
        {
          "indexed": false,
          "internalType": "string",
          "name": "symbol",
          "type": "string"
        },
        {
          "indexed": false,
          "internalType": "uint256",
          "name": "result",
          "type": "uint256"
        }
      ],
      "name": "BondVerification",
      "type": "event"
    },
    {
      "anonymous": false,
      "inputs": [
        {
          "indexed": false,
          "internalType": "address",
          "name": "verification",
          "type": "address"
        }
      ],
      "name": "VerificationContract",
      "type": "event"
    },
    {
      "inputs": [],
      "name": "getOwner",
      "outputs": [
        {
          "internalType": "address",
          "name": "",
          "type": "address"
        }
      ],
      "stateMutability": "view",
      "type": "function",
      "constant": true
    },
    {
      "inputs": [
        {
          "internalType": "string",
          "name": "symbol",
          "type": "string"
        }
      ],
      "name": "isVerifiedBond",
      "outputs": [
        {
          "internalType": "bool",
          "name": "",
          "type": "bool"
        }
      ],
      "stateMutability": "view",
      "type": "function",
      "constant": true
    },
    {
      "inputs": [
        {
          "internalType": "string",
          "name": "symbol",
          "type": "string"
        }
      ],
      "name": "getVerificationAddress",
      "outputs": [
        {
          "internalType": "address",
          "name": "",
          "type": "address"
        }
      ],
      "stateMutability": "view",
      "type": "function",
      "constant": true
    },
    {
      "inputs": [
        {
          "internalType": "string",
          "name": "symbol",
          "type": "string"
        }
      ],
      "name": "getResults",
      "outputs": [
        {
          "internalType": "uint256[]",
          "name": "",
          "type": "uint256[]"
        }
      ],
      "stateMutability": "view",
      "type": "function",
      "constant": true
    },
    {
      "inputs": [
        {
          "internalType": "string",
          "name": "symbol",
          "type": "string"
        }
      ],
      "name": "getNumberOfResults",
      "outputs": [
        {
          "internalType": "uint256",
          "name": "",
          "type": "uint256"
        }
      ],
      "stateMutability": "view",
      "type": "function",
      "constant": true
    },
    {
      "inputs": [
        {
          "internalType": "string",
          "name": "symbol",
          "type": "string"
        },
        {
          "internalType": "uint256",
          "name": "number",
          "type": "uint256"
        }
      ],
      "name": "getResult",
      "outputs": [
        {
          "internalType": "uint256",
          "name": "",
          "type": "uint256"
        }
      ],
      "stateMutability": "view",
      "type": "function",
      "constant": true
    },
    {
      "inputs": [
        {
          "internalType": "string",
          "name": "symbol",
          "type": "string"
        },
        {
          "internalType": "uint256",
          "name": "result",
          "type": "uint256"
        }
      ],
      "name": "addVerification",
      "outputs": [],
      "stateMutability": "nonpayable",
      "type": "function"
    }
  ],
  "bytecode": "0x608060405234801561001057600080fd5b50336000806101000a81548173ffffffffffffffffffffffffffffffffffffffff021916908373ffffffffffffffffffffffffffffffffffffffff160217905550611c54806100606000396000f3fe60806040523480156200001157600080fd5b5060043610620000885760003560e01c80637d60fd3911620000635780637d60fd3914620001195780638621b227146200014f578063893d20e81462000185578063bf57a41714620001a75762000088565b80632ff20f01146200008d5780633988f15914620000c35780633c69b5e414620000f9575b600080fd5b620000ab6004803603810190620000a5919062000a94565b620001dd565b604051620000ba919062000dc1565b60405180910390f35b620000e16004803603810190620000db919062000a94565b620002fa565b604051620000f0919062000da4565b60405180910390f35b62000117600480360381019062000111919062000ad9565b62000391565b005b62000137600480360381019062000131919062000ad9565b62000661565b60405162000146919062000ec0565b60405180910390f35b6200016d600480360381019062000167919062000a94565b62000787565b6040516200017c919062000ec0565b60405180910390f35b6200018f6200089f565b6040516200019e919062000da4565b60405180910390f35b620001c56004803603810190620001bf919062000a94565b620008c8565b604051620001d4919062000de5565b60405180910390f35b6060620001ea82620008c8565b6200022c576040517f08c379a0000000000000000000000000000000000000000000000000000000008152600401620002239062000e9e565b60405180910390fd5b6001826040516200023e919062000d8b565b908152602001604051809103902060009054906101000a900473ffffffffffffffffffffffffffffffffffffffff1673ffffffffffffffffffffffffffffffffffffffff16634717f97c6040518163ffffffff1660e01b815260040160006040518083038186803b158015620002b357600080fd5b505afa158015620002c8573d6000803e3d6000fd5b505050506040513d6000823e3d601f19601f82011682018060405250810190620002f3919062000a4f565b9050919050565b60006200030782620008c8565b62000349576040517f08c379a0000000000000000000000000000000000000000000000000000000008152600401620003409062000e7c565b60405180910390fd5b6001826040516200035b919062000d8b565b908152602001604051809103902060009054906101000a900473ffffffffffffffffffffffffffffffffffffffff169050919050565b60008054906101000a900473ffffffffffffffffffffffffffffffffffffffff1673ffffffffffffffffffffffffffffffffffffffff163373ffffffffffffffffffffffffffffffffffffffff161462000422576040517f08c379a0000000000000000000000000000000000000000000000000000000008152600401620004199062000e5a565b60405180910390fd5b6000151560028360405162000438919062000d8b565b908152602001604051809103902060009054906101000a900460ff16151514156200056d576000826040516200046e90620008ff565b6200047a919062000e02565b604051809103906000f08015801562000497573d6000803e3d6000fd5b5090506001600284604051620004ae919062000d8b565b908152602001604051809103902060006101000a81548160ff02191690831515021790555080600184604051620004e6919062000d8b565b908152602001604051809103902060006101000a81548173ffffffffffffffffffffffffffffffffffffffff021916908373ffffffffffffffffffffffffffffffffffffffff1602179055507f7ee5698178fafc416a1b0cf7ef0065ec2b221859dc2ac3f329cde56ae695b1ec8160405162000563919062000da4565b60405180910390a1505b600060018360405162000581919062000d8b565b908152602001604051809103902060009054906101000a900473ffffffffffffffffffffffffffffffffffffffff1690508073ffffffffffffffffffffffffffffffffffffffff166309ffa6cf836040518263ffffffff1660e01b8152600401620005ed919062000ec0565b600060405180830381600087803b1580156200060857600080fd5b505af11580156200061d573d6000803e3d6000fd5b505050507f5a86fe4cfef4c635b6b798e9d16676fc69395257a4d10043ca9a89be8d68b63283836040516200065492919062000e26565b60405180910390a1505050565b60006200066e83620008c8565b620006b0576040517f08c379a0000000000000000000000000000000000000000000000000000000008152600401620006a79062000e9e565b60405180910390fd5b600183604051620006c2919062000d8b565b908152602001604051809103902060009054906101000a900473ffffffffffffffffffffffffffffffffffffffff1673ffffffffffffffffffffffffffffffffffffffff1663995e4339836040518263ffffffff1660e01b81526004016200072b919062000ec0565b60206040518083038186803b1580156200074457600080fd5b505afa15801562000759573d6000803e3d6000fd5b505050506040513d601f19601f820116820180604052508101906200077f919062000b33565b905092915050565b60006200079482620008c8565b620007d6576040517f08c379a0000000000000000000000000000000000000000000000000000000008152600401620007cd9062000e9e565b60405180910390fd5b600182604051620007e8919062000d8b565b908152602001604051809103902060009054906101000a900473ffffffffffffffffffffffffffffffffffffffff1673ffffffffffffffffffffffffffffffffffffffff16632be8d79f6040518163ffffffff1660e01b815260040160206040518083038186803b1580156200085d57600080fd5b505afa15801562000872573d6000803e3d6000fd5b505050506040513d601f19601f8201168201806040525081019062000898919062000b33565b9050919050565b60008060009054906101000a900473ffffffffffffffffffffffffffffffffffffffff16905090565b6000600282604051620008dc919062000d8b565b908152602001604051809103902060009054906101000a900460ff169050919050565b610b6280620010bd83390190565b6000620009246200091e8462000f11565b62000edd565b905080838252602082019050828560208602820111156200094457600080fd5b60005b858110156200097857816200095d888262000a38565b84526020840193506020830192505060018101905062000947565b5050509392505050565b600062000999620009938462000f40565b62000edd565b905082815260208101848484011115620009b257600080fd5b620009bf8482856200101d565b509392505050565b600082601f830112620009d957600080fd5b8151620009eb8482602086016200090d565b91505092915050565b600082601f83011262000a0657600080fd5b813562000a1884826020860162000982565b91505092915050565b60008135905062000a3281620010a2565b92915050565b60008151905062000a4981620010a2565b92915050565b60006020828403121562000a6257600080fd5b600082015167ffffffffffffffff81111562000a7d57600080fd5b62000a8b84828501620009c7565b91505092915050565b60006020828403121562000aa757600080fd5b600082013567ffffffffffffffff81111562000ac257600080fd5b62000ad084828501620009f4565b91505092915050565b6000806040838503121562000aed57600080fd5b600083013567ffffffffffffffff81111562000b0857600080fd5b62000b1685828601620009f4565b925050602062000b298582860162000a21565b9150509250929050565b60006020828403121562000b4657600080fd5b600062000b568482850162000a38565b91505092915050565b600062000b6d838362000d69565b60208301905092915050565b62000b848162000fd3565b82525050565b600062000b978262000f83565b62000ba3818562000fa6565b935062000bb08362000f73565b8060005b8381101562000be757815162000bcb888262000b5f565b975062000bd88362000f99565b92505060018101905062000bb4565b5085935050505092915050565b62000bff8162000fe7565b82525050565b600062000c128262000f8e565b62000c1e818562000fb7565b935062000c308185602086016200102c565b62000c3b8162001091565b840191505092915050565b600062000c538262000f8e565b62000c5f818562000fc8565b935062000c718185602086016200102c565b80840191505092915050565b600062000c8c60208362000fb7565b91507f4f6e6c79206f776e65722063616e2063616c6c207468652066756e6374696f6e6000830152602082019050919050565b600062000cce60168362000fb7565b91507f4e6f20766572696669636174696f6e20657869737473000000000000000000006000830152602082019050919050565b600062000d10602b8362000fb7565b91507f4120766572696669636174696f6e20646f6573206e6f7420657869737420666f60008301527f72207468617420626f6e640000000000000000000000000000000000000000006020830152604082019050919050565b62000d748162001013565b82525050565b62000d858162001013565b82525050565b600062000d99828462000c46565b915081905092915050565b600060208201905062000dbb600083018462000b79565b92915050565b6000602082019050818103600083015262000ddd818462000b8a565b905092915050565b600060208201905062000dfc600083018462000bf4565b92915050565b6000602082019050818103600083015262000e1e818462000c05565b905092915050565b6000604082019050818103600083015262000e42818562000c05565b905062000e53602083018462000d7a565b9392505050565b6000602082019050818103600083015262000e758162000c7d565b9050919050565b6000602082019050818103600083015262000e978162000cbf565b9050919050565b6000602082019050818103600083015262000eb98162000d01565b9050919050565b600060208201905062000ed7600083018462000d7a565b92915050565b6000604051905081810181811067ffffffffffffffff8211171562000f075762000f0662001062565b5b8060405250919050565b600067ffffffffffffffff82111562000f2f5762000f2e62001062565b5b602082029050602081019050919050565b600067ffffffffffffffff82111562000f5e5762000f5d62001062565b5b601f19601f8301169050602081019050919050565b6000819050602082019050919050565b600081519050919050565b600081519050919050565b6000602082019050919050565b600082825260208201905092915050565b600082825260208201905092915050565b600081905092915050565b600062000fe08262000ff3565b9050919050565b60008115159050919050565b600073ffffffffffffffffffffffffffffffffffffffff82169050919050565b6000819050919050565b82818337600083830152505050565b60005b838110156200104c5780820151818401526020810190506200102f565b838111156200105c576000848401525b50505050565b7f4e487b7100000000000000000000000000000000000000000000000000000000600052604160045260246000fd5b6000601f19601f8301169050919050565b620010ad8162001013565b8114620010b957600080fd5b5056fe60806040523480156200001157600080fd5b5060405162000b6238038062000b628339818101604052810190620000379190620001b9565b336000806101000a81548173ffffffffffffffffffffffffffffffffffffffff021916908373ffffffffffffffffffffffffffffffffffffffff16021790555080600190805190602001906200008f92919062000097565b50506200032f565b828054620000a5906200029b565b90600052602060002090601f016020900481019282620000c9576000855562000115565b82601f10620000e457805160ff191683800117855562000115565b8280016001018555821562000115579182015b8281111562000114578251825591602001919060010190620000f7565b5b50905062000124919062000128565b5090565b5b808211156200014357600081600090555060010162000129565b5090565b60006200015e620001588462000232565b620001fe565b9050828152602081018484840111156200017757600080fd5b6200018484828562000265565b509392505050565b600082601f8301126200019e57600080fd5b8151620001b084826020860162000147565b91505092915050565b600060208284031215620001cc57600080fd5b600082015167ffffffffffffffff811115620001e757600080fd5b620001f5848285016200018c565b91505092915050565b6000604051905081810181811067ffffffffffffffff8211171562000228576200022762000300565b5b8060405250919050565b600067ffffffffffffffff82111562000250576200024f62000300565b5b601f19601f8301169050602081019050919050565b60005b838110156200028557808201518184015260208101905062000268565b8381111562000295576000848401525b50505050565b60006002820490506001821680620002b457607f821691505b60208210811415620002cb57620002ca620002d1565b5b50919050565b7f4e487b7100000000000000000000000000000000000000000000000000000000600052602260045260246000fd5b7f4e487b7100000000000000000000000000000000000000000000000000000000600052604160045260246000fd5b610823806200033f6000396000f3fe608060405234801561001057600080fd5b50600436106100625760003560e01c806309ffa6cf146100675780632be8d79f146100835780634717f97c146100a1578063893d20e8146100bf578063995e4339146100dd578063ac9824721461010d575b600080fd5b610081600480360381019061007c91906103fe565b61012b565b005b61008b61021c565b6040516100989190610622565b60405180910390f35b6100a9610229565b6040516100b6919061059e565b60405180910390f35b6100c7610281565b6040516100d49190610583565b60405180910390f35b6100f760048036038101906100f291906103fe565b6102aa565b6040516101049190610622565b60405180910390f35b610115610357565b60405161012291906105c0565b60405180910390f35b60008054906101000a900473ffffffffffffffffffffffffffffffffffffffff1673ffffffffffffffffffffffffffffffffffffffff163373ffffffffffffffffffffffffffffffffffffffff16146101b9576040517f08c379a00000000000000000000000000000000000000000000000000000000081526004016101b0906105e2565b60405180910390fd5b60028190806001815401808255809150506001900390600052602060002001600090919091909150557f92304b2ca1800e2e7b33e9d20a5da5822623e9a982f53a496597185a1abaaf35816040516102119190610622565b60405180910390a150565b6000600280549050905090565b6060600280548060200260200160405190810160405280929190818152602001828054801561027757602002820191906000526020600020905b815481526020019060010190808311610263575b5050505050905090565b60008060009054906101000a900473ffffffffffffffffffffffffffffffffffffffff16905090565b600080821180156102c057506002805490508211155b6102ff576040517f08c379a00000000000000000000000000000000000000000000000000000000081526004016102f690610602565b60405180910390fd5b600260018361030e9190610692565b81548110610345577f4e487b7100000000000000000000000000000000000000000000000000000000600052603260045260246000fd5b90600052602060002001549050919050565b60606001805461036690610735565b80601f016020809104026020016040519081016040528092919081815260200182805461039290610735565b80156103df5780601f106103b4576101008083540402835291602001916103df565b820191906000526020600020905b8154815290600101906020018083116103c257829003601f168201915b5050505050905090565b6000813590506103f8816107d6565b92915050565b60006020828403121561041057600080fd5b600061041e848285016103e9565b91505092915050565b60006104338383610565565b60208301905092915050565b610448816106c6565b82525050565b60006104598261064d565b6104638185610670565b935061046e8361063d565b8060005b8381101561049f5781516104868882610427565b975061049183610663565b925050600181019050610472565b5085935050505092915050565b60006104b782610658565b6104c18185610681565b93506104d1818560208601610702565b6104da816107c5565b840191505092915050565b60006104f2602083610681565b91507f4f6e6c79206f776e65722063616e2063616c6c207468652066756e6374696f6e6000830152602082019050919050565b6000610532600e83610681565b91507f6e6f207375636820726573756c740000000000000000000000000000000000006000830152602082019050919050565b61056e816106f8565b82525050565b61057d816106f8565b82525050565b6000602082019050610598600083018461043f565b92915050565b600060208201905081810360008301526105b8818461044e565b905092915050565b600060208201905081810360008301526105da81846104ac565b905092915050565b600060208201905081810360008301526105fb816104e5565b9050919050565b6000602082019050818103600083015261061b81610525565b9050919050565b60006020820190506106376000830184610574565b92915050565b6000819050602082019050919050565b600081519050919050565b600081519050919050565b6000602082019050919050565b600082825260208201905092915050565b600082825260208201905092915050565b600061069d826106f8565b91506106a8836106f8565b9250828210156106bb576106ba610767565b5b828203905092915050565b60006106d1826106d8565b9050919050565b600073ffffffffffffffffffffffffffffffffffffffff82169050919050565b6000819050919050565b60005b83811015610720578082015181840152602081019050610705565b8381111561072f576000848401525b50505050565b6000600282049050600182168061074d57607f821691505b6020821081141561076157610760610796565b5b50919050565b7f4e487b7100000000000000000000000000000000000000000000000000000000600052601160045260246000fd5b7f4e487b7100000000000000000000000000000000000000000000000000000000600052602260045260246000fd5b6000601f19601f8301169050919050565b6107df816106f8565b81146107ea57600080fd5b5056fea2646970667358221220444424ce9d2d5f93ed82f56e3f4967370967f596523a544d8534e339b2a4594a64736f6c63430008000033a2646970667358221220fa10add490311dc58c4c46aadffd8f57f99dbb37803958bed01b15bd26710b1864736f6c63430008000033",
  "immutableReferences": {},
  "source": "// SPDX-License-Identifier: MIT\npragma solidity >=0.6.0;\n\nimport \"./GreenVerification2.sol\";\nimport \"@openzeppelin/contracts/utils/Address.sol\";\n\ncontract GreenVerificationRepository {\n  \n\n    /**\n     * @dev Modified for functions that can only be called by the  owner/green verifier\n     */\n    modifier onlyOwner {\n        require(\n            msg.sender == _owner,\n            \"Only owner can call the function\"\n        );\n        _;\n    }\n\n    /**\n     * @dev Event to be emmitted when a company certificate is created\n     */\n    event VerificationContract(address verification);\n\n    /**\n     * @dev Event to be emmitted when a verification is added\n     */\n    event BondVerification(string symbol, uint256 result);\n\n \n    // Members\n    address private _owner;\n    // Mapping of company to a green certificate\n    mapping(string => GreenVerification2) private _greenVerifications;\n    // Mapping for verifications\n    mapping(string => bool) private _verifiedBonds;\n    \n\n    /**\n     * Constructor, sets function deployer as owner\n     */\n    constructor() {\n        _owner = msg.sender;\n    }\n\n\n    // Getter functions\n    function getOwner() public view returns (address) {\n        return _owner;\n    }\n\n    // Function to check if a verification exists\n    function isVerifiedBond(string memory symbol) public view returns (bool) {\n        return _verifiedBonds[symbol];\n    }\n\n    // Function to get the address of the company's certificate\n    function getVerificationAddress(string memory symbol) public view returns (address) {\n        require(isVerifiedBond(symbol), \"No verification exists\");\n        return address(_greenVerifications[symbol]);     \n    }\n\n    // Function to get a list of verifications\n    function getResults(string memory symbol) external view returns (uint256[] memory) {\n        require(isVerifiedBond(symbol), \"A verification does not exist for that bond\");\n        return _greenVerifications[symbol].getResults();\n    }\n\n    // Function to get the number of verifications\n    function getNumberOfResults(string memory symbol) external view returns (uint256) {\n       require(isVerifiedBond(symbol), \"A verification does not exist for that bond\");\n       return _greenVerifications[symbol].getNumberOfResults(); \n    }\n\n    // Function to get a specific verification\n    function getResult(string memory symbol, uint256 number) external view returns (uint256) {\n        require(isVerifiedBond(symbol), \"A verification does not exist for that bond\");\n        return _greenVerifications[symbol].getResult(number);\n    }\n\n    function addVerification(string memory symbol, uint256 result) external onlyOwner {\n        // Create verification for the bond if it already does not exist\n        if(_verifiedBonds[symbol] == false) {\n            // Create certificate\n            GreenVerification2 newVerification = new GreenVerification2(symbol);\n            _verifiedBonds[symbol] = true;\n            _greenVerifications[symbol] = newVerification;\n\n            // Create an event\n            emit VerificationContract(address(newVerification));\n        } \n\n        // Add result to the list\n        GreenVerification2 verification = _greenVerifications[symbol];\n        verification.addResult(result); \n        emit BondVerification(symbol, result);     \n    }\n}\n",
  "sourcePath": "/Users/leena/Documents/Coding/Blockchain_Green_Bonds/testProjects/OZ_test/contracts/GreenVerificationRepository.sol",
  "compiler": {
    "name": "solc",
    "version": "0.8.0+commit.c7dfd78e.Emscripten.clang"
  },
  "schemaVersion": "3.4.1",
  "updatedAt": "2021-08-13T09:46:32.460Z",
  "networkType": "ethereum",
  "devdoc": {
    "events": {
      "BondVerification(string,uint256)": {
        "details": "Event to be emmitted when a verification is added"
      },
      "VerificationContract(address)": {
        "details": "Event to be emmitted when a company certificate is created"
      }
    },
    "kind": "dev",
    "methods": {},
    "version": 1
  },
  "userdoc": {
    "kind": "user",
    "methods": {
      "constructor": {
        "notice": "Constructor, sets function deployer as owner"
      }
    },
    "version": 1
  }
}