{
  "contractName": "GreenBond",
  "abi": [
    {
      "inputs": [
        {
          "internalType": "address",
          "name": "company",
          "type": "address"
        },
        {
          "internalType": "string",
          "name": "name",
          "type": "string"
        },
        {
          "internalType": "string",
          "name": "symbol",
          "type": "string"
        },
        {
          "internalType": "uint256",
          "name": "numberOfBondsSeeked",
          "type": "uint256"
        },
        {
          "internalType": "uint256",
          "name": "minCoupon",
          "type": "uint256"
        },
        {
          "internalType": "uint256",
          "name": "maxCoupon",
          "type": "uint256"
        },
        {
          "internalType": "uint256",
          "name": "bidClosingTime",
          "type": "uint256"
        },
        {
          "internalType": "uint256",
          "name": "term",
          "type": "uint256"
        },
        {
          "internalType": "uint256",
          "name": "couponsPerYear",
          "type": "uint256"
        },
        {
          "internalType": "string",
          "name": "baseBondURI",
          "type": "string"
        },
        {
          "internalType": "address",
          "name": "regulator",
          "type": "address"
        }
      ],
      "stateMutability": "nonpayable",
      "type": "constructor"
    },
    {
      "anonymous": false,
      "inputs": [
        {
          "indexed": true,
          "internalType": "address",
          "name": "owner",
          "type": "address"
        },
        {
          "indexed": true,
          "internalType": "address",
          "name": "approved",
          "type": "address"
        },
        {
          "indexed": true,
          "internalType": "uint256",
          "name": "tokenId",
          "type": "uint256"
        }
      ],
      "name": "Approval",
      "type": "event"
    },
    {
      "anonymous": false,
      "inputs": [
        {
          "indexed": true,
          "internalType": "address",
          "name": "owner",
          "type": "address"
        },
        {
          "indexed": true,
          "internalType": "address",
          "name": "operator",
          "type": "address"
        },
        {
          "indexed": false,
          "internalType": "bool",
          "name": "approved",
          "type": "bool"
        }
      ],
      "name": "ApprovalForAll",
      "type": "event"
    },
    {
      "anonymous": false,
      "inputs": [
        {
          "indexed": false,
          "internalType": "address",
          "name": "bidder",
          "type": "address"
        },
        {
          "indexed": false,
          "internalType": "uint256",
          "name": "coupon",
          "type": "uint256"
        },
        {
          "indexed": false,
          "internalType": "uint256",
          "name": "numberOfBonds",
          "type": "uint256"
        }
      ],
      "name": "Bid",
      "type": "event"
    },
    {
      "anonymous": false,
      "inputs": [
        {
          "indexed": false,
          "internalType": "uint256",
          "name": "actualDemand",
          "type": "uint256"
        },
        {
          "indexed": false,
          "internalType": "uint256",
          "name": "requestedDemand",
          "type": "uint256"
        }
      ],
      "name": "CancelBondIssue",
      "type": "event"
    },
    {
      "anonymous": false,
      "inputs": [
        {
          "indexed": false,
          "internalType": "address",
          "name": "account",
          "type": "address"
        },
        {
          "indexed": false,
          "internalType": "uint256",
          "name": "value",
          "type": "uint256"
        }
      ],
      "name": "CoinRefund",
      "type": "event"
    },
    {
      "anonymous": false,
      "inputs": [
        {
          "indexed": false,
          "internalType": "address",
          "name": "adjuster",
          "type": "address"
        },
        {
          "indexed": false,
          "internalType": "uint256",
          "name": "couponRate",
          "type": "uint256"
        }
      ],
      "name": "CouponAdjustment",
      "type": "event"
    },
    {
      "anonymous": false,
      "inputs": [
        {
          "indexed": false,
          "internalType": "address",
          "name": "investor",
          "type": "address"
        },
        {
          "indexed": false,
          "internalType": "uint256",
          "name": "bondId",
          "type": "uint256"
        }
      ],
      "name": "CouponPayment",
      "type": "event"
    },
    {
      "anonymous": false,
      "inputs": [
        {
          "indexed": false,
          "internalType": "uint256",
          "name": "coupon",
          "type": "uint256"
        }
      ],
      "name": "CouponSet",
      "type": "event"
    },
    {
      "anonymous": false,
      "inputs": [
        {
          "indexed": false,
          "internalType": "address",
          "name": "investor",
          "type": "address"
        },
        {
          "indexed": false,
          "internalType": "uint256",
          "name": "value",
          "type": "uint256"
        },
        {
          "indexed": false,
          "internalType": "uint256",
          "name": "numberOfBonds",
          "type": "uint256"
        }
      ],
      "name": "Investment",
      "type": "event"
    },
    {
      "anonymous": false,
      "inputs": [
        {
          "indexed": true,
          "internalType": "address",
          "name": "previousOwner",
          "type": "address"
        },
        {
          "indexed": true,
          "internalType": "address",
          "name": "newOwner",
          "type": "address"
        }
      ],
      "name": "OwnershipTransferred",
      "type": "event"
    },
    {
      "anonymous": false,
      "inputs": [
        {
          "indexed": false,
          "internalType": "address",
          "name": "account",
          "type": "address"
        }
      ],
      "name": "Paused",
      "type": "event"
    },
    {
      "anonymous": false,
      "inputs": [
        {
          "indexed": true,
          "internalType": "address",
          "name": "from",
          "type": "address"
        },
        {
          "indexed": true,
          "internalType": "address",
          "name": "to",
          "type": "address"
        },
        {
          "indexed": true,
          "internalType": "uint256",
          "name": "tokenId",
          "type": "uint256"
        }
      ],
      "name": "Transfer",
      "type": "event"
    },
    {
      "anonymous": false,
      "inputs": [
        {
          "indexed": false,
          "internalType": "address",
          "name": "account",
          "type": "address"
        }
      ],
      "name": "Unpaused",
      "type": "event"
    },
    {
      "inputs": [
        {
          "internalType": "address",
          "name": "to",
          "type": "address"
        },
        {
          "internalType": "uint256",
          "name": "tokenId",
          "type": "uint256"
        }
      ],
      "name": "approve",
      "outputs": [],
      "stateMutability": "nonpayable",
      "type": "function"
    },
    {
      "inputs": [
        {
          "internalType": "address",
          "name": "owner",
          "type": "address"
        }
      ],
      "name": "balanceOf",
      "outputs": [
        {
          "internalType": "uint256",
          "name": "",
          "type": "uint256"
        }
      ],
      "stateMutability": "view",
      "type": "function"
    },
    {
      "inputs": [
        {
          "internalType": "uint256",
          "name": "tokenId",
          "type": "uint256"
        }
      ],
      "name": "getApproved",
      "outputs": [
        {
          "internalType": "address",
          "name": "",
          "type": "address"
        }
      ],
      "stateMutability": "view",
      "type": "function"
    },
    {
      "inputs": [
        {
          "internalType": "address",
          "name": "owner",
          "type": "address"
        },
        {
          "internalType": "address",
          "name": "operator",
          "type": "address"
        }
      ],
      "name": "isApprovedForAll",
      "outputs": [
        {
          "internalType": "bool",
          "name": "",
          "type": "bool"
        }
      ],
      "stateMutability": "view",
      "type": "function"
    },
    {
      "inputs": [],
      "name": "name",
      "outputs": [
        {
          "internalType": "string",
          "name": "",
          "type": "string"
        }
      ],
      "stateMutability": "view",
      "type": "function"
    },
    {
      "inputs": [],
      "name": "owner",
      "outputs": [
        {
          "internalType": "address",
          "name": "",
          "type": "address"
        }
      ],
      "stateMutability": "view",
      "type": "function"
    },
    {
      "inputs": [
        {
          "internalType": "uint256",
          "name": "tokenId",
          "type": "uint256"
        }
      ],
      "name": "ownerOf",
      "outputs": [
        {
          "internalType": "address",
          "name": "",
          "type": "address"
        }
      ],
      "stateMutability": "view",
      "type": "function"
    },
    {
      "inputs": [],
      "name": "renounceOwnership",
      "outputs": [],
      "stateMutability": "nonpayable",
      "type": "function"
    },
    {
      "inputs": [
        {
          "internalType": "address",
          "name": "from",
          "type": "address"
        },
        {
          "internalType": "address",
          "name": "to",
          "type": "address"
        },
        {
          "internalType": "uint256",
          "name": "tokenId",
          "type": "uint256"
        }
      ],
      "name": "safeTransferFrom",
      "outputs": [],
      "stateMutability": "nonpayable",
      "type": "function"
    },
    {
      "inputs": [
        {
          "internalType": "address",
          "name": "from",
          "type": "address"
        },
        {
          "internalType": "address",
          "name": "to",
          "type": "address"
        },
        {
          "internalType": "uint256",
          "name": "tokenId",
          "type": "uint256"
        },
        {
          "internalType": "bytes",
          "name": "_data",
          "type": "bytes"
        }
      ],
      "name": "safeTransferFrom",
      "outputs": [],
      "stateMutability": "nonpayable",
      "type": "function"
    },
    {
      "inputs": [
        {
          "internalType": "address",
          "name": "operator",
          "type": "address"
        },
        {
          "internalType": "bool",
          "name": "approved",
          "type": "bool"
        }
      ],
      "name": "setApprovalForAll",
      "outputs": [],
      "stateMutability": "nonpayable",
      "type": "function"
    },
    {
      "inputs": [],
      "name": "symbol",
      "outputs": [
        {
          "internalType": "string",
          "name": "",
          "type": "string"
        }
      ],
      "stateMutability": "view",
      "type": "function"
    },
    {
      "inputs": [
        {
          "internalType": "uint256",
          "name": "tokenId",
          "type": "uint256"
        }
      ],
      "name": "tokenURI",
      "outputs": [
        {
          "internalType": "string",
          "name": "",
          "type": "string"
        }
      ],
      "stateMutability": "view",
      "type": "function"
    },
    {
      "inputs": [
        {
          "internalType": "address",
          "name": "from",
          "type": "address"
        },
        {
          "internalType": "address",
          "name": "to",
          "type": "address"
        },
        {
          "internalType": "uint256",
          "name": "tokenId",
          "type": "uint256"
        }
      ],
      "name": "transferFrom",
      "outputs": [],
      "stateMutability": "nonpayable",
      "type": "function"
    },
    {
      "inputs": [
        {
          "internalType": "address",
          "name": "newOwner",
          "type": "address"
        }
      ],
      "name": "transferOwnership",
      "outputs": [],
      "stateMutability": "nonpayable",
      "type": "function"
    },
    {
      "inputs": [],
      "name": "getBidClosingTime",
      "outputs": [
        {
          "internalType": "uint256",
          "name": "",
          "type": "uint256"
        }
      ],
      "stateMutability": "view",
      "type": "function"
    },
    {
      "inputs": [],
      "name": "getIssueDate",
      "outputs": [
        {
          "internalType": "uint256",
          "name": "",
          "type": "uint256"
        }
      ],
      "stateMutability": "view",
      "type": "function"
    },
    {
      "inputs": [],
      "name": "getMaturityDate",
      "outputs": [
        {
          "internalType": "uint256",
          "name": "",
          "type": "uint256"
        }
      ],
      "stateMutability": "view",
      "type": "function"
    },
    {
      "inputs": [],
      "name": "getTerm",
      "outputs": [
        {
          "internalType": "uint256",
          "name": "",
          "type": "uint256"
        }
      ],
      "stateMutability": "view",
      "type": "function"
    },
    {
      "inputs": [
        {
          "internalType": "uint256",
          "name": "number",
          "type": "uint256"
        }
      ],
      "name": "getCouponDate",
      "outputs": [
        {
          "internalType": "uint256",
          "name": "",
          "type": "uint256"
        }
      ],
      "stateMutability": "view",
      "type": "function"
    },
    {
      "inputs": [],
      "name": "getCouponDates",
      "outputs": [
        {
          "internalType": "uint256[]",
          "name": "",
          "type": "uint256[]"
        }
      ],
      "stateMutability": "view",
      "type": "function"
    },
    {
      "inputs": [],
      "name": "getCompany",
      "outputs": [
        {
          "internalType": "address",
          "name": "",
          "type": "address"
        }
      ],
      "stateMutability": "view",
      "type": "function"
    },
    {
      "inputs": [],
      "name": "getRegulator",
      "outputs": [
        {
          "internalType": "address",
          "name": "",
          "type": "address"
        }
      ],
      "stateMutability": "view",
      "type": "function"
    },
    {
      "inputs": [],
      "name": "getFaceValue",
      "outputs": [
        {
          "internalType": "uint256",
          "name": "",
          "type": "uint256"
        }
      ],
      "stateMutability": "view",
      "type": "function"
    },
    {
      "inputs": [],
      "name": "getCurrentPrice",
      "outputs": [
        {
          "internalType": "uint256",
          "name": "",
          "type": "uint256"
        }
      ],
      "stateMutability": "view",
      "type": "function"
    },
    {
      "inputs": [],
      "name": "getCoupon",
      "outputs": [
        {
          "internalType": "uint256",
          "name": "",
          "type": "uint256"
        }
      ],
      "stateMutability": "view",
      "type": "function"
    },
    {
      "inputs": [],
      "name": "getMinCoupon",
      "outputs": [
        {
          "internalType": "uint256",
          "name": "",
          "type": "uint256"
        }
      ],
      "stateMutability": "view",
      "type": "function"
    },
    {
      "inputs": [],
      "name": "getMaxCoupon",
      "outputs": [
        {
          "internalType": "uint256",
          "name": "",
          "type": "uint256"
        }
      ],
      "stateMutability": "view",
      "type": "function"
    },
    {
      "inputs": [],
      "name": "getTotalDebt",
      "outputs": [
        {
          "internalType": "uint256",
          "name": "",
          "type": "uint256"
        }
      ],
      "stateMutability": "view",
      "type": "function"
    },
    {
      "inputs": [],
      "name": "numberOfInvestors",
      "outputs": [
        {
          "internalType": "uint256",
          "name": "",
          "type": "uint256"
        }
      ],
      "stateMutability": "view",
      "type": "function"
    },
    {
      "inputs": [],
      "name": "bondCount",
      "outputs": [
        {
          "internalType": "uint256",
          "name": "",
          "type": "uint256"
        }
      ],
      "stateMutability": "view",
      "type": "function"
    },
    {
      "inputs": [],
      "name": "getName",
      "outputs": [
        {
          "internalType": "string",
          "name": "",
          "type": "string"
        }
      ],
      "stateMutability": "view",
      "type": "function"
    },
    {
      "inputs": [
        {
          "internalType": "address",
          "name": "investor",
          "type": "address"
        }
      ],
      "name": "getInvestedAmountPerInvestor",
      "outputs": [
        {
          "internalType": "uint256",
          "name": "",
          "type": "uint256"
        }
      ],
      "stateMutability": "view",
      "type": "function"
    },
    {
      "inputs": [
        {
          "internalType": "bytes4",
          "name": "interfaceId",
          "type": "bytes4"
        }
      ],
      "name": "supportsInterface",
      "outputs": [
        {
          "internalType": "bool",
          "name": "",
          "type": "bool"
        }
      ],
      "stateMutability": "view",
      "type": "function"
    },
    {
      "inputs": [
        {
          "internalType": "uint256",
          "name": "coupon",
          "type": "uint256"
        },
        {
          "internalType": "uint256",
          "name": "numberOfBonds",
          "type": "uint256"
        }
      ],
      "name": "registerBid",
      "outputs": [],
      "stateMutability": "payable",
      "type": "function"
    },
    {
      "inputs": [],
      "name": "defineCoupon",
      "outputs": [
        {
          "internalType": "uint256",
          "name": "",
          "type": "uint256"
        }
      ],
      "stateMutability": "nonpayable",
      "type": "function"
    },
    {
      "inputs": [
        {
          "internalType": "uint256",
          "name": "coupon",
          "type": "uint256"
        }
      ],
      "name": "getBiddersAtCoupon",
      "outputs": [
        {
          "internalType": "address[]",
          "name": "",
          "type": "address[]"
        }
      ],
      "stateMutability": "view",
      "type": "function"
    },
    {
      "inputs": [
        {
          "internalType": "address",
          "name": "investor",
          "type": "address"
        }
      ],
      "name": "getInvestorBalance",
      "outputs": [
        {
          "internalType": "uint256",
          "name": "",
          "type": "uint256"
        }
      ],
      "stateMutability": "view",
      "type": "function"
    },
    {
      "inputs": [],
      "name": "biddingWindowisOpen",
      "outputs": [
        {
          "internalType": "bool",
          "name": "",
          "type": "bool"
        }
      ],
      "stateMutability": "view",
      "type": "function"
    },
    {
      "inputs": [],
      "name": "issueBonds",
      "outputs": [],
      "stateMutability": "nonpayable",
      "type": "function"
    },
    {
      "inputs": [],
      "name": "payCoupons",
      "outputs": [],
      "stateMutability": "payable",
      "type": "function"
    },
    {
      "inputs": [
        {
          "internalType": "uint256",
          "name": "coupon",
          "type": "uint256"
        }
      ],
      "name": "couponPaymentMadeOnTime",
      "outputs": [
        {
          "internalType": "bool",
          "name": "",
          "type": "bool"
        }
      ],
      "stateMutability": "view",
      "type": "function"
    },
    {
      "inputs": [],
      "name": "payBackBond",
      "outputs": [],
      "stateMutability": "payable",
      "type": "function"
    },
    {
      "inputs": [],
      "name": "principalPaymentMadeOnTime",
      "outputs": [
        {
          "internalType": "bool",
          "name": "",
          "type": "bool"
        }
      ],
      "stateMutability": "view",
      "type": "function"
    },
    {
      "inputs": [],
      "name": "paused",
      "outputs": [
        {
          "internalType": "bool",
          "name": "",
          "type": "bool"
        }
      ],
      "stateMutability": "view",
      "type": "function"
    },
    {
      "inputs": [],
      "name": "pause",
      "outputs": [],
      "stateMutability": "nonpayable",
      "type": "function"
    },
    {
      "inputs": [],
      "name": "unpause",
      "outputs": [],
      "stateMutability": "nonpayable",
      "type": "function"
    },
    {
      "inputs": [
        {
          "internalType": "bool",
          "name": "increase",
          "type": "bool"
        },
        {
          "internalType": "uint256",
          "name": "amount",
          "type": "uint256"
        }
      ],
      "name": "adjustCoupon",
      "outputs": [],
      "stateMutability": "nonpayable",
      "type": "function"
    }
  ],
  "bytecode": "0x60806040526000600960016101000a81548160ff02191690831515021790555060006015556000601a553480156200003657600080fd5b5060405162006c2938038062006c2983398181016040528101906200005c919062000623565b8989816000908051906020019062000076929190620004d3565b5080600190805190602001906200008f929190620004d3565b5050506000620000a4620004cb60201b60201c565b905080600660006101000a81548173ffffffffffffffffffffffffffffffffffffffff021916908373ffffffffffffffffffffffffffffffffffffffff1602179055508073ffffffffffffffffffffffffffffffffffffffff16600073ffffffffffffffffffffffffffffffffffffffff167f8be0079c531659141344cd1fd0a4f28419497f9722a3daafe3b4186f6b6457e060405160405180910390a350600073ffffffffffffffffffffffffffffffffffffffff168b73ffffffffffffffffffffffffffffffffffffffff161415620001b6576040517f08c379a0000000000000000000000000000000000000000000000000000000008152600401620001ad906200092f565b60405180910390fd5b6000871015620001fd576040517f08c379a0000000000000000000000000000000000000000000000000000000008152600401620001f490620008c9565b60405180910390fd5b86861162000242576040517f08c379a000000000000000000000000000000000000000000000000000000000815260040162000239906200090d565b60405180910390fd5b42851162000287576040517f08c379a00000000000000000000000000000000000000000000000000000000081526004016200027e90620008eb565b60405180910390fd5b33600b60006101000a81548173ffffffffffffffffffffffffffffffffffffffff021916908373ffffffffffffffffffffffffffffffffffffffff1602179055508160089080519060200190620002e0929190620004d3565b508a600c60006101000a81548173ffffffffffffffffffffffffffffffffffffffff021916908373ffffffffffffffffffffffffffffffffffffffff16021790555080600d60006101000a81548173ffffffffffffffffffffffffffffffffffffffff021916908373ffffffffffffffffffffffffffffffffffffffff1602179055506064600e8190555087600f81905550600060108190555086601181905550856012819055506000600960006101000a81548160ff0219169083151502179055508460178190555062093a80601754620003bd9190620009c9565b6018819055508360138190555082601b819055508383620003df919062000a5e565b6014819055506301e1338084620003f7919062000a5e565b601854620004069190620009c9565b6019819055506000836301e1338062000420919062000a26565b90506000600190505b6014548111620004b857601c818362000443919062000a5e565b601854620004529190620009c9565b9080600181540180825580915050600190039060005260206000200160009091909190915055601d600090806001815401808255809150506001900390600052602060002001600090919091909150558080620004af9062000b69565b91505062000429565b5050505050505050505050505062000ca7565b600033905090565b828054620004e19062000b33565b90600052602060002090601f01602090048101928262000505576000855562000551565b82601f106200052057805160ff191683800117855562000551565b8280016001018555821562000551579182015b828111156200055057825182559160200191906001019062000533565b5b50905062000560919062000564565b5090565b5b808211156200057f57600081600090555060010162000565565b5090565b60006200059a620005948462000985565b62000951565b905082815260208101848484011115620005b357600080fd5b620005c084828562000afd565b509392505050565b600081519050620005d98162000c73565b92915050565b600082601f830112620005f157600080fd5b81516200060384826020860162000583565b91505092915050565b6000815190506200061d8162000c8d565b92915050565b60008060008060008060008060008060006101608c8e0312156200064657600080fd5b6000620006568e828f01620005c8565b9b505060208c015167ffffffffffffffff8111156200067457600080fd5b620006828e828f01620005df565b9a505060408c015167ffffffffffffffff811115620006a057600080fd5b620006ae8e828f01620005df565b9950506060620006c18e828f016200060c565b9850506080620006d48e828f016200060c565b97505060a0620006e78e828f016200060c565b96505060c0620006fa8e828f016200060c565b95505060e06200070d8e828f016200060c565b945050610100620007218e828f016200060c565b9350506101208c015167ffffffffffffffff8111156200074057600080fd5b6200074e8e828f01620005df565b925050610140620007628e828f01620005c8565b9150509295989b509295989b9093969950565b600062000784601883620009b8565b91507f636f75706f6e2063616e2774206265206e6567617469766500000000000000006000830152602082019050919050565b6000620007c6602183620009b8565b91507f436c6f73696e672074696d652063616e277420626520696e207468652070617360008301527f74000000000000000000000000000000000000000000000000000000000000006020830152604082019050919050565b60006200082e602e83620009b8565b91507f6d617820636f75706f6e206e6565647320746f2062652067726561746572207460008301527f68616e206d696e20636f75706f6e0000000000000000000000000000000000006020830152604082019050919050565b600062000896601e83620009b8565b91507f436f6d70616e7920616464726573732063616e206e6f742062652030783000006000830152602082019050919050565b60006020820190508181036000830152620008e48162000775565b9050919050565b600060208201905081810360008301526200090681620007b7565b9050919050565b6000602082019050818103600083015262000928816200081f565b9050919050565b600060208201905081810360008301526200094a8162000887565b9050919050565b6000604051905081810181811067ffffffffffffffff821117156200097b576200097a62000c44565b5b8060405250919050565b600067ffffffffffffffff821115620009a357620009a262000c44565b5b601f19601f8301169050602081019050919050565b600082825260208201905092915050565b6000620009d68262000af3565b9150620009e38362000af3565b9250827fffffffffffffffffffffffffffffffffffffffffffffffffffffffffffffffff0382111562000a1b5762000a1a62000bb7565b5b828201905092915050565b600062000a338262000af3565b915062000a408362000af3565b92508262000a535762000a5262000be6565b5b828204905092915050565b600062000a6b8262000af3565b915062000a788362000af3565b9250817fffffffffffffffffffffffffffffffffffffffffffffffffffffffffffffffff048311821515161562000ab45762000ab362000bb7565b5b828202905092915050565b600062000acc8262000ad3565b9050919050565b600073ffffffffffffffffffffffffffffffffffffffff82169050919050565b6000819050919050565b60005b8381101562000b1d57808201518184015260208101905062000b00565b8381111562000b2d576000848401525b50505050565b6000600282049050600182168062000b4c57607f821691505b6020821081141562000b635762000b6262000c15565b5b50919050565b600062000b768262000af3565b91507fffffffffffffffffffffffffffffffffffffffffffffffffffffffffffffffff82141562000bac5762000bab62000bb7565b5b600182019050919050565b7f4e487b7100000000000000000000000000000000000000000000000000000000600052601160045260246000fd5b7f4e487b7100000000000000000000000000000000000000000000000000000000600052601260045260246000fd5b7f4e487b7100000000000000000000000000000000000000000000000000000000600052602260045260246000fd5b7f4e487b7100000000000000000000000000000000000000000000000000000000600052604160045260246000fd5b62000c7e8162000abf565b811462000c8a57600080fd5b50565b62000c988162000af3565b811462000ca457600080fd5b50565b615f728062000cb76000396000f3fe6080604052600436106102935760003560e01c8063715018a61161015a578063c6b10134116100c1578063e985e9c51161007a578063e985e9c51461099d578063eb91d37e146109da578063ec18efc414610a05578063efd8672914610a42578063f2fde38b14610a6b578063f7e317f414610a9457610293565b8063c6b1013414610877578063c87b56dd146108a2578063d24f84b1146108df578063d4fc7cd91461090a578063e050a30614610935578063e412cfc71461096057610293565b8063924091dc11610113578063924091dc1461076757806395d89b41146107925780639737fcff146107bd578063a22cb465146107e8578063b88d4fde14610811578063bc3ada9c1461083a57610293565b8063715018a61461068d5780637edd13c5146106a45780638456cb59146106cf5780638da5cb5b146106e65780638edd4d2414610711578063915dd0361461073c57610293565b806334ce998a116101fe5780635de9f20a116101b75780635de9f20a146105695780635ea639131461059457806361c49ebf146105d15780636352211e146105e85780636f3ed9d71461062557806370a082311461065057610293565b806334ce998a146104bf5780633f4ba83a146104ea57806342842e0e146105015780634a5138011461052a5780634cff6c0e146105345780635c975abb1461053e57610293565b80630eebfec7116102505780630eebfec7146103ad578063124b65b4146103ea578063127810bc1461041557806317d7de7c146104405780631af2c9fd1461046b57806323b872dd1461049657610293565b806301ffc9a71461029857806306fdde03146102d557806307634cbe14610300578063081812fc1461032b578063095ea7b3146103685780630c36495714610391575b600080fd5b3480156102a457600080fd5b506102bf60048036038101906102ba91906143f3565b610abf565b6040516102cc91906154ef565b60405180910390f35b3480156102e157600080fd5b506102ea610ad1565b6040516102f7919061550a565b60405180910390f35b34801561030c57600080fd5b50610315610b63565b6040516103229190615a0c565b60405180910390f35b34801561033757600080fd5b50610352600480360381019061034d9190614445565b610b6d565b60405161035f91906153bb565b60405180910390f35b34801561037457600080fd5b5061038f600480360381019061038a919061437b565b610bf2565b005b6103ab60048036038101906103a6919061446e565b610d0a565b005b3480156103b957600080fd5b506103d460048036038101906103cf9190614445565b6111d7565b6040516103e191906154ab565b60405180910390f35b3480156103f657600080fd5b506103ff6112cb565b60405161040c9190615a0c565b60405180910390f35b34801561042157600080fd5b5061042a6112d5565b60405161043791906153bb565b60405180910390f35b34801561044c57600080fd5b506104556112ff565b604051610462919061550a565b60405180910390f35b34801561047757600080fd5b5061048061130e565b60405161048d9190615a0c565b60405180910390f35b3480156104a257600080fd5b506104bd60048036038101906104b89190614275565b61131b565b005b3480156104cb57600080fd5b506104d461137b565b6040516104e19190615a0c565b60405180910390f35b3480156104f657600080fd5b506104ff611385565b005b34801561050d57600080fd5b5061052860048036038101906105239190614275565b6114bf565b005b6105326114df565b005b61053c6117f1565b005b34801561054a57600080fd5b50610553611adf565b60405161056091906154ef565b60405180910390f35b34801561057557600080fd5b5061057e611af6565b60405161058b91906154ef565b60405180910390f35b3480156105a057600080fd5b506105bb60048036038101906105b69190614210565b611b03565b6040516105c89190615a0c565b60405180910390f35b3480156105dd57600080fd5b506105e6611bbb565b005b3480156105f457600080fd5b5061060f600480360381019061060a9190614445565b61217d565b60405161061c91906153bb565b60405180910390f35b34801561063157600080fd5b5061063a61222f565b6040516106479190615a0c565b60405180910390f35b34801561065c57600080fd5b5061067760048036038101906106729190614210565b612239565b6040516106849190615a0c565b60405180910390f35b34801561069957600080fd5b506106a26122f1565b005b3480156106b057600080fd5b506106b961242e565b6040516106c69190615a0c565b60405180910390f35b3480156106db57600080fd5b506106e4612438565b005b3480156106f257600080fd5b506106fb612573565b60405161070891906153bb565b60405180910390f35b34801561071d57600080fd5b5061072661259d565b6040516107339190615a0c565b60405180910390f35b34801561074857600080fd5b506107516125ae565b60405161075e9190615a0c565b60405180910390f35b34801561077357600080fd5b5061077c6125b8565b6040516107899190615a0c565b60405180910390f35b34801561079e57600080fd5b506107a76127a2565b6040516107b4919061550a565b60405180910390f35b3480156107c957600080fd5b506107d2612834565b6040516107df9190615a0c565b60405180910390f35b3480156107f457600080fd5b5061080f600480360381019061080a919061433f565b61283e565b005b34801561081d57600080fd5b50610838600480360381019061083391906142c4565b6129bf565b005b34801561084657600080fd5b50610861600480360381019061085c9190614210565b612a21565b60405161086e9190615a0c565b60405180910390f35b34801561088357600080fd5b5061088c612a6a565b6040516108999190615a0c565b60405180910390f35b3480156108ae57600080fd5b506108c960048036038101906108c49190614445565b612a74565b6040516108d6919061550a565b60405180910390f35b3480156108eb57600080fd5b506108f4612b1b565b60405161090191906154cd565b60405180910390f35b34801561091657600080fd5b5061091f612b73565b60405161092c9190615a0c565b60405180910390f35b34801561094157600080fd5b5061094a612b7d565b60405161095791906154ef565b60405180910390f35b34801561096c57600080fd5b5061098760048036038101906109829190614445565b612bf4565b60405161099491906154ef565b60405180910390f35b3480156109a957600080fd5b506109c460048036038101906109bf9190614239565b612df6565b6040516109d191906154ef565b60405180910390f35b3480156109e657600080fd5b506109ef612e8a565b6040516109fc9190615a0c565b60405180910390f35b348015610a1157600080fd5b50610a2c6004803603810190610a279190614445565b612eae565b604051610a399190615a0c565b60405180910390f35b348015610a4e57600080fd5b50610a696004803603810190610a6491906143b7565b612f58565b005b348015610a7757600080fd5b50610a926004803603810190610a8d9190614210565b61308c565b005b348015610aa057600080fd5b50610aa9613238565b604051610ab691906153bb565b60405180910390f35b6000610aca82613262565b9050919050565b606060008054610ae090615d67565b80601f0160208091040260200160405190810160405280929190818152602001828054610b0c90615d67565b8015610b595780601f10610b2e57610100808354040283529160200191610b59565b820191906000526020600020905b815481529060010190602001808311610b3c57829003601f168201915b5050505050905090565b6000601054905090565b6000610b7882613344565b610bb7576040517f08c379a0000000000000000000000000000000000000000000000000000000008152600401610bae9061580c565b60405180910390fd5b6004600083815260200190815260200160002060009054906101000a900473ffffffffffffffffffffffffffffffffffffffff169050919050565b6000610bfd8261217d565b90508073ffffffffffffffffffffffffffffffffffffffff168373ffffffffffffffffffffffffffffffffffffffff161415610c6e576040517f08c379a0000000000000000000000000000000000000000000000000000000008152600401610c65906158ec565b60405180910390fd5b8073ffffffffffffffffffffffffffffffffffffffff16610c8d6133b0565b73ffffffffffffffffffffffffffffffffffffffff161480610cbc5750610cbb81610cb66133b0565b612df6565b5b610cfb576040517f08c379a0000000000000000000000000000000000000000000000000000000008152600401610cf29061576c565b60405180910390fd5b610d0583836133b8565b505050565b610d12611af6565b610d51576040517f08c379a0000000000000000000000000000000000000000000000000000000008152600401610d48906159ac565b60405180910390fd5b6011548210158015610d6557506012548211155b610da4576040517f08c379a0000000000000000000000000000000000000000000000000000000008152600401610d9b9061556c565b60405180910390fd5b80600e54610db29190615bed565b341015610df4576040517f08c379a0000000000000000000000000000000000000000000000000000000008152600401610deb9061598c565b60405180910390fd5b60001515602360003373ffffffffffffffffffffffffffffffffffffffff1673ffffffffffffffffffffffffffffffffffffffff16815260200190815260200160002060009054906101000a900460ff16151514610e87576040517f08c379a0000000000000000000000000000000000000000000000000000000008152600401610e7e906159cc565b60405180910390fd5b6001602360003373ffffffffffffffffffffffffffffffffffffffff1673ffffffffffffffffffffffffffffffffffffffff16815260200190815260200160002060006101000a81548160ff02191690831515021790555080601f60003373ffffffffffffffffffffffffffffffffffffffff1673ffffffffffffffffffffffffffffffffffffffff168152602001908152602001600020819055506000602060008481526020019081526020016000205490508181610f479190615b66565b60206000858152602001908152602001600020819055506000602260003373ffffffffffffffffffffffffffffffffffffffff1673ffffffffffffffffffffffffffffffffffffffff168152602001908152602001600020600085815260200190815260200160002054905060008114156110315760216000858152602001908152602001600020339080600181540180825580915050600190039060005260206000200160009091909190916101000a81548173ffffffffffffffffffffffffffffffffffffffff021916908373ffffffffffffffffffffffffffffffffffffffff1602179055505b808361103d9190615b66565b602260003373ffffffffffffffffffffffffffffffffffffffff1673ffffffffffffffffffffffffffffffffffffffff16815260200190815260200160002060008681526020019081526020016000208190555082600e5461109f9190615bed565b601e60003373ffffffffffffffffffffffffffffffffffffffff1673ffffffffffffffffffffffffffffffffffffffff168152602001908152602001600020819055507f19421268847f42dd61705778018ddfc43bcdce8517e7a630acb12f122c70948133858560405161111593929190615474565b60405180910390a182600e5461112b9190615bed565b3411156111d157600083600e546111429190615bed565b3461114d9190615c47565b90503373ffffffffffffffffffffffffffffffffffffffff166108fc829081150290604051600060405180830381858888f19350505050158015611195573d6000803e3d6000fd5b507f2ee76d0c8417fef3c9f68663d321eb1c1ed0e089b5298177f0582aeadb6fd91f33826040516111c792919061544b565b60405180910390a1505b50505050565b606060115482101580156111ed57506012548211155b61122c576040517f08c379a0000000000000000000000000000000000000000000000000000000008152600401611223906159ec565b60405180910390fd5b602160008381526020019081526020016000208054806020026020016040519081016040528092919081815260200182805480156112bf57602002820191906000526020600020905b8160009054906101000a900473ffffffffffffffffffffffffffffffffffffffff1673ffffffffffffffffffffffffffffffffffffffff1681526020019060010190808311611275575b50505050509050919050565b6000601354905090565b6000600c60009054906101000a900473ffffffffffffffffffffffffffffffffffffffff16905090565b6060611309610ad1565b905090565b6000600a80549050905090565b61132c6113266133b0565b82613471565b61136b576040517f08c379a00000000000000000000000000000000000000000000000000000000081526004016113629061592c565b60405180910390fd5b61137683838361354f565b505050565b6000601654905090565b600960009054906101000a900460ff166113d4576040517f08c379a00000000000000000000000000000000000000000000000000000000081526004016113cb9061554c565b60405180910390fd5b600d60009054906101000a900473ffffffffffffffffffffffffffffffffffffffff1673ffffffffffffffffffffffffffffffffffffffff163373ffffffffffffffffffffffffffffffffffffffff1614611464576040517f08c379a000000000000000000000000000000000000000000000000000000000815260040161145b906155cc565b60405180910390fd5b6000600960006101000a81548160ff0219169083151502179055507f5db9ee0a495bf2e6ff9c91a7834c1ba4fdd244a5e8aa4e537bd38aeae4b073aa6114a86133b0565b6040516114b591906153bb565b60405180910390a1565b6114da838383604051806020016040528060008152506129bf565b505050565b600c60009054906101000a900473ffffffffffffffffffffffffffffffffffffffff1673ffffffffffffffffffffffffffffffffffffffff163373ffffffffffffffffffffffffffffffffffffffff161461156f576040517f08c379a0000000000000000000000000000000000000000000000000000000008152600401611566906157cc565b60405180910390fd5b61157960076137ab565b6010546115869190615bed565b3410156115c8576040517f08c379a00000000000000000000000000000000000000000000000000000000081526004016115bf9061590c565b60405180910390fd5b6014546015541061160e576040517f08c379a00000000000000000000000000000000000000000000000000000000081526004016116059061552c565b60405180910390fd5b60005b61161b60076137ab565b8110156116c557600061162d8261217d565b90508073ffffffffffffffffffffffffffffffffffffffff166108fc6010549081150290604051600060405180830381858888f19350505050158015611677573d6000803e3d6000fd5b507fb3224bc7c2e6157092b5f650cc8b06e5f0c34d8218b6e9a1a5a39c2e43706e4081836040516116a99291906153d6565b60405180910390a15080806116bd90615d99565b915050611611565b5042601d60155481548110611703577f4e487b7100000000000000000000000000000000000000000000000000000000600052603260045260246000fd5b90600052602060002001819055506015600081548092919061172490615d99565b919050555061173360076137ab565b6010546117409190615bed565b3411156117ef57600061175360076137ab565b6010546117609190615bed565b3461176b9190615c47565b90503373ffffffffffffffffffffffffffffffffffffffff166108fc829081150290604051600060405180830381858888f193505050501580156117b3573d6000803e3d6000fd5b507f2ee76d0c8417fef3c9f68663d321eb1c1ed0e089b5298177f0582aeadb6fd91f33826040516117e592919061544b565b60405180910390a1505b565b600c60009054906101000a900473ffffffffffffffffffffffffffffffffffffffff1673ffffffffffffffffffffffffffffffffffffffff163373ffffffffffffffffffffffffffffffffffffffff1614611881576040517f08c379a0000000000000000000000000000000000000000000000000000000008152600401611878906156ac565b60405180910390fd5b6016543410156118c6576040517f08c379a00000000000000000000000000000000000000000000000000000000081526004016118bd9061594c565b60405180910390fd5b60006118d260076137ab565b905060005b818110156119965760006118ea8261217d565b905061191981600b60009054906101000a900473ffffffffffffffffffffffffffffffffffffffff16846137b9565b8073ffffffffffffffffffffffffffffffffffffffff166108fc600e549081150290604051600060405180830381858888f19350505050158015611961573d6000803e3d6000fd5b50600e546016546119729190615c47565b60168190555061198260076137c9565b50808061198e90615d99565b9150506118d7565b5042601a819055506000471180156119af575060165434115b15611adc576000601654346119c49190615c47565b905080471015611a595760004790503373ffffffffffffffffffffffffffffffffffffffff166108fc829081150290604051600060405180830381858888f19350505050158015611a19573d6000803e3d6000fd5b507f2ee76d0c8417fef3c9f68663d321eb1c1ed0e089b5298177f0582aeadb6fd91f3382604051611a4b92919061544b565b60405180910390a150611ada565b3373ffffffffffffffffffffffffffffffffffffffff166108fc829081150290604051600060405180830381858888f19350505050158015611a9f573d6000803e3d6000fd5b507f2ee76d0c8417fef3c9f68663d321eb1c1ed0e089b5298177f0582aeadb6fd91f3382604051611ad192919061544b565b60405180910390a15b505b50565b6000600960009054906101000a900460ff16905090565b6000601754421115905090565b60008073ffffffffffffffffffffffffffffffffffffffff168273ffffffffffffffffffffffffffffffffffffffff161415611b74576040517f08c379a0000000000000000000000000000000000000000000000000000000008152600401611b6b9061584c565b60405180910390fd5b601e60008373ffffffffffffffffffffffffffffffffffffffff1673ffffffffffffffffffffffffffffffffffffffff168152602001908152602001600020549050919050565b611bc3611af6565b15611c03576040517f08c379a0000000000000000000000000000000000000000000000000000000008152600401611bfa9061596c565b60405180910390fd5b600960009054906101000a900460ff1615611c53576040517f08c379a0000000000000000000000000000000000000000000000000000000008152600401611c4a9061572c565b60405180910390fd5b611c5b6133b0565b73ffffffffffffffffffffffffffffffffffffffff16611c79612573565b73ffffffffffffffffffffffffffffffffffffffff1614611ccf576040517f08c379a0000000000000000000000000000000000000000000000000000000008152600401611cc69061582c565b60405180910390fd5b60011515600960019054906101000a900460ff16151514611d25576040517f08c379a0000000000000000000000000000000000000000000000000000000008152600401611d1c906158ac565b60405180910390fd5b6000600f54905060005b600a80549050811015612179576000600a8281548110611d78577f4e487b7100000000000000000000000000000000000000000000000000000000600052603260045260246000fd5b9060005260206000200160009054906101000a900473ffffffffffffffffffffffffffffffffffffffff1690506000601f60008373ffffffffffffffffffffffffffffffffffffffff1673ffffffffffffffffffffffffffffffffffffffff1681526020019081526020016000205490508381111561203857600c60009054906101000a900473ffffffffffffffffffffffffffffffffffffffff1673ffffffffffffffffffffffffffffffffffffffff166108fc85600e54611e3b9190615bed565b9081150290604051600060405180830381858888f19350505050158015611e66573d6000803e3d6000fd5b5083600e54611e759190615bed565b60166000828254611e869190615b66565b9250508190555060005b84811015611ec857611eab83611ea660076137ab565b613825565b611eb560076139f3565b8080611ec090615d99565b915050611e90565b506000601e60008473ffffffffffffffffffffffffffffffffffffffff1673ffffffffffffffffffffffffffffffffffffffff16815260200190815260200160002054905084600e54611f1b9190615bed565b81611f269190615c47565b601e60008573ffffffffffffffffffffffffffffffffffffffff1673ffffffffffffffffffffffffffffffffffffffff168152602001908152602001600020819055506000601e60008573ffffffffffffffffffffffffffffffffffffffff1673ffffffffffffffffffffffffffffffffffffffff1681526020019081526020016000205490508373ffffffffffffffffffffffffffffffffffffffff166108fc829081150290604051600060405180830381858888f19350505050158015611ff3573d6000803e3d6000fd5b507f2ee76d0c8417fef3c9f68663d321eb1c1ed0e089b5298177f0582aeadb6fd91f848260405161202592919061544b565b60405180910390a1600095505050612164565b600c60009054906101000a900473ffffffffffffffffffffffffffffffffffffffff1673ffffffffffffffffffffffffffffffffffffffff166108fc82600e546120829190615bed565b9081150290604051600060405180830381858888f193505050501580156120ad573d6000803e3d6000fd5b5080600e546120bc9190615bed565b601660008282546120cd9190615b66565b9250508190555060005b8181101561210f576120f2836120ed60076137ab565b613825565b6120fc60076139f3565b808061210790615d99565b9150506120d7565b506000601e60008473ffffffffffffffffffffffffffffffffffffffff1673ffffffffffffffffffffffffffffffffffffffff1681526020019081526020016000208190555080846121619190615c47565b93505b5050808061217190615d99565b915050611d2f565b5050565b6000806002600084815260200190815260200160002060009054906101000a900473ffffffffffffffffffffffffffffffffffffffff169050600073ffffffffffffffffffffffffffffffffffffffff168173ffffffffffffffffffffffffffffffffffffffff161415612226576040517f08c379a000000000000000000000000000000000000000000000000000000000815260040161221d906157ac565b60405180910390fd5b80915050919050565b6000600e54905090565b60008073ffffffffffffffffffffffffffffffffffffffff168273ffffffffffffffffffffffffffffffffffffffff1614156122aa576040517f08c379a00000000000000000000000000000000000000000000000000000000081526004016122a19061578c565b60405180910390fd5b600360008373ffffffffffffffffffffffffffffffffffffffff1673ffffffffffffffffffffffffffffffffffffffff168152602001908152602001600020549050919050565b6122f96133b0565b73ffffffffffffffffffffffffffffffffffffffff16612317612573565b73ffffffffffffffffffffffffffffffffffffffff161461236d576040517f08c379a00000000000000000000000000000000000000000000000000000000081526004016123649061582c565b60405180910390fd5b600073ffffffffffffffffffffffffffffffffffffffff16600660009054906101000a900473ffffffffffffffffffffffffffffffffffffffff1673ffffffffffffffffffffffffffffffffffffffff167f8be0079c531659141344cd1fd0a4f28419497f9722a3daafe3b4186f6b6457e060405160405180910390a36000600660006101000a81548173ffffffffffffffffffffffffffffffffffffffff021916908373ffffffffffffffffffffffffffffffffffffffff160217905550565b6000601254905090565b600960009054906101000a900460ff1615612488576040517f08c379a000000000000000000000000000000000000000000000000000000000815260040161247f9061572c565b60405180910390fd5b600d60009054906101000a900473ffffffffffffffffffffffffffffffffffffffff1673ffffffffffffffffffffffffffffffffffffffff163373ffffffffffffffffffffffffffffffffffffffff1614612518576040517f08c379a000000000000000000000000000000000000000000000000000000000815260040161250f9061574c565b60405180910390fd5b6001600960006101000a81548160ff0219169083151502179055507f62e78cea01bee320cd4e420270b5ea74000d11b0c9f74754ebdbfc544b05a25861255c6133b0565b60405161256991906153bb565b60405180910390a1565b6000600660009054906101000a900473ffffffffffffffffffffffffffffffffffffffff16905090565b60006125a960076137ab565b905090565b6000601154905090565b60006125c2611af6565b15612602576040517f08c379a00000000000000000000000000000000000000000000000000000000081526004016125f99061596c565b60405180910390fd5b61260a6133b0565b73ffffffffffffffffffffffffffffffffffffffff16612628612573565b73ffffffffffffffffffffffffffffffffffffffff161461267e576040517f08c379a00000000000000000000000000000000000000000000000000000000081526004016126759061582c565b60405180910390fd5b60008060115490505b60125481116126d9576020600082815260200190815260200160002054826126af9190615b66565b9150600f5482106126c657806010819055506126d9565b80806126d190615d99565b915050612687565b5060006010541115612746577f34ccc1cc859f0b1e974530f1eb22e713649d5f3937abf904589392796241d6116010546040516127169190615a0c565b60405180910390a16001600960016101000a81548160ff021916908315150217905550612741613a09565b612782565b7fe7f2eb6d54f3b1a2443045ba960f25d2ce0a36bcdee0965882edf6051179a59b81600f54604051612779929190615a27565b60405180910390a15b61279960016010546127949190615b66565b613b01565b60105491505090565b6060600180546127b190615d67565b80601f01602080910402602001604051908101604052809291908181526020018280546127dd90615d67565b801561282a5780601f106127ff5761010080835404028352916020019161282a565b820191906000526020600020905b81548152906001019060200180831161280d57829003601f168201915b5050505050905090565b6000601954905090565b6128466133b0565b73ffffffffffffffffffffffffffffffffffffffff168273ffffffffffffffffffffffffffffffffffffffff1614156128b4576040517f08c379a00000000000000000000000000000000000000000000000000000000081526004016128ab9061568c565b60405180910390fd5b80600560006128c16133b0565b73ffffffffffffffffffffffffffffffffffffffff1673ffffffffffffffffffffffffffffffffffffffff16815260200190815260200160002060008473ffffffffffffffffffffffffffffffffffffffff1673ffffffffffffffffffffffffffffffffffffffff16815260200190815260200160002060006101000a81548160ff0219169083151502179055508173ffffffffffffffffffffffffffffffffffffffff1661296e6133b0565b73ffffffffffffffffffffffffffffffffffffffff167f17307eab39ab6107e8899845ad3d59bd9653f200f220920489ca2b5937696c31836040516129b391906154ef565b60405180910390a35050565b6129d06129ca6133b0565b83613471565b612a0f576040517f08c379a0000000000000000000000000000000000000000000000000000000008152600401612a069061592c565b60405180910390fd5b612a1b84848484613c8b565b50505050565b6000601e60008373ffffffffffffffffffffffffffffffffffffffff1673ffffffffffffffffffffffffffffffffffffffff168152602001908152602001600020549050919050565b6000601754905090565b6060612a7f82613344565b612abe576040517f08c379a0000000000000000000000000000000000000000000000000000000008152600401612ab59061588c565b60405180910390fd5b6000612ac8613ce7565b90506000815111612ae85760405180602001604052806000815250612b13565b80612af284613d79565b604051602001612b03929190615397565b6040516020818303038152906040525b915050919050565b6060601c805480602002602001604051908101604052809291908181526020018280548015612b6957602002820191906000526020600020905b815481526020019060010190808311612b55575b5050505050905090565b6000601854905090565b60006019544211612bc3576040517f08c379a0000000000000000000000000000000000000000000000000000000008152600401612bba9061564c565b60405180910390fd5b6000601a541415612bd75760009050612bf1565b601954601a541115612bec5760009050612bf1565b600190505b90565b600060018210158015612c0957506014548211155b612c48576040517f08c379a0000000000000000000000000000000000000000000000000000000008152600401612c3f9061562c565b60405180910390fd5b601c600183612c579190615c47565b81548110612c8e577f4e487b7100000000000000000000000000000000000000000000000000000000600052603260045260246000fd5b90600052602060002001544211612cda576040517f08c379a0000000000000000000000000000000000000000000000000000000008152600401612cd1906156cc565b60405180910390fd5b6000601d600184612ceb9190615c47565b81548110612d22577f4e487b7100000000000000000000000000000000000000000000000000000000600052603260045260246000fd5b90600052602060002001541415612d3c5760009050612df1565b601c600183612d4b9190615c47565b81548110612d82577f4e487b7100000000000000000000000000000000000000000000000000000000600052603260045260246000fd5b9060005260206000200154601d600184612d9c9190615c47565b81548110612dd3577f4e487b7100000000000000000000000000000000000000000000000000000000600052603260045260246000fd5b906000526020600020015411612dec5760019050612df1565b600090505b919050565b6000600560008473ffffffffffffffffffffffffffffffffffffffff1673ffffffffffffffffffffffffffffffffffffffff16815260200190815260200160002060008373ffffffffffffffffffffffffffffffffffffffff1673ffffffffffffffffffffffffffffffffffffffff16815260200190815260200160002060009054906101000a900460ff16905092915050565b6000601554601054612e9c9190615bed565b600e54612ea99190615c47565b905090565b60008082118015612ec157506014548211155b612f00576040517f08c379a0000000000000000000000000000000000000000000000000000000008152600401612ef7906158cc565b60405180910390fd5b601c600183612f0f9190615c47565b81548110612f46577f4e487b7100000000000000000000000000000000000000000000000000000000600052603260045260246000fd5b90600052602060002001549050919050565b612f606133b0565b73ffffffffffffffffffffffffffffffffffffffff16612f7e612573565b73ffffffffffffffffffffffffffffffffffffffff1614612fd4576040517f08c379a0000000000000000000000000000000000000000000000000000000008152600401612fcb9061582c565b60405180910390fd5b8115612ff35780601054612fe89190615b66565b60108190555061304d565b601054811115613038576040517f08c379a000000000000000000000000000000000000000000000000000000000815260040161302f906156ec565b60405180910390fd5b806010546130469190615c47565b6010819055505b7fca1d6283d1b481c7291c2fc81205d98456d1c2948caa5f9460dd3e35ca34e4163360105460405161308092919061544b565b60405180910390a15050565b6130946133b0565b73ffffffffffffffffffffffffffffffffffffffff166130b2612573565b73ffffffffffffffffffffffffffffffffffffffff1614613108576040517f08c379a00000000000000000000000000000000000000000000000000000000081526004016130ff9061582c565b60405180910390fd5b600073ffffffffffffffffffffffffffffffffffffffff168173ffffffffffffffffffffffffffffffffffffffff161415613178576040517f08c379a000000000000000000000000000000000000000000000000000000000815260040161316f906155ec565b60405180910390fd5b8073ffffffffffffffffffffffffffffffffffffffff16600660009054906101000a900473ffffffffffffffffffffffffffffffffffffffff1673ffffffffffffffffffffffffffffffffffffffff167f8be0079c531659141344cd1fd0a4f28419497f9722a3daafe3b4186f6b6457e060405160405180910390a380600660006101000a81548173ffffffffffffffffffffffffffffffffffffffff021916908373ffffffffffffffffffffffffffffffffffffffff16021790555050565b6000600d60009054906101000a900473ffffffffffffffffffffffffffffffffffffffff16905090565b60007f80ac58cd000000000000000000000000000000000000000000000000000000007bffffffffffffffffffffffffffffffffffffffffffffffffffffffff1916827bffffffffffffffffffffffffffffffffffffffffffffffffffffffff1916148061332d57507f5b5e139f000000000000000000000000000000000000000000000000000000007bffffffffffffffffffffffffffffffffffffffffffffffffffffffff1916827bffffffffffffffffffffffffffffffffffffffffffffffffffffffff1916145b8061333d575061333c82613f26565b5b9050919050565b60008073ffffffffffffffffffffffffffffffffffffffff166002600084815260200190815260200160002060009054906101000a900473ffffffffffffffffffffffffffffffffffffffff1673ffffffffffffffffffffffffffffffffffffffff1614159050919050565b600033905090565b816004600083815260200190815260200160002060006101000a81548173ffffffffffffffffffffffffffffffffffffffff021916908373ffffffffffffffffffffffffffffffffffffffff160217905550808273ffffffffffffffffffffffffffffffffffffffff1661342b8361217d565b73ffffffffffffffffffffffffffffffffffffffff167f8c5be1e5ebec7d5bd14f71427d1e84f3dd0314c0f7b2291e5b200ac8c7c3b92560405160405180910390a45050565b600061347c82613344565b6134bb576040517f08c379a00000000000000000000000000000000000000000000000000000000081526004016134b29061570c565b60405180910390fd5b60006134c68361217d565b90508073ffffffffffffffffffffffffffffffffffffffff168473ffffffffffffffffffffffffffffffffffffffff16148061353557508373ffffffffffffffffffffffffffffffffffffffff1661351d84610b6d565b73ffffffffffffffffffffffffffffffffffffffff16145b8061354657506135458185612df6565b5b91505092915050565b8273ffffffffffffffffffffffffffffffffffffffff1661356f8261217d565b73ffffffffffffffffffffffffffffffffffffffff16146135c5576040517f08c379a00000000000000000000000000000000000000000000000000000000081526004016135bc9061586c565b60405180910390fd5b600073ffffffffffffffffffffffffffffffffffffffff168273ffffffffffffffffffffffffffffffffffffffff161415613635576040517f08c379a000000000000000000000000000000000000000000000000000000000815260040161362c9061566c565b60405180910390fd5b613640838383613f90565b61364b6000826133b8565b6001600360008573ffffffffffffffffffffffffffffffffffffffff1673ffffffffffffffffffffffffffffffffffffffff168152602001908152602001600020600082825461369b9190615c47565b925050819055506001600360008473ffffffffffffffffffffffffffffffffffffffff1673ffffffffffffffffffffffffffffffffffffffff16815260200190815260200160002060008282546136f29190615b66565b92505081905550816002600083815260200190815260200160002060006101000a81548173ffffffffffffffffffffffffffffffffffffffff021916908373ffffffffffffffffffffffffffffffffffffffff160217905550808273ffffffffffffffffffffffffffffffffffffffff168473ffffffffffffffffffffffffffffffffffffffff167fddf252ad1be2c89b69c2b068fc378daa952ba7f163c4a11628f55a4df523b3ef60405160405180910390a4505050565b600081600001549050919050565b6137c483838361354f565b505050565b60008160000154905060008111613815576040517f08c379a000000000000000000000000000000000000000000000000000000000815260040161380c9061558c565b60405180910390fd5b6001810382600001819055505050565b600073ffffffffffffffffffffffffffffffffffffffff168273ffffffffffffffffffffffffffffffffffffffff161415613895576040517f08c379a000000000000000000000000000000000000000000000000000000000815260040161388c906157ec565b60405180910390fd5b61389e81613344565b156138de576040517f08c379a00000000000000000000000000000000000000000000000000000000081526004016138d59061560c565b60405180910390fd5b6138ea60008383613f90565b6001600360008473ffffffffffffffffffffffffffffffffffffffff1673ffffffffffffffffffffffffffffffffffffffff168152602001908152602001600020600082825461393a9190615b66565b92505081905550816002600083815260200190815260200160002060006101000a81548173ffffffffffffffffffffffffffffffffffffffff021916908373ffffffffffffffffffffffffffffffffffffffff160217905550808273ffffffffffffffffffffffffffffffffffffffff16600073ffffffffffffffffffffffffffffffffffffffff167fddf252ad1be2c89b69c2b068fc378daa952ba7f163c4a11628f55a4df523b3ef60405160405180910390a45050565b6001816000016000828254019250508190555050565b600060115490505b6010548111613afe576000613a25826111d7565b905060005b8151811015613ae957600a828281518110613a6e577f4e487b7100000000000000000000000000000000000000000000000000000000600052603260045260246000fd5b60200260200101519080600181540180825580915050600190039060005260206000200160009091909190916101000a81548173ffffffffffffffffffffffffffffffffffffffff021916908373ffffffffffffffffffffffffffffffffffffffff1602179055508080613ae190615d99565b915050613a2a565b50508080613af690615d99565b915050613a11565b50565b60008190505b6012548111613c87576000613b1b826111d7565b905060005b8151811015613c72576000828281518110613b64577f4e487b7100000000000000000000000000000000000000000000000000000000600052603260045260246000fd5b602002602001015190506000602260008373ffffffffffffffffffffffffffffffffffffffff1673ffffffffffffffffffffffffffffffffffffffff16815260200190815260200160002060008681526020019081526020016000205490508173ffffffffffffffffffffffffffffffffffffffff166108fc82600e54613beb9190615bed565b9081150290604051600060405180830381858888f19350505050158015613c16573d6000803e3d6000fd5b507f2ee76d0c8417fef3c9f68663d321eb1c1ed0e089b5298177f0582aeadb6fd91f82600e5483613c479190615bed565b604051613c5592919061544b565b60405180910390a150508080613c6a90615d99565b915050613b20565b50508080613c7f90615d99565b915050613b07565b5050565b613c9684848461354f565b613ca284848484613f95565b613ce1576040517f08c379a0000000000000000000000000000000000000000000000000000000008152600401613cd8906155ac565b60405180910390fd5b50505050565b606060088054613cf690615d67565b80601f0160208091040260200160405190810160405280929190818152602001828054613d2290615d67565b8015613d6f5780601f10613d4457610100808354040283529160200191613d6f565b820191906000526020600020905b815481529060010190602001808311613d5257829003601f168201915b5050505050905090565b60606000821415613dc1576040518060400160405280600181526020017f30000000000000000000000000000000000000000000000000000000000000008152509050613f21565b600082905060005b60008214613df3578080613ddc90615d99565b915050600a82613dec9190615bbc565b9150613dc9565b60008167ffffffffffffffff811115613e35577f4e487b7100000000000000000000000000000000000000000000000000000000600052604160045260246000fd5b6040519080825280601f01601f191660200182016040528015613e675781602001600182028036833780820191505090505b5090505b60008514613f1a57600182613e809190615c47565b9150600a85613e8f9190615de2565b6030613e9b9190615b66565b60f81b818381518110613ed7577f4e487b7100000000000000000000000000000000000000000000000000000000600052603260045260246000fd5b60200101907effffffffffffffffffffffffffffffffffffffffffffffffffffffffffffff1916908160001a905350600a85613f139190615bbc565b9450613e6b565b8093505050505b919050565b60007f01ffc9a7000000000000000000000000000000000000000000000000000000007bffffffffffffffffffffffffffffffffffffffffffffffffffffffff1916827bffffffffffffffffffffffffffffffffffffffffffffffffffffffff1916149050919050565b505050565b6000613fb68473ffffffffffffffffffffffffffffffffffffffff1661412c565b1561411f578373ffffffffffffffffffffffffffffffffffffffff1663150b7a02613fdf6133b0565b8786866040518563ffffffff1660e01b815260040161400194939291906153ff565b602060405180830381600087803b15801561401b57600080fd5b505af192505050801561404c57506040513d601f19601f82011682018060405250810190614049919061441c565b60015b6140cf573d806000811461407c576040519150601f19603f3d011682016040523d82523d6000602084013e614081565b606091505b506000815114156140c7576040517f08c379a00000000000000000000000000000000000000000000000000000000081526004016140be906155ac565b60405180910390fd5b805181602001fd5b63150b7a0260e01b7bffffffffffffffffffffffffffffffffffffffffffffffffffffffff1916817bffffffffffffffffffffffffffffffffffffffffffffffffffffffff191614915050614124565b600190505b949350505050565b600080823b905060008111915050919050565b600061415261414d84615a81565b615a50565b90508281526020810184848401111561416a57600080fd5b614175848285615d25565b509392505050565b60008135905061418c81615ee0565b92915050565b6000813590506141a181615ef7565b92915050565b6000813590506141b681615f0e565b92915050565b6000815190506141cb81615f0e565b92915050565b600082601f8301126141e257600080fd5b81356141f284826020860161413f565b91505092915050565b60008135905061420a81615f25565b92915050565b60006020828403121561422257600080fd5b60006142308482850161417d565b91505092915050565b6000806040838503121561424c57600080fd5b600061425a8582860161417d565b925050602061426b8582860161417d565b9150509250929050565b60008060006060848603121561428a57600080fd5b60006142988682870161417d565b93505060206142a98682870161417d565b92505060406142ba868287016141fb565b9150509250925092565b600080600080608085870312156142da57600080fd5b60006142e88782880161417d565b94505060206142f98782880161417d565b935050604061430a878288016141fb565b925050606085013567ffffffffffffffff81111561432757600080fd5b614333878288016141d1565b91505092959194509250565b6000806040838503121561435257600080fd5b60006143608582860161417d565b925050602061437185828601614192565b9150509250929050565b6000806040838503121561438e57600080fd5b600061439c8582860161417d565b92505060206143ad858286016141fb565b9150509250929050565b600080604083850312156143ca57600080fd5b60006143d885828601614192565b92505060206143e9858286016141fb565b9150509250929050565b60006020828403121561440557600080fd5b6000614413848285016141a7565b91505092915050565b60006020828403121561442e57600080fd5b600061443c848285016141bc565b91505092915050565b60006020828403121561445757600080fd5b6000614465848285016141fb565b91505092915050565b6000806040838503121561448157600080fd5b600061448f858286016141fb565b92505060206144a0858286016141fb565b9150509250929050565b60006144b683836144e9565b60208301905092915050565b60006144ce8383615379565b60208301905092915050565b6144e381615cef565b82525050565b6144f281615c7b565b82525050565b61450181615c7b565b82525050565b600061451282615ad1565b61451c8185615b17565b935061452783615ab1565b8060005b8381101561455857815161453f88826144aa565b975061454a83615afd565b92505060018101905061452b565b5085935050505092915050565b600061457082615adc565b61457a8185615b28565b935061458583615ac1565b8060005b838110156145b657815161459d88826144c2565b97506145a883615b0a565b925050600181019050614589565b5085935050505092915050565b6145cc81615c8d565b82525050565b60006145dd82615ae7565b6145e78185615b39565b93506145f7818560208601615d34565b61460081615ecf565b840191505092915050565b600061461682615af2565b6146208185615b4a565b9350614630818560208601615d34565b61463981615ecf565b840191505092915050565b600061464f82615af2565b6146598185615b5b565b9350614669818560208601615d34565b80840191505092915050565b6000614682602a83615b4a565b91507f416c6c20636f75706f6e207061796d656e7473206861766520616c726561647960008301527f206265656e206d616465000000000000000000000000000000000000000000006020830152604082019050919050565b60006146e8601483615b4a565b91507f5061757361626c653a206e6f74207061757365640000000000000000000000006000830152602082019050919050565b6000614728602883615b4a565b91507f436f75706f6e206e6565647320746f206265206265747765656e20746865207360008301527f65742072616e67650000000000000000000000000000000000000000000000006020830152604082019050919050565b600061478e601b83615b4a565b91507f436f756e7465723a2064656372656d656e74206f766572666c6f7700000000006000830152602082019050919050565b60006147ce603283615b4a565b91507f4552433732313a207472616e7366657220746f206e6f6e20455243373231526560008301527f63656976657220696d706c656d656e74657200000000000000000000000000006020830152604082019050919050565b6000614834602283615b4a565b91507f556e7061757365722063616e206f6e6c792062652074686520726567756c617460008301527f6f720000000000000000000000000000000000000000000000000000000000006020830152604082019050919050565b600061489a602683615b4a565b91507f4f776e61626c653a206e6577206f776e657220697320746865207a65726f206160008301527f64647265737300000000000000000000000000000000000000000000000000006020830152604082019050919050565b6000614900601c83615b4a565b91507f4552433732313a20746f6b656e20616c7265616479206d696e746564000000006000830152602082019050919050565b6000614940601b83615b4a565b91507f5468617420636f75706f6e20646f6573206e6f742065786973747300000000006000830152602082019050919050565b6000614980601883615b4a565b91507f426f6e6420686173206e6f74206d6174757265642079657400000000000000006000830152602082019050919050565b60006149c0602483615b4a565b91507f4552433732313a207472616e7366657220746f20746865207a65726f2061646460008301527f72657373000000000000000000000000000000000000000000000000000000006020830152604082019050919050565b6000614a26601983615b4a565b91507f4552433732313a20617070726f766520746f2063616c6c6572000000000000006000830152602082019050919050565b6000614a66602e83615b4a565b91507f506179696e6720636f6d70616e792073686f756c642062652074686520626f7260008301527f726f77696e6720636f6d70616e790000000000000000000000000000000000006020830152604082019050919050565b6000614acc601283615b4a565b91507f436f75706f6e206e6f74206475652079657400000000000000000000000000006000830152602082019050919050565b6000614b0c602083615b4a565b91507f436f75706f6e207061796d656e742063616e2774206265206e656761746976656000830152602082019050919050565b6000614b4c602c83615b4a565b91507f4552433732313a206f70657261746f7220717565727920666f72206e6f6e657860008301527f697374656e7420746f6b656e00000000000000000000000000000000000000006020830152604082019050919050565b6000614bb2601083615b4a565b91507f5061757361626c653a20706175736564000000000000000000000000000000006000830152602082019050919050565b6000614bf2602083615b4a565b91507f5061757365722063616e206f6e6c792062652074686520726567756c61746f726000830152602082019050919050565b6000614c32603883615b4a565b91507f4552433732313a20617070726f76652063616c6c6572206973206e6f74206f7760008301527f6e6572206e6f7220617070726f76656420666f7220616c6c00000000000000006020830152604082019050919050565b6000614c98602a83615b4a565b91507f4552433732313a2062616c616e636520717565727920666f7220746865207a6560008301527f726f2061646472657373000000000000000000000000000000000000000000006020830152604082019050919050565b6000614cfe602983615b4a565b91507f4552433732313a206f776e657220717565727920666f72206e6f6e657869737460008301527f656e7420746f6b656e00000000000000000000000000000000000000000000006020830152604082019050919050565b6000614d64603583615b4a565b91507f436f75706f6e207061796d656e742073686f756c6420636f6d652066726f6d2060008301527f74686520626f72726f77696e6720636f6d70616e7900000000000000000000006020830152604082019050919050565b6000614dca602083615b4a565b91507f4552433732313a206d696e7420746f20746865207a65726f20616464726573736000830152602082019050919050565b6000614e0a602c83615b4a565b91507f4552433732313a20617070726f76656420717565727920666f72206e6f6e657860008301527f697374656e7420746f6b656e00000000000000000000000000000000000000006020830152604082019050919050565b6000614e70602083615b4a565b91507f4f776e61626c653a2063616c6c6572206973206e6f7420746865206f776e65726000830152602082019050919050565b6000614eb0602283615b4a565b91507f42616c616e636520717565727920666f7220746865207a65726f20616464726560008301527f73730000000000000000000000000000000000000000000000000000000000006020830152604082019050919050565b6000614f16602983615b4a565b91507f4552433732313a207472616e73666572206f6620746f6b656e2074686174206960008301527f73206e6f74206f776e00000000000000000000000000000000000000000000006020830152604082019050919050565b6000614f7c602f83615b4a565b91507f4552433732314d657461646174613a2055524920717565727920666f72206e6f60008301527f6e6578697374656e7420746f6b656e00000000000000000000000000000000006020830152604082019050919050565b6000614fe2603683615b4a565b91507f63616e206e6f7420697373756520626f6e64732069662074686520636f75706f60008301527f6e20686173206e6f74206265656e20646566696e6564000000000000000000006020830152604082019050919050565b6000615048603b83615b4a565b91507f4e6f207375636820636f75706f6e207061796d656e742c20636865636b20746860008301527f65206e756d626572206f6620636f75706f6e207061796d656e747300000000006020830152604082019050919050565b60006150ae602183615b4a565b91507f4552433732313a20617070726f76616c20746f2063757272656e74206f776e6560008301527f72000000000000000000000000000000000000000000000000000000000000006020830152604082019050919050565b6000615114601c83615b4a565b91507f4e6f7420656e6f75676820636f696e7320666f7220636f75706f6e73000000006000830152602082019050919050565b6000615154603183615b4a565b91507f4552433732313a207472616e736665722063616c6c6572206973206e6f74206f60008301527f776e6572206e6f7220617070726f7665640000000000000000000000000000006020830152604082019050919050565b60006151ba602f83615b4a565b91507f4e6f7420656e6f75676820636f696e7320746f20736574746c6520746865206260008301527f6f6e64206174206d6174757269747900000000000000000000000000000000006020830152604082019050919050565b6000615220601f83615b4a565b91507f496e766573746d656e742077696e646f77206973207374696c6c206f70656e006000830152602082019050919050565b6000615260602683615b4a565b91507f4e6f7420656e6f75676820636f696e73206465706f736974656420666f72207460008301527f68652062696400000000000000000000000000000000000000000000000000006020830152604082019050919050565b60006152c6601d83615b4a565b91507f496e766573746d656e742077696e646f77206973206e6f74206f70656e0000006000830152602082019050919050565b6000615306601983615b4a565b91507f4f6e6c79206f6e65206269642070657220696e766573746f72000000000000006000830152602082019050919050565b6000615346601383615b4a565b91507f436f75706f6e206e6f7420696e2072616e6765000000000000000000000000006000830152602082019050919050565b61538281615ce5565b82525050565b61539181615ce5565b82525050565b60006153a38285614644565b91506153af8284614644565b91508190509392505050565b60006020820190506153d060008301846144f8565b92915050565b60006040820190506153eb60008301856144da565b6153f86020830184615388565b9392505050565b600060808201905061541460008301876144f8565b61542160208301866144f8565b61542e6040830185615388565b818103606083015261544081846145d2565b905095945050505050565b600060408201905061546060008301856144f8565b61546d6020830184615388565b9392505050565b600060608201905061548960008301866144f8565b6154966020830185615388565b6154a36040830184615388565b949350505050565b600060208201905081810360008301526154c58184614507565b905092915050565b600060208201905081810360008301526154e78184614565565b905092915050565b600060208201905061550460008301846145c3565b92915050565b60006020820190508181036000830152615524818461460b565b905092915050565b6000602082019050818103600083015261554581614675565b9050919050565b60006020820190508181036000830152615565816146db565b9050919050565b600060208201905081810360008301526155858161471b565b9050919050565b600060208201905081810360008301526155a581614781565b9050919050565b600060208201905081810360008301526155c5816147c1565b9050919050565b600060208201905081810360008301526155e581614827565b9050919050565b600060208201905081810360008301526156058161488d565b9050919050565b60006020820190508181036000830152615625816148f3565b9050919050565b6000602082019050818103600083015261564581614933565b9050919050565b6000602082019050818103600083015261566581614973565b9050919050565b60006020820190508181036000830152615685816149b3565b9050919050565b600060208201905081810360008301526156a581614a19565b9050919050565b600060208201905081810360008301526156c581614a59565b9050919050565b600060208201905081810360008301526156e581614abf565b9050919050565b6000602082019050818103600083015261570581614aff565b9050919050565b6000602082019050818103600083015261572581614b3f565b9050919050565b6000602082019050818103600083015261574581614ba5565b9050919050565b6000602082019050818103600083015261576581614be5565b9050919050565b6000602082019050818103600083015261578581614c25565b9050919050565b600060208201905081810360008301526157a581614c8b565b9050919050565b600060208201905081810360008301526157c581614cf1565b9050919050565b600060208201905081810360008301526157e581614d57565b9050919050565b6000602082019050818103600083015261580581614dbd565b9050919050565b6000602082019050818103600083015261582581614dfd565b9050919050565b6000602082019050818103600083015261584581614e63565b9050919050565b6000602082019050818103600083015261586581614ea3565b9050919050565b6000602082019050818103600083015261588581614f09565b9050919050565b600060208201905081810360008301526158a581614f6f565b9050919050565b600060208201905081810360008301526158c581614fd5565b9050919050565b600060208201905081810360008301526158e58161503b565b9050919050565b60006020820190508181036000830152615905816150a1565b9050919050565b6000602082019050818103600083015261592581615107565b9050919050565b6000602082019050818103600083015261594581615147565b9050919050565b60006020820190508181036000830152615965816151ad565b9050919050565b6000602082019050818103600083015261598581615213565b9050919050565b600060208201905081810360008301526159a581615253565b9050919050565b600060208201905081810360008301526159c5816152b9565b9050919050565b600060208201905081810360008301526159e5816152f9565b9050919050565b60006020820190508181036000830152615a0581615339565b9050919050565b6000602082019050615a216000830184615388565b92915050565b6000604082019050615a3c6000830185615388565b615a496020830184615388565b9392505050565b6000604051905081810181811067ffffffffffffffff82111715615a7757615a76615ea0565b5b8060405250919050565b600067ffffffffffffffff821115615a9c57615a9b615ea0565b5b601f19601f8301169050602081019050919050565b6000819050602082019050919050565b6000819050602082019050919050565b600081519050919050565b600081519050919050565b600081519050919050565b600081519050919050565b6000602082019050919050565b6000602082019050919050565b600082825260208201905092915050565b600082825260208201905092915050565b600082825260208201905092915050565b600082825260208201905092915050565b600081905092915050565b6000615b7182615ce5565b9150615b7c83615ce5565b9250827fffffffffffffffffffffffffffffffffffffffffffffffffffffffffffffffff03821115615bb157615bb0615e13565b5b828201905092915050565b6000615bc782615ce5565b9150615bd283615ce5565b925082615be257615be1615e42565b5b828204905092915050565b6000615bf882615ce5565b9150615c0383615ce5565b9250817fffffffffffffffffffffffffffffffffffffffffffffffffffffffffffffffff0483118215151615615c3c57615c3b615e13565b5b828202905092915050565b6000615c5282615ce5565b9150615c5d83615ce5565b925082821015615c7057615c6f615e13565b5b828203905092915050565b6000615c8682615cc5565b9050919050565b60008115159050919050565b60007fffffffff0000000000000000000000000000000000000000000000000000000082169050919050565b600073ffffffffffffffffffffffffffffffffffffffff82169050919050565b6000819050919050565b6000615cfa82615d01565b9050919050565b6000615d0c82615d13565b9050919050565b6000615d1e82615cc5565b9050919050565b82818337600083830152505050565b60005b83811015615d52578082015181840152602081019050615d37565b83811115615d61576000848401525b50505050565b60006002820490506001821680615d7f57607f821691505b60208210811415615d9357615d92615e71565b5b50919050565b6000615da482615ce5565b91507fffffffffffffffffffffffffffffffffffffffffffffffffffffffffffffffff821415615dd757615dd6615e13565b5b600182019050919050565b6000615ded82615ce5565b9150615df883615ce5565b925082615e0857615e07615e42565b5b828206905092915050565b7f4e487b7100000000000000000000000000000000000000000000000000000000600052601160045260246000fd5b7f4e487b7100000000000000000000000000000000000000000000000000000000600052601260045260246000fd5b7f4e487b7100000000000000000000000000000000000000000000000000000000600052602260045260246000fd5b7f4e487b7100000000000000000000000000000000000000000000000000000000600052604160045260246000fd5b6000601f19601f8301169050919050565b615ee981615c7b565b8114615ef457600080fd5b50565b615f0081615c8d565b8114615f0b57600080fd5b50565b615f1781615c99565b8114615f2257600080fd5b50565b615f2e81615ce5565b8114615f3957600080fd5b5056fea2646970667358221220e8a3ac1165473c90d42c579a2bdbbc3ba6caa5ddc6c3cdab249c149ac465569564736f6c63430008000033",
  "immutableReferences": {},
  "source": "// SPDX-License-Identifier: MIT\npragma solidity >=0.6.0;\n\nimport \"@openzeppelin/contracts/token/ERC721/ERC721.sol\";\nimport \"@openzeppelin/contracts/access/Ownable.sol\";\nimport \"@openzeppelin/contracts/utils/Counters.sol\";\n\ncontract GreenBond is ERC721, Ownable {\n    using Counters for Counters.Counter;\n\n    // MODIFIERS\n    /**\n     * @dev Reverts if bidding time is not open\n     */\n    modifier onlyWhileBiddingWindowOpen {\n        require(biddingWindowisOpen(), \"Investment window is not open\");\n        _;\n    }\n\n    /**\n     * @dev Reverts if bidding time is still open\n     */\n    modifier onlyWhileBiddingWindowClosed {\n        require(!biddingWindowisOpen(), \"Investment window is still open\");\n        _;\n    }\n\n    /**\n     * @dev Modifier to make a function callable only when the contract is not paused.\n     */\n    modifier whenNotPaused() {\n        require(!_paused, \"Pausable: paused\");\n        _;\n    }\n\n    /**\n     * @dev Modifier to make a function callable only when the contract is paused.\n     */\n    modifier whenPaused() {\n        require(_paused, \"Pausable: not paused\");\n        _;\n    }\n\n    // MEMBER VARIABLES\n    \n    Counters.Counter private _bondIdTracker;\n    string private _baseBondURI;\n    bool private _paused;\n    // Boolean variable that is only set true if there is enough demand for bond\n    bool private _coupondefined = false;\n    // List of initial investors who have bidded at 'right coupon level'\n    address[] private _initialInvestors;\n    address private _owner;\n    address payable private _company;\n    address private _regulator;\n    uint256 private _value;\n    uint256 private _numberOfBondsSeeked;\n    uint256 private _coupon;\n    uint256 private _minCoupon;\n    uint256 private _maxCoupon;\n    uint256 private _term;\n    uint256 private _totalCouponPayments;\n    uint256 private _couponsPaid = 0; // Zero in the beginning\n    uint256 private _totalDebt;\n    uint256 private _bidClosingTime;\n    uint256 private _issueDate;\n    uint256 private _maturityDate;\n    uint256 private _actualPrincipalPaymentDate = 0; // Initialise to 0\n    uint256 private _couponsPerYear;\n    // Dates for the agreed coupon payments\n    uint256 [] private _couponPaymentDates;\n    // Dates when the actual couons were paid\n    uint256 [] private _actualCouponPaymentDates;\n    \n   \n    mapping(address => uint256) _investedAmountPerInvestor;\n    mapping(address => uint256) _requestedBondsPerInvestor;\n\n    mapping (uint256 => uint256) _bidsPerCoupon;\n    mapping (uint256 => address[]) _investorListAtCouponLevel;\n    mapping (address => mapping(uint256 => uint256)) _bidsPerInvestorAtCouponLevel;\n    mapping (address => bool) _biddedInvestors;\n    \n\n\n    /**\n     * @dev Emitted when an investor registers initial investment request\n     */\n    event Investment(address investor, uint256 value, uint256 numberOfBonds);\n\n    /**\n     * @dev Emitted when coins are refunded to the investor in case there are\n            too many coins for the investment or to the company if they pay too much \n            with coupons / principal repayment\n     */\n    event CoinRefund(address account, uint256 value);\n\n    /**\n     * @dev Emitted when a coupon payment has been made\n     */\n    event CouponPayment(address investor, uint256 bondId);\n\n    /**\n     * @dev Emitted when the pause is triggered by a pauser (regulator).\n     */\n    event Paused(address account);\n\n    /**\n     * @dev Emitted when the pause is lifted by a pauser (regulator).\n     */\n    event Unpaused(address account);\n\n    /**\n     * @dev Emmitted when coupon payment is adjusted\n     */\n    event CouponAdjustment(address adjuster, uint256 couponRate);\n \n\n    event CouponSet(uint256 coupon);\n    event CancelBondIssue(uint256 actualDemand, uint256 requestedDemand);\n    event Bid(address bidder, uint256 coupon, uint256 numberOfBonds);\n\n    /**\n     * @dev constructor, requires name and symbol for the bond,\n     * base URI for metadata, company address, facevalue for one bond / min investment\n     * coupon amount, investment window closing time\n     */\n    constructor(\n        address company,\n        string memory name,\n        string memory symbol,\n        uint numberOfBondsSeeked,\n        uint256 minCoupon,\n        uint256 maxCoupon,\n        uint256 bidClosingTime,\n        uint256 term,\n        uint256 couponsPerYear,\n        string memory baseBondURI,\n        address regulator\n    ) ERC721(name, symbol) {\n        require(company != address(0), \"Company address can not be 0x0\");\n        require(minCoupon >= 0, \"coupon can't be negative\");\n        require(maxCoupon > minCoupon,\"max coupon needs to be greater than min coupon\");\n        require(bidClosingTime > block.timestamp, \"Closing time can't be in the past\");\n        _owner = msg.sender;\n        _baseBondURI = baseBondURI;\n        _company = payable(company);\n        _regulator = regulator;\n        _value = 100; // Face value default at 100\n        _numberOfBondsSeeked = numberOfBondsSeeked;\n        _coupon = 0;\n        _minCoupon = minCoupon;\n        _maxCoupon = maxCoupon;\n        _paused = false;\n        _bidClosingTime = bidClosingTime;\n        _issueDate = _bidClosingTime + 1 weeks;\n        _term = term;\n        _couponsPerYear = couponsPerYear;\n        _totalCouponPayments = couponsPerYear * term;\n        \n        _maturityDate = _issueDate + term * 365 days;\n\n        uint256 timeBetweenpayments = 365 days / couponsPerYear;\n        \n        // Setting up the coupon payment dates\n        for (uint i = 1; i <= _totalCouponPayments; i++) {\n            _couponPaymentDates.push(_issueDate + timeBetweenpayments * i);\n            _actualCouponPaymentDates.push(0);\n        }    \n    }\n\n\n    // Getter functions\n\n    function getBidClosingTime() external view returns (uint256) {\n        return _bidClosingTime;\n    }\n\n    function getIssueDate() public view returns (uint256) {\n        return _issueDate;\n    }\n\n    function getMaturityDate() public view returns (uint256) {\n        return _maturityDate;\n    }\n\n    function getTerm() public view returns (uint256) {\n        return _term;\n    }\n    \n    function getCouponDate(uint256 number) public view returns (uint256) {\n        require(number > 0 && number <= _totalCouponPayments, \"No such coupon payment, check the number of coupon payments\");\n        return _couponPaymentDates[number - 1];\n    }\n\n    function getCouponDates() public view returns (uint256 [] memory) {\n        return _couponPaymentDates;\n    }\n\n    function getCompany() public view returns (address) {\n        return _company;\n    }\n\n    function getRegulator() public view returns (address) {\n        return _regulator;\n    }\n\n    \n    function getFaceValue() public view returns (uint256) {\n        return _value;\n    }\n\n    // TESTING PRICE\n    function getCurrentPrice() public view returns(uint256) {\n        return _value - _coupon * _couponsPaid;\n    }\n\n    function getCoupon() public view returns (uint256) {\n        return _coupon;\n    }\n\n    function getMinCoupon() public view returns (uint256) {\n        return _minCoupon;\n    }\n\n    function getMaxCoupon() public view returns (uint256) {\n        return _maxCoupon;\n    }\n\n    function getTotalDebt() public view returns (uint256) {\n        return _totalDebt;\n    }\n\n    function numberOfInvestors() public view returns (uint256) {\n        return _initialInvestors.length;\n    }\n\n    function bondCount() public view returns (uint256) {\n        return _bondIdTracker.current();\n    }\n\n    function getName() public view returns (string memory) {\n        return name();\n    }\n\n    function _baseURI() internal view override returns (string memory) {\n        return _baseBondURI;\n    }\n\n    \n    function getInvestedAmountPerInvestor(address investor) external view returns (uint256) {\n        return _investedAmountPerInvestor[investor];\n    }\n\n    // Needed to override this function as two parent classes defined the same function\n    function supportsInterface(bytes4 interfaceId)\n        public\n        view\n        virtual\n        override(ERC721)\n        returns (bool)\n    {\n        return super.supportsInterface(interfaceId);\n    }\n   \n\n    // Function for investors to register their bids\n    function registerBid(uint256 coupon, uint256 numberOfBonds) external payable onlyWhileBiddingWindowOpen {\n        require(coupon >= _minCoupon && coupon <= _maxCoupon, \"Coupon needs to be between the set range\");\n        require(msg.value >= _value * numberOfBonds, \"Not enough coins deposited for the bid\");\n        require(_biddedInvestors[msg.sender] == false, \"Only one bid per investor\");\n        \n        _biddedInvestors[msg.sender] = true;\n        _requestedBondsPerInvestor[msg.sender] = numberOfBonds;\n\n        // Update the demand for the coupon level\n        uint256 currentDemand = _bidsPerCoupon[coupon];\n        _bidsPerCoupon[coupon] = currentDemand + numberOfBonds;\n\n        // Add the investor to the list if not already on the list\n        uint256 currentAmountInvested = _bidsPerInvestorAtCouponLevel[msg.sender][coupon];\n        if(currentAmountInvested == 0) {\n            _investorListAtCouponLevel[coupon].push(msg.sender);\n        }\n\n        // Update the mapping\n        _bidsPerInvestorAtCouponLevel[msg.sender][coupon] = numberOfBonds + currentAmountInvested;\n\n        _investedAmountPerInvestor[msg.sender] = _value * numberOfBonds;\n\n        // Emit event\n        emit Bid(msg.sender, coupon, numberOfBonds);\n\n        // Refund if overpaid\n        if(msg.value > _value * numberOfBonds) {\n            uint256 extraAmount = msg.value -\n                _value * numberOfBonds;\n            payable(msg.sender).transfer(extraAmount);\n            emit CoinRefund(msg.sender, extraAmount);\n        }\n        \n    }\n\n\n    \n\n    // Function for issuer to define coupon\n    // Finds the lowest coupon that fullfills the demand\n    // Returns the defined coupon\n    function defineCoupon() public onlyWhileBiddingWindowClosed onlyOwner returns (uint256)  {\n        // Variable for the total demand for tokens\n        uint256 tokenDemand = 0;\n\n        // Iterate each coupon level, and count the token demand to\n        // determine the coupon level which will fulfills the seeked number of bonds\n        for(uint i = _minCoupon; i <= _maxCoupon; i++) {\n            // Increase the tokendemand\n            tokenDemand += _bidsPerCoupon[i];\n            // If enough interest at this coupon level, set coupon and break the loop\n            if (tokenDemand >= _numberOfBondsSeeked) {\n                _coupon = i;\n                break;\n            }\n        }\n\n        if (_coupon > 0) {\n            emit CouponSet(_coupon);\n            _coupondefined = true;\n            setInvestroArray();\n        } else {\n            emit CancelBondIssue(tokenDemand, _numberOfBondsSeeked);\n        } \n\n        // Refund unsuccessful investors\n        refundBiddersFromCouponLevel(_coupon + 1);  \n\n        return _coupon;\n    }\n\n    function setInvestroArray() internal {\n        for (uint i = _minCoupon; i <= _coupon; i++) {\n            address[] memory investors = getBiddersAtCoupon(i);\n            for(uint j = 0; j < investors.length; j++) {\n                _initialInvestors.push(investors[j]);\n            }\n        }\n    }\n\n\n    function getBiddersAtCoupon(uint256 coupon) public view returns (address[] memory) {\n        require(coupon >= _minCoupon && coupon <= _maxCoupon, \"Coupon not in range\");\n        return _investorListAtCouponLevel[coupon];\n    }\n\n    // Function to refund unsuccessful bidders when coupon is defined\n    function refundBiddersFromCouponLevel(uint256 coupon) internal {\n        for (uint i = coupon; i <= _maxCoupon; i++) {\n            address[] memory investors = getBiddersAtCoupon(i);\n            for(uint j = 0; j < investors.length; j++) {\n                address investor = investors[j];\n                uint256 amount = _bidsPerInvestorAtCouponLevel[investor][i];\n                payable(investor).transfer(_value * amount);\n                emit CoinRefund(investor, amount * _value);\n            }\n        }\n    }\n\n\n    // Just for testing \n    function getInvestorBalance(address investor)\n        public\n        view\n        returns (uint256)\n    {\n        require(investor != address(0), \"Balance query for the zero address\");\n        return _investedAmountPerInvestor[investor];\n    }\n\n    // Return true if the investment window is open, false otherwise.\n    function biddingWindowisOpen() public view returns (bool) {\n        return block.timestamp <= _bidClosingTime;\n    }\n\n\n\n    \n    /**\n     * @dev Function to issue bonds for investors who have registered \n        Assumes all investors will get the requested investment\n        Can be called only when investment window is closed and the contract is unpaused\n     */\n\n    \n    function issueBonds() \n        public\n        onlyWhileBiddingWindowClosed\n        whenNotPaused \n        onlyOwner\n    {\n        require(_coupondefined == true, \"can not issue bonds if the coupon has not been defined\");\n        \n        uint256 bondsAvailable = _numberOfBondsSeeked;\n        \n        // Go through the investors\n        for(uint i = 0; i < _initialInvestors.length; i++) {\n            address investor = _initialInvestors[i];\n            uint256 numberOfBonds = _requestedBondsPerInvestor[investor];\n            \n            // If the demanded amount is more than bonds available\n            if(numberOfBonds > bondsAvailable) { \n                 // Transfer the value to company\n                _company.transfer(_value * bondsAvailable);\n                _totalDebt += _value * bondsAvailable;\n\n                for (uint256 j = 0; j < bondsAvailable; j++) {\n                    _mint(investor, _bondIdTracker.current());\n                    _bondIdTracker.increment();\n                }\n\n                // Refund extra amount\n                uint256 balance = _investedAmountPerInvestor[investor];\n                _investedAmountPerInvestor[investor] = balance - _value * bondsAvailable;\n                uint256 refund = _investedAmountPerInvestor[investor];\n                payable(investor).transfer(refund); \n                emit CoinRefund(investor, refund); \n\n                // Set bonds available to 0\n                bondsAvailable = 0;\n\n            // Else, fulfill the whole demans    \n            } else {\n                _company.transfer(_value * numberOfBonds);\n                _totalDebt += _value * numberOfBonds;\n                for (uint j = 0; j < numberOfBonds; j++) {\n                    _mint(investor, _bondIdTracker.current());\n                    _bondIdTracker.increment();  \n                }\n                // Update Investor balance to 0\n                _investedAmountPerInvestor[investor] = 0;\n\n                bondsAvailable -= numberOfBonds;\n            }   \n        }\n    }\n               \n    \n\n     /*\n    function returnInvestorMoney() public whenPaused {\n        require(\n            msg.sender == _regulator,\n            \"Only regulator can return investments\"\n        );\n        for (uint256 i = 0; i < _initialInvestors.length; i++) {\n            address investor = _initialInvestors[i];\n            payable(investor).transfer(_investedAmountPerInvestor[investor]);\n        }\n    }\n\n*/\n    // Function for the borrowing company to pay coupons\n    function payCoupons() public payable {\n        // Message needs to have enough value for the copupon payments\n        require(\n            msg.sender == _company,\n            \"Coupon payment should come from the borrowing company\"\n        );\n        require(\n            msg.value >= _coupon * _bondIdTracker.current(),\n            \"Not enough coins for coupons\"\n        );\n\n        // Prevents company from paying extra coupons\n        require(\n            _couponsPaid < _totalCouponPayments, \n            \"All coupon payments have already been made\"\n        );\n\n\n        for (uint256 i = 0; i < _bondIdTracker.current(); i++) {\n            address payable investor = payable(ownerOf(i));\n            investor.transfer(_coupon);\n            emit CouponPayment(investor, i);\n        }\n\n        // Update coupon payment date\n        _actualCouponPaymentDates[_couponsPaid] = block.timestamp;\n        _couponsPaid++;\n\n        // Refund extra coins if paid too much\n        if (msg.value > _coupon * _bondIdTracker.current()) {\n            uint256 extraAmount = msg.value -\n                _coupon *\n                _bondIdTracker.current();\n            payable(msg.sender).transfer(extraAmount);\n            emit CoinRefund(msg.sender, extraAmount);\n        }\n    }\n\n    function couponPaymentMadeOnTime(uint256 coupon) public view returns (bool) {\n        require(coupon >=1 && coupon <= _totalCouponPayments, \"That coupon does not exists\");\n        require(block.timestamp > _couponPaymentDates[coupon - 1], \"Coupon not due yet\");\n       \n        if (_actualCouponPaymentDates[coupon - 1] == 0) {\n            return false;\n        }\n        // Coupon payment made before or by the agreed data \n        else if (_actualCouponPaymentDates[coupon-1] <= _couponPaymentDates[coupon-1]) {\n            return true;\n        } else {\n            return false;\n        }\n    }\n\n    // This function should be called by the borrowing company\n    function payBackBond() public payable {\n        require(\n            msg.sender == _company,\n            \"Paying company should be the borrowing company\"\n        );\n        require(\n            msg.value >= _totalDebt,\n            \"Not enough coins to settle the bond at maturity\"\n        );\n\n        // Interate through the bonds\n        uint256 numberOfBonds = _bondIdTracker.current();\n        for (uint256 i = 0; i < numberOfBonds; i++) {\n            address payable investor = payable(ownerOf(i));\n            // Transfer bond from investor to owner\n            bondTransfer(investor, _owner, i);\n            // Return funds\n            investor.transfer(_value);\n            // Decrement the values\n            _totalDebt = _totalDebt - _value;\n            _bondIdTracker.decrement();\n        }\n\n        // Set the payment date\n        _actualPrincipalPaymentDate = block.timestamp;\n        \n        // Refund coins there is extra money on the contract\n        if (address(this).balance > 0 && msg.value > _totalDebt) {\n            uint256 extraAmount = msg.value - _totalDebt;\n            if (address(this).balance < extraAmount) {\n                uint256 amount = address(this).balance;\n                payable(msg.sender).transfer(amount);\n                emit CoinRefund(msg.sender, amount);\n            } else {\n                payable(msg.sender).transfer(extraAmount);\n                emit CoinRefund(msg.sender, extraAmount);\n            }\n        }\n        \n    }\n    \n\n    // Checks if the principal amount was paid back on time\n    function principalPaymentMadeOnTime() public view returns (bool) {\n        require(block.timestamp > _maturityDate, \"Bond has not matured yet\");\n        if (_actualPrincipalPaymentDate == 0) {\n            return false;\n        } else if (_actualPrincipalPaymentDate > _maturityDate) {\n            return false;\n        } else {\n            return true;\n        }\n    }\n\n    \n\n    // Internal function to transer the bonds\n    function bondTransfer(\n        address from,\n        address to,\n        uint256 bondId\n    ) internal {\n        _transfer(from, to, bondId);\n    }\n\n    // Pauser functions\n    /**\n     * @dev Returns true if the contract is paused, and false otherwise.\n     */\n    function paused() public view returns (bool) {\n        return _paused;\n    }\n\n    /**\n     * @dev Called by a pauser to pause, triggers stopped state.\n     */\n    function pause() public whenNotPaused {\n        require(msg.sender == _regulator, \"Pauser can only be the regulator\");\n        _paused = true;\n        emit Paused(_msgSender());\n    }\n\n    /**\n     * @dev Called by a pauser to unpause, returns to normal state.\n     */\n    function unpause() public whenPaused {\n        require(msg.sender == _regulator, \"Unpauser can only be the regulator\");\n        _paused = false;\n        emit Unpaused(_msgSender());\n    }\n\n    /**\n     * Function to adjust the coupon\n     */\n    function adjustCoupon(bool increase, uint256 amount) external onlyOwner {\n        if (increase) {\n            _coupon = _coupon + amount;\n        } else {\n            require(amount <= _coupon, \"Coupon payment can't be negative\");\n            _coupon = _coupon - amount;\n        }\n        emit CouponAdjustment(msg.sender, _coupon);\n    }\n}\n",
  "sourcePath": "/Users/leena/Documents/Coding/Blockchain_Green_Bonds/testProjects/OZ_test/contracts/GreenBond.sol",
  "compiler": {
    "name": "solc",
    "version": "0.8.0+commit.c7dfd78e.Emscripten.clang"
  },
  "schemaVersion": "3.4.1",
  "updatedAt": "2021-07-20T08:37:38.857Z",
  "devdoc": {
    "events": {
      "CoinRefund(address,uint256)": {
        "details": "Emitted when coins are refunded to the investor in case there are too many coins for the investment or to the company if they pay too much  with coupons / principal repayment"
      },
      "CouponAdjustment(address,uint256)": {
        "details": "Emmitted when coupon payment is adjusted"
      },
      "CouponPayment(address,uint256)": {
        "details": "Emitted when a coupon payment has been made"
      },
      "Investment(address,uint256,uint256)": {
        "details": "Emitted when an investor registers initial investment request"
      },
      "Paused(address)": {
        "details": "Emitted when the pause is triggered by a pauser (regulator)."
      },
      "Unpaused(address)": {
        "details": "Emitted when the pause is lifted by a pauser (regulator)."
      }
    },
    "kind": "dev",
    "methods": {
      "approve(address,uint256)": {
        "details": "See {IERC721-approve}."
      },
      "balanceOf(address)": {
        "details": "See {IERC721-balanceOf}."
      },
      "constructor": {
        "details": "constructor, requires name and symbol for the bond, base URI for metadata, company address, facevalue for one bond / min investment coupon amount, investment window closing time"
      },
      "getApproved(uint256)": {
        "details": "See {IERC721-getApproved}."
      },
      "isApprovedForAll(address,address)": {
        "details": "See {IERC721-isApprovedForAll}."
      },
      "issueBonds()": {
        "details": "Function to issue bonds for investors who have registered  Assumes all investors will get the requested investment Can be called only when investment window is closed and the contract is unpaused"
      },
      "name()": {
        "details": "See {IERC721Metadata-name}."
      },
      "owner()": {
        "details": "Returns the address of the current owner."
      },
      "ownerOf(uint256)": {
        "details": "See {IERC721-ownerOf}."
      },
      "pause()": {
        "details": "Called by a pauser to pause, triggers stopped state."
      },
      "paused()": {
        "details": "Returns true if the contract is paused, and false otherwise."
      },
      "renounceOwnership()": {
        "details": "Leaves the contract without owner. It will not be possible to call `onlyOwner` functions anymore. Can only be called by the current owner. NOTE: Renouncing ownership will leave the contract without an owner, thereby removing any functionality that is only available to the owner."
      },
      "safeTransferFrom(address,address,uint256)": {
        "details": "See {IERC721-safeTransferFrom}."
      },
      "safeTransferFrom(address,address,uint256,bytes)": {
        "details": "See {IERC721-safeTransferFrom}."
      },
      "setApprovalForAll(address,bool)": {
        "details": "See {IERC721-setApprovalForAll}."
      },
      "supportsInterface(bytes4)": {
        "details": "See {IERC165-supportsInterface}."
      },
      "symbol()": {
        "details": "See {IERC721Metadata-symbol}."
      },
      "tokenURI(uint256)": {
        "details": "See {IERC721Metadata-tokenURI}."
      },
      "transferFrom(address,address,uint256)": {
        "details": "See {IERC721-transferFrom}."
      },
      "transferOwnership(address)": {
        "details": "Transfers ownership of the contract to a new account (`newOwner`). Can only be called by the current owner."
      },
      "unpause()": {
        "details": "Called by a pauser to unpause, returns to normal state."
      }
    },
    "version": 1
  },
  "userdoc": {
    "kind": "user",
    "methods": {
      "adjustCoupon(bool,uint256)": {
        "notice": "Function to adjust the coupon"
      }
    },
    "version": 1
  }
}