{
  "contractName": "GreenBond2",
  "abi": [
    {
      "inputs": [
        {
          "internalType": "address",
          "name": "company",
          "type": "address"
        },
        {
          "internalType": "string",
          "name": "name",
          "type": "string"
        },
        {
          "internalType": "string",
          "name": "symbol",
          "type": "string"
        },
        {
          "internalType": "uint256",
          "name": "numberOfBondsSeeked",
          "type": "uint256"
        },
        {
          "internalType": "uint256",
          "name": "minCoupon",
          "type": "uint256"
        },
        {
          "internalType": "uint256",
          "name": "maxCoupon",
          "type": "uint256"
        },
        {
          "internalType": "uint256",
          "name": "bidClosingTime",
          "type": "uint256"
        },
        {
          "internalType": "uint256",
          "name": "term",
          "type": "uint256"
        },
        {
          "internalType": "uint256",
          "name": "couponsPerYear",
          "type": "uint256"
        },
        {
          "internalType": "string",
          "name": "baseBondURI",
          "type": "string"
        }
      ],
      "stateMutability": "nonpayable",
      "type": "constructor"
    },
    {
      "anonymous": false,
      "inputs": [
        {
          "indexed": true,
          "internalType": "address",
          "name": "owner",
          "type": "address"
        },
        {
          "indexed": true,
          "internalType": "address",
          "name": "approved",
          "type": "address"
        },
        {
          "indexed": true,
          "internalType": "uint256",
          "name": "tokenId",
          "type": "uint256"
        }
      ],
      "name": "Approval",
      "type": "event"
    },
    {
      "anonymous": false,
      "inputs": [
        {
          "indexed": true,
          "internalType": "address",
          "name": "owner",
          "type": "address"
        },
        {
          "indexed": true,
          "internalType": "address",
          "name": "operator",
          "type": "address"
        },
        {
          "indexed": false,
          "internalType": "bool",
          "name": "approved",
          "type": "bool"
        }
      ],
      "name": "ApprovalForAll",
      "type": "event"
    },
    {
      "anonymous": false,
      "inputs": [
        {
          "indexed": false,
          "internalType": "address",
          "name": "bidder",
          "type": "address"
        },
        {
          "indexed": false,
          "internalType": "uint256",
          "name": "coupon",
          "type": "uint256"
        },
        {
          "indexed": false,
          "internalType": "uint256",
          "name": "numberOfBonds",
          "type": "uint256"
        }
      ],
      "name": "Bid",
      "type": "event"
    },
    {
      "anonymous": false,
      "inputs": [
        {
          "indexed": false,
          "internalType": "uint256",
          "name": "actualDemand",
          "type": "uint256"
        },
        {
          "indexed": false,
          "internalType": "uint256",
          "name": "requestedDemand",
          "type": "uint256"
        }
      ],
      "name": "CancelBondIssue",
      "type": "event"
    },
    {
      "anonymous": false,
      "inputs": [
        {
          "indexed": false,
          "internalType": "address",
          "name": "account",
          "type": "address"
        },
        {
          "indexed": false,
          "internalType": "uint256",
          "name": "value",
          "type": "uint256"
        }
      ],
      "name": "CoinRefund",
      "type": "event"
    },
    {
      "anonymous": false,
      "inputs": [
        {
          "indexed": false,
          "internalType": "uint256",
          "name": "from",
          "type": "uint256"
        },
        {
          "indexed": false,
          "internalType": "uint256",
          "name": "to",
          "type": "uint256"
        }
      ],
      "name": "CouponAdjustment",
      "type": "event"
    },
    {
      "anonymous": false,
      "inputs": [
        {
          "indexed": false,
          "internalType": "address",
          "name": "investor",
          "type": "address"
        },
        {
          "indexed": false,
          "internalType": "uint256",
          "name": "bondId",
          "type": "uint256"
        }
      ],
      "name": "CouponPayment",
      "type": "event"
    },
    {
      "anonymous": false,
      "inputs": [
        {
          "indexed": false,
          "internalType": "uint256",
          "name": "coupon",
          "type": "uint256"
        }
      ],
      "name": "CouponSet",
      "type": "event"
    },
    {
      "anonymous": false,
      "inputs": [
        {
          "indexed": false,
          "internalType": "address",
          "name": "investor",
          "type": "address"
        },
        {
          "indexed": false,
          "internalType": "uint256",
          "name": "value",
          "type": "uint256"
        },
        {
          "indexed": false,
          "internalType": "uint256",
          "name": "numberOfBonds",
          "type": "uint256"
        }
      ],
      "name": "Investment",
      "type": "event"
    },
    {
      "anonymous": false,
      "inputs": [
        {
          "indexed": true,
          "internalType": "address",
          "name": "previousOwner",
          "type": "address"
        },
        {
          "indexed": true,
          "internalType": "address",
          "name": "newOwner",
          "type": "address"
        }
      ],
      "name": "OwnershipTransferred",
      "type": "event"
    },
    {
      "anonymous": false,
      "inputs": [
        {
          "indexed": true,
          "internalType": "address",
          "name": "from",
          "type": "address"
        },
        {
          "indexed": true,
          "internalType": "address",
          "name": "to",
          "type": "address"
        },
        {
          "indexed": true,
          "internalType": "uint256",
          "name": "tokenId",
          "type": "uint256"
        }
      ],
      "name": "Transfer",
      "type": "event"
    },
    {
      "inputs": [
        {
          "internalType": "address",
          "name": "to",
          "type": "address"
        },
        {
          "internalType": "uint256",
          "name": "tokenId",
          "type": "uint256"
        }
      ],
      "name": "approve",
      "outputs": [],
      "stateMutability": "nonpayable",
      "type": "function"
    },
    {
      "inputs": [
        {
          "internalType": "address",
          "name": "owner",
          "type": "address"
        }
      ],
      "name": "balanceOf",
      "outputs": [
        {
          "internalType": "uint256",
          "name": "",
          "type": "uint256"
        }
      ],
      "stateMutability": "view",
      "type": "function",
      "constant": true
    },
    {
      "inputs": [
        {
          "internalType": "uint256",
          "name": "tokenId",
          "type": "uint256"
        }
      ],
      "name": "getApproved",
      "outputs": [
        {
          "internalType": "address",
          "name": "",
          "type": "address"
        }
      ],
      "stateMutability": "view",
      "type": "function",
      "constant": true
    },
    {
      "inputs": [
        {
          "internalType": "address",
          "name": "owner",
          "type": "address"
        },
        {
          "internalType": "address",
          "name": "operator",
          "type": "address"
        }
      ],
      "name": "isApprovedForAll",
      "outputs": [
        {
          "internalType": "bool",
          "name": "",
          "type": "bool"
        }
      ],
      "stateMutability": "view",
      "type": "function",
      "constant": true
    },
    {
      "inputs": [],
      "name": "name",
      "outputs": [
        {
          "internalType": "string",
          "name": "",
          "type": "string"
        }
      ],
      "stateMutability": "view",
      "type": "function",
      "constant": true
    },
    {
      "inputs": [],
      "name": "owner",
      "outputs": [
        {
          "internalType": "address",
          "name": "",
          "type": "address"
        }
      ],
      "stateMutability": "view",
      "type": "function",
      "constant": true
    },
    {
      "inputs": [
        {
          "internalType": "uint256",
          "name": "tokenId",
          "type": "uint256"
        }
      ],
      "name": "ownerOf",
      "outputs": [
        {
          "internalType": "address",
          "name": "",
          "type": "address"
        }
      ],
      "stateMutability": "view",
      "type": "function",
      "constant": true
    },
    {
      "inputs": [],
      "name": "renounceOwnership",
      "outputs": [],
      "stateMutability": "nonpayable",
      "type": "function"
    },
    {
      "inputs": [
        {
          "internalType": "address",
          "name": "from",
          "type": "address"
        },
        {
          "internalType": "address",
          "name": "to",
          "type": "address"
        },
        {
          "internalType": "uint256",
          "name": "tokenId",
          "type": "uint256"
        }
      ],
      "name": "safeTransferFrom",
      "outputs": [],
      "stateMutability": "nonpayable",
      "type": "function"
    },
    {
      "inputs": [
        {
          "internalType": "address",
          "name": "from",
          "type": "address"
        },
        {
          "internalType": "address",
          "name": "to",
          "type": "address"
        },
        {
          "internalType": "uint256",
          "name": "tokenId",
          "type": "uint256"
        },
        {
          "internalType": "bytes",
          "name": "_data",
          "type": "bytes"
        }
      ],
      "name": "safeTransferFrom",
      "outputs": [],
      "stateMutability": "nonpayable",
      "type": "function"
    },
    {
      "inputs": [
        {
          "internalType": "address",
          "name": "operator",
          "type": "address"
        },
        {
          "internalType": "bool",
          "name": "approved",
          "type": "bool"
        }
      ],
      "name": "setApprovalForAll",
      "outputs": [],
      "stateMutability": "nonpayable",
      "type": "function"
    },
    {
      "inputs": [],
      "name": "symbol",
      "outputs": [
        {
          "internalType": "string",
          "name": "",
          "type": "string"
        }
      ],
      "stateMutability": "view",
      "type": "function",
      "constant": true
    },
    {
      "inputs": [
        {
          "internalType": "uint256",
          "name": "tokenId",
          "type": "uint256"
        }
      ],
      "name": "tokenURI",
      "outputs": [
        {
          "internalType": "string",
          "name": "",
          "type": "string"
        }
      ],
      "stateMutability": "view",
      "type": "function",
      "constant": true
    },
    {
      "inputs": [
        {
          "internalType": "address",
          "name": "from",
          "type": "address"
        },
        {
          "internalType": "address",
          "name": "to",
          "type": "address"
        },
        {
          "internalType": "uint256",
          "name": "tokenId",
          "type": "uint256"
        }
      ],
      "name": "transferFrom",
      "outputs": [],
      "stateMutability": "nonpayable",
      "type": "function"
    },
    {
      "inputs": [
        {
          "internalType": "address",
          "name": "newOwner",
          "type": "address"
        }
      ],
      "name": "transferOwnership",
      "outputs": [],
      "stateMutability": "nonpayable",
      "type": "function"
    },
    {
      "inputs": [],
      "name": "couponDefined",
      "outputs": [
        {
          "internalType": "bool",
          "name": "",
          "type": "bool"
        }
      ],
      "stateMutability": "view",
      "type": "function",
      "constant": true
    },
    {
      "inputs": [],
      "name": "cancelled",
      "outputs": [
        {
          "internalType": "bool",
          "name": "",
          "type": "bool"
        }
      ],
      "stateMutability": "view",
      "type": "function",
      "constant": true
    },
    {
      "inputs": [],
      "name": "getCompany",
      "outputs": [
        {
          "internalType": "address",
          "name": "",
          "type": "address"
        }
      ],
      "stateMutability": "view",
      "type": "function",
      "constant": true
    },
    {
      "inputs": [],
      "name": "getFaceValue",
      "outputs": [
        {
          "internalType": "uint256",
          "name": "",
          "type": "uint256"
        }
      ],
      "stateMutability": "view",
      "type": "function",
      "constant": true
    },
    {
      "inputs": [],
      "name": "getName",
      "outputs": [
        {
          "internalType": "string",
          "name": "",
          "type": "string"
        }
      ],
      "stateMutability": "view",
      "type": "function",
      "constant": true
    },
    {
      "inputs": [],
      "name": "getNumberOfBondsSeeked",
      "outputs": [
        {
          "internalType": "uint256",
          "name": "",
          "type": "uint256"
        }
      ],
      "stateMutability": "view",
      "type": "function",
      "constant": true
    },
    {
      "inputs": [],
      "name": "getCoupon",
      "outputs": [
        {
          "internalType": "uint256",
          "name": "",
          "type": "uint256"
        }
      ],
      "stateMutability": "view",
      "type": "function",
      "constant": true
    },
    {
      "inputs": [],
      "name": "getMinCoupon",
      "outputs": [
        {
          "internalType": "uint256",
          "name": "",
          "type": "uint256"
        }
      ],
      "stateMutability": "view",
      "type": "function",
      "constant": true
    },
    {
      "inputs": [],
      "name": "getMaxCoupon",
      "outputs": [
        {
          "internalType": "uint256",
          "name": "",
          "type": "uint256"
        }
      ],
      "stateMutability": "view",
      "type": "function",
      "constant": true
    },
    {
      "inputs": [],
      "name": "getTerm",
      "outputs": [
        {
          "internalType": "uint256",
          "name": "",
          "type": "uint256"
        }
      ],
      "stateMutability": "view",
      "type": "function",
      "constant": true
    },
    {
      "inputs": [],
      "name": "getTotalDebt",
      "outputs": [
        {
          "internalType": "uint256",
          "name": "",
          "type": "uint256"
        }
      ],
      "stateMutability": "view",
      "type": "function",
      "constant": true
    },
    {
      "inputs": [],
      "name": "getBidClosingTime",
      "outputs": [
        {
          "internalType": "uint256",
          "name": "",
          "type": "uint256"
        }
      ],
      "stateMutability": "view",
      "type": "function",
      "constant": true
    },
    {
      "inputs": [],
      "name": "getIssueDate",
      "outputs": [
        {
          "internalType": "uint256",
          "name": "",
          "type": "uint256"
        }
      ],
      "stateMutability": "view",
      "type": "function",
      "constant": true
    },
    {
      "inputs": [],
      "name": "getMaturityDate",
      "outputs": [
        {
          "internalType": "uint256",
          "name": "",
          "type": "uint256"
        }
      ],
      "stateMutability": "view",
      "type": "function",
      "constant": true
    },
    {
      "inputs": [
        {
          "internalType": "uint256",
          "name": "number",
          "type": "uint256"
        }
      ],
      "name": "getCouponDate",
      "outputs": [
        {
          "internalType": "uint256",
          "name": "",
          "type": "uint256"
        }
      ],
      "stateMutability": "view",
      "type": "function",
      "constant": true
    },
    {
      "inputs": [
        {
          "internalType": "uint256",
          "name": "number",
          "type": "uint256"
        }
      ],
      "name": "getActualCouponDate",
      "outputs": [
        {
          "internalType": "uint256",
          "name": "",
          "type": "uint256"
        }
      ],
      "stateMutability": "view",
      "type": "function",
      "constant": true
    },
    {
      "inputs": [],
      "name": "getCouponDates",
      "outputs": [
        {
          "internalType": "uint256[]",
          "name": "",
          "type": "uint256[]"
        }
      ],
      "stateMutability": "view",
      "type": "function",
      "constant": true
    },
    {
      "inputs": [],
      "name": "getActualPricipalPaymentDate",
      "outputs": [
        {
          "internalType": "uint256",
          "name": "",
          "type": "uint256"
        }
      ],
      "stateMutability": "view",
      "type": "function",
      "constant": true
    },
    {
      "inputs": [],
      "name": "numberOfInvestors",
      "outputs": [
        {
          "internalType": "uint256",
          "name": "",
          "type": "uint256"
        }
      ],
      "stateMutability": "view",
      "type": "function",
      "constant": true
    },
    {
      "inputs": [],
      "name": "bondCount",
      "outputs": [
        {
          "internalType": "uint256",
          "name": "",
          "type": "uint256"
        }
      ],
      "stateMutability": "view",
      "type": "function",
      "constant": true
    },
    {
      "inputs": [
        {
          "internalType": "address",
          "name": "investor",
          "type": "address"
        }
      ],
      "name": "getInvestedAmountPerInvestor",
      "outputs": [
        {
          "internalType": "uint256",
          "name": "",
          "type": "uint256"
        }
      ],
      "stateMutability": "view",
      "type": "function",
      "constant": true
    },
    {
      "inputs": [
        {
          "internalType": "address",
          "name": "investor",
          "type": "address"
        }
      ],
      "name": "getRequestedBondsPerInvestor",
      "outputs": [
        {
          "internalType": "uint256",
          "name": "",
          "type": "uint256"
        }
      ],
      "stateMutability": "view",
      "type": "function",
      "constant": true
    },
    {
      "inputs": [
        {
          "internalType": "address",
          "name": "investor",
          "type": "address"
        }
      ],
      "name": "getCouponPerInvestor",
      "outputs": [
        {
          "internalType": "uint256",
          "name": "",
          "type": "uint256"
        }
      ],
      "stateMutability": "view",
      "type": "function",
      "constant": true
    },
    {
      "inputs": [
        {
          "internalType": "bytes4",
          "name": "interfaceId",
          "type": "bytes4"
        }
      ],
      "name": "supportsInterface",
      "outputs": [
        {
          "internalType": "bool",
          "name": "",
          "type": "bool"
        }
      ],
      "stateMutability": "view",
      "type": "function",
      "constant": true
    },
    {
      "inputs": [
        {
          "internalType": "uint256",
          "name": "coupon",
          "type": "uint256"
        },
        {
          "internalType": "uint256",
          "name": "numberOfBonds",
          "type": "uint256"
        }
      ],
      "name": "registerBid",
      "outputs": [],
      "stateMutability": "payable",
      "type": "function",
      "payable": true
    },
    {
      "inputs": [],
      "name": "defineCoupon",
      "outputs": [
        {
          "internalType": "uint256",
          "name": "",
          "type": "uint256"
        }
      ],
      "stateMutability": "nonpayable",
      "type": "function"
    },
    {
      "inputs": [
        {
          "internalType": "uint256",
          "name": "coupon",
          "type": "uint256"
        }
      ],
      "name": "getBiddersAtCoupon",
      "outputs": [
        {
          "internalType": "address[]",
          "name": "",
          "type": "address[]"
        }
      ],
      "stateMutability": "view",
      "type": "function",
      "constant": true
    },
    {
      "inputs": [],
      "name": "getNumberOfCouponsPaid",
      "outputs": [
        {
          "internalType": "uint256",
          "name": "",
          "type": "uint256"
        }
      ],
      "stateMutability": "view",
      "type": "function",
      "constant": true
    },
    {
      "inputs": [],
      "name": "getNumberOfCoupons",
      "outputs": [
        {
          "internalType": "uint256",
          "name": "",
          "type": "uint256"
        }
      ],
      "stateMutability": "view",
      "type": "function",
      "constant": true
    },
    {
      "inputs": [
        {
          "internalType": "address",
          "name": "investor",
          "type": "address"
        }
      ],
      "name": "getInvestorBalance",
      "outputs": [
        {
          "internalType": "uint256",
          "name": "",
          "type": "uint256"
        }
      ],
      "stateMutability": "view",
      "type": "function",
      "constant": true
    },
    {
      "inputs": [],
      "name": "biddingWindowisOpen",
      "outputs": [
        {
          "internalType": "bool",
          "name": "",
          "type": "bool"
        }
      ],
      "stateMutability": "view",
      "type": "function",
      "constant": true
    },
    {
      "inputs": [],
      "name": "issueBonds",
      "outputs": [],
      "stateMutability": "nonpayable",
      "type": "function"
    },
    {
      "inputs": [],
      "name": "payCoupons",
      "outputs": [],
      "stateMutability": "payable",
      "type": "function",
      "payable": true
    },
    {
      "inputs": [
        {
          "internalType": "uint256",
          "name": "coupon",
          "type": "uint256"
        }
      ],
      "name": "couponPaymentOnTime",
      "outputs": [
        {
          "internalType": "string",
          "name": "",
          "type": "string"
        }
      ],
      "stateMutability": "view",
      "type": "function",
      "constant": true
    },
    {
      "inputs": [],
      "name": "payBackBond",
      "outputs": [],
      "stateMutability": "payable",
      "type": "function",
      "payable": true
    },
    {
      "inputs": [],
      "name": "principalPaidOnTime",
      "outputs": [
        {
          "internalType": "string",
          "name": "",
          "type": "string"
        }
      ],
      "stateMutability": "view",
      "type": "function",
      "constant": true
    },
    {
      "inputs": [
        {
          "internalType": "bool",
          "name": "increase",
          "type": "bool"
        },
        {
          "internalType": "uint256",
          "name": "amount",
          "type": "uint256"
        }
      ],
      "name": "adjustCoupon",
      "outputs": [],
      "stateMutability": "nonpayable",
      "type": "function"
    }
  ],
  "bytecode": "0x60806040526000600960006101000a81548160ff0219169083151502179055506000600960016101000a81548160ff021916908315150217905550600060145560006019553480156200005157600080fd5b5060405162006b6d38038062006b6d8339818101604052810190620000779190620005e1565b888881600090805190602001906200009192919062000491565b508060019080519060200190620000aa92919062000491565b5050506000620000bf6200048960201b60201c565b905080600660006101000a81548173ffffffffffffffffffffffffffffffffffffffff021916908373ffffffffffffffffffffffffffffffffffffffff1602179055508073ffffffffffffffffffffffffffffffffffffffff16600073ffffffffffffffffffffffffffffffffffffffff167f8be0079c531659141344cd1fd0a4f28419497f9722a3daafe3b4186f6b6457e060405160405180910390a350600073ffffffffffffffffffffffffffffffffffffffff168a73ffffffffffffffffffffffffffffffffffffffff161415620001d1576040517f08c379a0000000000000000000000000000000000000000000000000000000008152600401620001c890620008d6565b60405180910390fd5b600086101562000218576040517f08c379a00000000000000000000000000000000000000000000000000000000081526004016200020f9062000870565b60405180910390fd5b8585116200025d576040517f08c379a00000000000000000000000000000000000000000000000000000000081526004016200025490620008b4565b60405180910390fd5b428411620002a2576040517f08c379a0000000000000000000000000000000000000000000000000000000008152600401620002999062000892565b60405180910390fd5b33600b60006101000a81548173ffffffffffffffffffffffffffffffffffffffff021916908373ffffffffffffffffffffffffffffffffffffffff1602179055508060089080519060200190620002fb92919062000491565b5089600c60006101000a81548173ffffffffffffffffffffffffffffffffffffffff021916908373ffffffffffffffffffffffffffffffffffffffff1602179055506064600d8190555086600e819055506000600f8190555085601081905550846011819055508360168190555062093a806016546200037c919062000970565b6017819055508260128190555081601a8190555082826200039e919062000a05565b6013819055506301e1338083620003b6919062000a05565b601754620003c5919062000970565b6018819055506000826301e13380620003df9190620009cd565b90506000600190505b60135481116200047757601b818362000402919062000a05565b60175462000411919062000970565b9080600181540180825580915050600190039060005260206000200160009091909190915055601c6000908060018154018082558091505060019003906000526020600020016000909190919091505580806200046e9062000b10565b915050620003e8565b50505050505050505050505062000c4e565b600033905090565b8280546200049f9062000ada565b90600052602060002090601f016020900481019282620004c357600085556200050f565b82601f10620004de57805160ff19168380011785556200050f565b828001600101855582156200050f579182015b828111156200050e578251825591602001919060010190620004f1565b5b5090506200051e919062000522565b5090565b5b808211156200053d57600081600090555060010162000523565b5090565b60006200055862000552846200092c565b620008f8565b9050828152602081018484840111156200057157600080fd5b6200057e84828562000aa4565b509392505050565b600081519050620005978162000c1a565b92915050565b600082601f830112620005af57600080fd5b8151620005c184826020860162000541565b91505092915050565b600081519050620005db8162000c34565b92915050565b6000806000806000806000806000806101408b8d0312156200060257600080fd5b6000620006128d828e0162000586565b9a505060208b015167ffffffffffffffff8111156200063057600080fd5b6200063e8d828e016200059d565b99505060408b015167ffffffffffffffff8111156200065c57600080fd5b6200066a8d828e016200059d565b98505060606200067d8d828e01620005ca565b9750506080620006908d828e01620005ca565b96505060a0620006a38d828e01620005ca565b95505060c0620006b68d828e01620005ca565b94505060e0620006c98d828e01620005ca565b935050610100620006dd8d828e01620005ca565b9250506101208b015167ffffffffffffffff811115620006fc57600080fd5b6200070a8d828e016200059d565b9150509295989b9194979a5092959850565b60006200072b6018836200095f565b91507f636f75706f6e2063616e2774206265206e6567617469766500000000000000006000830152602082019050919050565b60006200076d6021836200095f565b91507f436c6f73696e672074696d652063616e277420626520696e207468652070617360008301527f74000000000000000000000000000000000000000000000000000000000000006020830152604082019050919050565b6000620007d5602e836200095f565b91507f6d617820636f75706f6e206e6565647320746f2062652067726561746572207460008301527f68616e206d696e20636f75706f6e0000000000000000000000000000000000006020830152604082019050919050565b60006200083d601e836200095f565b91507f436f6d70616e7920616464726573732063616e206e6f742062652030783000006000830152602082019050919050565b600060208201905081810360008301526200088b816200071c565b9050919050565b60006020820190508181036000830152620008ad816200075e565b9050919050565b60006020820190508181036000830152620008cf81620007c6565b9050919050565b60006020820190508181036000830152620008f1816200082e565b9050919050565b6000604051905081810181811067ffffffffffffffff8211171562000922576200092162000beb565b5b8060405250919050565b600067ffffffffffffffff8211156200094a576200094962000beb565b5b601f19601f8301169050602081019050919050565b600082825260208201905092915050565b60006200097d8262000a9a565b91506200098a8362000a9a565b9250827fffffffffffffffffffffffffffffffffffffffffffffffffffffffffffffffff03821115620009c257620009c162000b5e565b5b828201905092915050565b6000620009da8262000a9a565b9150620009e78362000a9a565b925082620009fa57620009f962000b8d565b5b828204905092915050565b600062000a128262000a9a565b915062000a1f8362000a9a565b9250817fffffffffffffffffffffffffffffffffffffffffffffffffffffffffffffffff048311821515161562000a5b5762000a5a62000b5e565b5b828202905092915050565b600062000a738262000a7a565b9050919050565b600073ffffffffffffffffffffffffffffffffffffffff82169050919050565b6000819050919050565b60005b8381101562000ac457808201518184015260208101905062000aa7565b8381111562000ad4576000848401525b50505050565b6000600282049050600182168062000af357607f821691505b6020821081141562000b0a5762000b0962000bbc565b5b50919050565b600062000b1d8262000a9a565b91507fffffffffffffffffffffffffffffffffffffffffffffffffffffffffffffffff82141562000b535762000b5262000b5e565b5b600182019050919050565b7f4e487b7100000000000000000000000000000000000000000000000000000000600052601160045260246000fd5b7f4e487b7100000000000000000000000000000000000000000000000000000000600052601260045260246000fd5b7f4e487b7100000000000000000000000000000000000000000000000000000000600052602260045260246000fd5b7f4e487b7100000000000000000000000000000000000000000000000000000000600052604160045260246000fd5b62000c258162000a66565b811462000c3157600080fd5b50565b62000c3f8162000a9a565b811462000c4b57600080fd5b50565b615f0f8062000c5e6000396000f3fe6080604052600436106102ff5760003560e01c8063715018a611610190578063b88d4fde116100dc578063ccc716ab11610095578063e985e9c51161006f578063e985e9c514610b69578063ec18efc414610ba6578063efd8672914610be3578063f2fde38b14610c0c576102ff565b8063ccc716ab14610ae8578063d24f84b114610b13578063d4fc7cd914610b3e576102ff565b8063b88d4fde146109c4578063bc3ada9c146109ed578063bfa2a5a414610a2a578063c6b1013414610a55578063c74584a614610a80578063c87b56dd14610aab576102ff565b806395d89b41116101495780639afbb5a0116101235780639afbb5a0146108e4578063a22cb46514610921578063ab20df011461094a578063b0603ec214610987576102ff565b806395d89b41146108635780639737fcff1461088e5780639a82a09a146108b9576102ff565b8063715018a6146107755780637edd13c51461078c5780638da5cb5b146107b75780638edd4d24146107e2578063915dd0361461080d578063924091dc14610838576102ff565b80631f3885a71161024f5780634cff6c0e1161020857806361c49ebf116101e257806361c49ebf146106b95780636352211e146106d05780636f3ed9d71461070d57806370a0823114610738576102ff565b80634cff6c0e146106475780635de9f20a146106515780635ea639131461067c576102ff565b80631f3885a71461056a57806323b872dd1461059557806334ce998a146105be57806334f56f8c146105e957806342842e0e146106145780634a5138011461063d576102ff565b80630eebfec7116102bc57806317171e141161029657806317171e14146104ac57806317d7de7c146104d75780631af2c9fd146105025780631e1a01241461052d576102ff565b80630eebfec714610419578063124b65b414610456578063127810bc14610481576102ff565b806301ffc9a71461030457806306fdde031461034157806307634cbe1461036c578063081812fc14610397578063095ea7b3146103d45780630c364957146103fd575b600080fd5b34801561031057600080fd5b5061032b60048036038101906103269190614635565b610c35565b604051610338919061554b565b60405180910390f35b34801561034d57600080fd5b50610356610c47565b6040516103639190615566565b60405180910390f35b34801561037857600080fd5b50610381610cd9565b60405161038e9190615988565b60405180910390f35b3480156103a357600080fd5b506103be60048036038101906103b99190614687565b610ce3565b6040516103cb9190615417565b60405180910390f35b3480156103e057600080fd5b506103fb60048036038101906103f691906145bd565b610d68565b005b610417600480360381019061041291906146b0565b610e80565b005b34801561042557600080fd5b50610440600480360381019061043b9190614687565b611391565b60405161044d9190615507565b60405180910390f35b34801561046257600080fd5b5061046b611485565b6040516104789190615988565b60405180910390f35b34801561048d57600080fd5b5061049661148f565b6040516104a39190615417565b60405180910390f35b3480156104b857600080fd5b506104c16114b9565b6040516104ce9190615988565b60405180910390f35b3480156104e357600080fd5b506104ec6114c3565b6040516104f99190615566565b60405180910390f35b34801561050e57600080fd5b506105176114d2565b6040516105249190615988565b60405180910390f35b34801561053957600080fd5b50610554600480360381019061054f9190614687565b6114df565b6040516105619190615566565b60405180910390f35b34801561057657600080fd5b5061057f611815565b60405161058c9190615988565b60405180910390f35b3480156105a157600080fd5b506105bc60048036038101906105b791906144b7565b61181f565b005b3480156105ca57600080fd5b506105d361187f565b6040516105e09190615988565b60405180910390f35b3480156105f557600080fd5b506105fe611889565b60405161060b919061554b565b60405180910390f35b34801561062057600080fd5b5061063b600480360381019061063691906144b7565b6118a0565b005b6106456118c0565b005b61064f611bd2565b005b34801561065d57600080fd5b50610666611ec0565b604051610673919061554b565b60405180910390f35b34801561068857600080fd5b506106a3600480360381019061069e9190614452565b611ecd565b6040516106b09190615988565b60405180910390f35b3480156106c557600080fd5b506106ce611f85565b005b3480156106dc57600080fd5b506106f760048036038101906106f29190614687565b6124f7565b6040516107049190615417565b60405180910390f35b34801561071957600080fd5b506107226125a9565b60405161072f9190615988565b60405180910390f35b34801561074457600080fd5b5061075f600480360381019061075a9190614452565b6125b3565b60405161076c9190615988565b60405180910390f35b34801561078157600080fd5b5061078a61266b565b005b34801561079857600080fd5b506107a16127a8565b6040516107ae9190615988565b60405180910390f35b3480156107c357600080fd5b506107cc6127b2565b6040516107d99190615417565b60405180910390f35b3480156107ee57600080fd5b506107f76127dc565b6040516108049190615988565b60405180910390f35b34801561081957600080fd5b506108226127ed565b60405161082f9190615988565b60405180910390f35b34801561084457600080fd5b5061084d6127f7565b60405161085a9190615988565b60405180910390f35b34801561086f57600080fd5b506108786129fc565b6040516108859190615566565b60405180910390f35b34801561089a57600080fd5b506108a3612a8e565b6040516108b09190615988565b60405180910390f35b3480156108c557600080fd5b506108ce612a98565b6040516108db919061554b565b60405180910390f35b3480156108f057600080fd5b5061090b60048036038101906109069190614452565b612aaf565b6040516109189190615988565b60405180910390f35b34801561092d57600080fd5b5061094860048036038101906109439190614581565b612af8565b005b34801561095657600080fd5b50610971600480360381019061096c9190614452565b612c79565b60405161097e9190615988565b60405180910390f35b34801561099357600080fd5b506109ae60048036038101906109a99190614687565b612cc2565b6040516109bb9190615988565b60405180910390f35b3480156109d057600080fd5b506109eb60048036038101906109e69190614506565b612d6c565b005b3480156109f957600080fd5b50610a146004803603810190610a0f9190614452565b612dce565b604051610a219190615988565b60405180910390f35b348015610a3657600080fd5b50610a3f612e17565b604051610a4c9190615566565b60405180910390f35b348015610a6157600080fd5b50610a6a612f57565b604051610a779190615988565b60405180910390f35b348015610a8c57600080fd5b50610a95612f61565b604051610aa29190615988565b60405180910390f35b348015610ab757600080fd5b50610ad26004803603810190610acd9190614687565b612f6b565b604051610adf9190615566565b60405180910390f35b348015610af457600080fd5b50610afd613012565b604051610b0a9190615988565b60405180910390f35b348015610b1f57600080fd5b50610b2861301c565b604051610b359190615529565b60405180910390f35b348015610b4a57600080fd5b50610b53613074565b604051610b609190615988565b60405180910390f35b348015610b7557600080fd5b50610b906004803603810190610b8b919061447b565b61307e565b604051610b9d919061554b565b60405180910390f35b348015610bb257600080fd5b50610bcd6004803603810190610bc89190614687565b613112565b604051610bda9190615988565b60405180910390f35b348015610bef57600080fd5b50610c0a6004803603810190610c0591906145f9565b6131bc565b005b348015610c1857600080fd5b50610c336004803603810190610c2e9190614452565b6132f8565b005b6000610c40826134a4565b9050919050565b606060008054610c5690615ce3565b80601f0160208091040260200160405190810160405280929190818152602001828054610c8290615ce3565b8015610ccf5780601f10610ca457610100808354040283529160200191610ccf565b820191906000526020600020905b815481529060010190602001808311610cb257829003601f168201915b5050505050905090565b6000600f54905090565b6000610cee82613586565b610d2d576040517f08c379a0000000000000000000000000000000000000000000000000000000008152600401610d2490615788565b60405180910390fd5b6004600083815260200190815260200160002060009054906101000a900473ffffffffffffffffffffffffffffffffffffffff169050919050565b6000610d73826124f7565b90508073ffffffffffffffffffffffffffffffffffffffff168373ffffffffffffffffffffffffffffffffffffffff161415610de4576040517f08c379a0000000000000000000000000000000000000000000000000000000008152600401610ddb90615868565b60405180910390fd5b8073ffffffffffffffffffffffffffffffffffffffff16610e036135f2565b73ffffffffffffffffffffffffffffffffffffffff161480610e325750610e3181610e2c6135f2565b61307e565b5b610e71576040517f08c379a0000000000000000000000000000000000000000000000000000000008152600401610e68906156e8565b60405180910390fd5b610e7b83836135fa565b505050565b610e88611ec0565b610ec7576040517f08c379a0000000000000000000000000000000000000000000000000000000008152600401610ebe90615928565b60405180910390fd5b6010548210158015610edb57506011548211155b610f1a576040517f08c379a0000000000000000000000000000000000000000000000000000000008152600401610f11906155a8565b60405180910390fd5b80600d54610f289190615b69565b341015610f6a576040517f08c379a0000000000000000000000000000000000000000000000000000000008152600401610f6190615908565b60405180910390fd5b60001515602360003373ffffffffffffffffffffffffffffffffffffffff1673ffffffffffffffffffffffffffffffffffffffff16815260200190815260200160002060009054906101000a900460ff16151514610ffd576040517f08c379a0000000000000000000000000000000000000000000000000000000008152600401610ff490615948565b60405180910390fd5b6001602360003373ffffffffffffffffffffffffffffffffffffffff1673ffffffffffffffffffffffffffffffffffffffff16815260200190815260200160002060006101000a81548160ff02191690831515021790555080601e60003373ffffffffffffffffffffffffffffffffffffffff1673ffffffffffffffffffffffffffffffffffffffff1681526020019081526020016000208190555060006020600084815260200190815260200160002054905081816110bd9190615ae2565b602060008581526020019081526020016000208190555082601f60003373ffffffffffffffffffffffffffffffffffffffff1673ffffffffffffffffffffffffffffffffffffffff168152602001908152602001600020819055506000602260003373ffffffffffffffffffffffffffffffffffffffff1673ffffffffffffffffffffffffffffffffffffffff168152602001908152602001600020600085815260200190815260200160002054905060008114156111eb5760216000858152602001908152602001600020339080600181540180825580915050600190039060005260206000200160009091909190916101000a81548173ffffffffffffffffffffffffffffffffffffffff021916908373ffffffffffffffffffffffffffffffffffffffff1602179055505b80836111f79190615ae2565b602260003373ffffffffffffffffffffffffffffffffffffffff1673ffffffffffffffffffffffffffffffffffffffff16815260200190815260200160002060008681526020019081526020016000208190555082600d546112599190615b69565b601d60003373ffffffffffffffffffffffffffffffffffffffff1673ffffffffffffffffffffffffffffffffffffffff168152602001908152602001600020819055507f19421268847f42dd61705778018ddfc43bcdce8517e7a630acb12f122c7094813385856040516112cf939291906154d0565b60405180910390a182600d546112e59190615b69565b34111561138b57600083600d546112fc9190615b69565b346113079190615bc3565b90503373ffffffffffffffffffffffffffffffffffffffff166108fc829081150290604051600060405180830381858888f1935050505015801561134f573d6000803e3d6000fd5b507f2ee76d0c8417fef3c9f68663d321eb1c1ed0e089b5298177f0582aeadb6fd91f33826040516113819291906154a7565b60405180910390a1505b50505050565b606060105482101580156113a757506011548211155b6113e6576040517f08c379a00000000000000000000000000000000000000000000000000000000081526004016113dd90615968565b60405180910390fd5b6021600083815260200190815260200160002080548060200260200160405190810160405280929190818152602001828054801561147957602002820191906000526020600020905b8160009054906101000a900473ffffffffffffffffffffffffffffffffffffffff1673ffffffffffffffffffffffffffffffffffffffff168152602001906001019080831161142f575b50505050509050919050565b6000601254905090565b6000600c60009054906101000a900473ffffffffffffffffffffffffffffffffffffffff16905090565b6000601454905090565b60606114cd610c47565b905090565b6000600a80549050905090565b606060018210806114f1575060135482115b15611533576040518060400160405280601c81526020017f5468616e20636f75706f6e20646f6573206e6f74206578697374732e000000008152509050611810565b601b6001836115429190615bc3565b81548110611579577f4e487b7100000000000000000000000000000000000000000000000000000000600052603260045260246000fd5b906000526020600020015442101561165d576000601c60018461159c9190615bc3565b815481106115d3577f4e487b7100000000000000000000000000000000000000000000000000000000600052603260045260246000fd5b906000526020600020015414611620576040518060400160405280601281526020017f436f75706f6e2070616964206561726c792e00000000000000000000000000008152509050611810565b6040518060400160405280601381526020017f436f75706f6e206e6f7420647565207965742e000000000000000000000000008152509050611810565b6000601c60018461166e9190615bc3565b815481106116a5577f4e487b7100000000000000000000000000000000000000000000000000000000600052603260045260246000fd5b906000526020600020015414156116f3576040518060400160405280601781526020017f436f75706f6e207061796d656e74206973206c6174652e0000000000000000008152509050611810565b601b6001836117029190615bc3565b81548110611739577f4e487b7100000000000000000000000000000000000000000000000000000000600052603260045260246000fd5b9060005260206000200154601c6001846117539190615bc3565b8154811061178a577f4e487b7100000000000000000000000000000000000000000000000000000000600052603260045260246000fd5b9060005260206000200154116117d7576040518060400160405280601481526020017f436f75706f6e2070616964206f6e2074696d652e0000000000000000000000008152509050611810565b6040518060400160405280601181526020017f436f75706f6e2070616964206c6174652e00000000000000000000000000000081525090505b919050565b6000601954905090565b61183061182a6135f2565b826136b3565b61186f576040517f08c379a0000000000000000000000000000000000000000000000000000000008152600401611866906158a8565b60405180910390fd5b61187a838383613791565b505050565b6000601554905090565b6000600960009054906101000a900460ff16905090565b6118bb83838360405180602001604052806000815250612d6c565b505050565b600c60009054906101000a900473ffffffffffffffffffffffffffffffffffffffff1673ffffffffffffffffffffffffffffffffffffffff163373ffffffffffffffffffffffffffffffffffffffff1614611950576040517f08c379a000000000000000000000000000000000000000000000000000000000815260040161194790615748565b60405180910390fd5b61195a60076139ed565b600f546119679190615b69565b3410156119a9576040517f08c379a00000000000000000000000000000000000000000000000000000000081526004016119a090615888565b60405180910390fd5b601354601454106119ef576040517f08c379a00000000000000000000000000000000000000000000000000000000081526004016119e690615588565b60405180910390fd5b60005b6119fc60076139ed565b811015611aa6576000611a0e826124f7565b90508073ffffffffffffffffffffffffffffffffffffffff166108fc600f549081150290604051600060405180830381858888f19350505050158015611a58573d6000803e3d6000fd5b507fb3224bc7c2e6157092b5f650cc8b06e5f0c34d8218b6e9a1a5a39c2e43706e408183604051611a8a929190615432565b60405180910390a1508080611a9e90615d15565b9150506119f2565b5042601c60145481548110611ae4577f4e487b7100000000000000000000000000000000000000000000000000000000600052603260045260246000fd5b906000526020600020018190555060146000815480929190611b0590615d15565b9190505550611b1460076139ed565b600f54611b219190615b69565b341115611bd0576000611b3460076139ed565b600f54611b419190615b69565b34611b4c9190615bc3565b90503373ffffffffffffffffffffffffffffffffffffffff166108fc829081150290604051600060405180830381858888f19350505050158015611b94573d6000803e3d6000fd5b507f2ee76d0c8417fef3c9f68663d321eb1c1ed0e089b5298177f0582aeadb6fd91f3382604051611bc69291906154a7565b60405180910390a1505b565b600c60009054906101000a900473ffffffffffffffffffffffffffffffffffffffff1673ffffffffffffffffffffffffffffffffffffffff163373ffffffffffffffffffffffffffffffffffffffff1614611c62576040517f08c379a0000000000000000000000000000000000000000000000000000000008152600401611c5990615688565b60405180910390fd5b601554341015611ca7576040517f08c379a0000000000000000000000000000000000000000000000000000000008152600401611c9e906158c8565b60405180910390fd5b6000611cb360076139ed565b905060005b81811015611d77576000611ccb826124f7565b9050611cfa81600b60009054906101000a900473ffffffffffffffffffffffffffffffffffffffff16846139fb565b8073ffffffffffffffffffffffffffffffffffffffff166108fc600d549081150290604051600060405180830381858888f19350505050158015611d42573d6000803e3d6000fd5b50600d54601554611d539190615bc3565b601581905550611d636007613a0b565b508080611d6f90615d15565b915050611cb8565b5042601981905550600047118015611d90575060155434115b15611ebd57600060155434611da59190615bc3565b905080471015611e3a5760004790503373ffffffffffffffffffffffffffffffffffffffff166108fc829081150290604051600060405180830381858888f19350505050158015611dfa573d6000803e3d6000fd5b507f2ee76d0c8417fef3c9f68663d321eb1c1ed0e089b5298177f0582aeadb6fd91f3382604051611e2c9291906154a7565b60405180910390a150611ebb565b3373ffffffffffffffffffffffffffffffffffffffff166108fc829081150290604051600060405180830381858888f19350505050158015611e80573d6000803e3d6000fd5b507f2ee76d0c8417fef3c9f68663d321eb1c1ed0e089b5298177f0582aeadb6fd91f3382604051611eb29291906154a7565b60405180910390a15b505b50565b6000601654421115905090565b60008073ffffffffffffffffffffffffffffffffffffffff168273ffffffffffffffffffffffffffffffffffffffff161415611f3e576040517f08c379a0000000000000000000000000000000000000000000000000000000008152600401611f35906157c8565b60405180910390fd5b601d60008373ffffffffffffffffffffffffffffffffffffffff1673ffffffffffffffffffffffffffffffffffffffff168152602001908152602001600020549050919050565b611f8d611ec0565b15611fcd576040517f08c379a0000000000000000000000000000000000000000000000000000000008152600401611fc4906158e8565b60405180910390fd5b611fd56135f2565b73ffffffffffffffffffffffffffffffffffffffff16611ff36127b2565b73ffffffffffffffffffffffffffffffffffffffff1614612049576040517f08c379a0000000000000000000000000000000000000000000000000000000008152600401612040906157a8565b60405180910390fd5b60011515600960009054906101000a900460ff1615151461209f576040517f08c379a000000000000000000000000000000000000000000000000000000000815260040161209690615828565b60405180910390fd5b6000600e54905060005b600a805490508110156124f3576000600a82815481106120f2577f4e487b7100000000000000000000000000000000000000000000000000000000600052603260045260246000fd5b9060005260206000200160009054906101000a900473ffffffffffffffffffffffffffffffffffffffff1690506000601e60008373ffffffffffffffffffffffffffffffffffffffff1673ffffffffffffffffffffffffffffffffffffffff168152602001908152602001600020549050838111156123b257600c60009054906101000a900473ffffffffffffffffffffffffffffffffffffffff1673ffffffffffffffffffffffffffffffffffffffff166108fc85600d546121b59190615b69565b9081150290604051600060405180830381858888f193505050501580156121e0573d6000803e3d6000fd5b5083600d546121ef9190615b69565b601560008282546122009190615ae2565b9250508190555060005b84811015612242576122258361222060076139ed565b613a67565b61222f6007613c35565b808061223a90615d15565b91505061220a565b506000601d60008473ffffffffffffffffffffffffffffffffffffffff1673ffffffffffffffffffffffffffffffffffffffff16815260200190815260200160002054905084600d546122959190615b69565b816122a09190615bc3565b601d60008573ffffffffffffffffffffffffffffffffffffffff1673ffffffffffffffffffffffffffffffffffffffff168152602001908152602001600020819055506000601d60008573ffffffffffffffffffffffffffffffffffffffff1673ffffffffffffffffffffffffffffffffffffffff1681526020019081526020016000205490508373ffffffffffffffffffffffffffffffffffffffff166108fc829081150290604051600060405180830381858888f1935050505015801561236d573d6000803e3d6000fd5b507f2ee76d0c8417fef3c9f68663d321eb1c1ed0e089b5298177f0582aeadb6fd91f848260405161239f9291906154a7565b60405180910390a1600095505050612499565b600c60009054906101000a900473ffffffffffffffffffffffffffffffffffffffff1673ffffffffffffffffffffffffffffffffffffffff166108fc82600d546123fc9190615b69565b9081150290604051600060405180830381858888f19350505050158015612427573d6000803e3d6000fd5b5080600d546124369190615b69565b601560008282546124479190615ae2565b9250508190555060005b818110156124895761246c8361246760076139ed565b613a67565b6124766007613c35565b808061248190615d15565b915050612451565b5080846124969190615bc3565b93505b6000601d60008473ffffffffffffffffffffffffffffffffffffffff1673ffffffffffffffffffffffffffffffffffffffff16815260200190815260200160002081905550505080806124eb90615d15565b9150506120a9565b5050565b6000806002600084815260200190815260200160002060009054906101000a900473ffffffffffffffffffffffffffffffffffffffff169050600073ffffffffffffffffffffffffffffffffffffffff168173ffffffffffffffffffffffffffffffffffffffff1614156125a0576040517f08c379a000000000000000000000000000000000000000000000000000000000815260040161259790615728565b60405180910390fd5b80915050919050565b6000600d54905090565b60008073ffffffffffffffffffffffffffffffffffffffff168273ffffffffffffffffffffffffffffffffffffffff161415612624576040517f08c379a000000000000000000000000000000000000000000000000000000000815260040161261b90615708565b60405180910390fd5b600360008373ffffffffffffffffffffffffffffffffffffffff1673ffffffffffffffffffffffffffffffffffffffff168152602001908152602001600020549050919050565b6126736135f2565b73ffffffffffffffffffffffffffffffffffffffff166126916127b2565b73ffffffffffffffffffffffffffffffffffffffff16146126e7576040517f08c379a00000000000000000000000000000000000000000000000000000000081526004016126de906157a8565b60405180910390fd5b600073ffffffffffffffffffffffffffffffffffffffff16600660009054906101000a900473ffffffffffffffffffffffffffffffffffffffff1673ffffffffffffffffffffffffffffffffffffffff167f8be0079c531659141344cd1fd0a4f28419497f9722a3daafe3b4186f6b6457e060405160405180910390a36000600660006101000a81548173ffffffffffffffffffffffffffffffffffffffff021916908373ffffffffffffffffffffffffffffffffffffffff160217905550565b6000601154905090565b6000600660009054906101000a900473ffffffffffffffffffffffffffffffffffffffff16905090565b60006127e860076139ed565b905090565b6000601054905090565b6000612801611ec0565b15612841576040517f08c379a0000000000000000000000000000000000000000000000000000000008152600401612838906158e8565b60405180910390fd5b6128496135f2565b73ffffffffffffffffffffffffffffffffffffffff166128676127b2565b73ffffffffffffffffffffffffffffffffffffffff16146128bd576040517f08c379a00000000000000000000000000000000000000000000000000000000081526004016128b4906157a8565b60405180910390fd5b60008060105490505b6011548111612918576020600082815260200190815260200160002054826128ee9190615ae2565b9150600e5482106129055780600f81905550612918565b808061291090615d15565b9150506128c6565b506000600f541115612985577f34ccc1cc859f0b1e974530f1eb22e713649d5f3937abf904589392796241d611600f546040516129559190615988565b60405180910390a16001600960006101000a81548160ff021916908315150217905550612980613c4b565b6129dc565b7fe7f2eb6d54f3b1a2443045ba960f25d2ce0a36bcdee0965882edf6051179a59b81600e546040516129b89291906159a3565b60405180910390a16001600960016101000a81548160ff0219169083151502179055505b6129f36001600f546129ee9190615ae2565b613d43565b600f5491505090565b606060018054612a0b90615ce3565b80601f0160208091040260200160405190810160405280929190818152602001828054612a3790615ce3565b8015612a845780601f10612a5957610100808354040283529160200191612a84565b820191906000526020600020905b815481529060010190602001808311612a6757829003601f168201915b5050505050905090565b6000601854905090565b6000600960019054906101000a900460ff16905090565b6000601e60008373ffffffffffffffffffffffffffffffffffffffff1673ffffffffffffffffffffffffffffffffffffffff168152602001908152602001600020549050919050565b612b006135f2565b73ffffffffffffffffffffffffffffffffffffffff168273ffffffffffffffffffffffffffffffffffffffff161415612b6e576040517f08c379a0000000000000000000000000000000000000000000000000000000008152600401612b6590615668565b60405180910390fd5b8060056000612b7b6135f2565b73ffffffffffffffffffffffffffffffffffffffff1673ffffffffffffffffffffffffffffffffffffffff16815260200190815260200160002060008473ffffffffffffffffffffffffffffffffffffffff1673ffffffffffffffffffffffffffffffffffffffff16815260200190815260200160002060006101000a81548160ff0219169083151502179055508173ffffffffffffffffffffffffffffffffffffffff16612c286135f2565b73ffffffffffffffffffffffffffffffffffffffff167f17307eab39ab6107e8899845ad3d59bd9653f200f220920489ca2b5937696c3183604051612c6d919061554b565b60405180910390a35050565b6000601f60008373ffffffffffffffffffffffffffffffffffffffff1673ffffffffffffffffffffffffffffffffffffffff168152602001908152602001600020549050919050565b60008082118015612cd557506013548211155b612d14576040517f08c379a0000000000000000000000000000000000000000000000000000000008152600401612d0b90615848565b60405180910390fd5b601c600183612d239190615bc3565b81548110612d5a577f4e487b7100000000000000000000000000000000000000000000000000000000600052603260045260246000fd5b90600052602060002001549050919050565b612d7d612d776135f2565b836136b3565b612dbc576040517f08c379a0000000000000000000000000000000000000000000000000000000008152600401612db3906158a8565b60405180910390fd5b612dc884848484613ecd565b50505050565b6000601d60008373ffffffffffffffffffffffffffffffffffffffff1673ffffffffffffffffffffffffffffffffffffffff168152602001908152602001600020549050919050565b6060601854421015612e8b5760006019541415612e4e57604051806060016040528060218152602001615eb9602191399050612f54565b6040518060400160405280601e81526020017f5072696e636970616c207761732070616964206261636b206561726c792e00008152509050612f54565b60006019541415612ed3576040518060400160405280601a81526020017f5072696e636970616c207061796d656e74206973206c6174652e0000000000008152509050612f54565b60185460195411612f1b576040518060400160405280602081526020017f5072696e636970616c207761732070616964206261636b206f6e2074696d652e8152509050612f54565b6040518060400160405280601d81526020017f5072696e636970616c207761732070616964206261636b206c6174652e00000081525090505b90565b6000601654905090565b6000600e54905090565b6060612f7682613586565b612fb5576040517f08c379a0000000000000000000000000000000000000000000000000000000008152600401612fac90615808565b60405180910390fd5b6000612fbf613f29565b90506000815111612fdf576040518060200160405280600081525061300a565b80612fe984613fbb565b604051602001612ffa9291906153f3565b6040516020818303038152906040525b915050919050565b6000601354905090565b6060601b80548060200260200160405190810160405280929190818152602001828054801561306a57602002820191906000526020600020905b815481526020019060010190808311613056575b5050505050905090565b6000601754905090565b6000600560008473ffffffffffffffffffffffffffffffffffffffff1673ffffffffffffffffffffffffffffffffffffffff16815260200190815260200160002060008373ffffffffffffffffffffffffffffffffffffffff1673ffffffffffffffffffffffffffffffffffffffff16815260200190815260200160002060009054906101000a900460ff16905092915050565b6000808211801561312557506013548211155b613164576040517f08c379a000000000000000000000000000000000000000000000000000000000815260040161315b90615848565b60405180910390fd5b601b6001836131739190615bc3565b815481106131aa577f4e487b7100000000000000000000000000000000000000000000000000000000600052603260045260246000fd5b90600052602060002001549050919050565b6131c46135f2565b73ffffffffffffffffffffffffffffffffffffffff166131e26127b2565b73ffffffffffffffffffffffffffffffffffffffff1614613238576040517f08c379a000000000000000000000000000000000000000000000000000000000815260040161322f906157a8565b60405180910390fd5b6000600f549050821561325e5781600f546132539190615ae2565b600f819055506132b8565b600f548211156132a3576040517f08c379a000000000000000000000000000000000000000000000000000000000815260040161329a906156a8565b60405180910390fd5b81600f546132b19190615bc3565b600f819055505b7f19c6461ea018cd13c242700a8b6afa6a2a3a4de691e6f2cd9416b3bef1a9515081600f546040516132eb9291906159a3565b60405180910390a1505050565b6133006135f2565b73ffffffffffffffffffffffffffffffffffffffff1661331e6127b2565b73ffffffffffffffffffffffffffffffffffffffff1614613374576040517f08c379a000000000000000000000000000000000000000000000000000000000815260040161336b906157a8565b60405180910390fd5b600073ffffffffffffffffffffffffffffffffffffffff168173ffffffffffffffffffffffffffffffffffffffff1614156133e4576040517f08c379a00000000000000000000000000000000000000000000000000000000081526004016133db90615608565b60405180910390fd5b8073ffffffffffffffffffffffffffffffffffffffff16600660009054906101000a900473ffffffffffffffffffffffffffffffffffffffff1673ffffffffffffffffffffffffffffffffffffffff167f8be0079c531659141344cd1fd0a4f28419497f9722a3daafe3b4186f6b6457e060405160405180910390a380600660006101000a81548173ffffffffffffffffffffffffffffffffffffffff021916908373ffffffffffffffffffffffffffffffffffffffff16021790555050565b60007f80ac58cd000000000000000000000000000000000000000000000000000000007bffffffffffffffffffffffffffffffffffffffffffffffffffffffff1916827bffffffffffffffffffffffffffffffffffffffffffffffffffffffff1916148061356f57507f5b5e139f000000000000000000000000000000000000000000000000000000007bffffffffffffffffffffffffffffffffffffffffffffffffffffffff1916827bffffffffffffffffffffffffffffffffffffffffffffffffffffffff1916145b8061357f575061357e82614168565b5b9050919050565b60008073ffffffffffffffffffffffffffffffffffffffff166002600084815260200190815260200160002060009054906101000a900473ffffffffffffffffffffffffffffffffffffffff1673ffffffffffffffffffffffffffffffffffffffff1614159050919050565b600033905090565b816004600083815260200190815260200160002060006101000a81548173ffffffffffffffffffffffffffffffffffffffff021916908373ffffffffffffffffffffffffffffffffffffffff160217905550808273ffffffffffffffffffffffffffffffffffffffff1661366d836124f7565b73ffffffffffffffffffffffffffffffffffffffff167f8c5be1e5ebec7d5bd14f71427d1e84f3dd0314c0f7b2291e5b200ac8c7c3b92560405160405180910390a45050565b60006136be82613586565b6136fd576040517f08c379a00000000000000000000000000000000000000000000000000000000081526004016136f4906156c8565b60405180910390fd5b6000613708836124f7565b90508073ffffffffffffffffffffffffffffffffffffffff168473ffffffffffffffffffffffffffffffffffffffff16148061377757508373ffffffffffffffffffffffffffffffffffffffff1661375f84610ce3565b73ffffffffffffffffffffffffffffffffffffffff16145b806137885750613787818561307e565b5b91505092915050565b8273ffffffffffffffffffffffffffffffffffffffff166137b1826124f7565b73ffffffffffffffffffffffffffffffffffffffff1614613807576040517f08c379a00000000000000000000000000000000000000000000000000000000081526004016137fe906157e8565b60405180910390fd5b600073ffffffffffffffffffffffffffffffffffffffff168273ffffffffffffffffffffffffffffffffffffffff161415613877576040517f08c379a000000000000000000000000000000000000000000000000000000000815260040161386e90615648565b60405180910390fd5b6138828383836141d2565b61388d6000826135fa565b6001600360008573ffffffffffffffffffffffffffffffffffffffff1673ffffffffffffffffffffffffffffffffffffffff16815260200190815260200160002060008282546138dd9190615bc3565b925050819055506001600360008473ffffffffffffffffffffffffffffffffffffffff1673ffffffffffffffffffffffffffffffffffffffff16815260200190815260200160002060008282546139349190615ae2565b92505081905550816002600083815260200190815260200160002060006101000a81548173ffffffffffffffffffffffffffffffffffffffff021916908373ffffffffffffffffffffffffffffffffffffffff160217905550808273ffffffffffffffffffffffffffffffffffffffff168473ffffffffffffffffffffffffffffffffffffffff167fddf252ad1be2c89b69c2b068fc378daa952ba7f163c4a11628f55a4df523b3ef60405160405180910390a4505050565b600081600001549050919050565b613a06838383613791565b505050565b60008160000154905060008111613a57576040517f08c379a0000000000000000000000000000000000000000000000000000000008152600401613a4e906155c8565b60405180910390fd5b6001810382600001819055505050565b600073ffffffffffffffffffffffffffffffffffffffff168273ffffffffffffffffffffffffffffffffffffffff161415613ad7576040517f08c379a0000000000000000000000000000000000000000000000000000000008152600401613ace90615768565b60405180910390fd5b613ae081613586565b15613b20576040517f08c379a0000000000000000000000000000000000000000000000000000000008152600401613b1790615628565b60405180910390fd5b613b2c600083836141d2565b6001600360008473ffffffffffffffffffffffffffffffffffffffff1673ffffffffffffffffffffffffffffffffffffffff1681526020019081526020016000206000828254613b7c9190615ae2565b92505081905550816002600083815260200190815260200160002060006101000a81548173ffffffffffffffffffffffffffffffffffffffff021916908373ffffffffffffffffffffffffffffffffffffffff160217905550808273ffffffffffffffffffffffffffffffffffffffff16600073ffffffffffffffffffffffffffffffffffffffff167fddf252ad1be2c89b69c2b068fc378daa952ba7f163c4a11628f55a4df523b3ef60405160405180910390a45050565b6001816000016000828254019250508190555050565b600060105490505b600f548111613d40576000613c6782611391565b905060005b8151811015613d2b57600a828281518110613cb0577f4e487b7100000000000000000000000000000000000000000000000000000000600052603260045260246000fd5b60200260200101519080600181540180825580915050600190039060005260206000200160009091909190916101000a81548173ffffffffffffffffffffffffffffffffffffffff021916908373ffffffffffffffffffffffffffffffffffffffff1602179055508080613d2390615d15565b915050613c6c565b50508080613d3890615d15565b915050613c53565b50565b60008190505b6011548111613ec9576000613d5d82611391565b905060005b8151811015613eb4576000828281518110613da6577f4e487b7100000000000000000000000000000000000000000000000000000000600052603260045260246000fd5b602002602001015190506000602260008373ffffffffffffffffffffffffffffffffffffffff1673ffffffffffffffffffffffffffffffffffffffff16815260200190815260200160002060008681526020019081526020016000205490508173ffffffffffffffffffffffffffffffffffffffff166108fc82600d54613e2d9190615b69565b9081150290604051600060405180830381858888f19350505050158015613e58573d6000803e3d6000fd5b507f2ee76d0c8417fef3c9f68663d321eb1c1ed0e089b5298177f0582aeadb6fd91f82600d5483613e899190615b69565b604051613e979291906154a7565b60405180910390a150508080613eac90615d15565b915050613d62565b50508080613ec190615d15565b915050613d49565b5050565b613ed8848484613791565b613ee4848484846141d7565b613f23576040517f08c379a0000000000000000000000000000000000000000000000000000000008152600401613f1a906155e8565b60405180910390fd5b50505050565b606060088054613f3890615ce3565b80601f0160208091040260200160405190810160405280929190818152602001828054613f6490615ce3565b8015613fb15780601f10613f8657610100808354040283529160200191613fb1565b820191906000526020600020905b815481529060010190602001808311613f9457829003601f168201915b5050505050905090565b60606000821415614003576040518060400160405280600181526020017f30000000000000000000000000000000000000000000000000000000000000008152509050614163565b600082905060005b6000821461403557808061401e90615d15565b915050600a8261402e9190615b38565b915061400b565b60008167ffffffffffffffff811115614077577f4e487b7100000000000000000000000000000000000000000000000000000000600052604160045260246000fd5b6040519080825280601f01601f1916602001820160405280156140a95781602001600182028036833780820191505090505b5090505b6000851461415c576001826140c29190615bc3565b9150600a856140d19190615d5e565b60306140dd9190615ae2565b60f81b818381518110614119577f4e487b7100000000000000000000000000000000000000000000000000000000600052603260045260246000fd5b60200101907effffffffffffffffffffffffffffffffffffffffffffffffffffffffffffff1916908160001a905350600a856141559190615b38565b94506140ad565b8093505050505b919050565b60007f01ffc9a7000000000000000000000000000000000000000000000000000000007bffffffffffffffffffffffffffffffffffffffffffffffffffffffff1916827bffffffffffffffffffffffffffffffffffffffffffffffffffffffff1916149050919050565b505050565b60006141f88473ffffffffffffffffffffffffffffffffffffffff1661436e565b15614361578373ffffffffffffffffffffffffffffffffffffffff1663150b7a026142216135f2565b8786866040518563ffffffff1660e01b8152600401614243949392919061545b565b602060405180830381600087803b15801561425d57600080fd5b505af192505050801561428e57506040513d601f19601f8201168201806040525081019061428b919061465e565b60015b614311573d80600081146142be576040519150601f19603f3d011682016040523d82523d6000602084013e6142c3565b606091505b50600081511415614309576040517f08c379a0000000000000000000000000000000000000000000000000000000008152600401614300906155e8565b60405180910390fd5b805181602001fd5b63150b7a0260e01b7bffffffffffffffffffffffffffffffffffffffffffffffffffffffff1916817bffffffffffffffffffffffffffffffffffffffffffffffffffffffff191614915050614366565b600190505b949350505050565b600080823b905060008111915050919050565b600061439461438f846159fd565b6159cc565b9050828152602081018484840111156143ac57600080fd5b6143b7848285615ca1565b509392505050565b6000813590506143ce81615e5c565b92915050565b6000813590506143e381615e73565b92915050565b6000813590506143f881615e8a565b92915050565b60008151905061440d81615e8a565b92915050565b600082601f83011261442457600080fd5b8135614434848260208601614381565b91505092915050565b60008135905061444c81615ea1565b92915050565b60006020828403121561446457600080fd5b6000614472848285016143bf565b91505092915050565b6000806040838503121561448e57600080fd5b600061449c858286016143bf565b92505060206144ad858286016143bf565b9150509250929050565b6000806000606084860312156144cc57600080fd5b60006144da868287016143bf565b93505060206144eb868287016143bf565b92505060406144fc8682870161443d565b9150509250925092565b6000806000806080858703121561451c57600080fd5b600061452a878288016143bf565b945050602061453b878288016143bf565b935050604061454c8782880161443d565b925050606085013567ffffffffffffffff81111561456957600080fd5b61457587828801614413565b91505092959194509250565b6000806040838503121561459457600080fd5b60006145a2858286016143bf565b92505060206145b3858286016143d4565b9150509250929050565b600080604083850312156145d057600080fd5b60006145de858286016143bf565b92505060206145ef8582860161443d565b9150509250929050565b6000806040838503121561460c57600080fd5b600061461a858286016143d4565b925050602061462b8582860161443d565b9150509250929050565b60006020828403121561464757600080fd5b6000614655848285016143e9565b91505092915050565b60006020828403121561467057600080fd5b600061467e848285016143fe565b91505092915050565b60006020828403121561469957600080fd5b60006146a78482850161443d565b91505092915050565b600080604083850312156146c357600080fd5b60006146d18582860161443d565b92505060206146e28582860161443d565b9150509250929050565b60006146f8838361472b565b60208301905092915050565b600061471083836153d5565b60208301905092915050565b61472581615c6b565b82525050565b61473481615bf7565b82525050565b61474381615bf7565b82525050565b600061475482615a4d565b61475e8185615a93565b935061476983615a2d565b8060005b8381101561479a57815161478188826146ec565b975061478c83615a79565b92505060018101905061476d565b5085935050505092915050565b60006147b282615a58565b6147bc8185615aa4565b93506147c783615a3d565b8060005b838110156147f85781516147df8882614704565b97506147ea83615a86565b9250506001810190506147cb565b5085935050505092915050565b61480e81615c09565b82525050565b600061481f82615a63565b6148298185615ab5565b9350614839818560208601615cb0565b61484281615e4b565b840191505092915050565b600061485882615a6e565b6148628185615ac6565b9350614872818560208601615cb0565b61487b81615e4b565b840191505092915050565b600061489182615a6e565b61489b8185615ad7565b93506148ab818560208601615cb0565b80840191505092915050565b60006148c4602a83615ac6565b91507f416c6c20636f75706f6e207061796d656e7473206861766520616c726561647960008301527f206265656e206d616465000000000000000000000000000000000000000000006020830152604082019050919050565b600061492a602883615ac6565b91507f436f75706f6e206e6565647320746f206265206265747765656e20746865207360008301527f65742072616e67650000000000000000000000000000000000000000000000006020830152604082019050919050565b6000614990601b83615ac6565b91507f436f756e7465723a2064656372656d656e74206f766572666c6f7700000000006000830152602082019050919050565b60006149d0603283615ac6565b91507f4552433732313a207472616e7366657220746f206e6f6e20455243373231526560008301527f63656976657220696d706c656d656e74657200000000000000000000000000006020830152604082019050919050565b6000614a36602683615ac6565b91507f4f776e61626c653a206e6577206f776e657220697320746865207a65726f206160008301527f64647265737300000000000000000000000000000000000000000000000000006020830152604082019050919050565b6000614a9c601c83615ac6565b91507f4552433732313a20746f6b656e20616c7265616479206d696e746564000000006000830152602082019050919050565b6000614adc602483615ac6565b91507f4552433732313a207472616e7366657220746f20746865207a65726f2061646460008301527f72657373000000000000000000000000000000000000000000000000000000006020830152604082019050919050565b6000614b42601983615ac6565b91507f4552433732313a20617070726f766520746f2063616c6c6572000000000000006000830152602082019050919050565b6000614b82602e83615ac6565b91507f506179696e6720636f6d70616e792073686f756c642062652074686520626f7260008301527f726f77696e6720636f6d70616e790000000000000000000000000000000000006020830152604082019050919050565b6000614be8602083615ac6565b91507f436f75706f6e207061796d656e742063616e2774206265206e656761746976656000830152602082019050919050565b6000614c28602c83615ac6565b91507f4552433732313a206f70657261746f7220717565727920666f72206e6f6e657860008301527f697374656e7420746f6b656e00000000000000000000000000000000000000006020830152604082019050919050565b6000614c8e603883615ac6565b91507f4552433732313a20617070726f76652063616c6c6572206973206e6f74206f7760008301527f6e6572206e6f7220617070726f76656420666f7220616c6c00000000000000006020830152604082019050919050565b6000614cf4602a83615ac6565b91507f4552433732313a2062616c616e636520717565727920666f7220746865207a6560008301527f726f2061646472657373000000000000000000000000000000000000000000006020830152604082019050919050565b6000614d5a602983615ac6565b91507f4552433732313a206f776e657220717565727920666f72206e6f6e657869737460008301527f656e7420746f6b656e00000000000000000000000000000000000000000000006020830152604082019050919050565b6000614dc0603583615ac6565b91507f436f75706f6e207061796d656e742073686f756c6420636f6d652066726f6d2060008301527f74686520626f72726f77696e6720636f6d70616e7900000000000000000000006020830152604082019050919050565b6000614e26602083615ac6565b91507f4552433732313a206d696e7420746f20746865207a65726f20616464726573736000830152602082019050919050565b6000614e66602c83615ac6565b91507f4552433732313a20617070726f76656420717565727920666f72206e6f6e657860008301527f697374656e7420746f6b656e00000000000000000000000000000000000000006020830152604082019050919050565b6000614ecc602083615ac6565b91507f4f776e61626c653a2063616c6c6572206973206e6f7420746865206f776e65726000830152602082019050919050565b6000614f0c602283615ac6565b91507f42616c616e636520717565727920666f7220746865207a65726f20616464726560008301527f73730000000000000000000000000000000000000000000000000000000000006020830152604082019050919050565b6000614f72602983615ac6565b91507f4552433732313a207472616e73666572206f6620746f6b656e2074686174206960008301527f73206e6f74206f776e00000000000000000000000000000000000000000000006020830152604082019050919050565b6000614fd8602f83615ac6565b91507f4552433732314d657461646174613a2055524920717565727920666f72206e6f60008301527f6e6578697374656e7420746f6b656e00000000000000000000000000000000006020830152604082019050919050565b600061503e603683615ac6565b91507f63616e206e6f7420697373756520626f6e64732069662074686520636f75706f60008301527f6e20686173206e6f74206265656e20646566696e6564000000000000000000006020830152604082019050919050565b60006150a4603b83615ac6565b91507f4e6f207375636820636f75706f6e207061796d656e742c20636865636b20746860008301527f65206e756d626572206f6620636f75706f6e207061796d656e747300000000006020830152604082019050919050565b600061510a602183615ac6565b91507f4552433732313a20617070726f76616c20746f2063757272656e74206f776e6560008301527f72000000000000000000000000000000000000000000000000000000000000006020830152604082019050919050565b6000615170601c83615ac6565b91507f4e6f7420656e6f75676820636f696e7320666f7220636f75706f6e73000000006000830152602082019050919050565b60006151b0603183615ac6565b91507f4552433732313a207472616e736665722063616c6c6572206973206e6f74206f60008301527f776e6572206e6f7220617070726f7665640000000000000000000000000000006020830152604082019050919050565b6000615216602f83615ac6565b91507f4e6f7420656e6f75676820636f696e7320746f20736574746c6520746865206260008301527f6f6e64206174206d6174757269747900000000000000000000000000000000006020830152604082019050919050565b600061527c601f83615ac6565b91507f496e766573746d656e742077696e646f77206973207374696c6c206f70656e006000830152602082019050919050565b60006152bc602683615ac6565b91507f4e6f7420656e6f75676820636f696e73206465706f736974656420666f72207460008301527f68652062696400000000000000000000000000000000000000000000000000006020830152604082019050919050565b6000615322601d83615ac6565b91507f496e766573746d656e742077696e646f77206973206e6f74206f70656e0000006000830152602082019050919050565b6000615362601983615ac6565b91507f4f6e6c79206f6e65206269642070657220696e766573746f72000000000000006000830152602082019050919050565b60006153a2601383615ac6565b91507f436f75706f6e206e6f7420696e2072616e6765000000000000000000000000006000830152602082019050919050565b6153de81615c61565b82525050565b6153ed81615c61565b82525050565b60006153ff8285614886565b915061540b8284614886565b91508190509392505050565b600060208201905061542c600083018461473a565b92915050565b6000604082019050615447600083018561471c565b61545460208301846153e4565b9392505050565b6000608082019050615470600083018761473a565b61547d602083018661473a565b61548a60408301856153e4565b818103606083015261549c8184614814565b905095945050505050565b60006040820190506154bc600083018561473a565b6154c960208301846153e4565b9392505050565b60006060820190506154e5600083018661473a565b6154f260208301856153e4565b6154ff60408301846153e4565b949350505050565b600060208201905081810360008301526155218184614749565b905092915050565b6000602082019050818103600083015261554381846147a7565b905092915050565b60006020820190506155606000830184614805565b92915050565b60006020820190508181036000830152615580818461484d565b905092915050565b600060208201905081810360008301526155a1816148b7565b9050919050565b600060208201905081810360008301526155c18161491d565b9050919050565b600060208201905081810360008301526155e181614983565b9050919050565b60006020820190508181036000830152615601816149c3565b9050919050565b6000602082019050818103600083015261562181614a29565b9050919050565b6000602082019050818103600083015261564181614a8f565b9050919050565b6000602082019050818103600083015261566181614acf565b9050919050565b6000602082019050818103600083015261568181614b35565b9050919050565b600060208201905081810360008301526156a181614b75565b9050919050565b600060208201905081810360008301526156c181614bdb565b9050919050565b600060208201905081810360008301526156e181614c1b565b9050919050565b6000602082019050818103600083015261570181614c81565b9050919050565b6000602082019050818103600083015261572181614ce7565b9050919050565b6000602082019050818103600083015261574181614d4d565b9050919050565b6000602082019050818103600083015261576181614db3565b9050919050565b6000602082019050818103600083015261578181614e19565b9050919050565b600060208201905081810360008301526157a181614e59565b9050919050565b600060208201905081810360008301526157c181614ebf565b9050919050565b600060208201905081810360008301526157e181614eff565b9050919050565b6000602082019050818103600083015261580181614f65565b9050919050565b6000602082019050818103600083015261582181614fcb565b9050919050565b6000602082019050818103600083015261584181615031565b9050919050565b6000602082019050818103600083015261586181615097565b9050919050565b60006020820190508181036000830152615881816150fd565b9050919050565b600060208201905081810360008301526158a181615163565b9050919050565b600060208201905081810360008301526158c1816151a3565b9050919050565b600060208201905081810360008301526158e181615209565b9050919050565b600060208201905081810360008301526159018161526f565b9050919050565b60006020820190508181036000830152615921816152af565b9050919050565b6000602082019050818103600083015261594181615315565b9050919050565b6000602082019050818103600083015261596181615355565b9050919050565b6000602082019050818103600083015261598181615395565b9050919050565b600060208201905061599d60008301846153e4565b92915050565b60006040820190506159b860008301856153e4565b6159c560208301846153e4565b9392505050565b6000604051905081810181811067ffffffffffffffff821117156159f3576159f2615e1c565b5b8060405250919050565b600067ffffffffffffffff821115615a1857615a17615e1c565b5b601f19601f8301169050602081019050919050565b6000819050602082019050919050565b6000819050602082019050919050565b600081519050919050565b600081519050919050565b600081519050919050565b600081519050919050565b6000602082019050919050565b6000602082019050919050565b600082825260208201905092915050565b600082825260208201905092915050565b600082825260208201905092915050565b600082825260208201905092915050565b600081905092915050565b6000615aed82615c61565b9150615af883615c61565b9250827fffffffffffffffffffffffffffffffffffffffffffffffffffffffffffffffff03821115615b2d57615b2c615d8f565b5b828201905092915050565b6000615b4382615c61565b9150615b4e83615c61565b925082615b5e57615b5d615dbe565b5b828204905092915050565b6000615b7482615c61565b9150615b7f83615c61565b9250817fffffffffffffffffffffffffffffffffffffffffffffffffffffffffffffffff0483118215151615615bb857615bb7615d8f565b5b828202905092915050565b6000615bce82615c61565b9150615bd983615c61565b925082821015615bec57615beb615d8f565b5b828203905092915050565b6000615c0282615c41565b9050919050565b60008115159050919050565b60007fffffffff0000000000000000000000000000000000000000000000000000000082169050919050565b600073ffffffffffffffffffffffffffffffffffffffff82169050919050565b6000819050919050565b6000615c7682615c7d565b9050919050565b6000615c8882615c8f565b9050919050565b6000615c9a82615c41565b9050919050565b82818337600083830152505050565b60005b83811015615cce578082015181840152602081019050615cb3565b83811115615cdd576000848401525b50505050565b60006002820490506001821680615cfb57607f821691505b60208210811415615d0f57615d0e615ded565b5b50919050565b6000615d2082615c61565b91507fffffffffffffffffffffffffffffffffffffffffffffffffffffffffffffffff821415615d5357615d52615d8f565b5b600182019050919050565b6000615d6982615c61565b9150615d7483615c61565b925082615d8457615d83615dbe565b5b828206905092915050565b7f4e487b7100000000000000000000000000000000000000000000000000000000600052601160045260246000fd5b7f4e487b7100000000000000000000000000000000000000000000000000000000600052601260045260246000fd5b7f4e487b7100000000000000000000000000000000000000000000000000000000600052602260045260246000fd5b7f4e487b7100000000000000000000000000000000000000000000000000000000600052604160045260246000fd5b6000601f19601f8301169050919050565b615e6581615bf7565b8114615e7057600080fd5b50565b615e7c81615c09565b8114615e8757600080fd5b50565b615e9381615c15565b8114615e9e57600080fd5b50565b615eaa81615c61565b8114615eb557600080fd5b5056fe5072696e636970616c205061796d656e74206973206e6f7420647565207965742ea26469706673582212204a14b7d7606a7dbd13a3d6e25d80f9b4ece928ff4b054cea6f130cbc1f37999b64736f6c63430008000033",
  "immutableReferences": {},
  "source": "// SPDX-License-Identifier: MIT\npragma solidity >=0.6.0;\n\nimport \"@openzeppelin/contracts/token/ERC721/ERC721.sol\";\nimport \"@openzeppelin/contracts/access/Ownable.sol\";\nimport \"@openzeppelin/contracts/utils/Counters.sol\";\n\ncontract GreenBond2 is ERC721, Ownable {\n    using Counters for Counters.Counter;\n\n    // MODIFIERS\n    /**\n     * @dev Reverts if bidding time is not open\n     */\n    modifier onlyWhileBiddingWindowOpen {\n        require(biddingWindowisOpen(), \"Investment window is not open\");\n        _;\n    }\n\n    /**\n     * @dev Reverts if bidding time is still open\n     */\n    modifier onlyWhileBiddingWindowClosed {\n        require(!biddingWindowisOpen(), \"Investment window is still open\");\n        _;\n    }\n\n\n    // MEMBER VARIABLES\n\n    Counters.Counter private _bondIdTracker;\n    string private _baseBondURI;\n    // Boolean variable that is only set true if there is enough demand for bond\n    bool private _coupondefined = false;\n    bool private _cancelled = false;\n\n    // List of initial investors who have bidded at 'right coupon level'\n    address[] private _initialInvestors;\n    address private _owner;\n    address payable private _company;\n    uint256 private _value;\n    uint256 private _numberOfBondsSeeked;\n    uint256 private _coupon;\n    uint256 private _minCoupon;\n    uint256 private _maxCoupon;\n    uint256 private _term;\n    uint256 private _totalCouponPayments;\n    uint256 private _couponsPaid = 0; // Zero in the beginning\n    uint256 private _totalDebt;\n    uint256 private _bidClosingTime;\n    uint256 private _issueDate;\n    uint256 private _maturityDate;\n    uint256 private _actualPrincipalPaymentDate = 0; // Initialise to 0\n    uint256 private _couponsPerYear;\n    // Dates for the agreed coupon payments\n    uint256[] private _couponPaymentDates;\n    // Dates when the actual couons were paid\n    uint256[] private _actualCouponPaymentDates;\n    \n    \n\n    mapping(address => uint256) _investedAmountPerInvestor;\n    mapping(address => uint256) _requestedBondsPerInvestor;\n    mapping(address => uint256) _couponPerInvestor;\n\n    mapping(uint256 => uint256) _bidsPerCoupon;\n    mapping(uint256 => address[]) _investorListAtCouponLevel;\n    mapping(address => mapping(uint256 => uint256)) _bidsPerInvestorAtCouponLevel;\n    mapping(address => bool) _biddedInvestors;\n\n    /**\n     * @dev Emitted when an investor registers initial investment request\n     */\n    event Investment(address investor, uint256 value, uint256 numberOfBonds);\n\n    /**\n     * @dev Emitted when coins are refunded to the investor in case there are\n            too many coins for the investment or to the company if they pay too much \n            with coupons / principal repayment\n     */\n    event CoinRefund(address account, uint256 value);\n\n    /**\n     * @dev Emitted when a coupon payment has been made\n     */\n    event CouponPayment(address investor, uint256 bondId);\n\n\n    /**\n     * @dev Emmitted when coupon payment is adjusted\n     */\n    event CouponAdjustment(uint256 from, uint256 to);\n    event CouponSet(uint256 coupon);\n    event CancelBondIssue(uint256 actualDemand, uint256 requestedDemand);\n    event Bid(address bidder, uint256 coupon, uint256 numberOfBonds);\n\n    /**\n     * @dev constructor, requires name and symbol for the bond,\n     * base URI for metadata, company address, facevalue for one bond / min investment\n     * coupon amount, investment window closing time\n     */\n    constructor(\n        address company,\n        string memory name,\n        string memory symbol,\n        uint256 numberOfBondsSeeked,\n        uint256 minCoupon,\n        uint256 maxCoupon,\n        uint256 bidClosingTime,\n        uint256 term,\n        uint256 couponsPerYear,\n        string memory baseBondURI\n    ) ERC721(name, symbol) {\n        require(company != address(0), \"Company address can not be 0x0\");\n        require(minCoupon >= 0, \"coupon can't be negative\");\n        require(\n            maxCoupon > minCoupon,\n            \"max coupon needs to be greater than min coupon\"\n        );\n        require(\n            bidClosingTime > block.timestamp,\n            \"Closing time can't be in the past\"\n        );\n        _owner = msg.sender;\n        _baseBondURI = baseBondURI;\n        _company = payable(company);\n        _value = 100; // Face value default at 100\n        _numberOfBondsSeeked = numberOfBondsSeeked;\n        _coupon = 0; // by default 0\n        _minCoupon = minCoupon;\n        _maxCoupon = maxCoupon;\n        _bidClosingTime = bidClosingTime;\n        _issueDate = _bidClosingTime + 1 weeks;\n        _term = term;\n        _couponsPerYear = couponsPerYear;\n        _totalCouponPayments = couponsPerYear * term;\n\n        _maturityDate = _issueDate + term * 365 days;\n\n        uint256 timeBetweenpayments = 365 days / couponsPerYear;\n\n        // Setting up the coupon payment dates\n        for (uint256 i = 1; i <= _totalCouponPayments; i++) {\n            _couponPaymentDates.push(_issueDate + timeBetweenpayments * i);\n            _actualCouponPaymentDates.push(0);\n        }\n    }\n\n    // Getter functions\n\n    function couponDefined() public view returns (bool) {\n        return _coupondefined;\n    }\n\n    function cancelled() public view returns (bool) {\n        return _cancelled;\n    }\n\n    function getCompany() public view returns (address) {\n        return _company;\n    }\n\n    function getFaceValue() public view returns (uint256) {\n        return _value;\n    }\n\n    function getName() public view returns (string memory) {\n        return name();\n    }\n\n    function getNumberOfBondsSeeked() public view returns (uint256) {\n        return _numberOfBondsSeeked;\n    }\n\n    function getCoupon() public view returns (uint256) {\n        return _coupon;\n    }\n\n    function getMinCoupon() public view returns (uint256) {\n        return _minCoupon;\n    }\n\n    function getMaxCoupon() public view returns (uint256) {\n        return _maxCoupon;\n    }\n\n    function getTerm() public view returns (uint256) {\n        return _term;\n    }\n\n    function getTotalDebt() public view returns (uint256) {\n        return _totalDebt;\n    }\n\n    function getBidClosingTime() external view returns (uint256) {\n        return _bidClosingTime;\n    }\n\n    function getIssueDate() public view returns (uint256) {\n        return _issueDate;\n    }\n\n    function getMaturityDate() public view returns (uint256) {\n        return _maturityDate;\n    }\n\n    function getCouponDate(uint256 number) public view returns (uint256) {\n        require(\n            number > 0 && number <= _totalCouponPayments,\n            \"No such coupon payment, check the number of coupon payments\"\n        );\n        return _couponPaymentDates[number - 1];\n    }\n\n    function getActualCouponDate(uint256 number) public view returns (uint256) {\n        require(\n            number > 0 && number <= _totalCouponPayments,\n            \"No such coupon payment, check the number of coupon payments\"\n        );\n        return _actualCouponPaymentDates[number - 1];\n    }\n\n    function getCouponDates() public view returns (uint256[] memory) {\n        return _couponPaymentDates;\n    }\n\n    function getActualPricipalPaymentDate() public view returns (uint256) {\n        return _actualPrincipalPaymentDate;\n    }\n\n    function numberOfInvestors() public view returns (uint256) {\n        return _initialInvestors.length;\n    }\n\n    function bondCount() public view returns (uint256) {\n        return _bondIdTracker.current();\n    }\n\n\n    function _baseURI() internal view override returns (string memory) {\n        return _baseBondURI;\n    }\n\n    function getInvestedAmountPerInvestor(address investor)\n        external\n        view\n        returns (uint256)\n    {\n        return _investedAmountPerInvestor[investor];\n    }\n\n    function getRequestedBondsPerInvestor(address investor)\n        external\n        view\n        returns(uint256)\n    {\n        return _requestedBondsPerInvestor[investor];\n    }\n\n    function getCouponPerInvestor(address investor)\n        external\n        view\n        returns(uint256)\n    {\n        return _couponPerInvestor[investor];\n    }\n\n    // Needed to override this function as two parent classes defined the same function\n    function supportsInterface(bytes4 interfaceId)\n        public\n        view\n        virtual\n        override(ERC721)\n        returns (bool)\n    {\n        return super.supportsInterface(interfaceId);\n    }\n\n    // Function for investors to register their bids\n    function registerBid(uint256 coupon, uint256 numberOfBonds)\n        external\n        payable\n        onlyWhileBiddingWindowOpen\n    {\n        require(\n            coupon >= _minCoupon && coupon <= _maxCoupon,\n            \"Coupon needs to be between the set range\"\n        );\n        require(\n            msg.value >= _value * numberOfBonds,\n            \"Not enough coins deposited for the bid\"\n        );\n        require(\n            _biddedInvestors[msg.sender] == false,\n            \"Only one bid per investor\"\n        );\n\n        _biddedInvestors[msg.sender] = true;\n        _requestedBondsPerInvestor[msg.sender] = numberOfBonds;\n\n        // Update the demand for the coupon level\n        uint256 currentDemand = _bidsPerCoupon[coupon];\n        _bidsPerCoupon[coupon] = currentDemand + numberOfBonds;\n        _couponPerInvestor[msg.sender] = coupon;\n\n        // Add the investor to the list if not already on the list\n        uint256 currentAmountInvested = _bidsPerInvestorAtCouponLevel[\n            msg.sender\n        ][coupon];\n        if (currentAmountInvested == 0) {\n            _investorListAtCouponLevel[coupon].push(msg.sender);\n        }\n\n        // Update the mapping\n        _bidsPerInvestorAtCouponLevel[msg.sender][coupon] =\n            numberOfBonds +\n            currentAmountInvested;\n\n        _investedAmountPerInvestor[msg.sender] = _value * numberOfBonds;\n\n        // Emit event\n        emit Bid(msg.sender, coupon, numberOfBonds);\n\n        // Refund if overpaid\n        if (msg.value > _value * numberOfBonds) {\n            uint256 extraAmount = msg.value - _value * numberOfBonds;\n            payable(msg.sender).transfer(extraAmount);\n            emit CoinRefund(msg.sender, extraAmount);\n        }\n    }\n\n    // Function for issuer to define coupon\n    // Finds the lowest coupon that fullfills the demand\n    // Returns the defined coupon\n    function defineCoupon()\n        public\n        onlyWhileBiddingWindowClosed\n        onlyOwner\n        returns (uint256)\n    {\n        // Variable for the total demand for tokens\n        uint256 tokenDemand = 0;\n\n        // Iterate each coupon level, and count the token demand to\n        // determine the coupon level which will fulfills the seeked number of bonds\n        for (uint256 i = _minCoupon; i <= _maxCoupon; i++) {\n            // Increase the tokendemand\n            tokenDemand += _bidsPerCoupon[i];\n            // If enough interest at this coupon level, set coupon and break the loop\n            if (tokenDemand >= _numberOfBondsSeeked) {\n                _coupon = i;\n                break;\n            }\n        }\n\n        if (_coupon > 0) {\n            emit CouponSet(_coupon);\n            _coupondefined = true;\n            setInvestroArray();\n        } else {\n            emit CancelBondIssue(tokenDemand, _numberOfBondsSeeked);\n            _cancelled = true;\n        }\n\n        // Refund unsuccessful investors\n        refundBiddersFromCouponLevel(_coupon + 1);\n\n        return _coupon;\n    }\n\n    function setInvestroArray() internal {\n        for (uint256 i = _minCoupon; i <= _coupon; i++) {\n            address[] memory investors = getBiddersAtCoupon(i);\n            for (uint256 j = 0; j < investors.length; j++) {\n                _initialInvestors.push(investors[j]);\n            }\n        }\n    }\n\n    function getBiddersAtCoupon(uint256 coupon)\n        public\n        view\n        returns (address[] memory)\n    {\n        require(\n            coupon >= _minCoupon && coupon <= _maxCoupon,\n            \"Coupon not in range\"\n        );\n        return _investorListAtCouponLevel[coupon];\n    }\n\n    function getNumberOfCouponsPaid() public view returns (uint256) {\n        return _couponsPaid;\n    }\n\n    function getNumberOfCoupons() public view returns (uint256) {\n        return _totalCouponPayments;\n    }\n\n    // Function to refund unsuccessful bidders when coupon is defined\n    function refundBiddersFromCouponLevel(uint256 coupon) internal {\n        for (uint256 i = coupon; i <= _maxCoupon; i++) {\n            address[] memory investors = getBiddersAtCoupon(i);\n            for (uint256 j = 0; j < investors.length; j++) {\n                address investor = investors[j];\n                uint256 amount = _bidsPerInvestorAtCouponLevel[investor][i];\n                payable(investor).transfer(_value * amount);\n                emit CoinRefund(investor, amount * _value);\n            }\n        }\n    }\n\n    // Just for testing\n    function getInvestorBalance(address investor)\n        public\n        view\n        returns (uint256)\n    {\n        require(investor != address(0), \"Balance query for the zero address\");\n        return _investedAmountPerInvestor[investor];\n    }\n\n    // Return true if the investment window is open, false otherwise.\n    function biddingWindowisOpen() public view returns (bool) {\n        return block.timestamp <= _bidClosingTime;\n    }\n\n    /**\n     * @dev Function to issue bonds for investors who have registered \n        Assumes all investors will get the requested investment\n        Can be called only when investment window is closed and the contract is unpaused\n     */\n\n    function issueBonds()\n        public\n        onlyWhileBiddingWindowClosed\n        onlyOwner\n    {\n        require(\n            _coupondefined == true,\n            \"can not issue bonds if the coupon has not been defined\"\n        );\n\n        uint256 bondsAvailable = _numberOfBondsSeeked;\n\n        // Go through the investors\n        for (uint256 i = 0; i < _initialInvestors.length; i++) {\n            address investor = _initialInvestors[i];\n            uint256 numberOfBonds = _requestedBondsPerInvestor[investor];\n\n            // If the demanded amount is more than bonds available\n            if (numberOfBonds > bondsAvailable) {\n                // Transfer the value to company\n                _company.transfer(_value * bondsAvailable);\n                _totalDebt += _value * bondsAvailable;\n\n                for (uint256 j = 0; j < bondsAvailable; j++) {\n                    _mint(investor, _bondIdTracker.current());\n                    _bondIdTracker.increment();\n                }\n\n                // Refund extra amount\n                uint256 balance = _investedAmountPerInvestor[investor];\n                _investedAmountPerInvestor[investor] =\n                    balance -\n                    _value *\n                    bondsAvailable;\n                uint256 refund = _investedAmountPerInvestor[investor];\n                payable(investor).transfer(refund);\n                emit CoinRefund(investor, refund);\n\n                // Set bonds available to 0\n                bondsAvailable = 0;\n\n                // Else, fulfill the whole demans\n            } else {\n                _company.transfer(_value * numberOfBonds);\n                _totalDebt += _value * numberOfBonds;\n                for (uint256 j = 0; j < numberOfBonds; j++) {\n                    _mint(investor, _bondIdTracker.current());\n                    _bondIdTracker.increment();\n                }\n                \n                bondsAvailable -= numberOfBonds;\n            }\n            // Update Investor balance to 0\n            _investedAmountPerInvestor[investor] = 0;\n        }\n    }\n\n    // Function for the borrowing company to pay coupons\n    function payCoupons() public payable {\n        // Message needs to have enough value for the copupon payments\n        require(\n            msg.sender == _company,\n            \"Coupon payment should come from the borrowing company\"\n        );\n        require(\n            msg.value >= _coupon * _bondIdTracker.current(),\n            \"Not enough coins for coupons\"\n        );\n\n        // Prevents company from paying extra coupons\n        require(\n            _couponsPaid < _totalCouponPayments,\n            \"All coupon payments have already been made\"\n        );\n\n        for (uint256 i = 0; i < _bondIdTracker.current(); i++) {\n            address payable investor = payable(ownerOf(i));\n            investor.transfer(_coupon);\n            emit CouponPayment(investor, i);\n        }\n\n        // Update coupon payment date\n        _actualCouponPaymentDates[_couponsPaid] = block.timestamp;\n        _couponsPaid++;\n\n        // Refund extra coins if paid too much\n        if (msg.value > _coupon * _bondIdTracker.current()) {\n            uint256 extraAmount = msg.value -\n                _coupon *\n                _bondIdTracker.current();\n            payable(msg.sender).transfer(extraAmount);\n            emit CoinRefund(msg.sender, extraAmount);\n        }\n    }\n\n    function couponPaymentOnTime(uint256 coupon) public view returns (string memory) {\n        if(coupon < 1 || coupon > _totalCouponPayments) {\n            return \"Than coupon does not exists.\";\n        }\n        // Before the due date\n        if (block.timestamp < _couponPaymentDates[coupon - 1]) {\n            if(_actualCouponPaymentDates[coupon - 1] != 0) {\n                return \"Coupon paid early.\";\n            }\n            else {\n                return \"Coupon not due yet.\";\n            }\n        }\n        // After the due date\n        else {\n            if(_actualCouponPaymentDates[coupon - 1] == 0) {\n                return \"Coupon payment is late.\";\n            }\n            else if(_actualCouponPaymentDates[coupon - 1] <= _couponPaymentDates[coupon - 1]) {\n                return \"Coupon paid on time.\";\n            }\n            \n            else {\n                return \"Coupon paid late.\";\n            }\n        }\n    }\n    /*\n    function couponPaymentMadeOnTime(uint256 coupon)\n        public\n        view\n        returns (bool)\n    {\n        require(\n            coupon >= 1 && coupon <= _totalCouponPayments,\n            \"That coupon does not exists\"\n        );\n        require(\n            block.timestamp > _couponPaymentDates[coupon - 1],\n            \"Coupon not due yet\"\n        );\n\n        if (_actualCouponPaymentDates[coupon - 1] == 0) {\n            return false;\n        }\n        // Coupon payment made before or by the agreed data\n        else if (\n            _actualCouponPaymentDates[coupon - 1] <=\n            _couponPaymentDates[coupon - 1]\n        ) {\n            return true;\n        } else {\n            return false;\n        }\n    }\n    */\n\n    // This function should be called by the borrowing company\n    function payBackBond() public payable {\n        require(\n            msg.sender == _company,\n            \"Paying company should be the borrowing company\"\n        );\n        require(\n            msg.value >= _totalDebt,\n            \"Not enough coins to settle the bond at maturity\"\n        );\n\n        // Interate through the bonds\n        uint256 numberOfBonds = _bondIdTracker.current();\n        for (uint256 i = 0; i < numberOfBonds; i++) {\n            address payable investor = payable(ownerOf(i));\n            // Transfer bond from investor to owner\n            bondTransfer(investor, _owner, i);\n            // Return funds\n            investor.transfer(_value);\n            // Decrement the values\n            _totalDebt = _totalDebt - _value;\n            _bondIdTracker.decrement();\n        }\n\n        // Set the payment date\n        _actualPrincipalPaymentDate = block.timestamp;\n\n        // Refund coins there is extra money on the contract\n        if (address(this).balance > 0 && msg.value > _totalDebt) {\n            uint256 extraAmount = msg.value - _totalDebt;\n            if (address(this).balance < extraAmount) {\n                uint256 amount = address(this).balance;\n                payable(msg.sender).transfer(amount);\n                emit CoinRefund(msg.sender, amount);\n            } else {\n                payable(msg.sender).transfer(extraAmount);\n                emit CoinRefund(msg.sender, extraAmount);\n            }\n        }\n    }\n\n    function principalPaidOnTime() public view returns (string memory) {\n        // Before due date\n        if(block.timestamp < _maturityDate) {\n            if (_actualPrincipalPaymentDate == 0) {\n                return \"Principal Payment is not due yet.\";\n            } else {\n                return \"Principal was paid back early.\";\n            }\n        }\n        // After\n        else {\n            if(_actualPrincipalPaymentDate == 0) {\n                return \"Principal payment is late.\";\n            }\n            else if(_actualPrincipalPaymentDate <= _maturityDate) {\n                return \"Principal was paid back on time.\";\n            }\n            else {\n                return \"Principal was paid back late.\";\n            }\n        }\n    }\n    /*\n    // Checks if the principal amount was paid back on time\n    function principalPaymentMadeOnTime() public view returns (bool) {\n        require(block.timestamp > _maturityDate, \"Bond has not matured yet\");\n        if (_actualPrincipalPaymentDate == 0) {\n            return false;\n        } else if (_actualPrincipalPaymentDate > _maturityDate) {\n            return false;\n        } else {\n            return true;\n        }\n    }\n    */\n\n    // Internal function to transer the bonds\n    function bondTransfer(\n        address from,\n        address to,\n        uint256 bondId\n    ) internal {\n        _transfer(from, to, bondId);\n    }\n\n    /**\n     * Function to adjust the coupon\n     */\n    function adjustCoupon(bool increase, uint256 amount) external onlyOwner {\n        uint256 previousCoupon = _coupon;\n        if (increase) {\n            _coupon = _coupon + amount;\n        } else {\n            require(amount <= _coupon, \"Coupon payment can't be negative\");\n            _coupon = _coupon - amount;\n        }\n        emit CouponAdjustment(previousCoupon, _coupon);\n    }\n}\n",
  "sourcePath": "/Users/leena/Documents/Coding/Blockchain_Green_Bonds/testProjects/OZ_test/contracts/GreenBond2.sol",
  "compiler": {
    "name": "solc",
    "version": "0.8.0+commit.c7dfd78e.Emscripten.clang"
  },
  "schemaVersion": "3.4.1",
  "updatedAt": "2021-07-30T10:56:27.706Z",
  "networkType": "ethereum",
  "devdoc": {
    "events": {
      "CoinRefund(address,uint256)": {
        "details": "Emitted when coins are refunded to the investor in case there are too many coins for the investment or to the company if they pay too much  with coupons / principal repayment"
      },
      "CouponAdjustment(uint256,uint256)": {
        "details": "Emmitted when coupon payment is adjusted"
      },
      "CouponPayment(address,uint256)": {
        "details": "Emitted when a coupon payment has been made"
      },
      "Investment(address,uint256,uint256)": {
        "details": "Emitted when an investor registers initial investment request"
      }
    },
    "kind": "dev",
    "methods": {
      "approve(address,uint256)": {
        "details": "See {IERC721-approve}."
      },
      "balanceOf(address)": {
        "details": "See {IERC721-balanceOf}."
      },
      "constructor": {
        "details": "constructor, requires name and symbol for the bond, base URI for metadata, company address, facevalue for one bond / min investment coupon amount, investment window closing time"
      },
      "getApproved(uint256)": {
        "details": "See {IERC721-getApproved}."
      },
      "isApprovedForAll(address,address)": {
        "details": "See {IERC721-isApprovedForAll}."
      },
      "issueBonds()": {
        "details": "Function to issue bonds for investors who have registered  Assumes all investors will get the requested investment Can be called only when investment window is closed and the contract is unpaused"
      },
      "name()": {
        "details": "See {IERC721Metadata-name}."
      },
      "owner()": {
        "details": "Returns the address of the current owner."
      },
      "ownerOf(uint256)": {
        "details": "See {IERC721-ownerOf}."
      },
      "renounceOwnership()": {
        "details": "Leaves the contract without owner. It will not be possible to call `onlyOwner` functions anymore. Can only be called by the current owner. NOTE: Renouncing ownership will leave the contract without an owner, thereby removing any functionality that is only available to the owner."
      },
      "safeTransferFrom(address,address,uint256)": {
        "details": "See {IERC721-safeTransferFrom}."
      },
      "safeTransferFrom(address,address,uint256,bytes)": {
        "details": "See {IERC721-safeTransferFrom}."
      },
      "setApprovalForAll(address,bool)": {
        "details": "See {IERC721-setApprovalForAll}."
      },
      "supportsInterface(bytes4)": {
        "details": "See {IERC165-supportsInterface}."
      },
      "symbol()": {
        "details": "See {IERC721Metadata-symbol}."
      },
      "tokenURI(uint256)": {
        "details": "See {IERC721Metadata-tokenURI}."
      },
      "transferFrom(address,address,uint256)": {
        "details": "See {IERC721-transferFrom}."
      },
      "transferOwnership(address)": {
        "details": "Transfers ownership of the contract to a new account (`newOwner`). Can only be called by the current owner."
      }
    },
    "version": 1
  },
  "userdoc": {
    "kind": "user",
    "methods": {
      "adjustCoupon(bool,uint256)": {
        "notice": "Function to adjust the coupon"
      }
    },
    "version": 1
  }
}