{
  "contractName": "GreenBond",
  "abi": [
    {
      "inputs": [
        {
          "internalType": "string",
          "name": "name",
          "type": "string"
        },
        {
          "internalType": "string",
          "name": "symbol",
          "type": "string"
        },
        {
          "internalType": "string",
          "name": "baseBondURI",
          "type": "string"
        },
        {
          "internalType": "address",
          "name": "company",
          "type": "address"
        },
        {
          "internalType": "uint256",
          "name": "value",
          "type": "uint256"
        },
        {
          "internalType": "uint256",
          "name": "coupon",
          "type": "uint256"
        },
        {
          "internalType": "uint256",
          "name": "issueDate",
          "type": "uint256"
        },
        {
          "internalType": "uint256",
          "name": "term",
          "type": "uint256"
        },
        {
          "internalType": "uint256",
          "name": "couponsPerYear",
          "type": "uint256"
        }
      ],
      "stateMutability": "nonpayable",
      "type": "constructor"
    },
    {
      "anonymous": false,
      "inputs": [
        {
          "indexed": true,
          "internalType": "address",
          "name": "owner",
          "type": "address"
        },
        {
          "indexed": true,
          "internalType": "address",
          "name": "approved",
          "type": "address"
        },
        {
          "indexed": true,
          "internalType": "uint256",
          "name": "tokenId",
          "type": "uint256"
        }
      ],
      "name": "Approval",
      "type": "event"
    },
    {
      "anonymous": false,
      "inputs": [
        {
          "indexed": true,
          "internalType": "address",
          "name": "owner",
          "type": "address"
        },
        {
          "indexed": true,
          "internalType": "address",
          "name": "operator",
          "type": "address"
        },
        {
          "indexed": false,
          "internalType": "bool",
          "name": "approved",
          "type": "bool"
        }
      ],
      "name": "ApprovalForAll",
      "type": "event"
    },
    {
      "anonymous": false,
      "inputs": [
        {
          "indexed": false,
          "internalType": "address",
          "name": "sender",
          "type": "address"
        },
        {
          "indexed": false,
          "internalType": "uint256",
          "name": "value",
          "type": "uint256"
        }
      ],
      "name": "CoinRefund",
      "type": "event"
    },
    {
      "anonymous": false,
      "inputs": [
        {
          "indexed": false,
          "internalType": "address",
          "name": "adjuster",
          "type": "address"
        },
        {
          "indexed": false,
          "internalType": "uint256",
          "name": "couponRate",
          "type": "uint256"
        }
      ],
      "name": "CouponAdjustment",
      "type": "event"
    },
    {
      "anonymous": false,
      "inputs": [
        {
          "indexed": false,
          "internalType": "address",
          "name": "investor",
          "type": "address"
        },
        {
          "indexed": false,
          "internalType": "uint256",
          "name": "bondId",
          "type": "uint256"
        }
      ],
      "name": "CouponPayment",
      "type": "event"
    },
    {
      "anonymous": false,
      "inputs": [
        {
          "indexed": false,
          "internalType": "address",
          "name": "investor",
          "type": "address"
        },
        {
          "indexed": false,
          "internalType": "uint256",
          "name": "value",
          "type": "uint256"
        },
        {
          "indexed": false,
          "internalType": "uint256",
          "name": "numberOfBonds",
          "type": "uint256"
        }
      ],
      "name": "Investment",
      "type": "event"
    },
    {
      "anonymous": false,
      "inputs": [
        {
          "indexed": true,
          "internalType": "address",
          "name": "previousOwner",
          "type": "address"
        },
        {
          "indexed": true,
          "internalType": "address",
          "name": "newOwner",
          "type": "address"
        }
      ],
      "name": "OwnershipTransferred",
      "type": "event"
    },
    {
      "anonymous": false,
      "inputs": [
        {
          "indexed": false,
          "internalType": "address",
          "name": "account",
          "type": "address"
        }
      ],
      "name": "Paused",
      "type": "event"
    },
    {
      "anonymous": false,
      "inputs": [
        {
          "indexed": true,
          "internalType": "address",
          "name": "from",
          "type": "address"
        },
        {
          "indexed": true,
          "internalType": "address",
          "name": "to",
          "type": "address"
        },
        {
          "indexed": true,
          "internalType": "uint256",
          "name": "tokenId",
          "type": "uint256"
        }
      ],
      "name": "Transfer",
      "type": "event"
    },
    {
      "anonymous": false,
      "inputs": [
        {
          "indexed": false,
          "internalType": "address",
          "name": "account",
          "type": "address"
        }
      ],
      "name": "Unpaused",
      "type": "event"
    },
    {
      "inputs": [
        {
          "internalType": "address",
          "name": "to",
          "type": "address"
        },
        {
          "internalType": "uint256",
          "name": "tokenId",
          "type": "uint256"
        }
      ],
      "name": "approve",
      "outputs": [],
      "stateMutability": "nonpayable",
      "type": "function"
    },
    {
      "inputs": [
        {
          "internalType": "address",
          "name": "owner",
          "type": "address"
        }
      ],
      "name": "balanceOf",
      "outputs": [
        {
          "internalType": "uint256",
          "name": "",
          "type": "uint256"
        }
      ],
      "stateMutability": "view",
      "type": "function",
      "constant": true
    },
    {
      "inputs": [
        {
          "internalType": "uint256",
          "name": "tokenId",
          "type": "uint256"
        }
      ],
      "name": "getApproved",
      "outputs": [
        {
          "internalType": "address",
          "name": "",
          "type": "address"
        }
      ],
      "stateMutability": "view",
      "type": "function",
      "constant": true
    },
    {
      "inputs": [
        {
          "internalType": "address",
          "name": "owner",
          "type": "address"
        },
        {
          "internalType": "address",
          "name": "operator",
          "type": "address"
        }
      ],
      "name": "isApprovedForAll",
      "outputs": [
        {
          "internalType": "bool",
          "name": "",
          "type": "bool"
        }
      ],
      "stateMutability": "view",
      "type": "function",
      "constant": true
    },
    {
      "inputs": [],
      "name": "name",
      "outputs": [
        {
          "internalType": "string",
          "name": "",
          "type": "string"
        }
      ],
      "stateMutability": "view",
      "type": "function",
      "constant": true
    },
    {
      "inputs": [],
      "name": "owner",
      "outputs": [
        {
          "internalType": "address",
          "name": "",
          "type": "address"
        }
      ],
      "stateMutability": "view",
      "type": "function",
      "constant": true
    },
    {
      "inputs": [
        {
          "internalType": "uint256",
          "name": "tokenId",
          "type": "uint256"
        }
      ],
      "name": "ownerOf",
      "outputs": [
        {
          "internalType": "address",
          "name": "",
          "type": "address"
        }
      ],
      "stateMutability": "view",
      "type": "function",
      "constant": true
    },
    {
      "inputs": [],
      "name": "renounceOwnership",
      "outputs": [],
      "stateMutability": "nonpayable",
      "type": "function"
    },
    {
      "inputs": [
        {
          "internalType": "address",
          "name": "from",
          "type": "address"
        },
        {
          "internalType": "address",
          "name": "to",
          "type": "address"
        },
        {
          "internalType": "uint256",
          "name": "tokenId",
          "type": "uint256"
        }
      ],
      "name": "safeTransferFrom",
      "outputs": [],
      "stateMutability": "nonpayable",
      "type": "function"
    },
    {
      "inputs": [
        {
          "internalType": "address",
          "name": "from",
          "type": "address"
        },
        {
          "internalType": "address",
          "name": "to",
          "type": "address"
        },
        {
          "internalType": "uint256",
          "name": "tokenId",
          "type": "uint256"
        },
        {
          "internalType": "bytes",
          "name": "_data",
          "type": "bytes"
        }
      ],
      "name": "safeTransferFrom",
      "outputs": [],
      "stateMutability": "nonpayable",
      "type": "function"
    },
    {
      "inputs": [
        {
          "internalType": "address",
          "name": "operator",
          "type": "address"
        },
        {
          "internalType": "bool",
          "name": "approved",
          "type": "bool"
        }
      ],
      "name": "setApprovalForAll",
      "outputs": [],
      "stateMutability": "nonpayable",
      "type": "function"
    },
    {
      "inputs": [],
      "name": "symbol",
      "outputs": [
        {
          "internalType": "string",
          "name": "",
          "type": "string"
        }
      ],
      "stateMutability": "view",
      "type": "function",
      "constant": true
    },
    {
      "inputs": [
        {
          "internalType": "uint256",
          "name": "tokenId",
          "type": "uint256"
        }
      ],
      "name": "tokenURI",
      "outputs": [
        {
          "internalType": "string",
          "name": "",
          "type": "string"
        }
      ],
      "stateMutability": "view",
      "type": "function",
      "constant": true
    },
    {
      "inputs": [
        {
          "internalType": "address",
          "name": "from",
          "type": "address"
        },
        {
          "internalType": "address",
          "name": "to",
          "type": "address"
        },
        {
          "internalType": "uint256",
          "name": "tokenId",
          "type": "uint256"
        }
      ],
      "name": "transferFrom",
      "outputs": [],
      "stateMutability": "nonpayable",
      "type": "function"
    },
    {
      "inputs": [
        {
          "internalType": "address",
          "name": "newOwner",
          "type": "address"
        }
      ],
      "name": "transferOwnership",
      "outputs": [],
      "stateMutability": "nonpayable",
      "type": "function"
    },
    {
      "inputs": [
        {
          "internalType": "address",
          "name": "regulator",
          "type": "address"
        }
      ],
      "name": "setRegulator",
      "outputs": [],
      "stateMutability": "nonpayable",
      "type": "function"
    },
    {
      "inputs": [
        {
          "internalType": "address",
          "name": "greenVerifier",
          "type": "address"
        }
      ],
      "name": "setGreenVerifier",
      "outputs": [],
      "stateMutability": "nonpayable",
      "type": "function"
    },
    {
      "inputs": [],
      "name": "getIssueDate",
      "outputs": [
        {
          "internalType": "uint256",
          "name": "",
          "type": "uint256"
        }
      ],
      "stateMutability": "view",
      "type": "function",
      "constant": true
    },
    {
      "inputs": [],
      "name": "getMaturityDate",
      "outputs": [
        {
          "internalType": "uint256",
          "name": "",
          "type": "uint256"
        }
      ],
      "stateMutability": "view",
      "type": "function",
      "constant": true
    },
    {
      "inputs": [],
      "name": "getTerm",
      "outputs": [
        {
          "internalType": "uint256",
          "name": "",
          "type": "uint256"
        }
      ],
      "stateMutability": "view",
      "type": "function",
      "constant": true
    },
    {
      "inputs": [
        {
          "internalType": "uint256",
          "name": "number",
          "type": "uint256"
        }
      ],
      "name": "getCouponDate",
      "outputs": [
        {
          "internalType": "uint256",
          "name": "",
          "type": "uint256"
        }
      ],
      "stateMutability": "view",
      "type": "function",
      "constant": true
    },
    {
      "inputs": [],
      "name": "getCouponDates",
      "outputs": [
        {
          "internalType": "uint256[]",
          "name": "",
          "type": "uint256[]"
        }
      ],
      "stateMutability": "view",
      "type": "function",
      "constant": true
    },
    {
      "inputs": [],
      "name": "getCompany",
      "outputs": [
        {
          "internalType": "address",
          "name": "",
          "type": "address"
        }
      ],
      "stateMutability": "view",
      "type": "function",
      "constant": true
    },
    {
      "inputs": [],
      "name": "getRegulator",
      "outputs": [
        {
          "internalType": "address",
          "name": "",
          "type": "address"
        }
      ],
      "stateMutability": "view",
      "type": "function",
      "constant": true
    },
    {
      "inputs": [],
      "name": "getGreenVerifier",
      "outputs": [
        {
          "internalType": "address",
          "name": "",
          "type": "address"
        }
      ],
      "stateMutability": "view",
      "type": "function",
      "constant": true
    },
    {
      "inputs": [],
      "name": "getFaceValue",
      "outputs": [
        {
          "internalType": "uint256",
          "name": "",
          "type": "uint256"
        }
      ],
      "stateMutability": "view",
      "type": "function",
      "constant": true
    },
    {
      "inputs": [],
      "name": "getCoupon",
      "outputs": [
        {
          "internalType": "uint256",
          "name": "",
          "type": "uint256"
        }
      ],
      "stateMutability": "view",
      "type": "function",
      "constant": true
    },
    {
      "inputs": [],
      "name": "getTotalDebt",
      "outputs": [
        {
          "internalType": "uint256",
          "name": "",
          "type": "uint256"
        }
      ],
      "stateMutability": "view",
      "type": "function",
      "constant": true
    },
    {
      "inputs": [],
      "name": "numberOfInvestors",
      "outputs": [
        {
          "internalType": "uint256",
          "name": "",
          "type": "uint256"
        }
      ],
      "stateMutability": "view",
      "type": "function",
      "constant": true
    },
    {
      "inputs": [],
      "name": "bondCount",
      "outputs": [
        {
          "internalType": "uint256",
          "name": "",
          "type": "uint256"
        }
      ],
      "stateMutability": "view",
      "type": "function",
      "constant": true
    },
    {
      "inputs": [],
      "name": "getName",
      "outputs": [
        {
          "internalType": "string",
          "name": "",
          "type": "string"
        }
      ],
      "stateMutability": "view",
      "type": "function",
      "constant": true
    },
    {
      "inputs": [
        {
          "internalType": "address",
          "name": "investor",
          "type": "address"
        }
      ],
      "name": "getInvestorBalance",
      "outputs": [
        {
          "internalType": "uint256",
          "name": "",
          "type": "uint256"
        }
      ],
      "stateMutability": "view",
      "type": "function",
      "constant": true
    },
    {
      "inputs": [],
      "name": "investmentWindowisOpen",
      "outputs": [
        {
          "internalType": "bool",
          "name": "",
          "type": "bool"
        }
      ],
      "stateMutability": "view",
      "type": "function",
      "constant": true
    },
    {
      "inputs": [
        {
          "internalType": "bytes4",
          "name": "interfaceId",
          "type": "bytes4"
        }
      ],
      "name": "supportsInterface",
      "outputs": [
        {
          "internalType": "bool",
          "name": "",
          "type": "bool"
        }
      ],
      "stateMutability": "view",
      "type": "function",
      "constant": true
    },
    {
      "inputs": [],
      "name": "couponPaymentsMadeOnTime",
      "outputs": [
        {
          "internalType": "bool",
          "name": "",
          "type": "bool"
        }
      ],
      "stateMutability": "view",
      "type": "function",
      "constant": true
    },
    {
      "inputs": [],
      "name": "principalPaymentMadeOnTime",
      "outputs": [
        {
          "internalType": "bool",
          "name": "",
          "type": "bool"
        }
      ],
      "stateMutability": "view",
      "type": "function",
      "constant": true
    },
    {
      "inputs": [
        {
          "internalType": "uint256",
          "name": "number",
          "type": "uint256"
        }
      ],
      "name": "registerInvestment",
      "outputs": [],
      "stateMutability": "payable",
      "type": "function",
      "payable": true
    },
    {
      "inputs": [],
      "name": "issueBonds",
      "outputs": [],
      "stateMutability": "nonpayable",
      "type": "function"
    },
    {
      "inputs": [],
      "name": "returnInvestorMoney",
      "outputs": [],
      "stateMutability": "nonpayable",
      "type": "function"
    },
    {
      "inputs": [],
      "name": "payCoupons",
      "outputs": [],
      "stateMutability": "payable",
      "type": "function",
      "payable": true
    },
    {
      "inputs": [],
      "name": "payBackBond",
      "outputs": [],
      "stateMutability": "payable",
      "type": "function",
      "payable": true
    },
    {
      "inputs": [],
      "name": "paused",
      "outputs": [
        {
          "internalType": "bool",
          "name": "",
          "type": "bool"
        }
      ],
      "stateMutability": "view",
      "type": "function",
      "constant": true
    },
    {
      "inputs": [],
      "name": "pause",
      "outputs": [],
      "stateMutability": "nonpayable",
      "type": "function"
    },
    {
      "inputs": [],
      "name": "unpause",
      "outputs": [],
      "stateMutability": "nonpayable",
      "type": "function"
    },
    {
      "inputs": [
        {
          "internalType": "bool",
          "name": "increase",
          "type": "bool"
        },
        {
          "internalType": "uint256",
          "name": "amount",
          "type": "uint256"
        }
      ],
      "name": "adjustCoupon",
      "outputs": [],
      "stateMutability": "nonpayable",
      "type": "function"
    }
  ],
  "bytecode": "0x6080604052600060135560006017553480156200001b57600080fd5b506040516200613f3803806200613f833981810160405281019062000041919062000596565b888881600090805190602001906200005b92919062000446565b5080600190805190602001906200007492919062000446565b5050506000620000896200043e60201b60201c565b905080600660006101000a81548173ffffffffffffffffffffffffffffffffffffffff021916908373ffffffffffffffffffffffffffffffffffffffff1602179055508073ffffffffffffffffffffffffffffffffffffffff16600073ffffffffffffffffffffffffffffffffffffffff167f8be0079c531659141344cd1fd0a4f28419497f9722a3daafe3b4186f6b6457e060405160405180910390a350600073ffffffffffffffffffffffffffffffffffffffff168673ffffffffffffffffffffffffffffffffffffffff1614156200019b576040517f08c379a000000000000000000000000000000000000000000000000000000000815260040162000192906200084e565b60405180910390fd5b60008511620001e1576040517f08c379a0000000000000000000000000000000000000000000000000000000008152600401620001d8906200080a565b60405180910390fd5b600084101562000228576040517f08c379a00000000000000000000000000000000000000000000000000000000081526004016200021f90620007e8565b60405180910390fd5b4283116200026d576040517f08c379a000000000000000000000000000000000000000000000000000000000815260040162000264906200082c565b60405180910390fd5b33600b60006101000a81548173ffffffffffffffffffffffffffffffffffffffff021916908373ffffffffffffffffffffffffffffffffffffffff1602179055508660089080519060200190620002c692919062000446565b5085600c60006101000a81548173ffffffffffffffffffffffffffffffffffffffff021916908373ffffffffffffffffffffffffffffffffffffffff16021790555084600f81905550836010819055506000600960006101000a81548160ff02191690831515021790555082601581905550816011819055508060188190555081816200035491906200097d565b6012819055506301e13380826200036c91906200097d565b6015546200037b9190620008e8565b6016819055506000816301e1338062000395919062000945565b90506000600190505b60125481116200042d5760198183620003b891906200097d565b601554620003c79190620008e8565b9080600181540180825580915050600190039060005260206000200160009091909190915055601a600090806001815401808255809150506001900390600052602060002001600090919091909150558080620004249062000a88565b9150506200039e565b505050505050505050505062000bc6565b600033905090565b828054620004549062000a52565b90600052602060002090601f016020900481019282620004785760008555620004c4565b82601f106200049357805160ff1916838001178555620004c4565b82800160010185558215620004c4579182015b82811115620004c3578251825591602001919060010190620004a6565b5b509050620004d39190620004d7565b5090565b5b80821115620004f2576000816000905550600101620004d8565b5090565b60006200050d6200050784620008a4565b62000870565b9050828152602081018484840111156200052657600080fd5b6200053384828562000a1c565b509392505050565b6000815190506200054c8162000b92565b92915050565b600082601f8301126200056457600080fd5b815162000576848260208601620004f6565b91505092915050565b600081519050620005908162000bac565b92915050565b60008060008060008060008060006101208a8c031215620005b657600080fd5b60008a015167ffffffffffffffff811115620005d157600080fd5b620005df8c828d0162000552565b99505060208a015167ffffffffffffffff811115620005fd57600080fd5b6200060b8c828d0162000552565b98505060408a015167ffffffffffffffff8111156200062957600080fd5b620006378c828d0162000552565b97505060606200064a8c828d016200053b565b96505060806200065d8c828d016200057f565b95505060a0620006708c828d016200057f565b94505060c0620006838c828d016200057f565b93505060e0620006968c828d016200057f565b925050610100620006aa8c828d016200057f565b9150509295985092959850929598565b6000620006c9602083620008d7565b91507f436f75706f6e207061796d656e742063616e2774206265206e656761746976656000830152602082019050919050565b60006200070b601283620008d7565b91507f56616c75652063616e206e6f74206265203000000000000000000000000000006000830152602082019050919050565b60006200074d602183620008d7565b91507f436c6f73696e672074696d652063616e277420626520696e207468652070617360008301527f74000000000000000000000000000000000000000000000000000000000000006020830152604082019050919050565b6000620007b5601e83620008d7565b91507f436f6d70616e7920616464726573732063616e206e6f742062652030783000006000830152602082019050919050565b600060208201905081810360008301526200080381620006ba565b9050919050565b600060208201905081810360008301526200082581620006fc565b9050919050565b6000602082019050818103600083015262000847816200073e565b9050919050565b600060208201905081810360008301526200086981620007a6565b9050919050565b6000604051905081810181811067ffffffffffffffff821117156200089a576200089962000b63565b5b8060405250919050565b600067ffffffffffffffff821115620008c257620008c162000b63565b5b601f19601f8301169050602081019050919050565b600082825260208201905092915050565b6000620008f58262000a12565b9150620009028362000a12565b9250827fffffffffffffffffffffffffffffffffffffffffffffffffffffffffffffffff038211156200093a576200093962000ad6565b5b828201905092915050565b6000620009528262000a12565b91506200095f8362000a12565b92508262000972576200097162000b05565b5b828204905092915050565b60006200098a8262000a12565b9150620009978362000a12565b9250817fffffffffffffffffffffffffffffffffffffffffffffffffffffffffffffffff0483118215151615620009d357620009d262000ad6565b5b828202905092915050565b6000620009eb82620009f2565b9050919050565b600073ffffffffffffffffffffffffffffffffffffffff82169050919050565b6000819050919050565b60005b8381101562000a3c57808201518184015260208101905062000a1f565b8381111562000a4c576000848401525b50505050565b6000600282049050600182168062000a6b57607f821691505b6020821081141562000a825762000a8162000b34565b5b50919050565b600062000a958262000a12565b91507fffffffffffffffffffffffffffffffffffffffffffffffffffffffffffffffff82141562000acb5762000aca62000ad6565b5b600182019050919050565b7f4e487b7100000000000000000000000000000000000000000000000000000000600052601160045260246000fd5b7f4e487b7100000000000000000000000000000000000000000000000000000000600052601260045260246000fd5b7f4e487b7100000000000000000000000000000000000000000000000000000000600052602260045260246000fd5b7f4e487b7100000000000000000000000000000000000000000000000000000000600052604160045260246000fd5b62000b9d81620009de565b811462000ba957600080fd5b50565b62000bb78162000a12565b811462000bc357600080fd5b50565b6155698062000bd66000396000f3fe6080604052600436106102715760003560e01c80636f3ed9d71161014f578063b88d4fde116100c1578063e7940d231161007a578063e7940d23146108ac578063e985e9c5146108d7578063ec18efc414610914578063efd8672914610951578063f2fde38b1461097a578063f7e317f4146109a357610271565b8063b88d4fde1461079c578063c87b56dd146107c5578063cde0a4f814610802578063d24f84b11461082b578063d4fc7cd914610856578063e050a3061461088157610271565b80638da5cb5b116101135780638da5cb5b146106b05780638edd4d24146106db57806395d89b41146107065780639737fcff14610731578063a22cb4651461075c578063b57e8a1f1461078557610271565b80636f3ed9d7146105f157806370a082311461061c578063715018a6146106595780638456cb59146106705780638a06a3641461068757610271565b80631af2c9fd116101e85780634a513801116101ac5780634a513801146105215780634cff6c0e1461052b5780635c975abb146105355780635ea639131461056057806361c49ebf1461059d5780636352211e146105b457610271565b80631af2c9fd1461046257806323b872dd1461048d57806334ce998a146104b65780633f4ba83a146104e157806342842e0e146104f857610271565b8063081812fc1161023a578063081812fc14610350578063095ea7b31461038d578063124b65b4146103b6578063127810bc146103e157806313cc97ec1461040c57806317d7de7c1461043757610271565b806283db4b1461027657806301ffc9a71461029257806306fdde03146102cf57806307634cbe146102fa578063077adbce14610325575b600080fd5b610290600480360381019061028b9190613d4d565b6109ce565b005b34801561029e57600080fd5b506102b960048036038101906102b49190613cfb565b610c71565b6040516102c69190614bc8565b60405180910390f35b3480156102db57600080fd5b506102e4610c83565b6040516102f19190614be3565b60405180910390f35b34801561030657600080fd5b5061030f610d15565b60405161031c9190615065565b60405180910390f35b34801561033157600080fd5b5061033a610d1f565b6040516103479190614bc8565b60405180910390f35b34801561035c57600080fd5b5061037760048036038101906103729190613d4d565b610d2c565b6040516103849190614ab6565b60405180910390f35b34801561039957600080fd5b506103b460048036038101906103af9190613c83565b610db1565b005b3480156103c257600080fd5b506103cb610ec9565b6040516103d89190615065565b60405180910390f35b3480156103ed57600080fd5b506103f6610ed3565b6040516104039190614ab6565b60405180910390f35b34801561041857600080fd5b50610421610efd565b60405161042e9190614bc8565b60405180910390f35b34801561044357600080fd5b5061044c61107b565b6040516104599190614be3565b60405180910390f35b34801561046e57600080fd5b5061047761108a565b6040516104849190615065565b60405180910390f35b34801561049957600080fd5b506104b460048036038101906104af9190613b7d565b611097565b005b3480156104c257600080fd5b506104cb6110f7565b6040516104d89190615065565b60405180910390f35b3480156104ed57600080fd5b506104f6611101565b005b34801561050457600080fd5b5061051f600480360381019061051a9190613b7d565b61123b565b005b61052961125b565b005b61053361156d565b005b34801561054157600080fd5b5061054a61185b565b6040516105579190614bc8565b60405180910390f35b34801561056c57600080fd5b5061058760048036038101906105829190613b18565b611872565b6040516105949190615065565b60405180910390f35b3480156105a957600080fd5b506105b261192a565b005b3480156105c057600080fd5b506105db60048036038101906105d69190613d4d565b611e07565b6040516105e89190614ab6565b60405180910390f35b3480156105fd57600080fd5b50610606611eb9565b6040516106139190615065565b60405180910390f35b34801561062857600080fd5b50610643600480360381019061063e9190613b18565b611ec3565b6040516106509190615065565b60405180910390f35b34801561066557600080fd5b5061066e611f7b565b005b34801561067c57600080fd5b506106856120b8565b005b34801561069357600080fd5b506106ae60048036038101906106a99190613b18565b6121f3565b005b3480156106bc57600080fd5b506106c56122b3565b6040516106d29190614ab6565b60405180910390f35b3480156106e757600080fd5b506106f06122dd565b6040516106fd9190615065565b60405180910390f35b34801561071257600080fd5b5061071b6122ee565b6040516107289190614be3565b60405180910390f35b34801561073d57600080fd5b50610746612380565b6040516107539190615065565b60405180910390f35b34801561076857600080fd5b50610783600480360381019061077e9190613c47565b61238a565b005b34801561079157600080fd5b5061079a61250b565b005b3480156107a857600080fd5b506107c360048036038101906107be9190613bcc565b612700565b005b3480156107d157600080fd5b506107ec60048036038101906107e79190613d4d565b612762565b6040516107f99190614be3565b60405180910390f35b34801561080e57600080fd5b5061082960048036038101906108249190613b18565b612809565b005b34801561083757600080fd5b506108406128c9565b60405161084d9190614ba6565b60405180910390f35b34801561086257600080fd5b5061086b612921565b6040516108789190615065565b60405180910390f35b34801561088d57600080fd5b5061089661292b565b6040516108a39190614bc8565b60405180910390f35b3480156108b857600080fd5b506108c161299c565b6040516108ce9190614ab6565b60405180910390f35b3480156108e357600080fd5b506108fe60048036038101906108f99190613b41565b6129c6565b60405161090b9190614bc8565b60405180910390f35b34801561092057600080fd5b5061093b60048036038101906109369190613d4d565b612a5a565b6040516109489190615065565b60405180910390f35b34801561095d57600080fd5b5061097860048036038101906109739190613cbf565b612b04565b005b34801561098657600080fd5b506109a1600480360381019061099c9190613b18565b612c16565b005b3480156109af57600080fd5b506109b8612dc2565b6040516109c59190614ab6565b60405180910390f35b6109d6610d1f565b610a15576040517f08c379a0000000000000000000000000000000000000000000000000000000008152600401610a0c90615025565b60405180910390fd5b600f5481610a2391906151e4565b341015610a65576040517f08c379a0000000000000000000000000000000000000000000000000000000008152600401610a5c90615045565b60405180910390fd5b6000601b60003373ffffffffffffffffffffffffffffffffffffffff1673ffffffffffffffffffffffffffffffffffffffff168152602001908152602001600020541415610b1157600a339080600181540180825580915050600190039060005260206000200160009091909190916101000a81548173ffffffffffffffffffffffffffffffffffffffff021916908373ffffffffffffffffffffffffffffffffffffffff1602179055505b6000601b60003373ffffffffffffffffffffffffffffffffffffffff1673ffffffffffffffffffffffffffffffffffffffff1681526020019081526020016000205490503481610b61919061515d565b601b60003373ffffffffffffffffffffffffffffffffffffffff1673ffffffffffffffffffffffffffffffffffffffff1681526020019081526020016000208190555081601c60003373ffffffffffffffffffffffffffffffffffffffff1673ffffffffffffffffffffffffffffffffffffffff16815260200190815260200160002054610bef919061515d565b601c60003373ffffffffffffffffffffffffffffffffffffffff1673ffffffffffffffffffffffffffffffffffffffff168152602001908152602001600020819055507f8514357b17ccbde354811f827b94585a7ab01b4034aa86a807b7cc2c100b7be8333484604051610c6593929190614b6f565b60405180910390a15050565b6000610c7c82612dec565b9050919050565b606060008054610c929061535e565b80601f0160208091040260200160405190810160405280929190818152602001828054610cbe9061535e565b8015610d0b5780601f10610ce057610100808354040283529160200191610d0b565b820191906000526020600020905b815481529060010190602001808311610cee57829003601f168201915b5050505050905090565b6000601054905090565b6000601554421115905090565b6000610d3782612ece565b610d76576040517f08c379a0000000000000000000000000000000000000000000000000000000008152600401610d6d90614ec5565b60405180910390fd5b6004600083815260200190815260200160002060009054906101000a900473ffffffffffffffffffffffffffffffffffffffff169050919050565b6000610dbc82611e07565b90508073ffffffffffffffffffffffffffffffffffffffff168373ffffffffffffffffffffffffffffffffffffffff161415610e2d576040517f08c379a0000000000000000000000000000000000000000000000000000000008152600401610e2490614f85565b60405180910390fd5b8073ffffffffffffffffffffffffffffffffffffffff16610e4c612f3a565b73ffffffffffffffffffffffffffffffffffffffff161480610e7b5750610e7a81610e75612f3a565b6129c6565b5b610eba576040517f08c379a0000000000000000000000000000000000000000000000000000000008152600401610eb190614e25565b60405180910390fd5b610ec48383612f42565b505050565b6000601154905090565b6000600c60009054906101000a900473ffffffffffffffffffffffffffffffffffffffff16905090565b600080600090505b6019805490508110156110725760198181548110610f4c577f4e487b7100000000000000000000000000000000000000000000000000000000600052603260045260246000fd5b9060005260206000200154421015610f68576001915050611078565b6201518060198281548110610fa6577f4e487b7100000000000000000000000000000000000000000000000000000000600052603260045260246000fd5b9060005260206000200154610fbb919061515d565b601a8281548110610ff5577f4e487b7100000000000000000000000000000000000000000000000000000000600052603260045260246000fd5b9060005260206000200154118061105057506000601a8281548110611043577f4e487b7100000000000000000000000000000000000000000000000000000000600052603260045260246000fd5b9060005260206000200154145b1561105f576000915050611078565b808061106a90615390565b915050610f05565b50600190505b90565b6060611085610c83565b905090565b6000600a80549050905090565b6110a86110a2612f3a565b82612ffb565b6110e7576040517f08c379a00000000000000000000000000000000000000000000000000000000081526004016110de90614fc5565b60405180910390fd5b6110f28383836130d9565b505050565b6000601454905090565b600960009054906101000a900460ff16611150576040517f08c379a000000000000000000000000000000000000000000000000000000000815260040161114790614c25565b60405180910390fd5b600d60009054906101000a900473ffffffffffffffffffffffffffffffffffffffff1673ffffffffffffffffffffffffffffffffffffffff163373ffffffffffffffffffffffffffffffffffffffff16146111e0576040517f08c379a00000000000000000000000000000000000000000000000000000000081526004016111d790614c85565b60405180910390fd5b6000600960006101000a81548160ff0219169083151502179055507f5db9ee0a495bf2e6ff9c91a7834c1ba4fdd244a5e8aa4e537bd38aeae4b073aa611224612f3a565b6040516112319190614ab6565b60405180910390a1565b61125683838360405180602001604052806000815250612700565b505050565b600c60009054906101000a900473ffffffffffffffffffffffffffffffffffffffff1673ffffffffffffffffffffffffffffffffffffffff163373ffffffffffffffffffffffffffffffffffffffff16146112eb576040517f08c379a00000000000000000000000000000000000000000000000000000000081526004016112e290614e85565b60405180910390fd5b6112f56007613335565b60105461130291906151e4565b341015611344576040517f08c379a000000000000000000000000000000000000000000000000000000000815260040161133b90614fa5565b60405180910390fd5b6012546013541061138a576040517f08c379a000000000000000000000000000000000000000000000000000000000815260040161138190614c05565b60405180910390fd5b60005b6113976007613335565b8110156114415760006113a982611e07565b90508073ffffffffffffffffffffffffffffffffffffffff166108fc6010549081150290604051600060405180830381858888f193505050501580156113f3573d6000803e3d6000fd5b507fb3224bc7c2e6157092b5f650cc8b06e5f0c34d8218b6e9a1a5a39c2e43706e408183604051611425929190614ad1565b60405180910390a150808061143990615390565b91505061138d565b5042601a6013548154811061147f577f4e487b7100000000000000000000000000000000000000000000000000000000600052603260045260246000fd5b9060005260206000200181905550601360008154809291906114a090615390565b91905055506114af6007613335565b6010546114bc91906151e4565b34111561156b5760006114cf6007613335565b6010546114dc91906151e4565b346114e7919061523e565b90503373ffffffffffffffffffffffffffffffffffffffff166108fc829081150290604051600060405180830381858888f1935050505015801561152f573d6000803e3d6000fd5b507f2ee76d0c8417fef3c9f68663d321eb1c1ed0e089b5298177f0582aeadb6fd91f3382604051611561929190614b46565b60405180910390a1505b565b600c60009054906101000a900473ffffffffffffffffffffffffffffffffffffffff1673ffffffffffffffffffffffffffffffffffffffff163373ffffffffffffffffffffffffffffffffffffffff16146115fd576040517f08c379a00000000000000000000000000000000000000000000000000000000081526004016115f490614d45565b60405180910390fd5b601454341015611642576040517f08c379a000000000000000000000000000000000000000000000000000000000815260040161163990614fe5565b60405180910390fd5b600061164e6007613335565b905060005b8181101561171257600061166682611e07565b905061169581600b60009054906101000a900473ffffffffffffffffffffffffffffffffffffffff1684613343565b8073ffffffffffffffffffffffffffffffffffffffff166108fc600f549081150290604051600060405180830381858888f193505050501580156116dd573d6000803e3d6000fd5b50600f546014546116ee919061523e565b6014819055506116fe6007613353565b50808061170a90615390565b915050611653565b504260178190555060004711801561172b575060145434115b1561185857600060145434611740919061523e565b9050804710156117d55760004790503373ffffffffffffffffffffffffffffffffffffffff166108fc829081150290604051600060405180830381858888f19350505050158015611795573d6000803e3d6000fd5b507f2ee76d0c8417fef3c9f68663d321eb1c1ed0e089b5298177f0582aeadb6fd91f33826040516117c7929190614b46565b60405180910390a150611856565b3373ffffffffffffffffffffffffffffffffffffffff166108fc829081150290604051600060405180830381858888f1935050505015801561181b573d6000803e3d6000fd5b507f2ee76d0c8417fef3c9f68663d321eb1c1ed0e089b5298177f0582aeadb6fd91f338260405161184d929190614b46565b60405180910390a15b505b50565b6000600960009054906101000a900460ff16905090565b60008073ffffffffffffffffffffffffffffffffffffffff168273ffffffffffffffffffffffffffffffffffffffff1614156118e3576040517f08c379a00000000000000000000000000000000000000000000000000000000081526004016118da90614f05565b60405180910390fd5b601b60008373ffffffffffffffffffffffffffffffffffffffff1673ffffffffffffffffffffffffffffffffffffffff168152602001908152602001600020549050919050565b611932610d1f565b15611972576040517f08c379a000000000000000000000000000000000000000000000000000000000815260040161196990615005565b60405180910390fd5b600960009054906101000a900460ff16156119c2576040517f08c379a00000000000000000000000000000000000000000000000000000000081526004016119b990614de5565b60405180910390fd5b600b60009054906101000a900473ffffffffffffffffffffffffffffffffffffffff1673ffffffffffffffffffffffffffffffffffffffff163373ffffffffffffffffffffffffffffffffffffffff1614611a52576040517f08c379a0000000000000000000000000000000000000000000000000000000008152600401611a4990614da5565b60405180910390fd5b60005b600a80549050811015611e04576000600a8281548110611a9e577f4e487b7100000000000000000000000000000000000000000000000000000000600052603260045260246000fd5b9060005260206000200160009054906101000a900473ffffffffffffffffffffffffffffffffffffffff1690506000601c60008373ffffffffffffffffffffffffffffffffffffffff1673ffffffffffffffffffffffffffffffffffffffff168152602001908152602001600020549050600c60009054906101000a900473ffffffffffffffffffffffffffffffffffffffff1673ffffffffffffffffffffffffffffffffffffffff166108fc82600f54611b5991906151e4565b9081150290604051600060405180830381858888f19350505050158015611b84573d6000803e3d6000fd5b5060005b81811015611bc057611ba383611b9e6007613335565b6133af565b611bad600761357d565b8080611bb890615390565b915050611b88565b50600f5481611bcf91906151e4565b601b60008473ffffffffffffffffffffffffffffffffffffffff1673ffffffffffffffffffffffffffffffffffffffff168152602001908152602001600020541115611d44578173ffffffffffffffffffffffffffffffffffffffff166108fc600f5483611c3d91906151e4565b601b60008673ffffffffffffffffffffffffffffffffffffffff1673ffffffffffffffffffffffffffffffffffffffff16815260200190815260200160002054611c87919061523e565b9081150290604051600060405180830381858888f19350505050158015611cb2573d6000803e3d6000fd5b507f2ee76d0c8417fef3c9f68663d321eb1c1ed0e089b5298177f0582aeadb6fd91f82600f5483611ce391906151e4565b601b60008673ffffffffffffffffffffffffffffffffffffffff1673ffffffffffffffffffffffffffffffffffffffff16815260200190815260200160002054611d2d919061523e565b604051611d3b929190614b46565b60405180910390a15b6000601b60008473ffffffffffffffffffffffffffffffffffffffff1673ffffffffffffffffffffffffffffffffffffffff168152602001908152602001600020819055506000601c60008473ffffffffffffffffffffffffffffffffffffffff1673ffffffffffffffffffffffffffffffffffffffff1681526020019081526020016000208190555080600f54611ddc91906151e4565b601454611de9919061515d565b60148190555050508080611dfc90615390565b915050611a55565b50565b6000806002600084815260200190815260200160002060009054906101000a900473ffffffffffffffffffffffffffffffffffffffff169050600073ffffffffffffffffffffffffffffffffffffffff168173ffffffffffffffffffffffffffffffffffffffff161415611eb0576040517f08c379a0000000000000000000000000000000000000000000000000000000008152600401611ea790614e65565b60405180910390fd5b80915050919050565b6000600f54905090565b60008073ffffffffffffffffffffffffffffffffffffffff168273ffffffffffffffffffffffffffffffffffffffff161415611f34576040517f08c379a0000000000000000000000000000000000000000000000000000000008152600401611f2b90614e45565b60405180910390fd5b600360008373ffffffffffffffffffffffffffffffffffffffff1673ffffffffffffffffffffffffffffffffffffffff168152602001908152602001600020549050919050565b611f83612f3a565b73ffffffffffffffffffffffffffffffffffffffff16611fa16122b3565b73ffffffffffffffffffffffffffffffffffffffff1614611ff7576040517f08c379a0000000000000000000000000000000000000000000000000000000008152600401611fee90614ee5565b60405180910390fd5b600073ffffffffffffffffffffffffffffffffffffffff16600660009054906101000a900473ffffffffffffffffffffffffffffffffffffffff1673ffffffffffffffffffffffffffffffffffffffff167f8be0079c531659141344cd1fd0a4f28419497f9722a3daafe3b4186f6b6457e060405160405180910390a36000600660006101000a81548173ffffffffffffffffffffffffffffffffffffffff021916908373ffffffffffffffffffffffffffffffffffffffff160217905550565b600960009054906101000a900460ff1615612108576040517f08c379a00000000000000000000000000000000000000000000000000000000081526004016120ff90614de5565b60405180910390fd5b600d60009054906101000a900473ffffffffffffffffffffffffffffffffffffffff1673ffffffffffffffffffffffffffffffffffffffff163373ffffffffffffffffffffffffffffffffffffffff1614612198576040517f08c379a000000000000000000000000000000000000000000000000000000000815260040161218f90614e05565b60405180910390fd5b6001600960006101000a81548160ff0219169083151502179055507f62e78cea01bee320cd4e420270b5ea74000d11b0c9f74754ebdbfc544b05a2586121dc612f3a565b6040516121e99190614ab6565b60405180910390a1565b6121fb612f3a565b73ffffffffffffffffffffffffffffffffffffffff166122196122b3565b73ffffffffffffffffffffffffffffffffffffffff161461226f576040517f08c379a000000000000000000000000000000000000000000000000000000000815260040161226690614ee5565b60405180910390fd5b80600e60006101000a81548173ffffffffffffffffffffffffffffffffffffffff021916908373ffffffffffffffffffffffffffffffffffffffff16021790555050565b6000600660009054906101000a900473ffffffffffffffffffffffffffffffffffffffff16905090565b60006122e96007613335565b905090565b6060600180546122fd9061535e565b80601f01602080910402602001604051908101604052809291908181526020018280546123299061535e565b80156123765780601f1061234b57610100808354040283529160200191612376565b820191906000526020600020905b81548152906001019060200180831161235957829003601f168201915b5050505050905090565b6000601654905090565b612392612f3a565b73ffffffffffffffffffffffffffffffffffffffff168273ffffffffffffffffffffffffffffffffffffffff161415612400576040517f08c379a00000000000000000000000000000000000000000000000000000000081526004016123f790614d25565b60405180910390fd5b806005600061240d612f3a565b73ffffffffffffffffffffffffffffffffffffffff1673ffffffffffffffffffffffffffffffffffffffff16815260200190815260200160002060008473ffffffffffffffffffffffffffffffffffffffff1673ffffffffffffffffffffffffffffffffffffffff16815260200190815260200160002060006101000a81548160ff0219169083151502179055508173ffffffffffffffffffffffffffffffffffffffff166124ba612f3a565b73ffffffffffffffffffffffffffffffffffffffff167f17307eab39ab6107e8899845ad3d59bd9653f200f220920489ca2b5937696c31836040516124ff9190614bc8565b60405180910390a35050565b600960009054906101000a900460ff1661255a576040517f08c379a000000000000000000000000000000000000000000000000000000000815260040161255190614c25565b60405180910390fd5b600d60009054906101000a900473ffffffffffffffffffffffffffffffffffffffff1673ffffffffffffffffffffffffffffffffffffffff163373ffffffffffffffffffffffffffffffffffffffff16146125ea576040517f08c379a00000000000000000000000000000000000000000000000000000000081526004016125e190614dc5565b60405180910390fd5b60005b600a805490508110156126fd576000600a8281548110612636577f4e487b7100000000000000000000000000000000000000000000000000000000600052603260045260246000fd5b9060005260206000200160009054906101000a900473ffffffffffffffffffffffffffffffffffffffff1690508073ffffffffffffffffffffffffffffffffffffffff166108fc601b60008473ffffffffffffffffffffffffffffffffffffffff1673ffffffffffffffffffffffffffffffffffffffff168152602001908152602001600020549081150290604051600060405180830381858888f193505050501580156126e8573d6000803e3d6000fd5b505080806126f590615390565b9150506125ed565b50565b61271161270b612f3a565b83612ffb565b612750576040517f08c379a000000000000000000000000000000000000000000000000000000000815260040161274790614fc5565b60405180910390fd5b61275c84848484613593565b50505050565b606061276d82612ece565b6127ac576040517f08c379a00000000000000000000000000000000000000000000000000000000081526004016127a390614f45565b60405180910390fd5b60006127b66135ef565b905060008151116127d65760405180602001604052806000815250612801565b806127e084613681565b6040516020016127f1929190614a92565b6040516020818303038152906040525b915050919050565b612811612f3a565b73ffffffffffffffffffffffffffffffffffffffff1661282f6122b3565b73ffffffffffffffffffffffffffffffffffffffff1614612885576040517f08c379a000000000000000000000000000000000000000000000000000000000815260040161287c90614ee5565b60405180910390fd5b80600d60006101000a81548173ffffffffffffffffffffffffffffffffffffffff021916908373ffffffffffffffffffffffffffffffffffffffff16021790555050565b6060601980548060200260200160405190810160405280929190818152602001828054801561291757602002820191906000526020600020905b815481526020019060010190808311612903575b5050505050905090565b6000601554905090565b60006016544211612971576040517f08c379a000000000000000000000000000000000000000000000000000000000815260040161296890614ce5565b60405180910390fd5b62015180601654612982919061515d565b60175411156129945760009050612999565b600190505b90565b6000600e60009054906101000a900473ffffffffffffffffffffffffffffffffffffffff16905090565b6000600560008473ffffffffffffffffffffffffffffffffffffffff1673ffffffffffffffffffffffffffffffffffffffff16815260200190815260200160002060008373ffffffffffffffffffffffffffffffffffffffff1673ffffffffffffffffffffffffffffffffffffffff16815260200190815260200160002060009054906101000a900460ff16905092915050565b60008082118015612a6d57506012548211155b612aac576040517f08c379a0000000000000000000000000000000000000000000000000000000008152600401612aa390614f65565b60405180910390fd5b6019600183612abb919061523e565b81548110612af2577f4e487b7100000000000000000000000000000000000000000000000000000000600052603260045260246000fd5b90600052602060002001549050919050565b600e60009054906101000a900473ffffffffffffffffffffffffffffffffffffffff1673ffffffffffffffffffffffffffffffffffffffff163373ffffffffffffffffffffffffffffffffffffffff1614612b5e57600080fd5b8115612b7d5780601054612b72919061515d565b601081905550612bd7565b601054811115612bc2576040517f08c379a0000000000000000000000000000000000000000000000000000000008152600401612bb990614d65565b60405180910390fd5b80601054612bd0919061523e565b6010819055505b7fca1d6283d1b481c7291c2fc81205d98456d1c2948caa5f9460dd3e35ca34e41633601054604051612c0a929190614b46565b60405180910390a15050565b612c1e612f3a565b73ffffffffffffffffffffffffffffffffffffffff16612c3c6122b3565b73ffffffffffffffffffffffffffffffffffffffff1614612c92576040517f08c379a0000000000000000000000000000000000000000000000000000000008152600401612c8990614ee5565b60405180910390fd5b600073ffffffffffffffffffffffffffffffffffffffff168173ffffffffffffffffffffffffffffffffffffffff161415612d02576040517f08c379a0000000000000000000000000000000000000000000000000000000008152600401612cf990614ca5565b60405180910390fd5b8073ffffffffffffffffffffffffffffffffffffffff16600660009054906101000a900473ffffffffffffffffffffffffffffffffffffffff1673ffffffffffffffffffffffffffffffffffffffff167f8be0079c531659141344cd1fd0a4f28419497f9722a3daafe3b4186f6b6457e060405160405180910390a380600660006101000a81548173ffffffffffffffffffffffffffffffffffffffff021916908373ffffffffffffffffffffffffffffffffffffffff16021790555050565b6000600d60009054906101000a900473ffffffffffffffffffffffffffffffffffffffff16905090565b60007f80ac58cd000000000000000000000000000000000000000000000000000000007bffffffffffffffffffffffffffffffffffffffffffffffffffffffff1916827bffffffffffffffffffffffffffffffffffffffffffffffffffffffff19161480612eb757507f5b5e139f000000000000000000000000000000000000000000000000000000007bffffffffffffffffffffffffffffffffffffffffffffffffffffffff1916827bffffffffffffffffffffffffffffffffffffffffffffffffffffffff1916145b80612ec75750612ec68261382e565b5b9050919050565b60008073ffffffffffffffffffffffffffffffffffffffff166002600084815260200190815260200160002060009054906101000a900473ffffffffffffffffffffffffffffffffffffffff1673ffffffffffffffffffffffffffffffffffffffff1614159050919050565b600033905090565b816004600083815260200190815260200160002060006101000a81548173ffffffffffffffffffffffffffffffffffffffff021916908373ffffffffffffffffffffffffffffffffffffffff160217905550808273ffffffffffffffffffffffffffffffffffffffff16612fb583611e07565b73ffffffffffffffffffffffffffffffffffffffff167f8c5be1e5ebec7d5bd14f71427d1e84f3dd0314c0f7b2291e5b200ac8c7c3b92560405160405180910390a45050565b600061300682612ece565b613045576040517f08c379a000000000000000000000000000000000000000000000000000000000815260040161303c90614d85565b60405180910390fd5b600061305083611e07565b90508073ffffffffffffffffffffffffffffffffffffffff168473ffffffffffffffffffffffffffffffffffffffff1614806130bf57508373ffffffffffffffffffffffffffffffffffffffff166130a784610d2c565b73ffffffffffffffffffffffffffffffffffffffff16145b806130d057506130cf81856129c6565b5b91505092915050565b8273ffffffffffffffffffffffffffffffffffffffff166130f982611e07565b73ffffffffffffffffffffffffffffffffffffffff161461314f576040517f08c379a000000000000000000000000000000000000000000000000000000000815260040161314690614f25565b60405180910390fd5b600073ffffffffffffffffffffffffffffffffffffffff168273ffffffffffffffffffffffffffffffffffffffff1614156131bf576040517f08c379a00000000000000000000000000000000000000000000000000000000081526004016131b690614d05565b60405180910390fd5b6131ca838383613898565b6131d5600082612f42565b6001600360008573ffffffffffffffffffffffffffffffffffffffff1673ffffffffffffffffffffffffffffffffffffffff1681526020019081526020016000206000828254613225919061523e565b925050819055506001600360008473ffffffffffffffffffffffffffffffffffffffff1673ffffffffffffffffffffffffffffffffffffffff168152602001908152602001600020600082825461327c919061515d565b92505081905550816002600083815260200190815260200160002060006101000a81548173ffffffffffffffffffffffffffffffffffffffff021916908373ffffffffffffffffffffffffffffffffffffffff160217905550808273ffffffffffffffffffffffffffffffffffffffff168473ffffffffffffffffffffffffffffffffffffffff167fddf252ad1be2c89b69c2b068fc378daa952ba7f163c4a11628f55a4df523b3ef60405160405180910390a4505050565b600081600001549050919050565b61334e8383836130d9565b505050565b6000816000015490506000811161339f576040517f08c379a000000000000000000000000000000000000000000000000000000000815260040161339690614c45565b60405180910390fd5b6001810382600001819055505050565b600073ffffffffffffffffffffffffffffffffffffffff168273ffffffffffffffffffffffffffffffffffffffff16141561341f576040517f08c379a000000000000000000000000000000000000000000000000000000000815260040161341690614ea5565b60405180910390fd5b61342881612ece565b15613468576040517f08c379a000000000000000000000000000000000000000000000000000000000815260040161345f90614cc5565b60405180910390fd5b61347460008383613898565b6001600360008473ffffffffffffffffffffffffffffffffffffffff1673ffffffffffffffffffffffffffffffffffffffff16815260200190815260200160002060008282546134c4919061515d565b92505081905550816002600083815260200190815260200160002060006101000a81548173ffffffffffffffffffffffffffffffffffffffff021916908373ffffffffffffffffffffffffffffffffffffffff160217905550808273ffffffffffffffffffffffffffffffffffffffff16600073ffffffffffffffffffffffffffffffffffffffff167fddf252ad1be2c89b69c2b068fc378daa952ba7f163c4a11628f55a4df523b3ef60405160405180910390a45050565b6001816000016000828254019250508190555050565b61359e8484846130d9565b6135aa8484848461389d565b6135e9576040517f08c379a00000000000000000000000000000000000000000000000000000000081526004016135e090614c65565b60405180910390fd5b50505050565b6060600880546135fe9061535e565b80601f016020809104026020016040519081016040528092919081815260200182805461362a9061535e565b80156136775780601f1061364c57610100808354040283529160200191613677565b820191906000526020600020905b81548152906001019060200180831161365a57829003601f168201915b5050505050905090565b606060008214156136c9576040518060400160405280600181526020017f30000000000000000000000000000000000000000000000000000000000000008152509050613829565b600082905060005b600082146136fb5780806136e490615390565b915050600a826136f491906151b3565b91506136d1565b60008167ffffffffffffffff81111561373d577f4e487b7100000000000000000000000000000000000000000000000000000000600052604160045260246000fd5b6040519080825280601f01601f19166020018201604052801561376f5781602001600182028036833780820191505090505b5090505b6000851461382257600182613788919061523e565b9150600a8561379791906153d9565b60306137a3919061515d565b60f81b8183815181106137df577f4e487b7100000000000000000000000000000000000000000000000000000000600052603260045260246000fd5b60200101907effffffffffffffffffffffffffffffffffffffffffffffffffffffffffffff1916908160001a905350600a8561381b91906151b3565b9450613773565b8093505050505b919050565b60007f01ffc9a7000000000000000000000000000000000000000000000000000000007bffffffffffffffffffffffffffffffffffffffffffffffffffffffff1916827bffffffffffffffffffffffffffffffffffffffffffffffffffffffff1916149050919050565b505050565b60006138be8473ffffffffffffffffffffffffffffffffffffffff16613a34565b15613a27578373ffffffffffffffffffffffffffffffffffffffff1663150b7a026138e7612f3a565b8786866040518563ffffffff1660e01b81526004016139099493929190614afa565b602060405180830381600087803b15801561392357600080fd5b505af192505050801561395457506040513d601f19601f820116820180604052508101906139519190613d24565b60015b6139d7573d8060008114613984576040519150601f19603f3d011682016040523d82523d6000602084013e613989565b606091505b506000815114156139cf576040517f08c379a00000000000000000000000000000000000000000000000000000000081526004016139c690614c65565b60405180910390fd5b805181602001fd5b63150b7a0260e01b7bffffffffffffffffffffffffffffffffffffffffffffffffffffffff1916817bffffffffffffffffffffffffffffffffffffffffffffffffffffffff191614915050613a2c565b600190505b949350505050565b600080823b905060008111915050919050565b6000613a5a613a55846150b1565b615080565b905082815260208101848484011115613a7257600080fd5b613a7d84828561531c565b509392505050565b600081359050613a94816154d7565b92915050565b600081359050613aa9816154ee565b92915050565b600081359050613abe81615505565b92915050565b600081519050613ad381615505565b92915050565b600082601f830112613aea57600080fd5b8135613afa848260208601613a47565b91505092915050565b600081359050613b128161551c565b92915050565b600060208284031215613b2a57600080fd5b6000613b3884828501613a85565b91505092915050565b60008060408385031215613b5457600080fd5b6000613b6285828601613a85565b9250506020613b7385828601613a85565b9150509250929050565b600080600060608486031215613b9257600080fd5b6000613ba086828701613a85565b9350506020613bb186828701613a85565b9250506040613bc286828701613b03565b9150509250925092565b60008060008060808587031215613be257600080fd5b6000613bf087828801613a85565b9450506020613c0187828801613a85565b9350506040613c1287828801613b03565b925050606085013567ffffffffffffffff811115613c2f57600080fd5b613c3b87828801613ad9565b91505092959194509250565b60008060408385031215613c5a57600080fd5b6000613c6885828601613a85565b9250506020613c7985828601613a9a565b9150509250929050565b60008060408385031215613c9657600080fd5b6000613ca485828601613a85565b9250506020613cb585828601613b03565b9150509250929050565b60008060408385031215613cd257600080fd5b6000613ce085828601613a9a565b9250506020613cf185828601613b03565b9150509250929050565b600060208284031215613d0d57600080fd5b6000613d1b84828501613aaf565b91505092915050565b600060208284031215613d3657600080fd5b6000613d4484828501613ac4565b91505092915050565b600060208284031215613d5f57600080fd5b6000613d6d84828501613b03565b91505092915050565b6000613d828383614a74565b60208301905092915050565b613d97816152e6565b82525050565b613da681615272565b82525050565b6000613db7826150f1565b613dc1818561511f565b9350613dcc836150e1565b8060005b83811015613dfd578151613de48882613d76565b9750613def83615112565b925050600181019050613dd0565b5085935050505092915050565b613e1381615284565b82525050565b6000613e24826150fc565b613e2e8185615130565b9350613e3e81856020860161532b565b613e47816154c6565b840191505092915050565b6000613e5d82615107565b613e678185615141565b9350613e7781856020860161532b565b613e80816154c6565b840191505092915050565b6000613e9682615107565b613ea08185615152565b9350613eb081856020860161532b565b80840191505092915050565b6000613ec9602a83615141565b91507f416c6c20636f75706f6e207061796d656e7473206861766520616c726561647960008301527f206265656e206d616465000000000000000000000000000000000000000000006020830152604082019050919050565b6000613f2f601483615141565b91507f5061757361626c653a206e6f74207061757365640000000000000000000000006000830152602082019050919050565b6000613f6f601b83615141565b91507f436f756e7465723a2064656372656d656e74206f766572666c6f7700000000006000830152602082019050919050565b6000613faf603283615141565b91507f4552433732313a207472616e7366657220746f206e6f6e20455243373231526560008301527f63656976657220696d706c656d656e74657200000000000000000000000000006020830152604082019050919050565b6000614015602283615141565b91507f556e7061757365722063616e206f6e6c792062652074686520726567756c617460008301527f6f720000000000000000000000000000000000000000000000000000000000006020830152604082019050919050565b600061407b602683615141565b91507f4f776e61626c653a206e6577206f776e657220697320746865207a65726f206160008301527f64647265737300000000000000000000000000000000000000000000000000006020830152604082019050919050565b60006140e1601c83615141565b91507f4552433732313a20746f6b656e20616c7265616479206d696e746564000000006000830152602082019050919050565b6000614121601883615141565b91507f426f6e6420686173206e6f74206d6174757265642079657400000000000000006000830152602082019050919050565b6000614161602483615141565b91507f4552433732313a207472616e7366657220746f20746865207a65726f2061646460008301527f72657373000000000000000000000000000000000000000000000000000000006020830152604082019050919050565b60006141c7601983615141565b91507f4552433732313a20617070726f766520746f2063616c6c6572000000000000006000830152602082019050919050565b6000614207602e83615141565b91507f506179696e6720636f6d70616e792073686f756c642062652074686520626f7260008301527f726f77696e6720636f6d70616e790000000000000000000000000000000000006020830152604082019050919050565b600061426d602083615141565b91507f436f75706f6e207061796d656e742063616e2774206265206e656761746976656000830152602082019050919050565b60006142ad602c83615141565b91507f4552433732313a206f70657261746f7220717565727920666f72206e6f6e657860008301527f697374656e7420746f6b656e00000000000000000000000000000000000000006020830152604082019050919050565b6000614313601a83615141565b91507f4f6e6c79206f776e65722063616e20697373756520626f6e64730000000000006000830152602082019050919050565b6000614353602583615141565b91507f4f6e6c7920726567756c61746f722063616e2072657475726e20696e7665737460008301527f6d656e74730000000000000000000000000000000000000000000000000000006020830152604082019050919050565b60006143b9601083615141565b91507f5061757361626c653a20706175736564000000000000000000000000000000006000830152602082019050919050565b60006143f9602083615141565b91507f5061757365722063616e206f6e6c792062652074686520726567756c61746f726000830152602082019050919050565b6000614439603883615141565b91507f4552433732313a20617070726f76652063616c6c6572206973206e6f74206f7760008301527f6e6572206e6f7220617070726f76656420666f7220616c6c00000000000000006020830152604082019050919050565b600061449f602a83615141565b91507f4552433732313a2062616c616e636520717565727920666f7220746865207a6560008301527f726f2061646472657373000000000000000000000000000000000000000000006020830152604082019050919050565b6000614505602983615141565b91507f4552433732313a206f776e657220717565727920666f72206e6f6e657869737460008301527f656e7420746f6b656e00000000000000000000000000000000000000000000006020830152604082019050919050565b600061456b603583615141565b91507f436f75706f6e207061796d656e742073686f756c6420636f6d652066726f6d2060008301527f74686520626f72726f77696e6720636f6d70616e7900000000000000000000006020830152604082019050919050565b60006145d1602083615141565b91507f4552433732313a206d696e7420746f20746865207a65726f20616464726573736000830152602082019050919050565b6000614611602c83615141565b91507f4552433732313a20617070726f76656420717565727920666f72206e6f6e657860008301527f697374656e7420746f6b656e00000000000000000000000000000000000000006020830152604082019050919050565b6000614677602083615141565b91507f4f776e61626c653a2063616c6c6572206973206e6f7420746865206f776e65726000830152602082019050919050565b60006146b7602283615141565b91507f42616c616e636520717565727920666f7220746865207a65726f20616464726560008301527f73730000000000000000000000000000000000000000000000000000000000006020830152604082019050919050565b600061471d602983615141565b91507f4552433732313a207472616e73666572206f6620746f6b656e2074686174206960008301527f73206e6f74206f776e00000000000000000000000000000000000000000000006020830152604082019050919050565b6000614783602f83615141565b91507f4552433732314d657461646174613a2055524920717565727920666f72206e6f60008301527f6e6578697374656e7420746f6b656e00000000000000000000000000000000006020830152604082019050919050565b60006147e9603b83615141565b91507f4e6f207375636820636f75706f6e207061796d656e742c20636865636b20746860008301527f65206e756d626572206f6620636f75706f6e207061796d656e747300000000006020830152604082019050919050565b600061484f602183615141565b91507f4552433732313a20617070726f76616c20746f2063757272656e74206f776e6560008301527f72000000000000000000000000000000000000000000000000000000000000006020830152604082019050919050565b60006148b5601c83615141565b91507f4e6f7420656e6f75676820636f696e7320666f7220636f75706f6e73000000006000830152602082019050919050565b60006148f5603183615141565b91507f4552433732313a207472616e736665722063616c6c6572206973206e6f74206f60008301527f776e6572206e6f7220617070726f7665640000000000000000000000000000006020830152604082019050919050565b600061495b602f83615141565b91507f4e6f7420656e6f75676820636f696e7320746f20736574746c6520746865206260008301527f6f6e64206174206d6174757269747900000000000000000000000000000000006020830152604082019050919050565b60006149c1601f83615141565b91507f496e766573746d656e742077696e646f77206973207374696c6c206f70656e006000830152602082019050919050565b6000614a01601d83615141565b91507f496e766573746d656e742077696e646f77206973206e6f74206f70656e0000006000830152602082019050919050565b6000614a41601f83615141565b91507f6e6f7420656e6f75676820636f696e7320666f722074686520616d6f756e74006000830152602082019050919050565b614a7d816152dc565b82525050565b614a8c816152dc565b82525050565b6000614a9e8285613e8b565b9150614aaa8284613e8b565b91508190509392505050565b6000602082019050614acb6000830184613d9d565b92915050565b6000604082019050614ae66000830185613d8e565b614af36020830184614a83565b9392505050565b6000608082019050614b0f6000830187613d9d565b614b1c6020830186613d9d565b614b296040830185614a83565b8181036060830152614b3b8184613e19565b905095945050505050565b6000604082019050614b5b6000830185613d9d565b614b686020830184614a83565b9392505050565b6000606082019050614b846000830186613d9d565b614b916020830185614a83565b614b9e6040830184614a83565b949350505050565b60006020820190508181036000830152614bc08184613dac565b905092915050565b6000602082019050614bdd6000830184613e0a565b92915050565b60006020820190508181036000830152614bfd8184613e52565b905092915050565b60006020820190508181036000830152614c1e81613ebc565b9050919050565b60006020820190508181036000830152614c3e81613f22565b9050919050565b60006020820190508181036000830152614c5e81613f62565b9050919050565b60006020820190508181036000830152614c7e81613fa2565b9050919050565b60006020820190508181036000830152614c9e81614008565b9050919050565b60006020820190508181036000830152614cbe8161406e565b9050919050565b60006020820190508181036000830152614cde816140d4565b9050919050565b60006020820190508181036000830152614cfe81614114565b9050919050565b60006020820190508181036000830152614d1e81614154565b9050919050565b60006020820190508181036000830152614d3e816141ba565b9050919050565b60006020820190508181036000830152614d5e816141fa565b9050919050565b60006020820190508181036000830152614d7e81614260565b9050919050565b60006020820190508181036000830152614d9e816142a0565b9050919050565b60006020820190508181036000830152614dbe81614306565b9050919050565b60006020820190508181036000830152614dde81614346565b9050919050565b60006020820190508181036000830152614dfe816143ac565b9050919050565b60006020820190508181036000830152614e1e816143ec565b9050919050565b60006020820190508181036000830152614e3e8161442c565b9050919050565b60006020820190508181036000830152614e5e81614492565b9050919050565b60006020820190508181036000830152614e7e816144f8565b9050919050565b60006020820190508181036000830152614e9e8161455e565b9050919050565b60006020820190508181036000830152614ebe816145c4565b9050919050565b60006020820190508181036000830152614ede81614604565b9050919050565b60006020820190508181036000830152614efe8161466a565b9050919050565b60006020820190508181036000830152614f1e816146aa565b9050919050565b60006020820190508181036000830152614f3e81614710565b9050919050565b60006020820190508181036000830152614f5e81614776565b9050919050565b60006020820190508181036000830152614f7e816147dc565b9050919050565b60006020820190508181036000830152614f9e81614842565b9050919050565b60006020820190508181036000830152614fbe816148a8565b9050919050565b60006020820190508181036000830152614fde816148e8565b9050919050565b60006020820190508181036000830152614ffe8161494e565b9050919050565b6000602082019050818103600083015261501e816149b4565b9050919050565b6000602082019050818103600083015261503e816149f4565b9050919050565b6000602082019050818103600083015261505e81614a34565b9050919050565b600060208201905061507a6000830184614a83565b92915050565b6000604051905081810181811067ffffffffffffffff821117156150a7576150a6615497565b5b8060405250919050565b600067ffffffffffffffff8211156150cc576150cb615497565b5b601f19601f8301169050602081019050919050565b6000819050602082019050919050565b600081519050919050565b600081519050919050565b600081519050919050565b6000602082019050919050565b600082825260208201905092915050565b600082825260208201905092915050565b600082825260208201905092915050565b600081905092915050565b6000615168826152dc565b9150615173836152dc565b9250827fffffffffffffffffffffffffffffffffffffffffffffffffffffffffffffffff038211156151a8576151a761540a565b5b828201905092915050565b60006151be826152dc565b91506151c9836152dc565b9250826151d9576151d8615439565b5b828204905092915050565b60006151ef826152dc565b91506151fa836152dc565b9250817fffffffffffffffffffffffffffffffffffffffffffffffffffffffffffffffff04831182151516156152335761523261540a565b5b828202905092915050565b6000615249826152dc565b9150615254836152dc565b9250828210156152675761526661540a565b5b828203905092915050565b600061527d826152bc565b9050919050565b60008115159050919050565b60007fffffffff0000000000000000000000000000000000000000000000000000000082169050919050565b600073ffffffffffffffffffffffffffffffffffffffff82169050919050565b6000819050919050565b60006152f1826152f8565b9050919050565b60006153038261530a565b9050919050565b6000615315826152bc565b9050919050565b82818337600083830152505050565b60005b8381101561534957808201518184015260208101905061532e565b83811115615358576000848401525b50505050565b6000600282049050600182168061537657607f821691505b6020821081141561538a57615389615468565b5b50919050565b600061539b826152dc565b91507fffffffffffffffffffffffffffffffffffffffffffffffffffffffffffffffff8214156153ce576153cd61540a565b5b600182019050919050565b60006153e4826152dc565b91506153ef836152dc565b9250826153ff576153fe615439565b5b828206905092915050565b7f4e487b7100000000000000000000000000000000000000000000000000000000600052601160045260246000fd5b7f4e487b7100000000000000000000000000000000000000000000000000000000600052601260045260246000fd5b7f4e487b7100000000000000000000000000000000000000000000000000000000600052602260045260246000fd5b7f4e487b7100000000000000000000000000000000000000000000000000000000600052604160045260246000fd5b6000601f19601f8301169050919050565b6154e081615272565b81146154eb57600080fd5b50565b6154f781615284565b811461550257600080fd5b50565b61550e81615290565b811461551957600080fd5b50565b615525816152dc565b811461553057600080fd5b5056fea2646970667358221220048add61636efd3e8430d7c5a7c07bdb05becf7ee17caff4f5a70272bf06b92464736f6c63430008000033",
  "immutableReferences": {},
  "source": "// SPDX-License-Identifier: MIT\npragma solidity >=0.6.0;\n\nimport \"@openzeppelin/contracts/token/ERC721/ERC721.sol\";\nimport \"@openzeppelin/contracts/access/Ownable.sol\";\nimport \"@openzeppelin/contracts/utils/Counters.sol\";\n\ncontract GreenBond is ERC721, Ownable {\n    using Counters for Counters.Counter;\n\n    // MODIFIERS\n\n    /**\n     * @dev Reverts if bidding time is not open\n     */\n    modifier onlyWhileInvestmentWindowOpen {\n        require(investmentWindowisOpen(), \"Investment window is not open\");\n        _;\n    }\n\n    /**\n     * @dev Reverts if bidding time is still open\n     */\n    modifier onlyWhileInvestmentWindowClosed {\n        require(!investmentWindowisOpen(), \"Investment window is still open\");\n        _;\n    }\n\n    /**\n     * @dev Modifier to make a function callable only when the contract is not paused.\n     */\n    modifier whenNotPaused() {\n        require(!_paused, \"Pausable: paused\");\n        _;\n    }\n\n    /**\n     * @dev Modifier to make a function callable only when the contract is paused.\n     */\n    modifier whenPaused() {\n        require(_paused, \"Pausable: not paused\");\n        _;\n    }\n\n    // MEMBER VARIABLES\n    \n    Counters.Counter private _bondIdTracker;\n    string private _baseBondURI;\n    bool private _paused;\n    address[] private _initialInvestors;\n    address private _owner;\n    address payable private _company;\n    address private _regulator;\n    address private _greenVerifier;\n    uint256 private _value;\n    uint256 private _coupon;\n    uint256 private _term;\n    uint256 private _totalCouponPayments;\n    uint256 private _couponsPaid = 0; // Zero in the beginning\n    uint256 private _totalDebt;\n    uint256 private _issueDate;\n    uint256 private _maturityDate;\n    uint256 private _actualPrincipalPaymentDate = 0; // Initialise to 0\n    uint256 private _couponsPerYear;\n    uint256 [] private _couponPaymentDates;\n    uint256 [] private _actualCouponPaymentDates;\n    \n   \n    mapping(address => uint256) _investedAmountPerInvestor;\n    mapping(address => uint256) _requestedBondsPerInvestor;\n\n    /**\n     * @dev Emitted when an investor registers initial investment request\n     */\n    event Investment(address investor, uint256 value, uint256 numberOfBonds);\n\n    /**\n     * @dev Emitted when coins are refunded to the investor in case there are\n            too many coins for the investment or to the company if they pay too much \n            with coupons / principal repayment\n     */\n    event CoinRefund(address sender, uint256 value);\n\n    /**\n     * @dev Emitted when a coupon payment has been made\n     */\n    event CouponPayment(address investor, uint256 bondId);\n\n    /**\n     * @dev Emitted when the pause is triggered by a pauser (regulator).\n     */\n    event Paused(address account);\n\n    /**\n     * @dev Emitted when the pause is lifted by a pauser (regulator).\n     */\n    event Unpaused(address account);\n\n    /**\n     * @dev Emmitted when coupon payment is adjusted\n     */\n    event CouponAdjustment(address adjuster, uint256 couponRate);\n \n\n    /**\n     * @dev constructor, requires name and symbol for the bond,\n     * base URI for metadata, company address, facevalue for one bond / min investment\n     * coupon amount, investment window closing time\n     */\n    constructor(\n        string memory name,\n        string memory symbol,\n        string memory baseBondURI,\n        address company,\n        uint256 value,\n        uint256 coupon,\n        uint256 issueDate,\n        uint256 term,\n        uint256 couponsPerYear\n    ) ERC721(name, symbol) {\n        require(company != address(0), \"Company address can not be 0x0\");\n        require(value > 0, \"Value can not be 0\");\n        require(coupon >= 0, \"Coupon payment can't be negative\");\n        require(issueDate > block.timestamp, \"Closing time can't be in the past\");\n        _owner = msg.sender;\n        _baseBondURI = baseBondURI;\n        _company = payable(company);\n        _value = value;\n        _coupon = coupon;\n        _paused = false;\n        _issueDate = issueDate;\n        _term = term;\n        _couponsPerYear = couponsPerYear;\n        _totalCouponPayments = couponsPerYear * term;\n        \n        _maturityDate = _issueDate + term * 365 days;\n\n        uint256 timeBetweenpayments = 365 days / couponsPerYear;\n        \n        // Setting up the coupon payment dates\n        for (uint i = 1; i <= _totalCouponPayments; i++) {\n            _couponPaymentDates.push(_issueDate + timeBetweenpayments * i);\n            _actualCouponPaymentDates.push(0);\n        }    \n    }\n\n    // Setter functions - these could be hard coded to be the same for all bonds\n\n    function setRegulator(address regulator) public onlyOwner {\n        _regulator = regulator;\n    }\n\n    function setGreenVerifier(address greenVerifier) public onlyOwner {\n        _greenVerifier = greenVerifier;\n    }\n\n    // Getter functions\n\n    function getIssueDate() public view returns (uint256) {\n        return _issueDate;\n    }\n\n    function getMaturityDate() public view returns (uint256) {\n        return _maturityDate;\n    }\n\n    function getTerm() public view returns (uint256) {\n        return _term;\n    }\n    \n    function getCouponDate(uint256 number) public view returns (uint256) {\n        require(number > 0 && number <= _totalCouponPayments, \"No such coupon payment, check the number of coupon payments\");\n        return _couponPaymentDates[number - 1];\n    }\n\n    function getCouponDates() public view returns (uint256 [] memory) {\n        return _couponPaymentDates;\n    }\n\n    function getCompany() public view returns (address) {\n        return _company;\n    }\n\n    function getRegulator() public view returns (address) {\n        return _regulator;\n    }\n\n    function getGreenVerifier() public view returns (address) {\n        return _greenVerifier;\n    }\n\n    function getFaceValue() public view returns (uint256) {\n        return _value;\n    }\n\n    function getCoupon() public view returns (uint256) {\n        return _coupon;\n    }\n\n    function getTotalDebt() public view returns (uint256) {\n        return _totalDebt;\n    }\n\n    function numberOfInvestors() public view returns (uint256) {\n        return _initialInvestors.length;\n    }\n\n    function bondCount() public view returns (uint256) {\n        return _bondIdTracker.current();\n    }\n\n    function getName() public view returns (string memory) {\n        return name();\n    }\n\n    function _baseURI() internal view override returns (string memory) {\n        return _baseBondURI;\n    }\n\n    // Just for testing \n    function getInvestorBalance(address investor)\n        public\n        view\n        returns (uint256)\n    {\n        require(investor != address(0), \"Balance query for the zero address\");\n        return _investedAmountPerInvestor[investor];\n    }\n\n    // Return true if the investment window is open, false otherwise.\n    function investmentWindowisOpen() public view returns (bool) {\n        return block.timestamp <= _issueDate;\n    }\n\n\n    // Needed to override this function as two parent classes defined the same function\n    function supportsInterface(bytes4 interfaceId)\n        public\n        view\n        virtual\n        override(ERC721)\n        returns (bool)\n    {\n        return super.supportsInterface(interfaceId);\n    }\n\n    // Returns true if either no coupon payments have been due yet\n    // or when all the coupon payments have been made on time\n    function couponPaymentsMadeOnTime() public view returns (bool){\n        for (uint i = 0; i < _couponPaymentDates.length; i++) {\n            if (block.timestamp < _couponPaymentDates[i]) {\n                // Break the loop if the coupon payment has not been due yet\n                return true;\n            } else {\n                // The actual coupon payment date was later than the agreed date \n                // Includes 24 hours to make the coupon payment\n                if (_actualCouponPaymentDates[i] > _couponPaymentDates[i] + 1 days ||\n                    _actualCouponPaymentDates[i] == 0) {\n                    return false;\n                }\n            }\n        }\n        return true;\n    }\n\n    // Checks if the principal amount was paid back on time\n    function principalPaymentMadeOnTime() public view returns (bool) {\n        require(block.timestamp > _maturityDate, \"Bond has not matured yet\");\n        if (_actualPrincipalPaymentDate > _maturityDate + 1 days) {\n            return false;\n        } else {\n            return true;\n        }\n    }\n\n    // Function to register investment interest\n    // Investors specifies the number of bonds they would like to receive\n    function registerInvestment(uint256 number)\n        public\n        payable\n        onlyWhileInvestmentWindowOpen\n    {\n        // Require that the investor has enough coins\n        require(\n            msg.value >= number * _value,\n            \"not enough coins for the amount\"\n        );\n\n        // If investor is not on the list, add to the list\n        if (_investedAmountPerInvestor[msg.sender] == 0) {\n            _initialInvestors.push(msg.sender);\n        }\n\n        // Register the investment\n        uint256 currentAmount = _investedAmountPerInvestor[msg.sender];\n        _investedAmountPerInvestor[msg.sender] = currentAmount + msg.value;\n        _requestedBondsPerInvestor[msg.sender] =\n            _requestedBondsPerInvestor[msg.sender] +\n            number;\n\n        // Emit event\n        emit Investment(msg.sender, msg.value, number);\n    }\n\n    /**\n     * @dev Function to issue bonds for investors who have registered \n        Assumes all investors will get the requested investment\n        Can be called only when investment window is closed and the contract is unpaused\n     */\n    function issueBonds()\n        public\n        onlyWhileInvestmentWindowClosed\n        whenNotPaused\n    {\n        require(msg.sender == _owner, \"Only owner can issue bonds\");\n\n        // Iterate through each investor\n        for (uint256 i = 0; i < _initialInvestors.length; i++) {\n            address investor = _initialInvestors[i];\n            uint256 numberOfBonds = _requestedBondsPerInvestor[investor];\n            // Transfer money to the borrowing company\n            _company.transfer(_value * numberOfBonds);\n\n            // Issue bonds\n            for (uint256 j = 0; j < numberOfBonds; j++) {\n                _mint(investor, _bondIdTracker.current());\n                _bondIdTracker.increment();\n            }\n\n            // If the invested amount would be greated than the amount needed for investment\n            // Return the remainder back to the investor\n            if (\n                _investedAmountPerInvestor[investor] > numberOfBonds * _value\n            ) {\n                payable(investor).transfer(\n                    _investedAmountPerInvestor[investor] -\n                        numberOfBonds *\n                        _value\n                );\n                emit CoinRefund(\n                    investor,\n                    _investedAmountPerInvestor[investor] -\n                        numberOfBonds *\n                        _value\n                );\n            }\n\n            // Update the records\n            _investedAmountPerInvestor[investor] = 0;\n            _requestedBondsPerInvestor[investor] = 0;\n            _totalDebt = _totalDebt + _value * numberOfBonds;\n        }\n    }\n\n    /**\n     * @dev Function for regulator to return all money to investors\n        if there are any issues with the borrowing company\n     */\n    function returnInvestorMoney() public whenPaused {\n        require(\n            msg.sender == _regulator,\n            \"Only regulator can return investments\"\n        );\n        for (uint256 i = 0; i < _initialInvestors.length; i++) {\n            address investor = _initialInvestors[i];\n            payable(investor).transfer(_investedAmountPerInvestor[investor]);\n        }\n    }\n\n    // Function for the borrowing company to pay coupons\n    function payCoupons() public payable {\n        // Message needs to have enough value for the copupon payments\n        require(\n            msg.sender == _company,\n            \"Coupon payment should come from the borrowing company\"\n        );\n        require(\n            msg.value >= _coupon * _bondIdTracker.current(),\n            \"Not enough coins for coupons\"\n        );\n\n        require(\n            _couponsPaid < _totalCouponPayments, \n            \"All coupon payments have already been made\"\n        );\n\n\n        for (uint256 i = 0; i < _bondIdTracker.current(); i++) {\n            address payable investor = payable(ownerOf(i));\n            investor.transfer(_coupon);\n            emit CouponPayment(investor, i);\n        }\n\n        \n        _actualCouponPaymentDates[_couponsPaid] = block.timestamp;\n        _couponsPaid++;\n\n        // Refund extra coins if paid too much\n        if (msg.value > _coupon * _bondIdTracker.current()) {\n            uint256 extraAmount = msg.value -\n                _coupon *\n                _bondIdTracker.current();\n            payable(msg.sender).transfer(extraAmount);\n            emit CoinRefund(msg.sender, extraAmount);\n        }\n    }\n\n    // This function should be called by the borrowing company\n    function payBackBond() public payable {\n        require(\n            msg.sender == _company,\n            \"Paying company should be the borrowing company\"\n        );\n        require(\n            msg.value >= _totalDebt,\n            \"Not enough coins to settle the bond at maturity\"\n        );\n\n        // Interate through the bonds\n        uint256 numberOfBonds = _bondIdTracker.current();\n        for (uint256 i = 0; i < numberOfBonds; i++) {\n            address payable investor = payable(ownerOf(i));\n            // Transfer bond from investor to owner\n            bondTransfer(investor, _owner, i);\n            // Return funds\n            investor.transfer(_value);\n            // Decrement the values\n            _totalDebt = _totalDebt - _value;\n            _bondIdTracker.decrement();\n        }\n\n        // Set the payment date\n        _actualPrincipalPaymentDate = block.timestamp;\n\n        // Refund coins there is extra money on the contract\n        if (address(this).balance > 0 && msg.value > _totalDebt) {\n            uint256 extraAmount = msg.value - _totalDebt;\n            if (address(this).balance < extraAmount) {\n                uint256 amount = address(this).balance;\n                payable(msg.sender).transfer(amount);\n                emit CoinRefund(msg.sender, amount);\n            } else {\n                payable(msg.sender).transfer(extraAmount);\n                emit CoinRefund(msg.sender, extraAmount);\n            }\n        }\n    }\n\n    // Internal function to transer the bonds\n    function bondTransfer(\n        address from,\n        address to,\n        uint256 bondId\n    ) internal {\n        _transfer(from, to, bondId);\n    }\n\n    // Pauser functions\n    /**\n     * @dev Returns true if the contract is paused, and false otherwise.\n     */\n    function paused() public view returns (bool) {\n        return _paused;\n    }\n\n    /**\n     * @dev Called by a pauser to pause, triggers stopped state.\n     */\n    function pause() public whenNotPaused {\n        require(msg.sender == _regulator, \"Pauser can only be the regulator\");\n        _paused = true;\n        emit Paused(_msgSender());\n    }\n\n    /**\n     * @dev Called by a pauser to unpause, returns to normal state.\n     */\n    function unpause() public whenPaused {\n        require(msg.sender == _regulator, \"Unpauser can only be the regulator\");\n        _paused = false;\n        emit Unpaused(_msgSender());\n    }\n\n    /**\n     * Function for the greenVerifier to adjust the bond\n     */\n    function adjustCoupon(bool increase, uint256 amount) public {\n        require(msg.sender == _greenVerifier);\n        if (increase) {\n            _coupon = _coupon + amount;\n        } else {\n            require(amount <= _coupon, \"Coupon payment can't be negative\");\n            _coupon = _coupon - amount;\n        }\n        emit CouponAdjustment(msg.sender, _coupon);\n    }\n}\n",
  "sourcePath": "/Users/leena/Documents/Coding/Blockchain_Green_Bonds/testProjects/OZ_test/contracts/GreenBond.sol",
  "compiler": {
    "name": "solc",
    "version": "0.8.0+commit.c7dfd78e.Emscripten.clang"
  },
  "schemaVersion": "3.3.4",
  "updatedAt": "2021-07-15T10:59:39.434Z",
  "networkType": "ethereum",
  "devdoc": {
    "events": {
      "CoinRefund(address,uint256)": {
        "details": "Emitted when coins are refunded to the investor in case there are too many coins for the investment or to the company if they pay too much  with coupons / principal repayment"
      },
      "CouponAdjustment(address,uint256)": {
        "details": "Emmitted when coupon payment is adjusted"
      },
      "CouponPayment(address,uint256)": {
        "details": "Emitted when a coupon payment has been made"
      },
      "Investment(address,uint256,uint256)": {
        "details": "Emitted when an investor registers initial investment request"
      },
      "Paused(address)": {
        "details": "Emitted when the pause is triggered by a pauser (regulator)."
      },
      "Unpaused(address)": {
        "details": "Emitted when the pause is lifted by a pauser (regulator)."
      }
    },
    "kind": "dev",
    "methods": {
      "approve(address,uint256)": {
        "details": "See {IERC721-approve}."
      },
      "balanceOf(address)": {
        "details": "See {IERC721-balanceOf}."
      },
      "constructor": {
        "details": "constructor, requires name and symbol for the bond, base URI for metadata, company address, facevalue for one bond / min investment coupon amount, investment window closing time"
      },
      "getApproved(uint256)": {
        "details": "See {IERC721-getApproved}."
      },
      "isApprovedForAll(address,address)": {
        "details": "See {IERC721-isApprovedForAll}."
      },
      "issueBonds()": {
        "details": "Function to issue bonds for investors who have registered  Assumes all investors will get the requested investment Can be called only when investment window is closed and the contract is unpaused"
      },
      "name()": {
        "details": "See {IERC721Metadata-name}."
      },
      "owner()": {
        "details": "Returns the address of the current owner."
      },
      "ownerOf(uint256)": {
        "details": "See {IERC721-ownerOf}."
      },
      "pause()": {
        "details": "Called by a pauser to pause, triggers stopped state."
      },
      "paused()": {
        "details": "Returns true if the contract is paused, and false otherwise."
      },
      "renounceOwnership()": {
        "details": "Leaves the contract without owner. It will not be possible to call `onlyOwner` functions anymore. Can only be called by the current owner. NOTE: Renouncing ownership will leave the contract without an owner, thereby removing any functionality that is only available to the owner."
      },
      "returnInvestorMoney()": {
        "details": "Function for regulator to return all money to investors if there are any issues with the borrowing company"
      },
      "safeTransferFrom(address,address,uint256)": {
        "details": "See {IERC721-safeTransferFrom}."
      },
      "safeTransferFrom(address,address,uint256,bytes)": {
        "details": "See {IERC721-safeTransferFrom}."
      },
      "setApprovalForAll(address,bool)": {
        "details": "See {IERC721-setApprovalForAll}."
      },
      "supportsInterface(bytes4)": {
        "details": "See {IERC165-supportsInterface}."
      },
      "symbol()": {
        "details": "See {IERC721Metadata-symbol}."
      },
      "tokenURI(uint256)": {
        "details": "See {IERC721Metadata-tokenURI}."
      },
      "transferFrom(address,address,uint256)": {
        "details": "See {IERC721-transferFrom}."
      },
      "transferOwnership(address)": {
        "details": "Transfers ownership of the contract to a new account (`newOwner`). Can only be called by the current owner."
      },
      "unpause()": {
        "details": "Called by a pauser to unpause, returns to normal state."
      }
    },
    "version": 1
  },
  "userdoc": {
    "kind": "user",
    "methods": {
      "adjustCoupon(bool,uint256)": {
        "notice": "Function for the greenVerifier to adjust the bond"
      }
    },
    "version": 1
  }
}