{
  "contractName": "GreenCertificate",
  "abi": [
    {
      "inputs": [
        {
          "internalType": "address",
          "name": "company",
          "type": "address"
        }
      ],
      "stateMutability": "nonpayable",
      "type": "constructor"
    },
    {
      "anonymous": false,
      "inputs": [
        {
          "indexed": false,
          "internalType": "string",
          "name": "name",
          "type": "string"
        }
      ],
      "name": "ProjectAdded",
      "type": "event"
    },
    {
      "anonymous": false,
      "inputs": [
        {
          "indexed": false,
          "internalType": "string",
          "name": "name",
          "type": "string"
        }
      ],
      "name": "ProjectRemoved",
      "type": "event"
    },
    {
      "inputs": [],
      "name": "getOwner",
      "outputs": [
        {
          "internalType": "address",
          "name": "",
          "type": "address"
        }
      ],
      "stateMutability": "view",
      "type": "function"
    },
    {
      "inputs": [],
      "name": "getCompany",
      "outputs": [
        {
          "internalType": "address",
          "name": "",
          "type": "address"
        }
      ],
      "stateMutability": "view",
      "type": "function"
    },
    {
      "inputs": [],
      "name": "getProjects",
      "outputs": [
        {
          "internalType": "string[]",
          "name": "",
          "type": "string[]"
        }
      ],
      "stateMutability": "view",
      "type": "function"
    },
    {
      "inputs": [
        {
          "internalType": "string",
          "name": "name",
          "type": "string"
        }
      ],
      "name": "isCertifiedProject",
      "outputs": [
        {
          "internalType": "bool",
          "name": "",
          "type": "bool"
        }
      ],
      "stateMutability": "view",
      "type": "function"
    },
    {
      "inputs": [
        {
          "internalType": "string",
          "name": "name",
          "type": "string"
        }
      ],
      "name": "addProject",
      "outputs": [],
      "stateMutability": "nonpayable",
      "type": "function"
    }
  ],
  "bytecode": "0x608060405234801561001057600080fd5b50604051610a07380380610a07833981810160405281019061003291906100ce565b80600160006101000a81548173ffffffffffffffffffffffffffffffffffffffff021916908373ffffffffffffffffffffffffffffffffffffffff160217905550336000806101000a81548173ffffffffffffffffffffffffffffffffffffffff021916908373ffffffffffffffffffffffffffffffffffffffff16021790555050610140565b6000815190506100c881610129565b92915050565b6000602082840312156100e057600080fd5b60006100ee848285016100b9565b91505092915050565b600061010282610109565b9050919050565b600073ffffffffffffffffffffffffffffffffffffffff82169050919050565b610132816100f7565b811461013d57600080fd5b50565b6108b88061014f6000396000f3fe608060405234801561001057600080fd5b50600436106100575760003560e01c80630ed047d41461005c578063127810bc14610078578063893d20e814610096578063dcc60128146100b4578063ffa67370146100d2575b600080fd5b61007660048036038101906100719190610473565b610102565b005b610080610207565b60405161008d9190610615565b60405180910390f35b61009e610231565b6040516100ab9190610615565b60405180910390f35b6100bc61025a565b6040516100c99190610630565b60405180910390f35b6100ec60048036038101906100e79190610473565b610333565b6040516100f99190610652565b60405180910390f35b60008054906101000a900473ffffffffffffffffffffffffffffffffffffffff1673ffffffffffffffffffffffffffffffffffffffff163373ffffffffffffffffffffffffffffffffffffffff161461015a57600080fd5b600160038260405161016c91906105fe565b908152602001604051809103902060006101000a81548160ff0219169083151502179055506002819080600181540180825580915050600190039060005260206000200160009091909190915090805190602001906101cc929190610368565b507fe2113e2f31e9059e4f64d1910b874f2e8ee4a4fd9081c4910d409f649dfe3b48816040516101fc919061066d565b60405180910390a150565b6000600160009054906101000a900473ffffffffffffffffffffffffffffffffffffffff16905090565b60008060009054906101000a900473ffffffffffffffffffffffffffffffffffffffff16905090565b60606002805480602002602001604051908101604052809291908181526020016000905b8282101561032a57838290600052602060002001805461029d906107e1565b80601f01602080910402602001604051908101604052809291908181526020018280546102c9906107e1565b80156103165780601f106102eb57610100808354040283529160200191610316565b820191906000526020600020905b8154815290600101906020018083116102f957829003601f168201915b50505050508152602001906001019061027e565b50505050905090565b600060038260405161034591906105fe565b908152602001604051809103902060009054906101000a900460ff169050919050565b828054610374906107e1565b90600052602060002090601f01602090048101928261039657600085556103dd565b82601f106103af57805160ff19168380011785556103dd565b828001600101855582156103dd579182015b828111156103dc5782518255916020019190600101906103c1565b5b5090506103ea91906103ee565b5090565b5b808211156104075760008160009055506001016103ef565b5090565b600061041e610419846106c0565b61068f565b90508281526020810184848401111561043657600080fd5b61044184828561079f565b509392505050565b600082601f83011261045a57600080fd5b813561046a84826020860161040b565b91505092915050565b60006020828403121561048557600080fd5b600082013567ffffffffffffffff81111561049f57600080fd5b6104ab84828501610449565b91505092915050565b60006104c0838361055b565b905092915050565b6104d181610761565b82525050565b60006104e282610700565b6104ec8185610723565b9350836020820285016104fe856106f0565b8060005b8581101561053a578484038952815161051b85826104b4565b945061052683610716565b925060208a01995050600181019050610502565b50829750879550505050505092915050565b61055581610773565b82525050565b60006105668261070b565b6105708185610734565b93506105808185602086016107ae565b61058981610871565b840191505092915050565b600061059f8261070b565b6105a98185610745565b93506105b98185602086016107ae565b6105c281610871565b840191505092915050565b60006105d88261070b565b6105e28185610756565b93506105f28185602086016107ae565b80840191505092915050565b600061060a82846105cd565b915081905092915050565b600060208201905061062a60008301846104c8565b92915050565b6000602082019050818103600083015261064a81846104d7565b905092915050565b6000602082019050610667600083018461054c565b92915050565b600060208201905081810360008301526106878184610594565b905092915050565b6000604051905081810181811067ffffffffffffffff821117156106b6576106b5610842565b5b8060405250919050565b600067ffffffffffffffff8211156106db576106da610842565b5b601f19601f8301169050602081019050919050565b6000819050602082019050919050565b600081519050919050565b600081519050919050565b6000602082019050919050565b600082825260208201905092915050565b600082825260208201905092915050565b600082825260208201905092915050565b600081905092915050565b600061076c8261077f565b9050919050565b60008115159050919050565b600073ffffffffffffffffffffffffffffffffffffffff82169050919050565b82818337600083830152505050565b60005b838110156107cc5780820151818401526020810190506107b1565b838111156107db576000848401525b50505050565b600060028204905060018216806107f957607f821691505b6020821081141561080d5761080c610813565b5b50919050565b7f4e487b7100000000000000000000000000000000000000000000000000000000600052602260045260246000fd5b7f4e487b7100000000000000000000000000000000000000000000000000000000600052604160045260246000fd5b6000601f19601f830116905091905056fea26469706673582212202b168f99684ef8a24e6738169fe3cd5036a786ca36356fad863246d27da0ac2864736f6c63430008000033",
  "immutableReferences": {},
  "source": "// SPDX-License-Identifier: MIT\npragma solidity >=0.6.0;\n\ncontract GreenCertificate {\n\n    /** \n    * @dev Event to be emitted when a project is added\n    */\n    event ProjectAdded(string name);\n    /** \n    * @dev Event to be emitted when a project is removed\n    */\n    event ProjectRemoved(string name);\n\n    // function modifier\n    modifier onlyOwner() {\n        require(msg.sender == _owner);\n        _;\n    }\n\n    // Member variables\n    address private _owner;\n    address private _company;\n    string[] private _projectList;\n\n    // Mapping for certified projects\n    mapping(string => bool) _greenProjects;\n\n    constructor(address company) {\n        _company = company;\n        _owner = msg.sender;\n    }\n\n    // Getter functions\n    function getOwner() external view returns (address) {\n        return _owner;\n    }\n\n    function getCompany() external view returns (address) {\n        return _company;\n    }\n\n    function getProjects() public view returns (string[] memory) {\n        return _projectList;\n    }\n\n    // Function to check if a project is certified\n    function isCertifiedProject(string memory name) external view returns (bool) {\n        return (_greenProjects[name]);\n    }\n\n    // Functions to add and remove certified projects\n    function addProject(string memory name) external onlyOwner {\n        _greenProjects[name] = true;\n        _projectList.push(name);\n        emit ProjectAdded(name);\n    }\n}",
  "sourcePath": "/Users/leena/Documents/Coding/Blockchain_Green_Bonds/testProjects/OZ_test/contracts/GreenCertificate.sol",
  "compiler": {
    "name": "solc",
    "version": "0.8.0+commit.c7dfd78e.Emscripten.clang"
  },
  "schemaVersion": "3.3.4",
  "updatedAt": "2021-07-13T13:42:14.204Z",
  "networkType": "ethereum",
  "devdoc": {
    "events": {
      "ProjectAdded(string)": {
        "details": "Event to be emitted when a project is added"
      },
      "ProjectRemoved(string)": {
        "details": "Event to be emitted when a project is removed"
      }
    },
    "kind": "dev",
    "methods": {},
    "version": 1
  },
  "userdoc": {
    "kind": "user",
    "methods": {},
    "version": 1
  }
}