{
  "contractName": "GreenVerification",
  "abi": [
    {
      "inputs": [
        {
          "internalType": "string",
          "name": "symbol",
          "type": "string"
        }
      ],
      "stateMutability": "nonpayable",
      "type": "constructor"
    },
    {
      "anonymous": false,
      "inputs": [
        {
          "indexed": false,
          "internalType": "uint256",
          "name": "recordedResult",
          "type": "uint256"
        }
      ],
      "name": "ResultAdded",
      "type": "event"
    },
    {
      "inputs": [],
      "name": "getOwner",
      "outputs": [
        {
          "internalType": "address",
          "name": "",
          "type": "address"
        }
      ],
      "stateMutability": "view",
      "type": "function"
    },
    {
      "inputs": [],
      "name": "getBond",
      "outputs": [
        {
          "internalType": "string",
          "name": "",
          "type": "string"
        }
      ],
      "stateMutability": "view",
      "type": "function"
    },
    {
      "inputs": [],
      "name": "getResults",
      "outputs": [
        {
          "internalType": "uint256[]",
          "name": "",
          "type": "uint256[]"
        }
      ],
      "stateMutability": "view",
      "type": "function"
    },
    {
      "inputs": [
        {
          "internalType": "uint256",
          "name": "number",
          "type": "uint256"
        }
      ],
      "name": "getResult",
      "outputs": [
        {
          "internalType": "uint256",
          "name": "",
          "type": "uint256"
        }
      ],
      "stateMutability": "view",
      "type": "function"
    },
    {
      "inputs": [],
      "name": "getNumberOfResults",
      "outputs": [
        {
          "internalType": "uint256",
          "name": "",
          "type": "uint256"
        }
      ],
      "stateMutability": "view",
      "type": "function"
    },
    {
      "inputs": [
        {
          "internalType": "uint256",
          "name": "result",
          "type": "uint256"
        }
      ],
      "name": "addResult",
      "outputs": [],
      "stateMutability": "nonpayable",
      "type": "function"
    }
  ],
  "bytecode": "0x60806040523480156200001157600080fd5b5060405162000b6238038062000b628339818101604052810190620000379190620001b9565b336000806101000a81548173ffffffffffffffffffffffffffffffffffffffff021916908373ffffffffffffffffffffffffffffffffffffffff16021790555080600190805190602001906200008f92919062000097565b50506200032f565b828054620000a5906200029b565b90600052602060002090601f016020900481019282620000c9576000855562000115565b82601f10620000e457805160ff191683800117855562000115565b8280016001018555821562000115579182015b8281111562000114578251825591602001919060010190620000f7565b5b50905062000124919062000128565b5090565b5b808211156200014357600081600090555060010162000129565b5090565b60006200015e620001588462000232565b620001fe565b9050828152602081018484840111156200017757600080fd5b6200018484828562000265565b509392505050565b600082601f8301126200019e57600080fd5b8151620001b084826020860162000147565b91505092915050565b600060208284031215620001cc57600080fd5b600082015167ffffffffffffffff811115620001e757600080fd5b620001f5848285016200018c565b91505092915050565b6000604051905081810181811067ffffffffffffffff8211171562000228576200022762000300565b5b8060405250919050565b600067ffffffffffffffff82111562000250576200024f62000300565b5b601f19601f8301169050602081019050919050565b60005b838110156200028557808201518184015260208101905062000268565b8381111562000295576000848401525b50505050565b60006002820490506001821680620002b457607f821691505b60208210811415620002cb57620002ca620002d1565b5b50919050565b7f4e487b7100000000000000000000000000000000000000000000000000000000600052602260045260246000fd5b7f4e487b7100000000000000000000000000000000000000000000000000000000600052604160045260246000fd5b610823806200033f6000396000f3fe608060405234801561001057600080fd5b50600436106100625760003560e01c806309ffa6cf146100675780632be8d79f146100835780634717f97c146100a1578063893d20e8146100bf578063995e4339146100dd578063ac9824721461010d575b600080fd5b610081600480360381019061007c91906103fe565b61012b565b005b61008b61021c565b6040516100989190610622565b60405180910390f35b6100a9610229565b6040516100b6919061059e565b60405180910390f35b6100c7610281565b6040516100d49190610583565b60405180910390f35b6100f760048036038101906100f291906103fe565b6102aa565b6040516101049190610622565b60405180910390f35b610115610357565b60405161012291906105c0565b60405180910390f35b60008054906101000a900473ffffffffffffffffffffffffffffffffffffffff1673ffffffffffffffffffffffffffffffffffffffff163373ffffffffffffffffffffffffffffffffffffffff16146101b9576040517f08c379a00000000000000000000000000000000000000000000000000000000081526004016101b0906105e2565b60405180910390fd5b60028190806001815401808255809150506001900390600052602060002001600090919091909150557f92304b2ca1800e2e7b33e9d20a5da5822623e9a982f53a496597185a1abaaf35816040516102119190610622565b60405180910390a150565b6000600280549050905090565b6060600280548060200260200160405190810160405280929190818152602001828054801561027757602002820191906000526020600020905b815481526020019060010190808311610263575b5050505050905090565b60008060009054906101000a900473ffffffffffffffffffffffffffffffffffffffff16905090565b600080821180156102c057506002805490508211155b6102ff576040517f08c379a00000000000000000000000000000000000000000000000000000000081526004016102f690610602565b60405180910390fd5b600260018361030e9190610692565b81548110610345577f4e487b7100000000000000000000000000000000000000000000000000000000600052603260045260246000fd5b90600052602060002001549050919050565b60606001805461036690610735565b80601f016020809104026020016040519081016040528092919081815260200182805461039290610735565b80156103df5780601f106103b4576101008083540402835291602001916103df565b820191906000526020600020905b8154815290600101906020018083116103c257829003601f168201915b5050505050905090565b6000813590506103f8816107d6565b92915050565b60006020828403121561041057600080fd5b600061041e848285016103e9565b91505092915050565b60006104338383610565565b60208301905092915050565b610448816106c6565b82525050565b60006104598261064d565b6104638185610670565b935061046e8361063d565b8060005b8381101561049f5781516104868882610427565b975061049183610663565b925050600181019050610472565b5085935050505092915050565b60006104b782610658565b6104c18185610681565b93506104d1818560208601610702565b6104da816107c5565b840191505092915050565b60006104f2602083610681565b91507f4f6e6c79206f776e65722063616e2063616c6c207468652066756e6374696f6e6000830152602082019050919050565b6000610532600e83610681565b91507f6e6f207375636820726573756c740000000000000000000000000000000000006000830152602082019050919050565b61056e816106f8565b82525050565b61057d816106f8565b82525050565b6000602082019050610598600083018461043f565b92915050565b600060208201905081810360008301526105b8818461044e565b905092915050565b600060208201905081810360008301526105da81846104ac565b905092915050565b600060208201905081810360008301526105fb816104e5565b9050919050565b6000602082019050818103600083015261061b81610525565b9050919050565b60006020820190506106376000830184610574565b92915050565b6000819050602082019050919050565b600081519050919050565b600081519050919050565b6000602082019050919050565b600082825260208201905092915050565b600082825260208201905092915050565b600061069d826106f8565b91506106a8836106f8565b9250828210156106bb576106ba610767565b5b828203905092915050565b60006106d1826106d8565b9050919050565b600073ffffffffffffffffffffffffffffffffffffffff82169050919050565b6000819050919050565b60005b83811015610720578082015181840152602081019050610705565b8381111561072f576000848401525b50505050565b6000600282049050600182168061074d57607f821691505b6020821081141561076157610760610796565b5b50919050565b7f4e487b7100000000000000000000000000000000000000000000000000000000600052601160045260246000fd5b7f4e487b7100000000000000000000000000000000000000000000000000000000600052602260045260246000fd5b6000601f19601f8301169050919050565b6107df816106f8565b81146107ea57600080fd5b5056fea2646970667358221220683cd3e0b31205b5ccdac5c3ac1b8bac2a31cd488a239acc151bd5c623f5989964736f6c63430008000033",
  "immutableReferences": {},
  "source": "// SPDX-License-Identifier: MIT\npragma solidity >=0.6.0;\n\ncontract GreenVerification {\n  \n    /**\n     * @dev Modified for functions that can only be called by the  owner/green verifier\n     */\n    modifier onlyOwner {\n        require(\n            msg.sender == _owner,\n            \"Only owner can call the function\"\n        );\n        _;\n    }\n\n    // EVENTS\n    /**\n     * @dev Event to be emmited when a verification result is added\n    */\n    event ResultAdded(uint256 recordedResult);\n \n    // STATE VARIABLES\n\n    address private _owner;\n    string private _symbol;\n    uint256[] private _resultArray;\n\n    // CONSTRUCTOR\n    /**\n     * Takes bond symbol as constructor parameter\n     */\n    constructor(\n        string memory symbol\n    ) {\n        _owner = msg.sender;\n        _symbol = symbol;\n    }\n\n    // FUNCTIONS\n\n    /**\n     * @dev Function to return the owner of the contract \n     */\n    function getOwner() public view returns (address) {\n        return _owner;\n    }\n\n    /**\n     * @dev Function to return the bond symbol \n     */\n    function getBond() public view returns (string memory) {\n        return _symbol;\n    }\n\n    /**\n     * @dev Function to return the list of verification results\n     */\n    function getResults() public view returns (uint256[] memory) {\n       return _resultArray;\n    }\n\n    /**\n     * @dev Function to return a specific verification results.\n            E.g. Result matching coupon 1.\n            Requires that result has been recorded.\n     */\n    function getResult(uint256 number) public view returns (uint256) {\n        require(number > 0 && number <= _resultArray.length, \"no such result\");\n        return _resultArray[number - 1];\n    }\n\n    /**\n     * @dev Function to return the number of results recorded on the verification.\n     */\n    function getNumberOfResults() public view returns (uint256) {\n        return _resultArray.length;\n    }\n\n    /**\n     * @dev Function to add new result.\n            Can only be called by the owner of the contract.\n     */\n    function addResult(uint256 result) \n        external\n        onlyOwner\n    {\n        \n        _resultArray.push(result);\n        emit ResultAdded(result);\n    }   \n}\n",
  "sourcePath": "/Users/leena/Documents/Coding/Blockchain_Green_Bonds/testProjects/OZ_test/contracts/GreenVerification.sol",
  "compiler": {
    "name": "solc",
    "version": "0.8.0+commit.c7dfd78e.Emscripten.clang"
  },
  "schemaVersion": "3.4.1",
  "updatedAt": "2021-08-20T15:18:01.842Z",
  "devdoc": {
    "events": {
      "ResultAdded(uint256)": {
        "details": "Event to be emmited when a verification result is added"
      }
    },
    "kind": "dev",
    "methods": {
      "addResult(uint256)": {
        "details": "Function to add new result. Can only be called by the owner of the contract."
      },
      "getBond()": {
        "details": "Function to return the bond symbol "
      },
      "getNumberOfResults()": {
        "details": "Function to return the number of results recorded on the verification."
      },
      "getOwner()": {
        "details": "Function to return the owner of the contract "
      },
      "getResult(uint256)": {
        "details": "Function to return a specific verification results. E.g. Result matching coupon 1. Requires that result has been recorded."
      },
      "getResults()": {
        "details": "Function to return the list of verification results"
      }
    },
    "version": 1
  },
  "userdoc": {
    "kind": "user",
    "methods": {
      "constructor": {
        "notice": "Takes bond symbol as constructor parameter"
      }
    },
    "version": 1
  }
}