{
  "contractName": "GreenBond",
  "abi": [
    {
      "inputs": [
        {
          "internalType": "string",
          "name": "name",
          "type": "string"
        },
        {
          "internalType": "string",
          "name": "symbol",
          "type": "string"
        },
        {
          "internalType": "string",
          "name": "baseTokenURI",
          "type": "string"
        },
        {
          "internalType": "address",
          "name": "company",
          "type": "address"
        },
        {
          "internalType": "uint256",
          "name": "value",
          "type": "uint256"
        },
        {
          "internalType": "uint256",
          "name": "coupon",
          "type": "uint256"
        },
        {
          "internalType": "uint256",
          "name": "bidClosingTime",
          "type": "uint256"
        }
      ],
      "stateMutability": "nonpayable",
      "type": "constructor"
    },
    {
      "anonymous": false,
      "inputs": [
        {
          "indexed": true,
          "internalType": "address",
          "name": "owner",
          "type": "address"
        },
        {
          "indexed": true,
          "internalType": "address",
          "name": "approved",
          "type": "address"
        },
        {
          "indexed": true,
          "internalType": "uint256",
          "name": "tokenId",
          "type": "uint256"
        }
      ],
      "name": "Approval",
      "type": "event"
    },
    {
      "anonymous": false,
      "inputs": [
        {
          "indexed": true,
          "internalType": "address",
          "name": "owner",
          "type": "address"
        },
        {
          "indexed": true,
          "internalType": "address",
          "name": "operator",
          "type": "address"
        },
        {
          "indexed": false,
          "internalType": "bool",
          "name": "approved",
          "type": "bool"
        }
      ],
      "name": "ApprovalForAll",
      "type": "event"
    },
    {
      "anonymous": false,
      "inputs": [
        {
          "indexed": false,
          "internalType": "address",
          "name": "sender",
          "type": "address"
        },
        {
          "indexed": false,
          "internalType": "uint256",
          "name": "value",
          "type": "uint256"
        }
      ],
      "name": "CoinRefund",
      "type": "event"
    },
    {
      "anonymous": false,
      "inputs": [
        {
          "indexed": false,
          "internalType": "address",
          "name": "adjuster",
          "type": "address"
        },
        {
          "indexed": false,
          "internalType": "uint256",
          "name": "couponRate",
          "type": "uint256"
        }
      ],
      "name": "CouponAdjustment",
      "type": "event"
    },
    {
      "anonymous": false,
      "inputs": [
        {
          "indexed": false,
          "internalType": "address",
          "name": "investor",
          "type": "address"
        },
        {
          "indexed": false,
          "internalType": "uint256",
          "name": "tokenId",
          "type": "uint256"
        }
      ],
      "name": "CouponPayment",
      "type": "event"
    },
    {
      "anonymous": false,
      "inputs": [
        {
          "indexed": false,
          "internalType": "address",
          "name": "investor",
          "type": "address"
        },
        {
          "indexed": false,
          "internalType": "uint256",
          "name": "value",
          "type": "uint256"
        },
        {
          "indexed": false,
          "internalType": "uint256",
          "name": "numberOfTokens",
          "type": "uint256"
        }
      ],
      "name": "Investment",
      "type": "event"
    },
    {
      "anonymous": false,
      "inputs": [
        {
          "indexed": true,
          "internalType": "address",
          "name": "previousOwner",
          "type": "address"
        },
        {
          "indexed": true,
          "internalType": "address",
          "name": "newOwner",
          "type": "address"
        }
      ],
      "name": "OwnershipTransferred",
      "type": "event"
    },
    {
      "anonymous": false,
      "inputs": [
        {
          "indexed": false,
          "internalType": "address",
          "name": "account",
          "type": "address"
        }
      ],
      "name": "Paused",
      "type": "event"
    },
    {
      "anonymous": false,
      "inputs": [
        {
          "indexed": true,
          "internalType": "address",
          "name": "from",
          "type": "address"
        },
        {
          "indexed": true,
          "internalType": "address",
          "name": "to",
          "type": "address"
        },
        {
          "indexed": true,
          "internalType": "uint256",
          "name": "tokenId",
          "type": "uint256"
        }
      ],
      "name": "Transfer",
      "type": "event"
    },
    {
      "anonymous": false,
      "inputs": [
        {
          "indexed": false,
          "internalType": "address",
          "name": "account",
          "type": "address"
        }
      ],
      "name": "Unpaused",
      "type": "event"
    },
    {
      "inputs": [
        {
          "internalType": "address",
          "name": "to",
          "type": "address"
        },
        {
          "internalType": "uint256",
          "name": "tokenId",
          "type": "uint256"
        }
      ],
      "name": "approve",
      "outputs": [],
      "stateMutability": "nonpayable",
      "type": "function"
    },
    {
      "inputs": [
        {
          "internalType": "address",
          "name": "owner",
          "type": "address"
        }
      ],
      "name": "balanceOf",
      "outputs": [
        {
          "internalType": "uint256",
          "name": "",
          "type": "uint256"
        }
      ],
      "stateMutability": "view",
      "type": "function"
    },
    {
      "inputs": [
        {
          "internalType": "uint256",
          "name": "tokenId",
          "type": "uint256"
        }
      ],
      "name": "getApproved",
      "outputs": [
        {
          "internalType": "address",
          "name": "",
          "type": "address"
        }
      ],
      "stateMutability": "view",
      "type": "function"
    },
    {
      "inputs": [
        {
          "internalType": "address",
          "name": "owner",
          "type": "address"
        },
        {
          "internalType": "address",
          "name": "operator",
          "type": "address"
        }
      ],
      "name": "isApprovedForAll",
      "outputs": [
        {
          "internalType": "bool",
          "name": "",
          "type": "bool"
        }
      ],
      "stateMutability": "view",
      "type": "function"
    },
    {
      "inputs": [],
      "name": "name",
      "outputs": [
        {
          "internalType": "string",
          "name": "",
          "type": "string"
        }
      ],
      "stateMutability": "view",
      "type": "function"
    },
    {
      "inputs": [],
      "name": "owner",
      "outputs": [
        {
          "internalType": "address",
          "name": "",
          "type": "address"
        }
      ],
      "stateMutability": "view",
      "type": "function"
    },
    {
      "inputs": [
        {
          "internalType": "uint256",
          "name": "tokenId",
          "type": "uint256"
        }
      ],
      "name": "ownerOf",
      "outputs": [
        {
          "internalType": "address",
          "name": "",
          "type": "address"
        }
      ],
      "stateMutability": "view",
      "type": "function"
    },
    {
      "inputs": [],
      "name": "renounceOwnership",
      "outputs": [],
      "stateMutability": "nonpayable",
      "type": "function"
    },
    {
      "inputs": [
        {
          "internalType": "address",
          "name": "from",
          "type": "address"
        },
        {
          "internalType": "address",
          "name": "to",
          "type": "address"
        },
        {
          "internalType": "uint256",
          "name": "tokenId",
          "type": "uint256"
        }
      ],
      "name": "safeTransferFrom",
      "outputs": [],
      "stateMutability": "nonpayable",
      "type": "function"
    },
    {
      "inputs": [
        {
          "internalType": "address",
          "name": "from",
          "type": "address"
        },
        {
          "internalType": "address",
          "name": "to",
          "type": "address"
        },
        {
          "internalType": "uint256",
          "name": "tokenId",
          "type": "uint256"
        },
        {
          "internalType": "bytes",
          "name": "_data",
          "type": "bytes"
        }
      ],
      "name": "safeTransferFrom",
      "outputs": [],
      "stateMutability": "nonpayable",
      "type": "function"
    },
    {
      "inputs": [
        {
          "internalType": "address",
          "name": "operator",
          "type": "address"
        },
        {
          "internalType": "bool",
          "name": "approved",
          "type": "bool"
        }
      ],
      "name": "setApprovalForAll",
      "outputs": [],
      "stateMutability": "nonpayable",
      "type": "function"
    },
    {
      "inputs": [],
      "name": "symbol",
      "outputs": [
        {
          "internalType": "string",
          "name": "",
          "type": "string"
        }
      ],
      "stateMutability": "view",
      "type": "function"
    },
    {
      "inputs": [
        {
          "internalType": "uint256",
          "name": "tokenId",
          "type": "uint256"
        }
      ],
      "name": "tokenURI",
      "outputs": [
        {
          "internalType": "string",
          "name": "",
          "type": "string"
        }
      ],
      "stateMutability": "view",
      "type": "function"
    },
    {
      "inputs": [
        {
          "internalType": "address",
          "name": "from",
          "type": "address"
        },
        {
          "internalType": "address",
          "name": "to",
          "type": "address"
        },
        {
          "internalType": "uint256",
          "name": "tokenId",
          "type": "uint256"
        }
      ],
      "name": "transferFrom",
      "outputs": [],
      "stateMutability": "nonpayable",
      "type": "function"
    },
    {
      "inputs": [
        {
          "internalType": "address",
          "name": "newOwner",
          "type": "address"
        }
      ],
      "name": "transferOwnership",
      "outputs": [],
      "stateMutability": "nonpayable",
      "type": "function"
    },
    {
      "inputs": [],
      "name": "isOpen",
      "outputs": [
        {
          "internalType": "bool",
          "name": "",
          "type": "bool"
        }
      ],
      "stateMutability": "view",
      "type": "function"
    },
    {
      "inputs": [],
      "name": "company",
      "outputs": [
        {
          "internalType": "address",
          "name": "",
          "type": "address"
        }
      ],
      "stateMutability": "view",
      "type": "function"
    },
    {
      "inputs": [],
      "name": "bidClosingTime",
      "outputs": [
        {
          "internalType": "uint256",
          "name": "",
          "type": "uint256"
        }
      ],
      "stateMutability": "view",
      "type": "function"
    },
    {
      "inputs": [
        {
          "internalType": "address",
          "name": "regulator",
          "type": "address"
        }
      ],
      "name": "setRegulator",
      "outputs": [],
      "stateMutability": "nonpayable",
      "type": "function"
    },
    {
      "inputs": [
        {
          "internalType": "address",
          "name": "greenVerifier",
          "type": "address"
        }
      ],
      "name": "setGreenVerifier",
      "outputs": [],
      "stateMutability": "nonpayable",
      "type": "function"
    },
    {
      "inputs": [],
      "name": "regulator",
      "outputs": [
        {
          "internalType": "address",
          "name": "",
          "type": "address"
        }
      ],
      "stateMutability": "view",
      "type": "function"
    },
    {
      "inputs": [],
      "name": "greenVerifier",
      "outputs": [
        {
          "internalType": "address",
          "name": "",
          "type": "address"
        }
      ],
      "stateMutability": "view",
      "type": "function"
    },
    {
      "inputs": [],
      "name": "getValue",
      "outputs": [
        {
          "internalType": "uint256",
          "name": "",
          "type": "uint256"
        }
      ],
      "stateMutability": "view",
      "type": "function"
    },
    {
      "inputs": [],
      "name": "getCoupon",
      "outputs": [
        {
          "internalType": "uint256",
          "name": "",
          "type": "uint256"
        }
      ],
      "stateMutability": "view",
      "type": "function"
    },
    {
      "inputs": [],
      "name": "getTotalLoan",
      "outputs": [
        {
          "internalType": "uint256",
          "name": "",
          "type": "uint256"
        }
      ],
      "stateMutability": "view",
      "type": "function"
    },
    {
      "inputs": [],
      "name": "numberOfInvestors",
      "outputs": [
        {
          "internalType": "uint256",
          "name": "",
          "type": "uint256"
        }
      ],
      "stateMutability": "view",
      "type": "function"
    },
    {
      "inputs": [],
      "name": "tokenCount",
      "outputs": [
        {
          "internalType": "uint256",
          "name": "",
          "type": "uint256"
        }
      ],
      "stateMutability": "view",
      "type": "function"
    },
    {
      "inputs": [],
      "name": "getName",
      "outputs": [
        {
          "internalType": "string",
          "name": "",
          "type": "string"
        }
      ],
      "stateMutability": "view",
      "type": "function"
    },
    {
      "inputs": [
        {
          "internalType": "address",
          "name": "investor",
          "type": "address"
        }
      ],
      "name": "getInvestorBalance",
      "outputs": [
        {
          "internalType": "uint256",
          "name": "",
          "type": "uint256"
        }
      ],
      "stateMutability": "view",
      "type": "function"
    },
    {
      "inputs": [
        {
          "internalType": "bytes4",
          "name": "interfaceId",
          "type": "bytes4"
        }
      ],
      "name": "supportsInterface",
      "outputs": [
        {
          "internalType": "bool",
          "name": "",
          "type": "bool"
        }
      ],
      "stateMutability": "view",
      "type": "function"
    },
    {
      "inputs": [
        {
          "internalType": "uint256",
          "name": "number",
          "type": "uint256"
        }
      ],
      "name": "registerInvestment",
      "outputs": [],
      "stateMutability": "payable",
      "type": "function"
    },
    {
      "inputs": [],
      "name": "issueTokens",
      "outputs": [],
      "stateMutability": "nonpayable",
      "type": "function"
    },
    {
      "inputs": [],
      "name": "returnInvestorMoney",
      "outputs": [],
      "stateMutability": "nonpayable",
      "type": "function"
    },
    {
      "inputs": [],
      "name": "payCoupons",
      "outputs": [],
      "stateMutability": "payable",
      "type": "function"
    },
    {
      "inputs": [],
      "name": "payBackBond",
      "outputs": [],
      "stateMutability": "payable",
      "type": "function"
    },
    {
      "inputs": [],
      "name": "paused",
      "outputs": [
        {
          "internalType": "bool",
          "name": "",
          "type": "bool"
        }
      ],
      "stateMutability": "view",
      "type": "function"
    },
    {
      "inputs": [],
      "name": "pause",
      "outputs": [],
      "stateMutability": "nonpayable",
      "type": "function"
    },
    {
      "inputs": [],
      "name": "unpause",
      "outputs": [],
      "stateMutability": "nonpayable",
      "type": "function"
    },
    {
      "inputs": [
        {
          "internalType": "bool",
          "name": "increase",
          "type": "bool"
        },
        {
          "internalType": "uint256",
          "name": "amount",
          "type": "uint256"
        }
      ],
      "name": "adjustCoupon",
      "outputs": [],
      "stateMutability": "nonpayable",
      "type": "function"
    }
  ],
  "bytecode": "0x60806040523480156200001157600080fd5b50604051620054c7380380620054c7833981810160405281019062000037919062000395565b868681600090805190602001906200005192919062000245565b5080600190805190602001906200006a92919062000245565b50505060006200007f6200023d60201b60201c565b905080600660006101000a81548173ffffffffffffffffffffffffffffffffffffffff021916908373ffffffffffffffffffffffffffffffffffffffff1602179055508073ffffffffffffffffffffffffffffffffffffffff16600073ffffffffffffffffffffffffffffffffffffffff167f8be0079c531659141344cd1fd0a4f28419497f9722a3daafe3b4186f6b6457e060405160405180910390a350600082101562000165576040517f08c379a00000000000000000000000000000000000000000000000000000000081526004016200015c90620004cf565b60405180910390fd5b33600b60006101000a81548173ffffffffffffffffffffffffffffffffffffffff021916908373ffffffffffffffffffffffffffffffffffffffff1602179055508460079080519060200190620001be92919062000245565b5083600c60006101000a81548173ffffffffffffffffffffffffffffffffffffffff021916908373ffffffffffffffffffffffffffffffffffffffff16021790555082600f81905550816010819055506000600960006101000a81548160ff0219169083151502179055508060128190555050505050505050620006a5565b600033905090565b8280546200025390620005dd565b90600052602060002090601f016020900481019282620002775760008555620002c3565b82601f106200029257805160ff1916838001178555620002c3565b82800160010185558215620002c3579182015b82811115620002c2578251825591602001919060010190620002a5565b5b509050620002d29190620002d6565b5090565b5b80821115620002f1576000816000905550600101620002d7565b5090565b60006200030c620003068462000525565b620004f1565b9050828152602081018484840111156200032557600080fd5b62000332848285620005a7565b509392505050565b6000815190506200034b8162000671565b92915050565b600082601f8301126200036357600080fd5b815162000375848260208601620002f5565b91505092915050565b6000815190506200038f816200068b565b92915050565b600080600080600080600060e0888a031215620003b157600080fd5b600088015167ffffffffffffffff811115620003cc57600080fd5b620003da8a828b0162000351565b975050602088015167ffffffffffffffff811115620003f857600080fd5b620004068a828b0162000351565b965050604088015167ffffffffffffffff8111156200042457600080fd5b620004328a828b0162000351565b9550506060620004458a828b016200033a565b9450506080620004588a828b016200037e565b93505060a06200046b8a828b016200037e565b92505060c06200047e8a828b016200037e565b91505092959891949750929550565b60006200049c60208362000558565b91507f436f75706f6e207061796d656e742063616e2774206265206e656761746976656000830152602082019050919050565b60006020820190508181036000830152620004ea816200048d565b9050919050565b6000604051905081810181811067ffffffffffffffff821117156200051b576200051a62000642565b5b8060405250919050565b600067ffffffffffffffff82111562000543576200054262000642565b5b601f19601f8301169050602081019050919050565b600082825260208201905092915050565b600062000576826200057d565b9050919050565b600073ffffffffffffffffffffffffffffffffffffffff82169050919050565b6000819050919050565b60005b83811015620005c7578082015181840152602081019050620005aa565b83811115620005d7576000848401525b50505050565b60006002820490506001821680620005f657607f821691505b602082108114156200060d576200060c62000613565b5b50919050565b7f4e487b7100000000000000000000000000000000000000000000000000000000600052602260045260246000fd5b7f4e487b7100000000000000000000000000000000000000000000000000000000600052604160045260246000fd5b6200067c8162000569565b81146200068857600080fd5b50565b62000696816200059d565b8114620006a257600080fd5b50565b614e1280620006b56000396000f3fe60806040526004361061022f5760003560e01c806360ab58521161012e578063a22cb465116100ab578063d367acfe1161006f578063d367acfe14610793578063dd8fee14146107be578063e985e9c5146107e9578063efd8672914610826578063f2fde38b1461084f5761022f565b8063a22cb465146106c4578063b57e8a1f146106ed578063b88d4fde14610704578063c87b56dd1461072d578063cde0a4f81461076a5761022f565b80638456cb59116100f25780638456cb59146106035780638a06a3641461061a5780638da5cb5b1461064357806395d89b411461066e5780639f181b5e146106995761022f565b806360ab5852146105305780636352211e146105475780636904c94d1461058457806370a08231146105af578063715018a6146105ec5761022f565b806320965255116101bc57806347535d7b1161018057806347535d7b146104895780634a513801146104b45780634cff6c0e146104be5780635c975abb146104c85780635ea63913146104f35761022f565b806320965255146103ca57806323b872dd146103f55780632929c6e61461041e5780633f4ba83a1461044957806342842e0e146104605761022f565b8063081812fc11610203578063081812fc146102e3578063095ea7b31461032057806317d7de7c146103495780631af2c9fd146103745780631f5380031461039f5761022f565b806283db4b1461023457806301ffc9a71461025057806306fdde031461028d57806307634cbe146102b8575b600080fd5b61024e60048036038101906102499190613842565b610878565b005b34801561025c57600080fd5b50610277600480360381019061027291906137f0565b610b1b565b604051610284919061450a565b60405180910390f35b34801561029957600080fd5b506102a2610b2d565b6040516102af9190614525565b60405180910390f35b3480156102c457600080fd5b506102cd610bbf565b6040516102da9190614947565b60405180910390f35b3480156102ef57600080fd5b5061030a60048036038101906103059190613842565b610bc9565b604051610317919061441a565b60405180910390f35b34801561032c57600080fd5b5061034760048036038101906103429190613778565b610c4e565b005b34801561035557600080fd5b5061035e610d66565b60405161036b9190614525565b60405180910390f35b34801561038057600080fd5b50610389610d75565b6040516103969190614947565b60405180910390f35b3480156103ab57600080fd5b506103b4610d82565b6040516103c19190614947565b60405180910390f35b3480156103d657600080fd5b506103df610d8c565b6040516103ec9190614947565b60405180910390f35b34801561040157600080fd5b5061041c60048036038101906104179190613672565b610d96565b005b34801561042a57600080fd5b50610433610df6565b6040516104409190614947565b60405180910390f35b34801561045557600080fd5b5061045e610e00565b005b34801561046c57600080fd5b5061048760048036038101906104829190613672565b610f3a565b005b34801561049557600080fd5b5061049e610f5a565b6040516104ab919061450a565b60405180910390f35b6104bc610f67565b005b6104c66111d0565b005b3480156104d457600080fd5b506104dd6114b7565b6040516104ea919061450a565b60405180910390f35b3480156104ff57600080fd5b5061051a6004803603810190610515919061360d565b6114ce565b6040516105279190614947565b60405180910390f35b34801561053c57600080fd5b50610545611586565b005b34801561055357600080fd5b5061056e60048036038101906105699190613842565b611a63565b60405161057b919061441a565b60405180910390f35b34801561059057600080fd5b50610599611b15565b6040516105a6919061441a565b60405180910390f35b3480156105bb57600080fd5b506105d660048036038101906105d1919061360d565b611b3f565b6040516105e39190614947565b60405180910390f35b3480156105f857600080fd5b50610601611bf7565b005b34801561060f57600080fd5b50610618611d34565b005b34801561062657600080fd5b50610641600480360381019061063c919061360d565b611e6f565b005b34801561064f57600080fd5b50610658611f2f565b604051610665919061441a565b60405180910390f35b34801561067a57600080fd5b50610683611f59565b6040516106909190614525565b60405180910390f35b3480156106a557600080fd5b506106ae611feb565b6040516106bb9190614947565b60405180910390f35b3480156106d057600080fd5b506106eb60048036038101906106e6919061373c565b611ffc565b005b3480156106f957600080fd5b5061070261217d565b005b34801561071057600080fd5b5061072b600480360381019061072691906136c1565b612372565b005b34801561073957600080fd5b50610754600480360381019061074f9190613842565b6123d4565b6040516107619190614525565b60405180910390f35b34801561077657600080fd5b50610791600480360381019061078c919061360d565b61247b565b005b34801561079f57600080fd5b506107a861253b565b6040516107b5919061441a565b60405180910390f35b3480156107ca57600080fd5b506107d3612565565b6040516107e0919061441a565b60405180910390f35b3480156107f557600080fd5b50610810600480360381019061080b9190613636565b61258f565b60405161081d919061450a565b60405180910390f35b34801561083257600080fd5b5061084d600480360381019061084891906137b4565b612623565b005b34801561085b57600080fd5b506108766004803603810190610871919061360d565b612735565b005b610880610f5a565b6108bf576040517f08c379a00000000000000000000000000000000000000000000000000000000081526004016108b690614867565b60405180910390fd5b600f54816108cd9190614a8d565b34101561090f576040517f08c379a000000000000000000000000000000000000000000000000000000000815260040161090690614927565b60405180910390fd5b6000601360003373ffffffffffffffffffffffffffffffffffffffff1673ffffffffffffffffffffffffffffffffffffffff1681526020019081526020016000205414156109bb57600a339080600181540180825580915050600190039060005260206000200160009091909190916101000a81548173ffffffffffffffffffffffffffffffffffffffff021916908373ffffffffffffffffffffffffffffffffffffffff1602179055505b6000601360003373ffffffffffffffffffffffffffffffffffffffff1673ffffffffffffffffffffffffffffffffffffffff1681526020019081526020016000205490503481610a0b9190614a06565b601360003373ffffffffffffffffffffffffffffffffffffffff1673ffffffffffffffffffffffffffffffffffffffff1681526020019081526020016000208190555081601460003373ffffffffffffffffffffffffffffffffffffffff1673ffffffffffffffffffffffffffffffffffffffff16815260200190815260200160002054610a999190614a06565b601460003373ffffffffffffffffffffffffffffffffffffffff1673ffffffffffffffffffffffffffffffffffffffff168152602001908152602001600020819055507f8514357b17ccbde354811f827b94585a7ab01b4034aa86a807b7cc2c100b7be8333484604051610b0f939291906144d3565b60405180910390a15050565b6000610b26826128e1565b9050919050565b606060008054610b3c90614c07565b80601f0160208091040260200160405190810160405280929190818152602001828054610b6890614c07565b8015610bb55780601f10610b8a57610100808354040283529160200191610bb5565b820191906000526020600020905b815481529060010190602001808311610b9857829003601f168201915b5050505050905090565b6000601054905090565b6000610bd4826129c3565b610c13576040517f08c379a0000000000000000000000000000000000000000000000000000000008152600401610c0a906147a7565b60405180910390fd5b6004600083815260200190815260200160002060009054906101000a900473ffffffffffffffffffffffffffffffffffffffff169050919050565b6000610c5982611a63565b90508073ffffffffffffffffffffffffffffffffffffffff168373ffffffffffffffffffffffffffffffffffffffff161415610cca576040517f08c379a0000000000000000000000000000000000000000000000000000000008152600401610cc190614847565b60405180910390fd5b8073ffffffffffffffffffffffffffffffffffffffff16610ce9612a2f565b73ffffffffffffffffffffffffffffffffffffffff161480610d185750610d1781610d12612a2f565b61258f565b5b610d57576040517f08c379a0000000000000000000000000000000000000000000000000000000008152600401610d4e90614707565b60405180910390fd5b610d618383612a37565b505050565b6060610d70610b2d565b905090565b6000600a80549050905090565b6000601254905090565b6000600f54905090565b610da7610da1612a2f565b82612af0565b610de6576040517f08c379a0000000000000000000000000000000000000000000000000000000008152600401610ddd906148a7565b60405180910390fd5b610df1838383612bce565b505050565b6000601154905090565b600960009054906101000a900460ff16610e4f576040517f08c379a0000000000000000000000000000000000000000000000000000000008152600401610e4690614547565b60405180910390fd5b600d60009054906101000a900473ffffffffffffffffffffffffffffffffffffffff1673ffffffffffffffffffffffffffffffffffffffff163373ffffffffffffffffffffffffffffffffffffffff1614610edf576040517f08c379a0000000000000000000000000000000000000000000000000000000008152600401610ed6906145a7565b60405180910390fd5b6000600960006101000a81548160ff0219169083151502179055507f5db9ee0a495bf2e6ff9c91a7834c1ba4fdd244a5e8aa4e537bd38aeae4b073aa610f23612a2f565b604051610f30919061441a565b60405180910390a1565b610f5583838360405180602001604052806000815250612372565b505050565b6000601254421115905090565b600c60009054906101000a900473ffffffffffffffffffffffffffffffffffffffff1673ffffffffffffffffffffffffffffffffffffffff163373ffffffffffffffffffffffffffffffffffffffff1614610ff7576040517f08c379a0000000000000000000000000000000000000000000000000000000008152600401610fee90614767565b60405180910390fd5b6110016008612e2a565b60105461100e9190614a8d565b341015611050576040517f08c379a000000000000000000000000000000000000000000000000000000000815260040161104790614887565b60405180910390fd5b60005b61105d6008612e2a565b81101561110757600061106f82611a63565b90508073ffffffffffffffffffffffffffffffffffffffff166108fc6010549081150290604051600060405180830381858888f193505050501580156110b9573d6000803e3d6000fd5b507fb3224bc7c2e6157092b5f650cc8b06e5f0c34d8218b6e9a1a5a39c2e43706e4081836040516110eb929190614435565b60405180910390a15080806110ff90614c39565b915050611053565b506111126008612e2a565b60105461111f9190614a8d565b3411156111ce5760006111326008612e2a565b60105461113f9190614a8d565b3461114a9190614ae7565b90503373ffffffffffffffffffffffffffffffffffffffff166108fc829081150290604051600060405180830381858888f19350505050158015611192573d6000803e3d6000fd5b507f2ee76d0c8417fef3c9f68663d321eb1c1ed0e089b5298177f0582aeadb6fd91f33826040516111c49291906144aa565b60405180910390a1505b565b600c60009054906101000a900473ffffffffffffffffffffffffffffffffffffffff1673ffffffffffffffffffffffffffffffffffffffff163373ffffffffffffffffffffffffffffffffffffffff1614611260576040517f08c379a000000000000000000000000000000000000000000000000000000000815260040161125790614647565b60405180910390fd5b6011543410156112a5576040517f08c379a000000000000000000000000000000000000000000000000000000000815260040161129c906148c7565b60405180910390fd5b60006112b16008612e2a565b905060005b818110156113755760006112c982611a63565b90506112f881600b60009054906101000a900473ffffffffffffffffffffffffffffffffffffffff1684612e38565b8073ffffffffffffffffffffffffffffffffffffffff166108fc600f549081150290604051600060405180830381858888f19350505050158015611340573d6000803e3d6000fd5b50600f546011546113519190614ae7565b6011819055506113616008612e48565b50808061136d90614c39565b9150506112b6565b50600047118015611387575060115434115b156114b45760006011543461139c9190614ae7565b9050804710156114315760004790503373ffffffffffffffffffffffffffffffffffffffff166108fc829081150290604051600060405180830381858888f193505050501580156113f1573d6000803e3d6000fd5b507f2ee76d0c8417fef3c9f68663d321eb1c1ed0e089b5298177f0582aeadb6fd91f33826040516114239291906144aa565b60405180910390a1506114b2565b3373ffffffffffffffffffffffffffffffffffffffff166108fc829081150290604051600060405180830381858888f19350505050158015611477573d6000803e3d6000fd5b507f2ee76d0c8417fef3c9f68663d321eb1c1ed0e089b5298177f0582aeadb6fd91f33826040516114a99291906144aa565b60405180910390a15b505b50565b6000600960009054906101000a900460ff16905090565b60008073ffffffffffffffffffffffffffffffffffffffff168273ffffffffffffffffffffffffffffffffffffffff16141561153f576040517f08c379a0000000000000000000000000000000000000000000000000000000008152600401611536906147e7565b60405180910390fd5b601360008373ffffffffffffffffffffffffffffffffffffffff1673ffffffffffffffffffffffffffffffffffffffff168152602001908152602001600020549050919050565b61158e610f5a565b156115ce576040517f08c379a00000000000000000000000000000000000000000000000000000000081526004016115c5906148e7565b60405180910390fd5b600960009054906101000a900460ff161561161e576040517f08c379a0000000000000000000000000000000000000000000000000000000008152600401611615906146c7565b60405180910390fd5b600b60009054906101000a900473ffffffffffffffffffffffffffffffffffffffff1673ffffffffffffffffffffffffffffffffffffffff163373ffffffffffffffffffffffffffffffffffffffff16146116ae576040517f08c379a00000000000000000000000000000000000000000000000000000000081526004016116a590614907565b60405180910390fd5b60005b600a80549050811015611a60576000600a82815481106116fa577f4e487b7100000000000000000000000000000000000000000000000000000000600052603260045260246000fd5b9060005260206000200160009054906101000a900473ffffffffffffffffffffffffffffffffffffffff1690506000601460008373ffffffffffffffffffffffffffffffffffffffff1673ffffffffffffffffffffffffffffffffffffffff168152602001908152602001600020549050600c60009054906101000a900473ffffffffffffffffffffffffffffffffffffffff1673ffffffffffffffffffffffffffffffffffffffff166108fc82600f546117b59190614a8d565b9081150290604051600060405180830381858888f193505050501580156117e0573d6000803e3d6000fd5b5060005b8181101561181c576117ff836117fa6008612e2a565b612ea4565b6118096008613072565b808061181490614c39565b9150506117e4565b50600f548161182b9190614a8d565b601360008473ffffffffffffffffffffffffffffffffffffffff1673ffffffffffffffffffffffffffffffffffffffff1681526020019081526020016000205411156119a0578173ffffffffffffffffffffffffffffffffffffffff166108fc600f54836118999190614a8d565b601360008673ffffffffffffffffffffffffffffffffffffffff1673ffffffffffffffffffffffffffffffffffffffff168152602001908152602001600020546118e39190614ae7565b9081150290604051600060405180830381858888f1935050505015801561190e573d6000803e3d6000fd5b507f2ee76d0c8417fef3c9f68663d321eb1c1ed0e089b5298177f0582aeadb6fd91f82600f548361193f9190614a8d565b601360008673ffffffffffffffffffffffffffffffffffffffff1673ffffffffffffffffffffffffffffffffffffffff168152602001908152602001600020546119899190614ae7565b6040516119979291906144aa565b60405180910390a15b6000601360008473ffffffffffffffffffffffffffffffffffffffff1673ffffffffffffffffffffffffffffffffffffffff168152602001908152602001600020819055506000601460008473ffffffffffffffffffffffffffffffffffffffff1673ffffffffffffffffffffffffffffffffffffffff1681526020019081526020016000208190555080600f54611a389190614a8d565b601154611a459190614a06565b60118190555050508080611a5890614c39565b9150506116b1565b50565b6000806002600084815260200190815260200160002060009054906101000a900473ffffffffffffffffffffffffffffffffffffffff169050600073ffffffffffffffffffffffffffffffffffffffff168173ffffffffffffffffffffffffffffffffffffffff161415611b0c576040517f08c379a0000000000000000000000000000000000000000000000000000000008152600401611b0390614747565b60405180910390fd5b80915050919050565b6000600c60009054906101000a900473ffffffffffffffffffffffffffffffffffffffff16905090565b60008073ffffffffffffffffffffffffffffffffffffffff168273ffffffffffffffffffffffffffffffffffffffff161415611bb0576040517f08c379a0000000000000000000000000000000000000000000000000000000008152600401611ba790614727565b60405180910390fd5b600360008373ffffffffffffffffffffffffffffffffffffffff1673ffffffffffffffffffffffffffffffffffffffff168152602001908152602001600020549050919050565b611bff612a2f565b73ffffffffffffffffffffffffffffffffffffffff16611c1d611f2f565b73ffffffffffffffffffffffffffffffffffffffff1614611c73576040517f08c379a0000000000000000000000000000000000000000000000000000000008152600401611c6a906147c7565b60405180910390fd5b600073ffffffffffffffffffffffffffffffffffffffff16600660009054906101000a900473ffffffffffffffffffffffffffffffffffffffff1673ffffffffffffffffffffffffffffffffffffffff167f8be0079c531659141344cd1fd0a4f28419497f9722a3daafe3b4186f6b6457e060405160405180910390a36000600660006101000a81548173ffffffffffffffffffffffffffffffffffffffff021916908373ffffffffffffffffffffffffffffffffffffffff160217905550565b600960009054906101000a900460ff1615611d84576040517f08c379a0000000000000000000000000000000000000000000000000000000008152600401611d7b906146c7565b60405180910390fd5b600d60009054906101000a900473ffffffffffffffffffffffffffffffffffffffff1673ffffffffffffffffffffffffffffffffffffffff163373ffffffffffffffffffffffffffffffffffffffff1614611e14576040517f08c379a0000000000000000000000000000000000000000000000000000000008152600401611e0b906146e7565b60405180910390fd5b6001600960006101000a81548160ff0219169083151502179055507f62e78cea01bee320cd4e420270b5ea74000d11b0c9f74754ebdbfc544b05a258611e58612a2f565b604051611e65919061441a565b60405180910390a1565b611e77612a2f565b73ffffffffffffffffffffffffffffffffffffffff16611e95611f2f565b73ffffffffffffffffffffffffffffffffffffffff1614611eeb576040517f08c379a0000000000000000000000000000000000000000000000000000000008152600401611ee2906147c7565b60405180910390fd5b80600e60006101000a81548173ffffffffffffffffffffffffffffffffffffffff021916908373ffffffffffffffffffffffffffffffffffffffff16021790555050565b6000600660009054906101000a900473ffffffffffffffffffffffffffffffffffffffff16905090565b606060018054611f6890614c07565b80601f0160208091040260200160405190810160405280929190818152602001828054611f9490614c07565b8015611fe15780601f10611fb657610100808354040283529160200191611fe1565b820191906000526020600020905b815481529060010190602001808311611fc457829003601f168201915b5050505050905090565b6000611ff76008612e2a565b905090565b612004612a2f565b73ffffffffffffffffffffffffffffffffffffffff168273ffffffffffffffffffffffffffffffffffffffff161415612072576040517f08c379a000000000000000000000000000000000000000000000000000000000815260040161206990614627565b60405180910390fd5b806005600061207f612a2f565b73ffffffffffffffffffffffffffffffffffffffff1673ffffffffffffffffffffffffffffffffffffffff16815260200190815260200160002060008473ffffffffffffffffffffffffffffffffffffffff1673ffffffffffffffffffffffffffffffffffffffff16815260200190815260200160002060006101000a81548160ff0219169083151502179055508173ffffffffffffffffffffffffffffffffffffffff1661212c612a2f565b73ffffffffffffffffffffffffffffffffffffffff167f17307eab39ab6107e8899845ad3d59bd9653f200f220920489ca2b5937696c3183604051612171919061450a565b60405180910390a35050565b600960009054906101000a900460ff166121cc576040517f08c379a00000000000000000000000000000000000000000000000000000000081526004016121c390614547565b60405180910390fd5b600d60009054906101000a900473ffffffffffffffffffffffffffffffffffffffff1673ffffffffffffffffffffffffffffffffffffffff163373ffffffffffffffffffffffffffffffffffffffff161461225c576040517f08c379a0000000000000000000000000000000000000000000000000000000008152600401612253906146a7565b60405180910390fd5b60005b600a8054905081101561236f576000600a82815481106122a8577f4e487b7100000000000000000000000000000000000000000000000000000000600052603260045260246000fd5b9060005260206000200160009054906101000a900473ffffffffffffffffffffffffffffffffffffffff1690508073ffffffffffffffffffffffffffffffffffffffff166108fc601360008473ffffffffffffffffffffffffffffffffffffffff1673ffffffffffffffffffffffffffffffffffffffff168152602001908152602001600020549081150290604051600060405180830381858888f1935050505015801561235a573d6000803e3d6000fd5b5050808061236790614c39565b91505061225f565b50565b61238361237d612a2f565b83612af0565b6123c2576040517f08c379a00000000000000000000000000000000000000000000000000000000081526004016123b9906148a7565b60405180910390fd5b6123ce84848484613088565b50505050565b60606123df826129c3565b61241e576040517f08c379a000000000000000000000000000000000000000000000000000000000815260040161241590614827565b60405180910390fd5b60006124286130e4565b905060008151116124485760405180602001604052806000815250612473565b8061245284613176565b6040516020016124639291906143f6565b6040516020818303038152906040525b915050919050565b612483612a2f565b73ffffffffffffffffffffffffffffffffffffffff166124a1611f2f565b73ffffffffffffffffffffffffffffffffffffffff16146124f7576040517f08c379a00000000000000000000000000000000000000000000000000000000081526004016124ee906147c7565b60405180910390fd5b80600d60006101000a81548173ffffffffffffffffffffffffffffffffffffffff021916908373ffffffffffffffffffffffffffffffffffffffff16021790555050565b6000600e60009054906101000a900473ffffffffffffffffffffffffffffffffffffffff16905090565b6000600d60009054906101000a900473ffffffffffffffffffffffffffffffffffffffff16905090565b6000600560008473ffffffffffffffffffffffffffffffffffffffff1673ffffffffffffffffffffffffffffffffffffffff16815260200190815260200160002060008373ffffffffffffffffffffffffffffffffffffffff1673ffffffffffffffffffffffffffffffffffffffff16815260200190815260200160002060009054906101000a900460ff16905092915050565b600e60009054906101000a900473ffffffffffffffffffffffffffffffffffffffff1673ffffffffffffffffffffffffffffffffffffffff163373ffffffffffffffffffffffffffffffffffffffff161461267d57600080fd5b811561269c57806010546126919190614a06565b6010819055506126f6565b6010548111156126e1576040517f08c379a00000000000000000000000000000000000000000000000000000000081526004016126d890614667565b60405180910390fd5b806010546126ef9190614ae7565b6010819055505b7fca1d6283d1b481c7291c2fc81205d98456d1c2948caa5f9460dd3e35ca34e416336010546040516127299291906144aa565b60405180910390a15050565b61273d612a2f565b73ffffffffffffffffffffffffffffffffffffffff1661275b611f2f565b73ffffffffffffffffffffffffffffffffffffffff16146127b1576040517f08c379a00000000000000000000000000000000000000000000000000000000081526004016127a8906147c7565b60405180910390fd5b600073ffffffffffffffffffffffffffffffffffffffff168173ffffffffffffffffffffffffffffffffffffffff161415612821576040517f08c379a0000000000000000000000000000000000000000000000000000000008152600401612818906145c7565b60405180910390fd5b8073ffffffffffffffffffffffffffffffffffffffff16600660009054906101000a900473ffffffffffffffffffffffffffffffffffffffff1673ffffffffffffffffffffffffffffffffffffffff167f8be0079c531659141344cd1fd0a4f28419497f9722a3daafe3b4186f6b6457e060405160405180910390a380600660006101000a81548173ffffffffffffffffffffffffffffffffffffffff021916908373ffffffffffffffffffffffffffffffffffffffff16021790555050565b60007f80ac58cd000000000000000000000000000000000000000000000000000000007bffffffffffffffffffffffffffffffffffffffffffffffffffffffff1916827bffffffffffffffffffffffffffffffffffffffffffffffffffffffff191614806129ac57507f5b5e139f000000000000000000000000000000000000000000000000000000007bffffffffffffffffffffffffffffffffffffffffffffffffffffffff1916827bffffffffffffffffffffffffffffffffffffffffffffffffffffffff1916145b806129bc57506129bb82613323565b5b9050919050565b60008073ffffffffffffffffffffffffffffffffffffffff166002600084815260200190815260200160002060009054906101000a900473ffffffffffffffffffffffffffffffffffffffff1673ffffffffffffffffffffffffffffffffffffffff1614159050919050565b600033905090565b816004600083815260200190815260200160002060006101000a81548173ffffffffffffffffffffffffffffffffffffffff021916908373ffffffffffffffffffffffffffffffffffffffff160217905550808273ffffffffffffffffffffffffffffffffffffffff16612aaa83611a63565b73ffffffffffffffffffffffffffffffffffffffff167f8c5be1e5ebec7d5bd14f71427d1e84f3dd0314c0f7b2291e5b200ac8c7c3b92560405160405180910390a45050565b6000612afb826129c3565b612b3a576040517f08c379a0000000000000000000000000000000000000000000000000000000008152600401612b3190614687565b60405180910390fd5b6000612b4583611a63565b90508073ffffffffffffffffffffffffffffffffffffffff168473ffffffffffffffffffffffffffffffffffffffff161480612bb457508373ffffffffffffffffffffffffffffffffffffffff16612b9c84610bc9565b73ffffffffffffffffffffffffffffffffffffffff16145b80612bc55750612bc4818561258f565b5b91505092915050565b8273ffffffffffffffffffffffffffffffffffffffff16612bee82611a63565b73ffffffffffffffffffffffffffffffffffffffff1614612c44576040517f08c379a0000000000000000000000000000000000000000000000000000000008152600401612c3b90614807565b60405180910390fd5b600073ffffffffffffffffffffffffffffffffffffffff168273ffffffffffffffffffffffffffffffffffffffff161415612cb4576040517f08c379a0000000000000000000000000000000000000000000000000000000008152600401612cab90614607565b60405180910390fd5b612cbf83838361338d565b612cca600082612a37565b6001600360008573ffffffffffffffffffffffffffffffffffffffff1673ffffffffffffffffffffffffffffffffffffffff1681526020019081526020016000206000828254612d1a9190614ae7565b925050819055506001600360008473ffffffffffffffffffffffffffffffffffffffff1673ffffffffffffffffffffffffffffffffffffffff1681526020019081526020016000206000828254612d719190614a06565b92505081905550816002600083815260200190815260200160002060006101000a81548173ffffffffffffffffffffffffffffffffffffffff021916908373ffffffffffffffffffffffffffffffffffffffff160217905550808273ffffffffffffffffffffffffffffffffffffffff168473ffffffffffffffffffffffffffffffffffffffff167fddf252ad1be2c89b69c2b068fc378daa952ba7f163c4a11628f55a4df523b3ef60405160405180910390a4505050565b600081600001549050919050565b612e43838383612bce565b505050565b60008160000154905060008111612e94576040517f08c379a0000000000000000000000000000000000000000000000000000000008152600401612e8b90614567565b60405180910390fd5b6001810382600001819055505050565b600073ffffffffffffffffffffffffffffffffffffffff168273ffffffffffffffffffffffffffffffffffffffff161415612f14576040517f08c379a0000000000000000000000000000000000000000000000000000000008152600401612f0b90614787565b60405180910390fd5b612f1d816129c3565b15612f5d576040517f08c379a0000000000000000000000000000000000000000000000000000000008152600401612f54906145e7565b60405180910390fd5b612f696000838361338d565b6001600360008473ffffffffffffffffffffffffffffffffffffffff1673ffffffffffffffffffffffffffffffffffffffff1681526020019081526020016000206000828254612fb99190614a06565b92505081905550816002600083815260200190815260200160002060006101000a81548173ffffffffffffffffffffffffffffffffffffffff021916908373ffffffffffffffffffffffffffffffffffffffff160217905550808273ffffffffffffffffffffffffffffffffffffffff16600073ffffffffffffffffffffffffffffffffffffffff167fddf252ad1be2c89b69c2b068fc378daa952ba7f163c4a11628f55a4df523b3ef60405160405180910390a45050565b6001816000016000828254019250508190555050565b613093848484612bce565b61309f84848484613392565b6130de576040517f08c379a00000000000000000000000000000000000000000000000000000000081526004016130d590614587565b60405180910390fd5b50505050565b6060600780546130f390614c07565b80601f016020809104026020016040519081016040528092919081815260200182805461311f90614c07565b801561316c5780601f106131415761010080835404028352916020019161316c565b820191906000526020600020905b81548152906001019060200180831161314f57829003601f168201915b5050505050905090565b606060008214156131be576040518060400160405280600181526020017f3000000000000000000000000000000000000000000000000000000000000000815250905061331e565b600082905060005b600082146131f05780806131d990614c39565b915050600a826131e99190614a5c565b91506131c6565b60008167ffffffffffffffff811115613232577f4e487b7100000000000000000000000000000000000000000000000000000000600052604160045260246000fd5b6040519080825280601f01601f1916602001820160405280156132645781602001600182028036833780820191505090505b5090505b600085146133175760018261327d9190614ae7565b9150600a8561328c9190614c82565b60306132989190614a06565b60f81b8183815181106132d4577f4e487b7100000000000000000000000000000000000000000000000000000000600052603260045260246000fd5b60200101907effffffffffffffffffffffffffffffffffffffffffffffffffffffffffffff1916908160001a905350600a856133109190614a5c565b9450613268565b8093505050505b919050565b60007f01ffc9a7000000000000000000000000000000000000000000000000000000007bffffffffffffffffffffffffffffffffffffffffffffffffffffffff1916827bffffffffffffffffffffffffffffffffffffffffffffffffffffffff1916149050919050565b505050565b60006133b38473ffffffffffffffffffffffffffffffffffffffff16613529565b1561351c578373ffffffffffffffffffffffffffffffffffffffff1663150b7a026133dc612a2f565b8786866040518563ffffffff1660e01b81526004016133fe949392919061445e565b602060405180830381600087803b15801561341857600080fd5b505af192505050801561344957506040513d601f19601f820116820180604052508101906134469190613819565b60015b6134cc573d8060008114613479576040519150601f19603f3d011682016040523d82523d6000602084013e61347e565b606091505b506000815114156134c4576040517f08c379a00000000000000000000000000000000000000000000000000000000081526004016134bb90614587565b60405180910390fd5b805181602001fd5b63150b7a0260e01b7bffffffffffffffffffffffffffffffffffffffffffffffffffffffff1916817bffffffffffffffffffffffffffffffffffffffffffffffffffffffff191614915050613521565b600190505b949350505050565b600080823b905060008111915050919050565b600061354f61354a84614993565b614962565b90508281526020810184848401111561356757600080fd5b613572848285614bc5565b509392505050565b60008135905061358981614d80565b92915050565b60008135905061359e81614d97565b92915050565b6000813590506135b381614dae565b92915050565b6000815190506135c881614dae565b92915050565b600082601f8301126135df57600080fd5b81356135ef84826020860161353c565b91505092915050565b60008135905061360781614dc5565b92915050565b60006020828403121561361f57600080fd5b600061362d8482850161357a565b91505092915050565b6000806040838503121561364957600080fd5b60006136578582860161357a565b92505060206136688582860161357a565b9150509250929050565b60008060006060848603121561368757600080fd5b60006136958682870161357a565b93505060206136a68682870161357a565b92505060406136b7868287016135f8565b9150509250925092565b600080600080608085870312156136d757600080fd5b60006136e58782880161357a565b94505060206136f68782880161357a565b9350506040613707878288016135f8565b925050606085013567ffffffffffffffff81111561372457600080fd5b613730878288016135ce565b91505092959194509250565b6000806040838503121561374f57600080fd5b600061375d8582860161357a565b925050602061376e8582860161358f565b9150509250929050565b6000806040838503121561378b57600080fd5b60006137998582860161357a565b92505060206137aa858286016135f8565b9150509250929050565b600080604083850312156137c757600080fd5b60006137d58582860161358f565b92505060206137e6858286016135f8565b9150509250929050565b60006020828403121561380257600080fd5b6000613810848285016135a4565b91505092915050565b60006020828403121561382b57600080fd5b6000613839848285016135b9565b91505092915050565b60006020828403121561385457600080fd5b6000613862848285016135f8565b91505092915050565b61387481614b8f565b82525050565b61388381614b1b565b82525050565b61389281614b2d565b82525050565b60006138a3826149c3565b6138ad81856149d9565b93506138bd818560208601614bd4565b6138c681614d6f565b840191505092915050565b60006138dc826149ce565b6138e681856149ea565b93506138f6818560208601614bd4565b6138ff81614d6f565b840191505092915050565b6000613915826149ce565b61391f81856149fb565b935061392f818560208601614bd4565b80840191505092915050565b60006139486014836149ea565b91507f5061757361626c653a206e6f74207061757365640000000000000000000000006000830152602082019050919050565b6000613988601b836149ea565b91507f436f756e7465723a2064656372656d656e74206f766572666c6f7700000000006000830152602082019050919050565b60006139c86032836149ea565b91507f4552433732313a207472616e7366657220746f206e6f6e20455243373231526560008301527f63656976657220696d706c656d656e74657200000000000000000000000000006020830152604082019050919050565b6000613a2e6022836149ea565b91507f556e7061757365722063616e206f6e6c792062652074686520726567756c617460008301527f6f720000000000000000000000000000000000000000000000000000000000006020830152604082019050919050565b6000613a946026836149ea565b91507f4f776e61626c653a206e6577206f776e657220697320746865207a65726f206160008301527f64647265737300000000000000000000000000000000000000000000000000006020830152604082019050919050565b6000613afa601c836149ea565b91507f4552433732313a20746f6b656e20616c7265616479206d696e746564000000006000830152602082019050919050565b6000613b3a6024836149ea565b91507f4552433732313a207472616e7366657220746f20746865207a65726f2061646460008301527f72657373000000000000000000000000000000000000000000000000000000006020830152604082019050919050565b6000613ba06019836149ea565b91507f4552433732313a20617070726f766520746f2063616c6c6572000000000000006000830152602082019050919050565b6000613be0602e836149ea565b91507f506179696e6720636f6d70616e792073686f756c642062652074686520626f7260008301527f726f77696e6720636f6d70616e790000000000000000000000000000000000006020830152604082019050919050565b6000613c466020836149ea565b91507f436f75706f6e207061796d656e742063616e2774206265206e656761746976656000830152602082019050919050565b6000613c86602c836149ea565b91507f4552433732313a206f70657261746f7220717565727920666f72206e6f6e657860008301527f697374656e7420746f6b656e00000000000000000000000000000000000000006020830152604082019050919050565b6000613cec6025836149ea565b91507f4f6e6c7920726567756c61746f722063616e2072657475726e20696e7665737460008301527f6d656e74730000000000000000000000000000000000000000000000000000006020830152604082019050919050565b6000613d526010836149ea565b91507f5061757361626c653a20706175736564000000000000000000000000000000006000830152602082019050919050565b6000613d926020836149ea565b91507f5061757365722063616e206f6e6c792062652074686520726567756c61746f726000830152602082019050919050565b6000613dd26038836149ea565b91507f4552433732313a20617070726f76652063616c6c6572206973206e6f74206f7760008301527f6e6572206e6f7220617070726f76656420666f7220616c6c00000000000000006020830152604082019050919050565b6000613e38602a836149ea565b91507f4552433732313a2062616c616e636520717565727920666f7220746865207a6560008301527f726f2061646472657373000000000000000000000000000000000000000000006020830152604082019050919050565b6000613e9e6029836149ea565b91507f4552433732313a206f776e657220717565727920666f72206e6f6e657869737460008301527f656e7420746f6b656e00000000000000000000000000000000000000000000006020830152604082019050919050565b6000613f046035836149ea565b91507f436f75706f6e207061796d656e742073686f756c6420636f6d652066726f6d2060008301527f74686520626f72726f77696e6720636f6d70616e7900000000000000000000006020830152604082019050919050565b6000613f6a6020836149ea565b91507f4552433732313a206d696e7420746f20746865207a65726f20616464726573736000830152602082019050919050565b6000613faa602c836149ea565b91507f4552433732313a20617070726f76656420717565727920666f72206e6f6e657860008301527f697374656e7420746f6b656e00000000000000000000000000000000000000006020830152604082019050919050565b60006140106020836149ea565b91507f4f776e61626c653a2063616c6c6572206973206e6f7420746865206f776e65726000830152602082019050919050565b60006140506022836149ea565b91507f42616c616e636520717565727920666f7220746865207a65726f20616464726560008301527f73730000000000000000000000000000000000000000000000000000000000006020830152604082019050919050565b60006140b66029836149ea565b91507f4552433732313a207472616e73666572206f6620746f6b656e2074686174206960008301527f73206e6f74206f776e00000000000000000000000000000000000000000000006020830152604082019050919050565b600061411c602f836149ea565b91507f4552433732314d657461646174613a2055524920717565727920666f72206e6f60008301527f6e6578697374656e7420746f6b656e00000000000000000000000000000000006020830152604082019050919050565b60006141826021836149ea565b91507f4552433732313a20617070726f76616c20746f2063757272656e74206f776e6560008301527f72000000000000000000000000000000000000000000000000000000000000006020830152604082019050919050565b60006141e86018836149ea565b91507f42696464696e672074696d65206973206e6f74206f70656e00000000000000006000830152602082019050919050565b6000614228601c836149ea565b91507f4e6f7420656e6f75676820636f696e7320666f7220636f75706f6e73000000006000830152602082019050919050565b60006142686031836149ea565b91507f4552433732313a207472616e736665722063616c6c6572206973206e6f74206f60008301527f776e6572206e6f7220617070726f7665640000000000000000000000000000006020830152604082019050919050565b60006142ce602f836149ea565b91507f4e6f7420656e6f75676820636f696e7320746f20736574746c6520746865206260008301527f6f6e64206174206d6174757269747900000000000000000000000000000000006020830152604082019050919050565b6000614334601a836149ea565b91507f42696464696e672074696d65206973207374696c6c206f70656e0000000000006000830152602082019050919050565b6000614374601a836149ea565b91507f4f6e6c79206f776e65722063616e206d696e7420746f6b656e730000000000006000830152602082019050919050565b60006143b4601f836149ea565b91507f6e6f7420656e6f75676820636f696e7320666f722074686520616d6f756e74006000830152602082019050919050565b6143f081614b85565b82525050565b6000614402828561390a565b915061440e828461390a565b91508190509392505050565b600060208201905061442f600083018461387a565b92915050565b600060408201905061444a600083018561386b565b61445760208301846143e7565b9392505050565b6000608082019050614473600083018761387a565b614480602083018661387a565b61448d60408301856143e7565b818103606083015261449f8184613898565b905095945050505050565b60006040820190506144bf600083018561387a565b6144cc60208301846143e7565b9392505050565b60006060820190506144e8600083018661387a565b6144f560208301856143e7565b61450260408301846143e7565b949350505050565b600060208201905061451f6000830184613889565b92915050565b6000602082019050818103600083015261453f81846138d1565b905092915050565b600060208201905081810360008301526145608161393b565b9050919050565b600060208201905081810360008301526145808161397b565b9050919050565b600060208201905081810360008301526145a0816139bb565b9050919050565b600060208201905081810360008301526145c081613a21565b9050919050565b600060208201905081810360008301526145e081613a87565b9050919050565b6000602082019050818103600083015261460081613aed565b9050919050565b6000602082019050818103600083015261462081613b2d565b9050919050565b6000602082019050818103600083015261464081613b93565b9050919050565b6000602082019050818103600083015261466081613bd3565b9050919050565b6000602082019050818103600083015261468081613c39565b9050919050565b600060208201905081810360008301526146a081613c79565b9050919050565b600060208201905081810360008301526146c081613cdf565b9050919050565b600060208201905081810360008301526146e081613d45565b9050919050565b6000602082019050818103600083015261470081613d85565b9050919050565b6000602082019050818103600083015261472081613dc5565b9050919050565b6000602082019050818103600083015261474081613e2b565b9050919050565b6000602082019050818103600083015261476081613e91565b9050919050565b6000602082019050818103600083015261478081613ef7565b9050919050565b600060208201905081810360008301526147a081613f5d565b9050919050565b600060208201905081810360008301526147c081613f9d565b9050919050565b600060208201905081810360008301526147e081614003565b9050919050565b6000602082019050818103600083015261480081614043565b9050919050565b60006020820190508181036000830152614820816140a9565b9050919050565b600060208201905081810360008301526148408161410f565b9050919050565b6000602082019050818103600083015261486081614175565b9050919050565b60006020820190508181036000830152614880816141db565b9050919050565b600060208201905081810360008301526148a08161421b565b9050919050565b600060208201905081810360008301526148c08161425b565b9050919050565b600060208201905081810360008301526148e0816142c1565b9050919050565b6000602082019050818103600083015261490081614327565b9050919050565b6000602082019050818103600083015261492081614367565b9050919050565b60006020820190508181036000830152614940816143a7565b9050919050565b600060208201905061495c60008301846143e7565b92915050565b6000604051905081810181811067ffffffffffffffff8211171561498957614988614d40565b5b8060405250919050565b600067ffffffffffffffff8211156149ae576149ad614d40565b5b601f19601f8301169050602081019050919050565b600081519050919050565b600081519050919050565b600082825260208201905092915050565b600082825260208201905092915050565b600081905092915050565b6000614a1182614b85565b9150614a1c83614b85565b9250827fffffffffffffffffffffffffffffffffffffffffffffffffffffffffffffffff03821115614a5157614a50614cb3565b5b828201905092915050565b6000614a6782614b85565b9150614a7283614b85565b925082614a8257614a81614ce2565b5b828204905092915050565b6000614a9882614b85565b9150614aa383614b85565b9250817fffffffffffffffffffffffffffffffffffffffffffffffffffffffffffffffff0483118215151615614adc57614adb614cb3565b5b828202905092915050565b6000614af282614b85565b9150614afd83614b85565b925082821015614b1057614b0f614cb3565b5b828203905092915050565b6000614b2682614b65565b9050919050565b60008115159050919050565b60007fffffffff0000000000000000000000000000000000000000000000000000000082169050919050565b600073ffffffffffffffffffffffffffffffffffffffff82169050919050565b6000819050919050565b6000614b9a82614ba1565b9050919050565b6000614bac82614bb3565b9050919050565b6000614bbe82614b65565b9050919050565b82818337600083830152505050565b60005b83811015614bf2578082015181840152602081019050614bd7565b83811115614c01576000848401525b50505050565b60006002820490506001821680614c1f57607f821691505b60208210811415614c3357614c32614d11565b5b50919050565b6000614c4482614b85565b91507fffffffffffffffffffffffffffffffffffffffffffffffffffffffffffffffff821415614c7757614c76614cb3565b5b600182019050919050565b6000614c8d82614b85565b9150614c9883614b85565b925082614ca857614ca7614ce2565b5b828206905092915050565b7f4e487b7100000000000000000000000000000000000000000000000000000000600052601160045260246000fd5b7f4e487b7100000000000000000000000000000000000000000000000000000000600052601260045260246000fd5b7f4e487b7100000000000000000000000000000000000000000000000000000000600052602260045260246000fd5b7f4e487b7100000000000000000000000000000000000000000000000000000000600052604160045260246000fd5b6000601f19601f8301169050919050565b614d8981614b1b565b8114614d9457600080fd5b50565b614da081614b2d565b8114614dab57600080fd5b50565b614db781614b39565b8114614dc257600080fd5b50565b614dce81614b85565b8114614dd957600080fd5b5056fea2646970667358221220e7535e74c5c9afdfb497fb5d12aa82ae5c85b42ed9eff2e6c2b400c2af54c0c664736f6c63430008000033",
  "immutableReferences": {},
  "source": "// SPDX-License-Identifier: MIT\npragma solidity >=0.6.0;\n\nimport \"@openzeppelin/contracts/token/ERC721/ERC721.sol\";\n//import \"@openzeppelin/contracts/access/AccessControlEnumerable.sol\";\nimport \"@openzeppelin/contracts/access/Ownable.sol\";\nimport \"@openzeppelin/contracts/utils/Counters.sol\";\n\ncontract GreenBond is ERC721, Ownable{\n    using Counters for Counters.Counter;\n\n    /**\n     * @dev Reverts if bidding time is not open\n     */\n    modifier onlyWhileBiddingOpen {\n        require(isOpen(), \"Bidding time is not open\");\n        _;\n    }\n\n    /**\n     * @dev Reverts if bidding time is still open\n     */\n    modifier onlyWhenBiddingClosed {\n        require(!isOpen(), \"Bidding time is still open\");\n        _;\n    }\n\n     /**\n     * @dev Modifier to make a function callable only when the contract is not paused.\n     */\n    modifier whenNotPaused() {\n        require(!_paused, \"Pausable: paused\");\n        _;\n    }\n\n    /**\n     * @dev Modifier to make a function callable only when the contract is paused.\n     */\n    modifier whenPaused() {\n        require(_paused, \"Pausable: not paused\");\n        _;\n    }\n\n    string private _baseTokenURI;\n    Counters.Counter private _tokenIdTracker;\n    bool private _paused;\n\n    address [] private _investors;\n\n    address private _owner;\n    address payable private _company;\n    address private _regulator; \n    address private _greenVerifier;\n    uint256 private _value;\n    uint256 private _coupon;\n    uint256 private _totalValueRaised;\n\n    uint256 private _bidClosingTime;\n\n    /**\n     * @return true if the registering investments is open, false otherwise.\n     */\n    function isOpen() public view returns (bool) {\n        return block.timestamp <= _bidClosingTime;\n        //return block.timestamp >= _openingTime && block.timestamp <= _closingTime;\n    }\n\n    /**\n     * @dev Emitted when an investor registers initial investment request\n     */\n    event Investment(address investor, uint256 value, uint256 numberOfTokens);\n    \n    /**\n     * @dev Emitted when coins are refunded to the investor in case there are\n            too many coins for the investment or to the company if they pay too much \n            with coupons / principal repayment\n     */\n    event CoinRefund(address sender, uint256 value);\n    \n    /**\n     * @dev Emitted when a coupon payment has been made\n     */\n    event CouponPayment(address investor, uint256 tokenId);\n\n    /**\n     * @dev Emitted when the pause is triggered by a pauser (regulator).\n     */\n    event Paused(address account);\n\n    /**\n     * @dev Emitted when the pause is lifted by a pauser (regulator).\n     */\n    event Unpaused(address account);\n\n    /**\n     * @dev Emmitted when coupon payment is adjusted\n     */\n    event CouponAdjustment(address adjuster, uint256 couponRate);\n\n    mapping (address => uint256) _investedAmountPerInvestor;\n    mapping (address => uint256) _requestedTokensPerInvestor;\n    \n    // Will need to add pauser address as constructor parameter (financial regulator)\n    constructor(string memory name, string memory symbol, string memory baseTokenURI, \n    address company, uint256 value, uint256 coupon, uint256 bidClosingTime) ERC721 (name, symbol) {\n        require(coupon >= 0, \"Coupon payment can't be negative\");\n        _owner = msg.sender;\n        _baseTokenURI = baseTokenURI;\n        _company = payable(company);\n        _value = value;\n        _coupon = coupon;\n        _paused = false;\n        _bidClosingTime = bidClosingTime;  \n        \n    }\n\n    function company() public view returns (address) {\n        return _company;\n    }\n\n    function bidClosingTime() public view returns (uint256) {\n        return _bidClosingTime;\n    }\n\n    function setRegulator(address regulator) public onlyOwner {\n        _regulator = regulator;\n    }\n    \n    function setGreenVerifier(address greenVerifier) public onlyOwner {\n        _greenVerifier = greenVerifier;\n    }\n\n    function regulator() public view returns(address) {\n        return _regulator;\n    }\n\n    function greenVerifier() public view returns(address) {\n        return _greenVerifier;\n    }\n\n    function getValue() public view returns(uint256) {\n        return _value;\n    }\n\n    function getCoupon() public view returns(uint256) {\n        return _coupon;\n    }\n\n    function getTotalLoan() public view returns(uint256) {\n        return _totalValueRaised;\n    }\n\n    function numberOfInvestors() public view returns(uint256) {\n        return _investors.length;\n    }\n    \n    function tokenCount() public view returns(uint256) {\n        return _tokenIdTracker.current();\n    }\n    \n    function getName() public view returns(string memory) {\n        return name();\n    } \n\n    function getInvestorBalance(address investor) public view returns (uint){\n        require(investor != address(0), \"Balance query for the zero address\");\n        return _investedAmountPerInvestor[investor];\n    }\n\n\n    function _baseURI() internal view override returns (string memory) {\n        return _baseTokenURI;\n    }\n\n    // Needed to override this function as two parent classes defined the same function\n    function supportsInterface(bytes4 interfaceId) public view virtual override(ERC721) returns (bool) {\n        return super.supportsInterface(interfaceId);\n    }\n\n    // Function to register investment interest \n    // Investors specifies the number of tokens they would like to receive \n    function registerInvestment(uint256 number) public payable onlyWhileBiddingOpen {\n        // Require that the investor has enough coins\n        require(msg.value >= number * _value, \"not enough coins for the amount\");\n\n        // Check if investor already on the list\n        if (_investedAmountPerInvestor[msg.sender] == 0) {\n            _investors.push(msg.sender);\n        }\n        \n        // Register the investment\n        uint256 currentAmount = _investedAmountPerInvestor[msg.sender];\n        _investedAmountPerInvestor[msg.sender] = currentAmount + msg.value;\n        _requestedTokensPerInvestor[msg.sender] = _requestedTokensPerInvestor[msg.sender] + number;\n\n        // Emit event\n        emit Investment(msg.sender, msg.value, number);\n    }\n\n    /*\n    // Mapping from owner to operator approvals\n    mapping (address => uint256) _investorsCoupon;\n    uint256 [5] _couponMatrix;\n    uint256 private _seekedNumberOfBonds = 6;\n    uint256 private _finalNumberOfBonds = 0;\n\n    struct Bid {\n        uint256 coupon;\n        uint256 amount;\n        address investor;\n    }\n    Bid[] bidsAt5;\n    Bid[] bidsAt4;\n    Bid[] bidsAt3;\n    Bid[] bidsAt2;\n    Bid[] bidsAt1;\n    \n    \n    function registerBid2(uint256 coupon, uint256 numberOfTokens) public payable{\n        require(coupon > 0 && coupon < 6 , \"Coupon needs to be between 1 and 5\");\n        require(msg.value >= numberOfTokens * _value, \"not enough coins for the amount\");\n\n        // Add investor to the investor array\n        if (_investedAmountPerInvestor[msg.sender] == 0) {\n            _investors.push(msg.sender);\n        }\n\n        // Register the investment\n        uint256 currentAmount = _investedAmountPerInvestor[msg.sender];\n        _investedAmountPerInvestor[msg.sender] = currentAmount + msg.value;\n        _requestedTokensPerInvestor[msg.sender] = _requestedTokensPerInvestor[msg.sender] + numberOfTokens;\n        \n        // Create bid\n        Bid memory newBid = Bid(coupon, numberOfTokens, msg.sender);\n        // Add bid to the array\n        if (coupon == 5) {\n            bidsAt5.push(newBid);\n        } else if (coupon == 4) {\n            bidsAt4.push(newBid);\n        } else if (coupon == 3) {\n            bidsAt3.push(newBid);\n        } else if (coupon == 2) {\n            bidsAt2.push(newBid);\n        } else if (coupon == 1) {\n            bidsAt1.push(newBid);\n        }\n    }\n\n    function registerBid(uint256 coupon, uint256 numberOfTokens) public payable {\n        require(coupon > 0 && coupon < 6 , \"Coupon needs to be between 1 and 5\");\n        require(msg.value >= numberOfTokens * _value, \"not enough coins for the amount\");\n        // Check if investor already on the list\n        if (_investedAmountPerInvestor[msg.sender] == 0) {\n            _investors.push(msg.sender);\n        }\n\n        // Register the investment\n        uint256 currentAmount = _investedAmountPerInvestor[msg.sender];\n        _investedAmountPerInvestor[msg.sender] = currentAmount + msg.value;\n        _requestedTokensPerInvestor[msg.sender] = _requestedTokensPerInvestor[msg.sender] + numberOfTokens;\n        _investorsCoupon[msg.sender] = coupon;\n        \n        // Update the coupon record\n        uint256 index = coupon - 1;\n        uint256 currentInterest = _couponMatrix[index];\n        _couponMatrix[index] = currentInterest + numberOfTokens;\n    }\n\n\n    function getInterestAtCouponLevel(uint256 coupon) public view returns (uint256){\n        return _couponMatrix[coupon - 1];\n    }\n\n    function defineCoupon() public {\n        // Variable for the total demand for tokens\n        uint256 tokenDemand = 0;\n\n        // Default coupon is 1\n        _coupon = 1;\n\n        // Iterate each coupon level, and count the token demand to\n        // determine the coupon level which will fulfill the seeked number of tokens\n        for(uint i = 4; i > 0 ; i--) {\n            // Increase the token \n            tokenDemand += _couponMatrix[i];\n            // If enough interest at this copupn level, set coupon and break the loop\n            if (tokenDemand >= _seekedNumberOfBonds) {\n                _coupon = i+1;\n                break;\n            }\n        }\n        if (tokenDemand > _seekedNumberOfBonds) {\n            // Demand at set coupon level is higer than the seeked number of bonds\n\n        } else {\n            // Demand matches the seeeked number of bonds\n            _finalNumberOfBonds = _seekedNumberOfBonds;\n        }\n    }\n\n    */\n   \n\n\n    /**\n     * @dev Function to issue tokens for investors who have registered \n        Assumes all investors will get the requested investment\n        Can be called only when bidding time is closed and the contract is unpaused\n     */\n    function issueTokens() public onlyWhenBiddingClosed whenNotPaused {\n        require(msg.sender == _owner, \"Only owner can mint tokens\");\n       \n        // Iterate through each investor\n        for (uint i = 0; i < _investors.length; i++) {\n            address investor = _investors[i];\n            uint256 numberOfTokens = _requestedTokensPerInvestor[investor];\n            // Transfer money to the borrowing company\n            _company.transfer(_value * numberOfTokens); \n            \n\n            // Issue tokens\n            for (uint j = 0; j < numberOfTokens; j++) {  \n                _mint(investor, _tokenIdTracker.current());\n                _tokenIdTracker.increment();\n            }\n\n            // If the invested amount would be greated than the amount needed for investment\n            // Return the remainder back to the investor\n            if (_investedAmountPerInvestor[investor] > numberOfTokens * _value) {\n                payable(investor).transfer(_investedAmountPerInvestor[investor] - numberOfTokens * _value);\n                emit CoinRefund(investor, _investedAmountPerInvestor[investor] - numberOfTokens * _value);\n            }\n\n            // Update the records\n            _investedAmountPerInvestor[investor] = 0;\n            _requestedTokensPerInvestor[investor] = 0;\n            _totalValueRaised = _totalValueRaised + _value * numberOfTokens;\n  \n        }\n    }\n\n    /**\n     * @dev Function for regulator to return all money to investors\n        if there are any issues with the borrowing company\n     */\n    function returnInvestorMoney() public whenPaused {\n        require(msg.sender == _regulator, \"Only regulator can return investments\");\n        for (uint i = 0; i < _investors.length; i++) {\n            address investor = _investors[i];\n            payable(investor).transfer(_investedAmountPerInvestor[investor]);\n        }\n    }\n\n    // Function for the borrowing company to pay coupons\n    function payCoupons() public payable {\n        // Message needs to have enough value for the copupon payments\n        require(msg.sender == _company, \"Coupon payment should come from the borrowing company\");\n        require(msg.value >= _coupon * _tokenIdTracker.current(), \"Not enough coins for coupons\");\n        for (uint i = 0; i < _tokenIdTracker.current(); i++) {\n            address payable investor = payable(ownerOf(i));\n            investor.transfer(_coupon);\n            emit CouponPayment(investor, i);\n        }\n\n        // Refund extra coins if paid too much\n        if (msg.value > _coupon * _tokenIdTracker.current()) {\n            uint256 extraAmount = msg.value - _coupon * _tokenIdTracker.current();\n            payable(msg.sender).transfer(extraAmount);\n            emit CoinRefund(msg.sender, extraAmount);\n        }\n    }\n\n    // This function should be called by the borrowing company\n    function payBackBond() public payable {\n        require(msg.sender == _company, \"Paying company should be the borrowing company\");\n        require(msg.value >= _totalValueRaised, \"Not enough coins to settle the bond at maturity\");\n        \n        // Interate through the tokens\n        uint256 numberOfTokens = _tokenIdTracker.current();\n        for(uint i = 0; i < numberOfTokens; i++) {\n            address payable investor = payable(ownerOf(i));\n            // Transfer token from investor to owner\n            tokenTransfer(investor, _owner, i);\n            // Return funds\n            investor.transfer(_value);\n            // Decrement the values\n            _totalValueRaised = _totalValueRaised - _value;\n            _tokenIdTracker.decrement();\n        }\n        \n\n        // Refund coins there is extra money on the contract\n        if (address(this).balance > 0 && msg.value > _totalValueRaised) {\n            uint256 extraAmount = msg.value - _totalValueRaised;\n            if(address(this).balance < extraAmount) {\n                uint256 amount = address(this).balance;\n                payable(msg.sender).transfer(amount);\n                emit CoinRefund(msg.sender, amount);\n            } else {\n                payable(msg.sender).transfer(extraAmount);\n            emit CoinRefund(msg.sender, extraAmount);\n            }\n        }\n    \n    }\n\n    // Internal function to transer the tokens\n    function tokenTransfer(address from, address to, uint256 tokenId) internal {\n        _transfer(from, to, tokenId);\n    }\n\n    // Pauser functions\n    /**\n     * @dev Returns true if the contract is paused, and false otherwise.\n     */\n    function paused() public view returns (bool) {\n        return _paused;\n    }\n\n   \n\n    /**\n     * @dev Called by a pauser to pause, triggers stopped state.\n     */\n    function pause() public whenNotPaused {\n        require(msg.sender == _regulator, \"Pauser can only be the regulator\");\n        _paused = true;\n        emit Paused(_msgSender());\n    }\n\n    /**\n     * @dev Called by a pauser to unpause, returns to normal state.\n     */\n    function unpause() public whenPaused {\n        require(msg.sender == _regulator, \"Unpauser can only be the regulator\");\n        _paused = false;\n        emit Unpaused(_msgSender());\n    }\n\n    function adjustCoupon(bool increase, uint256 amount) public {\n        require(msg.sender == _greenVerifier);\n        if (increase){\n            _coupon = _coupon + amount;\n        } else {\n            require(amount <= _coupon, \"Coupon payment can't be negative\");\n            _coupon = _coupon - amount;\n        }\n        emit CouponAdjustment(msg.sender, _coupon);\n    }\n\n}",
  "sourcePath": "/Users/leena/Documents/Coding/Blockchain_Green_Bonds/testProjects/OZ_test/contracts/GreenBond.sol",
  "compiler": {
    "name": "solc",
    "version": "0.8.0+commit.c7dfd78e.Emscripten.clang"
  },
  "schemaVersion": "3.3.4",
  "updatedAt": "2021-07-06T10:50:59.793Z",
  "networkType": "ethereum",
  "devdoc": {
    "events": {
      "CoinRefund(address,uint256)": {
        "details": "Emitted when coins are refunded to the investor in case there are too many coins for the investment or to the company if they pay too much  with coupons / principal repayment"
      },
      "CouponAdjustment(address,uint256)": {
        "details": "Emmitted when coupon payment is adjusted"
      },
      "CouponPayment(address,uint256)": {
        "details": "Emitted when a coupon payment has been made"
      },
      "Investment(address,uint256,uint256)": {
        "details": "Emitted when an investor registers initial investment request"
      },
      "Paused(address)": {
        "details": "Emitted when the pause is triggered by a pauser (regulator)."
      },
      "Unpaused(address)": {
        "details": "Emitted when the pause is lifted by a pauser (regulator)."
      }
    },
    "kind": "dev",
    "methods": {
      "approve(address,uint256)": {
        "details": "See {IERC721-approve}."
      },
      "balanceOf(address)": {
        "details": "See {IERC721-balanceOf}."
      },
      "getApproved(uint256)": {
        "details": "See {IERC721-getApproved}."
      },
      "isApprovedForAll(address,address)": {
        "details": "See {IERC721-isApprovedForAll}."
      },
      "isOpen()": {
        "returns": {
          "_0": "true if the registering investments is open, false otherwise."
        }
      },
      "issueTokens()": {
        "details": "Function to issue tokens for investors who have registered  Assumes all investors will get the requested investment Can be called only when bidding time is closed and the contract is unpaused"
      },
      "name()": {
        "details": "See {IERC721Metadata-name}."
      },
      "owner()": {
        "details": "Returns the address of the current owner."
      },
      "ownerOf(uint256)": {
        "details": "See {IERC721-ownerOf}."
      },
      "pause()": {
        "details": "Called by a pauser to pause, triggers stopped state."
      },
      "paused()": {
        "details": "Returns true if the contract is paused, and false otherwise."
      },
      "renounceOwnership()": {
        "details": "Leaves the contract without owner. It will not be possible to call `onlyOwner` functions anymore. Can only be called by the current owner. NOTE: Renouncing ownership will leave the contract without an owner, thereby removing any functionality that is only available to the owner."
      },
      "returnInvestorMoney()": {
        "details": "Function for regulator to return all money to investors if there are any issues with the borrowing company"
      },
      "safeTransferFrom(address,address,uint256)": {
        "details": "See {IERC721-safeTransferFrom}."
      },
      "safeTransferFrom(address,address,uint256,bytes)": {
        "details": "See {IERC721-safeTransferFrom}."
      },
      "setApprovalForAll(address,bool)": {
        "details": "See {IERC721-setApprovalForAll}."
      },
      "supportsInterface(bytes4)": {
        "details": "See {IERC165-supportsInterface}."
      },
      "symbol()": {
        "details": "See {IERC721Metadata-symbol}."
      },
      "tokenURI(uint256)": {
        "details": "See {IERC721Metadata-tokenURI}."
      },
      "transferFrom(address,address,uint256)": {
        "details": "See {IERC721-transferFrom}."
      },
      "transferOwnership(address)": {
        "details": "Transfers ownership of the contract to a new account (`newOwner`). Can only be called by the current owner."
      },
      "unpause()": {
        "details": "Called by a pauser to unpause, returns to normal state."
      }
    },
    "version": 1
  },
  "userdoc": {
    "kind": "user",
    "methods": {},
    "version": 1
  }
}