{
  "contractName": "GreenCertifier",
  "abi": [
    {
      "inputs": [],
      "stateMutability": "nonpayable",
      "type": "constructor"
    },
    {
      "anonymous": false,
      "inputs": [
        {
          "indexed": false,
          "internalType": "address",
          "name": "certificate",
          "type": "address"
        }
      ],
      "name": "CompanyCertification",
      "type": "event"
    },
    {
      "anonymous": false,
      "inputs": [
        {
          "indexed": false,
          "internalType": "address",
          "name": "company",
          "type": "address"
        },
        {
          "indexed": false,
          "internalType": "string",
          "name": "project",
          "type": "string"
        }
      ],
      "name": "ProjectCertification",
      "type": "event"
    },
    {
      "inputs": [],
      "name": "getOwner",
      "outputs": [
        {
          "internalType": "address",
          "name": "",
          "type": "address"
        }
      ],
      "stateMutability": "view",
      "type": "function",
      "constant": true
    },
    {
      "inputs": [
        {
          "internalType": "address",
          "name": "company",
          "type": "address"
        }
      ],
      "name": "isCertifiedCompany",
      "outputs": [
        {
          "internalType": "bool",
          "name": "",
          "type": "bool"
        }
      ],
      "stateMutability": "view",
      "type": "function",
      "constant": true
    },
    {
      "inputs": [
        {
          "internalType": "address",
          "name": "company",
          "type": "address"
        }
      ],
      "name": "getCompanyCertificateAddress",
      "outputs": [
        {
          "internalType": "address",
          "name": "",
          "type": "address"
        }
      ],
      "stateMutability": "view",
      "type": "function",
      "constant": true
    },
    {
      "inputs": [
        {
          "internalType": "address",
          "name": "company",
          "type": "address"
        }
      ],
      "name": "getCertifiedProjects",
      "outputs": [
        {
          "internalType": "string[]",
          "name": "",
          "type": "string[]"
        }
      ],
      "stateMutability": "view",
      "type": "function",
      "constant": true
    },
    {
      "inputs": [
        {
          "internalType": "address",
          "name": "company",
          "type": "address"
        },
        {
          "internalType": "string",
          "name": "project",
          "type": "string"
        }
      ],
      "name": "isCeritifiedProject",
      "outputs": [
        {
          "internalType": "bool",
          "name": "",
          "type": "bool"
        }
      ],
      "stateMutability": "view",
      "type": "function",
      "constant": true
    },
    {
      "inputs": [
        {
          "internalType": "address",
          "name": "company",
          "type": "address"
        },
        {
          "internalType": "string",
          "name": "project",
          "type": "string"
        }
      ],
      "name": "createCertificate",
      "outputs": [],
      "stateMutability": "nonpayable",
      "type": "function"
    }
  ],
  "bytecode": "0x608060405234801561001057600080fd5b50336000806101000a81548173ffffffffffffffffffffffffffffffffffffffff021916908373ffffffffffffffffffffffffffffffffffffffff160217905550611988806100606000396000f3fe60806040523480156200001157600080fd5b5060043610620000695760003560e01c8062896eee146200006e57806342b828b3146200008e578063620feee314620000c4578063893d20e814620000fa5780639c0d15fb146200011c578063cb35e1e61462000152575b600080fd5b6200008c600480360381019062000086919062000a36565b62000188565b005b620000ac6004803603810190620000a6919062000a0a565b6200049c565b604051620000bb919062000ccf565b60405180910390f35b620000e26004803603810190620000dc919062000a36565b620005d8565b604051620000f1919062000cf3565b60405180910390f35b6200010462000723565b60405162000113919062000c7e565b60405180910390f35b6200013a600480360381019062000134919062000a0a565b6200074c565b60405162000149919062000c7e565b60405180910390f35b6200017060048036038101906200016a919062000a0a565b62000802565b6040516200017f919062000cf3565b60405180910390f35b60008054906101000a900473ffffffffffffffffffffffffffffffffffffffff1673ffffffffffffffffffffffffffffffffffffffff163373ffffffffffffffffffffffffffffffffffffffff1614620001e157600080fd5b60001515600260008473ffffffffffffffffffffffffffffffffffffffff1673ffffffffffffffffffffffffffffffffffffffff16815260200190815260200160002060009054906101000a900460ff161515141562000389576000826040516200024c9062000858565b62000258919062000c7e565b604051809103906000f08015801562000275573d6000803e3d6000fd5b5090506001600260008573ffffffffffffffffffffffffffffffffffffffff1673ffffffffffffffffffffffffffffffffffffffff16815260200190815260200160002060006101000a81548160ff02191690831515021790555080600160008573ffffffffffffffffffffffffffffffffffffffff1673ffffffffffffffffffffffffffffffffffffffff16815260200190815260200160002060006101000a81548173ffffffffffffffffffffffffffffffffffffffff021916908373ffffffffffffffffffffffffffffffffffffffff1602179055507fd74aba97929f9c483acd3c361751a46ee8ef31b85336dec91f503d695dab6df1816040516200037f919062000c7e565b60405180910390a1505b6000600160008473ffffffffffffffffffffffffffffffffffffffff1673ffffffffffffffffffffffffffffffffffffffff16815260200190815260200160002060009054906101000a900473ffffffffffffffffffffffffffffffffffffffff1690508073ffffffffffffffffffffffffffffffffffffffff16630ed047d4836040518263ffffffff1660e01b815260040162000428919062000d10565b600060405180830381600087803b1580156200044357600080fd5b505af115801562000458573d6000803e3d6000fd5b505050507f7290139a1d883a1284fc3550b1ca8c453f0520aa22089656d30587b014cb69fb83836040516200048f92919062000c9b565b60405180910390a1505050565b6060620004a98262000802565b620004eb576040517f08c379a0000000000000000000000000000000000000000000000000000000008152600401620004e29062000d34565b60405180910390fd5b600160008373ffffffffffffffffffffffffffffffffffffffff1673ffffffffffffffffffffffffffffffffffffffff16815260200190815260200160002060009054906101000a900473ffffffffffffffffffffffffffffffffffffffff1673ffffffffffffffffffffffffffffffffffffffff1663dcc601286040518163ffffffff1660e01b815260040160006040518083038186803b1580156200059157600080fd5b505afa158015620005a6573d6000803e3d6000fd5b505050506040513d6000823e3d601f19601f82011682018060405250810190620005d1919062000a90565b9050919050565b6000620005e58362000802565b62000627576040517f08c379a00000000000000000000000000000000000000000000000000000000081526004016200061e9062000d34565b60405180910390fd5b6000600160008573ffffffffffffffffffffffffffffffffffffffff1673ffffffffffffffffffffffffffffffffffffffff16815260200190815260200160002060009054906101000a900473ffffffffffffffffffffffffffffffffffffffff1690508073ffffffffffffffffffffffffffffffffffffffff1663ffa67370846040518263ffffffff1660e01b8152600401620006c6919062000d10565b60206040518083038186803b158015620006df57600080fd5b505afa158015620006f4573d6000803e3d6000fd5b505050506040513d601f19601f820116820180604052508101906200071a919062000ad5565b91505092915050565b60008060009054906101000a900473ffffffffffffffffffffffffffffffffffffffff16905090565b6000620007598262000802565b6200079b576040517f08c379a0000000000000000000000000000000000000000000000000000000008152600401620007929062000d34565b60405180910390fd5b600160008373ffffffffffffffffffffffffffffffffffffffff1673ffffffffffffffffffffffffffffffffffffffff16815260200190815260200160002060009054906101000a900473ffffffffffffffffffffffffffffffffffffffff169050919050565b6000600260008373ffffffffffffffffffffffffffffffffffffffff1673ffffffffffffffffffffffffffffffffffffffff16815260200190815260200160002060009054906101000a900460ff169050919050565b610a078062000f4c83390190565b60006200087d620008778462000d8a565b62000d56565b9050808382526020820190508260005b85811015620008c15781518501620008a68882620009dd565b8452602084019350602083019250506001810190506200088d565b5050509392505050565b6000620008e2620008dc8462000db9565b62000d56565b905082815260208101848484011115620008fb57600080fd5b6200090884828562000e92565b509392505050565b600062000927620009218462000db9565b62000d56565b9050828152602081018484840111156200094057600080fd5b6200094d84828562000ea1565b509392505050565b600081359050620009668162000f17565b92915050565b600082601f8301126200097e57600080fd5b81516200099084826020860162000866565b91505092915050565b600081519050620009aa8162000f31565b92915050565b600082601f830112620009c257600080fd5b8135620009d4848260208601620008cb565b91505092915050565b600082601f830112620009ef57600080fd5b815162000a0184826020860162000910565b91505092915050565b60006020828403121562000a1d57600080fd5b600062000a2d8482850162000955565b91505092915050565b6000806040838503121562000a4a57600080fd5b600062000a5a8582860162000955565b925050602083013567ffffffffffffffff81111562000a7857600080fd5b62000a8685828601620009b0565b9150509250929050565b60006020828403121562000aa357600080fd5b600082015167ffffffffffffffff81111562000abe57600080fd5b62000acc848285016200096c565b91505092915050565b60006020828403121562000ae857600080fd5b600062000af88482850162000999565b91505092915050565b600062000b0f838362000bba565b905092915050565b62000b228162000e52565b82525050565b600062000b358262000dfc565b62000b41818562000e1f565b93508360208202850162000b558562000dec565b8060005b8581101562000b97578484038952815162000b75858262000b01565b945062000b828362000e12565b925060208a0199505060018101905062000b59565b50829750879550505050505092915050565b62000bb48162000e66565b82525050565b600062000bc78262000e07565b62000bd3818562000e30565b935062000be581856020860162000ea1565b62000bf08162000f06565b840191505092915050565b600062000c088262000e07565b62000c14818562000e41565b935062000c2681856020860162000ea1565b62000c318162000f06565b840191505092915050565b600062000c4b601e8362000e41565b91507f476976656e20636f6d70616e79206973206e6f742063657274696669656400006000830152602082019050919050565b600060208201905062000c95600083018462000b17565b92915050565b600060408201905062000cb2600083018562000b17565b818103602083015262000cc6818462000bfb565b90509392505050565b6000602082019050818103600083015262000ceb818462000b28565b905092915050565b600060208201905062000d0a600083018462000ba9565b92915050565b6000602082019050818103600083015262000d2c818462000bfb565b905092915050565b6000602082019050818103600083015262000d4f8162000c3c565b9050919050565b6000604051905081810181811067ffffffffffffffff8211171562000d805762000d7f62000ed7565b5b8060405250919050565b600067ffffffffffffffff82111562000da85762000da762000ed7565b5b602082029050602081019050919050565b600067ffffffffffffffff82111562000dd75762000dd662000ed7565b5b601f19601f8301169050602081019050919050565b6000819050602082019050919050565b600081519050919050565b600081519050919050565b6000602082019050919050565b600082825260208201905092915050565b600082825260208201905092915050565b600082825260208201905092915050565b600062000e5f8262000e72565b9050919050565b60008115159050919050565b600073ffffffffffffffffffffffffffffffffffffffff82169050919050565b82818337600083830152505050565b60005b8381101562000ec157808201518184015260208101905062000ea4565b8381111562000ed1576000848401525b50505050565b7f4e487b7100000000000000000000000000000000000000000000000000000000600052604160045260246000fd5b6000601f19601f8301169050919050565b62000f228162000e52565b811462000f2e57600080fd5b50565b62000f3c8162000e66565b811462000f4857600080fd5b5056fe608060405234801561001057600080fd5b50604051610a07380380610a07833981810160405281019061003291906100ce565b80600160006101000a81548173ffffffffffffffffffffffffffffffffffffffff021916908373ffffffffffffffffffffffffffffffffffffffff160217905550336000806101000a81548173ffffffffffffffffffffffffffffffffffffffff021916908373ffffffffffffffffffffffffffffffffffffffff16021790555050610140565b6000815190506100c881610129565b92915050565b6000602082840312156100e057600080fd5b60006100ee848285016100b9565b91505092915050565b600061010282610109565b9050919050565b600073ffffffffffffffffffffffffffffffffffffffff82169050919050565b610132816100f7565b811461013d57600080fd5b50565b6108b88061014f6000396000f3fe608060405234801561001057600080fd5b50600436106100575760003560e01c80630ed047d41461005c578063127810bc14610078578063893d20e814610096578063dcc60128146100b4578063ffa67370146100d2575b600080fd5b61007660048036038101906100719190610473565b610102565b005b610080610207565b60405161008d9190610615565b60405180910390f35b61009e610231565b6040516100ab9190610615565b60405180910390f35b6100bc61025a565b6040516100c99190610630565b60405180910390f35b6100ec60048036038101906100e79190610473565b610333565b6040516100f99190610652565b60405180910390f35b60008054906101000a900473ffffffffffffffffffffffffffffffffffffffff1673ffffffffffffffffffffffffffffffffffffffff163373ffffffffffffffffffffffffffffffffffffffff161461015a57600080fd5b600160038260405161016c91906105fe565b908152602001604051809103902060006101000a81548160ff0219169083151502179055506002819080600181540180825580915050600190039060005260206000200160009091909190915090805190602001906101cc929190610368565b507fe2113e2f31e9059e4f64d1910b874f2e8ee4a4fd9081c4910d409f649dfe3b48816040516101fc919061066d565b60405180910390a150565b6000600160009054906101000a900473ffffffffffffffffffffffffffffffffffffffff16905090565b60008060009054906101000a900473ffffffffffffffffffffffffffffffffffffffff16905090565b60606002805480602002602001604051908101604052809291908181526020016000905b8282101561032a57838290600052602060002001805461029d906107e1565b80601f01602080910402602001604051908101604052809291908181526020018280546102c9906107e1565b80156103165780601f106102eb57610100808354040283529160200191610316565b820191906000526020600020905b8154815290600101906020018083116102f957829003601f168201915b50505050508152602001906001019061027e565b50505050905090565b600060038260405161034591906105fe565b908152602001604051809103902060009054906101000a900460ff169050919050565b828054610374906107e1565b90600052602060002090601f01602090048101928261039657600085556103dd565b82601f106103af57805160ff19168380011785556103dd565b828001600101855582156103dd579182015b828111156103dc5782518255916020019190600101906103c1565b5b5090506103ea91906103ee565b5090565b5b808211156104075760008160009055506001016103ef565b5090565b600061041e610419846106c0565b61068f565b90508281526020810184848401111561043657600080fd5b61044184828561079f565b509392505050565b600082601f83011261045a57600080fd5b813561046a84826020860161040b565b91505092915050565b60006020828403121561048557600080fd5b600082013567ffffffffffffffff81111561049f57600080fd5b6104ab84828501610449565b91505092915050565b60006104c0838361055b565b905092915050565b6104d181610761565b82525050565b60006104e282610700565b6104ec8185610723565b9350836020820285016104fe856106f0565b8060005b8581101561053a578484038952815161051b85826104b4565b945061052683610716565b925060208a01995050600181019050610502565b50829750879550505050505092915050565b61055581610773565b82525050565b60006105668261070b565b6105708185610734565b93506105808185602086016107ae565b61058981610871565b840191505092915050565b600061059f8261070b565b6105a98185610745565b93506105b98185602086016107ae565b6105c281610871565b840191505092915050565b60006105d88261070b565b6105e28185610756565b93506105f28185602086016107ae565b80840191505092915050565b600061060a82846105cd565b915081905092915050565b600060208201905061062a60008301846104c8565b92915050565b6000602082019050818103600083015261064a81846104d7565b905092915050565b6000602082019050610667600083018461054c565b92915050565b600060208201905081810360008301526106878184610594565b905092915050565b6000604051905081810181811067ffffffffffffffff821117156106b6576106b5610842565b5b8060405250919050565b600067ffffffffffffffff8211156106db576106da610842565b5b601f19601f8301169050602081019050919050565b6000819050602082019050919050565b600081519050919050565b600081519050919050565b6000602082019050919050565b600082825260208201905092915050565b600082825260208201905092915050565b600082825260208201905092915050565b600081905092915050565b600061076c8261077f565b9050919050565b60008115159050919050565b600073ffffffffffffffffffffffffffffffffffffffff82169050919050565b82818337600083830152505050565b60005b838110156107cc5780820151818401526020810190506107b1565b838111156107db576000848401525b50505050565b600060028204905060018216806107f957607f821691505b6020821081141561080d5761080c610813565b5b50919050565b7f4e487b7100000000000000000000000000000000000000000000000000000000600052602260045260246000fd5b7f4e487b7100000000000000000000000000000000000000000000000000000000600052604160045260246000fd5b6000601f19601f830116905091905056fea26469706673582212202b168f99684ef8a24e6738169fe3cd5036a786ca36356fad863246d27da0ac2864736f6c63430008000033a26469706673582212200e2e8d3eee9a10d024cb9b6b93fb1aaba8867847dfdb21fbbe42ed8d0f47f40164736f6c63430008000033",
  "immutableReferences": {},
  "source": "// SPDX-License-Identifier: MIT\npragma solidity >=0.6.0;\n\nimport \"./GreenCertificate.sol\";\nimport \"@openzeppelin/contracts/utils/Address.sol\";\n\ncontract GreenCertifier {\n    using Address for address;\n\n    /**\n     * @dev Modifier to allow function to be called only by the contract owner\n     */\n    modifier onlyOwner() {\n        require(msg.sender == _owner);\n        _;\n    }\n\n    /**\n     * @dev Event to be emmitted when a company certificate is created\n     */\n    event CompanyCertification(address certificate);\n\n    /**\n     * @dev Event to be emmitted when a project is added\n     */\n    event ProjectCertification(address company, string project);\n\n\n    // Owner of this contract\n    address private _owner;\n\n    // Mapping of company to a green certificate\n    mapping(address => GreenCertificate) private _greenCertificates;\n    // Mapping of certified companies\n    mapping(address => bool) private _certifiedCompanies;\n\n\n    constructor() {\n        _owner = msg.sender;\n    }\n\n    // Getter functions\n    function getOwner() external view returns (address) {\n        return _owner;\n    }\n\n    // Function to check if a company is certified\n    function isCertifiedCompany(address company) public view returns (bool) {\n        return _certifiedCompanies[company];\n    }\n\n    // Function to get the address of the company's certificate\n    function getCompanyCertificateAddress(address company) public view returns (address) {\n        require(isCertifiedCompany(company), \"Given company is not certified\");\n        return address(_greenCertificates[company]);     \n    }\n\n    // Function to get a list of certified projects\n    function getCertifiedProjects(address company) external view returns (string[] memory) {\n        require(isCertifiedCompany(company), \"Given company is not certified\");\n        return _greenCertificates[company].getProjects();\n    }\n\n    function isCeritifiedProject(address company, string memory project) external view returns (bool) {\n        require(isCertifiedCompany(company), \"Given company is not certified\");\n        GreenCertificate certificate = _greenCertificates[company];\n        return certificate.isCertifiedProject(project);\n    }\n\n\n    function createCertificate(address company, string memory project) external onlyOwner {\n        // Create certificate for the company if it already does not exist\n        if(_certifiedCompanies[company] == false) {\n            // Create certificate\n            GreenCertificate newCertificate = new GreenCertificate(company);\n            _certifiedCompanies[company] = true;\n            _greenCertificates[company] = newCertificate;\n\n            // Create an event\n            emit CompanyCertification(address(newCertificate));\n        } \n\n        // Add project to the list\n        GreenCertificate certificate = _greenCertificates[company];\n        certificate.addProject(project);   \n        emit ProjectCertification(company, project);      \n    }\n \n}\n\n",
  "sourcePath": "/Users/leena/Documents/Coding/Blockchain_Green_Bonds/testProjects/OZ_test/contracts/GreenCertifier.sol",
  "compiler": {
    "name": "solc",
    "version": "0.8.0+commit.c7dfd78e.Emscripten.clang"
  },
  "schemaVersion": "3.3.4",
  "updatedAt": "2021-07-13T13:42:14.195Z",
  "networkType": "ethereum",
  "devdoc": {
    "events": {
      "CompanyCertification(address)": {
        "details": "Event to be emmitted when a company certificate is created"
      },
      "ProjectCertification(address,string)": {
        "details": "Event to be emmitted when a project is added"
      }
    },
    "kind": "dev",
    "methods": {},
    "version": 1
  },
  "userdoc": {
    "kind": "user",
    "methods": {},
    "version": 1
  }
}