{
  "contractName": "GreenBond",
  "abi": [
    {
      "inputs": [
        {
          "internalType": "string",
          "name": "name",
          "type": "string"
        },
        {
          "internalType": "string",
          "name": "symbol",
          "type": "string"
        },
        {
          "internalType": "string",
          "name": "baseTokenURI",
          "type": "string"
        },
        {
          "internalType": "address",
          "name": "company",
          "type": "address"
        },
        {
          "internalType": "uint256",
          "name": "value",
          "type": "uint256"
        },
        {
          "internalType": "uint256",
          "name": "coupon",
          "type": "uint256"
        }
      ],
      "stateMutability": "nonpayable",
      "type": "constructor"
    },
    {
      "anonymous": false,
      "inputs": [
        {
          "indexed": true,
          "internalType": "address",
          "name": "owner",
          "type": "address"
        },
        {
          "indexed": true,
          "internalType": "address",
          "name": "approved",
          "type": "address"
        },
        {
          "indexed": true,
          "internalType": "uint256",
          "name": "tokenId",
          "type": "uint256"
        }
      ],
      "name": "Approval",
      "type": "event"
    },
    {
      "anonymous": false,
      "inputs": [
        {
          "indexed": true,
          "internalType": "address",
          "name": "owner",
          "type": "address"
        },
        {
          "indexed": true,
          "internalType": "address",
          "name": "operator",
          "type": "address"
        },
        {
          "indexed": false,
          "internalType": "bool",
          "name": "approved",
          "type": "bool"
        }
      ],
      "name": "ApprovalForAll",
      "type": "event"
    },
    {
      "anonymous": false,
      "inputs": [
        {
          "indexed": false,
          "internalType": "address",
          "name": "investor",
          "type": "address"
        },
        {
          "indexed": false,
          "internalType": "uint256",
          "name": "value",
          "type": "uint256"
        }
      ],
      "name": "CoinRefund",
      "type": "event"
    },
    {
      "anonymous": false,
      "inputs": [
        {
          "indexed": false,
          "internalType": "address",
          "name": "adjuster",
          "type": "address"
        },
        {
          "indexed": false,
          "internalType": "uint256",
          "name": "couponRate",
          "type": "uint256"
        }
      ],
      "name": "CouponAdjustment",
      "type": "event"
    },
    {
      "anonymous": false,
      "inputs": [
        {
          "indexed": false,
          "internalType": "address",
          "name": "investor",
          "type": "address"
        },
        {
          "indexed": false,
          "internalType": "uint256",
          "name": "tokenId",
          "type": "uint256"
        }
      ],
      "name": "CouponPayment",
      "type": "event"
    },
    {
      "anonymous": false,
      "inputs": [
        {
          "indexed": false,
          "internalType": "address",
          "name": "investor",
          "type": "address"
        },
        {
          "indexed": false,
          "internalType": "uint256",
          "name": "value",
          "type": "uint256"
        }
      ],
      "name": "Investment",
      "type": "event"
    },
    {
      "anonymous": false,
      "inputs": [
        {
          "indexed": true,
          "internalType": "address",
          "name": "previousOwner",
          "type": "address"
        },
        {
          "indexed": true,
          "internalType": "address",
          "name": "newOwner",
          "type": "address"
        }
      ],
      "name": "OwnershipTransferred",
      "type": "event"
    },
    {
      "anonymous": false,
      "inputs": [
        {
          "indexed": false,
          "internalType": "address",
          "name": "account",
          "type": "address"
        }
      ],
      "name": "Paused",
      "type": "event"
    },
    {
      "anonymous": false,
      "inputs": [
        {
          "indexed": true,
          "internalType": "bytes32",
          "name": "role",
          "type": "bytes32"
        },
        {
          "indexed": true,
          "internalType": "bytes32",
          "name": "previousAdminRole",
          "type": "bytes32"
        },
        {
          "indexed": true,
          "internalType": "bytes32",
          "name": "newAdminRole",
          "type": "bytes32"
        }
      ],
      "name": "RoleAdminChanged",
      "type": "event"
    },
    {
      "anonymous": false,
      "inputs": [
        {
          "indexed": true,
          "internalType": "bytes32",
          "name": "role",
          "type": "bytes32"
        },
        {
          "indexed": true,
          "internalType": "address",
          "name": "account",
          "type": "address"
        },
        {
          "indexed": true,
          "internalType": "address",
          "name": "sender",
          "type": "address"
        }
      ],
      "name": "RoleGranted",
      "type": "event"
    },
    {
      "anonymous": false,
      "inputs": [
        {
          "indexed": true,
          "internalType": "bytes32",
          "name": "role",
          "type": "bytes32"
        },
        {
          "indexed": true,
          "internalType": "address",
          "name": "account",
          "type": "address"
        },
        {
          "indexed": true,
          "internalType": "address",
          "name": "sender",
          "type": "address"
        }
      ],
      "name": "RoleRevoked",
      "type": "event"
    },
    {
      "anonymous": false,
      "inputs": [
        {
          "indexed": true,
          "internalType": "address",
          "name": "from",
          "type": "address"
        },
        {
          "indexed": true,
          "internalType": "address",
          "name": "to",
          "type": "address"
        },
        {
          "indexed": true,
          "internalType": "uint256",
          "name": "tokenId",
          "type": "uint256"
        }
      ],
      "name": "Transfer",
      "type": "event"
    },
    {
      "anonymous": false,
      "inputs": [
        {
          "indexed": false,
          "internalType": "address",
          "name": "account",
          "type": "address"
        }
      ],
      "name": "Unpaused",
      "type": "event"
    },
    {
      "inputs": [],
      "name": "DEFAULT_ADMIN_ROLE",
      "outputs": [
        {
          "internalType": "bytes32",
          "name": "",
          "type": "bytes32"
        }
      ],
      "stateMutability": "view",
      "type": "function",
      "constant": true
    },
    {
      "inputs": [],
      "name": "MINTER_ROLE",
      "outputs": [
        {
          "internalType": "bytes32",
          "name": "",
          "type": "bytes32"
        }
      ],
      "stateMutability": "view",
      "type": "function",
      "constant": true
    },
    {
      "inputs": [
        {
          "internalType": "uint256",
          "name": "",
          "type": "uint256"
        }
      ],
      "name": "_investors",
      "outputs": [
        {
          "internalType": "address",
          "name": "",
          "type": "address"
        }
      ],
      "stateMutability": "view",
      "type": "function",
      "constant": true
    },
    {
      "inputs": [
        {
          "internalType": "address",
          "name": "to",
          "type": "address"
        },
        {
          "internalType": "uint256",
          "name": "tokenId",
          "type": "uint256"
        }
      ],
      "name": "approve",
      "outputs": [],
      "stateMutability": "nonpayable",
      "type": "function"
    },
    {
      "inputs": [
        {
          "internalType": "address",
          "name": "owner",
          "type": "address"
        }
      ],
      "name": "balanceOf",
      "outputs": [
        {
          "internalType": "uint256",
          "name": "",
          "type": "uint256"
        }
      ],
      "stateMutability": "view",
      "type": "function",
      "constant": true
    },
    {
      "inputs": [
        {
          "internalType": "uint256",
          "name": "tokenId",
          "type": "uint256"
        }
      ],
      "name": "getApproved",
      "outputs": [
        {
          "internalType": "address",
          "name": "",
          "type": "address"
        }
      ],
      "stateMutability": "view",
      "type": "function",
      "constant": true
    },
    {
      "inputs": [
        {
          "internalType": "bytes32",
          "name": "role",
          "type": "bytes32"
        }
      ],
      "name": "getRoleAdmin",
      "outputs": [
        {
          "internalType": "bytes32",
          "name": "",
          "type": "bytes32"
        }
      ],
      "stateMutability": "view",
      "type": "function",
      "constant": true
    },
    {
      "inputs": [
        {
          "internalType": "bytes32",
          "name": "role",
          "type": "bytes32"
        },
        {
          "internalType": "uint256",
          "name": "index",
          "type": "uint256"
        }
      ],
      "name": "getRoleMember",
      "outputs": [
        {
          "internalType": "address",
          "name": "",
          "type": "address"
        }
      ],
      "stateMutability": "view",
      "type": "function",
      "constant": true
    },
    {
      "inputs": [
        {
          "internalType": "bytes32",
          "name": "role",
          "type": "bytes32"
        }
      ],
      "name": "getRoleMemberCount",
      "outputs": [
        {
          "internalType": "uint256",
          "name": "",
          "type": "uint256"
        }
      ],
      "stateMutability": "view",
      "type": "function",
      "constant": true
    },
    {
      "inputs": [
        {
          "internalType": "bytes32",
          "name": "role",
          "type": "bytes32"
        },
        {
          "internalType": "address",
          "name": "account",
          "type": "address"
        }
      ],
      "name": "grantRole",
      "outputs": [],
      "stateMutability": "nonpayable",
      "type": "function"
    },
    {
      "inputs": [
        {
          "internalType": "bytes32",
          "name": "role",
          "type": "bytes32"
        },
        {
          "internalType": "address",
          "name": "account",
          "type": "address"
        }
      ],
      "name": "hasRole",
      "outputs": [
        {
          "internalType": "bool",
          "name": "",
          "type": "bool"
        }
      ],
      "stateMutability": "view",
      "type": "function",
      "constant": true
    },
    {
      "inputs": [
        {
          "internalType": "address",
          "name": "owner",
          "type": "address"
        },
        {
          "internalType": "address",
          "name": "operator",
          "type": "address"
        }
      ],
      "name": "isApprovedForAll",
      "outputs": [
        {
          "internalType": "bool",
          "name": "",
          "type": "bool"
        }
      ],
      "stateMutability": "view",
      "type": "function",
      "constant": true
    },
    {
      "inputs": [],
      "name": "name",
      "outputs": [
        {
          "internalType": "string",
          "name": "",
          "type": "string"
        }
      ],
      "stateMutability": "view",
      "type": "function",
      "constant": true
    },
    {
      "inputs": [],
      "name": "owner",
      "outputs": [
        {
          "internalType": "address",
          "name": "",
          "type": "address"
        }
      ],
      "stateMutability": "view",
      "type": "function",
      "constant": true
    },
    {
      "inputs": [
        {
          "internalType": "uint256",
          "name": "tokenId",
          "type": "uint256"
        }
      ],
      "name": "ownerOf",
      "outputs": [
        {
          "internalType": "address",
          "name": "",
          "type": "address"
        }
      ],
      "stateMutability": "view",
      "type": "function",
      "constant": true
    },
    {
      "inputs": [],
      "name": "renounceOwnership",
      "outputs": [],
      "stateMutability": "nonpayable",
      "type": "function"
    },
    {
      "inputs": [
        {
          "internalType": "bytes32",
          "name": "role",
          "type": "bytes32"
        },
        {
          "internalType": "address",
          "name": "account",
          "type": "address"
        }
      ],
      "name": "renounceRole",
      "outputs": [],
      "stateMutability": "nonpayable",
      "type": "function"
    },
    {
      "inputs": [
        {
          "internalType": "bytes32",
          "name": "role",
          "type": "bytes32"
        },
        {
          "internalType": "address",
          "name": "account",
          "type": "address"
        }
      ],
      "name": "revokeRole",
      "outputs": [],
      "stateMutability": "nonpayable",
      "type": "function"
    },
    {
      "inputs": [
        {
          "internalType": "address",
          "name": "from",
          "type": "address"
        },
        {
          "internalType": "address",
          "name": "to",
          "type": "address"
        },
        {
          "internalType": "uint256",
          "name": "tokenId",
          "type": "uint256"
        }
      ],
      "name": "safeTransferFrom",
      "outputs": [],
      "stateMutability": "nonpayable",
      "type": "function"
    },
    {
      "inputs": [
        {
          "internalType": "address",
          "name": "from",
          "type": "address"
        },
        {
          "internalType": "address",
          "name": "to",
          "type": "address"
        },
        {
          "internalType": "uint256",
          "name": "tokenId",
          "type": "uint256"
        },
        {
          "internalType": "bytes",
          "name": "_data",
          "type": "bytes"
        }
      ],
      "name": "safeTransferFrom",
      "outputs": [],
      "stateMutability": "nonpayable",
      "type": "function"
    },
    {
      "inputs": [
        {
          "internalType": "address",
          "name": "operator",
          "type": "address"
        },
        {
          "internalType": "bool",
          "name": "approved",
          "type": "bool"
        }
      ],
      "name": "setApprovalForAll",
      "outputs": [],
      "stateMutability": "nonpayable",
      "type": "function"
    },
    {
      "inputs": [],
      "name": "symbol",
      "outputs": [
        {
          "internalType": "string",
          "name": "",
          "type": "string"
        }
      ],
      "stateMutability": "view",
      "type": "function",
      "constant": true
    },
    {
      "inputs": [
        {
          "internalType": "uint256",
          "name": "tokenId",
          "type": "uint256"
        }
      ],
      "name": "tokenURI",
      "outputs": [
        {
          "internalType": "string",
          "name": "",
          "type": "string"
        }
      ],
      "stateMutability": "view",
      "type": "function",
      "constant": true
    },
    {
      "inputs": [
        {
          "internalType": "address",
          "name": "from",
          "type": "address"
        },
        {
          "internalType": "address",
          "name": "to",
          "type": "address"
        },
        {
          "internalType": "uint256",
          "name": "tokenId",
          "type": "uint256"
        }
      ],
      "name": "transferFrom",
      "outputs": [],
      "stateMutability": "nonpayable",
      "type": "function"
    },
    {
      "inputs": [
        {
          "internalType": "address",
          "name": "newOwner",
          "type": "address"
        }
      ],
      "name": "transferOwnership",
      "outputs": [],
      "stateMutability": "nonpayable",
      "type": "function"
    },
    {
      "inputs": [],
      "name": "getValue",
      "outputs": [
        {
          "internalType": "uint256",
          "name": "",
          "type": "uint256"
        }
      ],
      "stateMutability": "view",
      "type": "function",
      "constant": true
    },
    {
      "inputs": [],
      "name": "getCoupon",
      "outputs": [
        {
          "internalType": "uint256",
          "name": "",
          "type": "uint256"
        }
      ],
      "stateMutability": "view",
      "type": "function",
      "constant": true
    },
    {
      "inputs": [],
      "name": "numberOfInvestors",
      "outputs": [
        {
          "internalType": "uint256",
          "name": "",
          "type": "uint256"
        }
      ],
      "stateMutability": "view",
      "type": "function",
      "constant": true
    },
    {
      "inputs": [
        {
          "internalType": "address",
          "name": "regulator",
          "type": "address"
        }
      ],
      "name": "setRegulator",
      "outputs": [],
      "stateMutability": "nonpayable",
      "type": "function"
    },
    {
      "inputs": [
        {
          "internalType": "address",
          "name": "greenVerifier",
          "type": "address"
        }
      ],
      "name": "setGreenVerifier",
      "outputs": [],
      "stateMutability": "nonpayable",
      "type": "function"
    },
    {
      "inputs": [
        {
          "internalType": "address",
          "name": "investor",
          "type": "address"
        }
      ],
      "name": "getInvestorBalance",
      "outputs": [
        {
          "internalType": "uint256",
          "name": "",
          "type": "uint256"
        }
      ],
      "stateMutability": "view",
      "type": "function",
      "constant": true
    },
    {
      "inputs": [
        {
          "internalType": "bytes4",
          "name": "interfaceId",
          "type": "bytes4"
        }
      ],
      "name": "supportsInterface",
      "outputs": [
        {
          "internalType": "bool",
          "name": "",
          "type": "bool"
        }
      ],
      "stateMutability": "view",
      "type": "function",
      "constant": true
    },
    {
      "inputs": [
        {
          "internalType": "uint256",
          "name": "number",
          "type": "uint256"
        }
      ],
      "name": "registerInvestment",
      "outputs": [],
      "stateMutability": "payable",
      "type": "function",
      "payable": true
    },
    {
      "inputs": [],
      "name": "issueTokens",
      "outputs": [],
      "stateMutability": "nonpayable",
      "type": "function"
    },
    {
      "inputs": [
        {
          "internalType": "uint256",
          "name": "numberOfTokens",
          "type": "uint256"
        },
        {
          "internalType": "address",
          "name": "to",
          "type": "address"
        }
      ],
      "name": "issueTokens",
      "outputs": [],
      "stateMutability": "payable",
      "type": "function",
      "payable": true
    },
    {
      "inputs": [],
      "name": "payCoupons",
      "outputs": [],
      "stateMutability": "payable",
      "type": "function",
      "payable": true
    },
    {
      "inputs": [],
      "name": "payBackBond",
      "outputs": [],
      "stateMutability": "payable",
      "type": "function",
      "payable": true
    },
    {
      "inputs": [],
      "name": "returnTokensAtMaturity",
      "outputs": [],
      "stateMutability": "nonpayable",
      "type": "function"
    },
    {
      "inputs": [],
      "name": "paused",
      "outputs": [
        {
          "internalType": "bool",
          "name": "",
          "type": "bool"
        }
      ],
      "stateMutability": "view",
      "type": "function",
      "constant": true
    },
    {
      "inputs": [],
      "name": "pause",
      "outputs": [],
      "stateMutability": "nonpayable",
      "type": "function"
    },
    {
      "inputs": [],
      "name": "unpause",
      "outputs": [],
      "stateMutability": "nonpayable",
      "type": "function"
    },
    {
      "inputs": [
        {
          "internalType": "bool",
          "name": "increase",
          "type": "bool"
        },
        {
          "internalType": "uint256",
          "name": "amount",
          "type": "uint256"
        }
      ],
      "name": "adjustCoupon",
      "outputs": [],
      "stateMutability": "nonpayable",
      "type": "function"
    }
  ],
  "bytecode": "0x60806040523480156200001157600080fd5b506040516200642c3803806200642c83398181016040528101906200003791906200065e565b85858160009080519060200190620000519291906200050e565b5080600190805190602001906200006a9291906200050e565b50505060006200007f6200027660201b60201c565b905080600860006101000a81548173ffffffffffffffffffffffffffffffffffffffff021916908373ffffffffffffffffffffffffffffffffffffffff1602179055508073ffffffffffffffffffffffffffffffffffffffff16600073ffffffffffffffffffffffffffffffffffffffff167f8be0079c531659141344cd1fd0a4f28419497f9722a3daafe3b4186f6b6457e060405160405180910390a350600081101562000165576040517f08c379a00000000000000000000000000000000000000000000000000000000081526004016200015c9062000781565b60405180910390fd5b33600d60006101000a81548173ffffffffffffffffffffffffffffffffffffffff021916908373ffffffffffffffffffffffffffffffffffffffff1602179055508360099080519060200190620001be9291906200050e565b5082600e60006101000a81548173ffffffffffffffffffffffffffffffffffffffff021916908373ffffffffffffffffffffffffffffffffffffffff16021790555081601181905550806012819055506000600b60006101000a81548160ff0219169083151502179055506200026a7f9f2df0fed2c77648de5860a4cc508cd0818c85b8b8a1ab4ceeef8d981c8956a66200025e6200027660201b60201c565b6200027e60201b60201c565b50505050505062000957565b600033905090565b620002958282620002c660201b6200285c1760201c565b620002c18160076000858152602001908152602001600020620002dc60201b6200286a1790919060201c565b505050565b620002d882826200031460201b60201c565b5050565b60006200030c836000018373ffffffffffffffffffffffffffffffffffffffff1660001b6200040660201b60201c565b905092915050565b6200032682826200048060201b60201c565b620004025760016006600084815260200190815260200160002060000160008373ffffffffffffffffffffffffffffffffffffffff1673ffffffffffffffffffffffffffffffffffffffff16815260200190815260200160002060006101000a81548160ff021916908315150217905550620003a76200027660201b60201c565b73ffffffffffffffffffffffffffffffffffffffff168173ffffffffffffffffffffffffffffffffffffffff16837f2f8788117e7eff1d82e926ec794901d17c78024a50270940304540a733656f0d60405160405180910390a45b5050565b60006200041a8383620004eb60201b60201c565b620004755782600001829080600181540180825580915050600190039060005260206000200160009091909190915055826000018054905083600101600084815260200190815260200160002081905550600190506200047a565b600090505b92915050565b60006006600084815260200190815260200160002060000160008373ffffffffffffffffffffffffffffffffffffffff1673ffffffffffffffffffffffffffffffffffffffff16815260200190815260200160002060009054906101000a900460ff16905092915050565b600080836001016000848152602001908152602001600020541415905092915050565b8280546200051c906200088f565b90600052602060002090601f0160209004810192826200054057600085556200058c565b82601f106200055b57805160ff19168380011785556200058c565b828001600101855582156200058c579182015b828111156200058b5782518255916020019190600101906200056e565b5b5090506200059b91906200059f565b5090565b5b80821115620005ba576000816000905550600101620005a0565b5090565b6000620005d5620005cf84620007d7565b620007a3565b905082815260208101848484011115620005ee57600080fd5b620005fb84828562000859565b509392505050565b600081519050620006148162000923565b92915050565b600082601f8301126200062c57600080fd5b81516200063e848260208601620005be565b91505092915050565b60008151905062000658816200093d565b92915050565b60008060008060008060c087890312156200067857600080fd5b600087015167ffffffffffffffff8111156200069357600080fd5b620006a189828a016200061a565b965050602087015167ffffffffffffffff811115620006bf57600080fd5b620006cd89828a016200061a565b955050604087015167ffffffffffffffff811115620006eb57600080fd5b620006f989828a016200061a565b94505060606200070c89828a0162000603565b93505060806200071f89828a0162000647565b92505060a06200073289828a0162000647565b9150509295509295509295565b60006200074e6020836200080a565b91507f436f75706f6e207061796d656e742063616e2774206265206e656761746976656000830152602082019050919050565b600060208201905081810360008301526200079c816200073f565b9050919050565b6000604051905081810181811067ffffffffffffffff82111715620007cd57620007cc620008f4565b5b8060405250919050565b600067ffffffffffffffff821115620007f557620007f4620008f4565b5b601f19601f8301169050602081019050919050565b600082825260208201905092915050565b600062000828826200082f565b9050919050565b600073ffffffffffffffffffffffffffffffffffffffff82169050919050565b6000819050919050565b60005b83811015620008795780820151818401526020810190506200085c565b8381111562000889576000848401525b50505050565b60006002820490506001821680620008a857607f821691505b60208210811415620008bf57620008be620008c5565b5b50919050565b7f4e487b7100000000000000000000000000000000000000000000000000000000600052602260045260246000fd5b7f4e487b7100000000000000000000000000000000000000000000000000000000600052604160045260246000fd5b6200092e816200081b565b81146200093a57600080fd5b50565b62000948816200084f565b81146200095457600080fd5b50565b615ac580620009676000396000f3fe6080604052600436106102505760003560e01c806370a0823111610139578063a217fddf116100b6578063cde0a4f81161007a578063cde0a4f814610853578063d53913931461087c578063d547741f146108a7578063e985e9c5146108d0578063efd867291461090d578063f2fde38b1461093657610250565b8063a217fddf1461075c578063a22cb46514610787578063b88d4fde146107b0578063c87b56dd146107d9578063ca15c8731461081657610250565b80638a06a364116100fd5780638a06a364146106635780638da5cb5b1461068c5780639010d07c146106b757806391d14854146106f457806395d89b411461073157610250565b806370a082311461059f578063715018a6146105dc5780637ad5be88146105f35780637d2026af1461060f5780638456cb591461064c57610250565b8063248a9ca3116101d25780634a513801116101965780634a513801146104cf5780634cff6c0e146104d95780635c975abb146104e35780635ea639131461050e57806360ab58521461054b5780636352211e1461056257610250565b8063248a9ca3146104005780632f2ff15d1461043d57806336568abe146104665780633f4ba83a1461048f57806342842e0e146104a657610250565b8063095ea7b311610219578063095ea7b314610341578063191ae47b1461036a5780631af2c9fd1461038157806320965255146103ac57806323b872dd146103d757610250565b806283db4b1461025557806301ffc9a71461027157806306fdde03146102ae57806307634cbe146102d9578063081812fc14610304575b600080fd5b61026f600480360381019061026a91906142ef565b61095f565b005b34801561027d57600080fd5b506102986004803603810190610293919061429d565b610b2b565b6040516102a59190615137565b60405180910390f35b3480156102ba57600080fd5b506102c3610b3d565b6040516102d0919061516d565b60405180910390f35b3480156102e557600080fd5b506102ee610bcf565b6040516102fb91906155af565b60405180910390f35b34801561031057600080fd5b5061032b600480360381019061032691906142ef565b610bd9565b604051610338919061507e565b60405180910390f35b34801561034d57600080fd5b5061036860048036038101906103639190614184565b610c5e565b005b34801561037657600080fd5b5061037f610d76565b005b34801561038d57600080fd5b50610396610eca565b6040516103a391906155af565b60405180910390f35b3480156103b857600080fd5b506103c1610ed7565b6040516103ce91906155af565b60405180910390f35b3480156103e357600080fd5b506103fe60048036038101906103f9919061407e565b610ee1565b005b34801561040c57600080fd5b50610427600480360381019061042291906141fc565b610f41565b6040516104349190615152565b60405180910390f35b34801561044957600080fd5b50610464600480360381019061045f9190614225565b610f61565b005b34801561047257600080fd5b5061048d60048036038101906104889190614225565b610f95565b005b34801561049b57600080fd5b506104a4610fc9565b005b3480156104b257600080fd5b506104cd60048036038101906104c8919061407e565b611103565b005b6104d7611123565b005b6104e1611236565b005b3480156104ef57600080fd5b506104f86113d9565b6040516105059190615137565b60405180910390f35b34801561051a57600080fd5b5061053560048036038101906105309190614019565b6113f0565b60405161054291906155af565b60405180910390f35b34801561055757600080fd5b506105606114a8565b005b34801561056e57600080fd5b50610589600480360381019061058491906142ef565b611895565b604051610596919061507e565b60405180910390f35b3480156105ab57600080fd5b506105c660048036038101906105c19190614019565b611947565b6040516105d391906155af565b60405180910390f35b3480156105e857600080fd5b506105f16119ff565b005b61060d60048036038101906106089190614318565b611b3c565b005b34801561061b57600080fd5b50610636600480360381019061063191906142ef565b611dad565b604051610643919061507e565b60405180910390f35b34801561065857600080fd5b50610661611dec565b005b34801561066f57600080fd5b5061068a60048036038101906106859190614019565b611f27565b005b34801561069857600080fd5b506106a1611fe7565b6040516106ae919061507e565b60405180910390f35b3480156106c357600080fd5b506106de60048036038101906106d99190614261565b612011565b6040516106eb919061507e565b60405180910390f35b34801561070057600080fd5b5061071b60048036038101906107169190614225565b612040565b6040516107289190615137565b60405180910390f35b34801561073d57600080fd5b506107466120ab565b604051610753919061516d565b60405180910390f35b34801561076857600080fd5b5061077161213d565b60405161077e9190615152565b60405180910390f35b34801561079357600080fd5b506107ae60048036038101906107a99190614148565b612144565b005b3480156107bc57600080fd5b506107d760048036038101906107d291906140cd565b6122c5565b005b3480156107e557600080fd5b5061080060048036038101906107fb91906142ef565b612327565b60405161080d919061516d565b60405180910390f35b34801561082257600080fd5b5061083d600480360381019061083891906141fc565b6123ce565b60405161084a91906155af565b60405180910390f35b34801561085f57600080fd5b5061087a60048036038101906108759190614019565b6123f2565b005b34801561088857600080fd5b506108916124b2565b60405161089e9190615152565b60405180910390f35b3480156108b357600080fd5b506108ce60048036038101906108c99190614225565b6124d6565b005b3480156108dc57600080fd5b506108f760048036038101906108f29190614042565b61250a565b6040516109049190615137565b60405180910390f35b34801561091957600080fd5b50610934600480360381019061092f91906141c0565b61259e565b005b34801561094257600080fd5b5061095d60048036038101906109589190614019565b6126b0565b005b6011548161096d91906156f5565b3410156109af576040517f08c379a00000000000000000000000000000000000000000000000000000000081526004016109a69061558f565b60405180910390fd5b6000601460003373ffffffffffffffffffffffffffffffffffffffff1673ffffffffffffffffffffffffffffffffffffffff168152602001908152602001600020541415610a5b57600c339080600181540180825580915050600190039060005260206000200160009091909190916101000a81548173ffffffffffffffffffffffffffffffffffffffff021916908373ffffffffffffffffffffffffffffffffffffffff1602179055505b6000601460003373ffffffffffffffffffffffffffffffffffffffff1673ffffffffffffffffffffffffffffffffffffffff1681526020019081526020016000205490503481610aab919061566e565b601460003373ffffffffffffffffffffffffffffffffffffffff1673ffffffffffffffffffffffffffffffffffffffff168152602001908152602001600020819055507ffe123a1efb6782dccd20e9790951adcfab3cd0e11b85a6f06d8b9222d299a0a33334604051610b1f92919061510e565b60405180910390a15050565b6000610b368261289a565b9050919050565b606060008054610b4c906158a3565b80601f0160208091040260200160405190810160405280929190818152602001828054610b78906158a3565b8015610bc55780601f10610b9a57610100808354040283529160200191610bc5565b820191906000526020600020905b815481529060010190602001808311610ba857829003601f168201915b5050505050905090565b6000601254905090565b6000610be482612914565b610c23576040517f08c379a0000000000000000000000000000000000000000000000000000000008152600401610c1a9061544f565b60405180910390fd5b6004600083815260200190815260200160002060009054906101000a900473ffffffffffffffffffffffffffffffffffffffff169050919050565b6000610c6982611895565b90508073ffffffffffffffffffffffffffffffffffffffff168373ffffffffffffffffffffffffffffffffffffffff161415610cda576040517f08c379a0000000000000000000000000000000000000000000000000000000008152600401610cd1906154ef565b60405180910390fd5b8073ffffffffffffffffffffffffffffffffffffffff16610cf9612980565b73ffffffffffffffffffffffffffffffffffffffff161480610d285750610d2781610d22612980565b61250a565b5b610d67576040517f08c379a0000000000000000000000000000000000000000000000000000000008152600401610d5e906153cf565b60405180910390fd5b610d718383612988565b505050565b610d7e612980565b73ffffffffffffffffffffffffffffffffffffffff16610d9c611fe7565b73ffffffffffffffffffffffffffffffffffffffff1614610df2576040517f08c379a0000000000000000000000000000000000000000000000000000000008152600401610de99061546f565b60405180910390fd5b601354471015610e37576040517f08c379a0000000000000000000000000000000000000000000000000000000008152600401610e2e906152af565b60405180910390fd5b60005b610e44600a612a41565b811015610ec7576000610e5682611895565b9050610e6a81610e64611fe7565b84612a4f565b8073ffffffffffffffffffffffffffffffffffffffff166108fc6011549081150290604051600060405180830381858888f19350505050158015610eb2573d6000803e3d6000fd5b50508080610ebf906158d5565b915050610e3a565b50565b6000600c80549050905090565b6000601154905090565b610ef2610eec612980565b82612a5f565b610f31576040517f08c379a0000000000000000000000000000000000000000000000000000000008152600401610f289061552f565b60405180910390fd5b610f3c838383612b3d565b505050565b600060066000838152602001908152602001600020600101549050919050565b610f6b8282612d99565b610f90816007600085815260200190815260200160002061286a90919063ffffffff16565b505050565b610f9f8282612dc2565b610fc48160076000858152602001908152602001600020612e4590919063ffffffff16565b505050565b600b60009054906101000a900460ff16611018576040517f08c379a000000000000000000000000000000000000000000000000000000000815260040161100f906151cf565b60405180910390fd5b600f60009054906101000a900473ffffffffffffffffffffffffffffffffffffffff1673ffffffffffffffffffffffffffffffffffffffff163373ffffffffffffffffffffffffffffffffffffffff16146110a8576040517f08c379a000000000000000000000000000000000000000000000000000000000815260040161109f9061524f565b60405180910390fd5b6000600b60006101000a81548160ff0219169083151502179055507f5db9ee0a495bf2e6ff9c91a7834c1ba4fdd244a5e8aa4e537bd38aeae4b073aa6110ec612980565b6040516110f9919061507e565b60405180910390a1565b61111e838383604051806020016040528060008152506122c5565b505050565b61112d600a612a41565b60125461113a91906156f5565b34101561117c576040517f08c379a00000000000000000000000000000000000000000000000000000000081526004016111739061550f565b60405180910390fd5b60005b611189600a612a41565b81101561123357600061119b82611895565b90508073ffffffffffffffffffffffffffffffffffffffff166108fc6012549081150290604051600060405180830381858888f193505050501580156111e5573d6000803e3d6000fd5b507fb3224bc7c2e6157092b5f650cc8b06e5f0c34d8218b6e9a1a5a39c2e43706e408183604051611217929190615099565b60405180910390a150808061122b906158d5565b91505061117f565b50565b600e60009054906101000a900473ffffffffffffffffffffffffffffffffffffffff1673ffffffffffffffffffffffffffffffffffffffff163373ffffffffffffffffffffffffffffffffffffffff16146112c6576040517f08c379a00000000000000000000000000000000000000000000000000000000081526004016112bd9061530f565b60405180910390fd5b60135434101561130b576040517f08c379a00000000000000000000000000000000000000000000000000000000081526004016113029061554f565b60405180910390fd5b60005b611318600a612a41565b8110156113d657600061132a82611895565b905061135981600d60009054906101000a900473ffffffffffffffffffffffffffffffffffffffff1684612a4f565b8073ffffffffffffffffffffffffffffffffffffffff166108fc6011549081150290604051600060405180830381858888f193505050501580156113a1573d6000803e3d6000fd5b506011546013546113b2919061574f565b6013819055506113c2600a612e75565b5080806113ce906158d5565b91505061130e565b50565b6000600b60009054906101000a900460ff16905090565b60008073ffffffffffffffffffffffffffffffffffffffff168273ffffffffffffffffffffffffffffffffffffffff161415611461576040517f08c379a00000000000000000000000000000000000000000000000000000000081526004016114589061548f565b60405180910390fd5b601460008373ffffffffffffffffffffffffffffffffffffffff1673ffffffffffffffffffffffffffffffffffffffff168152602001908152602001600020549050919050565b6114d97f9f2df0fed2c77648de5860a4cc508cd0818c85b8b8a1ab4ceeef8d981c8956a66114d4612980565b612040565b611518576040517f08c379a000000000000000000000000000000000000000000000000000000000815260040161150f906151ef565b60405180910390fd5b60005b600c80549050811015611892576000600c8281548110611564577f4e487b7100000000000000000000000000000000000000000000000000000000600052603260045260246000fd5b9060005260206000200160009054906101000a900473ffffffffffffffffffffffffffffffffffffffff1690506000601154601460008473ffffffffffffffffffffffffffffffffffffffff1673ffffffffffffffffffffffffffffffffffffffff168152602001908152602001600020546115e091906156c4565b9050600e60009054906101000a900473ffffffffffffffffffffffffffffffffffffffff1673ffffffffffffffffffffffffffffffffffffffff166108fc8260115461162c91906156f5565b9081150290604051600060405180830381858888f19350505050158015611657573d6000803e3d6000fd5b506011548161166691906156f5565b601460008473ffffffffffffffffffffffffffffffffffffffff1673ffffffffffffffffffffffffffffffffffffffff1681526020019081526020016000205411156117db578173ffffffffffffffffffffffffffffffffffffffff166108fc601154836116d491906156f5565b601460008673ffffffffffffffffffffffffffffffffffffffff1673ffffffffffffffffffffffffffffffffffffffff1681526020019081526020016000205461171e919061574f565b9081150290604051600060405180830381858888f19350505050158015611749573d6000803e3d6000fd5b507f2ee76d0c8417fef3c9f68663d321eb1c1ed0e089b5298177f0582aeadb6fd91f826011548361177a91906156f5565b601460008673ffffffffffffffffffffffffffffffffffffffff1673ffffffffffffffffffffffffffffffffffffffff168152602001908152602001600020546117c4919061574f565b6040516117d292919061510e565b60405180910390a15b6000601460008473ffffffffffffffffffffffffffffffffffffffff1673ffffffffffffffffffffffffffffffffffffffff168152602001908152602001600020819055508060115461182e91906156f5565b60135461183b919061566e565b60138190555060005b8181101561187c5761185f8361185a600a612a41565b612ed1565b611869600a61309f565b8080611874906158d5565b915050611844565b505050808061188a906158d5565b91505061151b565b50565b6000806002600084815260200190815260200160002060009054906101000a900473ffffffffffffffffffffffffffffffffffffffff169050600073ffffffffffffffffffffffffffffffffffffffff168173ffffffffffffffffffffffffffffffffffffffff16141561193e576040517f08c379a00000000000000000000000000000000000000000000000000000000081526004016119359061540f565b60405180910390fd5b80915050919050565b60008073ffffffffffffffffffffffffffffffffffffffff168273ffffffffffffffffffffffffffffffffffffffff1614156119b8576040517f08c379a00000000000000000000000000000000000000000000000000000000081526004016119af906153ef565b60405180910390fd5b600360008373ffffffffffffffffffffffffffffffffffffffff1673ffffffffffffffffffffffffffffffffffffffff168152602001908152602001600020549050919050565b611a07612980565b73ffffffffffffffffffffffffffffffffffffffff16611a25611fe7565b73ffffffffffffffffffffffffffffffffffffffff1614611a7b576040517f08c379a0000000000000000000000000000000000000000000000000000000008152600401611a729061546f565b60405180910390fd5b600073ffffffffffffffffffffffffffffffffffffffff16600860009054906101000a900473ffffffffffffffffffffffffffffffffffffffff1673ffffffffffffffffffffffffffffffffffffffff167f8be0079c531659141344cd1fd0a4f28419497f9722a3daafe3b4186f6b6457e060405160405180910390a36000600860006101000a81548173ffffffffffffffffffffffffffffffffffffffff021916908373ffffffffffffffffffffffffffffffffffffffff160217905550565b611b6d7f9f2df0fed2c77648de5860a4cc508cd0818c85b8b8a1ab4ceeef8d981c8956a6611b68612980565b612040565b611bac576040517f08c379a0000000000000000000000000000000000000000000000000000000008152600401611ba3906151ef565b60405180910390fd5b60115482611bba91906156f5565b601460008373ffffffffffffffffffffffffffffffffffffffff1673ffffffffffffffffffffffffffffffffffffffff168152602001908152602001600020541015611c3b576040517f08c379a0000000000000000000000000000000000000000000000000000000008152600401611c329061536f565b60405180910390fd5b600e60009054906101000a900473ffffffffffffffffffffffffffffffffffffffff1673ffffffffffffffffffffffffffffffffffffffff166108fc83601154611c8591906156f5565b9081150290604051600060405180830381858888f19350505050158015611cb0573d6000803e3d6000fd5b5060115482611cbf91906156f5565b601460008373ffffffffffffffffffffffffffffffffffffffff1673ffffffffffffffffffffffffffffffffffffffff16815260200190815260200160002054611d09919061574f565b601460008373ffffffffffffffffffffffffffffffffffffffff1673ffffffffffffffffffffffffffffffffffffffff1681526020019081526020016000208190555060115482611d5a91906156f5565b601354611d67919061566e565b60138190555060005b82811015611da857611d8b82611d86600a612a41565b612ed1565b611d95600a61309f565b8080611da0906158d5565b915050611d70565b505050565b600c8181548110611dbd57600080fd5b906000526020600020016000915054906101000a900473ffffffffffffffffffffffffffffffffffffffff1681565b600b60009054906101000a900460ff1615611e3c576040517f08c379a0000000000000000000000000000000000000000000000000000000008152600401611e339061538f565b60405180910390fd5b600f60009054906101000a900473ffffffffffffffffffffffffffffffffffffffff1673ffffffffffffffffffffffffffffffffffffffff163373ffffffffffffffffffffffffffffffffffffffff1614611ecc576040517f08c379a0000000000000000000000000000000000000000000000000000000008152600401611ec3906153af565b60405180910390fd5b6001600b60006101000a81548160ff0219169083151502179055507f62e78cea01bee320cd4e420270b5ea74000d11b0c9f74754ebdbfc544b05a258611f10612980565b604051611f1d919061507e565b60405180910390a1565b611f2f612980565b73ffffffffffffffffffffffffffffffffffffffff16611f4d611fe7565b73ffffffffffffffffffffffffffffffffffffffff1614611fa3576040517f08c379a0000000000000000000000000000000000000000000000000000000008152600401611f9a9061546f565b60405180910390fd5b80601060006101000a81548173ffffffffffffffffffffffffffffffffffffffff021916908373ffffffffffffffffffffffffffffffffffffffff16021790555050565b6000600860009054906101000a900473ffffffffffffffffffffffffffffffffffffffff16905090565b600061203882600760008681526020019081526020016000206130b590919063ffffffff16565b905092915050565b60006006600084815260200190815260200160002060000160008373ffffffffffffffffffffffffffffffffffffffff1673ffffffffffffffffffffffffffffffffffffffff16815260200190815260200160002060009054906101000a900460ff16905092915050565b6060600180546120ba906158a3565b80601f01602080910402602001604051908101604052809291908181526020018280546120e6906158a3565b80156121335780601f1061210857610100808354040283529160200191612133565b820191906000526020600020905b81548152906001019060200180831161211657829003601f168201915b5050505050905090565b6000801b81565b61214c612980565b73ffffffffffffffffffffffffffffffffffffffff168273ffffffffffffffffffffffffffffffffffffffff1614156121ba576040517f08c379a00000000000000000000000000000000000000000000000000000000081526004016121b1906152ef565b60405180910390fd5b80600560006121c7612980565b73ffffffffffffffffffffffffffffffffffffffff1673ffffffffffffffffffffffffffffffffffffffff16815260200190815260200160002060008473ffffffffffffffffffffffffffffffffffffffff1673ffffffffffffffffffffffffffffffffffffffff16815260200190815260200160002060006101000a81548160ff0219169083151502179055508173ffffffffffffffffffffffffffffffffffffffff16612274612980565b73ffffffffffffffffffffffffffffffffffffffff167f17307eab39ab6107e8899845ad3d59bd9653f200f220920489ca2b5937696c31836040516122b99190615137565b60405180910390a35050565b6122d66122d0612980565b83612a5f565b612315576040517f08c379a000000000000000000000000000000000000000000000000000000000815260040161230c9061552f565b60405180910390fd5b612321848484846130cf565b50505050565b606061233282612914565b612371576040517f08c379a0000000000000000000000000000000000000000000000000000000008152600401612368906154cf565b60405180910390fd5b600061237b61312b565b9050600081511161239b57604051806020016040528060008152506123c6565b806123a5846131bd565b6040516020016123b6929190615020565b6040516020818303038152906040525b915050919050565b60006123eb6007600084815260200190815260200160002061336a565b9050919050565b6123fa612980565b73ffffffffffffffffffffffffffffffffffffffff16612418611fe7565b73ffffffffffffffffffffffffffffffffffffffff161461246e576040517f08c379a00000000000000000000000000000000000000000000000000000000081526004016124659061546f565b60405180910390fd5b80600f60006101000a81548173ffffffffffffffffffffffffffffffffffffffff021916908373ffffffffffffffffffffffffffffffffffffffff16021790555050565b7f9f2df0fed2c77648de5860a4cc508cd0818c85b8b8a1ab4ceeef8d981c8956a681565b6124e0828261337f565b6125058160076000858152602001908152602001600020612e4590919063ffffffff16565b505050565b6000600560008473ffffffffffffffffffffffffffffffffffffffff1673ffffffffffffffffffffffffffffffffffffffff16815260200190815260200160002060008373ffffffffffffffffffffffffffffffffffffffff1673ffffffffffffffffffffffffffffffffffffffff16815260200190815260200160002060009054906101000a900460ff16905092915050565b601060009054906101000a900473ffffffffffffffffffffffffffffffffffffffff1673ffffffffffffffffffffffffffffffffffffffff163373ffffffffffffffffffffffffffffffffffffffff16146125f857600080fd5b8115612617578060125461260c919061566e565b601281905550612671565b60125481111561265c576040517f08c379a00000000000000000000000000000000000000000000000000000000081526004016126539061532f565b60405180910390fd5b8060125461266a919061574f565b6012819055505b7fca1d6283d1b481c7291c2fc81205d98456d1c2948caa5f9460dd3e35ca34e416336012546040516126a492919061510e565b60405180910390a15050565b6126b8612980565b73ffffffffffffffffffffffffffffffffffffffff166126d6611fe7565b73ffffffffffffffffffffffffffffffffffffffff161461272c576040517f08c379a00000000000000000000000000000000000000000000000000000000081526004016127239061546f565b60405180910390fd5b600073ffffffffffffffffffffffffffffffffffffffff168173ffffffffffffffffffffffffffffffffffffffff16141561279c576040517f08c379a00000000000000000000000000000000000000000000000000000000081526004016127939061526f565b60405180910390fd5b8073ffffffffffffffffffffffffffffffffffffffff16600860009054906101000a900473ffffffffffffffffffffffffffffffffffffffff1673ffffffffffffffffffffffffffffffffffffffff167f8be0079c531659141344cd1fd0a4f28419497f9722a3daafe3b4186f6b6457e060405160405180910390a380600860006101000a81548173ffffffffffffffffffffffffffffffffffffffff021916908373ffffffffffffffffffffffffffffffffffffffff16021790555050565b61286682826133a8565b5050565b6000612892836000018373ffffffffffffffffffffffffffffffffffffffff1660001b613489565b905092915050565b60007f5a05180f000000000000000000000000000000000000000000000000000000007bffffffffffffffffffffffffffffffffffffffffffffffffffffffff1916827bffffffffffffffffffffffffffffffffffffffffffffffffffffffff1916148061290d575061290c826134f9565b5b9050919050565b60008073ffffffffffffffffffffffffffffffffffffffff166002600084815260200190815260200160002060009054906101000a900473ffffffffffffffffffffffffffffffffffffffff1673ffffffffffffffffffffffffffffffffffffffff1614159050919050565b600033905090565b816004600083815260200190815260200160002060006101000a81548173ffffffffffffffffffffffffffffffffffffffff021916908373ffffffffffffffffffffffffffffffffffffffff160217905550808273ffffffffffffffffffffffffffffffffffffffff166129fb83611895565b73ffffffffffffffffffffffffffffffffffffffff167f8c5be1e5ebec7d5bd14f71427d1e84f3dd0314c0f7b2291e5b200ac8c7c3b92560405160405180910390a45050565b600081600001549050919050565b612a5a838383612b3d565b505050565b6000612a6a82612914565b612aa9576040517f08c379a0000000000000000000000000000000000000000000000000000000008152600401612aa09061534f565b60405180910390fd5b6000612ab483611895565b90508073ffffffffffffffffffffffffffffffffffffffff168473ffffffffffffffffffffffffffffffffffffffff161480612b2357508373ffffffffffffffffffffffffffffffffffffffff16612b0b84610bd9565b73ffffffffffffffffffffffffffffffffffffffff16145b80612b345750612b33818561250a565b5b91505092915050565b8273ffffffffffffffffffffffffffffffffffffffff16612b5d82611895565b73ffffffffffffffffffffffffffffffffffffffff1614612bb3576040517f08c379a0000000000000000000000000000000000000000000000000000000008152600401612baa906154af565b60405180910390fd5b600073ffffffffffffffffffffffffffffffffffffffff168273ffffffffffffffffffffffffffffffffffffffff161415612c23576040517f08c379a0000000000000000000000000000000000000000000000000000000008152600401612c1a906152cf565b60405180910390fd5b612c2e838383613573565b612c39600082612988565b6001600360008573ffffffffffffffffffffffffffffffffffffffff1673ffffffffffffffffffffffffffffffffffffffff1681526020019081526020016000206000828254612c89919061574f565b925050819055506001600360008473ffffffffffffffffffffffffffffffffffffffff1673ffffffffffffffffffffffffffffffffffffffff1681526020019081526020016000206000828254612ce0919061566e565b92505081905550816002600083815260200190815260200160002060006101000a81548173ffffffffffffffffffffffffffffffffffffffff021916908373ffffffffffffffffffffffffffffffffffffffff160217905550808273ffffffffffffffffffffffffffffffffffffffff168473ffffffffffffffffffffffffffffffffffffffff167fddf252ad1be2c89b69c2b068fc378daa952ba7f163c4a11628f55a4df523b3ef60405160405180910390a4505050565b612da282610f41565b612db381612dae612980565b613578565b612dbd83836133a8565b505050565b612dca612980565b73ffffffffffffffffffffffffffffffffffffffff168173ffffffffffffffffffffffffffffffffffffffff1614612e37576040517f08c379a0000000000000000000000000000000000000000000000000000000008152600401612e2e9061556f565b60405180910390fd5b612e418282613615565b5050565b6000612e6d836000018373ffffffffffffffffffffffffffffffffffffffff1660001b6136f7565b905092915050565b60008160000154905060008111612ec1576040517f08c379a0000000000000000000000000000000000000000000000000000000008152600401612eb89061520f565b60405180910390fd5b6001810382600001819055505050565b600073ffffffffffffffffffffffffffffffffffffffff168273ffffffffffffffffffffffffffffffffffffffff161415612f41576040517f08c379a0000000000000000000000000000000000000000000000000000000008152600401612f389061542f565b60405180910390fd5b612f4a81612914565b15612f8a576040517f08c379a0000000000000000000000000000000000000000000000000000000008152600401612f819061528f565b60405180910390fd5b612f9660008383613573565b6001600360008473ffffffffffffffffffffffffffffffffffffffff1673ffffffffffffffffffffffffffffffffffffffff1681526020019081526020016000206000828254612fe6919061566e565b92505081905550816002600083815260200190815260200160002060006101000a81548173ffffffffffffffffffffffffffffffffffffffff021916908373ffffffffffffffffffffffffffffffffffffffff160217905550808273ffffffffffffffffffffffffffffffffffffffff16600073ffffffffffffffffffffffffffffffffffffffff167fddf252ad1be2c89b69c2b068fc378daa952ba7f163c4a11628f55a4df523b3ef60405160405180910390a45050565b6001816000016000828254019250508190555050565b60006130c48360000183613875565b60001c905092915050565b6130da848484612b3d565b6130e68484848461390f565b613125576040517f08c379a000000000000000000000000000000000000000000000000000000000815260040161311c9061522f565b60405180910390fd5b50505050565b60606009805461313a906158a3565b80601f0160208091040260200160405190810160405280929190818152602001828054613166906158a3565b80156131b35780601f10613188576101008083540402835291602001916131b3565b820191906000526020600020905b81548152906001019060200180831161319657829003601f168201915b5050505050905090565b60606000821415613205576040518060400160405280600181526020017f30000000000000000000000000000000000000000000000000000000000000008152509050613365565b600082905060005b60008214613237578080613220906158d5565b915050600a8261323091906156c4565b915061320d565b60008167ffffffffffffffff811115613279577f4e487b7100000000000000000000000000000000000000000000000000000000600052604160045260246000fd5b6040519080825280601f01601f1916602001820160405280156132ab5781602001600182028036833780820191505090505b5090505b6000851461335e576001826132c4919061574f565b9150600a856132d3919061591e565b60306132df919061566e565b60f81b81838151811061331b577f4e487b7100000000000000000000000000000000000000000000000000000000600052603260045260246000fd5b60200101907effffffffffffffffffffffffffffffffffffffffffffffffffffffffffffff1916908160001a905350600a8561335791906156c4565b94506132af565b8093505050505b919050565b600061337882600001613aa6565b9050919050565b61338882610f41565b61339981613394612980565b613578565b6133a38383613615565b505050565b6133b28282612040565b6134855760016006600084815260200190815260200160002060000160008373ffffffffffffffffffffffffffffffffffffffff1673ffffffffffffffffffffffffffffffffffffffff16815260200190815260200160002060006101000a81548160ff02191690831515021790555061342a612980565b73ffffffffffffffffffffffffffffffffffffffff168173ffffffffffffffffffffffffffffffffffffffff16837f2f8788117e7eff1d82e926ec794901d17c78024a50270940304540a733656f0d60405160405180910390a45b5050565b60006134958383613ab7565b6134ee5782600001829080600181540180825580915050600190039060005260206000200160009091909190915055826000018054905083600101600084815260200190815260200160002081905550600190506134f3565b600090505b92915050565b60007f7965db0b000000000000000000000000000000000000000000000000000000007bffffffffffffffffffffffffffffffffffffffffffffffffffffffff1916827bffffffffffffffffffffffffffffffffffffffffffffffffffffffff1916148061356c575061356b82613ada565b5b9050919050565b505050565b6135828282612040565b613611576135a78173ffffffffffffffffffffffffffffffffffffffff166014613bbc565b6135b58360001c6020613bbc565b6040516020016135c6929190615044565b6040516020818303038152906040526040517f08c379a0000000000000000000000000000000000000000000000000000000008152600401613608919061516d565b60405180910390fd5b5050565b61361f8282612040565b156136f35760006006600084815260200190815260200160002060000160008373ffffffffffffffffffffffffffffffffffffffff1673ffffffffffffffffffffffffffffffffffffffff16815260200190815260200160002060006101000a81548160ff021916908315150217905550613698612980565b73ffffffffffffffffffffffffffffffffffffffff168173ffffffffffffffffffffffffffffffffffffffff16837ff6391f5c32d9c69d2a47ea670b442974b53935d1edc7fd64eb21e047a839171b60405160405180910390a45b5050565b60008083600101600084815260200190815260200160002054905060008114613869576000600182613729919061574f565b9050600060018660000180549050613741919061574f565b90506000866000018281548110613781577f4e487b7100000000000000000000000000000000000000000000000000000000600052603260045260246000fd5b90600052602060002001549050808760000184815481106137cb577f4e487b7100000000000000000000000000000000000000000000000000000000600052603260045260246000fd5b906000526020600020018190555083876001016000838152602001908152602001600020819055508660000180548061382d577f4e487b7100000000000000000000000000000000000000000000000000000000600052603160045260246000fd5b6001900381819060005260206000200160009055905586600101600087815260200190815260200160002060009055600194505050505061386f565b60009150505b92915050565b6000818360000180549050116138c0576040517f08c379a00000000000000000000000000000000000000000000000000000000081526004016138b79061518f565b60405180910390fd5b8260000182815481106138fc577f4e487b7100000000000000000000000000000000000000000000000000000000600052603260045260246000fd5b9060005260206000200154905092915050565b60006139308473ffffffffffffffffffffffffffffffffffffffff16613eb6565b15613a99578373ffffffffffffffffffffffffffffffffffffffff1663150b7a02613959612980565b8786866040518563ffffffff1660e01b815260040161397b94939291906150c2565b602060405180830381600087803b15801561399557600080fd5b505af19250505080156139c657506040513d601f19601f820116820180604052508101906139c391906142c6565b60015b613a49573d80600081146139f6576040519150601f19603f3d011682016040523d82523d6000602084013e6139fb565b606091505b50600081511415613a41576040517f08c379a0000000000000000000000000000000000000000000000000000000008152600401613a389061522f565b60405180910390fd5b805181602001fd5b63150b7a0260e01b7bffffffffffffffffffffffffffffffffffffffffffffffffffffffff1916817bffffffffffffffffffffffffffffffffffffffffffffffffffffffff191614915050613a9e565b600190505b949350505050565b600081600001805490509050919050565b600080836001016000848152602001908152602001600020541415905092915050565b60007f80ac58cd000000000000000000000000000000000000000000000000000000007bffffffffffffffffffffffffffffffffffffffffffffffffffffffff1916827bffffffffffffffffffffffffffffffffffffffffffffffffffffffff19161480613ba557507f5b5e139f000000000000000000000000000000000000000000000000000000007bffffffffffffffffffffffffffffffffffffffffffffffffffffffff1916827bffffffffffffffffffffffffffffffffffffffffffffffffffffffff1916145b80613bb55750613bb482613ec9565b5b9050919050565b606060006002836002613bcf91906156f5565b613bd9919061566e565b67ffffffffffffffff811115613c18577f4e487b7100000000000000000000000000000000000000000000000000000000600052604160045260246000fd5b6040519080825280601f01601f191660200182016040528015613c4a5781602001600182028036833780820191505090505b5090507f300000000000000000000000000000000000000000000000000000000000000081600081518110613ca8577f4e487b7100000000000000000000000000000000000000000000000000000000600052603260045260246000fd5b60200101907effffffffffffffffffffffffffffffffffffffffffffffffffffffffffffff1916908160001a9053507f780000000000000000000000000000000000000000000000000000000000000081600181518110613d32577f4e487b7100000000000000000000000000000000000000000000000000000000600052603260045260246000fd5b60200101907effffffffffffffffffffffffffffffffffffffffffffffffffffffffffffff1916908160001a90535060006001846002613d7291906156f5565b613d7c919061566e565b90505b6001811115613e68577f3031323334353637383961626364656600000000000000000000000000000000600f861660108110613de4577f4e487b7100000000000000000000000000000000000000000000000000000000600052603260045260246000fd5b1a60f81b828281518110613e21577f4e487b7100000000000000000000000000000000000000000000000000000000600052603260045260246000fd5b60200101907effffffffffffffffffffffffffffffffffffffffffffffffffffffffffffff1916908160001a905350600485901c945080613e6190615879565b9050613d7f565b5060008414613eac576040517f08c379a0000000000000000000000000000000000000000000000000000000008152600401613ea3906151af565b60405180910390fd5b8091505092915050565b600080823b905060008111915050919050565b60007f01ffc9a7000000000000000000000000000000000000000000000000000000007bffffffffffffffffffffffffffffffffffffffffffffffffffffffff1916827bffffffffffffffffffffffffffffffffffffffffffffffffffffffff1916149050919050565b6000613f46613f41846155fb565b6155ca565b905082815260208101848484011115613f5e57600080fd5b613f69848285615837565b509392505050565b600081359050613f8081615a1c565b92915050565b600081359050613f9581615a33565b92915050565b600081359050613faa81615a4a565b92915050565b600081359050613fbf81615a61565b92915050565b600081519050613fd481615a61565b92915050565b600082601f830112613feb57600080fd5b8135613ffb848260208601613f33565b91505092915050565b60008135905061401381615a78565b92915050565b60006020828403121561402b57600080fd5b600061403984828501613f71565b91505092915050565b6000806040838503121561405557600080fd5b600061406385828601613f71565b925050602061407485828601613f71565b9150509250929050565b60008060006060848603121561409357600080fd5b60006140a186828701613f71565b93505060206140b286828701613f71565b92505060406140c386828701614004565b9150509250925092565b600080600080608085870312156140e357600080fd5b60006140f187828801613f71565b945050602061410287828801613f71565b935050604061411387828801614004565b925050606085013567ffffffffffffffff81111561413057600080fd5b61413c87828801613fda565b91505092959194509250565b6000806040838503121561415b57600080fd5b600061416985828601613f71565b925050602061417a85828601613f86565b9150509250929050565b6000806040838503121561419757600080fd5b60006141a585828601613f71565b92505060206141b685828601614004565b9150509250929050565b600080604083850312156141d357600080fd5b60006141e185828601613f86565b92505060206141f285828601614004565b9150509250929050565b60006020828403121561420e57600080fd5b600061421c84828501613f9b565b91505092915050565b6000806040838503121561423857600080fd5b600061424685828601613f9b565b925050602061425785828601613f71565b9150509250929050565b6000806040838503121561427457600080fd5b600061428285828601613f9b565b925050602061429385828601614004565b9150509250929050565b6000602082840312156142af57600080fd5b60006142bd84828501613fb0565b91505092915050565b6000602082840312156142d857600080fd5b60006142e684828501613fc5565b91505092915050565b60006020828403121561430157600080fd5b600061430f84828501614004565b91505092915050565b6000806040838503121561432b57600080fd5b600061433985828601614004565b925050602061434a85828601613f71565b9150509250929050565b61435d81615801565b82525050565b61436c81615783565b82525050565b61437b81615795565b82525050565b61438a816157a1565b82525050565b600061439b8261562b565b6143a58185615641565b93506143b5818560208601615846565b6143be81615a0b565b840191505092915050565b60006143d482615636565b6143de8185615652565b93506143ee818560208601615846565b6143f781615a0b565b840191505092915050565b600061440d82615636565b6144178185615663565b9350614427818560208601615846565b80840191505092915050565b6000614440602283615652565b91507f456e756d657261626c655365743a20696e646578206f7574206f6620626f756e60008301527f64730000000000000000000000000000000000000000000000000000000000006020830152604082019050919050565b60006144a6602083615652565b91507f537472696e67733a20686578206c656e67746820696e73756666696369656e746000830152602082019050919050565b60006144e6601483615652565b91507f5061757361626c653a206e6f74207061757365640000000000000000000000006000830152602082019050919050565b6000614526602483615652565b91507f4d696e746572206d7573742068617665206d696e74657220726f6c6520746f2060008301527f6d696e74000000000000000000000000000000000000000000000000000000006020830152604082019050919050565b600061458c601b83615652565b91507f436f756e7465723a2064656372656d656e74206f766572666c6f7700000000006000830152602082019050919050565b60006145cc603283615652565b91507f4552433732313a207472616e7366657220746f206e6f6e20455243373231526560008301527f63656976657220696d706c656d656e74657200000000000000000000000000006020830152604082019050919050565b6000614632602283615652565b91507f556e7061757365722063616e206f6e6c792062652074686520726567756c617460008301527f6f720000000000000000000000000000000000000000000000000000000000006020830152604082019050919050565b6000614698602683615652565b91507f4f776e61626c653a206e6577206f776e657220697320746865207a65726f206160008301527f64647265737300000000000000000000000000000000000000000000000000006020830152604082019050919050565b60006146fe601c83615652565b91507f4552433732313a20746f6b656e20616c7265616479206d696e746564000000006000830152602082019050919050565b600061473e602d83615652565b91507f54686572652773206e6f7420656e6f75676820737461626c6520636f696e206660008301527f6f7220736574746c656d656e74000000000000000000000000000000000000006020830152604082019050919050565b60006147a4602483615652565b91507f4552433732313a207472616e7366657220746f20746865207a65726f2061646460008301527f72657373000000000000000000000000000000000000000000000000000000006020830152604082019050919050565b600061480a601983615652565b91507f4552433732313a20617070726f766520746f2063616c6c6572000000000000006000830152602082019050919050565b600061484a602e83615652565b91507f506179696e6720636f6d70616e792073686f756c642062652074686520626f7260008301527f726f77696e6720636f6d70616e790000000000000000000000000000000000006020830152604082019050919050565b60006148b0602083615652565b91507f436f75706f6e207061796d656e742063616e2774206265206e656761746976656000830152602082019050919050565b60006148f0602c83615652565b91507f4552433732313a206f70657261746f7220717565727920666f72206e6f6e657860008301527f697374656e7420746f6b656e00000000000000000000000000000000000000006020830152604082019050919050565b6000614956602c83615652565b91507f496e766573746f7220686173206e6f7420656e6f7567682066756e647320666f60008301527f722074686520746f6b656e7300000000000000000000000000000000000000006020830152604082019050919050565b60006149bc601083615652565b91507f5061757361626c653a20706175736564000000000000000000000000000000006000830152602082019050919050565b60006149fc602083615652565b91507f5061757365722063616e206f6e6c792062652074686520726567756c61746f726000830152602082019050919050565b6000614a3c603883615652565b91507f4552433732313a20617070726f76652063616c6c6572206973206e6f74206f7760008301527f6e6572206e6f7220617070726f76656420666f7220616c6c00000000000000006020830152604082019050919050565b6000614aa2602a83615652565b91507f4552433732313a2062616c616e636520717565727920666f7220746865207a6560008301527f726f2061646472657373000000000000000000000000000000000000000000006020830152604082019050919050565b6000614b08602983615652565b91507f4552433732313a206f776e657220717565727920666f72206e6f6e657869737460008301527f656e7420746f6b656e00000000000000000000000000000000000000000000006020830152604082019050919050565b6000614b6e602083615652565b91507f4552433732313a206d696e7420746f20746865207a65726f20616464726573736000830152602082019050919050565b6000614bae602c83615652565b91507f4552433732313a20617070726f76656420717565727920666f72206e6f6e657860008301527f697374656e7420746f6b656e00000000000000000000000000000000000000006020830152604082019050919050565b6000614c14602083615652565b91507f4f776e61626c653a2063616c6c6572206973206e6f7420746865206f776e65726000830152602082019050919050565b6000614c54602283615652565b91507f42616c616e636520717565727920666f7220746865207a65726f20616464726560008301527f73730000000000000000000000000000000000000000000000000000000000006020830152604082019050919050565b6000614cba602983615652565b91507f4552433732313a207472616e73666572206f6620746f6b656e2074686174206960008301527f73206e6f74206f776e00000000000000000000000000000000000000000000006020830152604082019050919050565b6000614d20602f83615652565b91507f4552433732314d657461646174613a2055524920717565727920666f72206e6f60008301527f6e6578697374656e7420746f6b656e00000000000000000000000000000000006020830152604082019050919050565b6000614d86602183615652565b91507f4552433732313a20617070726f76616c20746f2063757272656e74206f776e6560008301527f72000000000000000000000000000000000000000000000000000000000000006020830152604082019050919050565b6000614dec601c83615652565b91507f4e6f7420656e6f75676820636f696e7320666f7220636f75706f6e73000000006000830152602082019050919050565b6000614e2c603183615652565b91507f4552433732313a207472616e736665722063616c6c6572206973206e6f74206f60008301527f776e6572206e6f7220617070726f7665640000000000000000000000000000006020830152604082019050919050565b6000614e92602f83615652565b91507f4e6f7420656e6f75676820636f696e7320746f20736574746c6520746865206260008301527f6f6e64206174206d6174757269747900000000000000000000000000000000006020830152604082019050919050565b6000614ef8601783615663565b91507f416363657373436f6e74726f6c3a206163636f756e74200000000000000000006000830152601782019050919050565b6000614f38601183615663565b91507f206973206d697373696e6720726f6c65200000000000000000000000000000006000830152601182019050919050565b6000614f78602f83615652565b91507f416363657373436f6e74726f6c3a2063616e206f6e6c792072656e6f756e636560008301527f20726f6c657320666f722073656c6600000000000000000000000000000000006020830152604082019050919050565b6000614fde601f83615652565b91507f6e6f7420656e6f75676820636f696e7320666f722074686520616d6f756e74006000830152602082019050919050565b61501a816157f7565b82525050565b600061502c8285614402565b91506150388284614402565b91508190509392505050565b600061504f82614eeb565b915061505b8285614402565b915061506682614f2b565b91506150728284614402565b91508190509392505050565b60006020820190506150936000830184614363565b92915050565b60006040820190506150ae6000830185614354565b6150bb6020830184615011565b9392505050565b60006080820190506150d76000830187614363565b6150e46020830186614363565b6150f16040830185615011565b81810360608301526151038184614390565b905095945050505050565b60006040820190506151236000830185614363565b6151306020830184615011565b9392505050565b600060208201905061514c6000830184614372565b92915050565b60006020820190506151676000830184614381565b92915050565b6000602082019050818103600083015261518781846143c9565b905092915050565b600060208201905081810360008301526151a881614433565b9050919050565b600060208201905081810360008301526151c881614499565b9050919050565b600060208201905081810360008301526151e8816144d9565b9050919050565b6000602082019050818103600083015261520881614519565b9050919050565b600060208201905081810360008301526152288161457f565b9050919050565b60006020820190508181036000830152615248816145bf565b9050919050565b6000602082019050818103600083015261526881614625565b9050919050565b600060208201905081810360008301526152888161468b565b9050919050565b600060208201905081810360008301526152a8816146f1565b9050919050565b600060208201905081810360008301526152c881614731565b9050919050565b600060208201905081810360008301526152e881614797565b9050919050565b60006020820190508181036000830152615308816147fd565b9050919050565b600060208201905081810360008301526153288161483d565b9050919050565b60006020820190508181036000830152615348816148a3565b9050919050565b60006020820190508181036000830152615368816148e3565b9050919050565b6000602082019050818103600083015261538881614949565b9050919050565b600060208201905081810360008301526153a8816149af565b9050919050565b600060208201905081810360008301526153c8816149ef565b9050919050565b600060208201905081810360008301526153e881614a2f565b9050919050565b6000602082019050818103600083015261540881614a95565b9050919050565b6000602082019050818103600083015261542881614afb565b9050919050565b6000602082019050818103600083015261544881614b61565b9050919050565b6000602082019050818103600083015261546881614ba1565b9050919050565b6000602082019050818103600083015261548881614c07565b9050919050565b600060208201905081810360008301526154a881614c47565b9050919050565b600060208201905081810360008301526154c881614cad565b9050919050565b600060208201905081810360008301526154e881614d13565b9050919050565b6000602082019050818103600083015261550881614d79565b9050919050565b6000602082019050818103600083015261552881614ddf565b9050919050565b6000602082019050818103600083015261554881614e1f565b9050919050565b6000602082019050818103600083015261556881614e85565b9050919050565b6000602082019050818103600083015261558881614f6b565b9050919050565b600060208201905081810360008301526155a881614fd1565b9050919050565b60006020820190506155c46000830184615011565b92915050565b6000604051905081810181811067ffffffffffffffff821117156155f1576155f06159dc565b5b8060405250919050565b600067ffffffffffffffff821115615616576156156159dc565b5b601f19601f8301169050602081019050919050565b600081519050919050565b600081519050919050565b600082825260208201905092915050565b600082825260208201905092915050565b600081905092915050565b6000615679826157f7565b9150615684836157f7565b9250827fffffffffffffffffffffffffffffffffffffffffffffffffffffffffffffffff038211156156b9576156b861594f565b5b828201905092915050565b60006156cf826157f7565b91506156da836157f7565b9250826156ea576156e961597e565b5b828204905092915050565b6000615700826157f7565b915061570b836157f7565b9250817fffffffffffffffffffffffffffffffffffffffffffffffffffffffffffffffff04831182151516156157445761574361594f565b5b828202905092915050565b600061575a826157f7565b9150615765836157f7565b9250828210156157785761577761594f565b5b828203905092915050565b600061578e826157d7565b9050919050565b60008115159050919050565b6000819050919050565b60007fffffffff0000000000000000000000000000000000000000000000000000000082169050919050565b600073ffffffffffffffffffffffffffffffffffffffff82169050919050565b6000819050919050565b600061580c82615813565b9050919050565b600061581e82615825565b9050919050565b6000615830826157d7565b9050919050565b82818337600083830152505050565b60005b83811015615864578082015181840152602081019050615849565b83811115615873576000848401525b50505050565b6000615884826157f7565b915060008214156158985761589761594f565b5b600182039050919050565b600060028204905060018216806158bb57607f821691505b602082108114156158cf576158ce6159ad565b5b50919050565b60006158e0826157f7565b91507fffffffffffffffffffffffffffffffffffffffffffffffffffffffffffffffff8214156159135761591261594f565b5b600182019050919050565b6000615929826157f7565b9150615934836157f7565b9250826159445761594361597e565b5b828206905092915050565b7f4e487b7100000000000000000000000000000000000000000000000000000000600052601160045260246000fd5b7f4e487b7100000000000000000000000000000000000000000000000000000000600052601260045260246000fd5b7f4e487b7100000000000000000000000000000000000000000000000000000000600052602260045260246000fd5b7f4e487b7100000000000000000000000000000000000000000000000000000000600052604160045260246000fd5b6000601f19601f8301169050919050565b615a2581615783565b8114615a3057600080fd5b50565b615a3c81615795565b8114615a4757600080fd5b50565b615a53816157a1565b8114615a5e57600080fd5b50565b615a6a816157ab565b8114615a7557600080fd5b50565b615a81816157f7565b8114615a8c57600080fd5b5056fea2646970667358221220b2929625d7250890be1b5e1ba8be8397be99f9884fddb6938918784846f8634b64736f6c63430008000033",
  "immutableReferences": {},
  "source": "// SPDX-License-Identifier: MIT\npragma solidity >=0.6.0;\n\nimport \"@openzeppelin/contracts/token/ERC721/ERC721.sol\";\nimport \"@openzeppelin/contracts/access/AccessControlEnumerable.sol\";\nimport \"@openzeppelin/contracts/access/Ownable.sol\";\nimport \"@openzeppelin/contracts/utils/Counters.sol\";\n\ncontract GreenBond is ERC721, AccessControlEnumerable, Ownable{\n    using Counters for Counters.Counter;\n\n    string private _baseTokenURI;\n    Counters.Counter private _tokenIdTracker;\n    bool private _paused;\n\n    address [] public _investors;\n\n    address _owner;\n    address payable _company;\n    address _regulator; // this could be hard coded\n    address _greenVerifier;\n    uint256 _value;\n    uint256 _coupon;\n    uint256 _totalValueRaisedRaised;\n\n    /**\n     * @dev Emitted when an investor registers initial investment request\n     */\n    event Investment(address investor, uint256 value);\n    \n    /**\n     * @dev Emitted when coins are refunded to the investor in case there are\n            too many coins for the investment\n     */\n    event CoinRefund(address investor, uint256 value);\n    \n    /**\n     * @dev Emitted when a coupon payment has been made\n     */\n    event CouponPayment(address investor, uint256 tokenId);\n\n    /**\n     * @dev Emitted when the pause is triggered by a pauser (regulator).\n     */\n    event Paused(address account);\n\n    /**\n     * @dev Emitted when the pause is lifted by a pauser (regulator).\n     */\n    event Unpaused(address account);\n\n    /**\n     * @dev Emmitted when coupon payment is adjusted\n     */\n    event CouponAdjustment(address adjuster, uint256 couponRate);\n\n    mapping (address => uint256) _investedAmountPerInvestor;\n\n    \n\n    bytes32 public constant MINTER_ROLE = keccak256(\"MINTER_ROLE\");\n    \n    // Will need to add pauser address as constructor parameter (financial regulator)\n    constructor(string memory name, string memory symbol, string memory baseTokenURI, \n    address company, uint256 value, uint256 coupon) ERC721 (name, symbol) {\n        require(coupon >= 0, \"Coupon payment can't be negative\");\n        _owner = msg.sender;\n        _baseTokenURI = baseTokenURI;\n        _company = payable(company);\n        _value = value;\n        _coupon = coupon;\n        _paused = false;\n\n        _setupRole(MINTER_ROLE, _msgSender());    \n    }\n\n    function getValue() public view returns(uint256) {\n        return _value;\n    }\n\n    function getCoupon() public view returns(uint256) {\n        return _coupon;\n    }\n\n    function numberOfInvestors() public view returns(uint256) {\n        return _investors.length;\n    }\n    /*\n    function getName() public view returns(string memory) {\n        return name();\n    }\n    */\n\n    function setRegulator(address regulator) public onlyOwner {\n        _regulator = regulator;\n    }\n\n    function setGreenVerifier(address greenVerifier) public onlyOwner {\n        _greenVerifier = greenVerifier;\n    }\n\n    function getInvestorBalance(address investor) public view returns (uint){\n        require(investor != address(0), \"Balance query for the zero address\");\n        return _investedAmountPerInvestor[investor];\n    }\n\n    function _baseURI() internal view override returns (string memory) {\n        return _baseTokenURI;\n    }\n\n    // Needed to override this function as two parent classes defined the same function\n    function supportsInterface(bytes4 interfaceId) public view virtual override(AccessControlEnumerable, ERC721) returns (bool) {\n        return super.supportsInterface(interfaceId);\n    }\n\n    // Function to register investment interest (requires staking money on the contract)\n    function registerInvestment(uint256 number) public payable {\n        // Require that the investor has enough coins\n        require(msg.value >= number * _value, \"not enough coins for the amount\");\n\n        // Check if investor already on the list\n        if (_investedAmountPerInvestor[msg.sender] == 0) {\n            _investors.push(msg.sender);\n        }\n        \n        // Register the investment\n        uint256 currentAmount = _investedAmountPerInvestor[msg.sender];\n        _investedAmountPerInvestor[msg.sender] = currentAmount + msg.value;\n        // Emit event\n        emit Investment(msg.sender, msg.value);\n    }\n\n\n    // Function to issue tokens for registered investors\n    // Assumes all investors will get tokens\n    function issueTokens() external {\n        require(hasRole(MINTER_ROLE, _msgSender()), \"Minter must have minter role to mint\");\n\n        // Iterate through each investor\n        for (uint i = 0; i < _investors.length; i++) {\n            address investor = _investors[i];\n            uint256 numberOfTokens = _investedAmountPerInvestor[investor] / _value;\n            _company.transfer(_value * numberOfTokens); \n            \n            // If the invested amount would be greated than the amount needed for investment\n            // Return the remainder back to the investor\n            if (_investedAmountPerInvestor[investor] > numberOfTokens * _value) {\n                payable(investor).transfer(_investedAmountPerInvestor[investor] - numberOfTokens * _value);\n                emit CoinRefund(investor, _investedAmountPerInvestor[investor] - numberOfTokens * _value);\n            }\n\n            // Update the records\n            _investedAmountPerInvestor[investor] = 0;\n            _totalValueRaisedRaised = _totalValueRaisedRaised + _value * numberOfTokens;\n\n            // Issue tokens\n            for (uint j = 0; j < numberOfTokens; j++) {  \n                _mint(investor, _tokenIdTracker.current());\n                _tokenIdTracker.increment();\n            }\n        }\n    }\n    // Requires that the minter has minter role\n    // Automatically creates tokenURI with baseURI concatenated with TokenId\n    function issueTokens(uint256 numberOfTokens, address to) public payable {\n        require(hasRole(MINTER_ROLE, _msgSender()), \"Minter must have minter role to mint\");\n\n        // Transfer the money to the issuer\n        //require(msg.value >= _value * numberOfTokens, \"Not enough money send for the tokens\");\n        require(_investedAmountPerInvestor[to] >= numberOfTokens * _value, \"Investor has not enough funds for the tokens\");\n        //_company.transfer(msg.value);\n        //_totalValueRaisedRaised = _totalValueRaisedRaised + msg.value;\n\n        // Transfer coins and reduce the investors investment balance\n        _company.transfer(_value * numberOfTokens); \n        _investedAmountPerInvestor[to] = _investedAmountPerInvestor[to] - numberOfTokens * _value;\n        _totalValueRaisedRaised = _totalValueRaisedRaised + numberOfTokens * _value;\n\n        for (uint i = 0; i < numberOfTokens; i++) {  \n            _mint(to, _tokenIdTracker.current());\n            _tokenIdTracker.increment();\n        }\n    }\n\n    // Function for the borrowing company to pay coupons\n    function payCoupons() public payable {\n        // Message needs to have enough value for the copupon payments\n        require(msg.value >= _coupon * _tokenIdTracker.current(), \"Not enough coins for coupons\");\n        for (uint i = 0; i < _tokenIdTracker.current(); i++) {\n            address payable investor = payable(ownerOf(i));\n            investor.transfer(_coupon);\n            emit CouponPayment(investor, i);\n        }\n    }\n\n    // This function should be called by the borrowing company\n    function payBackBond() public payable {\n        require(msg.sender == _company, \"Paying company should be the borrowing company\");\n        require(msg.value >= _totalValueRaisedRaised, \"Not enough coins to settle the bond at maturity\");\n        \n        // Interate through the tokens\n        for(uint i = 0; i < _tokenIdTracker.current(); i++) {\n            address payable investor = payable(ownerOf(i));\n            // Transfer token from investor to owner\n            tokenTransfer(investor, _owner, i);\n            // Return funds\n            investor.transfer(_value);\n            // Decrement the values\n            _totalValueRaisedRaised = _totalValueRaisedRaised - _value;\n            _tokenIdTracker.decrement();\n        }\n    }\n\n    // Not needed anymore\n    function returnTokensAtMaturity() external onlyOwner {\n        // Check that the contract has the right amount of money to send back to the investors\n        require(address(this).balance >= _totalValueRaisedRaised, \"There's not enough stable coin for settlement\");\n        for(uint i = 0; i < _tokenIdTracker.current(); i++) {\n            address payable investor = payable(ownerOf(i));\n            // Get the tokens back\n            tokenTransfer(investor, owner(), i);\n            // Return the stable coin value\n            investor.transfer(_value);    \n        }\n    }\n\n    // WILL NEED TO ADD VALUE TRANSFER NEXT\n    function tokenTransfer(address from, address to, uint256 tokenId) internal {\n        _transfer(from, to, tokenId);\n    }\n\n    // Pauser functions\n    /**\n     * @dev Returns true if the contract is paused, and false otherwise.\n     */\n    function paused() public view returns (bool) {\n        return _paused;\n    }\n\n    /**\n     * @dev Modifier to make a function callable only when the contract is not paused.\n     */\n    modifier whenNotPaused() {\n        require(!_paused, \"Pausable: paused\");\n        _;\n    }\n\n    /**\n     * @dev Modifier to make a function callable only when the contract is paused.\n     */\n    modifier whenPaused() {\n        require(_paused, \"Pausable: not paused\");\n        _;\n    }\n\n    /**\n     * @dev Called by a pauser to pause, triggers stopped state.\n     */\n    function pause() public whenNotPaused {\n        require(msg.sender == _regulator, \"Pauser can only be the regulator\");\n        _paused = true;\n        emit Paused(_msgSender());\n    }\n\n    /**\n     * @dev Called by a pauser to unpause, returns to normal state.\n     */\n    function unpause() public whenPaused {\n        require(msg.sender == _regulator, \"Unpauser can only be the regulator\");\n        _paused = false;\n        emit Unpaused(_msgSender());\n    }\n\n    function adjustCoupon(bool increase, uint256 amount) external {\n        require(msg.sender == _greenVerifier);\n        if (increase){\n            _coupon = _coupon + amount;\n        } else {\n            require(amount <= _coupon, \"Coupon payment can't be negative\");\n            _coupon = _coupon - amount;\n        }\n        emit CouponAdjustment(msg.sender, _coupon);\n    }\n\n}",
  "sourcePath": "/Users/leena/Documents/Coding/Blockchain_Green_Bonds/testProjects/OZ_test/contracts/GreenBond.sol",
  "compiler": {
    "name": "solc",
    "version": "0.8.0+commit.c7dfd78e.Emscripten.clang"
  },
  "schemaVersion": "3.3.4",
  "updatedAt": "2021-06-23T11:52:37.381Z",
  "networkType": "ethereum",
  "devdoc": {
    "events": {
      "CoinRefund(address,uint256)": {
        "details": "Emitted when coins are refunded to the investor in case there are too many coins for the investment"
      },
      "CouponAdjustment(address,uint256)": {
        "details": "Emmitted when coupon payment is adjusted"
      },
      "CouponPayment(address,uint256)": {
        "details": "Emitted when a coupon payment has been made"
      },
      "Investment(address,uint256)": {
        "details": "Emitted when an investor registers initial investment request"
      },
      "Paused(address)": {
        "details": "Emitted when the pause is triggered by a pauser (regulator)."
      },
      "Unpaused(address)": {
        "details": "Emitted when the pause is lifted by a pauser (regulator)."
      }
    },
    "kind": "dev",
    "methods": {
      "approve(address,uint256)": {
        "details": "See {IERC721-approve}."
      },
      "balanceOf(address)": {
        "details": "See {IERC721-balanceOf}."
      },
      "getApproved(uint256)": {
        "details": "See {IERC721-getApproved}."
      },
      "getRoleAdmin(bytes32)": {
        "details": "Returns the admin role that controls `role`. See {grantRole} and {revokeRole}. To change a role's admin, use {_setRoleAdmin}."
      },
      "getRoleMember(bytes32,uint256)": {
        "details": "Returns one of the accounts that have `role`. `index` must be a value between 0 and {getRoleMemberCount}, non-inclusive. Role bearers are not sorted in any particular way, and their ordering may change at any point. WARNING: When using {getRoleMember} and {getRoleMemberCount}, make sure you perform all queries on the same block. See the following https://forum.openzeppelin.com/t/iterating-over-elements-on-enumerableset-in-openzeppelin-contracts/2296[forum post] for more information."
      },
      "getRoleMemberCount(bytes32)": {
        "details": "Returns the number of accounts that have `role`. Can be used together with {getRoleMember} to enumerate all bearers of a role."
      },
      "grantRole(bytes32,address)": {
        "details": "Overload {grantRole} to track enumerable memberships"
      },
      "hasRole(bytes32,address)": {
        "details": "Returns `true` if `account` has been granted `role`."
      },
      "isApprovedForAll(address,address)": {
        "details": "See {IERC721-isApprovedForAll}."
      },
      "name()": {
        "details": "See {IERC721Metadata-name}."
      },
      "owner()": {
        "details": "Returns the address of the current owner."
      },
      "ownerOf(uint256)": {
        "details": "See {IERC721-ownerOf}."
      },
      "pause()": {
        "details": "Called by a pauser to pause, triggers stopped state."
      },
      "paused()": {
        "details": "Returns true if the contract is paused, and false otherwise."
      },
      "renounceOwnership()": {
        "details": "Leaves the contract without owner. It will not be possible to call `onlyOwner` functions anymore. Can only be called by the current owner. NOTE: Renouncing ownership will leave the contract without an owner, thereby removing any functionality that is only available to the owner."
      },
      "renounceRole(bytes32,address)": {
        "details": "Overload {renounceRole} to track enumerable memberships"
      },
      "revokeRole(bytes32,address)": {
        "details": "Overload {revokeRole} to track enumerable memberships"
      },
      "safeTransferFrom(address,address,uint256)": {
        "details": "See {IERC721-safeTransferFrom}."
      },
      "safeTransferFrom(address,address,uint256,bytes)": {
        "details": "See {IERC721-safeTransferFrom}."
      },
      "setApprovalForAll(address,bool)": {
        "details": "See {IERC721-setApprovalForAll}."
      },
      "symbol()": {
        "details": "See {IERC721Metadata-symbol}."
      },
      "tokenURI(uint256)": {
        "details": "See {IERC721Metadata-tokenURI}."
      },
      "transferFrom(address,address,uint256)": {
        "details": "See {IERC721-transferFrom}."
      },
      "transferOwnership(address)": {
        "details": "Transfers ownership of the contract to a new account (`newOwner`). Can only be called by the current owner."
      },
      "unpause()": {
        "details": "Called by a pauser to unpause, returns to normal state."
      }
    },
    "version": 1
  },
  "userdoc": {
    "kind": "user",
    "methods": {},
    "version": 1
  }
}