{
  "contractName": "GreenCertificate",
  "abi": [
    {
      "inputs": [
        {
          "internalType": "address",
          "name": "company",
          "type": "address"
        }
      ],
      "stateMutability": "nonpayable",
      "type": "constructor"
    },
    {
      "anonymous": false,
      "inputs": [
        {
          "indexed": false,
          "internalType": "string",
          "name": "name",
          "type": "string"
        }
      ],
      "name": "ProjectAdded",
      "type": "event"
    },
    {
      "anonymous": false,
      "inputs": [
        {
          "indexed": false,
          "internalType": "string",
          "name": "name",
          "type": "string"
        }
      ],
      "name": "ProjectRemoved",
      "type": "event"
    },
    {
      "inputs": [],
      "name": "getOwner",
      "outputs": [
        {
          "internalType": "address",
          "name": "",
          "type": "address"
        }
      ],
      "stateMutability": "view",
      "type": "function"
    },
    {
      "inputs": [],
      "name": "getCompany",
      "outputs": [
        {
          "internalType": "address",
          "name": "",
          "type": "address"
        }
      ],
      "stateMutability": "view",
      "type": "function"
    },
    {
      "inputs": [],
      "name": "getProjects",
      "outputs": [
        {
          "internalType": "string[]",
          "name": "",
          "type": "string[]"
        }
      ],
      "stateMutability": "view",
      "type": "function"
    },
    {
      "inputs": [
        {
          "internalType": "string",
          "name": "name",
          "type": "string"
        }
      ],
      "name": "isCertifiedProject",
      "outputs": [
        {
          "internalType": "bool",
          "name": "",
          "type": "bool"
        }
      ],
      "stateMutability": "view",
      "type": "function"
    },
    {
      "inputs": [
        {
          "internalType": "string",
          "name": "name",
          "type": "string"
        }
      ],
      "name": "addProject",
      "outputs": [],
      "stateMutability": "nonpayable",
      "type": "function"
    }
  ],
  "bytecode": "0x608060405234801561001057600080fd5b50604051610953380380610953833981810160405281019061003291906100ce565b80600160006101000a81548173ffffffffffffffffffffffffffffffffffffffff021916908373ffffffffffffffffffffffffffffffffffffffff160217905550336000806101000a81548173ffffffffffffffffffffffffffffffffffffffff021916908373ffffffffffffffffffffffffffffffffffffffff16021790555050610140565b6000815190506100c881610129565b92915050565b6000602082840312156100e057600080fd5b60006100ee848285016100b9565b91505092915050565b600061010282610109565b9050919050565b600073ffffffffffffffffffffffffffffffffffffffff82169050919050565b610132816100f7565b811461013d57600080fd5b50565b6108048061014f6000396000f3fe608060405234801561001057600080fd5b50600436106100575760003560e01c80630ed047d41461005c578063127810bc14610078578063893d20e814610096578063dcc60128146100b4578063ffa67370146100d2575b600080fd5b6100766004803603810190610071919061045f565b610102565b005b61008061020e565b60405161008d91906105ef565b60405180910390f35b61009e610238565b6040516100ab91906105ef565b60405180910390f35b6100bc610261565b6040516100c9919061060a565b60405180910390f35b6100ec60048036038101906100e7919061045f565b61033a565b6040516100f9919061062c565b60405180910390f35b60008054906101000a900473ffffffffffffffffffffffffffffffffffffffff1673ffffffffffffffffffffffffffffffffffffffff163373ffffffffffffffffffffffffffffffffffffffff161461015a57600080fd5b60016003838360405161016e9291906105d6565b908152602001604051809103902060006101000a81548160ff02191690831515021790555060028282909180600181540180825580915050600190039060005260206000200160009091929091929091929091925091906101d0929190610372565b507fe2113e2f31e9059e4f64d1910b874f2e8ee4a4fd9081c4910d409f649dfe3b488282604051610202929190610647565b60405180910390a15050565b6000600160009054906101000a900473ffffffffffffffffffffffffffffffffffffffff16905090565b60008060009054906101000a900473ffffffffffffffffffffffffffffffffffffffff16905090565b60606002805480602002602001604051908101604052809291908181526020016000905b828210156103315783829060005260206000200180546102a49061075c565b80601f01602080910402602001604051908101604052809291908181526020018280546102d09061075c565b801561031d5780601f106102f25761010080835404028352916020019161031d565b820191906000526020600020905b81548152906001019060200180831161030057829003601f168201915b505050505081526020019060010190610285565b50505050905090565b60006003838360405161034e9291906105d6565b908152602001604051809103902060009054906101000a900460ff16905092915050565b82805461037e9061075c565b90600052602060002090601f0160209004810192826103a057600085556103e7565b82601f106103b957803560ff19168380011785556103e7565b828001600101855582156103e7579182015b828111156103e65782358255916020019190600101906103cb565b5b5090506103f491906103f8565b5090565b5b808211156104115760008160009055506001016103f9565b5090565b60008083601f84011261042757600080fd5b8235905067ffffffffffffffff81111561044057600080fd5b60208301915083600182028301111561045857600080fd5b9250929050565b6000806020838503121561047257600080fd5b600083013567ffffffffffffffff81111561048c57600080fd5b61049885828601610415565b92509250509250929050565b60006104b0838361059d565b905092915050565b6104c1816106dc565b82525050565b60006104d28261067b565b6104dc818561069e565b9350836020820285016104ee8561066b565b8060005b8581101561052a578484038952815161050b85826104a4565b945061051683610691565b925060208a019950506001810190506104f2565b50829750879550505050505092915050565b610545816106ee565b82525050565b600061055783856106c0565b935061056483858461071a565b61056d836107bd565b840190509392505050565b600061058483856106d1565b935061059183858461071a565b82840190509392505050565b60006105a882610686565b6105b281856106af565b93506105c2818560208601610729565b6105cb816107bd565b840191505092915050565b60006105e3828486610578565b91508190509392505050565b600060208201905061060460008301846104b8565b92915050565b6000602082019050818103600083015261062481846104c7565b905092915050565b6000602082019050610641600083018461053c565b92915050565b6000602082019050818103600083015261066281848661054b565b90509392505050565b6000819050602082019050919050565b600081519050919050565b600081519050919050565b6000602082019050919050565b600082825260208201905092915050565b600082825260208201905092915050565b600082825260208201905092915050565b600081905092915050565b60006106e7826106fa565b9050919050565b60008115159050919050565b600073ffffffffffffffffffffffffffffffffffffffff82169050919050565b82818337600083830152505050565b60005b8381101561074757808201518184015260208101905061072c565b83811115610756576000848401525b50505050565b6000600282049050600182168061077457607f821691505b602082108114156107885761078761078e565b5b50919050565b7f4e487b7100000000000000000000000000000000000000000000000000000000600052602260045260246000fd5b6000601f19601f830116905091905056fea264697066735822122030a99ad28607a7111e19a4255786b15711c139af8668e820218e4161b2502eda64736f6c63430008000033",
  "immutableReferences": {},
  "source": "// SPDX-License-Identifier: MIT\npragma solidity >=0.6.0;\npragma experimental ABIEncoderV2;\n\ncontract GreenCertificate {\n\n    /** \n    * @dev Event to be emitted when a project is added\n    */\n    event ProjectAdded(string name);\n    /** \n    * @dev Event to be emitted when a project is removed\n    */\n    event ProjectRemoved(string name);\n\n    // function modifier\n    modifier onlyOwner() {\n        require(msg.sender == _owner);\n        _;\n    }\n\n    // Member variables\n    address private _owner;\n    address private _company;\n    string[] private _projectList;\n\n    // Mapping for certified projects\n    mapping(string => bool) _greenProjects;\n\n    constructor(address company) {\n        _company = company;\n        _owner = msg.sender;\n    }\n\n    // Getter functions\n    function getOwner() external view returns (address) {\n        return _owner;\n    }\n\n    function getCompany() external view returns (address) {\n        return _company;\n    }\n\n    function getProjects() public view returns (string[] memory) {\n        return _projectList;\n    }\n\n    // Function to check if a project is certified\n    function isCertifiedProject(string calldata name) external view returns (bool) {\n        return (_greenProjects[name]);\n    }\n\n    // Functions to add and remove certified projects\n    function addProject(string calldata name) external onlyOwner {\n        _greenProjects[name] = true;\n        _projectList.push(name);\n        emit ProjectAdded(name);\n    }\n}",
  "sourcePath": "/Users/leena/Documents/Coding/Blockchain_Green_Bonds/testProjects/OZ_test/contracts/GreenCertificate2.sol",
  "compiler": {
    "name": "solc",
    "version": "0.8.0+commit.c7dfd78e.Emscripten.clang"
  },
  "schemaVersion": "3.4.1",
  "updatedAt": "2021-08-12T09:31:56.272Z",
  "networkType": "ethereum",
  "devdoc": {
    "events": {
      "ProjectAdded(string)": {
        "details": "Event to be emitted when a project is added"
      },
      "ProjectRemoved(string)": {
        "details": "Event to be emitted when a project is removed"
      }
    },
    "kind": "dev",
    "methods": {},
    "version": 1
  },
  "userdoc": {
    "kind": "user",
    "methods": {},
    "version": 1
  }
}